{
  "contractName": "L7ERC721Enumerable",
  "abi": [
    {
      "inputs": [
        {
          "internalType": "address",
          "name": "KYCAddress",
          "type": "address"
        }
      ],
      "stateMutability": "nonpayable",
      "type": "constructor"
    },
    {
      "anonymous": false,
      "inputs": [
        {
          "indexed": true,
          "internalType": "address",
          "name": "owner",
          "type": "address"
        },
        {
          "indexed": true,
          "internalType": "address",
          "name": "approved",
          "type": "address"
        },
        {
          "indexed": true,
          "internalType": "uint256",
          "name": "tokenId",
          "type": "uint256"
        }
      ],
      "name": "Approval",
      "type": "event"
    },
    {
      "anonymous": false,
      "inputs": [
        {
          "indexed": true,
          "internalType": "address",
          "name": "owner",
          "type": "address"
        },
        {
          "indexed": true,
          "internalType": "address",
          "name": "operator",
          "type": "address"
        },
        {
          "indexed": false,
          "internalType": "bool",
          "name": "approved",
          "type": "bool"
        }
      ],
      "name": "ApprovalForAll",
      "type": "event"
    },
    {
      "anonymous": false,
      "inputs": [
        {
          "indexed": true,
          "internalType": "address",
          "name": "previousOwner",
          "type": "address"
        },
        {
          "indexed": true,
          "internalType": "address",
          "name": "newOwner",
          "type": "address"
        }
      ],
      "name": "OwnershipTransferred",
      "type": "event"
    },
    {
      "anonymous": false,
      "inputs": [
        {
          "indexed": true,
          "internalType": "address",
          "name": "from",
          "type": "address"
        },
        {
          "indexed": true,
          "internalType": "address",
          "name": "to",
          "type": "address"
        },
        {
          "indexed": true,
          "internalType": "uint256",
          "name": "tokenId",
          "type": "uint256"
        }
      ],
      "name": "Transfer",
      "type": "event"
    },
    {
      "inputs": [
        {
          "internalType": "address",
          "name": "to",
          "type": "address"
        },
        {
          "internalType": "uint256",
          "name": "tokenId",
          "type": "uint256"
        }
      ],
      "name": "approve",
      "outputs": [],
      "stateMutability": "nonpayable",
      "type": "function"
    },
    {
      "inputs": [
        {
          "internalType": "address",
          "name": "owner",
          "type": "address"
        }
      ],
      "name": "balanceOf",
      "outputs": [
        {
          "internalType": "uint256",
          "name": "",
          "type": "uint256"
        }
      ],
      "stateMutability": "view",
      "type": "function",
      "constant": true
    },
    {
      "inputs": [
        {
          "internalType": "uint256",
          "name": "tokenId",
          "type": "uint256"
        }
      ],
      "name": "getApproved",
      "outputs": [
        {
          "internalType": "address",
          "name": "",
          "type": "address"
        }
      ],
      "stateMutability": "view",
      "type": "function",
      "constant": true
    },
    {
      "inputs": [
        {
          "internalType": "address",
          "name": "owner",
          "type": "address"
        },
        {
          "internalType": "address",
          "name": "operator",
          "type": "address"
        }
      ],
      "name": "isApprovedForAll",
      "outputs": [
        {
          "internalType": "bool",
          "name": "",
          "type": "bool"
        }
      ],
      "stateMutability": "view",
      "type": "function",
      "constant": true
    },
    {
      "inputs": [],
      "name": "name",
      "outputs": [
        {
          "internalType": "string",
          "name": "",
          "type": "string"
        }
      ],
      "stateMutability": "view",
      "type": "function",
      "constant": true
    },
    {
      "inputs": [],
      "name": "owner",
      "outputs": [
        {
          "internalType": "address",
          "name": "",
          "type": "address"
        }
      ],
      "stateMutability": "view",
      "type": "function",
      "constant": true
    },
    {
      "inputs": [
        {
          "internalType": "uint256",
          "name": "tokenId",
          "type": "uint256"
        }
      ],
      "name": "ownerOf",
      "outputs": [
        {
          "internalType": "address",
          "name": "",
          "type": "address"
        }
      ],
      "stateMutability": "view",
      "type": "function",
      "constant": true
    },
    {
      "inputs": [],
      "name": "renounceOwnership",
      "outputs": [],
      "stateMutability": "nonpayable",
      "type": "function"
    },
    {
      "inputs": [
        {
          "internalType": "address",
          "name": "operator",
          "type": "address"
        },
        {
          "internalType": "bool",
          "name": "approved",
          "type": "bool"
        }
      ],
      "name": "setApprovalForAll",
      "outputs": [],
      "stateMutability": "nonpayable",
      "type": "function"
    },
    {
      "inputs": [],
      "name": "symbol",
      "outputs": [
        {
          "internalType": "string",
          "name": "",
          "type": "string"
        }
      ],
      "stateMutability": "view",
      "type": "function",
      "constant": true
    },
    {
      "inputs": [
        {
          "internalType": "uint256",
          "name": "index",
          "type": "uint256"
        }
      ],
      "name": "tokenByIndex",
      "outputs": [
        {
          "internalType": "uint256",
          "name": "",
          "type": "uint256"
        }
      ],
      "stateMutability": "view",
      "type": "function",
      "constant": true
    },
    {
      "inputs": [
        {
          "internalType": "address",
          "name": "owner",
          "type": "address"
        },
        {
          "internalType": "uint256",
          "name": "index",
          "type": "uint256"
        }
      ],
      "name": "tokenOfOwnerByIndex",
      "outputs": [
        {
          "internalType": "uint256",
          "name": "",
          "type": "uint256"
        }
      ],
      "stateMutability": "view",
      "type": "function",
      "constant": true
    },
    {
      "inputs": [],
      "name": "totalSupply",
      "outputs": [
        {
          "internalType": "uint256",
          "name": "",
          "type": "uint256"
        }
      ],
      "stateMutability": "view",
      "type": "function",
      "constant": true
    },
    {
      "inputs": [
        {
          "internalType": "address",
          "name": "newOwner",
          "type": "address"
        }
      ],
      "name": "transferOwnership",
      "outputs": [],
      "stateMutability": "nonpayable",
      "type": "function"
    },
    {
      "inputs": [
        {
          "internalType": "bytes4",
          "name": "interfaceId",
          "type": "bytes4"
        }
      ],
      "name": "supportsInterface",
      "outputs": [
        {
          "internalType": "bool",
          "name": "",
          "type": "bool"
        }
      ],
      "stateMutability": "view",
      "type": "function",
      "constant": true
    },
    {
      "inputs": [
        {
          "internalType": "address",
          "name": "to",
          "type": "address"
        },
        {
          "internalType": "string",
          "name": "uri",
          "type": "string"
        }
      ],
      "name": "mint",
      "outputs": [
        {
          "internalType": "uint256",
          "name": "",
          "type": "uint256"
        }
      ],
      "stateMutability": "nonpayable",
      "type": "function"
    },
    {
      "inputs": [
        {
          "internalType": "uint256",
          "name": "tokenId",
          "type": "uint256"
        }
      ],
      "name": "tokenURI",
      "outputs": [
        {
          "internalType": "string",
          "name": "",
          "type": "string"
        }
      ],
      "stateMutability": "view",
      "type": "function",
      "constant": true
    },
    {
      "inputs": [
        {
          "internalType": "address",
          "name": "from",
          "type": "address"
        },
        {
          "internalType": "address",
          "name": "to",
          "type": "address"
        },
        {
          "internalType": "uint256",
          "name": "tokenId",
          "type": "uint256"
        }
      ],
      "name": "transferFrom",
      "outputs": [],
      "stateMutability": "nonpayable",
      "type": "function"
    },
    {
      "inputs": [
        {
          "internalType": "address",
          "name": "from",
          "type": "address"
        },
        {
          "internalType": "address",
          "name": "to",
          "type": "address"
        },
        {
          "internalType": "uint256",
          "name": "tokenId",
          "type": "uint256"
        }
      ],
      "name": "safeTransferFrom",
      "outputs": [],
      "stateMutability": "nonpayable",
      "type": "function"
    },
    {
      "inputs": [
        {
          "internalType": "address",
          "name": "from",
          "type": "address"
        },
        {
          "internalType": "address",
          "name": "to",
          "type": "address"
        },
        {
          "internalType": "uint256",
          "name": "tokenId",
          "type": "uint256"
        },
        {
          "internalType": "bytes",
          "name": "_data",
          "type": "bytes"
        }
      ],
      "name": "safeTransferFrom",
      "outputs": [],
      "stateMutability": "nonpayable",
      "type": "function"
    },
    {
      "inputs": [
        {
          "internalType": "address",
          "name": "kycAddr",
          "type": "address"
        }
      ],
      "name": "setKYCImplementation",
      "outputs": [],
      "stateMutability": "nonpayable",
      "type": "function"
    },
    {
      "inputs": [],
      "name": "getKYCAddress",
      "outputs": [
        {
          "internalType": "address",
          "name": "",
          "type": "address"
        }
      ],
      "stateMutability": "view",
      "type": "function",
      "constant": true
    }
  ],
  "bytecode": "0x60806040523480156200001157600080fd5b5060405162003e5538038062003e5583398181016040528101906200003791906200029f565b6040518060400160405280601881526020017f5461757265756d20455243373231456e756d657261626c6500000000000000008152506040518060400160405280600781526020017f5461757265756d000000000000000000000000000000000000000000000000008152508160009080519060200190620000bb929190620001d8565b508060019080519060200190620000d4929190620001d8565b5050506000620000e9620001d060201b60201c565b905080600a60006101000a81548173ffffffffffffffffffffffffffffffffffffffff021916908373ffffffffffffffffffffffffffffffffffffffff1602179055508073ffffffffffffffffffffffffffffffffffffffff16600073ffffffffffffffffffffffffffffffffffffffff167f8be0079c531659141344cd1fd0a4f28419497f9722a3daafe3b4186f6b6457e060405160405180910390a35080600b60006101000a81548173ffffffffffffffffffffffffffffffffffffffff021916908373ffffffffffffffffffffffffffffffffffffffff160217905550506200037e565b600033905090565b828054620001e690620002ff565b90600052602060002090601f0160209004810192826200020a576000855562000256565b82601f106200022557805160ff191683800117855562000256565b8280016001018555821562000256579182015b828111156200025557825182559160200191906001019062000238565b5b50905062000265919062000269565b5090565b5b80821115620002845760008160009055506001016200026a565b5090565b600081519050620002998162000364565b92915050565b600060208284031215620002b257600080fd5b6000620002c28482850162000288565b91505092915050565b6000620002d882620002df565b9050919050565b600073ffffffffffffffffffffffffffffffffffffffff82169050919050565b600060028204905060018216806200031857607f821691505b602082108114156200032f576200032e62000335565b5b50919050565b7f4e487b7100000000000000000000000000000000000000000000000000000000600052602260045260246000fd5b6200036f81620002cb565b81146200037b57600080fd5b50565b613ac7806200038e6000396000f3fe608060405234801561001057600080fd5b50600436106101425760003560e01c806370a08231116100b8578063a22cb4651161007c578063a22cb46514610377578063b88d4fde14610393578063c87b56dd146103af578063d0def521146103df578063e985e9c51461040f578063f2fde38b1461043f57610142565b806370a08231146102e5578063715018a614610315578063862b06041461031f5780638da5cb5b1461033b57806395d89b411461035957610142565b806323b872dd1161010a57806323b872dd146101ff5780632f745c591461021b57806342842e0e1461024b5780634f6ccce7146102675780635e336761146102975780636352211e146102b557610142565b806301ffc9a71461014757806306fdde0314610177578063081812fc14610195578063095ea7b3146101c557806318160ddd146101e1575b600080fd5b610161600480360381019061015c91906129b6565b61045b565b60405161016e9190612f26565b60405180910390f35b61017f61053d565b60405161018c9190612f41565b60405180910390f35b6101af60048036038101906101aa9190612a08565b6105cf565b6040516101bc9190612e8d565b60405180910390f35b6101df60048036038101906101da9190612951565b610654565b005b6101e961076c565b6040516101f691906131e3565b60405180910390f35b610219600480360381019061021491906127f3565b610779565b005b61023560048036038101906102309190612951565b6108e4565b60405161024291906131e3565b60405180910390f35b610265600480360381019061026091906127f3565b610989565b005b610281600480360381019061027c9190612a08565b6109a9565b60405161028e91906131e3565b60405180910390f35b61029f610a40565b6040516102ac9190612e8d565b60405180910390f35b6102cf60048036038101906102ca9190612a08565b610a6a565b6040516102dc9190612e8d565b60405180910390f35b6102ff60048036038101906102fa919061278e565b610b1c565b60405161030c91906131e3565b60405180910390f35b61031d610bd4565b005b6103396004803603810190610334919061278e565b610d11565b005b610343610dd1565b6040516103509190612e8d565b60405180910390f35b610361610dfb565b60405161036e9190612f41565b60405180910390f35b610391600480360381019061038c91906128bd565b610e8d565b005b6103ad60048036038101906103a89190612842565b61100e565b005b6103c960048036038101906103c49190612a08565b61117b565b6040516103d69190612f41565b60405180910390f35b6103f960048036038101906103f491906128f9565b6112b8565b60405161040691906131e3565b60405180910390f35b610429600480360381019061042491906127b7565b6113d9565b6040516104369190612f26565b60405180910390f35b6104596004803603810190610454919061278e565b61146d565b005b60007f80ac58cd000000000000000000000000000000000000000000000000000000007bffffffffffffffffffffffffffffffffffffffffffffffffffffffff1916827bffffffffffffffffffffffffffffffffffffffffffffffffffffffff1916148061052657507f5b5e139f000000000000000000000000000000000000000000000000000000007bffffffffffffffffffffffffffffffffffffffffffffffffffffffff1916827bffffffffffffffffffffffffffffffffffffffffffffffffffffffff1916145b80610536575061053582611619565b5b9050919050565b60606000805461054c906133ec565b80601f0160208091040260200160405190810160405280929190818152602001828054610578906133ec565b80156105c55780601f1061059a576101008083540402835291602001916105c5565b820191906000526020600020905b8154815290600101906020018083116105a857829003601f168201915b5050505050905090565b60006105da82611693565b610619576040517f08c379a0000000000000000000000000000000000000000000000000000000008152600401610610906130e3565b60405180910390fd5b6004600083815260200190815260200160002060009054906101000a900473ffffffffffffffffffffffffffffffffffffffff169050919050565b600061065f82610a6a565b90508073ffffffffffffffffffffffffffffffffffffffff168373ffffffffffffffffffffffffffffffffffffffff1614156106d0576040517f08c379a00000000000000000000000000000000000000000000000000000000081526004016106c790613163565b60405180910390fd5b8073ffffffffffffffffffffffffffffffffffffffff166106ef6116ff565b73ffffffffffffffffffffffffffffffffffffffff16148061071e575061071d816107186116ff565b6113d9565b5b61075d576040517f08c379a000000000000000000000000000000000000000000000000000000000815260040161075490613063565b60405180910390fd5b6107678383611707565b505050565b6000600880549050905090565b81600061078582610b1c565b90506000600b60009054906101000a900473ffffffffffffffffffffffffffffffffffffffff1673ffffffffffffffffffffffffffffffffffffffff16633da1c0c3846040518263ffffffff1660e01b81526004016107e49190612e8d565b60206040518083038186803b1580156107fc57600080fd5b505afa158015610810573d6000803e3d6000fd5b505050506040513d601f19601f82011682018060405250810190610834919061298d565b905080806108425750600a82105b610881576040517f08c379a000000000000000000000000000000000000000000000000000000000815260040161087890612fe3565b60405180910390fd5b61089261088c6116ff565b856117c0565b6108d1576040517f08c379a00000000000000000000000000000000000000000000000000000000081526004016108c890613183565b60405180910390fd5b6108dc86868661189e565b505050505050565b60006108ef83610b1c565b8210610930576040517f08c379a000000000000000000000000000000000000000000000000000000000815260040161092790612f63565b60405180910390fd5b600660008473ffffffffffffffffffffffffffffffffffffffff1673ffffffffffffffffffffffffffffffffffffffff168152602001908152602001600020600083815260200190815260200160002054905092915050565b6109a48383836040518060200160405280600081525061100e565b505050565b60006109b361076c565b82106109f4576040517f08c379a00000000000000000000000000000000000000000000000000000000081526004016109eb906131a3565b60405180910390fd5b60088281548110610a2e577f4e487b7100000000000000000000000000000000000000000000000000000000600052603260045260246000fd5b90600052602060002001549050919050565b6000600b60009054906101000a900473ffffffffffffffffffffffffffffffffffffffff16905090565b6000806002600084815260200190815260200160002060009054906101000a900473ffffffffffffffffffffffffffffffffffffffff169050600073ffffffffffffffffffffffffffffffffffffffff168173ffffffffffffffffffffffffffffffffffffffff161415610b13576040517f08c379a0000000000000000000000000000000000000000000000000000000008152600401610b0a906130a3565b60405180910390fd5b80915050919050565b60008073ffffffffffffffffffffffffffffffffffffffff168273ffffffffffffffffffffffffffffffffffffffff161415610b8d576040517f08c379a0000000000000000000000000000000000000000000000000000000008152600401610b8490613083565b60405180910390fd5b600360008373ffffffffffffffffffffffffffffffffffffffff1673ffffffffffffffffffffffffffffffffffffffff168152602001908152602001600020549050919050565b610bdc6116ff565b73ffffffffffffffffffffffffffffffffffffffff16610bfa610dd1565b73ffffffffffffffffffffffffffffffffffffffff1614610c50576040517f08c379a0000000000000000000000000000000000000000000000000000000008152600401610c4790613103565b60405180910390fd5b600073ffffffffffffffffffffffffffffffffffffffff16600a60009054906101000a900473ffffffffffffffffffffffffffffffffffffffff1673ffffffffffffffffffffffffffffffffffffffff167f8be0079c531659141344cd1fd0a4f28419497f9722a3daafe3b4186f6b6457e060405160405180910390a36000600a60006101000a81548173ffffffffffffffffffffffffffffffffffffffff021916908373ffffffffffffffffffffffffffffffffffffffff160217905550565b610d196116ff565b73ffffffffffffffffffffffffffffffffffffffff16610d37610dd1565b73ffffffffffffffffffffffffffffffffffffffff1614610d8d576040517f08c379a0000000000000000000000000000000000000000000000000000000008152600401610d8490613103565b60405180910390fd5b80600b60006101000a81548173ffffffffffffffffffffffffffffffffffffffff021916908373ffffffffffffffffffffffffffffffffffffffff16021790555050565b6000600a60009054906101000a900473ffffffffffffffffffffffffffffffffffffffff16905090565b606060018054610e0a906133ec565b80601f0160208091040260200160405190810160405280929190818152602001828054610e36906133ec565b8015610e835780601f10610e5857610100808354040283529160200191610e83565b820191906000526020600020905b815481529060010190602001808311610e6657829003601f168201915b5050505050905090565b610e956116ff565b73ffffffffffffffffffffffffffffffffffffffff168273ffffffffffffffffffffffffffffffffffffffff161415610f03576040517f08c379a0000000000000000000000000000000000000000000000000000000008152600401610efa90613023565b60405180910390fd5b8060056000610f106116ff565b73ffffffffffffffffffffffffffffffffffffffff1673ffffffffffffffffffffffffffffffffffffffff16815260200190815260200160002060008473ffffffffffffffffffffffffffffffffffffffff1673ffffffffffffffffffffffffffffffffffffffff16815260200190815260200160002060006101000a81548160ff0219169083151502179055508173ffffffffffffffffffffffffffffffffffffffff16610fbd6116ff565b73ffffffffffffffffffffffffffffffffffffffff167f17307eab39ab6107e8899845ad3d59bd9653f200f220920489ca2b5937696c31836040516110029190612f26565b60405180910390a35050565b82600061101a82610b1c565b90506000600b60009054906101000a900473ffffffffffffffffffffffffffffffffffffffff1673ffffffffffffffffffffffffffffffffffffffff16633da1c0c3846040518263ffffffff1660e01b81526004016110799190612e8d565b60206040518083038186803b15801561109157600080fd5b505afa1580156110a5573d6000803e3d6000fd5b505050506040513d601f19601f820116820180604052508101906110c9919061298d565b905080806110d75750600a82105b611116576040517f08c379a000000000000000000000000000000000000000000000000000000000815260040161110d90612fe3565b60405180910390fd5b6111276111216116ff565b866117c0565b611166576040517f08c379a000000000000000000000000000000000000000000000000000000000815260040161115d90613183565b60405180910390fd5b61117287878787611afa565b50505050505050565b606061118682611693565b6111c5576040517f08c379a00000000000000000000000000000000000000000000000000000000081526004016111bc90613143565b60405180910390fd5b60006111cf611b56565b9050600081511161127b57600c600084815260200190815260200160002080546111f8906133ec565b80601f0160208091040260200160405190810160405280929190818152602001828054611224906133ec565b80156112715780601f1061124657610100808354040283529160200191611271565b820191906000526020600020905b81548152906001019060200180831161125457829003601f168201915b50505050506112b0565b80600c60008581526020019081526020016000206040516020016112a0929190612e69565b6040516020818303038152906040525b915050919050565b60008360006112c682610b1c565b90506000600b60009054906101000a900473ffffffffffffffffffffffffffffffffffffffff1673ffffffffffffffffffffffffffffffffffffffff16633da1c0c3846040518263ffffffff1660e01b81526004016113259190612e8d565b60206040518083038186803b15801561133d57600080fd5b505afa158015611351573d6000803e3d6000fd5b505050506040513d601f19601f82011682018060405250810190611375919061298d565b905080806113835750600a82105b6113c2576040517f08c379a00000000000000000000000000000000000000000000000000000000081526004016113b990612fe3565b60405180910390fd5b6113cd878787611b93565b93505050509392505050565b6000600560008473ffffffffffffffffffffffffffffffffffffffff1673ffffffffffffffffffffffffffffffffffffffff16815260200190815260200160002060008373ffffffffffffffffffffffffffffffffffffffff1673ffffffffffffffffffffffffffffffffffffffff16815260200190815260200160002060009054906101000a900460ff16905092915050565b6114756116ff565b73ffffffffffffffffffffffffffffffffffffffff16611493610dd1565b73ffffffffffffffffffffffffffffffffffffffff16146114e9576040517f08c379a00000000000000000000000000000000000000000000000000000000081526004016114e090613103565b60405180910390fd5b600073ffffffffffffffffffffffffffffffffffffffff168173ffffffffffffffffffffffffffffffffffffffff161415611559576040517f08c379a000000000000000000000000000000000000000000000000000000000815260040161155090612fa3565b60405180910390fd5b8073ffffffffffffffffffffffffffffffffffffffff16600a60009054906101000a900473ffffffffffffffffffffffffffffffffffffffff1673ffffffffffffffffffffffffffffffffffffffff167f8be0079c531659141344cd1fd0a4f28419497f9722a3daafe3b4186f6b6457e060405160405180910390a380600a60006101000a81548173ffffffffffffffffffffffffffffffffffffffff021916908373ffffffffffffffffffffffffffffffffffffffff16021790555050565b60007f780e9d63000000000000000000000000000000000000000000000000000000007bffffffffffffffffffffffffffffffffffffffffffffffffffffffff1916827bffffffffffffffffffffffffffffffffffffffffffffffffffffffff1916148061168c575061168b82611be6565b5b9050919050565b60008073ffffffffffffffffffffffffffffffffffffffff166002600084815260200190815260200160002060009054906101000a900473ffffffffffffffffffffffffffffffffffffffff1673ffffffffffffffffffffffffffffffffffffffff1614159050919050565b600033905090565b816004600083815260200190815260200160002060006101000a81548173ffffffffffffffffffffffffffffffffffffffff021916908373ffffffffffffffffffffffffffffffffffffffff160217905550808273ffffffffffffffffffffffffffffffffffffffff1661177a83610a6a565b73ffffffffffffffffffffffffffffffffffffffff167f8c5be1e5ebec7d5bd14f71427d1e84f3dd0314c0f7b2291e5b200ac8c7c3b92560405160405180910390a45050565b60006117cb82611693565b61180a576040517f08c379a000000000000000000000000000000000000000000000000000000000815260040161180190613043565b60405180910390fd5b600061181583610a6a565b90508073ffffffffffffffffffffffffffffffffffffffff168473ffffffffffffffffffffffffffffffffffffffff16148061188457508373ffffffffffffffffffffffffffffffffffffffff1661186c846105cf565b73ffffffffffffffffffffffffffffffffffffffff16145b80611895575061189481856113d9565b5b91505092915050565b8273ffffffffffffffffffffffffffffffffffffffff166118be82610a6a565b73ffffffffffffffffffffffffffffffffffffffff1614611914576040517f08c379a000000000000000000000000000000000000000000000000000000000815260040161190b90613123565b60405180910390fd5b600073ffffffffffffffffffffffffffffffffffffffff168273ffffffffffffffffffffffffffffffffffffffff161415611984576040517f08c379a000000000000000000000000000000000000000000000000000000000815260040161197b90613003565b60405180910390fd5b61198f838383611cc8565b61199a600082611707565b6001600360008573ffffffffffffffffffffffffffffffffffffffff1673ffffffffffffffffffffffffffffffffffffffff16815260200190815260200160002060008282546119ea9190613302565b925050819055506001600360008473ffffffffffffffffffffffffffffffffffffffff1673ffffffffffffffffffffffffffffffffffffffff1681526020019081526020016000206000828254611a4191906132ac565b92505081905550816002600083815260200190815260200160002060006101000a81548173ffffffffffffffffffffffffffffffffffffffff021916908373ffffffffffffffffffffffffffffffffffffffff160217905550808273ffffffffffffffffffffffffffffffffffffffff168473ffffffffffffffffffffffffffffffffffffffff167fddf252ad1be2c89b69c2b068fc378daa952ba7f163c4a11628f55a4df523b3ef60405160405180910390a4505050565b611b0584848461189e565b611b1184848484611cd8565b611b50576040517f08c379a0000000000000000000000000000000000000000000000000000000008152600401611b4790612f83565b60405180910390fd5b50505050565b60606040518060400160405280600781526020017f697066733a2f2f00000000000000000000000000000000000000000000000000815250905090565b600080848484604051602001611bab93929190612ef4565b6040516020818303038152906040528051906020012060001c9050611bd08582611e6f565b611bdb81858561203d565b809150509392505050565b60007f80ac58cd000000000000000000000000000000000000000000000000000000007bffffffffffffffffffffffffffffffffffffffffffffffffffffffff1916827bffffffffffffffffffffffffffffffffffffffffffffffffffffffff19161480611cb157507f5b5e139f000000000000000000000000000000000000000000000000000000007bffffffffffffffffffffffffffffffffffffffffffffffffffffffff1916827bffffffffffffffffffffffffffffffffffffffffffffffffffffffff1916145b80611cc15750611cc0826120ad565b5b9050919050565b611cd3838383612117565b505050565b6000611cf98473ffffffffffffffffffffffffffffffffffffffff1661222b565b15611e62578373ffffffffffffffffffffffffffffffffffffffff1663150b7a02611d226116ff565b8786866040518563ffffffff1660e01b8152600401611d449493929190612ea8565b602060405180830381600087803b158015611d5e57600080fd5b505af1925050508015611d8f57506040513d601f19601f82011682018060405250810190611d8c91906129df565b60015b611e12573d8060008114611dbf576040519150601f19603f3d011682016040523d82523d6000602084013e611dc4565b606091505b50600081511415611e0a576040517f08c379a0000000000000000000000000000000000000000000000000000000008152600401611e0190612f83565b60405180910390fd5b805181602001fd5b63150b7a0260e01b7bffffffffffffffffffffffffffffffffffffffffffffffffffffffff1916817bffffffffffffffffffffffffffffffffffffffffffffffffffffffff191614915050611e67565b600190505b949350505050565b600073ffffffffffffffffffffffffffffffffffffffff168273ffffffffffffffffffffffffffffffffffffffff161415611edf576040517f08c379a0000000000000000000000000000000000000000000000000000000008152600401611ed6906130c3565b60405180910390fd5b611ee881611693565b15611f28576040517f08c379a0000000000000000000000000000000000000000000000000000000008152600401611f1f90612fc3565b60405180910390fd5b611f3460008383611cc8565b6001600360008473ffffffffffffffffffffffffffffffffffffffff1673ffffffffffffffffffffffffffffffffffffffff1681526020019081526020016000206000828254611f8491906132ac565b92505081905550816002600083815260200190815260200160002060006101000a81548173ffffffffffffffffffffffffffffffffffffffff021916908373ffffffffffffffffffffffffffffffffffffffff160217905550808273ffffffffffffffffffffffffffffffffffffffff16600073ffffffffffffffffffffffffffffffffffffffff167fddf252ad1be2c89b69c2b068fc378daa952ba7f163c4a11628f55a4df523b3ef60405160405180910390a45050565b61204683611693565b612085576040517f08c379a000000000000000000000000000000000000000000000000000000000815260040161207c906131c3565b60405180910390fd5b8181600c600086815260200190815260200160002091906120a79291906125bb565b50505050565b60007f01ffc9a7000000000000000000000000000000000000000000000000000000007bffffffffffffffffffffffffffffffffffffffffffffffffffffffff1916827bffffffffffffffffffffffffffffffffffffffffffffffffffffffff1916149050919050565b61212283838361223e565b600073ffffffffffffffffffffffffffffffffffffffff168373ffffffffffffffffffffffffffffffffffffffff1614156121655761216081612243565b6121a4565b8173ffffffffffffffffffffffffffffffffffffffff168373ffffffffffffffffffffffffffffffffffffffff16146121a3576121a2838261228c565b5b5b600073ffffffffffffffffffffffffffffffffffffffff168273ffffffffffffffffffffffffffffffffffffffff1614156121e7576121e2816123f9565b612226565b8273ffffffffffffffffffffffffffffffffffffffff168273ffffffffffffffffffffffffffffffffffffffff161461222557612224828261253c565b5b5b505050565b600080823b905060008111915050919050565b505050565b6008805490506009600083815260200190815260200160002081905550600881908060018154018082558091505060019003906000526020600020016000909190919091505550565b6000600161229984610b1c565b6122a39190613302565b9050600060076000848152602001908152602001600020549050818114612388576000600660008673ffffffffffffffffffffffffffffffffffffffff1673ffffffffffffffffffffffffffffffffffffffff168152602001908152602001600020600084815260200190815260200160002054905080600660008773ffffffffffffffffffffffffffffffffffffffff1673ffffffffffffffffffffffffffffffffffffffff168152602001908152602001600020600084815260200190815260200160002081905550816007600083815260200190815260200160002081905550505b6007600084815260200190815260200160002060009055600660008573ffffffffffffffffffffffffffffffffffffffff1673ffffffffffffffffffffffffffffffffffffffff16815260200190815260200160002060008381526020019081526020016000206000905550505050565b6000600160088054905061240d9190613302565b9050600060096000848152602001908152602001600020549050600060088381548110612463577f4e487b7100000000000000000000000000000000000000000000000000000000600052603260045260246000fd5b9060005260206000200154905080600883815481106124ab577f4e487b7100000000000000000000000000000000000000000000000000000000600052603260045260246000fd5b906000526020600020018190555081600960008381526020019081526020016000208190555060096000858152602001908152602001600020600090556008805480612520577f4e487b7100000000000000000000000000000000000000000000000000000000600052603160045260246000fd5b6001900381819060005260206000200160009055905550505050565b600061254783610b1c565b905081600660008573ffffffffffffffffffffffffffffffffffffffff1673ffffffffffffffffffffffffffffffffffffffff168152602001908152602001600020600083815260200190815260200160002081905550806007600084815260200190815260200160002081905550505050565b8280546125c7906133ec565b90600052602060002090601f0160209004810192826125e95760008555612630565b82601f1061260257803560ff1916838001178555612630565b82800160010185558215612630579182015b8281111561262f578235825591602001919060010190612614565b5b50905061263d9190612641565b5090565b5b8082111561265a576000816000905550600101612642565b5090565b600061267161266c84613223565b6131fe565b90508281526020810184848401111561268957600080fd5b6126948482856133aa565b509392505050565b6000813590506126ab81613a35565b92915050565b6000813590506126c081613a4c565b92915050565b6000815190506126d581613a4c565b92915050565b6000813590506126ea81613a63565b92915050565b6000815190506126ff81613a63565b92915050565b600082601f83011261271657600080fd5b813561272684826020860161265e565b91505092915050565b60008083601f84011261274157600080fd5b8235905067ffffffffffffffff81111561275a57600080fd5b60208301915083600182028301111561277257600080fd5b9250929050565b60008135905061278881613a7a565b92915050565b6000602082840312156127a057600080fd5b60006127ae8482850161269c565b91505092915050565b600080604083850312156127ca57600080fd5b60006127d88582860161269c565b92505060206127e98582860161269c565b9150509250929050565b60008060006060848603121561280857600080fd5b60006128168682870161269c565b93505060206128278682870161269c565b925050604061283886828701612779565b9150509250925092565b6000806000806080858703121561285857600080fd5b60006128668782880161269c565b94505060206128778782880161269c565b935050604061288887828801612779565b925050606085013567ffffffffffffffff8111156128a557600080fd5b6128b187828801612705565b91505092959194509250565b600080604083850312156128d057600080fd5b60006128de8582860161269c565b92505060206128ef858286016126b1565b9150509250929050565b60008060006040848603121561290e57600080fd5b600061291c8682870161269c565b935050602084013567ffffffffffffffff81111561293957600080fd5b6129458682870161272f565b92509250509250925092565b6000806040838503121561296457600080fd5b60006129728582860161269c565b925050602061298385828601612779565b9150509250929050565b60006020828403121561299f57600080fd5b60006129ad848285016126c6565b91505092915050565b6000602082840312156129c857600080fd5b60006129d6848285016126db565b91505092915050565b6000602082840312156129f157600080fd5b60006129ff848285016126f0565b91505092915050565b600060208284031215612a1a57600080fd5b6000612a2884828501612779565b91505092915050565b612a3a81613336565b82525050565b612a4981613348565b82525050565b6000612a5a82613269565b612a64818561327f565b9350612a748185602086016133b9565b612a7d816134dc565b840191505092915050565b6000612a948385613290565b9350612aa18385846133aa565b612aaa836134dc565b840190509392505050565b6000612ac082613274565b612aca8185613290565b9350612ada8185602086016133b9565b612ae3816134dc565b840191505092915050565b6000612af982613274565b612b0381856132a1565b9350612b138185602086016133b9565b80840191505092915050565b60008154612b2c816133ec565b612b3681866132a1565b94506001821660008114612b515760018114612b6257612b95565b60ff19831686528186019350612b95565b612b6b85613254565b60005b83811015612b8d57815481890152600182019150602081019050612b6e565b838801955050505b50505092915050565b6000612bab602b83613290565b9150612bb6826134ed565b604082019050919050565b6000612bce603283613290565b9150612bd98261353c565b604082019050919050565b6000612bf1602683613290565b9150612bfc8261358b565b604082019050919050565b6000612c14601c83613290565b9150612c1f826135da565b602082019050919050565b6000612c37601683613290565b9150612c4282613603565b602082019050919050565b6000612c5a602483613290565b9150612c658261362c565b604082019050919050565b6000612c7d601983613290565b9150612c888261367b565b602082019050919050565b6000612ca0602c83613290565b9150612cab826136a4565b604082019050919050565b6000612cc3603883613290565b9150612cce826136f3565b604082019050919050565b6000612ce6602a83613290565b9150612cf182613742565b604082019050919050565b6000612d09602983613290565b9150612d1482613791565b604082019050919050565b6000612d2c602083613290565b9150612d37826137e0565b602082019050919050565b6000612d4f602c83613290565b9150612d5a82613809565b604082019050919050565b6000612d72602083613290565b9150612d7d82613858565b602082019050919050565b6000612d95602983613290565b9150612da082613881565b604082019050919050565b6000612db8602f83613290565b9150612dc3826138d0565b604082019050919050565b6000612ddb602183613290565b9150612de68261391f565b604082019050919050565b6000612dfe603183613290565b9150612e098261396e565b604082019050919050565b6000612e21602c83613290565b9150612e2c826139bd565b604082019050919050565b6000612e44601483613290565b9150612e4f82613a0c565b602082019050919050565b612e63816133a0565b82525050565b6000612e758285612aee565b9150612e818284612b1f565b91508190509392505050565b6000602082019050612ea26000830184612a31565b92915050565b6000608082019050612ebd6000830187612a31565b612eca6020830186612a31565b612ed76040830185612e5a565b8181036060830152612ee98184612a4f565b905095945050505050565b6000604082019050612f096000830186612a31565b8181036020830152612f1c818486612a88565b9050949350505050565b6000602082019050612f3b6000830184612a40565b92915050565b60006020820190508181036000830152612f5b8184612ab5565b905092915050565b60006020820190508181036000830152612f7c81612b9e565b9050919050565b60006020820190508181036000830152612f9c81612bc1565b9050919050565b60006020820190508181036000830152612fbc81612be4565b9050919050565b60006020820190508181036000830152612fdc81612c07565b9050919050565b60006020820190508181036000830152612ffc81612c2a565b9050919050565b6000602082019050818103600083015261301c81612c4d565b9050919050565b6000602082019050818103600083015261303c81612c70565b9050919050565b6000602082019050818103600083015261305c81612c93565b9050919050565b6000602082019050818103600083015261307c81612cb6565b9050919050565b6000602082019050818103600083015261309c81612cd9565b9050919050565b600060208201905081810360008301526130bc81612cfc565b9050919050565b600060208201905081810360008301526130dc81612d1f565b9050919050565b600060208201905081810360008301526130fc81612d42565b9050919050565b6000602082019050818103600083015261311c81612d65565b9050919050565b6000602082019050818103600083015261313c81612d88565b9050919050565b6000602082019050818103600083015261315c81612dab565b9050919050565b6000602082019050818103600083015261317c81612dce565b9050919050565b6000602082019050818103600083015261319c81612df1565b9050919050565b600060208201905081810360008301526131bc81612e14565b9050919050565b600060208201905081810360008301526131dc81612e37565b9050919050565b60006020820190506131f86000830184612e5a565b92915050565b6000613208613219565b9050613214828261341e565b919050565b6000604051905090565b600067ffffffffffffffff82111561323e5761323d6134ad565b5b613247826134dc565b9050602081019050919050565b60008190508160005260206000209050919050565b600081519050919050565b600081519050919050565b600082825260208201905092915050565b600082825260208201905092915050565b600081905092915050565b60006132b7826133a0565b91506132c2836133a0565b9250827fffffffffffffffffffffffffffffffffffffffffffffffffffffffffffffffff038211156132f7576132f661344f565b5b828201905092915050565b600061330d826133a0565b9150613318836133a0565b92508282101561332b5761332a61344f565b5b828203905092915050565b600061334182613380565b9050919050565b60008115159050919050565b60007fffffffff0000000000000000000000000000000000000000000000000000000082169050919050565b600073ffffffffffffffffffffffffffffffffffffffff82169050919050565b6000819050919050565b82818337600083830152505050565b60005b838110156133d75780820151818401526020810190506133bc565b838111156133e6576000848401525b50505050565b6000600282049050600182168061340457607f821691505b602082108114156134185761341761347e565b5b50919050565b613427826134dc565b810181811067ffffffffffffffff82111715613446576134456134ad565b5b80604052505050565b7f4e487b7100000000000000000000000000000000000000000000000000000000600052601160045260246000fd5b7f4e487b7100000000000000000000000000000000000000000000000000000000600052602260045260246000fd5b7f4e487b7100000000000000000000000000000000000000000000000000000000600052604160045260246000fd5b6000601f19601f8301169050919050565b7f455243373231456e756d657261626c653a206f776e657220696e646578206f7560008201527f74206f6620626f756e6473000000000000000000000000000000000000000000602082015250565b7f4552433732313a207472616e7366657220746f206e6f6e20455243373231526560008201527f63656976657220696d706c656d656e7465720000000000000000000000000000602082015250565b7f4f776e61626c653a206e6577206f776e657220697320746865207a65726f206160008201527f6464726573730000000000000000000000000000000000000000000000000000602082015250565b7f4552433732313a20746f6b656e20616c7265616479206d696e74656400000000600082015250565b7f4e46545f434f554e545f4d41585f455843454544454400000000000000000000600082015250565b7f4552433732313a207472616e7366657220746f20746865207a65726f2061646460008201527f7265737300000000000000000000000000000000000000000000000000000000602082015250565b7f4552433732313a20617070726f766520746f2063616c6c657200000000000000600082015250565b7f4552433732313a206f70657261746f7220717565727920666f72206e6f6e657860008201527f697374656e7420746f6b656e0000000000000000000000000000000000000000602082015250565b7f4552433732313a20617070726f76652063616c6c6572206973206e6f74206f7760008201527f6e6572206e6f7220617070726f76656420666f7220616c6c0000000000000000602082015250565b7f4552433732313a2062616c616e636520717565727920666f7220746865207a6560008201527f726f206164647265737300000000000000000000000000000000000000000000602082015250565b7f4552433732313a206f776e657220717565727920666f72206e6f6e657869737460008201527f656e7420746f6b656e0000000000000000000000000000000000000000000000602082015250565b7f4552433732313a206d696e7420746f20746865207a65726f2061646472657373600082015250565b7f4552433732313a20617070726f76656420717565727920666f72206e6f6e657860008201527f697374656e7420746f6b656e0000000000000000000000000000000000000000602082015250565b7f4f776e61626c653a2063616c6c6572206973206e6f7420746865206f776e6572600082015250565b7f4552433732313a207472616e73666572206f6620746f6b656e2074686174206960008201527f73206e6f74206f776e0000000000000000000000000000000000000000000000602082015250565b7f4552433732314d657461646174613a2055524920717565727920666f72206e6f60008201527f6e6578697374656e7420746f6b656e0000000000000000000000000000000000602082015250565b7f4552433732313a20617070726f76616c20746f2063757272656e74206f776e6560008201527f7200000000000000000000000000000000000000000000000000000000000000602082015250565b7f4552433732313a207472616e736665722063616c6c6572206973206e6f74206f60008201527f776e6572206e6f7220617070726f766564000000000000000000000000000000602082015250565b7f455243373231456e756d657261626c653a20676c6f62616c20696e646578206f60008201527f7574206f6620626f756e64730000000000000000000000000000000000000000602082015250565b7f544f4b454e5f49445f4e4f545f45584953544544000000000000000000000000600082015250565b613a3e81613336565b8114613a4957600080fd5b50565b613a5581613348565b8114613a6057600080fd5b50565b613a6c81613354565b8114613a7757600080fd5b50565b613a83816133a0565b8114613a8e57600080fd5b5056fea26469706673582212203ebeb053d04bbc709c13c933d1dd6aa22fca9f92fb82e4fdb857946a20c6788c64736f6c63430008040033",
  "immutableReferences": {},
  "source": "// SPDX-License-Identifier: MIT\n\npragma solidity ^0.8.4;\n\nimport \"./IL7KYC.sol\";\nimport \"./lib/token/ERC721/ERC721.sol\";\nimport \"./lib/token/ERC721/extensions/ERC721Enumerable.sol\";\nimport \"./lib/access/Ownable.sol\";\n\ncontract L7ERC721Enumerable is ERC721, ERC721Enumerable, Ownable {\n    /**\n     * @dev The contract address for the KYC entry.\n     */\n    address internal _KYCAddress;\n\n    /**\n     * @dev Mapping from NFT ID to metadata uri.\n     */\n    mapping(uint256 => string) internal idToUri;\n\n    /**\n   * @dev Guarantee that _to is able to receive more NFTs.\n   * @param _to Owner address to validate.\n   */\n    modifier canReceiveNFT(\n        address _to\n    )\n    {\n        uint256 balance = balanceOf(_to);\n        bool isVerifiedUser = IL7KYC(_KYCAddress).isVerifiedUser(_to);\n\n        require(isVerifiedUser || balance < 10, \"NFT_COUNT_MAX_EXCEEDED\");\n        _;\n    }\n\n    /**\n     * @dev Create a new L7ERC721 contract and assign the KYCAddress to _KYCAddress.\n     *\n     * TODO: change the default name and symbol.\n     */\n    constructor(address KYCAddress) ERC721(\"L7 ERC721Enumerable\", \"L7\") Ownable() {\n        _KYCAddress = KYCAddress;\n    }\n\n    /**\n     * @dev See {IERC165-supportsInterface}.\n     */\n    function supportsInterface(bytes4 interfaceId) public view virtual override(ERC721, ERC721Enumerable) returns (bool) {\n        return\n        interfaceId == type(IERC721).interfaceId ||\n        interfaceId == type(IERC721Metadata).interfaceId ||\n        super.supportsInterface(interfaceId);\n    }\n\n    /**\n      * @dev Mint a new NFT.\n      * @notice It throws an exception if\n      *    - `to` cannot receive NFTs.\n      * @param to The address that will own the minted NFT.\n      * @param uri The URI consists of metadata description of the minting NFT on the IPFS (without prefix).\n      */\n    function mint(\n        address to,\n        string calldata uri\n    )\n    public\n    canReceiveNFT(to)\n    returns (uint256)\n    {\n        return _mint(to, uri);\n    }\n\n    /**\n     * @dev See {IERC721Metadata-tokenURI}.\n     */\n    function tokenURI(uint256 tokenId) public view override returns (string memory) {\n        require(_exists(tokenId), \"ERC721Metadata: URI query for nonexistent token\");\n\n        string memory baseURI = _baseURI();\n        return bytes(baseURI).length > 0 ? string(abi.encodePacked(baseURI, idToUri[tokenId])) : idToUri[tokenId];\n    }\n\n    /**\n     * @dev See {IERC721-transferFrom}.\n     * @notice It throws an exception if\n     *      - the tokenId is not transferable.\n     *      - the receiver `to` cannot receive more L7NFTs.\n     */\n    function transferFrom(\n        address from,\n        address to,\n        uint256 tokenId\n    ) public override canReceiveNFT(to) {\n        //solhint-disable-next-line max-line-length\n        require(_isApprovedOrOwner(_msgSender(), tokenId), \"ERC721: transfer caller is not owner nor approved\");\n        _transfer(from, to, tokenId);\n    }\n\n    /**\n     * @dev See {IERC721-safeTransferFrom}.\n     * @notice It throws an exception if\n     *      - the tokenId is not transferable.\n     *      - the receiver `to` cannot receive more L7NFTs.\n     */\n    function safeTransferFrom(\n        address from,\n        address to,\n        uint256 tokenId,\n        bytes memory _data\n    ) public override canReceiveNFT(to) {\n        require(_isApprovedOrOwner(_msgSender(), tokenId), \"ERC721: transfer caller is not owner nor approved\");\n        _safeTransfer(from, to, tokenId, _data);\n    }\n\n    /**\n     * @dev Reset the `_KYCAddress` to kycAddr.\n     * @notice Only the owner of this contract is able to change the the KYC contract address.\n     */\n    function setKYCImplementation(address kycAddr) onlyOwner external {\n        _KYCAddress = kycAddr;\n    }\n\n    /**\n     * @dev Reset the `_KYCAddress` to kycAddr.\n     * @notice Only the owner of this contract is able to change the the KYC contract address.\n     */\n    function getKYCAddress() public view returns(address) {\n        return _KYCAddress;\n    }\n\n    /**\n      * @dev Mint a new NFT.\n      * @notice It throws an exception if\n      *    - `license` is not valid.\n      *    - `expiryBlock` is less than the current block number.\n      * @param to The address that will own the minted NFT.\n      * @param uri The URI consists of metadata description of the minting NFT on the IPFS (without prefix).\n      */\n    function _mint(\n        address to,\n        string calldata uri\n    )\n    internal\n    returns (uint256)\n    {\n        uint256 id = uint256(keccak256(abi.encode(to, uri)));\n\n        super._mint(to, id);\n        _setTokenUri(id, uri);\n\n        return id;\n    }\n\n    /**\n     * @dev Hook that is called before any token transfer. This includes minting\n     * and burning.\n     *\n     * Calling conditions:\n     *\n     * - When `from` and `to` are both non-zero, ``from``'s `tokenId` will be\n     * transferred to `to`.\n     * - When `from` is zero, `tokenId` will be minted for `to`.\n     * - When `to` is zero, ``from``'s `tokenId` will be burned.\n     * - `from` cannot be the zero address.\n     * - `to` cannot be the zero address.\n     *\n     * To learn more about hooks, head to xref:ROOT:extending-contracts.adoc#using-hooks[Using Hooks].\n     */\n    function _beforeTokenTransfer(address from, address to, uint256 tokenId) internal override(ERC721, ERC721Enumerable) {\n        super._beforeTokenTransfer(from, to, tokenId);\n    }\n\n    /**\n     * @dev Base URI for computing {tokenURI}. If set, the resulting URI for each\n     * token will be the concatenation of the `baseURI` and the `tokenId`.\n     */\n    function _baseURI() internal pure override returns (string memory) {\n        return \"ipfs://\";\n    }\n\n    /**\n     * @dev Set a distinct URI (RFC 3986) for a given NFT ID.\n     * @notice This is an internal function which should be called from user-implemented external\n     * function.\n     * @notice It throws an exception if the _tokenId does not exist.\n     * @param _tokenId Id for which we want URI.\n     * @param _uri String representing RFC 3986 URI.\n     */\n    function _setTokenUri(\n        uint256 _tokenId,\n        string calldata _uri\n    )\n    internal\n    {\n        require(_exists(_tokenId), \"TOKEN_ID_NOT_EXISTED\");\n        idToUri[_tokenId] = _uri;\n    }\n}\n",
  "sourcePath": "/home/toor/nodejs/truffle/nft_demo/taudefi/taudefi-nft/contracts/L7ERC721Enumerable.sol",
  "compiler": {
    "name": "solc",
    "version": "0.8.4+commit.c7e474f2.Emscripten.clang"
  },
  "schemaVersion": "3.4.1",
  "updatedAt": "2021-07-23T07:56:44.043Z",
  "networkType": "ethereum",
  "devdoc": {
    "kind": "dev",
    "methods": {
      "approve(address,uint256)": {
        "details": "See {IERC721-approve}."
      },
      "balanceOf(address)": {
        "details": "See {IERC721-balanceOf}."
      },
      "constructor": {
        "details": "Create a new L7ERC721 contract and assign the KYCAddress to _KYCAddress. TODO: change the default name and symbol."
      },
      "getApproved(uint256)": {
        "details": "See {IERC721-getApproved}."
      },
      "getKYCAddress()": {
        "details": "Reset the `_KYCAddress` to kycAddr."
      },
      "isApprovedForAll(address,address)": {
        "details": "See {IERC721-isApprovedForAll}."
      },
      "mint(address,string)": {
        "details": "Mint a new NFT.",
        "params": {
          "to": "The address that will own the minted NFT.",
          "uri": "The URI consists of metadata description of the minting NFT on the IPFS (without prefix)."
        }
      },
      "name()": {
        "details": "See {IERC721Metadata-name}."
      },
      "owner()": {
        "details": "Returns the address of the current owner."
      },
      "ownerOf(uint256)": {
        "details": "See {IERC721-ownerOf}."
      },
      "renounceOwnership()": {
        "details": "Leaves the contract without owner. It will not be possible to call `onlyOwner` functions anymore. Can only be called by the current owner. NOTE: Renouncing ownership will leave the contract without an owner, thereby removing any functionality that is only available to the owner."
      },
      "safeTransferFrom(address,address,uint256)": {
        "details": "See {IERC721-safeTransferFrom}."
      },
      "safeTransferFrom(address,address,uint256,bytes)": {
        "details": "See {IERC721-safeTransferFrom}."
      },
      "setApprovalForAll(address,bool)": {
        "details": "See {IERC721-setApprovalForAll}."
      },
      "setKYCImplementation(address)": {
        "details": "Reset the `_KYCAddress` to kycAddr."
      },
      "supportsInterface(bytes4)": {
        "details": "See {IERC165-supportsInterface}."
      },
      "symbol()": {
        "details": "See {IERC721Metadata-symbol}."
      },
      "tokenByIndex(uint256)": {
        "details": "See {IERC721Enumerable-tokenByIndex}."
      },
      "tokenOfOwnerByIndex(address,uint256)": {
        "details": "See {IERC721Enumerable-tokenOfOwnerByIndex}."
      },
      "tokenURI(uint256)": {
        "details": "See {IERC721Metadata-tokenURI}."
      },
      "totalSupply()": {
        "details": "See {IERC721Enumerable-totalSupply}."
      },
      "transferFrom(address,address,uint256)": {
        "details": "See {IERC721-transferFrom}."
      },
      "transferOwnership(address)": {
        "details": "Transfers ownership of the contract to a new account (`newOwner`). Can only be called by the current owner."
      }
    },
    "stateVariables": {
      "_KYCAddress": {
        "details": "The contract address for the KYC entry."
      },
      "idToUri": {
        "details": "Mapping from NFT ID to metadata uri."
      }
    },
    "version": 1
  },
  "userdoc": {
    "kind": "user",
    "methods": {
      "getKYCAddress()": {
        "notice": "Only the owner of this contract is able to change the the KYC contract address."
      },
      "mint(address,string)": {
        "notice": "It throws an exception if    - `to` cannot receive NFTs."
      },
      "safeTransferFrom(address,address,uint256,bytes)": {
        "notice": "It throws an exception if      - the tokenId is not transferable.      - the receiver `to` cannot receive more L7NFTs."
      },
      "setKYCImplementation(address)": {
        "notice": "Only the owner of this contract is able to change the the KYC contract address."
      },
      "transferFrom(address,address,uint256)": {
        "notice": "It throws an exception if      - the tokenId is not transferable.      - the receiver `to` cannot receive more L7NFTs."
      }
    },
    "version": 1
  }
}