{
  "contractName": "L7ERC721Enumerable",
  "abi": [
    {
      "inputs": [],
      "stateMutability": "nonpayable",
      "type": "constructor"
    },
    {
      "anonymous": false,
      "inputs": [
        {
          "indexed": true,
          "internalType": "address",
          "name": "owner",
          "type": "address"
        },
        {
          "indexed": true,
          "internalType": "address",
          "name": "approved",
          "type": "address"
        },
        {
          "indexed": true,
          "internalType": "uint256",
          "name": "tokenId",
          "type": "uint256"
        }
      ],
      "name": "Approval",
      "type": "event"
    },
    {
      "anonymous": false,
      "inputs": [
        {
          "indexed": true,
          "internalType": "address",
          "name": "owner",
          "type": "address"
        },
        {
          "indexed": true,
          "internalType": "address",
          "name": "operator",
          "type": "address"
        },
        {
          "indexed": false,
          "internalType": "bool",
          "name": "approved",
          "type": "bool"
        }
      ],
      "name": "ApprovalForAll",
      "type": "event"
    },
    {
      "anonymous": false,
      "inputs": [
        {
          "indexed": true,
          "internalType": "address",
          "name": "owner",
          "type": "address"
        },
        {
          "indexed": false,
          "internalType": "uint256",
          "name": "tokenId",
          "type": "uint256"
        }
      ],
      "name": "Equip",
      "type": "event"
    },
    {
      "anonymous": false,
      "inputs": [
        {
          "indexed": true,
          "internalType": "address",
          "name": "previousOwner",
          "type": "address"
        },
        {
          "indexed": true,
          "internalType": "address",
          "name": "newOwner",
          "type": "address"
        }
      ],
      "name": "OwnershipTransferred",
      "type": "event"
    },
    {
      "anonymous": false,
      "inputs": [
        {
          "indexed": false,
          "internalType": "address",
          "name": "account",
          "type": "address"
        }
      ],
      "name": "Paused",
      "type": "event"
    },
    {
      "anonymous": false,
      "inputs": [
        {
          "indexed": true,
          "internalType": "address",
          "name": "owner",
          "type": "address"
        },
        {
          "indexed": false,
          "internalType": "uint256",
          "name": "tokenId",
          "type": "uint256"
        }
      ],
      "name": "Redeem",
      "type": "event"
    },
    {
      "anonymous": false,
      "inputs": [
        {
          "indexed": true,
          "internalType": "address",
          "name": "from",
          "type": "address"
        },
        {
          "indexed": true,
          "internalType": "address",
          "name": "to",
          "type": "address"
        },
        {
          "indexed": true,
          "internalType": "uint256",
          "name": "tokenId",
          "type": "uint256"
        }
      ],
      "name": "Transfer",
      "type": "event"
    },
    {
      "anonymous": false,
      "inputs": [
        {
          "indexed": false,
          "internalType": "address",
          "name": "account",
          "type": "address"
        }
      ],
      "name": "Unpaused",
      "type": "event"
    },
    {
      "inputs": [
        {
          "internalType": "address",
          "name": "to",
          "type": "address"
        },
        {
          "internalType": "uint256",
          "name": "tokenId",
          "type": "uint256"
        }
      ],
      "name": "approve",
      "outputs": [],
      "stateMutability": "nonpayable",
      "type": "function"
    },
    {
      "inputs": [
        {
          "internalType": "address",
          "name": "owner",
          "type": "address"
        }
      ],
      "name": "balanceOf",
      "outputs": [
        {
          "internalType": "uint256",
          "name": "",
          "type": "uint256"
        }
      ],
      "stateMutability": "view",
      "type": "function",
      "constant": true
    },
    {
      "inputs": [],
      "name": "baseURI",
      "outputs": [
        {
          "internalType": "string",
          "name": "",
          "type": "string"
        }
      ],
      "stateMutability": "view",
      "type": "function",
      "constant": true
    },
    {
      "inputs": [
        {
          "internalType": "uint256",
          "name": "tokenId",
          "type": "uint256"
        }
      ],
      "name": "getApproved",
      "outputs": [
        {
          "internalType": "address",
          "name": "",
          "type": "address"
        }
      ],
      "stateMutability": "view",
      "type": "function",
      "constant": true
    },
    {
      "inputs": [
        {
          "internalType": "address",
          "name": "owner",
          "type": "address"
        },
        {
          "internalType": "address",
          "name": "operator",
          "type": "address"
        }
      ],
      "name": "isApprovedForAll",
      "outputs": [
        {
          "internalType": "bool",
          "name": "",
          "type": "bool"
        }
      ],
      "stateMutability": "view",
      "type": "function",
      "constant": true
    },
    {
      "inputs": [
        {
          "internalType": "uint256",
          "name": "tokenId",
          "type": "uint256"
        }
      ],
      "name": "isFreeze",
      "outputs": [
        {
          "internalType": "bool",
          "name": "",
          "type": "bool"
        }
      ],
      "stateMutability": "view",
      "type": "function",
      "constant": true
    },
    {
      "inputs": [
        {
          "internalType": "uint256",
          "name": "tokenId",
          "type": "uint256"
        }
      ],
      "name": "isRedeemed",
      "outputs": [
        {
          "internalType": "bool",
          "name": "",
          "type": "bool"
        }
      ],
      "stateMutability": "view",
      "type": "function",
      "constant": true
    },
    {
      "inputs": [],
      "name": "name",
      "outputs": [
        {
          "internalType": "string",
          "name": "",
          "type": "string"
        }
      ],
      "stateMutability": "view",
      "type": "function",
      "constant": true
    },
    {
      "inputs": [],
      "name": "owner",
      "outputs": [
        {
          "internalType": "address",
          "name": "",
          "type": "address"
        }
      ],
      "stateMutability": "view",
      "type": "function",
      "constant": true
    },
    {
      "inputs": [
        {
          "internalType": "uint256",
          "name": "tokenId",
          "type": "uint256"
        }
      ],
      "name": "ownerOf",
      "outputs": [
        {
          "internalType": "address",
          "name": "",
          "type": "address"
        }
      ],
      "stateMutability": "view",
      "type": "function",
      "constant": true
    },
    {
      "inputs": [],
      "name": "pause",
      "outputs": [],
      "stateMutability": "nonpayable",
      "type": "function"
    },
    {
      "inputs": [],
      "name": "paused",
      "outputs": [
        {
          "internalType": "bool",
          "name": "",
          "type": "bool"
        }
      ],
      "stateMutability": "view",
      "type": "function",
      "constant": true
    },
    {
      "inputs": [],
      "name": "renounceOwnership",
      "outputs": [],
      "stateMutability": "nonpayable",
      "type": "function"
    },
    {
      "inputs": [
        {
          "internalType": "address",
          "name": "from",
          "type": "address"
        },
        {
          "internalType": "address",
          "name": "to",
          "type": "address"
        },
        {
          "internalType": "uint256",
          "name": "tokenId",
          "type": "uint256"
        }
      ],
      "name": "safeTransferFrom",
      "outputs": [],
      "stateMutability": "nonpayable",
      "type": "function"
    },
    {
      "inputs": [
        {
          "internalType": "address",
          "name": "from",
          "type": "address"
        },
        {
          "internalType": "address",
          "name": "to",
          "type": "address"
        },
        {
          "internalType": "uint256",
          "name": "tokenId",
          "type": "uint256"
        },
        {
          "internalType": "bytes",
          "name": "_data",
          "type": "bytes"
        }
      ],
      "name": "safeTransferFrom",
      "outputs": [],
      "stateMutability": "nonpayable",
      "type": "function"
    },
    {
      "inputs": [
        {
          "internalType": "address",
          "name": "operator",
          "type": "address"
        },
        {
          "internalType": "bool",
          "name": "approved",
          "type": "bool"
        }
      ],
      "name": "setApprovalForAll",
      "outputs": [],
      "stateMutability": "nonpayable",
      "type": "function"
    },
    {
      "inputs": [
        {
          "internalType": "string",
          "name": "newBaseURI",
          "type": "string"
        }
      ],
      "name": "setBaseURI",
      "outputs": [],
      "stateMutability": "nonpayable",
      "type": "function"
    },
    {
      "inputs": [],
      "name": "symbol",
      "outputs": [
        {
          "internalType": "string",
          "name": "",
          "type": "string"
        }
      ],
      "stateMutability": "view",
      "type": "function",
      "constant": true
    },
    {
      "inputs": [
        {
          "internalType": "uint256",
          "name": "index",
          "type": "uint256"
        }
      ],
      "name": "tokenByIndex",
      "outputs": [
        {
          "internalType": "uint256",
          "name": "",
          "type": "uint256"
        }
      ],
      "stateMutability": "view",
      "type": "function",
      "constant": true
    },
    {
      "inputs": [
        {
          "internalType": "address",
          "name": "owner",
          "type": "address"
        },
        {
          "internalType": "uint256",
          "name": "index",
          "type": "uint256"
        }
      ],
      "name": "tokenOfOwnerByIndex",
      "outputs": [
        {
          "internalType": "uint256",
          "name": "",
          "type": "uint256"
        }
      ],
      "stateMutability": "view",
      "type": "function",
      "constant": true
    },
    {
      "inputs": [],
      "name": "totalSupply",
      "outputs": [
        {
          "internalType": "uint256",
          "name": "",
          "type": "uint256"
        }
      ],
      "stateMutability": "view",
      "type": "function",
      "constant": true
    },
    {
      "inputs": [
        {
          "internalType": "address",
          "name": "from",
          "type": "address"
        },
        {
          "internalType": "address",
          "name": "to",
          "type": "address"
        },
        {
          "internalType": "uint256",
          "name": "tokenId",
          "type": "uint256"
        }
      ],
      "name": "transferFrom",
      "outputs": [],
      "stateMutability": "nonpayable",
      "type": "function"
    },
    {
      "inputs": [
        {
          "internalType": "address",
          "name": "newOwner",
          "type": "address"
        }
      ],
      "name": "transferOwnership",
      "outputs": [],
      "stateMutability": "nonpayable",
      "type": "function"
    },
    {
      "inputs": [],
      "name": "unPause",
      "outputs": [],
      "stateMutability": "nonpayable",
      "type": "function"
    },
    {
      "inputs": [
        {
          "internalType": "bytes4",
          "name": "interfaceId",
          "type": "bytes4"
        }
      ],
      "name": "supportsInterface",
      "outputs": [
        {
          "internalType": "bool",
          "name": "",
          "type": "bool"
        }
      ],
      "stateMutability": "view",
      "type": "function",
      "constant": true
    },
    {
      "inputs": [
        {
          "internalType": "uint256",
          "name": "tokenId",
          "type": "uint256"
        }
      ],
      "name": "tokenURI",
      "outputs": [
        {
          "internalType": "string",
          "name": "",
          "type": "string"
        }
      ],
      "stateMutability": "view",
      "type": "function",
      "constant": true
    }
  ],
  "bytecode": "0x60806040523480156200001157600080fd5b506040518060400160405280600981526020017f4c372045524337323100000000000000000000000000000000000000000000008152506040518060400160405280600281526020017f4c37000000000000000000000000000000000000000000000000000000000000815250816000908051906020019062000096929190620001da565b508060019080519060200190620000af929190620001da565b5050506000600660006101000a81548160ff0219169083151502179055506000620000df620001d260201b60201c565b905080600660016101000a81548173ffffffffffffffffffffffffffffffffffffffff021916908373ffffffffffffffffffffffffffffffffffffffff1602179055508073ffffffffffffffffffffffffffffffffffffffff16600073ffffffffffffffffffffffffffffffffffffffff167f8be0079c531659141344cd1fd0a4f28419497f9722a3daafe3b4186f6b6457e060405160405180910390a3506040518060400160405280601c81526020017f68747470733a2f2f6d657461646174612e6c372e6469676974616c2f0000000081525060089080519060200190620001cb929190620001da565b50620002ef565b600033905090565b828054620001e8906200028a565b90600052602060002090601f0160209004810192826200020c576000855562000258565b82601f106200022757805160ff191683800117855562000258565b8280016001018555821562000258579182015b82811115620002575782518255916020019190600101906200023a565b5b5090506200026791906200026b565b5090565b5b80821115620002865760008160009055506001016200026c565b5090565b60006002820490506001821680620002a357607f821691505b60208210811415620002ba57620002b9620002c0565b5b50919050565b7f4e487b7100000000000000000000000000000000000000000000000000000000600052602260045260246000fd5b613c5080620002ff6000396000f3fe608060405234801561001057600080fd5b506004361061018e5760003560e01c80636352211e116100de57806395d89b4111610097578063c87b56dd11610071578063c87b56dd14610483578063e985e9c5146104b3578063f2fde38b146104e3578063f7b188a5146104ff5761018e565b806395d89b411461042d578063a22cb4651461044b578063b88d4fde146104675761018e565b80636352211e1461037d5780636c0360eb146103ad57806370a08231146103cb578063715018a6146103fb5780638456cb59146104055780638da5cb5b1461040f5761018e565b806323b872dd1161014b57806342842e0e1161012557806342842e0e146102f75780634f6ccce71461031357806355f804b3146103435780635c975abb1461035f5761018e565b806323b872dd1461027b5780632f745c591461029757806332d33cd0146102c75761018e565b806301ffc9a71461019357806306fdde03146101c3578063081812fc146101e1578063095ea7b31461021157806318160ddd1461022d57806323932b321461024b575b600080fd5b6101ad60048036038101906101a89190612974565b610509565b6040516101ba9190612ee9565b60405180910390f35b6101cb6105eb565b6040516101d89190612f04565b60405180910390f35b6101fb60048036038101906101f69190612a07565b61067d565b6040516102089190612e82565b60405180910390f35b61022b60048036038101906102269190612938565b610702565b005b61023561081a565b60405161024291906131c6565b60405180910390f35b61026560048036038101906102609190612a07565b610827565b6040516102729190612ee9565b60405180910390f35b61029560048036038101906102909190612832565b610899565b005b6102b160048036038101906102ac9190612938565b6108f9565b6040516102be91906131c6565b60405180910390f35b6102e160048036038101906102dc9190612a07565b61099e565b6040516102ee9190612ee9565b60405180910390f35b610311600480360381019061030c9190612832565b6109e7565b005b61032d60048036038101906103289190612a07565b610a07565b60405161033a91906131c6565b60405180910390f35b61035d600480360381019061035891906129c6565b610a9e565b005b610367610b7c565b6040516103749190612ee9565b60405180910390f35b61039760048036038101906103929190612a07565b610b93565b6040516103a49190612e82565b60405180910390f35b6103b5610c45565b6040516103c29190612f04565b60405180910390f35b6103e560048036038101906103e091906127cd565b610cd7565b6040516103f291906131c6565b60405180910390f35b610403610d8f565b005b61040d610ecc565b005b610417610f52565b6040516104249190612e82565b60405180910390f35b610435610f7c565b6040516104429190612f04565b60405180910390f35b610465600480360381019061046091906128fc565b61100e565b005b610481600480360381019061047c9190612881565b61118f565b005b61049d60048036038101906104989190612a07565b6111f1565b6040516104aa9190612f04565b60405180910390f35b6104cd60048036038101906104c891906127f6565b611203565b6040516104da9190612ee9565b60405180910390f35b6104fd60048036038101906104f891906127cd565b611297565b005b610507611443565b005b60007f80ac58cd000000000000000000000000000000000000000000000000000000007bffffffffffffffffffffffffffffffffffffffffffffffffffffffff1916827bffffffffffffffffffffffffffffffffffffffffffffffffffffffff191614806105d457507f5b5e139f000000000000000000000000000000000000000000000000000000007bffffffffffffffffffffffffffffffffffffffffffffffffffffffff1916827bffffffffffffffffffffffffffffffffffffffffffffffffffffffff1916145b806105e457506105e3826114c9565b5b9050919050565b6060600080546105fa90613431565b80601f016020809104026020016040519081016040528092919081815260200182805461062690613431565b80156106735780601f1061064857610100808354040283529160200191610673565b820191906000526020600020905b81548152906001019060200180831161065657829003601f168201915b5050505050905090565b600061068882611543565b6106c7576040517f08c379a00000000000000000000000000000000000000000000000000000000081526004016106be906130e6565b60405180910390fd5b6004600083815260200190815260200160002060009054906101000a900473ffffffffffffffffffffffffffffffffffffffff169050919050565b600061070d82610b93565b90508073ffffffffffffffffffffffffffffffffffffffff168373ffffffffffffffffffffffffffffffffffffffff16141561077e576040517f08c379a000000000000000000000000000000000000000000000000000000000815260040161077590613166565b60405180910390fd5b8073ffffffffffffffffffffffffffffffffffffffff1661079d6115af565b73ffffffffffffffffffffffffffffffffffffffff1614806107cc57506107cb816107c66115af565b611203565b5b61080b576040517f08c379a000000000000000000000000000000000000000000000000000000000815260040161080290613086565b60405180910390fd5b61081583836115b7565b505050565b6000600b80549050905090565b600061083282611543565b610871576040517f08c379a000000000000000000000000000000000000000000000000000000000815260040161086890612f26565b60405180910390fd5b6007600083815260200190815260200160002060009054906101000a900460ff169050919050565b6108aa6108a46115af565b82611670565b6108e9576040517f08c379a00000000000000000000000000000000000000000000000000000000081526004016108e090613186565b60405180910390fd5b6108f483838361174e565b505050565b600061090483610cd7565b8210610945576040517f08c379a000000000000000000000000000000000000000000000000000000000815260040161093c90612f86565b60405180910390fd5b600960008473ffffffffffffffffffffffffffffffffffffffff1673ffffffffffffffffffffffffffffffffffffffff168152602001908152602001600020600083815260200190815260200160002054905092915050565b60006109a982611543565b156109dd57600015156007600084815260200190815260200160002060009054906101000a900460ff1615151490506109e2565b600090505b919050565b610a028383836040518060200160405280600081525061118f565b505050565b6000610a1161081a565b8210610a52576040517f08c379a0000000000000000000000000000000000000000000000000000000008152600401610a49906131a6565b60405180910390fd5b600b8281548110610a8c577f4e487b7100000000000000000000000000000000000000000000000000000000600052603260045260246000fd5b90600052602060002001549050919050565b610aa66115af565b73ffffffffffffffffffffffffffffffffffffffff16610ac4610f52565b73ffffffffffffffffffffffffffffffffffffffff1614610b1a576040517f08c379a0000000000000000000000000000000000000000000000000000000008152600401610b1190613106565b60405180910390fd5b610b22610b7c565b15610b62576040517f08c379a0000000000000000000000000000000000000000000000000000000008152600401610b5990613066565b60405180910390fd5b8060089080519060200190610b789291906125f1565b5050565b6000600660009054906101000a900460ff16905090565b6000806002600084815260200190815260200160002060009054906101000a900473ffffffffffffffffffffffffffffffffffffffff169050600073ffffffffffffffffffffffffffffffffffffffff168173ffffffffffffffffffffffffffffffffffffffff161415610c3c576040517f08c379a0000000000000000000000000000000000000000000000000000000008152600401610c33906130c6565b60405180910390fd5b80915050919050565b606060088054610c5490613431565b80601f0160208091040260200160405190810160405280929190818152602001828054610c8090613431565b8015610ccd5780601f10610ca257610100808354040283529160200191610ccd565b820191906000526020600020905b815481529060010190602001808311610cb057829003601f168201915b5050505050905090565b60008073ffffffffffffffffffffffffffffffffffffffff168273ffffffffffffffffffffffffffffffffffffffff161415610d48576040517f08c379a0000000000000000000000000000000000000000000000000000000008152600401610d3f906130a6565b60405180910390fd5b600360008373ffffffffffffffffffffffffffffffffffffffff1673ffffffffffffffffffffffffffffffffffffffff168152602001908152602001600020549050919050565b610d976115af565b73ffffffffffffffffffffffffffffffffffffffff16610db5610f52565b73ffffffffffffffffffffffffffffffffffffffff1614610e0b576040517f08c379a0000000000000000000000000000000000000000000000000000000008152600401610e0290613106565b60405180910390fd5b600073ffffffffffffffffffffffffffffffffffffffff16600660019054906101000a900473ffffffffffffffffffffffffffffffffffffffff1673ffffffffffffffffffffffffffffffffffffffff167f8be0079c531659141344cd1fd0a4f28419497f9722a3daafe3b4186f6b6457e060405160405180910390a36000600660016101000a81548173ffffffffffffffffffffffffffffffffffffffff021916908373ffffffffffffffffffffffffffffffffffffffff160217905550565b610ed46115af565b73ffffffffffffffffffffffffffffffffffffffff16610ef2610f52565b73ffffffffffffffffffffffffffffffffffffffff1614610f48576040517f08c379a0000000000000000000000000000000000000000000000000000000008152600401610f3f90613106565b60405180910390fd5b610f506119aa565b565b6000600660019054906101000a900473ffffffffffffffffffffffffffffffffffffffff16905090565b606060018054610f8b90613431565b80601f0160208091040260200160405190810160405280929190818152602001828054610fb790613431565b80156110045780601f10610fd957610100808354040283529160200191611004565b820191906000526020600020905b815481529060010190602001808311610fe757829003601f168201915b5050505050905090565b6110166115af565b73ffffffffffffffffffffffffffffffffffffffff168273ffffffffffffffffffffffffffffffffffffffff161415611084576040517f08c379a000000000000000000000000000000000000000000000000000000000815260040161107b90613006565b60405180910390fd5b80600560006110916115af565b73ffffffffffffffffffffffffffffffffffffffff1673ffffffffffffffffffffffffffffffffffffffff16815260200190815260200160002060008473ffffffffffffffffffffffffffffffffffffffff1673ffffffffffffffffffffffffffffffffffffffff16815260200190815260200160002060006101000a81548160ff0219169083151502179055508173ffffffffffffffffffffffffffffffffffffffff1661113e6115af565b73ffffffffffffffffffffffffffffffffffffffff167f17307eab39ab6107e8899845ad3d59bd9653f200f220920489ca2b5937696c31836040516111839190612ee9565b60405180910390a35050565b6111a061119a6115af565b83611670565b6111df576040517f08c379a00000000000000000000000000000000000000000000000000000000081526004016111d690613186565b60405180910390fd5b6111eb84848484611a4d565b50505050565b60606111fc82611aa9565b9050919050565b6000600560008473ffffffffffffffffffffffffffffffffffffffff1673ffffffffffffffffffffffffffffffffffffffff16815260200190815260200160002060008373ffffffffffffffffffffffffffffffffffffffff1673ffffffffffffffffffffffffffffffffffffffff16815260200190815260200160002060009054906101000a900460ff16905092915050565b61129f6115af565b73ffffffffffffffffffffffffffffffffffffffff166112bd610f52565b73ffffffffffffffffffffffffffffffffffffffff1614611313576040517f08c379a000000000000000000000000000000000000000000000000000000000815260040161130a90613106565b60405180910390fd5b600073ffffffffffffffffffffffffffffffffffffffff168173ffffffffffffffffffffffffffffffffffffffff161415611383576040517f08c379a000000000000000000000000000000000000000000000000000000000815260040161137a90612fc6565b60405180910390fd5b8073ffffffffffffffffffffffffffffffffffffffff16600660019054906101000a900473ffffffffffffffffffffffffffffffffffffffff1673ffffffffffffffffffffffffffffffffffffffff167f8be0079c531659141344cd1fd0a4f28419497f9722a3daafe3b4186f6b6457e060405160405180910390a380600660016101000a81548173ffffffffffffffffffffffffffffffffffffffff021916908373ffffffffffffffffffffffffffffffffffffffff16021790555050565b61144b6115af565b73ffffffffffffffffffffffffffffffffffffffff16611469610f52565b73ffffffffffffffffffffffffffffffffffffffff16146114bf576040517f08c379a00000000000000000000000000000000000000000000000000000000081526004016114b690613106565b60405180910390fd5b6114c7611b25565b565b60007f780e9d63000000000000000000000000000000000000000000000000000000007bffffffffffffffffffffffffffffffffffffffffffffffffffffffff1916827bffffffffffffffffffffffffffffffffffffffffffffffffffffffff1916148061153c575061153b82611bc7565b5b9050919050565b60008073ffffffffffffffffffffffffffffffffffffffff166002600084815260200190815260200160002060009054906101000a900473ffffffffffffffffffffffffffffffffffffffff1673ffffffffffffffffffffffffffffffffffffffff1614159050919050565b600033905090565b816004600083815260200190815260200160002060006101000a81548173ffffffffffffffffffffffffffffffffffffffff021916908373ffffffffffffffffffffffffffffffffffffffff160217905550808273ffffffffffffffffffffffffffffffffffffffff1661162a83610b93565b73ffffffffffffffffffffffffffffffffffffffff167f8c5be1e5ebec7d5bd14f71427d1e84f3dd0314c0f7b2291e5b200ac8c7c3b92560405160405180910390a45050565b600061167b82611543565b6116ba576040517f08c379a00000000000000000000000000000000000000000000000000000000081526004016116b190613026565b60405180910390fd5b60006116c583610b93565b90508073ffffffffffffffffffffffffffffffffffffffff168473ffffffffffffffffffffffffffffffffffffffff16148061173457508373ffffffffffffffffffffffffffffffffffffffff1661171c8461067d565b73ffffffffffffffffffffffffffffffffffffffff16145b8061174557506117448185611203565b5b91505092915050565b8273ffffffffffffffffffffffffffffffffffffffff1661176e82610b93565b73ffffffffffffffffffffffffffffffffffffffff16146117c4576040517f08c379a00000000000000000000000000000000000000000000000000000000081526004016117bb90613126565b60405180910390fd5b600073ffffffffffffffffffffffffffffffffffffffff168273ffffffffffffffffffffffffffffffffffffffff161415611834576040517f08c379a000000000000000000000000000000000000000000000000000000000815260040161182b90612fe6565b60405180910390fd5b61183f838383611ca9565b61184a6000826115b7565b6001600360008573ffffffffffffffffffffffffffffffffffffffff1673ffffffffffffffffffffffffffffffffffffffff168152602001908152602001600020600082825461189a9190613347565b925050819055506001600360008473ffffffffffffffffffffffffffffffffffffffff1673ffffffffffffffffffffffffffffffffffffffff16815260200190815260200160002060008282546118f191906132c0565b92505081905550816002600083815260200190815260200160002060006101000a81548173ffffffffffffffffffffffffffffffffffffffff021916908373ffffffffffffffffffffffffffffffffffffffff160217905550808273ffffffffffffffffffffffffffffffffffffffff168473ffffffffffffffffffffffffffffffffffffffff167fddf252ad1be2c89b69c2b068fc378daa952ba7f163c4a11628f55a4df523b3ef60405160405180910390a4505050565b6119b2610b7c565b156119f2576040517f08c379a00000000000000000000000000000000000000000000000000000000081526004016119e990613066565b60405180910390fd5b6001600660006101000a81548160ff0219169083151502179055507f62e78cea01bee320cd4e420270b5ea74000d11b0c9f74754ebdbfc544b05a258611a366115af565b604051611a439190612e82565b60405180910390a1565b611a5884848461174e565b611a6484848484611cc4565b611aa3576040517f08c379a0000000000000000000000000000000000000000000000000000000008152600401611a9a90612fa6565b60405180910390fd5b50505050565b6060611ab482611543565b611af3576040517f08c379a0000000000000000000000000000000000000000000000000000000008152600401611aea90613146565b60405180910390fd5b6008611afe83611e5b565b604051602001611b0f929190612e5e565b6040516020818303038152906040529050919050565b611b2d610b7c565b611b6c576040517f08c379a0000000000000000000000000000000000000000000000000000000008152600401611b6390612f66565b60405180910390fd5b6000600660006101000a81548160ff0219169083151502179055507f5db9ee0a495bf2e6ff9c91a7834c1ba4fdd244a5e8aa4e537bd38aeae4b073aa611bb06115af565b604051611bbd9190612e82565b60405180910390a1565b60007f80ac58cd000000000000000000000000000000000000000000000000000000007bffffffffffffffffffffffffffffffffffffffffffffffffffffffff1916827bffffffffffffffffffffffffffffffffffffffffffffffffffffffff19161480611c9257507f5b5e139f000000000000000000000000000000000000000000000000000000007bffffffffffffffffffffffffffffffffffffffffffffffffffffffff1916827bffffffffffffffffffffffffffffffffffffffffffffffffffffffff1916145b80611ca25750611ca182612008565b5b9050919050565b611cb4838383612072565b611cbf8383836120ca565b505050565b6000611ce58473ffffffffffffffffffffffffffffffffffffffff166121de565b15611e4e578373ffffffffffffffffffffffffffffffffffffffff1663150b7a02611d0e6115af565b8786866040518563ffffffff1660e01b8152600401611d309493929190612e9d565b602060405180830381600087803b158015611d4a57600080fd5b505af1925050508015611d7b57506040513d601f19601f82011682018060405250810190611d78919061299d565b60015b611dfe573d8060008114611dab576040519150601f19603f3d011682016040523d82523d6000602084013e611db0565b606091505b50600081511415611df6576040517f08c379a0000000000000000000000000000000000000000000000000000000008152600401611ded90612fa6565b60405180910390fd5b805181602001fd5b63150b7a0260e01b7bffffffffffffffffffffffffffffffffffffffffffffffffffffffff1916817bffffffffffffffffffffffffffffffffffffffffffffffffffffffff191614915050611e53565b600190505b949350505050565b60606000821415611ea3576040518060400160405280600181526020017f30000000000000000000000000000000000000000000000000000000000000008152509050612003565b600082905060005b60008214611ed5578080611ebe90613494565b915050600a82611ece9190613316565b9150611eab565b60008167ffffffffffffffff811115611f17577f4e487b7100000000000000000000000000000000000000000000000000000000600052604160045260246000fd5b6040519080825280601f01601f191660200182016040528015611f495781602001600182028036833780820191505090505b5090505b60008514611ffc57600182611f629190613347565b9150600a85611f7191906134dd565b6030611f7d91906132c0565b60f81b818381518110611fb9577f4e487b7100000000000000000000000000000000000000000000000000000000600052603260045260246000fd5b60200101907effffffffffffffffffffffffffffffffffffffffffffffffffffffffffffff1916908160001a905350600a85611ff59190613316565b9450611f4d565b8093505050505b919050565b60007f01ffc9a7000000000000000000000000000000000000000000000000000000007bffffffffffffffffffffffffffffffffffffffffffffffffffffffff1916827bffffffffffffffffffffffffffffffffffffffffffffffffffffffff1916149050919050565b61207d8383836121f1565b61208681612249565b6120c5576040517f08c379a00000000000000000000000000000000000000000000000000000000081526004016120bc90613046565b60405180910390fd5b505050565b6120d5838383612072565b600073ffffffffffffffffffffffffffffffffffffffff168373ffffffffffffffffffffffffffffffffffffffff1614156121185761211381612274565b612157565b8173ffffffffffffffffffffffffffffffffffffffff168373ffffffffffffffffffffffffffffffffffffffff16146121565761215583826122bd565b5b5b600073ffffffffffffffffffffffffffffffffffffffff168273ffffffffffffffffffffffffffffffffffffffff16141561219a576121958161242a565b6121d9565b8273ffffffffffffffffffffffffffffffffffffffff168273ffffffffffffffffffffffffffffffffffffffff16146121d8576121d7828261256d565b5b5b505050565b600080823b905060008111915050919050565b6121fc8383836125ec565b612204610b7c565b15612244576040517f08c379a000000000000000000000000000000000000000000000000000000000815260040161223b90612f46565b60405180910390fd5b505050565b60006007600083815260200190815260200160002060009054906101000a900460ff16159050919050565b600b80549050600c600083815260200190815260200160002081905550600b81908060018154018082558091505060019003906000526020600020016000909190919091505550565b600060016122ca84610cd7565b6122d49190613347565b90506000600a60008481526020019081526020016000205490508181146123b9576000600960008673ffffffffffffffffffffffffffffffffffffffff1673ffffffffffffffffffffffffffffffffffffffff168152602001908152602001600020600084815260200190815260200160002054905080600960008773ffffffffffffffffffffffffffffffffffffffff1673ffffffffffffffffffffffffffffffffffffffff16815260200190815260200160002060008481526020019081526020016000208190555081600a600083815260200190815260200160002081905550505b600a600084815260200190815260200160002060009055600960008573ffffffffffffffffffffffffffffffffffffffff1673ffffffffffffffffffffffffffffffffffffffff16815260200190815260200160002060008381526020019081526020016000206000905550505050565b60006001600b8054905061243e9190613347565b90506000600c60008481526020019081526020016000205490506000600b8381548110612494577f4e487b7100000000000000000000000000000000000000000000000000000000600052603260045260246000fd5b9060005260206000200154905080600b83815481106124dc577f4e487b7100000000000000000000000000000000000000000000000000000000600052603260045260246000fd5b906000526020600020018190555081600c600083815260200190815260200160002081905550600c600085815260200190815260200160002060009055600b805480612551577f4e487b7100000000000000000000000000000000000000000000000000000000600052603160045260246000fd5b6001900381819060005260206000200160009055905550505050565b600061257883610cd7565b905081600960008573ffffffffffffffffffffffffffffffffffffffff1673ffffffffffffffffffffffffffffffffffffffff16815260200190815260200160002060008381526020019081526020016000208190555080600a600084815260200190815260200160002081905550505050565b505050565b8280546125fd90613431565b90600052602060002090601f01602090048101928261261f5760008555612666565b82601f1061263857805160ff1916838001178555612666565b82800160010185558215612666579182015b8281111561266557825182559160200191906001019061264a565b5b5090506126739190612677565b5090565b5b80821115612690576000816000905550600101612678565b5090565b60006126a76126a284613206565b6131e1565b9050828152602081018484840111156126bf57600080fd5b6126ca8482856133ef565b509392505050565b60006126e56126e084613237565b6131e1565b9050828152602081018484840111156126fd57600080fd5b6127088482856133ef565b509392505050565b60008135905061271f81613bbe565b92915050565b60008135905061273481613bd5565b92915050565b60008135905061274981613bec565b92915050565b60008151905061275e81613bec565b92915050565b600082601f83011261277557600080fd5b8135612785848260208601612694565b91505092915050565b600082601f83011261279f57600080fd5b81356127af8482602086016126d2565b91505092915050565b6000813590506127c781613c03565b92915050565b6000602082840312156127df57600080fd5b60006127ed84828501612710565b91505092915050565b6000806040838503121561280957600080fd5b600061281785828601612710565b925050602061282885828601612710565b9150509250929050565b60008060006060848603121561284757600080fd5b600061285586828701612710565b935050602061286686828701612710565b9250506040612877868287016127b8565b9150509250925092565b6000806000806080858703121561289757600080fd5b60006128a587828801612710565b94505060206128b687828801612710565b93505060406128c7878288016127b8565b925050606085013567ffffffffffffffff8111156128e457600080fd5b6128f087828801612764565b91505092959194509250565b6000806040838503121561290f57600080fd5b600061291d85828601612710565b925050602061292e85828601612725565b9150509250929050565b6000806040838503121561294b57600080fd5b600061295985828601612710565b925050602061296a858286016127b8565b9150509250929050565b60006020828403121561298657600080fd5b60006129948482850161273a565b91505092915050565b6000602082840312156129af57600080fd5b60006129bd8482850161274f565b91505092915050565b6000602082840312156129d857600080fd5b600082013567ffffffffffffffff8111156129f257600080fd5b6129fe8482850161278e565b91505092915050565b600060208284031215612a1957600080fd5b6000612a27848285016127b8565b91505092915050565b612a398161337b565b82525050565b612a488161338d565b82525050565b6000612a598261327d565b612a638185613293565b9350612a738185602086016133fe565b612a7c816135ca565b840191505092915050565b6000612a9282613288565b612a9c81856132a4565b9350612aac8185602086016133fe565b612ab5816135ca565b840191505092915050565b6000612acb82613288565b612ad581856132b5565b9350612ae58185602086016133fe565b80840191505092915050565b60008154612afe81613431565b612b0881866132b5565b94506001821660008114612b235760018114612b3457612b67565b60ff19831686528186019350612b67565b612b3d85613268565b60005b83811015612b5f57815481890152600182019150602081019050612b40565b838801955050505b50505092915050565b6000612b7d6032836132a4565b9150612b88826135db565b604082019050919050565b6000612ba0602b836132a4565b9150612bab8261362a565b604082019050919050565b6000612bc36014836132a4565b9150612bce82613679565b602082019050919050565b6000612be6602b836132a4565b9150612bf1826136a2565b604082019050919050565b6000612c096032836132a4565b9150612c14826136f1565b604082019050919050565b6000612c2c6026836132a4565b9150612c3782613740565b604082019050919050565b6000612c4f6024836132a4565b9150612c5a8261378f565b604082019050919050565b6000612c726019836132a4565b9150612c7d826137de565b602082019050919050565b6000612c95602c836132a4565b9150612ca082613807565b604082019050919050565b6000612cb86027836132a4565b9150612cc382613856565b604082019050919050565b6000612cdb6010836132a4565b9150612ce6826138a5565b602082019050919050565b6000612cfe6038836132a4565b9150612d09826138ce565b604082019050919050565b6000612d21602a836132a4565b9150612d2c8261391d565b604082019050919050565b6000612d446029836132a4565b9150612d4f8261396c565b604082019050919050565b6000612d67602c836132a4565b9150612d72826139bb565b604082019050919050565b6000612d8a6020836132a4565b9150612d9582613a0a565b602082019050919050565b6000612dad6029836132a4565b9150612db882613a33565b604082019050919050565b6000612dd0602f836132a4565b9150612ddb82613a82565b604082019050919050565b6000612df36021836132a4565b9150612dfe82613ad1565b604082019050919050565b6000612e166031836132a4565b9150612e2182613b20565b604082019050919050565b6000612e39602c836132a4565b9150612e4482613b6f565b604082019050919050565b612e58816133e5565b82525050565b6000612e6a8285612af1565b9150612e768284612ac0565b91508190509392505050565b6000602082019050612e976000830184612a30565b92915050565b6000608082019050612eb26000830187612a30565b612ebf6020830186612a30565b612ecc6040830185612e4f565b8181036060830152612ede8184612a4e565b905095945050505050565b6000602082019050612efe6000830184612a3f565b92915050565b60006020820190508181036000830152612f1e8184612a87565b905092915050565b60006020820190508181036000830152612f3f81612b70565b9050919050565b60006020820190508181036000830152612f5f81612b93565b9050919050565b60006020820190508181036000830152612f7f81612bb6565b9050919050565b60006020820190508181036000830152612f9f81612bd9565b9050919050565b60006020820190508181036000830152612fbf81612bfc565b9050919050565b60006020820190508181036000830152612fdf81612c1f565b9050919050565b60006020820190508181036000830152612fff81612c42565b9050919050565b6000602082019050818103600083015261301f81612c65565b9050919050565b6000602082019050818103600083015261303f81612c88565b9050919050565b6000602082019050818103600083015261305f81612cab565b9050919050565b6000602082019050818103600083015261307f81612cce565b9050919050565b6000602082019050818103600083015261309f81612cf1565b9050919050565b600060208201905081810360008301526130bf81612d14565b9050919050565b600060208201905081810360008301526130df81612d37565b9050919050565b600060208201905081810360008301526130ff81612d5a565b9050919050565b6000602082019050818103600083015261311f81612d7d565b9050919050565b6000602082019050818103600083015261313f81612da0565b9050919050565b6000602082019050818103600083015261315f81612dc3565b9050919050565b6000602082019050818103600083015261317f81612de6565b9050919050565b6000602082019050818103600083015261319f81612e09565b9050919050565b600060208201905081810360008301526131bf81612e2c565b9050919050565b60006020820190506131db6000830184612e4f565b92915050565b60006131eb6131fc565b90506131f78282613463565b919050565b6000604051905090565b600067ffffffffffffffff8211156132215761322061359b565b5b61322a826135ca565b9050602081019050919050565b600067ffffffffffffffff8211156132525761325161359b565b5b61325b826135ca565b9050602081019050919050565b60008190508160005260206000209050919050565b600081519050919050565b600081519050919050565b600082825260208201905092915050565b600082825260208201905092915050565b600081905092915050565b60006132cb826133e5565b91506132d6836133e5565b9250827fffffffffffffffffffffffffffffffffffffffffffffffffffffffffffffffff0382111561330b5761330a61350e565b5b828201905092915050565b6000613321826133e5565b915061332c836133e5565b92508261333c5761333b61353d565b5b828204905092915050565b6000613352826133e5565b915061335d836133e5565b9250828210156133705761336f61350e565b5b828203905092915050565b6000613386826133c5565b9050919050565b60008115159050919050565b60007fffffffff0000000000000000000000000000000000000000000000000000000082169050919050565b600073ffffffffffffffffffffffffffffffffffffffff82169050919050565b6000819050919050565b82818337600083830152505050565b60005b8381101561341c578082015181840152602081019050613401565b8381111561342b576000848401525b50505050565b6000600282049050600182168061344957607f821691505b6020821081141561345d5761345c61356c565b5b50919050565b61346c826135ca565b810181811067ffffffffffffffff8211171561348b5761348a61359b565b5b80604052505050565b600061349f826133e5565b91507fffffffffffffffffffffffffffffffffffffffffffffffffffffffffffffffff8214156134d2576134d161350e565b5b600182019050919050565b60006134e8826133e5565b91506134f3836133e5565b9250826135035761350261353d565b5b828206905092915050565b7f4e487b7100000000000000000000000000000000000000000000000000000000600052601160045260246000fd5b7f4e487b7100000000000000000000000000000000000000000000000000000000600052601260045260246000fd5b7f4e487b7100000000000000000000000000000000000000000000000000000000600052602260045260246000fd5b7f4e487b7100000000000000000000000000000000000000000000000000000000600052604160045260246000fd5b6000601f19601f8301169050919050565b7f4552433732314d657461646174613a20467265657a6520717565727920666f7260008201527f206e6f6e6578697374656e7420746f6b656e0000000000000000000000000000602082015250565b7f4552433732315061757361626c653a20746f6b656e207472616e73666572207760008201527f68696c6520706175736564000000000000000000000000000000000000000000602082015250565b7f5061757361626c653a206e6f7420706175736564000000000000000000000000600082015250565b7f455243373231456e756d657261626c653a206f776e657220696e646578206f7560008201527f74206f6620626f756e6473000000000000000000000000000000000000000000602082015250565b7f4552433732313a207472616e7366657220746f206e6f6e20455243373231526560008201527f63656976657220696d706c656d656e7465720000000000000000000000000000602082015250565b7f4f776e61626c653a206e6577206f776e657220697320746865207a65726f206160008201527f6464726573730000000000000000000000000000000000000000000000000000602082015250565b7f4552433732313a207472616e7366657220746f20746865207a65726f2061646460008201527f7265737300000000000000000000000000000000000000000000000000000000602082015250565b7f4552433732313a20617070726f766520746f2063616c6c657200000000000000600082015250565b7f4552433732313a206f70657261746f7220717565727920666f72206e6f6e657860008201527f697374656e7420746f6b656e0000000000000000000000000000000000000000602082015250565b7f4c374552433732313a20746f6b656e207472616e73666572207768696c65206560008201527f7175697070656400000000000000000000000000000000000000000000000000602082015250565b7f5061757361626c653a2070617573656400000000000000000000000000000000600082015250565b7f4552433732313a20617070726f76652063616c6c6572206973206e6f74206f7760008201527f6e6572206e6f7220617070726f76656420666f7220616c6c0000000000000000602082015250565b7f4552433732313a2062616c616e636520717565727920666f7220746865207a6560008201527f726f206164647265737300000000000000000000000000000000000000000000602082015250565b7f4552433732313a206f776e657220717565727920666f72206e6f6e657869737460008201527f656e7420746f6b656e0000000000000000000000000000000000000000000000602082015250565b7f4552433732313a20617070726f76656420717565727920666f72206e6f6e657860008201527f697374656e7420746f6b656e0000000000000000000000000000000000000000602082015250565b7f4f776e61626c653a2063616c6c6572206973206e6f7420746865206f776e6572600082015250565b7f4552433732313a207472616e73666572206f6620746f6b656e2074686174206960008201527f73206e6f74206f776e0000000000000000000000000000000000000000000000602082015250565b7f4552433732314d657461646174613a2055524920717565727920666f72206e6f60008201527f6e6578697374656e7420746f6b656e0000000000000000000000000000000000602082015250565b7f4552433732313a20617070726f76616c20746f2063757272656e74206f776e6560008201527f7200000000000000000000000000000000000000000000000000000000000000602082015250565b7f4552433732313a207472616e736665722063616c6c6572206973206e6f74206f60008201527f776e6572206e6f7220617070726f766564000000000000000000000000000000602082015250565b7f455243373231456e756d657261626c653a20676c6f62616c20696e646578206f60008201527f7574206f6620626f756e64730000000000000000000000000000000000000000602082015250565b613bc78161337b565b8114613bd257600080fd5b50565b613bde8161338d565b8114613be957600080fd5b50565b613bf581613399565b8114613c0057600080fd5b50565b613c0c816133e5565b8114613c1757600080fd5b5056fea264697066735822122085b58ba65feee67e6c26bc671a7613561629e4906b9652883089d312a4778eea64736f6c63430008040033",
  "immutableReferences": {},
  "source": "// SPDX-License-Identifier: UNLICENSED\n\npragma solidity ^0.8.4;\n\nimport \"./L7ERC721.sol\";\nimport \"../../lib/token/ERC721/extensions/ERC721Enumerable.sol\";\n\ncontract L7ERC721Enumerable is L7ERC721, ERC721Enumerable {\n    /**\n     * @dev Create a new L7ERC721Enumerable contract.\n     *\n     */\n    constructor() L7ERC721() {}\n\n    /**\n     * @dev See {IERC165-supportsInterface}.\n     */\n    function supportsInterface(bytes4 interfaceId) public view virtual override(ERC721, ERC721Enumerable) returns (bool) {\n        return\n        interfaceId == type(IERC721).interfaceId ||\n        interfaceId == type(IERC721Metadata).interfaceId ||\n        ERC721Enumerable.supportsInterface(interfaceId);\n    }\n\n    /**\n     * @dev See {IERC721Metadata-tokenURI}.\n     */\n    function tokenURI(uint256 tokenId) public view override(ERC721, L7ERC721) returns (string memory) {\n        return L7ERC721.tokenURI(tokenId);\n    }\n\n    /**\n     * @dev Base URI for computing {tokenURI}. If set, the resulting URI for each\n     * token will be the concatenation of the `baseURI` and the `tokenId`.\n     */\n    function _baseURI() internal view override(ERC721, L7ERC721) returns (string memory) {\n        return L7ERC721._baseURI();\n    }\n\n    /**\n     * @dev Hook that is called before any token transfer. This includes minting\n     * and burning.\n     *\n     * Calling conditions:\n     *\n     * - When `from` and `to` are both non-zero, ``from``'s `tokenId` will be\n     * transferred to `to`.\n     * - When `from` is zero, `tokenId` will be minted for `to`.\n     * - When `to` is zero, ``from``'s `tokenId` will be burned.\n     * - `from` cannot be the zero address.\n     * - `to` cannot be the zero address.\n     *\n     * To learn more about hooks, head to xref:ROOT:extending-contracts.adoc#using-hooks[Using Hooks].\n     */\n    function _beforeTokenTransfer(address from, address to, uint256 tokenId) internal virtual override(L7ERC721, ERC721Enumerable) {\n        L7ERC721._beforeTokenTransfer(from, to, tokenId);\n        ERC721Enumerable._beforeTokenTransfer(from, to, tokenId);\n    }\n}\n",
  "sourcePath": "/Users/baonq/Projects/l7/L7-NFT-ERC-solidity/contracts/tokens/ERC721/L7ERC721Enumerable.sol",
  "compiler": {
    "name": "solc",
    "version": "0.8.4+commit.c7e474f2.Emscripten.clang"
  },
  "schemaVersion": "3.4.1",
  "updatedAt": "2021-11-26T16:20:25.583Z",
  "networkType": "ethereum",
  "devdoc": {
    "kind": "dev",
    "methods": {
      "approve(address,uint256)": {
        "details": "See {IERC721-approve}."
      },
      "balanceOf(address)": {
        "details": "See {IERC721-balanceOf}."
      },
      "baseURI()": {
        "details": "Returns `__baseURI`."
      },
      "constructor": {
        "details": "Create a new L7ERC721Enumerable contract."
      },
      "getApproved(uint256)": {
        "details": "See {IERC721-getApproved}."
      },
      "isApprovedForAll(address,address)": {
        "details": "See {IERC721-isApprovedForAll}."
      },
      "name()": {
        "details": "See {IERC721Metadata-name}."
      },
      "owner()": {
        "details": "Returns the address of the current owner."
      },
      "ownerOf(uint256)": {
        "details": "See {IERC721-ownerOf}."
      },
      "pause()": {
        "details": "Pause the contract in case of bugs/attacks."
      },
      "paused()": {
        "details": "Returns true if the contract is paused, and false otherwise."
      },
      "renounceOwnership()": {
        "details": "Leaves the contract without owner. It will not be possible to call `onlyOwner` functions anymore. Can only be called by the current owner. NOTE: Renouncing ownership will leave the contract without an owner, thereby removing any functionality that is only available to the owner."
      },
      "safeTransferFrom(address,address,uint256)": {
        "details": "See {IERC721-safeTransferFrom}."
      },
      "safeTransferFrom(address,address,uint256,bytes)": {
        "details": "See {IERC721-safeTransferFrom}."
      },
      "setApprovalForAll(address,bool)": {
        "details": "See {IERC721-setApprovalForAll}."
      },
      "setBaseURI(string)": {
        "details": "Sets new value for the `__baseURI`. This operation can only been done by the owner of this contract."
      },
      "supportsInterface(bytes4)": {
        "details": "See {IERC165-supportsInterface}."
      },
      "symbol()": {
        "details": "See {IERC721Metadata-symbol}."
      },
      "tokenByIndex(uint256)": {
        "details": "See {IERC721Enumerable-tokenByIndex}."
      },
      "tokenOfOwnerByIndex(address,uint256)": {
        "details": "See {IERC721Enumerable-tokenOfOwnerByIndex}."
      },
      "tokenURI(uint256)": {
        "details": "See {IERC721Metadata-tokenURI}."
      },
      "totalSupply()": {
        "details": "See {IERC721Enumerable-totalSupply}."
      },
      "transferFrom(address,address,uint256)": {
        "details": "See {IERC721-transferFrom}."
      },
      "transferOwnership(address)": {
        "details": "Transfers ownership of the contract to a new account (`newOwner`). Can only be called by the current owner."
      },
      "unPause()": {
        "details": "Resume the contract after being paused."
      }
    },
    "version": 1
  },
  "userdoc": {
    "kind": "user",
    "methods": {
      "pause()": {
        "notice": "Only the owner can call this method."
      },
      "unPause()": {
        "notice": "Only the owner can call this method."
      }
    },
    "version": 1
  }
}