{
  "contractName": "L7ERC721LazyMint",
  "abi": [
    {
      "inputs": [],
      "stateMutability": "nonpayable",
      "type": "constructor"
    },
    {
      "anonymous": false,
      "inputs": [
        {
          "indexed": true,
          "internalType": "address",
          "name": "owner",
          "type": "address"
        },
        {
          "indexed": true,
          "internalType": "address",
          "name": "approved",
          "type": "address"
        },
        {
          "indexed": true,
          "internalType": "uint256",
          "name": "tokenId",
          "type": "uint256"
        }
      ],
      "name": "Approval",
      "type": "event"
    },
    {
      "anonymous": false,
      "inputs": [
        {
          "indexed": true,
          "internalType": "address",
          "name": "owner",
          "type": "address"
        },
        {
          "indexed": true,
          "internalType": "address",
          "name": "operator",
          "type": "address"
        },
        {
          "indexed": false,
          "internalType": "bool",
          "name": "approved",
          "type": "bool"
        }
      ],
      "name": "ApprovalForAll",
      "type": "event"
    },
    {
      "anonymous": false,
      "inputs": [
        {
          "indexed": true,
          "internalType": "address",
          "name": "owner",
          "type": "address"
        },
        {
          "indexed": false,
          "internalType": "uint256",
          "name": "tokenId",
          "type": "uint256"
        }
      ],
      "name": "Equip",
      "type": "event"
    },
    {
      "anonymous": false,
      "inputs": [
        {
          "indexed": true,
          "internalType": "address",
          "name": "previousOwner",
          "type": "address"
        },
        {
          "indexed": true,
          "internalType": "address",
          "name": "newOwner",
          "type": "address"
        }
      ],
      "name": "OwnershipTransferred",
      "type": "event"
    },
    {
      "anonymous": false,
      "inputs": [
        {
          "indexed": false,
          "internalType": "address",
          "name": "account",
          "type": "address"
        }
      ],
      "name": "Paused",
      "type": "event"
    },
    {
      "anonymous": false,
      "inputs": [
        {
          "indexed": true,
          "internalType": "address",
          "name": "owner",
          "type": "address"
        },
        {
          "indexed": false,
          "internalType": "uint256",
          "name": "tokenId",
          "type": "uint256"
        }
      ],
      "name": "Redeem",
      "type": "event"
    },
    {
      "anonymous": false,
      "inputs": [
        {
          "indexed": true,
          "internalType": "address",
          "name": "from",
          "type": "address"
        },
        {
          "indexed": true,
          "internalType": "address",
          "name": "to",
          "type": "address"
        },
        {
          "indexed": true,
          "internalType": "uint256",
          "name": "tokenId",
          "type": "uint256"
        }
      ],
      "name": "Transfer",
      "type": "event"
    },
    {
      "anonymous": false,
      "inputs": [
        {
          "indexed": false,
          "internalType": "address",
          "name": "account",
          "type": "address"
        }
      ],
      "name": "Unpaused",
      "type": "event"
    },
    {
      "inputs": [
        {
          "internalType": "address",
          "name": "to",
          "type": "address"
        },
        {
          "internalType": "uint256",
          "name": "tokenId",
          "type": "uint256"
        }
      ],
      "name": "approve",
      "outputs": [],
      "stateMutability": "nonpayable",
      "type": "function"
    },
    {
      "inputs": [
        {
          "internalType": "address",
          "name": "owner",
          "type": "address"
        }
      ],
      "name": "balanceOf",
      "outputs": [
        {
          "internalType": "uint256",
          "name": "",
          "type": "uint256"
        }
      ],
      "stateMutability": "view",
      "type": "function",
      "constant": true
    },
    {
      "inputs": [],
      "name": "baseURI",
      "outputs": [
        {
          "internalType": "string",
          "name": "",
          "type": "string"
        }
      ],
      "stateMutability": "view",
      "type": "function",
      "constant": true
    },
    {
      "inputs": [
        {
          "internalType": "uint256",
          "name": "tokenId",
          "type": "uint256"
        }
      ],
      "name": "getApproved",
      "outputs": [
        {
          "internalType": "address",
          "name": "",
          "type": "address"
        }
      ],
      "stateMutability": "view",
      "type": "function",
      "constant": true
    },
    {
      "inputs": [
        {
          "internalType": "address",
          "name": "owner",
          "type": "address"
        },
        {
          "internalType": "address",
          "name": "operator",
          "type": "address"
        }
      ],
      "name": "isApprovedForAll",
      "outputs": [
        {
          "internalType": "bool",
          "name": "",
          "type": "bool"
        }
      ],
      "stateMutability": "view",
      "type": "function",
      "constant": true
    },
    {
      "inputs": [
        {
          "internalType": "uint256",
          "name": "tokenId",
          "type": "uint256"
        }
      ],
      "name": "isFreeze",
      "outputs": [
        {
          "internalType": "bool",
          "name": "",
          "type": "bool"
        }
      ],
      "stateMutability": "view",
      "type": "function",
      "constant": true
    },
    {
      "inputs": [
        {
          "internalType": "uint256",
          "name": "tokenId",
          "type": "uint256"
        }
      ],
      "name": "isRedeemed",
      "outputs": [
        {
          "internalType": "bool",
          "name": "",
          "type": "bool"
        }
      ],
      "stateMutability": "view",
      "type": "function",
      "constant": true
    },
    {
      "inputs": [],
      "name": "name",
      "outputs": [
        {
          "internalType": "string",
          "name": "",
          "type": "string"
        }
      ],
      "stateMutability": "view",
      "type": "function",
      "constant": true
    },
    {
      "inputs": [],
      "name": "owner",
      "outputs": [
        {
          "internalType": "address",
          "name": "",
          "type": "address"
        }
      ],
      "stateMutability": "view",
      "type": "function",
      "constant": true
    },
    {
      "inputs": [
        {
          "internalType": "uint256",
          "name": "tokenId",
          "type": "uint256"
        }
      ],
      "name": "ownerOf",
      "outputs": [
        {
          "internalType": "address",
          "name": "",
          "type": "address"
        }
      ],
      "stateMutability": "view",
      "type": "function",
      "constant": true
    },
    {
      "inputs": [],
      "name": "pause",
      "outputs": [],
      "stateMutability": "nonpayable",
      "type": "function"
    },
    {
      "inputs": [],
      "name": "paused",
      "outputs": [
        {
          "internalType": "bool",
          "name": "",
          "type": "bool"
        }
      ],
      "stateMutability": "view",
      "type": "function",
      "constant": true
    },
    {
      "inputs": [],
      "name": "renounceOwnership",
      "outputs": [],
      "stateMutability": "nonpayable",
      "type": "function"
    },
    {
      "inputs": [
        {
          "internalType": "address",
          "name": "from",
          "type": "address"
        },
        {
          "internalType": "address",
          "name": "to",
          "type": "address"
        },
        {
          "internalType": "uint256",
          "name": "tokenId",
          "type": "uint256"
        }
      ],
      "name": "safeTransferFrom",
      "outputs": [],
      "stateMutability": "nonpayable",
      "type": "function"
    },
    {
      "inputs": [
        {
          "internalType": "address",
          "name": "from",
          "type": "address"
        },
        {
          "internalType": "address",
          "name": "to",
          "type": "address"
        },
        {
          "internalType": "uint256",
          "name": "tokenId",
          "type": "uint256"
        },
        {
          "internalType": "bytes",
          "name": "_data",
          "type": "bytes"
        }
      ],
      "name": "safeTransferFrom",
      "outputs": [],
      "stateMutability": "nonpayable",
      "type": "function"
    },
    {
      "inputs": [
        {
          "internalType": "address",
          "name": "operator",
          "type": "address"
        },
        {
          "internalType": "bool",
          "name": "approved",
          "type": "bool"
        }
      ],
      "name": "setApprovalForAll",
      "outputs": [],
      "stateMutability": "nonpayable",
      "type": "function"
    },
    {
      "inputs": [
        {
          "internalType": "string",
          "name": "newBaseURI",
          "type": "string"
        }
      ],
      "name": "setBaseURI",
      "outputs": [],
      "stateMutability": "nonpayable",
      "type": "function"
    },
    {
      "inputs": [
        {
          "internalType": "address",
          "name": "",
          "type": "address"
        }
      ],
      "name": "signers",
      "outputs": [
        {
          "internalType": "bool",
          "name": "",
          "type": "bool"
        }
      ],
      "stateMutability": "view",
      "type": "function",
      "constant": true
    },
    {
      "inputs": [
        {
          "internalType": "bytes4",
          "name": "interfaceId",
          "type": "bytes4"
        }
      ],
      "name": "supportsInterface",
      "outputs": [
        {
          "internalType": "bool",
          "name": "",
          "type": "bool"
        }
      ],
      "stateMutability": "view",
      "type": "function",
      "constant": true
    },
    {
      "inputs": [],
      "name": "symbol",
      "outputs": [
        {
          "internalType": "string",
          "name": "",
          "type": "string"
        }
      ],
      "stateMutability": "view",
      "type": "function",
      "constant": true
    },
    {
      "inputs": [
        {
          "internalType": "uint256",
          "name": "index",
          "type": "uint256"
        }
      ],
      "name": "tokenByIndex",
      "outputs": [
        {
          "internalType": "uint256",
          "name": "",
          "type": "uint256"
        }
      ],
      "stateMutability": "view",
      "type": "function",
      "constant": true
    },
    {
      "inputs": [
        {
          "internalType": "address",
          "name": "owner",
          "type": "address"
        },
        {
          "internalType": "uint256",
          "name": "index",
          "type": "uint256"
        }
      ],
      "name": "tokenOfOwnerByIndex",
      "outputs": [
        {
          "internalType": "uint256",
          "name": "",
          "type": "uint256"
        }
      ],
      "stateMutability": "view",
      "type": "function",
      "constant": true
    },
    {
      "inputs": [
        {
          "internalType": "uint256",
          "name": "tokenId",
          "type": "uint256"
        }
      ],
      "name": "tokenURI",
      "outputs": [
        {
          "internalType": "string",
          "name": "",
          "type": "string"
        }
      ],
      "stateMutability": "view",
      "type": "function",
      "constant": true
    },
    {
      "inputs": [],
      "name": "totalSupply",
      "outputs": [
        {
          "internalType": "uint256",
          "name": "",
          "type": "uint256"
        }
      ],
      "stateMutability": "view",
      "type": "function",
      "constant": true
    },
    {
      "inputs": [
        {
          "internalType": "address",
          "name": "from",
          "type": "address"
        },
        {
          "internalType": "address",
          "name": "to",
          "type": "address"
        },
        {
          "internalType": "uint256",
          "name": "tokenId",
          "type": "uint256"
        }
      ],
      "name": "transferFrom",
      "outputs": [],
      "stateMutability": "nonpayable",
      "type": "function"
    },
    {
      "inputs": [
        {
          "internalType": "address",
          "name": "newOwner",
          "type": "address"
        }
      ],
      "name": "transferOwnership",
      "outputs": [],
      "stateMutability": "nonpayable",
      "type": "function"
    },
    {
      "inputs": [],
      "name": "unPause",
      "outputs": [],
      "stateMutability": "nonpayable",
      "type": "function"
    },
    {
      "inputs": [
        {
          "internalType": "address",
          "name": "_signer",
          "type": "address"
        }
      ],
      "name": "addSigner",
      "outputs": [],
      "stateMutability": "nonpayable",
      "type": "function"
    },
    {
      "inputs": [
        {
          "internalType": "address",
          "name": "_signer",
          "type": "address"
        }
      ],
      "name": "removeSigner",
      "outputs": [],
      "stateMutability": "nonpayable",
      "type": "function"
    },
    {
      "inputs": [
        {
          "internalType": "uint256",
          "name": "tokenId",
          "type": "uint256"
        },
        {
          "internalType": "bytes",
          "name": "signature",
          "type": "bytes"
        }
      ],
      "name": "equip",
      "outputs": [],
      "stateMutability": "nonpayable",
      "type": "function"
    },
    {
      "inputs": [
        {
          "internalType": "address",
          "name": "owner",
          "type": "address"
        },
        {
          "internalType": "address",
          "name": "redeemer",
          "type": "address"
        },
        {
          "internalType": "uint256",
          "name": "tokenId",
          "type": "uint256"
        },
        {
          "internalType": "bytes",
          "name": "signature",
          "type": "bytes"
        }
      ],
      "name": "redeem",
      "outputs": [],
      "stateMutability": "nonpayable",
      "type": "function"
    }
  ],
  "bytecode": "0x6101206040523480156200001257600080fd5b506040518060400160405280600581526020017f4c374e46540000000000000000000000000000000000000000000000000000008152506040518060400160405280600181526020017f31000000000000000000000000000000000000000000000000000000000000008152506040518060400160405280600981526020017f4c372045524337323100000000000000000000000000000000000000000000008152506040518060400160405280600281526020017f4c3700000000000000000000000000000000000000000000000000000000000081525081600090805190602001906200010392919062000300565b5080600190805190602001906200011c92919062000300565b5050506000600660006101000a81548160ff02191690831515021790555060006200014c620002bc60201b60201c565b905080600660016101000a81548173ffffffffffffffffffffffffffffffffffffffff021916908373ffffffffffffffffffffffffffffffffffffffff1602179055508073ffffffffffffffffffffffffffffffffffffffff16600073ffffffffffffffffffffffffffffffffffffffff167f8be0079c531659141344cd1fd0a4f28419497f9722a3daafe3b4186f6b6457e060405160405180910390a3506040518060400160405280601c81526020017f68747470733a2f2f6d657461646174612e6c372e6469676974616c2f00000000815250600890805190602001906200023892919062000300565b5060008280519060200120905060008280519060200120905060007f8b73c3c69bb8fe3d512ecc4cf759cc79239f7b179b0ffacaa9a75d522b39400f90508260c081815250508160e081815250504660a08181525050620002a1818484620002c460201b60201c565b608081815250508061010081815250505050505050620004ed565b600033905090565b60008383834630604051602001620002e1959493929190620003e3565b6040516020818303038152906040528051906020012090509392505050565b8280546200030e9062000488565b90600052602060002090601f0160209004810192826200033257600085556200037e565b82601f106200034d57805160ff19168380011785556200037e565b828001600101855582156200037e579182015b828111156200037d57825182559160200191906001019062000360565b5b5090506200038d919062000391565b5090565b5b80821115620003ac57600081600090555060010162000392565b5090565b620003bb8162000440565b82525050565b620003cc8162000454565b82525050565b620003dd816200047e565b82525050565b600060a082019050620003fa6000830188620003c1565b620004096020830187620003c1565b620004186040830186620003c1565b620004276060830185620003d2565b620004366080830184620003b0565b9695505050505050565b60006200044d826200045e565b9050919050565b6000819050919050565b600073ffffffffffffffffffffffffffffffffffffffff82169050919050565b6000819050919050565b60006002820490506001821680620004a157607f821691505b60208210811415620004b857620004b7620004be565b5b50919050565b7f4e487b7100000000000000000000000000000000000000000000000000000000600052602260045260246000fd5b60805160a05160c05160e051610100516153c3620005326000396000612c6201526000612ca401526000612c8301526000612c0f01526000612c3701526153c36000f3fe608060405234801561001057600080fd5b50600436106101e55760003560e01c80636352211e1161010f578063a22cb465116100a2578063e985e9c511610071578063e985e9c51461058e578063eb12d61e146105be578063f2fde38b146105da578063f7b188a5146105f6576101e5565b8063a22cb4651461050a578063b88d4fde14610526578063c87b56dd14610542578063e64911fb14610572576101e5565b8063736c0d5b116100de578063736c0d5b146104945780638456cb59146104c45780638da5cb5b146104ce57806395d89b41146104ec576101e5565b80636352211e1461040c5780636c0360eb1461043c57806370a082311461045a578063715018a61461048a576101e5565b806323b872dd1161018757806342842e0e1161015657806342842e0e146103865780634f6ccce7146103a257806355f804b3146103d25780635c975abb146103ee576101e5565b806323b872dd146102ee5780632f745c591461030a57806332d33cd01461033a5780633ce3b5211461036a576101e5565b8063095ea7b3116101c3578063095ea7b3146102685780630e316ab71461028457806318160ddd146102a057806323932b32146102be576101e5565b806301ffc9a7146101ea57806306fdde031461021a578063081812fc14610238575b600080fd5b61020460048036038101906101ff919061396d565b610600565b60405161021191906141a3565b60405180910390f35b6102226106e2565b60405161022f919061428d565b60405180910390f35b610252600480360381019061024d9190613a00565b610774565b60405161025f919061413c565b60405180910390f35b610282600480360381019061027d9190613931565b6107f9565b005b61029e60048036038101906102999190613746565b610911565b005b6102a8610a58565b6040516102b591906146af565b60405180910390f35b6102d860048036038101906102d39190613a00565b610a65565b6040516102e591906141a3565b60405180910390f35b610308600480360381019061030391906137ab565b610ad7565b005b610324600480360381019061031f9190613931565b610b37565b60405161033191906146af565b60405180910390f35b610354600480360381019061034f9190613a00565b610bdc565b60405161036191906141a3565b60405180910390f35b610384600480360381019061037f91906137fa565b610c25565b005b6103a0600480360381019061039b91906137ab565b610ded565b005b6103bc60048036038101906103b79190613a00565b610e0d565b6040516103c991906146af565b60405180910390f35b6103ec60048036038101906103e791906139bf565b610ea4565b005b6103f6610f82565b60405161040391906141a3565b60405180910390f35b61042660048036038101906104219190613a00565b610f99565b604051610433919061413c565b60405180910390f35b61044461104b565b604051610451919061428d565b60405180910390f35b610474600480360381019061046f9190613746565b6110dd565b60405161048191906146af565b60405180910390f35b610492611195565b005b6104ae60048036038101906104a99190613746565b6112d2565b6040516104bb91906141a3565b60405180910390f35b6104cc6112f2565b005b6104d6611378565b6040516104e3919061413c565b60405180910390f35b6104f46113a2565b604051610501919061428d565b60405180910390f35b610524600480360381019061051f91906138f5565b611434565b005b610540600480360381019061053b919061387a565b6115b5565b005b61055c60048036038101906105579190613a00565b611617565b604051610569919061428d565b60405180910390f35b61058c60048036038101906105879190613a29565b611629565b005b6105a860048036038101906105a3919061376f565b61171f565b6040516105b591906141a3565b60405180910390f35b6105d860048036038101906105d39190613746565b6117b3565b005b6105f460048036038101906105ef9190613746565b6118fa565b005b6105fe611aa6565b005b60007f80ac58cd000000000000000000000000000000000000000000000000000000007bffffffffffffffffffffffffffffffffffffffffffffffffffffffff1916827bffffffffffffffffffffffffffffffffffffffffffffffffffffffff191614806106cb57507f5b5e139f000000000000000000000000000000000000000000000000000000007bffffffffffffffffffffffffffffffffffffffffffffffffffffffff1916827bffffffffffffffffffffffffffffffffffffffffffffffffffffffff1916145b806106db57506106da82611b2c565b5b9050919050565b6060600080546106f19061493c565b80601f016020809104026020016040519081016040528092919081815260200182805461071d9061493c565b801561076a5780601f1061073f5761010080835404028352916020019161076a565b820191906000526020600020905b81548152906001019060200180831161074d57829003601f168201915b5050505050905090565b600061077f82611ba6565b6107be576040517f08c379a00000000000000000000000000000000000000000000000000000000081526004016107b59061458f565b60405180910390fd5b6004600083815260200190815260200160002060009054906101000a900473ffffffffffffffffffffffffffffffffffffffff169050919050565b600061080482610f99565b90508073ffffffffffffffffffffffffffffffffffffffff168373ffffffffffffffffffffffffffffffffffffffff161415610875576040517f08c379a000000000000000000000000000000000000000000000000000000000815260040161086c9061462f565b60405180910390fd5b8073ffffffffffffffffffffffffffffffffffffffff16610894611c12565b73ffffffffffffffffffffffffffffffffffffffff1614806108c357506108c2816108bd611c12565b61171f565b5b610902576040517f08c379a00000000000000000000000000000000000000000000000000000000081526004016108f9906144ef565b60405180910390fd5b61090c8383611c1a565b505050565b610919611c12565b73ffffffffffffffffffffffffffffffffffffffff16610937611378565b73ffffffffffffffffffffffffffffffffffffffff161461098d576040517f08c379a0000000000000000000000000000000000000000000000000000000008152600401610984906145af565b60405180910390fd5b600073ffffffffffffffffffffffffffffffffffffffff168173ffffffffffffffffffffffffffffffffffffffff1614156109fd576040517f08c379a00000000000000000000000000000000000000000000000000000000081526004016109f49061434f565b60405180910390fd5b6000600d60008373ffffffffffffffffffffffffffffffffffffffff1673ffffffffffffffffffffffffffffffffffffffff16815260200190815260200160002060006101000a81548160ff02191690831515021790555050565b6000600b80549050905090565b6000610a7082611ba6565b610aaf576040517f08c379a0000000000000000000000000000000000000000000000000000000008152600401610aa6906142cf565b60405180910390fd5b6007600083815260200190815260200160002060009054906101000a900460ff169050919050565b610ae8610ae2611c12565b82611cd3565b610b27576040517f08c379a0000000000000000000000000000000000000000000000000000000008152600401610b1e9061466f565b60405180910390fd5b610b32838383611db1565b505050565b6000610b42836110dd565b8210610b83576040517f08c379a0000000000000000000000000000000000000000000000000000000008152600401610b7a9061436f565b60405180910390fd5b600960008473ffffffffffffffffffffffffffffffffffffffff1673ffffffffffffffffffffffffffffffffffffffff168152602001908152602001600020600083815260200190815260200160002054905092915050565b6000610be782611ba6565b15610c1b57600015156007600084815260200190815260200160002060009054906101000a900460ff161515149050610c20565b600090505b919050565b6000610c7e610c34878661200d565b84848080601f016020809104026020016040519081016040528093929190818152602001838380828437600081840152601f19601f8201169050808301925050505050505061206a565b9050600d60008273ffffffffffffffffffffffffffffffffffffffff1673ffffffffffffffffffffffffffffffffffffffff16815260200190815260200160002060009054906101000a900460ff16610d0c576040517f08c379a0000000000000000000000000000000000000000000000000000000008152600401610d039061464f565b60405180910390fd5b8573ffffffffffffffffffffffffffffffffffffffff163373ffffffffffffffffffffffffffffffffffffffff161480610d4c5750610d4b863361171f565b5b610d8b576040517f08c379a0000000000000000000000000000000000000000000000000000000008152600401610d82906144cf565b60405180910390fd5b610d9586856120e6565b508473ffffffffffffffffffffffffffffffffffffffff168673ffffffffffffffffffffffffffffffffffffffff1614610de557610de48686866040518060200160405280600081525061218a565b5b505050505050565b610e08838383604051806020016040528060008152506115b5565b505050565b6000610e17610a58565b8210610e58576040517f08c379a0000000000000000000000000000000000000000000000000000000008152600401610e4f9061468f565b60405180910390fd5b600b8281548110610e92577f4e487b7100000000000000000000000000000000000000000000000000000000600052603260045260246000fd5b90600052602060002001549050919050565b610eac611c12565b73ffffffffffffffffffffffffffffffffffffffff16610eca611378565b73ffffffffffffffffffffffffffffffffffffffff1614610f20576040517f08c379a0000000000000000000000000000000000000000000000000000000008152600401610f17906145af565b60405180910390fd5b610f28610f82565b15610f68576040517f08c379a0000000000000000000000000000000000000000000000000000000008152600401610f5f906144af565b60405180910390fd5b8060089080519060200190610f7e929190613520565b5050565b6000600660009054906101000a900460ff16905090565b6000806002600084815260200190815260200160002060009054906101000a900473ffffffffffffffffffffffffffffffffffffffff169050600073ffffffffffffffffffffffffffffffffffffffff168173ffffffffffffffffffffffffffffffffffffffff161415611042576040517f08c379a00000000000000000000000000000000000000000000000000000000081526004016110399061452f565b60405180910390fd5b80915050919050565b60606008805461105a9061493c565b80601f01602080910402602001604051908101604052809291908181526020018280546110869061493c565b80156110d35780601f106110a8576101008083540402835291602001916110d3565b820191906000526020600020905b8154815290600101906020018083116110b657829003601f168201915b5050505050905090565b60008073ffffffffffffffffffffffffffffffffffffffff168273ffffffffffffffffffffffffffffffffffffffff16141561114e576040517f08c379a00000000000000000000000000000000000000000000000000000000081526004016111459061450f565b60405180910390fd5b600360008373ffffffffffffffffffffffffffffffffffffffff1673ffffffffffffffffffffffffffffffffffffffff168152602001908152602001600020549050919050565b61119d611c12565b73ffffffffffffffffffffffffffffffffffffffff166111bb611378565b73ffffffffffffffffffffffffffffffffffffffff1614611211576040517f08c379a0000000000000000000000000000000000000000000000000000000008152600401611208906145af565b60405180910390fd5b600073ffffffffffffffffffffffffffffffffffffffff16600660019054906101000a900473ffffffffffffffffffffffffffffffffffffffff1673ffffffffffffffffffffffffffffffffffffffff167f8be0079c531659141344cd1fd0a4f28419497f9722a3daafe3b4186f6b6457e060405160405180910390a36000600660016101000a81548173ffffffffffffffffffffffffffffffffffffffff021916908373ffffffffffffffffffffffffffffffffffffffff160217905550565b600d6020528060005260406000206000915054906101000a900460ff1681565b6112fa611c12565b73ffffffffffffffffffffffffffffffffffffffff16611318611378565b73ffffffffffffffffffffffffffffffffffffffff161461136e576040517f08c379a0000000000000000000000000000000000000000000000000000000008152600401611365906145af565b60405180910390fd5b6113766121e6565b565b6000600660019054906101000a900473ffffffffffffffffffffffffffffffffffffffff16905090565b6060600180546113b19061493c565b80601f01602080910402602001604051908101604052809291908181526020018280546113dd9061493c565b801561142a5780601f106113ff5761010080835404028352916020019161142a565b820191906000526020600020905b81548152906001019060200180831161140d57829003601f168201915b5050505050905090565b61143c611c12565b73ffffffffffffffffffffffffffffffffffffffff168273ffffffffffffffffffffffffffffffffffffffff1614156114aa576040517f08c379a00000000000000000000000000000000000000000000000000000000081526004016114a19061442f565b60405180910390fd5b80600560006114b7611c12565b73ffffffffffffffffffffffffffffffffffffffff1673ffffffffffffffffffffffffffffffffffffffff16815260200190815260200160002060008473ffffffffffffffffffffffffffffffffffffffff1673ffffffffffffffffffffffffffffffffffffffff16815260200190815260200160002060006101000a81548160ff0219169083151502179055508173ffffffffffffffffffffffffffffffffffffffff16611564611c12565b73ffffffffffffffffffffffffffffffffffffffff167f17307eab39ab6107e8899845ad3d59bd9653f200f220920489ca2b5937696c31836040516115a991906141a3565b60405180910390a35050565b6115c66115c0611c12565b83611cd3565b611605576040517f08c379a00000000000000000000000000000000000000000000000000000000081526004016115fc9061466f565b60405180910390fd5b6116118484848461218a565b50505050565b606061162282612289565b9050919050565b6000611682611638338661200d565b84848080601f016020809104026020016040519081016040528093929190818152602001838380828437600081840152601f19601f8201169050808301925050505050505061206a565b9050600d60008273ffffffffffffffffffffffffffffffffffffffff1673ffffffffffffffffffffffffffffffffffffffff16815260200190815260200160002060009054906101000a900460ff16611710576040517f08c379a00000000000000000000000000000000000000000000000000000000081526004016117079061464f565b60405180910390fd5b61171984612305565b50505050565b6000600560008473ffffffffffffffffffffffffffffffffffffffff1673ffffffffffffffffffffffffffffffffffffffff16815260200190815260200160002060008373ffffffffffffffffffffffffffffffffffffffff1673ffffffffffffffffffffffffffffffffffffffff16815260200190815260200160002060009054906101000a900460ff16905092915050565b6117bb611c12565b73ffffffffffffffffffffffffffffffffffffffff166117d9611378565b73ffffffffffffffffffffffffffffffffffffffff161461182f576040517f08c379a0000000000000000000000000000000000000000000000000000000008152600401611826906145af565b60405180910390fd5b600073ffffffffffffffffffffffffffffffffffffffff168173ffffffffffffffffffffffffffffffffffffffff16141561189f576040517f08c379a00000000000000000000000000000000000000000000000000000000081526004016118969061434f565b60405180910390fd5b6001600d60008373ffffffffffffffffffffffffffffffffffffffff1673ffffffffffffffffffffffffffffffffffffffff16815260200190815260200160002060006101000a81548160ff02191690831515021790555050565b611902611c12565b73ffffffffffffffffffffffffffffffffffffffff16611920611378565b73ffffffffffffffffffffffffffffffffffffffff1614611976576040517f08c379a000000000000000000000000000000000000000000000000000000000815260040161196d906145af565b60405180910390fd5b600073ffffffffffffffffffffffffffffffffffffffff168173ffffffffffffffffffffffffffffffffffffffff1614156119e6576040517f08c379a00000000000000000000000000000000000000000000000000000000081526004016119dd906143af565b60405180910390fd5b8073ffffffffffffffffffffffffffffffffffffffff16600660019054906101000a900473ffffffffffffffffffffffffffffffffffffffff1673ffffffffffffffffffffffffffffffffffffffff167f8be0079c531659141344cd1fd0a4f28419497f9722a3daafe3b4186f6b6457e060405160405180910390a380600660016101000a81548173ffffffffffffffffffffffffffffffffffffffff021916908373ffffffffffffffffffffffffffffffffffffffff16021790555050565b611aae611c12565b73ffffffffffffffffffffffffffffffffffffffff16611acc611378565b73ffffffffffffffffffffffffffffffffffffffff1614611b22576040517f08c379a0000000000000000000000000000000000000000000000000000000008152600401611b19906145af565b60405180910390fd5b611b2a612459565b565b60007f780e9d63000000000000000000000000000000000000000000000000000000007bffffffffffffffffffffffffffffffffffffffffffffffffffffffff1916827bffffffffffffffffffffffffffffffffffffffffffffffffffffffff19161480611b9f5750611b9e826124fb565b5b9050919050565b60008073ffffffffffffffffffffffffffffffffffffffff166002600084815260200190815260200160002060009054906101000a900473ffffffffffffffffffffffffffffffffffffffff1673ffffffffffffffffffffffffffffffffffffffff1614159050919050565b600033905090565b816004600083815260200190815260200160002060006101000a81548173ffffffffffffffffffffffffffffffffffffffff021916908373ffffffffffffffffffffffffffffffffffffffff160217905550808273ffffffffffffffffffffffffffffffffffffffff16611c8d83610f99565b73ffffffffffffffffffffffffffffffffffffffff167f8c5be1e5ebec7d5bd14f71427d1e84f3dd0314c0f7b2291e5b200ac8c7c3b92560405160405180910390a45050565b6000611cde82611ba6565b611d1d576040517f08c379a0000000000000000000000000000000000000000000000000000000008152600401611d149061446f565b60405180910390fd5b6000611d2883610f99565b90508073ffffffffffffffffffffffffffffffffffffffff168473ffffffffffffffffffffffffffffffffffffffff161480611d9757508373ffffffffffffffffffffffffffffffffffffffff16611d7f84610774565b73ffffffffffffffffffffffffffffffffffffffff16145b80611da85750611da7818561171f565b5b91505092915050565b8273ffffffffffffffffffffffffffffffffffffffff16611dd182610f99565b73ffffffffffffffffffffffffffffffffffffffff1614611e27576040517f08c379a0000000000000000000000000000000000000000000000000000000008152600401611e1e906145cf565b60405180910390fd5b600073ffffffffffffffffffffffffffffffffffffffff168273ffffffffffffffffffffffffffffffffffffffff161415611e97576040517f08c379a0000000000000000000000000000000000000000000000000000000008152600401611e8e9061440f565b60405180910390fd5b611ea28383836125dd565b611ead600082611c1a565b6001600360008573ffffffffffffffffffffffffffffffffffffffff1673ffffffffffffffffffffffffffffffffffffffff1681526020019081526020016000206000828254611efd919061483b565b925050819055506001600360008473ffffffffffffffffffffffffffffffffffffffff1673ffffffffffffffffffffffffffffffffffffffff1681526020019081526020016000206000828254611f5491906147b4565b92505081905550816002600083815260200190815260200160002060006101000a81548173ffffffffffffffffffffffffffffffffffffffff021916908373ffffffffffffffffffffffffffffffffffffffff160217905550808273ffffffffffffffffffffffffffffffffffffffff168473ffffffffffffffffffffffffffffffffffffffff167fddf252ad1be2c89b69c2b068fc378daa952ba7f163c4a11628f55a4df523b3ef60405160405180910390a4505050565b60006120627f3dd3146e66240aaf39502f517f1fff22d37c2e45eefbd64245a6e1b3c570aa778484604051602001612047939291906141be565b604051602081830303815290604052805190602001206125f8565b905092915050565b6000806040518060400160405280601c81526020017f19457468657265756d205369676e6564204d6573736167653a0a3332000000008152509050600081856040516020016120ba9291906140b9565b6040516020818303038152906040528051906020012090506120dc8185612612565b9250505092915050565b60006120f182611ba6565b156121275760006007600084815260200190815260200160002060006101000a81548160ff021916908315150217905550612133565b61213183836126dc565b505b8273ffffffffffffffffffffffffffffffffffffffff167f222838db2794d11532d940e8dec38ae307ed0b63cd97c233322e221f998767a68360405161217991906146af565b60405180910390a281905092915050565b612195848484611db1565b6121a1848484846126f1565b6121e0576040517f08c379a00000000000000000000000000000000000000000000000000000000081526004016121d79061438f565b60405180910390fd5b50505050565b6121ee610f82565b1561222e576040517f08c379a0000000000000000000000000000000000000000000000000000000008152600401612225906144af565b60405180910390fd5b6001600660006101000a81548160ff0219169083151502179055507f62e78cea01bee320cd4e420270b5ea74000d11b0c9f74754ebdbfc544b05a258612272611c12565b60405161227f919061413c565b60405180910390a1565b606061229482611ba6565b6122d3576040517f08c379a00000000000000000000000000000000000000000000000000000000081526004016122ca906145ef565b60405180910390fd5b60086122de83612888565b6040516020016122ef9291906140e1565b6040516020818303038152906040529050919050565b3373ffffffffffffffffffffffffffffffffffffffff1661232582610f99565b73ffffffffffffffffffffffffffffffffffffffff161461237b576040517f08c379a00000000000000000000000000000000000000000000000000000000081526004016123729061460f565b60405180910390fd5b6007600082815260200190815260200160002060009054906101000a900460ff16156123dc576040517f08c379a00000000000000000000000000000000000000000000000000000000081526004016123d3906143ef565b60405180910390fd5b60016007600083815260200190815260200160002060006101000a81548160ff0219169083151502179055503373ffffffffffffffffffffffffffffffffffffffff167f9bc69fd0e63231957daa6abe5af60a488ed6d7b33dc6be78443b607e672d952c8260405161244e91906146af565b60405180910390a250565b612461610f82565b6124a0576040517f08c379a00000000000000000000000000000000000000000000000000000000081526004016124979061430f565b60405180910390fd5b6000600660006101000a81548160ff0219169083151502179055507f5db9ee0a495bf2e6ff9c91a7834c1ba4fdd244a5e8aa4e537bd38aeae4b073aa6124e4611c12565b6040516124f1919061413c565b60405180910390a1565b60007f80ac58cd000000000000000000000000000000000000000000000000000000007bffffffffffffffffffffffffffffffffffffffffffffffffffffffff1916827bffffffffffffffffffffffffffffffffffffffffffffffffffffffff191614806125c657507f5b5e139f000000000000000000000000000000000000000000000000000000007bffffffffffffffffffffffffffffffffffffffffffffffffffffffff1916827bffffffffffffffffffffffffffffffffffffffffffffffffffffffff1916145b806125d657506125d582612a35565b5b9050919050565b6125e8838383612a9f565b6125f3838383612af7565b505050565b600061260b612605612c0b565b83612cce565b9050919050565b60008060008060418551141561263f576020850151925060408501519150606085015160001a90506126c5565b604085511415612689576040850151602086015193507f7fffffffffffffffffffffffffffffffffffffffffffffffffffffffffffffff81169250601b8160ff1c019150506126c4565b6040517f08c379a00000000000000000000000000000000000000000000000000000000081526004016126bb9061432f565b60405180910390fd5b5b6126d186828585612d01565b935050505092915050565b60006126e88383612e8c565b81905092915050565b60006127128473ffffffffffffffffffffffffffffffffffffffff16612eaa565b1561287b578373ffffffffffffffffffffffffffffffffffffffff1663150b7a0261273b611c12565b8786866040518563ffffffff1660e01b815260040161275d9493929190614157565b602060405180830381600087803b15801561277757600080fd5b505af19250505080156127a857506040513d601f19601f820116820180604052508101906127a59190613996565b60015b61282b573d80600081146127d8576040519150601f19603f3d011682016040523d82523d6000602084013e6127dd565b606091505b50600081511415612823576040517f08c379a000000000000000000000000000000000000000000000000000000000815260040161281a9061438f565b60405180910390fd5b805181602001fd5b63150b7a0260e01b7bffffffffffffffffffffffffffffffffffffffffffffffffffffffff1916817bffffffffffffffffffffffffffffffffffffffffffffffffffffffff191614915050612880565b600190505b949350505050565b606060008214156128d0576040518060400160405280600181526020017f30000000000000000000000000000000000000000000000000000000000000008152509050612a30565b600082905060005b600082146129025780806128eb9061499f565b915050600a826128fb919061480a565b91506128d8565b60008167ffffffffffffffff811115612944577f4e487b7100000000000000000000000000000000000000000000000000000000600052604160045260246000fd5b6040519080825280601f01601f1916602001820160405280156129765781602001600182028036833780820191505090505b5090505b60008514612a295760018261298f919061483b565b9150600a8561299e91906149f2565b60306129aa91906147b4565b60f81b8183815181106129e6577f4e487b7100000000000000000000000000000000000000000000000000000000600052603260045260246000fd5b60200101907effffffffffffffffffffffffffffffffffffffffffffffffffffffffffffff1916908160001a905350600a85612a22919061480a565b945061297a565b8093505050505b919050565b60007f01ffc9a7000000000000000000000000000000000000000000000000000000007bffffffffffffffffffffffffffffffffffffffffffffffffffffffff1916827bffffffffffffffffffffffffffffffffffffffffffffffffffffffff1916149050919050565b612aaa838383612ebd565b612ab381612f15565b612af2576040517f08c379a0000000000000000000000000000000000000000000000000000000008152600401612ae99061448f565b60405180910390fd5b505050565b612b02838383612a9f565b600073ffffffffffffffffffffffffffffffffffffffff168373ffffffffffffffffffffffffffffffffffffffff161415612b4557612b4081612f40565b612b84565b8173ffffffffffffffffffffffffffffffffffffffff168373ffffffffffffffffffffffffffffffffffffffff1614612b8357612b828382612f89565b5b5b600073ffffffffffffffffffffffffffffffffffffffff168273ffffffffffffffffffffffffffffffffffffffff161415612bc757612bc2816130f6565b612c06565b8273ffffffffffffffffffffffffffffffffffffffff168273ffffffffffffffffffffffffffffffffffffffff1614612c0557612c048282613239565b5b5b505050565b60007f0000000000000000000000000000000000000000000000000000000000000000461415612c5d577f00000000000000000000000000000000000000000000000000000000000000009050612ccb565b612cc87f00000000000000000000000000000000000000000000000000000000000000007f00000000000000000000000000000000000000000000000000000000000000007f00000000000000000000000000000000000000000000000000000000000000006132b8565b90505b90565b60008282604051602001612ce3929190614105565b60405160208183030381529060405280519060200120905092915050565b60007f7fffffffffffffffffffffffffffffff5d576e7357a4501ddfe92f46681b20a08260001c1115612d69576040517f08c379a0000000000000000000000000000000000000000000000000000000008152600401612d609061444f565b60405180910390fd5b601b8460ff161480612d7e5750601c8460ff16145b612dbd576040517f08c379a0000000000000000000000000000000000000000000000000000000008152600401612db49061454f565b60405180910390fd5b600060018686868660405160008152602001604052604051612de29493929190614248565b6020604051602081039080840390855afa158015612e04573d6000803e3d6000fd5b505050602060405103519050600073ffffffffffffffffffffffffffffffffffffffff168173ffffffffffffffffffffffffffffffffffffffff161415612e80576040517f08c379a0000000000000000000000000000000000000000000000000000000008152600401612e77906142af565b60405180910390fd5b80915050949350505050565b612ea68282604051806020016040528060008152506132f2565b5050565b600080823b905060008111915050919050565b612ec883838361334d565b612ed0610f82565b15612f10576040517f08c379a0000000000000000000000000000000000000000000000000000000008152600401612f07906142ef565b60405180910390fd5b505050565b60006007600083815260200190815260200160002060009054906101000a900460ff16159050919050565b600b80549050600c600083815260200190815260200160002081905550600b81908060018154018082558091505060019003906000526020600020016000909190919091505550565b60006001612f96846110dd565b612fa0919061483b565b90506000600a6000848152602001908152602001600020549050818114613085576000600960008673ffffffffffffffffffffffffffffffffffffffff1673ffffffffffffffffffffffffffffffffffffffff168152602001908152602001600020600084815260200190815260200160002054905080600960008773ffffffffffffffffffffffffffffffffffffffff1673ffffffffffffffffffffffffffffffffffffffff16815260200190815260200160002060008481526020019081526020016000208190555081600a600083815260200190815260200160002081905550505b600a600084815260200190815260200160002060009055600960008573ffffffffffffffffffffffffffffffffffffffff1673ffffffffffffffffffffffffffffffffffffffff16815260200190815260200160002060008381526020019081526020016000206000905550505050565b60006001600b8054905061310a919061483b565b90506000600c60008481526020019081526020016000205490506000600b8381548110613160577f4e487b7100000000000000000000000000000000000000000000000000000000600052603260045260246000fd5b9060005260206000200154905080600b83815481106131a8577f4e487b7100000000000000000000000000000000000000000000000000000000600052603260045260246000fd5b906000526020600020018190555081600c600083815260200190815260200160002081905550600c600085815260200190815260200160002060009055600b80548061321d577f4e487b7100000000000000000000000000000000000000000000000000000000600052603160045260246000fd5b6001900381819060005260206000200160009055905550505050565b6000613244836110dd565b905081600960008573ffffffffffffffffffffffffffffffffffffffff1673ffffffffffffffffffffffffffffffffffffffff16815260200190815260200160002060008381526020019081526020016000208190555080600a600084815260200190815260200160002081905550505050565b600083838346306040516020016132d39594939291906141f5565b6040516020818303038152906040528051906020012090509392505050565b6132fc8383613352565b61330960008484846126f1565b613348576040517f08c379a000000000000000000000000000000000000000000000000000000000815260040161333f9061438f565b60405180910390fd5b505050565b505050565b600073ffffffffffffffffffffffffffffffffffffffff168273ffffffffffffffffffffffffffffffffffffffff1614156133c2576040517f08c379a00000000000000000000000000000000000000000000000000000000081526004016133b99061456f565b60405180910390fd5b6133cb81611ba6565b1561340b576040517f08c379a0000000000000000000000000000000000000000000000000000000008152600401613402906143cf565b60405180910390fd5b613417600083836125dd565b6001600360008473ffffffffffffffffffffffffffffffffffffffff1673ffffffffffffffffffffffffffffffffffffffff168152602001908152602001600020600082825461346791906147b4565b92505081905550816002600083815260200190815260200160002060006101000a81548173ffffffffffffffffffffffffffffffffffffffff021916908373ffffffffffffffffffffffffffffffffffffffff160217905550808273ffffffffffffffffffffffffffffffffffffffff16600073ffffffffffffffffffffffffffffffffffffffff167fddf252ad1be2c89b69c2b068fc378daa952ba7f163c4a11628f55a4df523b3ef60405160405180910390a45050565b82805461352c9061493c565b90600052602060002090601f01602090048101928261354e5760008555613595565b82601f1061356757805160ff1916838001178555613595565b82800160010185558215613595579182015b82811115613594578251825591602001919060010190613579565b5b5090506135a291906135a6565b5090565b5b808211156135bf5760008160009055506001016135a7565b5090565b60006135d66135d1846146ef565b6146ca565b9050828152602081018484840111156135ee57600080fd5b6135f98482856148fa565b509392505050565b600061361461360f84614720565b6146ca565b90508281526020810184848401111561362c57600080fd5b6136378482856148fa565b509392505050565b60008135905061364e81615331565b92915050565b60008135905061366381615348565b92915050565b6000813590506136788161535f565b92915050565b60008151905061368d8161535f565b92915050565b60008083601f8401126136a557600080fd5b8235905067ffffffffffffffff8111156136be57600080fd5b6020830191508360018202830111156136d657600080fd5b9250929050565b600082601f8301126136ee57600080fd5b81356136fe8482602086016135c3565b91505092915050565b600082601f83011261371857600080fd5b8135613728848260208601613601565b91505092915050565b60008135905061374081615376565b92915050565b60006020828403121561375857600080fd5b60006137668482850161363f565b91505092915050565b6000806040838503121561378257600080fd5b60006137908582860161363f565b92505060206137a18582860161363f565b9150509250929050565b6000806000606084860312156137c057600080fd5b60006137ce8682870161363f565b93505060206137df8682870161363f565b92505060406137f086828701613731565b9150509250925092565b60008060008060006080868803121561381257600080fd5b60006138208882890161363f565b95505060206138318882890161363f565b945050604061384288828901613731565b935050606086013567ffffffffffffffff81111561385f57600080fd5b61386b88828901613693565b92509250509295509295909350565b6000806000806080858703121561389057600080fd5b600061389e8782880161363f565b94505060206138af8782880161363f565b93505060406138c087828801613731565b925050606085013567ffffffffffffffff8111156138dd57600080fd5b6138e9878288016136dd565b91505092959194509250565b6000806040838503121561390857600080fd5b60006139168582860161363f565b925050602061392785828601613654565b9150509250929050565b6000806040838503121561394457600080fd5b60006139528582860161363f565b925050602061396385828601613731565b9150509250929050565b60006020828403121561397f57600080fd5b600061398d84828501613669565b91505092915050565b6000602082840312156139a857600080fd5b60006139b68482850161367e565b91505092915050565b6000602082840312156139d157600080fd5b600082013567ffffffffffffffff8111156139eb57600080fd5b6139f784828501613707565b91505092915050565b600060208284031215613a1257600080fd5b6000613a2084828501613731565b91505092915050565b600080600060408486031215613a3e57600080fd5b6000613a4c86828701613731565b935050602084013567ffffffffffffffff811115613a6957600080fd5b613a7586828701613693565b92509250509250925092565b613a8a8161486f565b82525050565b613a9981614881565b82525050565b613aa88161488d565b82525050565b613abf613aba8261488d565b6149e8565b82525050565b6000613ad082614766565b613ada818561477c565b9350613aea818560208601614909565b613af381614adf565b840191505092915050565b6000613b0982614766565b613b13818561478d565b9350613b23818560208601614909565b80840191505092915050565b6000613b3a82614771565b613b448185614798565b9350613b54818560208601614909565b613b5d81614adf565b840191505092915050565b6000613b7382614771565b613b7d81856147a9565b9350613b8d818560208601614909565b80840191505092915050565b60008154613ba68161493c565b613bb081866147a9565b94506001821660008114613bcb5760018114613bdc57613c0f565b60ff19831686528186019350613c0f565b613be585614751565b60005b83811015613c0757815481890152600182019150602081019050613be8565b838801955050505b50505092915050565b6000613c25601883614798565b9150613c3082614af0565b602082019050919050565b6000613c48603283614798565b9150613c5382614b19565b604082019050919050565b6000613c6b602b83614798565b9150613c7682614b68565b604082019050919050565b6000613c8e601483614798565b9150613c9982614bb7565b602082019050919050565b6000613cb1601f83614798565b9150613cbc82614be0565b602082019050919050565b6000613cd4601a83614798565b9150613cdf82614c09565b602082019050919050565b6000613cf7602b83614798565b9150613d0282614c32565b604082019050919050565b6000613d1a603283614798565b9150613d2582614c81565b604082019050919050565b6000613d3d602683614798565b9150613d4882614cd0565b604082019050919050565b6000613d60601c83614798565b9150613d6b82614d1f565b602082019050919050565b6000613d836002836147a9565b9150613d8e82614d48565b600282019050919050565b6000613da6601683614798565b9150613db182614d71565b602082019050919050565b6000613dc9602483614798565b9150613dd482614d9a565b604082019050919050565b6000613dec601983614798565b9150613df782614de9565b602082019050919050565b6000613e0f602283614798565b9150613e1a82614e12565b604082019050919050565b6000613e32602c83614798565b9150613e3d82614e61565b604082019050919050565b6000613e55602783614798565b9150613e6082614eb0565b604082019050919050565b6000613e78601083614798565b9150613e8382614eff565b602082019050919050565b6000613e9b601983614798565b9150613ea682614f28565b602082019050919050565b6000613ebe603883614798565b9150613ec982614f51565b604082019050919050565b6000613ee1602a83614798565b9150613eec82614fa0565b604082019050919050565b6000613f04602983614798565b9150613f0f82614fef565b604082019050919050565b6000613f27602283614798565b9150613f328261503e565b604082019050919050565b6000613f4a602083614798565b9150613f558261508d565b602082019050919050565b6000613f6d602c83614798565b9150613f78826150b6565b604082019050919050565b6000613f90602083614798565b9150613f9b82615105565b602082019050919050565b6000613fb3602983614798565b9150613fbe8261512e565b604082019050919050565b6000613fd6602f83614798565b9150613fe18261517d565b604082019050919050565b6000613ff9603083614798565b9150614004826151cc565b604082019050919050565b600061401c602183614798565b91506140278261521b565b604082019050919050565b600061403f601583614798565b915061404a8261526a565b602082019050919050565b6000614062603183614798565b915061406d82615293565b604082019050919050565b6000614085602c83614798565b9150614090826152e2565b604082019050919050565b6140a4816148e3565b82525050565b6140b3816148ed565b82525050565b60006140c58285613afe565b91506140d18284613aae565b6020820191508190509392505050565b60006140ed8285613b99565b91506140f98284613b68565b91508190509392505050565b600061411082613d76565b915061411c8285613aae565b60208201915061412c8284613aae565b6020820191508190509392505050565b60006020820190506141516000830184613a81565b92915050565b600060808201905061416c6000830187613a81565b6141796020830186613a81565b614186604083018561409b565b81810360608301526141988184613ac5565b905095945050505050565b60006020820190506141b86000830184613a90565b92915050565b60006060820190506141d36000830186613a9f565b6141e06020830185613a81565b6141ed604083018461409b565b949350505050565b600060a08201905061420a6000830188613a9f565b6142176020830187613a9f565b6142246040830186613a9f565b614231606083018561409b565b61423e6080830184613a81565b9695505050505050565b600060808201905061425d6000830187613a9f565b61426a60208301866140aa565b6142776040830185613a9f565b6142846060830184613a9f565b95945050505050565b600060208201905081810360008301526142a78184613b2f565b905092915050565b600060208201905081810360008301526142c881613c18565b9050919050565b600060208201905081810360008301526142e881613c3b565b9050919050565b6000602082019050818103600083015261430881613c5e565b9050919050565b6000602082019050818103600083015261432881613c81565b9050919050565b6000602082019050818103600083015261434881613ca4565b9050919050565b6000602082019050818103600083015261436881613cc7565b9050919050565b6000602082019050818103600083015261438881613cea565b9050919050565b600060208201905081810360008301526143a881613d0d565b9050919050565b600060208201905081810360008301526143c881613d30565b9050919050565b600060208201905081810360008301526143e881613d53565b9050919050565b6000602082019050818103600083015261440881613d99565b9050919050565b6000602082019050818103600083015261442881613dbc565b9050919050565b6000602082019050818103600083015261444881613ddf565b9050919050565b6000602082019050818103600083015261446881613e02565b9050919050565b6000602082019050818103600083015261448881613e25565b9050919050565b600060208201905081810360008301526144a881613e48565b9050919050565b600060208201905081810360008301526144c881613e6b565b9050919050565b600060208201905081810360008301526144e881613e8e565b9050919050565b6000602082019050818103600083015261450881613eb1565b9050919050565b6000602082019050818103600083015261452881613ed4565b9050919050565b6000602082019050818103600083015261454881613ef7565b9050919050565b6000602082019050818103600083015261456881613f1a565b9050919050565b6000602082019050818103600083015261458881613f3d565b9050919050565b600060208201905081810360008301526145a881613f60565b9050919050565b600060208201905081810360008301526145c881613f83565b9050919050565b600060208201905081810360008301526145e881613fa6565b9050919050565b6000602082019050818103600083015261460881613fc9565b9050919050565b6000602082019050818103600083015261462881613fec565b9050919050565b600060208201905081810360008301526146488161400f565b9050919050565b6000602082019050818103600083015261466881614032565b9050919050565b6000602082019050818103600083015261468881614055565b9050919050565b600060208201905081810360008301526146a881614078565b9050919050565b60006020820190506146c4600083018461409b565b92915050565b60006146d46146e5565b90506146e0828261496e565b919050565b6000604051905090565b600067ffffffffffffffff82111561470a57614709614ab0565b5b61471382614adf565b9050602081019050919050565b600067ffffffffffffffff82111561473b5761473a614ab0565b5b61474482614adf565b9050602081019050919050565b60008190508160005260206000209050919050565b600081519050919050565b600081519050919050565b600082825260208201905092915050565b600081905092915050565b600082825260208201905092915050565b600081905092915050565b60006147bf826148e3565b91506147ca836148e3565b9250827fffffffffffffffffffffffffffffffffffffffffffffffffffffffffffffffff038211156147ff576147fe614a23565b5b828201905092915050565b6000614815826148e3565b9150614820836148e3565b9250826148305761482f614a52565b5b828204905092915050565b6000614846826148e3565b9150614851836148e3565b92508282101561486457614863614a23565b5b828203905092915050565b600061487a826148c3565b9050919050565b60008115159050919050565b6000819050919050565b60007fffffffff0000000000000000000000000000000000000000000000000000000082169050919050565b600073ffffffffffffffffffffffffffffffffffffffff82169050919050565b6000819050919050565b600060ff82169050919050565b82818337600083830152505050565b60005b8381101561492757808201518184015260208101905061490c565b83811115614936576000848401525b50505050565b6000600282049050600182168061495457607f821691505b6020821081141561496857614967614a81565b5b50919050565b61497782614adf565b810181811067ffffffffffffffff8211171561499657614995614ab0565b5b80604052505050565b60006149aa826148e3565b91507fffffffffffffffffffffffffffffffffffffffffffffffffffffffffffffffff8214156149dd576149dc614a23565b5b600182019050919050565b6000819050919050565b60006149fd826148e3565b9150614a08836148e3565b925082614a1857614a17614a52565b5b828206905092915050565b7f4e487b7100000000000000000000000000000000000000000000000000000000600052601160045260246000fd5b7f4e487b7100000000000000000000000000000000000000000000000000000000600052601260045260246000fd5b7f4e487b7100000000000000000000000000000000000000000000000000000000600052602260045260246000fd5b7f4e487b7100000000000000000000000000000000000000000000000000000000600052604160045260246000fd5b6000601f19601f8301169050919050565b7f45434453413a20696e76616c6964207369676e61747572650000000000000000600082015250565b7f4552433732314d657461646174613a20467265657a6520717565727920666f7260008201527f206e6f6e6578697374656e7420746f6b656e0000000000000000000000000000602082015250565b7f4552433732315061757361626c653a20746f6b656e207472616e73666572207760008201527f68696c6520706175736564000000000000000000000000000000000000000000602082015250565b7f5061757361626c653a206e6f7420706175736564000000000000000000000000600082015250565b7f45434453413a20696e76616c6964207369676e6174757265206c656e67746800600082015250565b7f4552525f5349474e45525f49535f5a45524f5f41444452455353000000000000600082015250565b7f455243373231456e756d657261626c653a206f776e657220696e646578206f7560008201527f74206f6620626f756e6473000000000000000000000000000000000000000000602082015250565b7f4552433732313a207472616e7366657220746f206e6f6e20455243373231526560008201527f63656976657220696d706c656d656e7465720000000000000000000000000000602082015250565b7f4f776e61626c653a206e6577206f776e657220697320746865207a65726f206160008201527f6464726573730000000000000000000000000000000000000000000000000000602082015250565b7f4552433732313a20746f6b656e20616c7265616479206d696e74656400000000600082015250565b7f1901000000000000000000000000000000000000000000000000000000000000600082015250565b7f4c374552433732313a206e667420657175697070656400000000000000000000600082015250565b7f4552433732313a207472616e7366657220746f20746865207a65726f2061646460008201527f7265737300000000000000000000000000000000000000000000000000000000602082015250565b7f4552433732313a20617070726f766520746f2063616c6c657200000000000000600082015250565b7f45434453413a20696e76616c6964207369676e6174757265202773272076616c60008201527f7565000000000000000000000000000000000000000000000000000000000000602082015250565b7f4552433732313a206f70657261746f7220717565727920666f72206e6f6e657860008201527f697374656e7420746f6b656e0000000000000000000000000000000000000000602082015250565b7f4c374552433732313a20746f6b656e207472616e73666572207768696c65206560008201527f7175697070656400000000000000000000000000000000000000000000000000602082015250565b7f5061757361626c653a2070617573656400000000000000000000000000000000600082015250565b7f4d5553545f42455f4f574e45525f4f525f415050524f56454400000000000000600082015250565b7f4552433732313a20617070726f76652063616c6c6572206973206e6f74206f7760008201527f6e6572206e6f7220617070726f76656420666f7220616c6c0000000000000000602082015250565b7f4552433732313a2062616c616e636520717565727920666f7220746865207a6560008201527f726f206164647265737300000000000000000000000000000000000000000000602082015250565b7f4552433732313a206f776e657220717565727920666f72206e6f6e657869737460008201527f656e7420746f6b656e0000000000000000000000000000000000000000000000602082015250565b7f45434453413a20696e76616c6964207369676e6174757265202776272076616c60008201527f7565000000000000000000000000000000000000000000000000000000000000602082015250565b7f4552433732313a206d696e7420746f20746865207a65726f2061646472657373600082015250565b7f4552433732313a20617070726f76656420717565727920666f72206e6f6e657860008201527f697374656e7420746f6b656e0000000000000000000000000000000000000000602082015250565b7f4f776e61626c653a2063616c6c6572206973206e6f7420746865206f776e6572600082015250565b7f4552433732313a207472616e73666572206f6620746f6b656e2074686174206960008201527f73206e6f74206f776e0000000000000000000000000000000000000000000000602082015250565b7f4552433732314d657461646174613a2055524920717565727920666f72206e6f60008201527f6e6578697374656e7420746f6b656e0000000000000000000000000000000000602082015250565b7f4c374552433732313a2065717569702063616c6c6572206973206e6f74206f7760008201527f6e6572206e6f7220617070726f76656400000000000000000000000000000000602082015250565b7f4552433732313a20617070726f76616c20746f2063757272656e74206f776e6560008201527f7200000000000000000000000000000000000000000000000000000000000000602082015250565b7f4552525f494e56414c49445f5349474e41545552450000000000000000000000600082015250565b7f4552433732313a207472616e736665722063616c6c6572206973206e6f74206f60008201527f776e6572206e6f7220617070726f766564000000000000000000000000000000602082015250565b7f455243373231456e756d657261626c653a20676c6f62616c20696e646578206f60008201527f7574206f6620626f756e64730000000000000000000000000000000000000000602082015250565b61533a8161486f565b811461534557600080fd5b50565b61535181614881565b811461535c57600080fd5b50565b61536881614897565b811461537357600080fd5b50565b61537f816148e3565b811461538a57600080fd5b5056fea2646970667358221220b370fb79fb536a1b05035cede56aa85162750ffcf752758b6b97bc0de33d0f3d64736f6c63430008040033",
  "immutableReferences": {
    "11562": [
      {
        "length": 32,
        "start": 11319
      }
    ],
    "11564": [
      {
        "length": 32,
        "start": 11279
      }
    ],
    "11566": [
      {
        "length": 32,
        "start": 11395
      }
    ],
    "11568": [
      {
        "length": 32,
        "start": 11428
      }
    ],
    "11570": [
      {
        "length": 32,
        "start": 11362
      }
    ]
  },
  "source": "// SPDX-License-Identifier: UNLICENSED\n\npragma solidity 0.8.4;\n\nimport \"./L7ERC721Enumerable.sol\";\nimport \"../../lib/utils/cryptography/draft-EIP712.sol\";\n\ncontract L7ERC721LazyMint is L7ERC721Enumerable, EIP712 {    \n    mapping(address => bool) public signers;\n\n    string private constant SIGNING_DOMAIN = \"L7NFT\";\n    string private constant SIGNATURE_VERSION = \"1\";\n\n    /**\n     * @dev Create a new L7NFTLazyMint contract and and assign `DEFAULT_ADMIN_ROLE, MINTER_ROLE` for the creator.\n     * This construction function should be called from an exchange.\n     *\n     */\n    constructor() L7ERC721Enumerable() EIP712(SIGNING_DOMAIN, SIGNATURE_VERSION)\n    {}\n\n    function addSigner(address _signer) external onlyOwner {\n        require(_signer != address(0), \"ERR_SIGNER_IS_ZERO_ADDRESS\");\n        signers[_signer] = true;\n    }\n\n    function removeSigner(address _signer) external onlyOwner {\n        require(_signer != address(0), \"ERR_SIGNER_IS_ZERO_ADDRESS\");\n        signers[_signer] = false;\n    }\n\n    function equip(uint256 tokenId, bytes calldata signature)\n    external\n    {\n        address _signer = _verify(_hash(msg.sender, tokenId), signature);\n        \n        require(signers[_signer], \"ERR_INVALID_SIGNATURE\");\n\n        equip(tokenId);\n    }\n\n    function redeem(address owner, address redeemer, uint256 tokenId, bytes calldata signature)\n    external\n    {\n        address _signer = _verify(_hash(owner, tokenId), signature);\n        \n        require(signers[_signer], \"ERR_INVALID_SIGNATURE\");\n        \n        require(msg.sender == owner || isApprovedForAll(owner, msg.sender), \"MUST_BE_OWNER_OR_APPROVED\");\n        \n        redeem(owner, tokenId);\n        \n        if(owner != redeemer){\n            _safeTransfer(owner, redeemer, tokenId, \"\");\n        }\n    }\n\n    /// @notice Returns a hash of the given PendingNFT, prepared using EIP712 typed data hashing rules.\n    function _hash(address owner, uint256 tokenId)\n    internal view returns (bytes32)\n    {\n        return _hashTypedDataV4(keccak256(abi.encode(\n                keccak256(\"L7NFT(address owner, uint256 tokenId)\"),\n                owner,\n                tokenId\n            )));\n    }\n\n    /**\n     * @dev Returns the signer for a pair of digested message and signature.\n     */\n    function _verify(bytes32 digest, bytes memory signature)\n    internal pure returns (address)\n    {\n        bytes memory prefix = \"\\x19Ethereum Signed Message:\\n32\";\n        bytes32 prefixedHash = keccak256(abi.encodePacked(prefix, digest));\n        return ECDSA.recover(prefixedHash, signature);\n    }\n}\n",
  "sourcePath": "/Users/baonq/Projects/l7/L7-NFT-ERC-solidity/contracts/tokens/ERC721/L7ERC721LazyMint.sol",
  "compiler": {
    "name": "solc",
    "version": "0.8.4+commit.c7e474f2.Emscripten.clang"
  },
  "schemaVersion": "3.4.1",
  "updatedAt": "2021-11-26T16:20:25.594Z",
  "networkType": "ethereum",
  "devdoc": {
    "kind": "dev",
    "methods": {
      "approve(address,uint256)": {
        "details": "See {IERC721-approve}."
      },
      "balanceOf(address)": {
        "details": "See {IERC721-balanceOf}."
      },
      "baseURI()": {
        "details": "Returns `__baseURI`."
      },
      "constructor": {
        "details": "Create a new L7NFTLazyMint contract and and assign `DEFAULT_ADMIN_ROLE, MINTER_ROLE` for the creator. This construction function should be called from an exchange."
      },
      "getApproved(uint256)": {
        "details": "See {IERC721-getApproved}."
      },
      "isApprovedForAll(address,address)": {
        "details": "See {IERC721-isApprovedForAll}."
      },
      "name()": {
        "details": "See {IERC721Metadata-name}."
      },
      "owner()": {
        "details": "Returns the address of the current owner."
      },
      "ownerOf(uint256)": {
        "details": "See {IERC721-ownerOf}."
      },
      "pause()": {
        "details": "Pause the contract in case of bugs/attacks."
      },
      "paused()": {
        "details": "Returns true if the contract is paused, and false otherwise."
      },
      "renounceOwnership()": {
        "details": "Leaves the contract without owner. It will not be possible to call `onlyOwner` functions anymore. Can only be called by the current owner. NOTE: Renouncing ownership will leave the contract without an owner, thereby removing any functionality that is only available to the owner."
      },
      "safeTransferFrom(address,address,uint256)": {
        "details": "See {IERC721-safeTransferFrom}."
      },
      "safeTransferFrom(address,address,uint256,bytes)": {
        "details": "See {IERC721-safeTransferFrom}."
      },
      "setApprovalForAll(address,bool)": {
        "details": "See {IERC721-setApprovalForAll}."
      },
      "setBaseURI(string)": {
        "details": "Sets new value for the `__baseURI`. This operation can only been done by the owner of this contract."
      },
      "supportsInterface(bytes4)": {
        "details": "See {IERC165-supportsInterface}."
      },
      "symbol()": {
        "details": "See {IERC721Metadata-symbol}."
      },
      "tokenByIndex(uint256)": {
        "details": "See {IERC721Enumerable-tokenByIndex}."
      },
      "tokenOfOwnerByIndex(address,uint256)": {
        "details": "See {IERC721Enumerable-tokenOfOwnerByIndex}."
      },
      "tokenURI(uint256)": {
        "details": "See {IERC721Metadata-tokenURI}."
      },
      "totalSupply()": {
        "details": "See {IERC721Enumerable-totalSupply}."
      },
      "transferFrom(address,address,uint256)": {
        "details": "See {IERC721-transferFrom}."
      },
      "transferOwnership(address)": {
        "details": "Transfers ownership of the contract to a new account (`newOwner`). Can only be called by the current owner."
      },
      "unPause()": {
        "details": "Resume the contract after being paused."
      }
    },
    "version": 1
  },
  "userdoc": {
    "kind": "user",
    "methods": {
      "pause()": {
        "notice": "Only the owner can call this method."
      },
      "unPause()": {
        "notice": "Only the owner can call this method."
      }
    },
    "version": 1
  }
}