{
  "contractName": "L7ERC721",
  "abi": [
    {
      "inputs": [],
      "stateMutability": "nonpayable",
      "type": "constructor"
    },
    {
      "anonymous": false,
      "inputs": [
        {
          "indexed": true,
          "internalType": "address",
          "name": "owner",
          "type": "address"
        },
        {
          "indexed": true,
          "internalType": "address",
          "name": "approved",
          "type": "address"
        },
        {
          "indexed": true,
          "internalType": "uint256",
          "name": "tokenId",
          "type": "uint256"
        }
      ],
      "name": "Approval",
      "type": "event"
    },
    {
      "anonymous": false,
      "inputs": [
        {
          "indexed": true,
          "internalType": "address",
          "name": "owner",
          "type": "address"
        },
        {
          "indexed": true,
          "internalType": "address",
          "name": "operator",
          "type": "address"
        },
        {
          "indexed": false,
          "internalType": "bool",
          "name": "approved",
          "type": "bool"
        }
      ],
      "name": "ApprovalForAll",
      "type": "event"
    },
    {
      "anonymous": false,
      "inputs": [
        {
          "indexed": true,
          "internalType": "address",
          "name": "owner",
          "type": "address"
        },
        {
          "indexed": false,
          "internalType": "uint256",
          "name": "tokenId",
          "type": "uint256"
        }
      ],
      "name": "Equip",
      "type": "event"
    },
    {
      "anonymous": false,
      "inputs": [
        {
          "indexed": true,
          "internalType": "address",
          "name": "previousOwner",
          "type": "address"
        },
        {
          "indexed": true,
          "internalType": "address",
          "name": "newOwner",
          "type": "address"
        }
      ],
      "name": "OwnershipTransferred",
      "type": "event"
    },
    {
      "anonymous": false,
      "inputs": [
        {
          "indexed": false,
          "internalType": "address",
          "name": "account",
          "type": "address"
        }
      ],
      "name": "Paused",
      "type": "event"
    },
    {
      "anonymous": false,
      "inputs": [
        {
          "indexed": true,
          "internalType": "address",
          "name": "owner",
          "type": "address"
        },
        {
          "indexed": false,
          "internalType": "uint256",
          "name": "tokenId",
          "type": "uint256"
        }
      ],
      "name": "Redeem",
      "type": "event"
    },
    {
      "anonymous": false,
      "inputs": [
        {
          "indexed": true,
          "internalType": "address",
          "name": "from",
          "type": "address"
        },
        {
          "indexed": true,
          "internalType": "address",
          "name": "to",
          "type": "address"
        },
        {
          "indexed": true,
          "internalType": "uint256",
          "name": "tokenId",
          "type": "uint256"
        }
      ],
      "name": "Transfer",
      "type": "event"
    },
    {
      "anonymous": false,
      "inputs": [
        {
          "indexed": false,
          "internalType": "address",
          "name": "account",
          "type": "address"
        }
      ],
      "name": "Unpaused",
      "type": "event"
    },
    {
      "inputs": [
        {
          "internalType": "address",
          "name": "to",
          "type": "address"
        },
        {
          "internalType": "uint256",
          "name": "tokenId",
          "type": "uint256"
        }
      ],
      "name": "approve",
      "outputs": [],
      "stateMutability": "nonpayable",
      "type": "function"
    },
    {
      "inputs": [
        {
          "internalType": "address",
          "name": "owner",
          "type": "address"
        }
      ],
      "name": "balanceOf",
      "outputs": [
        {
          "internalType": "uint256",
          "name": "",
          "type": "uint256"
        }
      ],
      "stateMutability": "view",
      "type": "function",
      "constant": true
    },
    {
      "inputs": [
        {
          "internalType": "uint256",
          "name": "tokenId",
          "type": "uint256"
        }
      ],
      "name": "getApproved",
      "outputs": [
        {
          "internalType": "address",
          "name": "",
          "type": "address"
        }
      ],
      "stateMutability": "view",
      "type": "function",
      "constant": true
    },
    {
      "inputs": [
        {
          "internalType": "address",
          "name": "owner",
          "type": "address"
        },
        {
          "internalType": "address",
          "name": "operator",
          "type": "address"
        }
      ],
      "name": "isApprovedForAll",
      "outputs": [
        {
          "internalType": "bool",
          "name": "",
          "type": "bool"
        }
      ],
      "stateMutability": "view",
      "type": "function",
      "constant": true
    },
    {
      "inputs": [],
      "name": "name",
      "outputs": [
        {
          "internalType": "string",
          "name": "",
          "type": "string"
        }
      ],
      "stateMutability": "view",
      "type": "function",
      "constant": true
    },
    {
      "inputs": [],
      "name": "owner",
      "outputs": [
        {
          "internalType": "address",
          "name": "",
          "type": "address"
        }
      ],
      "stateMutability": "view",
      "type": "function",
      "constant": true
    },
    {
      "inputs": [
        {
          "internalType": "uint256",
          "name": "tokenId",
          "type": "uint256"
        }
      ],
      "name": "ownerOf",
      "outputs": [
        {
          "internalType": "address",
          "name": "",
          "type": "address"
        }
      ],
      "stateMutability": "view",
      "type": "function",
      "constant": true
    },
    {
      "inputs": [],
      "name": "paused",
      "outputs": [
        {
          "internalType": "bool",
          "name": "",
          "type": "bool"
        }
      ],
      "stateMutability": "view",
      "type": "function",
      "constant": true
    },
    {
      "inputs": [],
      "name": "renounceOwnership",
      "outputs": [],
      "stateMutability": "nonpayable",
      "type": "function"
    },
    {
      "inputs": [
        {
          "internalType": "address",
          "name": "from",
          "type": "address"
        },
        {
          "internalType": "address",
          "name": "to",
          "type": "address"
        },
        {
          "internalType": "uint256",
          "name": "tokenId",
          "type": "uint256"
        }
      ],
      "name": "safeTransferFrom",
      "outputs": [],
      "stateMutability": "nonpayable",
      "type": "function"
    },
    {
      "inputs": [
        {
          "internalType": "address",
          "name": "from",
          "type": "address"
        },
        {
          "internalType": "address",
          "name": "to",
          "type": "address"
        },
        {
          "internalType": "uint256",
          "name": "tokenId",
          "type": "uint256"
        },
        {
          "internalType": "bytes",
          "name": "_data",
          "type": "bytes"
        }
      ],
      "name": "safeTransferFrom",
      "outputs": [],
      "stateMutability": "nonpayable",
      "type": "function"
    },
    {
      "inputs": [
        {
          "internalType": "address",
          "name": "operator",
          "type": "address"
        },
        {
          "internalType": "bool",
          "name": "approved",
          "type": "bool"
        }
      ],
      "name": "setApprovalForAll",
      "outputs": [],
      "stateMutability": "nonpayable",
      "type": "function"
    },
    {
      "inputs": [
        {
          "internalType": "bytes4",
          "name": "interfaceId",
          "type": "bytes4"
        }
      ],
      "name": "supportsInterface",
      "outputs": [
        {
          "internalType": "bool",
          "name": "",
          "type": "bool"
        }
      ],
      "stateMutability": "view",
      "type": "function",
      "constant": true
    },
    {
      "inputs": [],
      "name": "symbol",
      "outputs": [
        {
          "internalType": "string",
          "name": "",
          "type": "string"
        }
      ],
      "stateMutability": "view",
      "type": "function",
      "constant": true
    },
    {
      "inputs": [
        {
          "internalType": "address",
          "name": "from",
          "type": "address"
        },
        {
          "internalType": "address",
          "name": "to",
          "type": "address"
        },
        {
          "internalType": "uint256",
          "name": "tokenId",
          "type": "uint256"
        }
      ],
      "name": "transferFrom",
      "outputs": [],
      "stateMutability": "nonpayable",
      "type": "function"
    },
    {
      "inputs": [
        {
          "internalType": "address",
          "name": "newOwner",
          "type": "address"
        }
      ],
      "name": "transferOwnership",
      "outputs": [],
      "stateMutability": "nonpayable",
      "type": "function"
    },
    {
      "inputs": [],
      "name": "pause",
      "outputs": [],
      "stateMutability": "nonpayable",
      "type": "function"
    },
    {
      "inputs": [],
      "name": "unPause",
      "outputs": [],
      "stateMutability": "nonpayable",
      "type": "function"
    },
    {
      "inputs": [
        {
          "internalType": "uint256",
          "name": "tokenId",
          "type": "uint256"
        }
      ],
      "name": "tokenURI",
      "outputs": [
        {
          "internalType": "string",
          "name": "",
          "type": "string"
        }
      ],
      "stateMutability": "view",
      "type": "function",
      "constant": true
    },
    {
      "inputs": [
        {
          "internalType": "uint256",
          "name": "tokenId",
          "type": "uint256"
        }
      ],
      "name": "isRedeemed",
      "outputs": [
        {
          "internalType": "bool",
          "name": "",
          "type": "bool"
        }
      ],
      "stateMutability": "view",
      "type": "function",
      "constant": true
    },
    {
      "inputs": [
        {
          "internalType": "uint256",
          "name": "tokenId",
          "type": "uint256"
        }
      ],
      "name": "isFreeze",
      "outputs": [
        {
          "internalType": "bool",
          "name": "",
          "type": "bool"
        }
      ],
      "stateMutability": "view",
      "type": "function",
      "constant": true
    },
    {
      "inputs": [
        {
          "internalType": "string",
          "name": "newBaseURI",
          "type": "string"
        }
      ],
      "name": "setBaseURI",
      "outputs": [],
      "stateMutability": "nonpayable",
      "type": "function"
    },
    {
      "inputs": [],
      "name": "baseURI",
      "outputs": [
        {
          "internalType": "string",
          "name": "",
          "type": "string"
        }
      ],
      "stateMutability": "view",
      "type": "function",
      "constant": true
    }
  ],
  "bytecode": "0x60806040523480156200001157600080fd5b506040518060400160405280600981526020017f4c372045524337323100000000000000000000000000000000000000000000008152506040518060400160405280600281526020017f4c37000000000000000000000000000000000000000000000000000000000000815250816000908051906020019062000096929190620001da565b508060019080519060200190620000af929190620001da565b5050506000600660006101000a81548160ff0219169083151502179055506000620000df620001d260201b60201c565b905080600660016101000a81548173ffffffffffffffffffffffffffffffffffffffff021916908373ffffffffffffffffffffffffffffffffffffffff1602179055508073ffffffffffffffffffffffffffffffffffffffff16600073ffffffffffffffffffffffffffffffffffffffff167f8be0079c531659141344cd1fd0a4f28419497f9722a3daafe3b4186f6b6457e060405160405180910390a3506040518060400160405280601c81526020017f68747470733a2f2f6d657461646174612e6c372e6469676974616c2f0000000081525060089080519060200190620001cb929190620001da565b50620002ef565b600033905090565b828054620001e8906200028a565b90600052602060002090601f0160209004810192826200020c576000855562000258565b82601f106200022757805160ff191683800117855562000258565b8280016001018555821562000258579182015b82811115620002575782518255916020019190600101906200023a565b5b5090506200026791906200026b565b5090565b5b80821115620002865760008160009055506001016200026c565b5090565b60006002820490506001821680620002a357607f821691505b60208210811415620002ba57620002b9620002c0565b5b50919050565b7f4e487b7100000000000000000000000000000000000000000000000000000000600052602260045260246000fd5b61330f80620002ff6000396000f3fe608060405234801561001057600080fd5b506004361061014d5760003560e01c80636c0360eb116100c3578063a22cb4651161007c578063a22cb4651461038c578063b88d4fde146103a8578063c87b56dd146103c4578063e985e9c5146103f4578063f2fde38b14610424578063f7b188a5146104405761014d565b80636c0360eb146102ee57806370a082311461030c578063715018a61461033c5780638456cb59146103465780638da5cb5b1461035057806395d89b411461036e5761014d565b806323b872dd1161011557806323b872dd1461021c57806332d33cd01461023857806342842e0e1461026857806355f804b3146102845780635c975abb146102a05780636352211e146102be5761014d565b806301ffc9a71461015257806306fdde0314610182578063081812fc146101a0578063095ea7b3146101d057806323932b32146101ec575b600080fd5b61016c60048036038101906101679190612157565b61044a565b6040516101799190612686565b60405180910390f35b61018a61052c565b60405161019791906126a1565b60405180910390f35b6101ba60048036038101906101b591906121ea565b6105be565b6040516101c7919061261f565b60405180910390f35b6101ea60048036038101906101e5919061211b565b610643565b005b610206600480360381019061020191906121ea565b61075b565b6040516102139190612686565b60405180910390f35b61023660048036038101906102319190612015565b6107cd565b005b610252600480360381019061024d91906121ea565b61082d565b60405161025f9190612686565b60405180910390f35b610282600480360381019061027d9190612015565b610876565b005b61029e600480360381019061029991906121a9565b610896565b005b6102a8610974565b6040516102b59190612686565b60405180910390f35b6102d860048036038101906102d391906121ea565b61098b565b6040516102e5919061261f565b60405180910390f35b6102f6610a3d565b60405161030391906126a1565b60405180910390f35b61032660048036038101906103219190611fb0565b610acf565b6040516103339190612923565b60405180910390f35b610344610b87565b005b61034e610cc4565b005b610358610d4a565b604051610365919061261f565b60405180910390f35b610376610d74565b60405161038391906126a1565b60405180910390f35b6103a660048036038101906103a191906120df565b610e06565b005b6103c260048036038101906103bd9190612064565b610f87565b005b6103de60048036038101906103d991906121ea565b610fe9565b6040516103eb91906126a1565b60405180910390f35b61040e60048036038101906104099190611fd9565b611065565b60405161041b9190612686565b60405180910390f35b61043e60048036038101906104399190611fb0565b6110f9565b005b6104486112a5565b005b60007f80ac58cd000000000000000000000000000000000000000000000000000000007bffffffffffffffffffffffffffffffffffffffffffffffffffffffff1916827bffffffffffffffffffffffffffffffffffffffffffffffffffffffff1916148061051557507f5b5e139f000000000000000000000000000000000000000000000000000000007bffffffffffffffffffffffffffffffffffffffffffffffffffffffff1916827bffffffffffffffffffffffffffffffffffffffffffffffffffffffff1916145b8061052557506105248261132b565b5b9050919050565b60606000805461053b90612b8e565b80601f016020809104026020016040519081016040528092919081815260200182805461056790612b8e565b80156105b45780601f10610589576101008083540402835291602001916105b4565b820191906000526020600020905b81548152906001019060200180831161059757829003601f168201915b5050505050905090565b60006105c982611395565b610608576040517f08c379a00000000000000000000000000000000000000000000000000000000081526004016105ff90612863565b60405180910390fd5b6004600083815260200190815260200160002060009054906101000a900473ffffffffffffffffffffffffffffffffffffffff169050919050565b600061064e8261098b565b90508073ffffffffffffffffffffffffffffffffffffffff168373ffffffffffffffffffffffffffffffffffffffff1614156106bf576040517f08c379a00000000000000000000000000000000000000000000000000000000081526004016106b6906128e3565b60405180910390fd5b8073ffffffffffffffffffffffffffffffffffffffff166106de611401565b73ffffffffffffffffffffffffffffffffffffffff16148061070d575061070c81610707611401565b611065565b5b61074c576040517f08c379a000000000000000000000000000000000000000000000000000000000815260040161074390612803565b60405180910390fd5b6107568383611409565b505050565b600061076682611395565b6107a5576040517f08c379a000000000000000000000000000000000000000000000000000000000815260040161079c906126c3565b60405180910390fd5b6007600083815260200190815260200160002060009054906101000a900460ff169050919050565b6107de6107d8611401565b826114c2565b61081d576040517f08c379a000000000000000000000000000000000000000000000000000000000815260040161081490612903565b60405180910390fd5b6108288383836115a0565b505050565b600061083882611395565b1561086c57600015156007600084815260200190815260200160002060009054906101000a900460ff161515149050610871565b600090505b919050565b61089183838360405180602001604052806000815250610f87565b505050565b61089e611401565b73ffffffffffffffffffffffffffffffffffffffff166108bc610d4a565b73ffffffffffffffffffffffffffffffffffffffff1614610912576040517f08c379a000000000000000000000000000000000000000000000000000000000815260040161090990612883565b60405180910390fd5b61091a610974565b1561095a576040517f08c379a0000000000000000000000000000000000000000000000000000000008152600401610951906127e3565b60405180910390fd5b8060089080519060200190610970929190611dd4565b5050565b6000600660009054906101000a900460ff16905090565b6000806002600084815260200190815260200160002060009054906101000a900473ffffffffffffffffffffffffffffffffffffffff169050600073ffffffffffffffffffffffffffffffffffffffff168173ffffffffffffffffffffffffffffffffffffffff161415610a34576040517f08c379a0000000000000000000000000000000000000000000000000000000008152600401610a2b90612843565b60405180910390fd5b80915050919050565b606060088054610a4c90612b8e565b80601f0160208091040260200160405190810160405280929190818152602001828054610a7890612b8e565b8015610ac55780601f10610a9a57610100808354040283529160200191610ac5565b820191906000526020600020905b815481529060010190602001808311610aa857829003601f168201915b5050505050905090565b60008073ffffffffffffffffffffffffffffffffffffffff168273ffffffffffffffffffffffffffffffffffffffff161415610b40576040517f08c379a0000000000000000000000000000000000000000000000000000000008152600401610b3790612823565b60405180910390fd5b600360008373ffffffffffffffffffffffffffffffffffffffff1673ffffffffffffffffffffffffffffffffffffffff168152602001908152602001600020549050919050565b610b8f611401565b73ffffffffffffffffffffffffffffffffffffffff16610bad610d4a565b73ffffffffffffffffffffffffffffffffffffffff1614610c03576040517f08c379a0000000000000000000000000000000000000000000000000000000008152600401610bfa90612883565b60405180910390fd5b600073ffffffffffffffffffffffffffffffffffffffff16600660019054906101000a900473ffffffffffffffffffffffffffffffffffffffff1673ffffffffffffffffffffffffffffffffffffffff167f8be0079c531659141344cd1fd0a4f28419497f9722a3daafe3b4186f6b6457e060405160405180910390a36000600660016101000a81548173ffffffffffffffffffffffffffffffffffffffff021916908373ffffffffffffffffffffffffffffffffffffffff160217905550565b610ccc611401565b73ffffffffffffffffffffffffffffffffffffffff16610cea610d4a565b73ffffffffffffffffffffffffffffffffffffffff1614610d40576040517f08c379a0000000000000000000000000000000000000000000000000000000008152600401610d3790612883565b60405180910390fd5b610d486117fc565b565b6000600660019054906101000a900473ffffffffffffffffffffffffffffffffffffffff16905090565b606060018054610d8390612b8e565b80601f0160208091040260200160405190810160405280929190818152602001828054610daf90612b8e565b8015610dfc5780601f10610dd157610100808354040283529160200191610dfc565b820191906000526020600020905b815481529060010190602001808311610ddf57829003601f168201915b5050505050905090565b610e0e611401565b73ffffffffffffffffffffffffffffffffffffffff168273ffffffffffffffffffffffffffffffffffffffff161415610e7c576040517f08c379a0000000000000000000000000000000000000000000000000000000008152600401610e7390612783565b60405180910390fd5b8060056000610e89611401565b73ffffffffffffffffffffffffffffffffffffffff1673ffffffffffffffffffffffffffffffffffffffff16815260200190815260200160002060008473ffffffffffffffffffffffffffffffffffffffff1673ffffffffffffffffffffffffffffffffffffffff16815260200190815260200160002060006101000a81548160ff0219169083151502179055508173ffffffffffffffffffffffffffffffffffffffff16610f36611401565b73ffffffffffffffffffffffffffffffffffffffff167f17307eab39ab6107e8899845ad3d59bd9653f200f220920489ca2b5937696c3183604051610f7b9190612686565b60405180910390a35050565b610f98610f92611401565b836114c2565b610fd7576040517f08c379a0000000000000000000000000000000000000000000000000000000008152600401610fce90612903565b60405180910390fd5b610fe38484848461189f565b50505050565b6060610ff482611395565b611033576040517f08c379a000000000000000000000000000000000000000000000000000000000815260040161102a906128c3565b60405180910390fd5b600861103e836118fb565b60405160200161104f9291906125fb565b6040516020818303038152906040529050919050565b6000600560008473ffffffffffffffffffffffffffffffffffffffff1673ffffffffffffffffffffffffffffffffffffffff16815260200190815260200160002060008373ffffffffffffffffffffffffffffffffffffffff1673ffffffffffffffffffffffffffffffffffffffff16815260200190815260200160002060009054906101000a900460ff16905092915050565b611101611401565b73ffffffffffffffffffffffffffffffffffffffff1661111f610d4a565b73ffffffffffffffffffffffffffffffffffffffff1614611175576040517f08c379a000000000000000000000000000000000000000000000000000000000815260040161116c90612883565b60405180910390fd5b600073ffffffffffffffffffffffffffffffffffffffff168173ffffffffffffffffffffffffffffffffffffffff1614156111e5576040517f08c379a00000000000000000000000000000000000000000000000000000000081526004016111dc90612743565b60405180910390fd5b8073ffffffffffffffffffffffffffffffffffffffff16600660019054906101000a900473ffffffffffffffffffffffffffffffffffffffff1673ffffffffffffffffffffffffffffffffffffffff167f8be0079c531659141344cd1fd0a4f28419497f9722a3daafe3b4186f6b6457e060405160405180910390a380600660016101000a81548173ffffffffffffffffffffffffffffffffffffffff021916908373ffffffffffffffffffffffffffffffffffffffff16021790555050565b6112ad611401565b73ffffffffffffffffffffffffffffffffffffffff166112cb610d4a565b73ffffffffffffffffffffffffffffffffffffffff1614611321576040517f08c379a000000000000000000000000000000000000000000000000000000000815260040161131890612883565b60405180910390fd5b611329611aa8565b565b60007f01ffc9a7000000000000000000000000000000000000000000000000000000007bffffffffffffffffffffffffffffffffffffffffffffffffffffffff1916827bffffffffffffffffffffffffffffffffffffffffffffffffffffffff1916149050919050565b60008073ffffffffffffffffffffffffffffffffffffffff166002600084815260200190815260200160002060009054906101000a900473ffffffffffffffffffffffffffffffffffffffff1673ffffffffffffffffffffffffffffffffffffffff1614159050919050565b600033905090565b816004600083815260200190815260200160002060006101000a81548173ffffffffffffffffffffffffffffffffffffffff021916908373ffffffffffffffffffffffffffffffffffffffff160217905550808273ffffffffffffffffffffffffffffffffffffffff1661147c8361098b565b73ffffffffffffffffffffffffffffffffffffffff167f8c5be1e5ebec7d5bd14f71427d1e84f3dd0314c0f7b2291e5b200ac8c7c3b92560405160405180910390a45050565b60006114cd82611395565b61150c576040517f08c379a0000000000000000000000000000000000000000000000000000000008152600401611503906127a3565b60405180910390fd5b60006115178361098b565b90508073ffffffffffffffffffffffffffffffffffffffff168473ffffffffffffffffffffffffffffffffffffffff16148061158657508373ffffffffffffffffffffffffffffffffffffffff1661156e846105be565b73ffffffffffffffffffffffffffffffffffffffff16145b8061159757506115968185611065565b5b91505092915050565b8273ffffffffffffffffffffffffffffffffffffffff166115c08261098b565b73ffffffffffffffffffffffffffffffffffffffff1614611616576040517f08c379a000000000000000000000000000000000000000000000000000000000815260040161160d906128a3565b60405180910390fd5b600073ffffffffffffffffffffffffffffffffffffffff168273ffffffffffffffffffffffffffffffffffffffff161415611686576040517f08c379a000000000000000000000000000000000000000000000000000000000815260040161167d90612763565b60405180910390fd5b611691838383611b4a565b61169c600082611409565b6001600360008573ffffffffffffffffffffffffffffffffffffffff1673ffffffffffffffffffffffffffffffffffffffff16815260200190815260200160002060008282546116ec9190612aa4565b925050819055506001600360008473ffffffffffffffffffffffffffffffffffffffff1673ffffffffffffffffffffffffffffffffffffffff16815260200190815260200160002060008282546117439190612a1d565b92505081905550816002600083815260200190815260200160002060006101000a81548173ffffffffffffffffffffffffffffffffffffffff021916908373ffffffffffffffffffffffffffffffffffffffff160217905550808273ffffffffffffffffffffffffffffffffffffffff168473ffffffffffffffffffffffffffffffffffffffff167fddf252ad1be2c89b69c2b068fc378daa952ba7f163c4a11628f55a4df523b3ef60405160405180910390a4505050565b611804610974565b15611844576040517f08c379a000000000000000000000000000000000000000000000000000000000815260040161183b906127e3565b60405180910390fd5b6001600660006101000a81548160ff0219169083151502179055507f62e78cea01bee320cd4e420270b5ea74000d11b0c9f74754ebdbfc544b05a258611888611401565b604051611895919061261f565b60405180910390a1565b6118aa8484846115a0565b6118b684848484611ba2565b6118f5576040517f08c379a00000000000000000000000000000000000000000000000000000000081526004016118ec90612723565b60405180910390fd5b50505050565b60606000821415611943576040518060400160405280600181526020017f30000000000000000000000000000000000000000000000000000000000000008152509050611aa3565b600082905060005b6000821461197557808061195e90612bf1565b915050600a8261196e9190612a73565b915061194b565b60008167ffffffffffffffff8111156119b7577f4e487b7100000000000000000000000000000000000000000000000000000000600052604160045260246000fd5b6040519080825280601f01601f1916602001820160405280156119e95781602001600182028036833780820191505090505b5090505b60008514611a9c57600182611a029190612aa4565b9150600a85611a119190612c3a565b6030611a1d9190612a1d565b60f81b818381518110611a59577f4e487b7100000000000000000000000000000000000000000000000000000000600052603260045260246000fd5b60200101907effffffffffffffffffffffffffffffffffffffffffffffffffffffffffffff1916908160001a905350600a85611a959190612a73565b94506119ed565b8093505050505b919050565b611ab0610974565b611aef576040517f08c379a0000000000000000000000000000000000000000000000000000000008152600401611ae690612703565b60405180910390fd5b6000600660006101000a81548160ff0219169083151502179055507f5db9ee0a495bf2e6ff9c91a7834c1ba4fdd244a5e8aa4e537bd38aeae4b073aa611b33611401565b604051611b40919061261f565b60405180910390a1565b611b55838383611d39565b611b5e81611d91565b611b9d576040517f08c379a0000000000000000000000000000000000000000000000000000000008152600401611b94906127c3565b60405180910390fd5b505050565b6000611bc38473ffffffffffffffffffffffffffffffffffffffff16611dbc565b15611d2c578373ffffffffffffffffffffffffffffffffffffffff1663150b7a02611bec611401565b8786866040518563ffffffff1660e01b8152600401611c0e949392919061263a565b602060405180830381600087803b158015611c2857600080fd5b505af1925050508015611c5957506040513d601f19601f82011682018060405250810190611c569190612180565b60015b611cdc573d8060008114611c89576040519150601f19603f3d011682016040523d82523d6000602084013e611c8e565b606091505b50600081511415611cd4576040517f08c379a0000000000000000000000000000000000000000000000000000000008152600401611ccb90612723565b60405180910390fd5b805181602001fd5b63150b7a0260e01b7bffffffffffffffffffffffffffffffffffffffffffffffffffffffff1916817bffffffffffffffffffffffffffffffffffffffffffffffffffffffff191614915050611d31565b600190505b949350505050565b611d44838383611dcf565b611d4c610974565b15611d8c576040517f08c379a0000000000000000000000000000000000000000000000000000000008152600401611d83906126e3565b60405180910390fd5b505050565b60006007600083815260200190815260200160002060009054906101000a900460ff16159050919050565b600080823b905060008111915050919050565b505050565b828054611de090612b8e565b90600052602060002090601f016020900481019282611e025760008555611e49565b82601f10611e1b57805160ff1916838001178555611e49565b82800160010185558215611e49579182015b82811115611e48578251825591602001919060010190611e2d565b5b509050611e569190611e5a565b5090565b5b80821115611e73576000816000905550600101611e5b565b5090565b6000611e8a611e8584612963565b61293e565b905082815260208101848484011115611ea257600080fd5b611ead848285612b4c565b509392505050565b6000611ec8611ec384612994565b61293e565b905082815260208101848484011115611ee057600080fd5b611eeb848285612b4c565b509392505050565b600081359050611f028161327d565b92915050565b600081359050611f1781613294565b92915050565b600081359050611f2c816132ab565b92915050565b600081519050611f41816132ab565b92915050565b600082601f830112611f5857600080fd5b8135611f68848260208601611e77565b91505092915050565b600082601f830112611f8257600080fd5b8135611f92848260208601611eb5565b91505092915050565b600081359050611faa816132c2565b92915050565b600060208284031215611fc257600080fd5b6000611fd084828501611ef3565b91505092915050565b60008060408385031215611fec57600080fd5b6000611ffa85828601611ef3565b925050602061200b85828601611ef3565b9150509250929050565b60008060006060848603121561202a57600080fd5b600061203886828701611ef3565b935050602061204986828701611ef3565b925050604061205a86828701611f9b565b9150509250925092565b6000806000806080858703121561207a57600080fd5b600061208887828801611ef3565b945050602061209987828801611ef3565b93505060406120aa87828801611f9b565b925050606085013567ffffffffffffffff8111156120c757600080fd5b6120d387828801611f47565b91505092959194509250565b600080604083850312156120f257600080fd5b600061210085828601611ef3565b925050602061211185828601611f08565b9150509250929050565b6000806040838503121561212e57600080fd5b600061213c85828601611ef3565b925050602061214d85828601611f9b565b9150509250929050565b60006020828403121561216957600080fd5b600061217784828501611f1d565b91505092915050565b60006020828403121561219257600080fd5b60006121a084828501611f32565b91505092915050565b6000602082840312156121bb57600080fd5b600082013567ffffffffffffffff8111156121d557600080fd5b6121e184828501611f71565b91505092915050565b6000602082840312156121fc57600080fd5b600061220a84828501611f9b565b91505092915050565b61221c81612ad8565b82525050565b61222b81612aea565b82525050565b600061223c826129da565b61224681856129f0565b9350612256818560208601612b5b565b61225f81612d27565b840191505092915050565b6000612275826129e5565b61227f8185612a01565b935061228f818560208601612b5b565b61229881612d27565b840191505092915050565b60006122ae826129e5565b6122b88185612a12565b93506122c8818560208601612b5b565b80840191505092915050565b600081546122e181612b8e565b6122eb8186612a12565b9450600182166000811461230657600181146123175761234a565b60ff1983168652818601935061234a565b612320856129c5565b60005b8381101561234257815481890152600182019150602081019050612323565b838801955050505b50505092915050565b6000612360603283612a01565b915061236b82612d38565b604082019050919050565b6000612383602b83612a01565b915061238e82612d87565b604082019050919050565b60006123a6601483612a01565b91506123b182612dd6565b602082019050919050565b60006123c9603283612a01565b91506123d482612dff565b604082019050919050565b60006123ec602683612a01565b91506123f782612e4e565b604082019050919050565b600061240f602483612a01565b915061241a82612e9d565b604082019050919050565b6000612432601983612a01565b915061243d82612eec565b602082019050919050565b6000612455602c83612a01565b915061246082612f15565b604082019050919050565b6000612478602783612a01565b915061248382612f64565b604082019050919050565b600061249b601083612a01565b91506124a682612fb3565b602082019050919050565b60006124be603883612a01565b91506124c982612fdc565b604082019050919050565b60006124e1602a83612a01565b91506124ec8261302b565b604082019050919050565b6000612504602983612a01565b915061250f8261307a565b604082019050919050565b6000612527602c83612a01565b9150612532826130c9565b604082019050919050565b600061254a602083612a01565b915061255582613118565b602082019050919050565b600061256d602983612a01565b915061257882613141565b604082019050919050565b6000612590602f83612a01565b915061259b82613190565b604082019050919050565b60006125b3602183612a01565b91506125be826131df565b604082019050919050565b60006125d6603183612a01565b91506125e18261322e565b604082019050919050565b6125f581612b42565b82525050565b600061260782856122d4565b915061261382846122a3565b91508190509392505050565b60006020820190506126346000830184612213565b92915050565b600060808201905061264f6000830187612213565b61265c6020830186612213565b61266960408301856125ec565b818103606083015261267b8184612231565b905095945050505050565b600060208201905061269b6000830184612222565b92915050565b600060208201905081810360008301526126bb818461226a565b905092915050565b600060208201905081810360008301526126dc81612353565b9050919050565b600060208201905081810360008301526126fc81612376565b9050919050565b6000602082019050818103600083015261271c81612399565b9050919050565b6000602082019050818103600083015261273c816123bc565b9050919050565b6000602082019050818103600083015261275c816123df565b9050919050565b6000602082019050818103600083015261277c81612402565b9050919050565b6000602082019050818103600083015261279c81612425565b9050919050565b600060208201905081810360008301526127bc81612448565b9050919050565b600060208201905081810360008301526127dc8161246b565b9050919050565b600060208201905081810360008301526127fc8161248e565b9050919050565b6000602082019050818103600083015261281c816124b1565b9050919050565b6000602082019050818103600083015261283c816124d4565b9050919050565b6000602082019050818103600083015261285c816124f7565b9050919050565b6000602082019050818103600083015261287c8161251a565b9050919050565b6000602082019050818103600083015261289c8161253d565b9050919050565b600060208201905081810360008301526128bc81612560565b9050919050565b600060208201905081810360008301526128dc81612583565b9050919050565b600060208201905081810360008301526128fc816125a6565b9050919050565b6000602082019050818103600083015261291c816125c9565b9050919050565b600060208201905061293860008301846125ec565b92915050565b6000612948612959565b90506129548282612bc0565b919050565b6000604051905090565b600067ffffffffffffffff82111561297e5761297d612cf8565b5b61298782612d27565b9050602081019050919050565b600067ffffffffffffffff8211156129af576129ae612cf8565b5b6129b882612d27565b9050602081019050919050565b60008190508160005260206000209050919050565b600081519050919050565b600081519050919050565b600082825260208201905092915050565b600082825260208201905092915050565b600081905092915050565b6000612a2882612b42565b9150612a3383612b42565b9250827fffffffffffffffffffffffffffffffffffffffffffffffffffffffffffffffff03821115612a6857612a67612c6b565b5b828201905092915050565b6000612a7e82612b42565b9150612a8983612b42565b925082612a9957612a98612c9a565b5b828204905092915050565b6000612aaf82612b42565b9150612aba83612b42565b925082821015612acd57612acc612c6b565b5b828203905092915050565b6000612ae382612b22565b9050919050565b60008115159050919050565b60007fffffffff0000000000000000000000000000000000000000000000000000000082169050919050565b600073ffffffffffffffffffffffffffffffffffffffff82169050919050565b6000819050919050565b82818337600083830152505050565b60005b83811015612b79578082015181840152602081019050612b5e565b83811115612b88576000848401525b50505050565b60006002820490506001821680612ba657607f821691505b60208210811415612bba57612bb9612cc9565b5b50919050565b612bc982612d27565b810181811067ffffffffffffffff82111715612be857612be7612cf8565b5b80604052505050565b6000612bfc82612b42565b91507fffffffffffffffffffffffffffffffffffffffffffffffffffffffffffffffff821415612c2f57612c2e612c6b565b5b600182019050919050565b6000612c4582612b42565b9150612c5083612b42565b925082612c6057612c5f612c9a565b5b828206905092915050565b7f4e487b7100000000000000000000000000000000000000000000000000000000600052601160045260246000fd5b7f4e487b7100000000000000000000000000000000000000000000000000000000600052601260045260246000fd5b7f4e487b7100000000000000000000000000000000000000000000000000000000600052602260045260246000fd5b7f4e487b7100000000000000000000000000000000000000000000000000000000600052604160045260246000fd5b6000601f19601f8301169050919050565b7f4552433732314d657461646174613a20467265657a6520717565727920666f7260008201527f206e6f6e6578697374656e7420746f6b656e0000000000000000000000000000602082015250565b7f4552433732315061757361626c653a20746f6b656e207472616e73666572207760008201527f68696c6520706175736564000000000000000000000000000000000000000000602082015250565b7f5061757361626c653a206e6f7420706175736564000000000000000000000000600082015250565b7f4552433732313a207472616e7366657220746f206e6f6e20455243373231526560008201527f63656976657220696d706c656d656e7465720000000000000000000000000000602082015250565b7f4f776e61626c653a206e6577206f776e657220697320746865207a65726f206160008201527f6464726573730000000000000000000000000000000000000000000000000000602082015250565b7f4552433732313a207472616e7366657220746f20746865207a65726f2061646460008201527f7265737300000000000000000000000000000000000000000000000000000000602082015250565b7f4552433732313a20617070726f766520746f2063616c6c657200000000000000600082015250565b7f4552433732313a206f70657261746f7220717565727920666f72206e6f6e657860008201527f697374656e7420746f6b656e0000000000000000000000000000000000000000602082015250565b7f4c374552433732313a20746f6b656e207472616e73666572207768696c65206560008201527f7175697070656400000000000000000000000000000000000000000000000000602082015250565b7f5061757361626c653a2070617573656400000000000000000000000000000000600082015250565b7f4552433732313a20617070726f76652063616c6c6572206973206e6f74206f7760008201527f6e6572206e6f7220617070726f76656420666f7220616c6c0000000000000000602082015250565b7f4552433732313a2062616c616e636520717565727920666f7220746865207a6560008201527f726f206164647265737300000000000000000000000000000000000000000000602082015250565b7f4552433732313a206f776e657220717565727920666f72206e6f6e657869737460008201527f656e7420746f6b656e0000000000000000000000000000000000000000000000602082015250565b7f4552433732313a20617070726f76656420717565727920666f72206e6f6e657860008201527f697374656e7420746f6b656e0000000000000000000000000000000000000000602082015250565b7f4f776e61626c653a2063616c6c6572206973206e6f7420746865206f776e6572600082015250565b7f4552433732313a207472616e73666572206f6620746f6b656e2074686174206960008201527f73206e6f74206f776e0000000000000000000000000000000000000000000000602082015250565b7f4552433732314d657461646174613a2055524920717565727920666f72206e6f60008201527f6e6578697374656e7420746f6b656e0000000000000000000000000000000000602082015250565b7f4552433732313a20617070726f76616c20746f2063757272656e74206f776e6560008201527f7200000000000000000000000000000000000000000000000000000000000000602082015250565b7f4552433732313a207472616e736665722063616c6c6572206973206e6f74206f60008201527f776e6572206e6f7220617070726f766564000000000000000000000000000000602082015250565b61328681612ad8565b811461329157600080fd5b50565b61329d81612aea565b81146132a857600080fd5b50565b6132b481612af6565b81146132bf57600080fd5b50565b6132cb81612b42565b81146132d657600080fd5b5056fea26469706673582212202992cf57459088a50bf3ba97b0da516ed2a6975e46d50bb19aac34f5a3dd8fbc64736f6c63430008040033",
  "immutableReferences": {},
  "source": "// SPDX-License-Identifier: UNLICENSED\n\npragma solidity 0.8.4;\n\nimport \"../../lib/token/ERC721/ERC721.sol\";\nimport \"../../lib/access/Ownable.sol\";\nimport \"../../lib/security/Pausable.sol\";\nimport \"../../lib/token/ERC721/extensions/ERC721Pausable.sol\";\nimport \"../../lib/utils/Strings.sol\";\ncontract L7ERC721 is ERC721Pausable, Ownable {\n    using Strings for uint256;\n    \n    mapping(uint256 => bool) private _idFreeze;\n\n    /**\n     * @dev The base URI for all NFT.\n     */\n    string private __baseURI;\n    \n    /**\n     * @dev Emitted when a pending token is redeemed in the lazy-minting protocol.\n     */\n    event Redeem(address indexed owner, uint256 tokenId);\n    event Equip(address indexed owner, uint256 tokenId); \n    \n    function _transferable(uint256 tokenId) internal view virtual returns (bool) {\n        return !_idFreeze[tokenId];\n    }\n\n    /**\n     * @dev Create a new L7ERC721 contract.\n     *\n     */\n    constructor() ERC721(\"L7 ERC721\", \"L7\") Ownable() Pausable() {\n        __baseURI = \"https://metadata.l7.digital/\";\n    }\n\n    /**\n     * @dev Pause the contract in case of bugs/attacks.\n     * @notice Only the owner can call this method.\n     */\n    function pause() public onlyOwner {\n        _pause();\n    }\n\n    /**\n     * @dev Resume the contract after being paused.\n     * @notice Only the owner can call this method.\n     */\n    function unPause() public onlyOwner {\n        _unpause();\n    }\n\n    function equip(uint256 tokenId) internal virtual {\n        require(ownerOf(tokenId) == msg.sender, \"L7ERC721: equip caller is not owner nor approved\");\n        require(!_idFreeze[tokenId], \"L7ERC721: nft equipped\");\n        _idFreeze[tokenId] = true;\n        emit Equip(msg.sender, tokenId);\n    }\n    \n    function redeem(address redeemer, uint256 tokenId) internal virtual returns (uint256) {\n        if(_exists(tokenId)){\n            //require(ownerOf(tokenId) == msg.sender, \"L7ERC721: redeemer caller is not owner nor approved\");\n            //require(_idFreeze[tokenId], \"L7ERC721: nft redeemed\");\n            _idFreeze[tokenId] = false;\n        }else{\n            safeMint(redeemer, tokenId);\n        }\n        emit Redeem(redeemer, tokenId);\n        return tokenId;\n    }\n\n    function safeMint(\n        address to,\n        uint256 tokenId)\n    internal virtual\n    returns (uint256)\n    {\n        _safeMint(to, tokenId);\n        return tokenId;\n    }\n\n    function mint(address to, uint256 tokenId)\n    internal virtual\n    returns (uint256)\n    {\n        _mint(to, tokenId);\n        return tokenId;\n    }\n\n    /**\n     * @dev See {IERC721Metadata-tokenURI}.\n     */\n    function tokenURI(uint256 tokenId) public view virtual override returns (string memory) {\n        require(_exists(tokenId), \"ERC721Metadata: URI query for nonexistent token\");\n        return string(abi.encodePacked(__baseURI, tokenId.toString()));\n    }\n    \n    function isRedeemed(uint256 tokenId) public view virtual returns (bool) {\n        if(_exists(tokenId)){\n            return _idFreeze[tokenId] == false;\n        } else {\n            return false;\n        }\n    }\n    \n    function isFreeze(uint256 tokenId) public view virtual returns (bool) {\n        require(_exists(tokenId), \"ERC721Metadata: Freeze query for nonexistent token\");\n        return _idFreeze[tokenId];\n    }\n    \n    /**\n     * @dev Sets new value for the `__baseURI`. This operation can only been done by the owner of this contract.\n     */\n    function setBaseURI(string memory newBaseURI) external onlyOwner whenNotPaused {\n        __baseURI = newBaseURI;\n    }\n\n    /**\n     * @dev Returns `__baseURI`.\n     */\n    function baseURI() external view returns(string memory) {\n        return __baseURI;\n    }\n    \n    /**\n     * @dev Base URI for computing {tokenURI}. If set, the resulting URI for each\n     * token will be the concatenation of the `baseURI` and the `tokenId`.\n     */\n    function _baseURI() internal view virtual override returns (string memory) {\n        return __baseURI;\n    }\n\n    function _beforeTokenTransfer(address from, address to, uint256 tokenId) internal virtual override (ERC721Pausable) {\n        ERC721Pausable._beforeTokenTransfer(from, to, tokenId);\n        require(_transferable(tokenId), \"L7ERC721: token transfer while equipped\");\n    }\n}\n",
  "sourcePath": "/Users/baonq/Projects/l7/L7-NFT-ERC-solidity/contracts/tokens/ERC721/L7ERC721.sol",
  "compiler": {
    "name": "solc",
    "version": "0.8.4+commit.c7e474f2.Emscripten.clang"
  },
  "schemaVersion": "3.4.1",
  "updatedAt": "2021-11-26T16:20:25.568Z",
  "networkType": "ethereum",
  "devdoc": {
    "events": {
      "Redeem(address,uint256)": {
        "details": "Emitted when a pending token is redeemed in the lazy-minting protocol."
      }
    },
    "kind": "dev",
    "methods": {
      "approve(address,uint256)": {
        "details": "See {IERC721-approve}."
      },
      "balanceOf(address)": {
        "details": "See {IERC721-balanceOf}."
      },
      "baseURI()": {
        "details": "Returns `__baseURI`."
      },
      "constructor": {
        "details": "Create a new L7ERC721 contract."
      },
      "getApproved(uint256)": {
        "details": "See {IERC721-getApproved}."
      },
      "isApprovedForAll(address,address)": {
        "details": "See {IERC721-isApprovedForAll}."
      },
      "name()": {
        "details": "See {IERC721Metadata-name}."
      },
      "owner()": {
        "details": "Returns the address of the current owner."
      },
      "ownerOf(uint256)": {
        "details": "See {IERC721-ownerOf}."
      },
      "pause()": {
        "details": "Pause the contract in case of bugs/attacks."
      },
      "paused()": {
        "details": "Returns true if the contract is paused, and false otherwise."
      },
      "renounceOwnership()": {
        "details": "Leaves the contract without owner. It will not be possible to call `onlyOwner` functions anymore. Can only be called by the current owner. NOTE: Renouncing ownership will leave the contract without an owner, thereby removing any functionality that is only available to the owner."
      },
      "safeTransferFrom(address,address,uint256)": {
        "details": "See {IERC721-safeTransferFrom}."
      },
      "safeTransferFrom(address,address,uint256,bytes)": {
        "details": "See {IERC721-safeTransferFrom}."
      },
      "setApprovalForAll(address,bool)": {
        "details": "See {IERC721-setApprovalForAll}."
      },
      "setBaseURI(string)": {
        "details": "Sets new value for the `__baseURI`. This operation can only been done by the owner of this contract."
      },
      "supportsInterface(bytes4)": {
        "details": "See {IERC165-supportsInterface}."
      },
      "symbol()": {
        "details": "See {IERC721Metadata-symbol}."
      },
      "tokenURI(uint256)": {
        "details": "See {IERC721Metadata-tokenURI}."
      },
      "transferFrom(address,address,uint256)": {
        "details": "See {IERC721-transferFrom}."
      },
      "transferOwnership(address)": {
        "details": "Transfers ownership of the contract to a new account (`newOwner`). Can only be called by the current owner."
      },
      "unPause()": {
        "details": "Resume the contract after being paused."
      }
    },
    "stateVariables": {
      "__baseURI": {
        "details": "The base URI for all NFT."
      }
    },
    "version": 1
  },
  "userdoc": {
    "kind": "user",
    "methods": {
      "pause()": {
        "notice": "Only the owner can call this method."
      },
      "unPause()": {
        "notice": "Only the owner can call this method."
      }
    },
    "version": 1
  }
}