{
  "contractName": "TaureumERC721LazyMint",
  "abi": [
    {
      "inputs": [],
      "stateMutability": "nonpayable",
      "type": "constructor"
    },
    {
      "anonymous": false,
      "inputs": [
        {
          "indexed": true,
          "internalType": "address",
          "name": "owner",
          "type": "address"
        },
        {
          "indexed": true,
          "internalType": "address",
          "name": "approved",
          "type": "address"
        },
        {
          "indexed": true,
          "internalType": "uint256",
          "name": "tokenId",
          "type": "uint256"
        }
      ],
      "name": "Approval",
      "type": "event"
    },
    {
      "anonymous": false,
      "inputs": [
        {
          "indexed": true,
          "internalType": "address",
          "name": "owner",
          "type": "address"
        },
        {
          "indexed": true,
          "internalType": "address",
          "name": "operator",
          "type": "address"
        },
        {
          "indexed": false,
          "internalType": "bool",
          "name": "approved",
          "type": "bool"
        }
      ],
      "name": "ApprovalForAll",
      "type": "event"
    },
    {
      "anonymous": false,
      "inputs": [
        {
          "indexed": true,
          "internalType": "address",
          "name": "minter",
          "type": "address"
        },
        {
          "indexed": true,
          "internalType": "address",
          "name": "redeemer",
          "type": "address"
        },
        {
          "indexed": false,
          "internalType": "string",
          "name": "uri",
          "type": "string"
        },
        {
          "indexed": false,
          "internalType": "bytes",
          "name": "signature",
          "type": "bytes"
        }
      ],
      "name": "Redeem",
      "type": "event"
    },
    {
      "anonymous": false,
      "inputs": [
        {
          "indexed": true,
          "internalType": "address",
          "name": "from",
          "type": "address"
        },
        {
          "indexed": true,
          "internalType": "address",
          "name": "to",
          "type": "address"
        },
        {
          "indexed": true,
          "internalType": "uint256",
          "name": "tokenId",
          "type": "uint256"
        }
      ],
      "name": "Transfer",
      "type": "event"
    },
    {
      "inputs": [
        {
          "internalType": "address",
          "name": "to",
          "type": "address"
        },
        {
          "internalType": "uint256",
          "name": "tokenId",
          "type": "uint256"
        }
      ],
      "name": "approve",
      "outputs": [],
      "stateMutability": "nonpayable",
      "type": "function"
    },
    {
      "inputs": [
        {
          "internalType": "address",
          "name": "owner",
          "type": "address"
        }
      ],
      "name": "balanceOf",
      "outputs": [
        {
          "internalType": "uint256",
          "name": "",
          "type": "uint256"
        }
      ],
      "stateMutability": "view",
      "type": "function"
    },
    {
      "inputs": [
        {
          "internalType": "uint256",
          "name": "tokenId",
          "type": "uint256"
        }
      ],
      "name": "getApproved",
      "outputs": [
        {
          "internalType": "address",
          "name": "",
          "type": "address"
        }
      ],
      "stateMutability": "view",
      "type": "function"
    },
    {
      "inputs": [
        {
          "internalType": "address",
          "name": "owner",
          "type": "address"
        },
        {
          "internalType": "address",
          "name": "operator",
          "type": "address"
        }
      ],
      "name": "isApprovedForAll",
      "outputs": [
        {
          "internalType": "bool",
          "name": "",
          "type": "bool"
        }
      ],
      "stateMutability": "view",
      "type": "function"
    },
    {
      "inputs": [
        {
          "internalType": "address",
          "name": "to",
          "type": "address"
        },
        {
          "internalType": "string",
          "name": "uri",
          "type": "string"
        }
      ],
      "name": "mint",
      "outputs": [
        {
          "internalType": "uint256",
          "name": "",
          "type": "uint256"
        }
      ],
      "stateMutability": "nonpayable",
      "type": "function"
    },
    {
      "inputs": [],
      "name": "name",
      "outputs": [
        {
          "internalType": "string",
          "name": "",
          "type": "string"
        }
      ],
      "stateMutability": "view",
      "type": "function"
    },
    {
      "inputs": [
        {
          "internalType": "uint256",
          "name": "tokenId",
          "type": "uint256"
        }
      ],
      "name": "ownerOf",
      "outputs": [
        {
          "internalType": "address",
          "name": "",
          "type": "address"
        }
      ],
      "stateMutability": "view",
      "type": "function"
    },
    {
      "inputs": [
        {
          "internalType": "address",
          "name": "to",
          "type": "address"
        },
        {
          "internalType": "string",
          "name": "uri",
          "type": "string"
        }
      ],
      "name": "safeMint",
      "outputs": [
        {
          "internalType": "uint256",
          "name": "",
          "type": "uint256"
        }
      ],
      "stateMutability": "nonpayable",
      "type": "function"
    },
    {
      "inputs": [
        {
          "internalType": "address",
          "name": "from",
          "type": "address"
        },
        {
          "internalType": "address",
          "name": "to",
          "type": "address"
        },
        {
          "internalType": "uint256",
          "name": "tokenId",
          "type": "uint256"
        }
      ],
      "name": "safeTransferFrom",
      "outputs": [],
      "stateMutability": "nonpayable",
      "type": "function"
    },
    {
      "inputs": [
        {
          "internalType": "address",
          "name": "from",
          "type": "address"
        },
        {
          "internalType": "address",
          "name": "to",
          "type": "address"
        },
        {
          "internalType": "uint256",
          "name": "tokenId",
          "type": "uint256"
        },
        {
          "internalType": "bytes",
          "name": "_data",
          "type": "bytes"
        }
      ],
      "name": "safeTransferFrom",
      "outputs": [],
      "stateMutability": "nonpayable",
      "type": "function"
    },
    {
      "inputs": [
        {
          "internalType": "address",
          "name": "operator",
          "type": "address"
        },
        {
          "internalType": "bool",
          "name": "approved",
          "type": "bool"
        }
      ],
      "name": "setApprovalForAll",
      "outputs": [],
      "stateMutability": "nonpayable",
      "type": "function"
    },
    {
      "inputs": [
        {
          "internalType": "bytes4",
          "name": "interfaceId",
          "type": "bytes4"
        }
      ],
      "name": "supportsInterface",
      "outputs": [
        {
          "internalType": "bool",
          "name": "",
          "type": "bool"
        }
      ],
      "stateMutability": "view",
      "type": "function"
    },
    {
      "inputs": [],
      "name": "symbol",
      "outputs": [
        {
          "internalType": "string",
          "name": "",
          "type": "string"
        }
      ],
      "stateMutability": "view",
      "type": "function"
    },
    {
      "inputs": [
        {
          "internalType": "uint256",
          "name": "index",
          "type": "uint256"
        }
      ],
      "name": "tokenByIndex",
      "outputs": [
        {
          "internalType": "uint256",
          "name": "",
          "type": "uint256"
        }
      ],
      "stateMutability": "view",
      "type": "function"
    },
    {
      "inputs": [
        {
          "internalType": "address",
          "name": "owner",
          "type": "address"
        },
        {
          "internalType": "uint256",
          "name": "index",
          "type": "uint256"
        }
      ],
      "name": "tokenOfOwnerByIndex",
      "outputs": [
        {
          "internalType": "uint256",
          "name": "",
          "type": "uint256"
        }
      ],
      "stateMutability": "view",
      "type": "function"
    },
    {
      "inputs": [
        {
          "internalType": "uint256",
          "name": "tokenId",
          "type": "uint256"
        }
      ],
      "name": "tokenURI",
      "outputs": [
        {
          "internalType": "string",
          "name": "",
          "type": "string"
        }
      ],
      "stateMutability": "view",
      "type": "function"
    },
    {
      "inputs": [],
      "name": "totalSupply",
      "outputs": [
        {
          "internalType": "uint256",
          "name": "",
          "type": "uint256"
        }
      ],
      "stateMutability": "view",
      "type": "function"
    },
    {
      "inputs": [
        {
          "internalType": "address",
          "name": "from",
          "type": "address"
        },
        {
          "internalType": "address",
          "name": "to",
          "type": "address"
        },
        {
          "internalType": "uint256",
          "name": "tokenId",
          "type": "uint256"
        }
      ],
      "name": "transferFrom",
      "outputs": [],
      "stateMutability": "nonpayable",
      "type": "function"
    },
    {
      "inputs": [
        {
          "internalType": "address",
          "name": "redeemer",
          "type": "address"
        },
        {
          "internalType": "string",
          "name": "uri",
          "type": "string"
        },
        {
          "internalType": "bytes",
          "name": "signature",
          "type": "bytes"
        }
      ],
      "name": "redeem",
      "outputs": [],
      "stateMutability": "nonpayable",
      "type": "function"
    }
  ],
  "bytecode": "0x6101206040523480156200001257600080fd5b506040518060400160405280600a81526020017f5461757265756d4e4654000000000000000000000000000000000000000000008152506040518060400160405280600181526020017f31000000000000000000000000000000000000000000000000000000000000008152506040518060400160405280600e81526020017f5461757265756d204552433732310000000000000000000000000000000000008152506040518060400160405280600781526020017f5461757265756d00000000000000000000000000000000000000000000000000815250816000908051906020019062000103929190620001de565b5080600190805190602001906200011c929190620001de565b50505060008280519060200120905060008280519060200120905060007f8b73c3c69bb8fe3d512ecc4cf759cc79239f7b179b0ffacaa9a75d522b39400f90508260c081815250508160e081815250504660a0818152505062000187818484620001a260201b60201c565b608081815250508061010081815250505050505050620003cb565b60008383834630604051602001620001bf959493929190620002c1565b6040516020818303038152906040528051906020012090509392505050565b828054620001ec9062000366565b90600052602060002090601f0160209004810192826200021057600085556200025c565b82601f106200022b57805160ff19168380011785556200025c565b828001600101855582156200025c579182015b828111156200025b5782518255916020019190600101906200023e565b5b5090506200026b91906200026f565b5090565b5b808211156200028a57600081600090555060010162000270565b5090565b62000299816200031e565b82525050565b620002aa8162000332565b82525050565b620002bb816200035c565b82525050565b600060a082019050620002d860008301886200029f565b620002e760208301876200029f565b620002f660408301866200029f565b620003056060830185620002b0565b6200031460808301846200028e565b9695505050505050565b60006200032b826200033c565b9050919050565b6000819050919050565b600073ffffffffffffffffffffffffffffffffffffffff82169050919050565b6000819050919050565b600060028204905060018216806200037f57607f821691505b602082108114156200039657620003956200039c565b5b50919050565b7f4e487b7100000000000000000000000000000000000000000000000000000000600052602260045260246000fd5b60805160a05160c05160e05161010051613e69620004106000396000611ef501526000611f3701526000611f1601526000611ea201526000611eca0152613e696000f3fe608060405234801561001057600080fd5b50600436106101215760003560e01c80636352211e116100ad578063b88d4fde11610071578063b88d4fde1461032c578063c87b56dd14610348578063d0def52114610378578063d204c45e146103a8578063e985e9c5146103d857610121565b80636352211e1461027657806370a08231146102a657806377a9c7ef146102d657806395d89b41146102f2578063a22cb4651461031057610121565b806318160ddd116100f457806318160ddd146101c057806323b872dd146101de5780632f745c59146101fa57806342842e0e1461022a5780634f6ccce71461024657610121565b806301ffc9a71461012657806306fdde0314610156578063081812fc14610174578063095ea7b3146101a4575b600080fd5b610140600480360381019061013b91906129b6565b610408565b60405161014d91906130bf565b60405180910390f35b61015e6104ea565b60405161016b91906131d6565b60405180910390f35b61018e60048036038101906101899190612a08565b61057c565b60405161019b9190613026565b60405180910390f35b6101be60048036038101906101b9919061297a565b610601565b005b6101c8610719565b6040516101d591906134b8565b60405180910390f35b6101f860048036038101906101f39190612793565b610726565b005b610214600480360381019061020f919061297a565b610786565b60405161022191906134b8565b60405180910390f35b610244600480360381019061023f9190612793565b61082b565b005b610260600480360381019061025b9190612a08565b61084b565b60405161026d91906134b8565b60405180910390f35b610290600480360381019061028b9190612a08565b6108e2565b60405161029d9190613026565b60405180910390f35b6102c060048036038101906102bb919061272e565b610994565b6040516102cd91906134b8565b60405180910390f35b6102f060048036038101906102eb91906128f1565b610a4c565b005b6102fa610bc4565b60405161030791906131d6565b60405180910390f35b61032a6004803603810190610325919061285d565b610c56565b005b610346600480360381019061034191906127e2565b610dd7565b005b610362600480360381019061035d9190612a08565b610e39565b60405161036f91906131d6565b60405180910390f35b610392600480360381019061038d9190612899565b610e4b565b60405161039f91906134b8565b60405180910390f35b6103c260048036038101906103bd9190612899565b610e9e565b6040516103cf91906134b8565b60405180910390f35b6103f260048036038101906103ed9190612757565b610ef1565b6040516103ff91906130bf565b60405180910390f35b60007f80ac58cd000000000000000000000000000000000000000000000000000000007bffffffffffffffffffffffffffffffffffffffffffffffffffffffff1916827bffffffffffffffffffffffffffffffffffffffffffffffffffffffff191614806104d357507f5b5e139f000000000000000000000000000000000000000000000000000000007bffffffffffffffffffffffffffffffffffffffffffffffffffffffff1916827bffffffffffffffffffffffffffffffffffffffffffffffffffffffff1916145b806104e357506104e282610f85565b5b9050919050565b6060600080546104f9906136e3565b80601f0160208091040260200160405190810160405280929190818152602001828054610525906136e3565b80156105725780601f1061054757610100808354040283529160200191610572565b820191906000526020600020905b81548152906001019060200180831161055557829003601f168201915b5050505050905090565b600061058782610fff565b6105c6576040517f08c379a00000000000000000000000000000000000000000000000000000000081526004016105bd906133d8565b60405180910390fd5b6004600083815260200190815260200160002060009054906101000a900473ffffffffffffffffffffffffffffffffffffffff169050919050565b600061060c826108e2565b90508073ffffffffffffffffffffffffffffffffffffffff168373ffffffffffffffffffffffffffffffffffffffff16141561067d576040517f08c379a000000000000000000000000000000000000000000000000000000000815260040161067490613438565b60405180910390fd5b8073ffffffffffffffffffffffffffffffffffffffff1661069c61106b565b73ffffffffffffffffffffffffffffffffffffffff1614806106cb57506106ca816106c561106b565b610ef1565b5b61070a576040517f08c379a000000000000000000000000000000000000000000000000000000000815260040161070190613338565b60405180910390fd5b6107148383611073565b505050565b6000600980549050905090565b61073761073161106b565b8261112c565b610776576040517f08c379a000000000000000000000000000000000000000000000000000000000815260040161076d90613458565b60405180910390fd5b61078183838361120a565b505050565b600061079183610994565b82106107d2576040517f08c379a00000000000000000000000000000000000000000000000000000000081526004016107c990613238565b60405180910390fd5b600760008473ffffffffffffffffffffffffffffffffffffffff1673ffffffffffffffffffffffffffffffffffffffff168152602001908152602001600020600083815260200190815260200160002054905092915050565b61084683838360405180602001604052806000815250610dd7565b505050565b6000610855610719565b8210610896576040517f08c379a000000000000000000000000000000000000000000000000000000000815260040161088d90613478565b60405180910390fd5b600982815481106108d0577f4e487b7100000000000000000000000000000000000000000000000000000000600052603260045260246000fd5b90600052602060002001549050919050565b6000806002600084815260200190815260200160002060009054906101000a900473ffffffffffffffffffffffffffffffffffffffff169050600073ffffffffffffffffffffffffffffffffffffffff168173ffffffffffffffffffffffffffffffffffffffff16141561098b576040517f08c379a000000000000000000000000000000000000000000000000000000000815260040161098290613378565b60405180910390fd5b80915050919050565b60008073ffffffffffffffffffffffffffffffffffffffff168273ffffffffffffffffffffffffffffffffffffffff161415610a05576040517f08c379a00000000000000000000000000000000000000000000000000000000081526004016109fc90613358565b60405180910390fd5b600360008373ffffffffffffffffffffffffffffffffffffffff1673ffffffffffffffffffffffffffffffffffffffff168152602001908152602001600020549050919050565b6000610aa5610a5b8686611466565b84848080601f016020809104026020016040519081016040528093929190818152602001838380828437600081840152601f19601f820116905080830192505050505050506114d8565b90508073ffffffffffffffffffffffffffffffffffffffff163373ffffffffffffffffffffffffffffffffffffffff161480610ae75750610ae68133610ef1565b5b610b26576040517f08c379a0000000000000000000000000000000000000000000000000000000008152600401610b1d90613318565b60405180910390fd5b6000610b33828787610e4b565b9050610b5082888360405180602001604052806000815250611554565b8673ffffffffffffffffffffffffffffffffffffffff168273ffffffffffffffffffffffffffffffffffffffff167fb81d90300775327e5ff9b7e43342852858f8bc3b5dfeb49ba785363e219773dc88888888604051610bb3949392919061319b565b60405180910390a350505050505050565b606060018054610bd3906136e3565b80601f0160208091040260200160405190810160405280929190818152602001828054610bff906136e3565b8015610c4c5780601f10610c2157610100808354040283529160200191610c4c565b820191906000526020600020905b815481529060010190602001808311610c2f57829003601f168201915b5050505050905090565b610c5e61106b565b73ffffffffffffffffffffffffffffffffffffffff168273ffffffffffffffffffffffffffffffffffffffff161415610ccc576040517f08c379a0000000000000000000000000000000000000000000000000000000008152600401610cc3906132b8565b60405180910390fd5b8060056000610cd961106b565b73ffffffffffffffffffffffffffffffffffffffff1673ffffffffffffffffffffffffffffffffffffffff16815260200190815260200160002060008473ffffffffffffffffffffffffffffffffffffffff1673ffffffffffffffffffffffffffffffffffffffff16815260200190815260200160002060006101000a81548160ff0219169083151502179055508173ffffffffffffffffffffffffffffffffffffffff16610d8661106b565b73ffffffffffffffffffffffffffffffffffffffff167f17307eab39ab6107e8899845ad3d59bd9653f200f220920489ca2b5937696c3183604051610dcb91906130bf565b60405180910390a35050565b610de8610de261106b565b8361112c565b610e27576040517f08c379a0000000000000000000000000000000000000000000000000000000008152600401610e1e90613458565b60405180910390fd5b610e3384848484611554565b50505050565b6060610e44826115b0565b9050919050565b600080848484604051602001610e639392919061308d565b6040516020818303038152906040528051906020012060001c9050610e8885826116ed565b610e938185856118bb565b809150509392505050565b600080848484604051602001610eb69392919061308d565b6040516020818303038152906040528051906020012060001c9050610edb858261192b565b610ee68185856118bb565b809150509392505050565b6000600560008473ffffffffffffffffffffffffffffffffffffffff1673ffffffffffffffffffffffffffffffffffffffff16815260200190815260200160002060008373ffffffffffffffffffffffffffffffffffffffff1673ffffffffffffffffffffffffffffffffffffffff16815260200190815260200160002060009054906101000a900460ff16905092915050565b60007f780e9d63000000000000000000000000000000000000000000000000000000007bffffffffffffffffffffffffffffffffffffffffffffffffffffffff1916827bffffffffffffffffffffffffffffffffffffffffffffffffffffffff19161480610ff85750610ff782611949565b5b9050919050565b60008073ffffffffffffffffffffffffffffffffffffffff166002600084815260200190815260200160002060009054906101000a900473ffffffffffffffffffffffffffffffffffffffff1673ffffffffffffffffffffffffffffffffffffffff1614159050919050565b600033905090565b816004600083815260200190815260200160002060006101000a81548173ffffffffffffffffffffffffffffffffffffffff021916908373ffffffffffffffffffffffffffffffffffffffff160217905550808273ffffffffffffffffffffffffffffffffffffffff166110e6836108e2565b73ffffffffffffffffffffffffffffffffffffffff167f8c5be1e5ebec7d5bd14f71427d1e84f3dd0314c0f7b2291e5b200ac8c7c3b92560405160405180910390a45050565b600061113782610fff565b611176576040517f08c379a000000000000000000000000000000000000000000000000000000000815260040161116d906132f8565b60405180910390fd5b6000611181836108e2565b90508073ffffffffffffffffffffffffffffffffffffffff168473ffffffffffffffffffffffffffffffffffffffff1614806111f057508373ffffffffffffffffffffffffffffffffffffffff166111d88461057c565b73ffffffffffffffffffffffffffffffffffffffff16145b8061120157506112008185610ef1565b5b91505092915050565b8273ffffffffffffffffffffffffffffffffffffffff1661122a826108e2565b73ffffffffffffffffffffffffffffffffffffffff1614611280576040517f08c379a0000000000000000000000000000000000000000000000000000000008152600401611277906133f8565b60405180910390fd5b600073ffffffffffffffffffffffffffffffffffffffff168273ffffffffffffffffffffffffffffffffffffffff1614156112f0576040517f08c379a00000000000000000000000000000000000000000000000000000000081526004016112e790613298565b60405180910390fd5b6112fb838383611a2b565b611306600082611073565b6001600360008573ffffffffffffffffffffffffffffffffffffffff1673ffffffffffffffffffffffffffffffffffffffff168152602001908152602001600020600082825461135691906135e2565b925050819055506001600360008473ffffffffffffffffffffffffffffffffffffffff1673ffffffffffffffffffffffffffffffffffffffff16815260200190815260200160002060008282546113ad919061358c565b92505081905550816002600083815260200190815260200160002060006101000a81548173ffffffffffffffffffffffffffffffffffffffff021916908373ffffffffffffffffffffffffffffffffffffffff160217905550808273ffffffffffffffffffffffffffffffffffffffff168473ffffffffffffffffffffffffffffffffffffffff167fddf252ad1be2c89b69c2b068fc378daa952ba7f163c4a11628f55a4df523b3ef60405160405180910390a4505050565b60006114d07fa6b58c98ea4cc2264b50f22158f7630dd0e4b1d5e79193ec25dcf39653dda06f848460405161149c929190612f8a565b60405180910390206040516020016114b59291906130da565b60405160208183030381529060405280519060200120611a3b565b905092915050565b6000806040518060400160405280601c81526020017f19457468657265756d205369676e6564204d6573736167653a0a333200000000815250905060008185604051602001611528929190612fa3565b60405160208183030381529060405280519060200120905061154a8185611a55565b9250505092915050565b61155f84848461120a565b61156b84848484611b1f565b6115aa576040517f08c379a00000000000000000000000000000000000000000000000000000000081526004016115a190613258565b60405180910390fd5b50505050565b60606115bb82610fff565b6115fa576040517f08c379a00000000000000000000000000000000000000000000000000000000081526004016115f190613418565b60405180910390fd5b6000611604611cb6565b905060008151116116b05760066000848152602001908152602001600020805461162d906136e3565b80601f0160208091040260200160405190810160405280929190818152602001828054611659906136e3565b80156116a65780601f1061167b576101008083540402835291602001916116a6565b820191906000526020600020905b81548152906001019060200180831161168957829003601f168201915b50505050506116e5565b80600660008581526020019081526020016000206040516020016116d5929190612fcb565b6040516020818303038152906040525b915050919050565b600073ffffffffffffffffffffffffffffffffffffffff168273ffffffffffffffffffffffffffffffffffffffff16141561175d576040517f08c379a0000000000000000000000000000000000000000000000000000000008152600401611754906133b8565b60405180910390fd5b61176681610fff565b156117a6576040517f08c379a000000000000000000000000000000000000000000000000000000000815260040161179d90613278565b60405180910390fd5b6117b260008383611a2b565b6001600360008473ffffffffffffffffffffffffffffffffffffffff1673ffffffffffffffffffffffffffffffffffffffff1681526020019081526020016000206000828254611802919061358c565b92505081905550816002600083815260200190815260200160002060006101000a81548173ffffffffffffffffffffffffffffffffffffffff021916908373ffffffffffffffffffffffffffffffffffffffff160217905550808273ffffffffffffffffffffffffffffffffffffffff16600073ffffffffffffffffffffffffffffffffffffffff167fddf252ad1be2c89b69c2b068fc378daa952ba7f163c4a11628f55a4df523b3ef60405160405180910390a45050565b6118c483610fff565b611903576040517f08c379a00000000000000000000000000000000000000000000000000000000081526004016118fa90613498565b60405180910390fd5b8181600660008681526020019081526020016000209190611925929190612526565b50505050565b611945828260405180602001604052806000815250611cc5565b5050565b60007f80ac58cd000000000000000000000000000000000000000000000000000000007bffffffffffffffffffffffffffffffffffffffffffffffffffffffff1916827bffffffffffffffffffffffffffffffffffffffffffffffffffffffff19161480611a1457507f5b5e139f000000000000000000000000000000000000000000000000000000007bffffffffffffffffffffffffffffffffffffffffffffffffffffffff1916827bffffffffffffffffffffffffffffffffffffffffffffffffffffffff1916145b80611a245750611a2382611d20565b5b9050919050565b611a36838383611d8a565b505050565b6000611a4e611a48611e9e565b83611f61565b9050919050565b600080600080604185511415611a82576020850151925060408501519150606085015160001a9050611b08565b604085511415611acc576040850151602086015193507f7fffffffffffffffffffffffffffffffffffffffffffffffffffffffffffffff81169250601b8160ff1c01915050611b07565b6040517f08c379a0000000000000000000000000000000000000000000000000000000008152600401611afe90613218565b60405180910390fd5b5b611b1486828585611f94565b935050505092915050565b6000611b408473ffffffffffffffffffffffffffffffffffffffff1661211f565b15611ca9578373ffffffffffffffffffffffffffffffffffffffff1663150b7a02611b6961106b565b8786866040518563ffffffff1660e01b8152600401611b8b9493929190613041565b602060405180830381600087803b158015611ba557600080fd5b505af1925050508015611bd657506040513d601f19601f82011682018060405250810190611bd391906129df565b60015b611c59573d8060008114611c06576040519150601f19603f3d011682016040523d82523d6000602084013e611c0b565b606091505b50600081511415611c51576040517f08c379a0000000000000000000000000000000000000000000000000000000008152600401611c4890613258565b60405180910390fd5b805181602001fd5b63150b7a0260e01b7bffffffffffffffffffffffffffffffffffffffffffffffffffffffff1916817bffffffffffffffffffffffffffffffffffffffffffffffffffffffff191614915050611cae565b600190505b949350505050565b6060611cc0612132565b905090565b611ccf83836116ed565b611cdc6000848484611b1f565b611d1b576040517f08c379a0000000000000000000000000000000000000000000000000000000008152600401611d1290613258565b60405180910390fd5b505050565b60007f01ffc9a7000000000000000000000000000000000000000000000000000000007bffffffffffffffffffffffffffffffffffffffffffffffffffffffff1916827bffffffffffffffffffffffffffffffffffffffffffffffffffffffff1916149050919050565b611d9583838361216f565b600073ffffffffffffffffffffffffffffffffffffffff168373ffffffffffffffffffffffffffffffffffffffff161415611dd857611dd381612174565b611e17565b8173ffffffffffffffffffffffffffffffffffffffff168373ffffffffffffffffffffffffffffffffffffffff1614611e1657611e1583826121bd565b5b5b600073ffffffffffffffffffffffffffffffffffffffff168273ffffffffffffffffffffffffffffffffffffffff161415611e5a57611e558161232a565b611e99565b8273ffffffffffffffffffffffffffffffffffffffff168273ffffffffffffffffffffffffffffffffffffffff1614611e9857611e97828261246d565b5b5b505050565b60007f0000000000000000000000000000000000000000000000000000000000000000461415611ef0577f00000000000000000000000000000000000000000000000000000000000000009050611f5e565b611f5b7f00000000000000000000000000000000000000000000000000000000000000007f00000000000000000000000000000000000000000000000000000000000000007f00000000000000000000000000000000000000000000000000000000000000006124ec565b90505b90565b60008282604051602001611f76929190612fef565b60405160208183030381529060405280519060200120905092915050565b60007f7fffffffffffffffffffffffffffffff5d576e7357a4501ddfe92f46681b20a08260001c1115611ffc576040517f08c379a0000000000000000000000000000000000000000000000000000000008152600401611ff3906132d8565b60405180910390fd5b601b8460ff1614806120115750601c8460ff16145b612050576040517f08c379a000000000000000000000000000000000000000000000000000000000815260040161204790613398565b60405180910390fd5b6000600186868686604051600081526020016040526040516120759493929190613156565b6020604051602081039080840390855afa158015612097573d6000803e3d6000fd5b505050602060405103519050600073ffffffffffffffffffffffffffffffffffffffff168173ffffffffffffffffffffffffffffffffffffffff161415612113576040517f08c379a000000000000000000000000000000000000000000000000000000000815260040161210a906131f8565b60405180910390fd5b80915050949350505050565b600080823b905060008111915050919050565b60606040518060400160405280600781526020017f697066733a2f2f00000000000000000000000000000000000000000000000000815250905090565b505050565b600980549050600a600083815260200190815260200160002081905550600981908060018154018082558091505060019003906000526020600020016000909190919091505550565b600060016121ca84610994565b6121d491906135e2565b90506000600860008481526020019081526020016000205490508181146122b9576000600760008673ffffffffffffffffffffffffffffffffffffffff1673ffffffffffffffffffffffffffffffffffffffff168152602001908152602001600020600084815260200190815260200160002054905080600760008773ffffffffffffffffffffffffffffffffffffffff1673ffffffffffffffffffffffffffffffffffffffff168152602001908152602001600020600084815260200190815260200160002081905550816008600083815260200190815260200160002081905550505b6008600084815260200190815260200160002060009055600760008573ffffffffffffffffffffffffffffffffffffffff1673ffffffffffffffffffffffffffffffffffffffff16815260200190815260200160002060008381526020019081526020016000206000905550505050565b6000600160098054905061233e91906135e2565b90506000600a6000848152602001908152602001600020549050600060098381548110612394577f4e487b7100000000000000000000000000000000000000000000000000000000600052603260045260246000fd5b9060005260206000200154905080600983815481106123dc577f4e487b7100000000000000000000000000000000000000000000000000000000600052603260045260246000fd5b906000526020600020018190555081600a600083815260200190815260200160002081905550600a6000858152602001908152602001600020600090556009805480612451577f4e487b7100000000000000000000000000000000000000000000000000000000600052603160045260246000fd5b6001900381819060005260206000200160009055905550505050565b600061247883610994565b905081600760008573ffffffffffffffffffffffffffffffffffffffff1673ffffffffffffffffffffffffffffffffffffffff168152602001908152602001600020600083815260200190815260200160002081905550806008600084815260200190815260200160002081905550505050565b60008383834630604051602001612507959493929190613103565b6040516020818303038152906040528051906020012090509392505050565b828054612532906136e3565b90600052602060002090601f016020900481019282612554576000855561259b565b82601f1061256d57803560ff191683800117855561259b565b8280016001018555821561259b579182015b8281111561259a57823582559160200191906001019061257f565b5b5090506125a891906125ac565b5090565b5b808211156125c55760008160009055506001016125ad565b5090565b60006125dc6125d7846134f8565b6134d3565b9050828152602081018484840111156125f457600080fd5b6125ff8482856136a1565b509392505050565b60008135905061261681613dd7565b92915050565b60008135905061262b81613dee565b92915050565b60008135905061264081613e05565b92915050565b60008151905061265581613e05565b92915050565b60008083601f84011261266d57600080fd5b8235905067ffffffffffffffff81111561268657600080fd5b60208301915083600182028301111561269e57600080fd5b9250929050565b600082601f8301126126b657600080fd5b81356126c68482602086016125c9565b91505092915050565b60008083601f8401126126e157600080fd5b8235905067ffffffffffffffff8111156126fa57600080fd5b60208301915083600182028301111561271257600080fd5b9250929050565b60008135905061272881613e1c565b92915050565b60006020828403121561274057600080fd5b600061274e84828501612607565b91505092915050565b6000806040838503121561276a57600080fd5b600061277885828601612607565b925050602061278985828601612607565b9150509250929050565b6000806000606084860312156127a857600080fd5b60006127b686828701612607565b93505060206127c786828701612607565b92505060406127d886828701612719565b9150509250925092565b600080600080608085870312156127f857600080fd5b600061280687828801612607565b945050602061281787828801612607565b935050604061282887828801612719565b925050606085013567ffffffffffffffff81111561284557600080fd5b612851878288016126a5565b91505092959194509250565b6000806040838503121561287057600080fd5b600061287e85828601612607565b925050602061288f8582860161261c565b9150509250929050565b6000806000604084860312156128ae57600080fd5b60006128bc86828701612607565b935050602084013567ffffffffffffffff8111156128d957600080fd5b6128e5868287016126cf565b92509250509250925092565b60008060008060006060868803121561290957600080fd5b600061291788828901612607565b955050602086013567ffffffffffffffff81111561293457600080fd5b612940888289016126cf565b9450945050604086013567ffffffffffffffff81111561295f57600080fd5b61296b8882890161265b565b92509250509295509295909350565b6000806040838503121561298d57600080fd5b600061299b85828601612607565b92505060206129ac85828601612719565b9150509250929050565b6000602082840312156129c857600080fd5b60006129d684828501612631565b91505092915050565b6000602082840312156129f157600080fd5b60006129ff84828501612646565b91505092915050565b600060208284031215612a1a57600080fd5b6000612a2884828501612719565b91505092915050565b612a3a81613616565b82525050565b612a4981613628565b82525050565b612a5881613634565b82525050565b612a6f612a6a82613634565b613746565b82525050565b6000612a818385613554565b9350612a8e8385846136a1565b612a97836137dd565b840190509392505050565b6000612aae8385613565565b9350612abb8385846136a1565b82840190509392505050565b6000612ad28261353e565b612adc8185613554565b9350612aec8185602086016136b0565b612af5816137dd565b840191505092915050565b6000612b0b8261353e565b612b158185613565565b9350612b258185602086016136b0565b80840191505092915050565b6000612b3d8385613570565b9350612b4a8385846136a1565b612b53836137dd565b840190509392505050565b6000612b6982613549565b612b738185613570565b9350612b838185602086016136b0565b612b8c816137dd565b840191505092915050565b6000612ba282613549565b612bac8185613581565b9350612bbc8185602086016136b0565b80840191505092915050565b60008154612bd5816136e3565b612bdf8186613581565b94506001821660008114612bfa5760018114612c0b57612c3e565b60ff19831686528186019350612c3e565b612c1485613529565b60005b83811015612c3657815481890152600182019150602081019050612c17565b838801955050505b50505092915050565b6000612c54601883613570565b9150612c5f826137ee565b602082019050919050565b6000612c77601f83613570565b9150612c8282613817565b602082019050919050565b6000612c9a602b83613570565b9150612ca582613840565b604082019050919050565b6000612cbd603283613570565b9150612cc88261388f565b604082019050919050565b6000612ce0601c83613570565b9150612ceb826138de565b602082019050919050565b6000612d03600283613581565b9150612d0e82613907565b600282019050919050565b6000612d26602483613570565b9150612d3182613930565b604082019050919050565b6000612d49601983613570565b9150612d548261397f565b602082019050919050565b6000612d6c602283613570565b9150612d77826139a8565b604082019050919050565b6000612d8f602c83613570565b9150612d9a826139f7565b604082019050919050565b6000612db2601983613570565b9150612dbd82613a46565b602082019050919050565b6000612dd5603883613570565b9150612de082613a6f565b604082019050919050565b6000612df8602a83613570565b9150612e0382613abe565b604082019050919050565b6000612e1b602983613570565b9150612e2682613b0d565b604082019050919050565b6000612e3e602283613570565b9150612e4982613b5c565b604082019050919050565b6000612e61602083613570565b9150612e6c82613bab565b602082019050919050565b6000612e84602c83613570565b9150612e8f82613bd4565b604082019050919050565b6000612ea7602983613570565b9150612eb282613c23565b604082019050919050565b6000612eca602f83613570565b9150612ed582613c72565b604082019050919050565b6000612eed602183613570565b9150612ef882613cc1565b604082019050919050565b6000612f10603183613570565b9150612f1b82613d10565b604082019050919050565b6000612f33602c83613570565b9150612f3e82613d5f565b604082019050919050565b6000612f56601483613570565b9150612f6182613dae565b602082019050919050565b612f758161368a565b82525050565b612f8481613694565b82525050565b6000612f97828486612aa2565b91508190509392505050565b6000612faf8285612b00565b9150612fbb8284612a5e565b6020820191508190509392505050565b6000612fd78285612b97565b9150612fe38284612bc8565b91508190509392505050565b6000612ffa82612cf6565b91506130068285612a5e565b6020820191506130168284612a5e565b6020820191508190509392505050565b600060208201905061303b6000830184612a31565b92915050565b60006080820190506130566000830187612a31565b6130636020830186612a31565b6130706040830185612f6c565b81810360608301526130828184612ac7565b905095945050505050565b60006040820190506130a26000830186612a31565b81810360208301526130b5818486612b31565b9050949350505050565b60006020820190506130d46000830184612a40565b92915050565b60006040820190506130ef6000830185612a4f565b6130fc6020830184612a4f565b9392505050565b600060a0820190506131186000830188612a4f565b6131256020830187612a4f565b6131326040830186612a4f565b61313f6060830185612f6c565b61314c6080830184612a31565b9695505050505050565b600060808201905061316b6000830187612a4f565b6131786020830186612f7b565b6131856040830185612a4f565b6131926060830184612a4f565b95945050505050565b600060408201905081810360008301526131b6818688612b31565b905081810360208301526131cb818486612a75565b905095945050505050565b600060208201905081810360008301526131f08184612b5e565b905092915050565b6000602082019050818103600083015261321181612c47565b9050919050565b6000602082019050818103600083015261323181612c6a565b9050919050565b6000602082019050818103600083015261325181612c8d565b9050919050565b6000602082019050818103600083015261327181612cb0565b9050919050565b6000602082019050818103600083015261329181612cd3565b9050919050565b600060208201905081810360008301526132b181612d19565b9050919050565b600060208201905081810360008301526132d181612d3c565b9050919050565b600060208201905081810360008301526132f181612d5f565b9050919050565b6000602082019050818103600083015261331181612d82565b9050919050565b6000602082019050818103600083015261333181612da5565b9050919050565b6000602082019050818103600083015261335181612dc8565b9050919050565b6000602082019050818103600083015261337181612deb565b9050919050565b6000602082019050818103600083015261339181612e0e565b9050919050565b600060208201905081810360008301526133b181612e31565b9050919050565b600060208201905081810360008301526133d181612e54565b9050919050565b600060208201905081810360008301526133f181612e77565b9050919050565b6000602082019050818103600083015261341181612e9a565b9050919050565b6000602082019050818103600083015261343181612ebd565b9050919050565b6000602082019050818103600083015261345181612ee0565b9050919050565b6000602082019050818103600083015261347181612f03565b9050919050565b6000602082019050818103600083015261349181612f26565b9050919050565b600060208201905081810360008301526134b181612f49565b9050919050565b60006020820190506134cd6000830184612f6c565b92915050565b60006134dd6134ee565b90506134e98282613715565b919050565b6000604051905090565b600067ffffffffffffffff821115613513576135126137ae565b5b61351c826137dd565b9050602081019050919050565b60008190508160005260206000209050919050565b600081519050919050565b600081519050919050565b600082825260208201905092915050565b600081905092915050565b600082825260208201905092915050565b600081905092915050565b60006135978261368a565b91506135a28361368a565b9250827fffffffffffffffffffffffffffffffffffffffffffffffffffffffffffffffff038211156135d7576135d6613750565b5b828201905092915050565b60006135ed8261368a565b91506135f88361368a565b92508282101561360b5761360a613750565b5b828203905092915050565b60006136218261366a565b9050919050565b60008115159050919050565b6000819050919050565b60007fffffffff0000000000000000000000000000000000000000000000000000000082169050919050565b600073ffffffffffffffffffffffffffffffffffffffff82169050919050565b6000819050919050565b600060ff82169050919050565b82818337600083830152505050565b60005b838110156136ce5780820151818401526020810190506136b3565b838111156136dd576000848401525b50505050565b600060028204905060018216806136fb57607f821691505b6020821081141561370f5761370e61377f565b5b50919050565b61371e826137dd565b810181811067ffffffffffffffff8211171561373d5761373c6137ae565b5b80604052505050565b6000819050919050565b7f4e487b7100000000000000000000000000000000000000000000000000000000600052601160045260246000fd5b7f4e487b7100000000000000000000000000000000000000000000000000000000600052602260045260246000fd5b7f4e487b7100000000000000000000000000000000000000000000000000000000600052604160045260246000fd5b6000601f19601f8301169050919050565b7f45434453413a20696e76616c6964207369676e61747572650000000000000000600082015250565b7f45434453413a20696e76616c6964207369676e6174757265206c656e67746800600082015250565b7f455243373231456e756d657261626c653a206f776e657220696e646578206f7560008201527f74206f6620626f756e6473000000000000000000000000000000000000000000602082015250565b7f4552433732313a207472616e7366657220746f206e6f6e20455243373231526560008201527f63656976657220696d706c656d656e7465720000000000000000000000000000602082015250565b7f4552433732313a20746f6b656e20616c7265616479206d696e74656400000000600082015250565b7f1901000000000000000000000000000000000000000000000000000000000000600082015250565b7f4552433732313a207472616e7366657220746f20746865207a65726f2061646460008201527f7265737300000000000000000000000000000000000000000000000000000000602082015250565b7f4552433732313a20617070726f766520746f2063616c6c657200000000000000600082015250565b7f45434453413a20696e76616c6964207369676e6174757265202773272076616c60008201527f7565000000000000000000000000000000000000000000000000000000000000602082015250565b7f4552433732313a206f70657261746f7220717565727920666f72206e6f6e657860008201527f697374656e7420746f6b656e0000000000000000000000000000000000000000602082015250565b7f4d5553545f42455f4f574e45525f4f525f415050524f56454400000000000000600082015250565b7f4552433732313a20617070726f76652063616c6c6572206973206e6f74206f7760008201527f6e6572206e6f7220617070726f76656420666f7220616c6c0000000000000000602082015250565b7f4552433732313a2062616c616e636520717565727920666f7220746865207a6560008201527f726f206164647265737300000000000000000000000000000000000000000000602082015250565b7f4552433732313a206f776e657220717565727920666f72206e6f6e657869737460008201527f656e7420746f6b656e0000000000000000000000000000000000000000000000602082015250565b7f45434453413a20696e76616c6964207369676e6174757265202776272076616c60008201527f7565000000000000000000000000000000000000000000000000000000000000602082015250565b7f4552433732313a206d696e7420746f20746865207a65726f2061646472657373600082015250565b7f4552433732313a20617070726f76656420717565727920666f72206e6f6e657860008201527f697374656e7420746f6b656e0000000000000000000000000000000000000000602082015250565b7f4552433732313a207472616e73666572206f6620746f6b656e2074686174206960008201527f73206e6f74206f776e0000000000000000000000000000000000000000000000602082015250565b7f4552433732314d657461646174613a2055524920717565727920666f72206e6f60008201527f6e6578697374656e7420746f6b656e0000000000000000000000000000000000602082015250565b7f4552433732313a20617070726f76616c20746f2063757272656e74206f776e6560008201527f7200000000000000000000000000000000000000000000000000000000000000602082015250565b7f4552433732313a207472616e736665722063616c6c6572206973206e6f74206f60008201527f776e6572206e6f7220617070726f766564000000000000000000000000000000602082015250565b7f455243373231456e756d657261626c653a20676c6f62616c20696e646578206f60008201527f7574206f6620626f756e64730000000000000000000000000000000000000000602082015250565b7f544f4b454e5f49445f4e4f545f45584953544544000000000000000000000000600082015250565b613de081613616565b8114613deb57600080fd5b50565b613df781613628565b8114613e0257600080fd5b50565b613e0e8161363e565b8114613e1957600080fd5b50565b613e258161368a565b8114613e3057600080fd5b5056fea26469706673582212207f8fbeb94fa8704bcf791ab4eac887628557f42be35078b76f3e6d27ebff53d564736f6c63430008040033",
  "immutableReferences": {
    "3853": [
      {
        "length": 32,
        "start": 7882
      }
    ],
    "3855": [
      {
        "length": 32,
        "start": 7842
      }
    ],
    "3857": [
      {
        "length": 32,
        "start": 7958
      }
    ],
    "3859": [
      {
        "length": 32,
        "start": 7991
      }
    ],
    "3861": [
      {
        "length": 32,
        "start": 7925
      }
    ]
  },
  "source": "// SPDX-License-Identifier: UNLICENSED\n\npragma solidity 0.8.4;\n\nimport \"./lib/access/AccessControl.sol\";\nimport \"./lib/utils/cryptography/ECDSA.sol\";\nimport \"./lib/utils/cryptography/draft-EIP712.sol\";\nimport \"./TaureumERC721Enumerable.sol\";\n\ncontract TaureumERC721LazyMint is TaureumERC721Enumerable, EIP712 {\n    string private constant SIGNING_DOMAIN = \"TaureumNFT\";\n    string private constant SIGNATURE_VERSION = \"1\";\n\n    /**\n     * @dev Emitted when a pending token is redeemed in the lazy-minting protocol.\n     */\n    event Redeem(\n        address indexed minter,\n        address indexed redeemer,\n        string uri,\n        bytes signature);\n\n    /**\n     * @dev Create a new TaureumNFTLazyMint contract and and assign `DEFAULT_ADMIN_ROLE, MINTER_ROLE` for the creator.\n     * This construction function should be called from an exchange.\n     *\n     */\n    constructor() TaureumERC721Enumerable() EIP712(SIGNING_DOMAIN, SIGNATURE_VERSION)\n    {}\n\n    /**\n     * @dev Implement a lazy minting mechanism in which the NFT-minting process is delayed until the first order is successful.\n     * This function should be handled by a smart contract which is allowed by the `minter`.\n     * @notice It throws if\n     *      - `msg.sender` is not the `minter` or has not been approved by the `minter`.\n     *      - redeem data and signature are not valid.\n     *      - if the redeemer is a contract and it cannot receive the NFT.\n     * @param redeemer The address that the minted NFT will be transferred to.\n     * @param uri The URI consists of metadata description of the minting NFT on the IPFS (without prefix).\n     * @param signature The signature signed by `to` designating `msg.sender` to mint the NFT for it.\n     */\n    function redeem(address redeemer, string calldata uri, bytes calldata signature)\n    external\n    {\n        address minter = _verify(_hash(uri), signature);\n        require(msg.sender == minter || isApprovedForAll(minter, msg.sender), \"MUST_BE_OWNER_OR_APPROVED\");\n\n        // mint the token to the signer\n        uint256 id = mint(minter, uri);\n\n        // transfer the minted token to the redeemer\n        _safeTransfer(minter, redeemer, id, \"\");\n\n        emit Redeem(minter, redeemer, uri, signature);\n    }\n\n    /// @notice Returns a hash of the given PendingNFT, prepared using EIP712 typed data hashing rules.\n    function _hash(string calldata uri)\n    internal view returns (bytes32)\n    {\n        return _hashTypedDataV4(keccak256(abi.encode(\n                keccak256(\"TaureumNFT(string uri)\"),\n                keccak256(bytes(uri))\n            )));\n    }\n\n    /**\n     * @dev Returns the signer for a pair of digested message and signature.\n     */\n    function _verify(bytes32 digest, bytes memory signature)\n    internal pure returns (address)\n    {\n        bytes memory prefix = \"\\x19Ethereum Signed Message:\\n32\";\n        bytes32 prefixedHash = keccak256(abi.encodePacked(prefix, digest));\n        return ECDSA.recover(prefixedHash, signature);\n    }\n}\n",
  "sourcePath": "/home/toor/nodejs/truffle/nft_demo/taudefi/taudefi-nft/contracts/TaureumERC721LazyMint.sol",
  "compiler": {
    "name": "solc",
    "version": "0.8.4+commit.c7e474f2.Emscripten.clang"
  },
  "schemaVersion": "3.4.1",
  "updatedAt": "2021-07-27T03:39:20.783Z",
  "devdoc": {
    "events": {
      "Redeem(address,address,string,bytes)": {
        "details": "Emitted when a pending token is redeemed in the lazy-minting protocol."
      }
    },
    "kind": "dev",
    "methods": {
      "approve(address,uint256)": {
        "details": "See {IERC721-approve}."
      },
      "balanceOf(address)": {
        "details": "See {IERC721-balanceOf}."
      },
      "constructor": {
        "details": "Create a new TaureumNFTLazyMint contract and and assign `DEFAULT_ADMIN_ROLE, MINTER_ROLE` for the creator. This construction function should be called from an exchange."
      },
      "getApproved(uint256)": {
        "details": "See {IERC721-getApproved}."
      },
      "isApprovedForAll(address,address)": {
        "details": "See {IERC721-isApprovedForAll}."
      },
      "mint(address,string)": {
        "details": "Mint a new NFT.",
        "params": {
          "to": "The address that will own the minted NFT.",
          "uri": "The URI consists of metadata description of the minting NFT on the IPFS (without prefix)."
        }
      },
      "name()": {
        "details": "See {IERC721Metadata-name}."
      },
      "ownerOf(uint256)": {
        "details": "See {IERC721-ownerOf}."
      },
      "redeem(address,string,bytes)": {
        "details": "Implement a lazy minting mechanism in which the NFT-minting process is delayed until the first order is successful. This function should be handled by a smart contract which is allowed by the `minter`.",
        "params": {
          "redeemer": "The address that the minted NFT will be transferred to.",
          "signature": "The signature signed by `to` designating `msg.sender` to mint the NFT for it.",
          "uri": "The URI consists of metadata description of the minting NFT on the IPFS (without prefix)."
        }
      },
      "safeMint(address,string)": {
        "details": "Safely mint a new NFT.",
        "params": {
          "to": "The address that will own the minted NFT.",
          "uri": "The URI consists of metadata description of the minting NFT on the IPFS (without prefix)."
        }
      },
      "safeTransferFrom(address,address,uint256)": {
        "details": "See {IERC721-safeTransferFrom}."
      },
      "safeTransferFrom(address,address,uint256,bytes)": {
        "details": "See {IERC721-safeTransferFrom}."
      },
      "setApprovalForAll(address,bool)": {
        "details": "See {IERC721-setApprovalForAll}."
      },
      "supportsInterface(bytes4)": {
        "details": "See {IERC165-supportsInterface}."
      },
      "symbol()": {
        "details": "See {IERC721Metadata-symbol}."
      },
      "tokenByIndex(uint256)": {
        "details": "See {IERC721Enumerable-tokenByIndex}."
      },
      "tokenOfOwnerByIndex(address,uint256)": {
        "details": "See {IERC721Enumerable-tokenOfOwnerByIndex}."
      },
      "tokenURI(uint256)": {
        "details": "See {IERC721Metadata-tokenURI}."
      },
      "totalSupply()": {
        "details": "See {IERC721Enumerable-totalSupply}."
      },
      "transferFrom(address,address,uint256)": {
        "details": "See {IERC721-transferFrom}."
      }
    },
    "version": 1
  },
  "userdoc": {
    "kind": "user",
    "methods": {
      "mint(address,string)": {
        "notice": "It throws an exception if    - `to` is a \"ZERO_ADDRESS."
      },
      "redeem(address,string,bytes)": {
        "notice": "It throws if      - `msg.sender` is not the `minter` or has not been approved by the `minter`.      - redeem data and signature are not valid.      - if the redeemer is a contract and it cannot receive the NFT."
      },
      "safeMint(address,string)": {
        "notice": "It throws an exception if    - `to` is a \"ZERO_ADDRESS.    - If `to` refers to a smart contract, it must implement {IERC721Receiver-onERC721Received}, which is called upon a safe transfer."
      }
    },
    "version": 1
  }
}