{
  "contractName": "TaureumERC1155",
  "abi": [
    {
      "inputs": [
        {
          "internalType": "string",
          "name": "uri_",
          "type": "string"
        }
      ],
      "stateMutability": "nonpayable",
      "type": "constructor"
    },
    {
      "anonymous": false,
      "inputs": [
        {
          "indexed": true,
          "internalType": "address",
          "name": "account",
          "type": "address"
        },
        {
          "indexed": true,
          "internalType": "address",
          "name": "operator",
          "type": "address"
        },
        {
          "indexed": false,
          "internalType": "bool",
          "name": "approved",
          "type": "bool"
        }
      ],
      "name": "ApprovalForAll",
      "type": "event"
    },
    {
      "anonymous": false,
      "inputs": [
        {
          "indexed": true,
          "internalType": "address",
          "name": "previousOwner",
          "type": "address"
        },
        {
          "indexed": true,
          "internalType": "address",
          "name": "newOwner",
          "type": "address"
        }
      ],
      "name": "OwnershipTransferred",
      "type": "event"
    },
    {
      "anonymous": false,
      "inputs": [
        {
          "indexed": true,
          "internalType": "address",
          "name": "operator",
          "type": "address"
        },
        {
          "indexed": true,
          "internalType": "address",
          "name": "from",
          "type": "address"
        },
        {
          "indexed": true,
          "internalType": "address",
          "name": "to",
          "type": "address"
        },
        {
          "indexed": false,
          "internalType": "uint256[]",
          "name": "ids",
          "type": "uint256[]"
        },
        {
          "indexed": false,
          "internalType": "uint256[]",
          "name": "values",
          "type": "uint256[]"
        }
      ],
      "name": "TransferBatch",
      "type": "event"
    },
    {
      "anonymous": false,
      "inputs": [
        {
          "indexed": true,
          "internalType": "address",
          "name": "operator",
          "type": "address"
        },
        {
          "indexed": true,
          "internalType": "address",
          "name": "from",
          "type": "address"
        },
        {
          "indexed": true,
          "internalType": "address",
          "name": "to",
          "type": "address"
        },
        {
          "indexed": false,
          "internalType": "uint256",
          "name": "id",
          "type": "uint256"
        },
        {
          "indexed": false,
          "internalType": "uint256",
          "name": "value",
          "type": "uint256"
        }
      ],
      "name": "TransferSingle",
      "type": "event"
    },
    {
      "anonymous": false,
      "inputs": [
        {
          "indexed": false,
          "internalType": "string",
          "name": "value",
          "type": "string"
        },
        {
          "indexed": true,
          "internalType": "uint256",
          "name": "id",
          "type": "uint256"
        }
      ],
      "name": "URI",
      "type": "event"
    },
    {
      "inputs": [
        {
          "internalType": "address",
          "name": "account",
          "type": "address"
        },
        {
          "internalType": "uint256",
          "name": "id",
          "type": "uint256"
        }
      ],
      "name": "balanceOf",
      "outputs": [
        {
          "internalType": "uint256",
          "name": "",
          "type": "uint256"
        }
      ],
      "stateMutability": "view",
      "type": "function"
    },
    {
      "inputs": [
        {
          "internalType": "address[]",
          "name": "accounts",
          "type": "address[]"
        },
        {
          "internalType": "uint256[]",
          "name": "ids",
          "type": "uint256[]"
        }
      ],
      "name": "balanceOfBatch",
      "outputs": [
        {
          "internalType": "uint256[]",
          "name": "",
          "type": "uint256[]"
        }
      ],
      "stateMutability": "view",
      "type": "function"
    },
    {
      "inputs": [
        {
          "internalType": "uint256",
          "name": "id",
          "type": "uint256"
        }
      ],
      "name": "exists",
      "outputs": [
        {
          "internalType": "bool",
          "name": "",
          "type": "bool"
        }
      ],
      "stateMutability": "view",
      "type": "function"
    },
    {
      "inputs": [
        {
          "internalType": "address",
          "name": "account",
          "type": "address"
        },
        {
          "internalType": "address",
          "name": "operator",
          "type": "address"
        }
      ],
      "name": "isApprovedForAll",
      "outputs": [
        {
          "internalType": "bool",
          "name": "",
          "type": "bool"
        }
      ],
      "stateMutability": "view",
      "type": "function"
    },
    {
      "inputs": [],
      "name": "owner",
      "outputs": [
        {
          "internalType": "address",
          "name": "",
          "type": "address"
        }
      ],
      "stateMutability": "view",
      "type": "function"
    },
    {
      "inputs": [],
      "name": "renounceOwnership",
      "outputs": [],
      "stateMutability": "nonpayable",
      "type": "function"
    },
    {
      "inputs": [
        {
          "internalType": "address",
          "name": "from",
          "type": "address"
        },
        {
          "internalType": "address",
          "name": "to",
          "type": "address"
        },
        {
          "internalType": "uint256[]",
          "name": "ids",
          "type": "uint256[]"
        },
        {
          "internalType": "uint256[]",
          "name": "amounts",
          "type": "uint256[]"
        },
        {
          "internalType": "bytes",
          "name": "data",
          "type": "bytes"
        }
      ],
      "name": "safeBatchTransferFrom",
      "outputs": [],
      "stateMutability": "nonpayable",
      "type": "function"
    },
    {
      "inputs": [
        {
          "internalType": "address",
          "name": "from",
          "type": "address"
        },
        {
          "internalType": "address",
          "name": "to",
          "type": "address"
        },
        {
          "internalType": "uint256",
          "name": "id",
          "type": "uint256"
        },
        {
          "internalType": "uint256",
          "name": "amount",
          "type": "uint256"
        },
        {
          "internalType": "bytes",
          "name": "data",
          "type": "bytes"
        }
      ],
      "name": "safeTransferFrom",
      "outputs": [],
      "stateMutability": "nonpayable",
      "type": "function"
    },
    {
      "inputs": [
        {
          "internalType": "address",
          "name": "operator",
          "type": "address"
        },
        {
          "internalType": "bool",
          "name": "approved",
          "type": "bool"
        }
      ],
      "name": "setApprovalForAll",
      "outputs": [],
      "stateMutability": "nonpayable",
      "type": "function"
    },
    {
      "inputs": [
        {
          "internalType": "bytes4",
          "name": "interfaceId",
          "type": "bytes4"
        }
      ],
      "name": "supportsInterface",
      "outputs": [
        {
          "internalType": "bool",
          "name": "",
          "type": "bool"
        }
      ],
      "stateMutability": "view",
      "type": "function"
    },
    {
      "inputs": [
        {
          "internalType": "uint256",
          "name": "id",
          "type": "uint256"
        }
      ],
      "name": "totalSupply",
      "outputs": [
        {
          "internalType": "uint256",
          "name": "",
          "type": "uint256"
        }
      ],
      "stateMutability": "view",
      "type": "function"
    },
    {
      "inputs": [
        {
          "internalType": "address",
          "name": "newOwner",
          "type": "address"
        }
      ],
      "name": "transferOwnership",
      "outputs": [],
      "stateMutability": "nonpayable",
      "type": "function"
    },
    {
      "inputs": [
        {
          "internalType": "uint256",
          "name": "",
          "type": "uint256"
        }
      ],
      "name": "uri",
      "outputs": [
        {
          "internalType": "string",
          "name": "",
          "type": "string"
        }
      ],
      "stateMutability": "view",
      "type": "function"
    },
    {
      "inputs": [
        {
          "internalType": "address",
          "name": "to",
          "type": "address"
        },
        {
          "internalType": "string",
          "name": "uri",
          "type": "string"
        },
        {
          "internalType": "uint256",
          "name": "supply",
          "type": "uint256"
        },
        {
          "internalType": "bytes",
          "name": "data",
          "type": "bytes"
        }
      ],
      "name": "mint",
      "outputs": [
        {
          "internalType": "uint256",
          "name": "",
          "type": "uint256"
        }
      ],
      "stateMutability": "nonpayable",
      "type": "function"
    },
    {
      "inputs": [
        {
          "internalType": "address",
          "name": "to",
          "type": "address"
        },
        {
          "internalType": "string[]",
          "name": "uriList",
          "type": "string[]"
        },
        {
          "internalType": "uint256[]",
          "name": "supplies",
          "type": "uint256[]"
        },
        {
          "internalType": "bytes",
          "name": "data",
          "type": "bytes"
        }
      ],
      "name": "mintBatch",
      "outputs": [
        {
          "internalType": "uint256[]",
          "name": "",
          "type": "uint256[]"
        }
      ],
      "stateMutability": "nonpayable",
      "type": "function"
    },
    {
      "inputs": [
        {
          "internalType": "string",
          "name": "newURI",
          "type": "string"
        }
      ],
      "name": "setURI",
      "outputs": [],
      "stateMutability": "nonpayable",
      "type": "function"
    },
    {
      "inputs": [
        {
          "internalType": "uint256",
          "name": "tokenId",
          "type": "uint256"
        }
      ],
      "name": "tokenURI",
      "outputs": [
        {
          "internalType": "string",
          "name": "",
          "type": "string"
        }
      ],
      "stateMutability": "view",
      "type": "function"
    }
  ],
  "bytecode": "0x60806040523480156200001157600080fd5b50604051620042b8380380620042b8833981810160405281019062000037919062000248565b8062000049816200010260201b60201c565b5060006200005c6200011e60201b60201c565b905080600460006101000a81548173ffffffffffffffffffffffffffffffffffffffff021916908373ffffffffffffffffffffffffffffffffffffffff1602179055508073ffffffffffffffffffffffffffffffffffffffff16600073ffffffffffffffffffffffffffffffffffffffff167f8be0079c531659141344cd1fd0a4f28419497f9722a3daafe3b4186f6b6457e060405160405180910390a35050620003fd565b80600290805190602001906200011a92919062000126565b5050565b600033905090565b828054620001349062000322565b90600052602060002090601f016020900481019282620001585760008555620001a4565b82601f106200017357805160ff1916838001178555620001a4565b82800160010185558215620001a4579182015b82811115620001a357825182559160200191906001019062000186565b5b509050620001b39190620001b7565b5090565b5b80821115620001d2576000816000905550600101620001b8565b5090565b6000620001ed620001e784620002b6565b6200028d565b9050828152602081018484840111156200020657600080fd5b62000213848285620002ec565b509392505050565b600082601f8301126200022d57600080fd5b81516200023f848260208601620001d6565b91505092915050565b6000602082840312156200025b57600080fd5b600082015167ffffffffffffffff8111156200027657600080fd5b62000284848285016200021b565b91505092915050565b600062000299620002ac565b9050620002a7828262000358565b919050565b6000604051905090565b600067ffffffffffffffff821115620002d457620002d3620003bd565b5b620002df82620003ec565b9050602081019050919050565b60005b838110156200030c578082015181840152602081019050620002ef565b838111156200031c576000848401525b50505050565b600060028204905060018216806200033b57607f821691505b602082108114156200035257620003516200038e565b5b50919050565b6200036382620003ec565b810181811067ffffffffffffffff82111715620003855762000384620003bd565b5b80604052505050565b7f4e487b7100000000000000000000000000000000000000000000000000000000600052602260045260246000fd5b7f4e487b7100000000000000000000000000000000000000000000000000000000600052604160045260246000fd5b6000601f19601f8301169050919050565b613eab806200040d6000396000f3fe608060405234801561001057600080fd5b506004361061010a5760003560e01c80635523c250116100a2578063bd85b03911610071578063bd85b039146102db578063c87b56dd1461030b578063e985e9c51461033b578063f242432a1461036b578063f2fde38b146103875761010a565b80635523c25014610267578063715018a6146102975780638da5cb5b146102a1578063a22cb465146102bf5761010a565b80632eb2c2d6116100de5780632eb2c2d6146101bb578063428a328b146101d75780634e1273f4146102075780634f558e79146102375761010a565b8062fdd58e1461010f57806301ffc9a71461013f57806302fe53051461016f5780630e89341c1461018b575b600080fd5b61012960048036038101906101249190612b29565b6103a3565b6040516101369190613444565b60405180910390f35b61015960048036038101906101549190612bd1565b61046c565b6040516101669190613227565b60405180910390f35b61018960048036038101906101849190612c23565b61054e565b005b6101a560048036038101906101a09190612c64565b6105d6565b6040516101b29190613242565b60405180910390f35b6101d560048036038101906101d09190612854565b61066a565b005b6101f160048036038101906101ec91906129a2565b610a60565b6040516101fe91906131ce565b60405180910390f35b610221600480360381019061021c9190612b65565b610d0b565b60405161022e91906131ce565b60405180910390f35b610251600480360381019061024c9190612c64565b610ebc565b60405161025e9190613227565b60405180910390f35b610281600480360381019061027c9190612a91565b610ed0565b60405161028e9190613444565b60405180910390f35b61029f610f27565b005b6102a9611064565b6040516102b691906130bf565b60405180910390f35b6102d960048036038101906102d49190612a55565b61108e565b005b6102f560048036038101906102f09190612c64565b61120f565b6040516103029190613444565b60405180910390f35b61032560048036038101906103209190612c64565b61122c565b6040516103329190613242565b60405180910390f35b61035560048036038101906103509190612818565b61136a565b6040516103629190613227565b60405180910390f35b61038560048036038101906103809190612913565b6113fe565b005b6103a1600480360381019061039c91906127ef565b611716565b005b60008073ffffffffffffffffffffffffffffffffffffffff168373ffffffffffffffffffffffffffffffffffffffff161415610414576040517f08c379a000000000000000000000000000000000000000000000000000000000815260040161040b906132c4565b60405180910390fd5b60008083815260200190815260200160002060008473ffffffffffffffffffffffffffffffffffffffff1673ffffffffffffffffffffffffffffffffffffffff16815260200190815260200160002054905092915050565b60007fd9b67a26000000000000000000000000000000000000000000000000000000007bffffffffffffffffffffffffffffffffffffffffffffffffffffffff1916827bffffffffffffffffffffffffffffffffffffffffffffffffffffffff1916148061053757507f0e89341c000000000000000000000000000000000000000000000000000000007bffffffffffffffffffffffffffffffffffffffffffffffffffffffff1916827bffffffffffffffffffffffffffffffffffffffffffffffffffffffff1916145b806105475750610546826118c2565b5b9050919050565b61055661192c565b73ffffffffffffffffffffffffffffffffffffffff16610574611064565b73ffffffffffffffffffffffffffffffffffffffff16146105ca576040517f08c379a00000000000000000000000000000000000000000000000000000000081526004016105c1906133a4565b60405180910390fd5b6105d381611934565b50565b6060600280546105e59061378f565b80601f01602080910402602001604051908101604052809291908181526020018280546106119061378f565b801561065e5780601f106106335761010080835404028352916020019161065e565b820191906000526020600020905b81548152906001019060200180831161064157829003601f168201915b50505050509050919050565b81518351146106ae576040517f08c379a00000000000000000000000000000000000000000000000000000000081526004016106a590613404565b60405180910390fd5b600073ffffffffffffffffffffffffffffffffffffffff168473ffffffffffffffffffffffffffffffffffffffff16141561071e576040517f08c379a000000000000000000000000000000000000000000000000000000000815260040161071590613324565b60405180910390fd5b61072661192c565b73ffffffffffffffffffffffffffffffffffffffff168573ffffffffffffffffffffffffffffffffffffffff16148061076c575061076b8561076661192c565b61136a565b5b6107ab576040517f08c379a00000000000000000000000000000000000000000000000000000000081526004016107a290613344565b60405180910390fd5b60006107b561192c565b90506107c581878787878761194e565b60005b84518110156109cb57600085828151811061080c577f4e487b7100000000000000000000000000000000000000000000000000000000600052603260045260246000fd5b602002602001015190506000858381518110610851577f4e487b7100000000000000000000000000000000000000000000000000000000600052603260045260246000fd5b60200260200101519050600080600084815260200190815260200160002060008b73ffffffffffffffffffffffffffffffffffffffff1673ffffffffffffffffffffffffffffffffffffffff168152602001908152602001600020549050818110156108f2576040517f08c379a00000000000000000000000000000000000000000000000000000000081526004016108e990613384565b60405180910390fd5b81816108fe91906136a5565b60008085815260200190815260200160002060008c73ffffffffffffffffffffffffffffffffffffffff1673ffffffffffffffffffffffffffffffffffffffff168152602001908152602001600020819055508160008085815260200190815260200160002060008b73ffffffffffffffffffffffffffffffffffffffff1673ffffffffffffffffffffffffffffffffffffffff16815260200190815260200160002060008282546109b0919061364f565b92505081905550505050806109c4906137f2565b90506107c8565b508473ffffffffffffffffffffffffffffffffffffffff168673ffffffffffffffffffffffffffffffffffffffff168273ffffffffffffffffffffffffffffffffffffffff167f4a39dc06d4c0dbc64b70af90fd698a233a518aa5d07e595d983b8c0526c8f7fb8787604051610a429291906131f0565b60405180910390a4610a58818787878787611956565b505050505050565b6060838390508686905014610aaa576040517f08c379a0000000000000000000000000000000000000000000000000000000008152600401610aa1906132a4565b60405180910390fd5b60008686905067ffffffffffffffff811115610aef577f4e487b7100000000000000000000000000000000000000000000000000000000600052604160045260246000fd5b604051908082528060200260200182016040528015610b1d5781602001602082028036833780820191505090505b50905060005b87879050811015610bfb5788888883818110610b68577f4e487b7100000000000000000000000000000000000000000000000000000000600052603260045260246000fd5b9050602002810190610b7a9190613488565b604051602001610b8c9392919061319c565b6040516020818303038152906040528051906020012060001c828281518110610bde577f4e487b7100000000000000000000000000000000000000000000000000000000600052603260045260246000fd5b60200260200101818152505080610bf4906137f2565b9050610b23565b50610c498882878780806020026020016040519081016040528093929190818152602001838360200280828437600081840152601f19601f8201169050808301925050505050505086611b3d565b60005b87879050811015610cfc57610ceb828281518110610c93577f4e487b7100000000000000000000000000000000000000000000000000000000600052603260045260246000fd5b6020026020010151898984818110610cd4577f4e487b7100000000000000000000000000000000000000000000000000000000600052603260045260246000fd5b9050602002810190610ce69190613488565b611c17565b80610cf5906137f2565b9050610c4c565b50809150509695505050505050565b60608151835114610d51576040517f08c379a0000000000000000000000000000000000000000000000000000000008152600401610d48906133e4565b60405180910390fd5b6000835167ffffffffffffffff811115610d94577f4e487b7100000000000000000000000000000000000000000000000000000000600052604160045260246000fd5b604051908082528060200260200182016040528015610dc25781602001602082028036833780820191505090505b50905060005b8451811015610eb157610e5b858281518110610e0d577f4e487b7100000000000000000000000000000000000000000000000000000000600052603260045260246000fd5b6020026020010151858381518110610e4e577f4e487b7100000000000000000000000000000000000000000000000000000000600052603260045260246000fd5b60200260200101516103a3565b828281518110610e94577f4e487b7100000000000000000000000000000000000000000000000000000000600052603260045260246000fd5b60200260200101818152505080610eaa906137f2565b9050610dc8565b508091505092915050565b600080610ec88361120f565b119050919050565b600080868686604051602001610ee89392919061319c565b6040516020818303038152906040528051906020012060001c9050610f0f87828686611c87565b610f1a818787611c17565b8091505095945050505050565b610f2f61192c565b73ffffffffffffffffffffffffffffffffffffffff16610f4d611064565b73ffffffffffffffffffffffffffffffffffffffff1614610fa3576040517f08c379a0000000000000000000000000000000000000000000000000000000008152600401610f9a906133a4565b60405180910390fd5b600073ffffffffffffffffffffffffffffffffffffffff16600460009054906101000a900473ffffffffffffffffffffffffffffffffffffffff1673ffffffffffffffffffffffffffffffffffffffff167f8be0079c531659141344cd1fd0a4f28419497f9722a3daafe3b4186f6b6457e060405160405180910390a36000600460006101000a81548173ffffffffffffffffffffffffffffffffffffffff021916908373ffffffffffffffffffffffffffffffffffffffff160217905550565b6000600460009054906101000a900473ffffffffffffffffffffffffffffffffffffffff16905090565b8173ffffffffffffffffffffffffffffffffffffffff166110ad61192c565b73ffffffffffffffffffffffffffffffffffffffff161415611104576040517f08c379a00000000000000000000000000000000000000000000000000000000081526004016110fb906133c4565b60405180910390fd5b806001600061111161192c565b73ffffffffffffffffffffffffffffffffffffffff1673ffffffffffffffffffffffffffffffffffffffff16815260200190815260200160002060008473ffffffffffffffffffffffffffffffffffffffff1673ffffffffffffffffffffffffffffffffffffffff16815260200190815260200160002060006101000a81548160ff0219169083151502179055508173ffffffffffffffffffffffffffffffffffffffff166111be61192c565b73ffffffffffffffffffffffffffffffffffffffff167f17307eab39ab6107e8899845ad3d59bd9653f200f220920489ca2b5937696c31836040516112039190613227565b60405180910390a35050565b600060036000838152602001908152602001600020549050919050565b606061123782610ebc565b611276576040517f08c379a000000000000000000000000000000000000000000000000000000000815260040161126d90613364565b60405180910390fd5b6000611281836105d6565b9050600081511161132d576005600084815260200190815260200160002080546112aa9061378f565b80601f01602080910402602001604051908101604052809291908181526020018280546112d69061378f565b80156113235780601f106112f857610100808354040283529160200191611323565b820191906000526020600020905b81548152906001019060200180831161130657829003601f168201915b5050505050611362565b806005600085815260200190815260200160002060405160200161135292919061309b565b6040516020818303038152906040525b915050919050565b6000600160008473ffffffffffffffffffffffffffffffffffffffff1673ffffffffffffffffffffffffffffffffffffffff16815260200190815260200160002060008373ffffffffffffffffffffffffffffffffffffffff1673ffffffffffffffffffffffffffffffffffffffff16815260200190815260200160002060009054906101000a900460ff16905092915050565b600073ffffffffffffffffffffffffffffffffffffffff168473ffffffffffffffffffffffffffffffffffffffff16141561146e576040517f08c379a000000000000000000000000000000000000000000000000000000000815260040161146590613324565b60405180910390fd5b61147661192c565b73ffffffffffffffffffffffffffffffffffffffff168573ffffffffffffffffffffffffffffffffffffffff1614806114bc57506114bb856114b661192c565b61136a565b5b6114fb576040517f08c379a00000000000000000000000000000000000000000000000000000000081526004016114f290613304565b60405180910390fd5b600061150561192c565b905061152581878761151688611cc3565b61151f88611cc3565b8761194e565b600080600086815260200190815260200160002060008873ffffffffffffffffffffffffffffffffffffffff1673ffffffffffffffffffffffffffffffffffffffff168152602001908152602001600020549050838110156115bc576040517f08c379a00000000000000000000000000000000000000000000000000000000081526004016115b390613384565b60405180910390fd5b83816115c891906136a5565b60008087815260200190815260200160002060008973ffffffffffffffffffffffffffffffffffffffff1673ffffffffffffffffffffffffffffffffffffffff168152602001908152602001600020819055508360008087815260200190815260200160002060008873ffffffffffffffffffffffffffffffffffffffff1673ffffffffffffffffffffffffffffffffffffffff168152602001908152602001600020600082825461167a919061364f565b925050819055508573ffffffffffffffffffffffffffffffffffffffff168773ffffffffffffffffffffffffffffffffffffffff168373ffffffffffffffffffffffffffffffffffffffff167fc3d58168c5ae7397731d063d5bbf3d657854427343f4c083240f7aacaa2d0f6288886040516116f792919061345f565b60405180910390a461170d828888888888611d89565b50505050505050565b61171e61192c565b73ffffffffffffffffffffffffffffffffffffffff1661173c611064565b73ffffffffffffffffffffffffffffffffffffffff1614611792576040517f08c379a0000000000000000000000000000000000000000000000000000000008152600401611789906133a4565b60405180910390fd5b600073ffffffffffffffffffffffffffffffffffffffff168173ffffffffffffffffffffffffffffffffffffffff161415611802576040517f08c379a00000000000000000000000000000000000000000000000000000000081526004016117f9906132e4565b60405180910390fd5b8073ffffffffffffffffffffffffffffffffffffffff16600460009054906101000a900473ffffffffffffffffffffffffffffffffffffffff1673ffffffffffffffffffffffffffffffffffffffff167f8be0079c531659141344cd1fd0a4f28419497f9722a3daafe3b4186f6b6457e060405160405180910390a380600460006101000a81548173ffffffffffffffffffffffffffffffffffffffff021916908373ffffffffffffffffffffffffffffffffffffffff16021790555050565b60007f01ffc9a7000000000000000000000000000000000000000000000000000000007bffffffffffffffffffffffffffffffffffffffffffffffffffffffff1916827bffffffffffffffffffffffffffffffffffffffffffffffffffffffff1916149050919050565b600033905090565b806002908051906020019061194a929190612383565b5050565b505050505050565b6119758473ffffffffffffffffffffffffffffffffffffffff16611f70565b15611b35578373ffffffffffffffffffffffffffffffffffffffff1663bc197c8187878686866040518663ffffffff1660e01b81526004016119bb9594939291906130da565b602060405180830381600087803b1580156119d557600080fd5b505af1925050508015611a0657506040513d601f19601f82011682018060405250810190611a039190612bfa565b60015b611aac57611a126138c8565b806308c379a01415611a6f5750611a27613d83565b80611a325750611a71565b806040517f08c379a0000000000000000000000000000000000000000000000000000000008152600401611a669190613242565b60405180910390fd5b505b6040517f08c379a0000000000000000000000000000000000000000000000000000000008152600401611aa390613264565b60405180910390fd5b63bc197c8160e01b7bffffffffffffffffffffffffffffffffffffffffffffffffffffffff1916817bffffffffffffffffffffffffffffffffffffffffffffffffffffffff191614611b33576040517f08c379a0000000000000000000000000000000000000000000000000000000008152600401611b2a90613284565b60405180910390fd5b505b505050505050565b611b4984848484611f83565b60005b8351811015611c1057828181518110611b8e577f4e487b7100000000000000000000000000000000000000000000000000000000600052603260045260246000fd5b602002602001015160036000868481518110611bd3577f4e487b7100000000000000000000000000000000000000000000000000000000600052603260045260246000fd5b602002602001015181526020019081526020016000206000828254611bf8919061364f565b9250508190555080611c09906137f2565b9050611b4c565b5050505050565b611c2083610ebc565b611c5f576040517f08c379a0000000000000000000000000000000000000000000000000000000008152600401611c5690613364565b60405180910390fd5b8181600560008681526020019081526020016000209190611c81929190612409565b50505050565b611c93848484846121ed565b81600360008581526020019081526020016000206000828254611cb6919061364f565b9250508190555050505050565b60606000600167ffffffffffffffff811115611d08577f4e487b7100000000000000000000000000000000000000000000000000000000600052604160045260246000fd5b604051908082528060200260200182016040528015611d365781602001602082028036833780820191505090505b5090508281600081518110611d74577f4e487b7100000000000000000000000000000000000000000000000000000000600052603260045260246000fd5b60200260200101818152505080915050919050565b611da88473ffffffffffffffffffffffffffffffffffffffff16611f70565b15611f68578373ffffffffffffffffffffffffffffffffffffffff1663f23a6e6187878686866040518663ffffffff1660e01b8152600401611dee959493929190613142565b602060405180830381600087803b158015611e0857600080fd5b505af1925050508015611e3957506040513d601f19601f82011682018060405250810190611e369190612bfa565b60015b611edf57611e456138c8565b806308c379a01415611ea25750611e5a613d83565b80611e655750611ea4565b806040517f08c379a0000000000000000000000000000000000000000000000000000000008152600401611e999190613242565b60405180910390fd5b505b6040517f08c379a0000000000000000000000000000000000000000000000000000000008152600401611ed690613264565b60405180910390fd5b63f23a6e6160e01b7bffffffffffffffffffffffffffffffffffffffffffffffffffffffff1916817bffffffffffffffffffffffffffffffffffffffffffffffffffffffff191614611f66576040517f08c379a0000000000000000000000000000000000000000000000000000000008152600401611f5d90613284565b60405180910390fd5b505b505050505050565b600080823b905060008111915050919050565b600073ffffffffffffffffffffffffffffffffffffffff168473ffffffffffffffffffffffffffffffffffffffff161415611ff3576040517f08c379a0000000000000000000000000000000000000000000000000000000008152600401611fea90613424565b60405180910390fd5b8151835114612037576040517f08c379a000000000000000000000000000000000000000000000000000000000815260040161202e90613404565b60405180910390fd5b600061204161192c565b90506120528160008787878761194e565b60005b845181101561215757838181518110612097577f4e487b7100000000000000000000000000000000000000000000000000000000600052603260045260246000fd5b60200260200101516000808784815181106120db577f4e487b7100000000000000000000000000000000000000000000000000000000600052603260045260246000fd5b6020026020010151815260200190815260200160002060008873ffffffffffffffffffffffffffffffffffffffff1673ffffffffffffffffffffffffffffffffffffffff168152602001908152602001600020600082825461213d919061364f565b92505081905550808061214f906137f2565b915050612055565b508473ffffffffffffffffffffffffffffffffffffffff16600073ffffffffffffffffffffffffffffffffffffffff168273ffffffffffffffffffffffffffffffffffffffff167f4a39dc06d4c0dbc64b70af90fd698a233a518aa5d07e595d983b8c0526c8f7fb87876040516121cf9291906131f0565b60405180910390a46121e681600087878787611956565b5050505050565b600073ffffffffffffffffffffffffffffffffffffffff168473ffffffffffffffffffffffffffffffffffffffff16141561225d576040517f08c379a000000000000000000000000000000000000000000000000000000000815260040161225490613424565b60405180910390fd5b600061226761192c565b90506122888160008761227988611cc3565b61228288611cc3565b8761194e565b8260008086815260200190815260200160002060008773ffffffffffffffffffffffffffffffffffffffff1673ffffffffffffffffffffffffffffffffffffffff16815260200190815260200160002060008282546122e7919061364f565b925050819055508473ffffffffffffffffffffffffffffffffffffffff16600073ffffffffffffffffffffffffffffffffffffffff168273ffffffffffffffffffffffffffffffffffffffff167fc3d58168c5ae7397731d063d5bbf3d657854427343f4c083240f7aacaa2d0f62878760405161236592919061345f565b60405180910390a461237c81600087878787611d89565b5050505050565b82805461238f9061378f565b90600052602060002090601f0160209004810192826123b157600085556123f8565b82601f106123ca57805160ff19168380011785556123f8565b828001600101855582156123f8579182015b828111156123f75782518255916020019190600101906123dc565b5b509050612405919061248f565b5090565b8280546124159061378f565b90600052602060002090601f016020900481019282612437576000855561247e565b82601f1061245057803560ff191683800117855561247e565b8280016001018555821561247e579182015b8281111561247d578235825591602001919060010190612462565b5b50905061248b919061248f565b5090565b5b808211156124a8576000816000905550600101612490565b5090565b60006124bf6124ba84613504565b6134df565b905080838252602082019050828560208602820111156124de57600080fd5b60005b8581101561250e57816124f48882612600565b8452602084019350602083019250506001810190506124e1565b5050509392505050565b600061252b61252684613530565b6134df565b9050808382526020820190508285602086028201111561254a57600080fd5b60005b8581101561257a578161256088826127da565b84526020840193506020830192505060018101905061254d565b5050509392505050565b60006125976125928461355c565b6134df565b9050828152602081018484840111156125af57600080fd5b6125ba84828561374d565b509392505050565b60006125d56125d08461358d565b6134df565b9050828152602081018484840111156125ed57600080fd5b6125f884828561374d565b509392505050565b60008135905061260f81613e19565b92915050565b600082601f83011261262657600080fd5b81356126368482602086016124ac565b91505092915050565b60008083601f84011261265157600080fd5b8235905067ffffffffffffffff81111561266a57600080fd5b60208301915083602082028301111561268257600080fd5b9250929050565b60008083601f84011261269b57600080fd5b8235905067ffffffffffffffff8111156126b457600080fd5b6020830191508360208202830111156126cc57600080fd5b9250929050565b600082601f8301126126e457600080fd5b81356126f4848260208601612518565b91505092915050565b60008135905061270c81613e30565b92915050565b60008135905061272181613e47565b92915050565b60008151905061273681613e47565b92915050565b600082601f83011261274d57600080fd5b813561275d848260208601612584565b91505092915050565b60008083601f84011261277857600080fd5b8235905067ffffffffffffffff81111561279157600080fd5b6020830191508360018202830111156127a957600080fd5b9250929050565b600082601f8301126127c157600080fd5b81356127d18482602086016125c2565b91505092915050565b6000813590506127e981613e5e565b92915050565b60006020828403121561280157600080fd5b600061280f84828501612600565b91505092915050565b6000806040838503121561282b57600080fd5b600061283985828601612600565b925050602061284a85828601612600565b9150509250929050565b600080600080600060a0868803121561286c57600080fd5b600061287a88828901612600565b955050602061288b88828901612600565b945050604086013567ffffffffffffffff8111156128a857600080fd5b6128b4888289016126d3565b935050606086013567ffffffffffffffff8111156128d157600080fd5b6128dd888289016126d3565b925050608086013567ffffffffffffffff8111156128fa57600080fd5b6129068882890161273c565b9150509295509295909350565b600080600080600060a0868803121561292b57600080fd5b600061293988828901612600565b955050602061294a88828901612600565b945050604061295b888289016127da565b935050606061296c888289016127da565b925050608086013567ffffffffffffffff81111561298957600080fd5b6129958882890161273c565b9150509295509295909350565b600080600080600080608087890312156129bb57600080fd5b60006129c989828a01612600565b965050602087013567ffffffffffffffff8111156129e657600080fd5b6129f289828a0161263f565b9550955050604087013567ffffffffffffffff811115612a1157600080fd5b612a1d89828a01612689565b9350935050606087013567ffffffffffffffff811115612a3c57600080fd5b612a4889828a0161273c565b9150509295509295509295565b60008060408385031215612a6857600080fd5b6000612a7685828601612600565b9250506020612a87858286016126fd565b9150509250929050565b600080600080600060808688031215612aa957600080fd5b6000612ab788828901612600565b955050602086013567ffffffffffffffff811115612ad457600080fd5b612ae088828901612766565b94509450506040612af3888289016127da565b925050606086013567ffffffffffffffff811115612b1057600080fd5b612b1c8882890161273c565b9150509295509295909350565b60008060408385031215612b3c57600080fd5b6000612b4a85828601612600565b9250506020612b5b858286016127da565b9150509250929050565b60008060408385031215612b7857600080fd5b600083013567ffffffffffffffff811115612b9257600080fd5b612b9e85828601612615565b925050602083013567ffffffffffffffff811115612bbb57600080fd5b612bc7858286016126d3565b9150509250929050565b600060208284031215612be357600080fd5b6000612bf184828501612712565b91505092915050565b600060208284031215612c0c57600080fd5b6000612c1a84828501612727565b91505092915050565b600060208284031215612c3557600080fd5b600082013567ffffffffffffffff811115612c4f57600080fd5b612c5b848285016127b0565b91505092915050565b600060208284031215612c7657600080fd5b6000612c84848285016127da565b91505092915050565b6000612c99838361307d565b60208301905092915050565b612cae816136d9565b82525050565b6000612cbf826135e3565b612cc98185613611565b9350612cd4836135be565b8060005b83811015612d05578151612cec8882612c8d565b9750612cf783613604565b925050600181019050612cd8565b5085935050505092915050565b612d1b816136eb565b82525050565b6000612d2c826135ee565b612d368185613622565b9350612d4681856020860161375c565b612d4f816138ea565b840191505092915050565b6000612d668385613633565b9350612d7383858461374d565b612d7c836138ea565b840190509392505050565b6000612d92826135f9565b612d9c8185613633565b9350612dac81856020860161375c565b612db5816138ea565b840191505092915050565b6000612dcb826135f9565b612dd58185613644565b9350612de581856020860161375c565b80840191505092915050565b60008154612dfe8161378f565b612e088186613644565b94506001821660008114612e235760018114612e3457612e67565b60ff19831686528186019350612e67565b612e3d856135ce565b60005b83811015612e5f57815481890152600182019150602081019050612e40565b838801955050505b50505092915050565b6000612e7d603483613633565b9150612e8882613908565b604082019050919050565b6000612ea0602883613633565b9150612eab82613957565b604082019050919050565b6000612ec3602383613633565b9150612ece826139a6565b604082019050919050565b6000612ee6602b83613633565b9150612ef1826139f5565b604082019050919050565b6000612f09602683613633565b9150612f1482613a44565b604082019050919050565b6000612f2c602983613633565b9150612f3782613a93565b604082019050919050565b6000612f4f602583613633565b9150612f5a82613ae2565b604082019050919050565b6000612f72603283613633565b9150612f7d82613b31565b604082019050919050565b6000612f95602883613633565b9150612fa082613b80565b604082019050919050565b6000612fb8602a83613633565b9150612fc382613bcf565b604082019050919050565b6000612fdb602083613633565b9150612fe682613c1e565b602082019050919050565b6000612ffe602983613633565b915061300982613c47565b604082019050919050565b6000613021602983613633565b915061302c82613c96565b604082019050919050565b6000613044602883613633565b915061304f82613ce5565b604082019050919050565b6000613067602183613633565b915061307282613d34565b604082019050919050565b61308681613743565b82525050565b61309581613743565b82525050565b60006130a78285612dc0565b91506130b38284612df1565b91508190509392505050565b60006020820190506130d46000830184612ca5565b92915050565b600060a0820190506130ef6000830188612ca5565b6130fc6020830187612ca5565b818103604083015261310e8186612cb4565b905081810360608301526131228185612cb4565b905081810360808301526131368184612d21565b90509695505050505050565b600060a0820190506131576000830188612ca5565b6131646020830187612ca5565b613171604083018661308c565b61317e606083018561308c565b81810360808301526131908184612d21565b90509695505050505050565b60006040820190506131b16000830186612ca5565b81810360208301526131c4818486612d5a565b9050949350505050565b600060208201905081810360008301526131e88184612cb4565b905092915050565b6000604082019050818103600083015261320a8185612cb4565b9050818103602083015261321e8184612cb4565b90509392505050565b600060208201905061323c6000830184612d12565b92915050565b6000602082019050818103600083015261325c8184612d87565b905092915050565b6000602082019050818103600083015261327d81612e70565b9050919050565b6000602082019050818103600083015261329d81612e93565b9050919050565b600060208201905081810360008301526132bd81612eb6565b9050919050565b600060208201905081810360008301526132dd81612ed9565b9050919050565b600060208201905081810360008301526132fd81612efc565b9050919050565b6000602082019050818103600083015261331d81612f1f565b9050919050565b6000602082019050818103600083015261333d81612f42565b9050919050565b6000602082019050818103600083015261335d81612f65565b9050919050565b6000602082019050818103600083015261337d81612f88565b9050919050565b6000602082019050818103600083015261339d81612fab565b9050919050565b600060208201905081810360008301526133bd81612fce565b9050919050565b600060208201905081810360008301526133dd81612ff1565b9050919050565b600060208201905081810360008301526133fd81613014565b9050919050565b6000602082019050818103600083015261341d81613037565b9050919050565b6000602082019050818103600083015261343d8161305a565b9050919050565b6000602082019050613459600083018461308c565b92915050565b6000604082019050613474600083018561308c565b613481602083018461308c565b9392505050565b600080833560016020038436030381126134a157600080fd5b80840192508235915067ffffffffffffffff8211156134bf57600080fd5b6020830192506001820236038313156134d757600080fd5b509250929050565b60006134e96134fa565b90506134f582826137c1565b919050565b6000604051905090565b600067ffffffffffffffff82111561351f5761351e613899565b5b602082029050602081019050919050565b600067ffffffffffffffff82111561354b5761354a613899565b5b602082029050602081019050919050565b600067ffffffffffffffff82111561357757613576613899565b5b613580826138ea565b9050602081019050919050565b600067ffffffffffffffff8211156135a8576135a7613899565b5b6135b1826138ea565b9050602081019050919050565b6000819050602082019050919050565b60008190508160005260206000209050919050565b600081519050919050565b600081519050919050565b600081519050919050565b6000602082019050919050565b600082825260208201905092915050565b600082825260208201905092915050565b600082825260208201905092915050565b600081905092915050565b600061365a82613743565b915061366583613743565b9250827fffffffffffffffffffffffffffffffffffffffffffffffffffffffffffffffff0382111561369a5761369961383b565b5b828201905092915050565b60006136b082613743565b91506136bb83613743565b9250828210156136ce576136cd61383b565b5b828203905092915050565b60006136e482613723565b9050919050565b60008115159050919050565b60007fffffffff0000000000000000000000000000000000000000000000000000000082169050919050565b600073ffffffffffffffffffffffffffffffffffffffff82169050919050565b6000819050919050565b82818337600083830152505050565b60005b8381101561377a57808201518184015260208101905061375f565b83811115613789576000848401525b50505050565b600060028204905060018216806137a757607f821691505b602082108114156137bb576137ba61386a565b5b50919050565b6137ca826138ea565b810181811067ffffffffffffffff821117156137e9576137e8613899565b5b80604052505050565b60006137fd82613743565b91507fffffffffffffffffffffffffffffffffffffffffffffffffffffffffffffffff8214156138305761382f61383b565b5b600182019050919050565b7f4e487b7100000000000000000000000000000000000000000000000000000000600052601160045260246000fd5b7f4e487b7100000000000000000000000000000000000000000000000000000000600052602260045260246000fd5b7f4e487b7100000000000000000000000000000000000000000000000000000000600052604160045260246000fd5b600060033d11156138e75760046000803e6138e46000516138fb565b90505b90565b6000601f19601f8301169050919050565b60008160e01c9050919050565b7f455243313135353a207472616e7366657220746f206e6f6e204552433131353560008201527f526563656976657220696d706c656d656e746572000000000000000000000000602082015250565b7f455243313135353a204552433131353552656365697665722072656a6563746560008201527f6420746f6b656e73000000000000000000000000000000000000000000000000602082015250565b7f455243313135353a206d696e744261746368206c656e67746873206d69736d6160008201527f7463680000000000000000000000000000000000000000000000000000000000602082015250565b7f455243313135353a2062616c616e636520717565727920666f7220746865207a60008201527f65726f2061646472657373000000000000000000000000000000000000000000602082015250565b7f4f776e61626c653a206e6577206f776e657220697320746865207a65726f206160008201527f6464726573730000000000000000000000000000000000000000000000000000602082015250565b7f455243313135353a2063616c6c6572206973206e6f74206f776e6572206e6f7260008201527f20617070726f7665640000000000000000000000000000000000000000000000602082015250565b7f455243313135353a207472616e7366657220746f20746865207a65726f20616460008201527f6472657373000000000000000000000000000000000000000000000000000000602082015250565b7f455243313135353a207472616e736665722063616c6c6572206973206e6f742060008201527f6f776e6572206e6f7220617070726f7665640000000000000000000000000000602082015250565b7f455243313135353a2055524920717565727920666f72206e6f6e65786973746560008201527f6e7420746f6b656e000000000000000000000000000000000000000000000000602082015250565b7f455243313135353a20696e73756666696369656e742062616c616e636520666f60008201527f72207472616e7366657200000000000000000000000000000000000000000000602082015250565b7f4f776e61626c653a2063616c6c6572206973206e6f7420746865206f776e6572600082015250565b7f455243313135353a2073657474696e6720617070726f76616c2073746174757360008201527f20666f722073656c660000000000000000000000000000000000000000000000602082015250565b7f455243313135353a206163636f756e747320616e6420696473206c656e67746860008201527f206d69736d617463680000000000000000000000000000000000000000000000602082015250565b7f455243313135353a2069647320616e6420616d6f756e7473206c656e6774682060008201527f6d69736d61746368000000000000000000000000000000000000000000000000602082015250565b7f455243313135353a206d696e7420746f20746865207a65726f2061646472657360008201527f7300000000000000000000000000000000000000000000000000000000000000602082015250565b600060443d1015613d9357613e16565b613d9b6134fa565b60043d036004823e80513d602482011167ffffffffffffffff82111715613dc3575050613e16565b808201805167ffffffffffffffff811115613de15750505050613e16565b80602083010160043d038501811115613dfe575050505050613e16565b613e0d826020018501866137c1565b82955050505050505b90565b613e22816136d9565b8114613e2d57600080fd5b50565b613e39816136eb565b8114613e4457600080fd5b50565b613e50816136f7565b8114613e5b57600080fd5b50565b613e6781613743565b8114613e7257600080fd5b5056fea26469706673582212203f31d64f4095a61b31511921cee5b71f82a54ef3ef185bad041a36c5b2aaa76264736f6c63430008040033",
  "immutableReferences": {},
  "source": "// SPDX-License-Identifier: UNLICENSED\n\npragma solidity 0.8.4;\n\nimport \"../../lib/token/ERC1155/ERC1155.sol\";\nimport \"../../lib/token/ERC1155/extensions/ERC1155Supply.sol\";\nimport \"../../lib/access/Ownable.sol\";\n\ncontract TaureumERC1155 is ERC1155Supply, Ownable {\n    /**\n     * @dev Mapping from NFT ID to metadata uri.\n     */\n    mapping(uint256 => string) internal idToUri;\n\n    /**\n     * @dev Create a new TaureumERC1155 contract and set the `_uri` value.\n     *\n     */\n    constructor(string memory uri_) ERC1155(uri_) Ownable() {\n    }\n\n    /**\n     * @dev Mint a new ERC1155 token. A token can only be minted once.\n     */\n    function mint(\n        address to,\n        string calldata uri,\n        uint256 supply,\n        bytes memory data\n    ) external returns (uint256){\n        uint256 id = uint256(keccak256(abi.encode(to, uri)));\n//        require(!exists(id), \"ERC1155: token already minted\");\n\n        _mint(to, id, supply, data);\n        _setTokenUri(id, uri);\n\n        return id;\n    }\n\n    /**\n     * @dev Mint a batch of tokens.\n     */\n    function mintBatch(\n        address to,\n        string[] calldata uriList,\n        uint256[] calldata supplies,\n        bytes memory data\n    ) external returns (uint256[] memory) {\n        require(uriList.length == supplies.length, \"ERC1155: mintBatch lengths mismatch\");\n\n        uint256[] memory ids = new uint256[](uriList.length);\n        for (uint256 i = 0; i < uriList.length; ++i) {\n            ids[i] = uint256(keccak256(abi.encode(to, uriList[i])));\n        }\n\n        _mintBatch(to, ids, supplies, data);\n        for (uint256 i = 0; i < uriList.length; ++i) {\n            _setTokenUri(ids[i], uriList[i]);\n        }\n\n        return ids;\n    }\n\n    /**\n     * @dev Sets a new URI for all token types, by relying on the token type ID\n     * substitution mechanism\n     * https://eips.ethereum.org/EIPS/eip-1155#metadata[defined in the EIP].\n     *\n     * By this mechanism, any occurrence of the `\\{id\\}` substring in either the\n     * URI or any of the amounts in the JSON file at said URI will be replaced by\n     * clients with the token type ID.\n     *\n     * For example, the `https://token-cdn-domain/\\{id\\}.json` URI would be\n     * interpreted by clients as\n     * `https://token-cdn-domain/000000000000000000000000000000000000000000000000000000000004cce0.json`\n     * for token type ID 0x4cce0.\n     *\n     * See {uri}.\n     *\n     * Because these URIs cannot be meaningfully represented by the {URI} event,\n     * this function emits no events.\n     */\n    function setURI(string memory newURI) external onlyOwner {\n        _setURI(newURI);\n    }\n\n    /**\n     * @dev Return the URI of a tokenId.\n     */\n    function tokenURI(uint256 tokenId) public view virtual returns (string memory) {\n        require(exists(tokenId), \"ERC1155: URI query for nonexistent token\");\n\n        string memory baseURI = uri(tokenId);\n\n        return bytes(baseURI).length > 0 ? string(abi.encodePacked(baseURI, idToUri[tokenId])) : idToUri[tokenId];\n    }\n\n    /**\n     * @dev Set a distinct URI (RFC 3986) for a given NFT ID.\n     * @notice This is an internal function which should be called from user-implemented external\n     * function.\n     * @notice It throws an exception if the _tokenId does not exist.\n     * @param tokenId_ Id for which we want URI.\n     * @param uri_ String representing RFC 3986 URI.\n     */\n    function _setTokenUri(\n        uint256 tokenId_,\n        string calldata uri_\n    )\n    internal\n    {\n        require(exists(tokenId_), \"ERC1155: URI query for nonexistent token\");\n        idToUri[tokenId_] = uri_;\n    }\n\n}\n",
  "sourcePath": "/home/toor/nodejs/truffle/nft_demo/taudefi/taudefi-nft/contracts/tokens/ERC1155/TaureumERC1155.sol",
  "compiler": {
    "name": "solc",
    "version": "0.8.4+commit.c7e474f2.Emscripten.clang"
  },
  "schemaVersion": "3.4.1",
  "updatedAt": "2021-08-06T07:39:19.402Z",
  "devdoc": {
    "kind": "dev",
    "methods": {
      "balanceOf(address,uint256)": {
        "details": "See {IERC1155-balanceOf}. Requirements: - `account` cannot be the zero address."
      },
      "balanceOfBatch(address[],uint256[])": {
        "details": "See {IERC1155-balanceOfBatch}. Requirements: - `accounts` and `ids` must have the same length."
      },
      "constructor": {
        "details": "Create a new TaureumERC1155 contract and set the `_uri` value."
      },
      "exists(uint256)": {
        "details": "Indicates weither any token exist with a given id, or not."
      },
      "isApprovedForAll(address,address)": {
        "details": "See {IERC1155-isApprovedForAll}."
      },
      "mint(address,string,uint256,bytes)": {
        "details": "Mint a new ERC1155 token. A token can only be minted once."
      },
      "mintBatch(address,string[],uint256[],bytes)": {
        "details": "Mint a batch of tokens."
      },
      "owner()": {
        "details": "Returns the address of the current owner."
      },
      "renounceOwnership()": {
        "details": "Leaves the contract without owner. It will not be possible to call `onlyOwner` functions anymore. Can only be called by the current owner. NOTE: Renouncing ownership will leave the contract without an owner, thereby removing any functionality that is only available to the owner."
      },
      "safeBatchTransferFrom(address,address,uint256[],uint256[],bytes)": {
        "details": "See {IERC1155-safeBatchTransferFrom}."
      },
      "safeTransferFrom(address,address,uint256,uint256,bytes)": {
        "details": "See {IERC1155-safeTransferFrom}."
      },
      "setApprovalForAll(address,bool)": {
        "details": "See {IERC1155-setApprovalForAll}."
      },
      "setURI(string)": {
        "details": "Sets a new URI for all token types, by relying on the token type ID substitution mechanism https://eips.ethereum.org/EIPS/eip-1155#metadata[defined in the EIP]. By this mechanism, any occurrence of the `\\{id\\}` substring in either the URI or any of the amounts in the JSON file at said URI will be replaced by clients with the token type ID. For example, the `https://token-cdn-domain/\\{id\\}.json` URI would be interpreted by clients as `https://token-cdn-domain/000000000000000000000000000000000000000000000000000000000004cce0.json` for token type ID 0x4cce0. See {uri}. Because these URIs cannot be meaningfully represented by the {URI} event, this function emits no events."
      },
      "supportsInterface(bytes4)": {
        "details": "See {IERC165-supportsInterface}."
      },
      "tokenURI(uint256)": {
        "details": "Return the URI of a tokenId."
      },
      "totalSupply(uint256)": {
        "details": "Total amount of tokens in with a given id."
      },
      "transferOwnership(address)": {
        "details": "Transfers ownership of the contract to a new account (`newOwner`). Can only be called by the current owner."
      },
      "uri(uint256)": {
        "details": "See {IERC1155MetadataURI-uri}. This implementation returns the same URI for *all* token types. It relies on the token type ID substitution mechanism https://eips.ethereum.org/EIPS/eip-1155#metadata[defined in the EIP]. Clients calling this function must replace the `\\{id\\}` substring with the actual token type ID."
      }
    },
    "stateVariables": {
      "idToUri": {
        "details": "Mapping from NFT ID to metadata uri."
      }
    },
    "version": 1
  },
  "userdoc": {
    "kind": "user",
    "methods": {},
    "version": 1
  }
}