{
  "contractName": "TaureumERC721",
  "abi": [
    {
      "inputs": [
        {
          "internalType": "address",
          "name": "KYCAddress",
          "type": "address"
        }
      ],
      "stateMutability": "nonpayable",
      "type": "constructor"
    },
    {
      "anonymous": false,
      "inputs": [
        {
          "indexed": true,
          "internalType": "address",
          "name": "owner",
          "type": "address"
        },
        {
          "indexed": true,
          "internalType": "address",
          "name": "approved",
          "type": "address"
        },
        {
          "indexed": true,
          "internalType": "uint256",
          "name": "tokenId",
          "type": "uint256"
        }
      ],
      "name": "Approval",
      "type": "event"
    },
    {
      "anonymous": false,
      "inputs": [
        {
          "indexed": true,
          "internalType": "address",
          "name": "owner",
          "type": "address"
        },
        {
          "indexed": true,
          "internalType": "address",
          "name": "operator",
          "type": "address"
        },
        {
          "indexed": false,
          "internalType": "bool",
          "name": "approved",
          "type": "bool"
        }
      ],
      "name": "ApprovalForAll",
      "type": "event"
    },
    {
      "anonymous": false,
      "inputs": [
        {
          "indexed": true,
          "internalType": "address",
          "name": "previousOwner",
          "type": "address"
        },
        {
          "indexed": true,
          "internalType": "address",
          "name": "newOwner",
          "type": "address"
        }
      ],
      "name": "OwnershipTransferred",
      "type": "event"
    },
    {
      "anonymous": false,
      "inputs": [
        {
          "indexed": true,
          "internalType": "address",
          "name": "from",
          "type": "address"
        },
        {
          "indexed": true,
          "internalType": "address",
          "name": "to",
          "type": "address"
        },
        {
          "indexed": true,
          "internalType": "uint256",
          "name": "tokenId",
          "type": "uint256"
        }
      ],
      "name": "Transfer",
      "type": "event"
    },
    {
      "inputs": [
        {
          "internalType": "address",
          "name": "to",
          "type": "address"
        },
        {
          "internalType": "uint256",
          "name": "tokenId",
          "type": "uint256"
        }
      ],
      "name": "approve",
      "outputs": [],
      "stateMutability": "nonpayable",
      "type": "function"
    },
    {
      "inputs": [
        {
          "internalType": "address",
          "name": "owner",
          "type": "address"
        }
      ],
      "name": "balanceOf",
      "outputs": [
        {
          "internalType": "uint256",
          "name": "",
          "type": "uint256"
        }
      ],
      "stateMutability": "view",
      "type": "function",
      "constant": true
    },
    {
      "inputs": [
        {
          "internalType": "uint256",
          "name": "tokenId",
          "type": "uint256"
        }
      ],
      "name": "getApproved",
      "outputs": [
        {
          "internalType": "address",
          "name": "",
          "type": "address"
        }
      ],
      "stateMutability": "view",
      "type": "function",
      "constant": true
    },
    {
      "inputs": [
        {
          "internalType": "address",
          "name": "owner",
          "type": "address"
        },
        {
          "internalType": "address",
          "name": "operator",
          "type": "address"
        }
      ],
      "name": "isApprovedForAll",
      "outputs": [
        {
          "internalType": "bool",
          "name": "",
          "type": "bool"
        }
      ],
      "stateMutability": "view",
      "type": "function",
      "constant": true
    },
    {
      "inputs": [],
      "name": "name",
      "outputs": [
        {
          "internalType": "string",
          "name": "",
          "type": "string"
        }
      ],
      "stateMutability": "view",
      "type": "function",
      "constant": true
    },
    {
      "inputs": [],
      "name": "owner",
      "outputs": [
        {
          "internalType": "address",
          "name": "",
          "type": "address"
        }
      ],
      "stateMutability": "view",
      "type": "function",
      "constant": true
    },
    {
      "inputs": [
        {
          "internalType": "uint256",
          "name": "tokenId",
          "type": "uint256"
        }
      ],
      "name": "ownerOf",
      "outputs": [
        {
          "internalType": "address",
          "name": "",
          "type": "address"
        }
      ],
      "stateMutability": "view",
      "type": "function",
      "constant": true
    },
    {
      "inputs": [],
      "name": "renounceOwnership",
      "outputs": [],
      "stateMutability": "nonpayable",
      "type": "function"
    },
    {
      "inputs": [
        {
          "internalType": "address",
          "name": "operator",
          "type": "address"
        },
        {
          "internalType": "bool",
          "name": "approved",
          "type": "bool"
        }
      ],
      "name": "setApprovalForAll",
      "outputs": [],
      "stateMutability": "nonpayable",
      "type": "function"
    },
    {
      "inputs": [],
      "name": "symbol",
      "outputs": [
        {
          "internalType": "string",
          "name": "",
          "type": "string"
        }
      ],
      "stateMutability": "view",
      "type": "function",
      "constant": true
    },
    {
      "inputs": [
        {
          "internalType": "address",
          "name": "newOwner",
          "type": "address"
        }
      ],
      "name": "transferOwnership",
      "outputs": [],
      "stateMutability": "nonpayable",
      "type": "function"
    },
    {
      "inputs": [
        {
          "internalType": "bytes4",
          "name": "interfaceId",
          "type": "bytes4"
        }
      ],
      "name": "supportsInterface",
      "outputs": [
        {
          "internalType": "bool",
          "name": "",
          "type": "bool"
        }
      ],
      "stateMutability": "view",
      "type": "function",
      "constant": true
    },
    {
      "inputs": [
        {
          "internalType": "address",
          "name": "to",
          "type": "address"
        },
        {
          "internalType": "string",
          "name": "uri",
          "type": "string"
        }
      ],
      "name": "mint",
      "outputs": [
        {
          "internalType": "uint256",
          "name": "",
          "type": "uint256"
        }
      ],
      "stateMutability": "nonpayable",
      "type": "function"
    },
    {
      "inputs": [
        {
          "internalType": "uint256",
          "name": "tokenId",
          "type": "uint256"
        }
      ],
      "name": "tokenURI",
      "outputs": [
        {
          "internalType": "string",
          "name": "",
          "type": "string"
        }
      ],
      "stateMutability": "view",
      "type": "function",
      "constant": true
    },
    {
      "inputs": [
        {
          "internalType": "address",
          "name": "from",
          "type": "address"
        },
        {
          "internalType": "address",
          "name": "to",
          "type": "address"
        },
        {
          "internalType": "uint256",
          "name": "tokenId",
          "type": "uint256"
        }
      ],
      "name": "transferFrom",
      "outputs": [],
      "stateMutability": "nonpayable",
      "type": "function"
    },
    {
      "inputs": [
        {
          "internalType": "address",
          "name": "from",
          "type": "address"
        },
        {
          "internalType": "address",
          "name": "to",
          "type": "address"
        },
        {
          "internalType": "uint256",
          "name": "tokenId",
          "type": "uint256"
        }
      ],
      "name": "safeTransferFrom",
      "outputs": [],
      "stateMutability": "nonpayable",
      "type": "function"
    },
    {
      "inputs": [
        {
          "internalType": "address",
          "name": "from",
          "type": "address"
        },
        {
          "internalType": "address",
          "name": "to",
          "type": "address"
        },
        {
          "internalType": "uint256",
          "name": "tokenId",
          "type": "uint256"
        },
        {
          "internalType": "bytes",
          "name": "_data",
          "type": "bytes"
        }
      ],
      "name": "safeTransferFrom",
      "outputs": [],
      "stateMutability": "nonpayable",
      "type": "function"
    },
    {
      "inputs": [
        {
          "internalType": "address",
          "name": "kycAddr",
          "type": "address"
        }
      ],
      "name": "setKYCImplementation",
      "outputs": [],
      "stateMutability": "nonpayable",
      "type": "function"
    },
    {
      "inputs": [],
      "name": "getKYCAddress",
      "outputs": [
        {
          "internalType": "address",
          "name": "",
          "type": "address"
        }
      ],
      "stateMutability": "view",
      "type": "function",
      "constant": true
    }
  ],
  "bytecode": "0x60806040523480156200001157600080fd5b50604051620036333803806200363383398181016040528101906200003791906200029f565b6040518060400160405280600e81526020017f5461757265756d204552433732310000000000000000000000000000000000008152506040518060400160405280600781526020017f5461757265756d000000000000000000000000000000000000000000000000008152508160009080519060200190620000bb929190620001d8565b508060019080519060200190620000d4929190620001d8565b5050506000620000e9620001d060201b60201c565b905080600660006101000a81548173ffffffffffffffffffffffffffffffffffffffff021916908373ffffffffffffffffffffffffffffffffffffffff1602179055508073ffffffffffffffffffffffffffffffffffffffff16600073ffffffffffffffffffffffffffffffffffffffff167f8be0079c531659141344cd1fd0a4f28419497f9722a3daafe3b4186f6b6457e060405160405180910390a35080600760006101000a81548173ffffffffffffffffffffffffffffffffffffffff021916908373ffffffffffffffffffffffffffffffffffffffff160217905550506200037e565b600033905090565b828054620001e690620002ff565b90600052602060002090601f0160209004810192826200020a576000855562000256565b82601f106200022557805160ff191683800117855562000256565b8280016001018555821562000256579182015b828111156200025557825182559160200191906001019062000238565b5b50905062000265919062000269565b5090565b5b80821115620002845760008160009055506001016200026a565b5090565b600081519050620002998162000364565b92915050565b600060208284031215620002b257600080fd5b6000620002c28482850162000288565b91505092915050565b6000620002d882620002df565b9050919050565b600073ffffffffffffffffffffffffffffffffffffffff82169050919050565b600060028204905060018216806200031857607f821691505b602082108114156200032f576200032e62000335565b5b50919050565b7f4e487b7100000000000000000000000000000000000000000000000000000000600052602260045260246000fd5b6200036f81620002cb565b81146200037b57600080fd5b50565b6132a5806200038e6000396000f3fe608060405234801561001057600080fd5b50600436106101215760003560e01c8063715018a6116100ad578063b88d4fde11610071578063b88d4fde146102f4578063c87b56dd14610310578063d0def52114610340578063e985e9c514610370578063f2fde38b146103a057610121565b8063715018a614610276578063862b0604146102805780638da5cb5b1461029c57806395d89b41146102ba578063a22cb465146102d857610121565b806323b872dd116100f457806323b872dd146101c057806342842e0e146101dc5780635e336761146101f85780636352211e1461021657806370a082311461024657610121565b806301ffc9a71461012657806306fdde0314610156578063081812fc14610174578063095ea7b3146101a4575b600080fd5b610140600480360381019061013b91906122b8565b6103bc565b60405161014d91906127e2565b60405180910390f35b61015e61049e565b60405161016b91906127fd565b60405180910390f35b61018e6004803603810190610189919061230a565b610530565b60405161019b9190612749565b60405180910390f35b6101be60048036038101906101b99190612253565b6105b5565b005b6101da60048036038101906101d591906120f5565b6106cd565b005b6101f660048036038101906101f191906120f5565b610838565b005b610200610858565b60405161020d9190612749565b60405180910390f35b610230600480360381019061022b919061230a565b610882565b60405161023d9190612749565b60405180910390f35b610260600480360381019061025b9190612090565b610934565b60405161026d9190612a5f565b60405180910390f35b61027e6109ec565b005b61029a60048036038101906102959190612090565b610b29565b005b6102a4610be9565b6040516102b19190612749565b60405180910390f35b6102c2610c13565b6040516102cf91906127fd565b60405180910390f35b6102f260048036038101906102ed91906121bf565b610ca5565b005b61030e60048036038101906103099190612144565b610e26565b005b61032a6004803603810190610325919061230a565b610f93565b60405161033791906127fd565b60405180910390f35b61035a600480360381019061035591906121fb565b6110d0565b6040516103679190612a5f565b60405180910390f35b61038a600480360381019061038591906120b9565b6111f1565b60405161039791906127e2565b60405180910390f35b6103ba60048036038101906103b59190612090565b611285565b005b60007f80ac58cd000000000000000000000000000000000000000000000000000000007bffffffffffffffffffffffffffffffffffffffffffffffffffffffff1916827bffffffffffffffffffffffffffffffffffffffffffffffffffffffff1916148061048757507f5b5e139f000000000000000000000000000000000000000000000000000000007bffffffffffffffffffffffffffffffffffffffffffffffffffffffff1916827bffffffffffffffffffffffffffffffffffffffffffffffffffffffff1916145b80610497575061049682611431565b5b9050919050565b6060600080546104ad90612c68565b80601f01602080910402602001604051908101604052809291908181526020018280546104d990612c68565b80156105265780601f106104fb57610100808354040283529160200191610526565b820191906000526020600020905b81548152906001019060200180831161050957829003601f168201915b5050505050905090565b600061053b82611513565b61057a576040517f08c379a00000000000000000000000000000000000000000000000000000000081526004016105719061297f565b60405180910390fd5b6004600083815260200190815260200160002060009054906101000a900473ffffffffffffffffffffffffffffffffffffffff169050919050565b60006105c082610882565b90508073ffffffffffffffffffffffffffffffffffffffff168373ffffffffffffffffffffffffffffffffffffffff161415610631576040517f08c379a0000000000000000000000000000000000000000000000000000000008152600401610628906129ff565b60405180910390fd5b8073ffffffffffffffffffffffffffffffffffffffff1661065061157f565b73ffffffffffffffffffffffffffffffffffffffff16148061067f575061067e8161067961157f565b6111f1565b5b6106be576040517f08c379a00000000000000000000000000000000000000000000000000000000081526004016106b5906128ff565b60405180910390fd5b6106c88383611587565b505050565b8160006106d982610934565b90506000600760009054906101000a900473ffffffffffffffffffffffffffffffffffffffff1673ffffffffffffffffffffffffffffffffffffffff16633da1c0c3846040518263ffffffff1660e01b81526004016107389190612749565b60206040518083038186803b15801561075057600080fd5b505afa158015610764573d6000803e3d6000fd5b505050506040513d601f19601f82011682018060405250810190610788919061228f565b905080806107965750600a82105b6107d5576040517f08c379a00000000000000000000000000000000000000000000000000000000081526004016107cc9061287f565b60405180910390fd5b6107e66107e061157f565b85611640565b610825576040517f08c379a000000000000000000000000000000000000000000000000000000000815260040161081c90612a1f565b60405180910390fd5b61083086868661171e565b505050505050565b61085383838360405180602001604052806000815250610e26565b505050565b6000600760009054906101000a900473ffffffffffffffffffffffffffffffffffffffff16905090565b6000806002600084815260200190815260200160002060009054906101000a900473ffffffffffffffffffffffffffffffffffffffff169050600073ffffffffffffffffffffffffffffffffffffffff168173ffffffffffffffffffffffffffffffffffffffff16141561092b576040517f08c379a00000000000000000000000000000000000000000000000000000000081526004016109229061293f565b60405180910390fd5b80915050919050565b60008073ffffffffffffffffffffffffffffffffffffffff168273ffffffffffffffffffffffffffffffffffffffff1614156109a5576040517f08c379a000000000000000000000000000000000000000000000000000000000815260040161099c9061291f565b60405180910390fd5b600360008373ffffffffffffffffffffffffffffffffffffffff1673ffffffffffffffffffffffffffffffffffffffff168152602001908152602001600020549050919050565b6109f461157f565b73ffffffffffffffffffffffffffffffffffffffff16610a12610be9565b73ffffffffffffffffffffffffffffffffffffffff1614610a68576040517f08c379a0000000000000000000000000000000000000000000000000000000008152600401610a5f9061299f565b60405180910390fd5b600073ffffffffffffffffffffffffffffffffffffffff16600660009054906101000a900473ffffffffffffffffffffffffffffffffffffffff1673ffffffffffffffffffffffffffffffffffffffff167f8be0079c531659141344cd1fd0a4f28419497f9722a3daafe3b4186f6b6457e060405160405180910390a36000600660006101000a81548173ffffffffffffffffffffffffffffffffffffffff021916908373ffffffffffffffffffffffffffffffffffffffff160217905550565b610b3161157f565b73ffffffffffffffffffffffffffffffffffffffff16610b4f610be9565b73ffffffffffffffffffffffffffffffffffffffff1614610ba5576040517f08c379a0000000000000000000000000000000000000000000000000000000008152600401610b9c9061299f565b60405180910390fd5b80600760006101000a81548173ffffffffffffffffffffffffffffffffffffffff021916908373ffffffffffffffffffffffffffffffffffffffff16021790555050565b6000600660009054906101000a900473ffffffffffffffffffffffffffffffffffffffff16905090565b606060018054610c2290612c68565b80601f0160208091040260200160405190810160405280929190818152602001828054610c4e90612c68565b8015610c9b5780601f10610c7057610100808354040283529160200191610c9b565b820191906000526020600020905b815481529060010190602001808311610c7e57829003601f168201915b5050505050905090565b610cad61157f565b73ffffffffffffffffffffffffffffffffffffffff168273ffffffffffffffffffffffffffffffffffffffff161415610d1b576040517f08c379a0000000000000000000000000000000000000000000000000000000008152600401610d12906128bf565b60405180910390fd5b8060056000610d2861157f565b73ffffffffffffffffffffffffffffffffffffffff1673ffffffffffffffffffffffffffffffffffffffff16815260200190815260200160002060008473ffffffffffffffffffffffffffffffffffffffff1673ffffffffffffffffffffffffffffffffffffffff16815260200190815260200160002060006101000a81548160ff0219169083151502179055508173ffffffffffffffffffffffffffffffffffffffff16610dd561157f565b73ffffffffffffffffffffffffffffffffffffffff167f17307eab39ab6107e8899845ad3d59bd9653f200f220920489ca2b5937696c3183604051610e1a91906127e2565b60405180910390a35050565b826000610e3282610934565b90506000600760009054906101000a900473ffffffffffffffffffffffffffffffffffffffff1673ffffffffffffffffffffffffffffffffffffffff16633da1c0c3846040518263ffffffff1660e01b8152600401610e919190612749565b60206040518083038186803b158015610ea957600080fd5b505afa158015610ebd573d6000803e3d6000fd5b505050506040513d601f19601f82011682018060405250810190610ee1919061228f565b90508080610eef5750600a82105b610f2e576040517f08c379a0000000000000000000000000000000000000000000000000000000008152600401610f259061287f565b60405180910390fd5b610f3f610f3961157f565b86611640565b610f7e576040517f08c379a0000000000000000000000000000000000000000000000000000000008152600401610f7590612a1f565b60405180910390fd5b610f8a8787878761197a565b50505050505050565b6060610f9e82611513565b610fdd576040517f08c379a0000000000000000000000000000000000000000000000000000000008152600401610fd4906129df565b60405180910390fd5b6000610fe76119d6565b905060008151116110935760086000848152602001908152602001600020805461101090612c68565b80601f016020809104026020016040519081016040528092919081815260200182805461103c90612c68565b80156110895780601f1061105e57610100808354040283529160200191611089565b820191906000526020600020905b81548152906001019060200180831161106c57829003601f168201915b50505050506110c8565b80600860008581526020019081526020016000206040516020016110b8929190612725565b6040516020818303038152906040525b915050919050565b60008360006110de82610934565b90506000600760009054906101000a900473ffffffffffffffffffffffffffffffffffffffff1673ffffffffffffffffffffffffffffffffffffffff16633da1c0c3846040518263ffffffff1660e01b815260040161113d9190612749565b60206040518083038186803b15801561115557600080fd5b505afa158015611169573d6000803e3d6000fd5b505050506040513d601f19601f8201168201806040525081019061118d919061228f565b9050808061119b5750600a82105b6111da576040517f08c379a00000000000000000000000000000000000000000000000000000000081526004016111d19061287f565b60405180910390fd5b6111e5878787611a13565b93505050509392505050565b6000600560008473ffffffffffffffffffffffffffffffffffffffff1673ffffffffffffffffffffffffffffffffffffffff16815260200190815260200160002060008373ffffffffffffffffffffffffffffffffffffffff1673ffffffffffffffffffffffffffffffffffffffff16815260200190815260200160002060009054906101000a900460ff16905092915050565b61128d61157f565b73ffffffffffffffffffffffffffffffffffffffff166112ab610be9565b73ffffffffffffffffffffffffffffffffffffffff1614611301576040517f08c379a00000000000000000000000000000000000000000000000000000000081526004016112f89061299f565b60405180910390fd5b600073ffffffffffffffffffffffffffffffffffffffff168173ffffffffffffffffffffffffffffffffffffffff161415611371576040517f08c379a00000000000000000000000000000000000000000000000000000000081526004016113689061283f565b60405180910390fd5b8073ffffffffffffffffffffffffffffffffffffffff16600660009054906101000a900473ffffffffffffffffffffffffffffffffffffffff1673ffffffffffffffffffffffffffffffffffffffff167f8be0079c531659141344cd1fd0a4f28419497f9722a3daafe3b4186f6b6457e060405160405180910390a380600660006101000a81548173ffffffffffffffffffffffffffffffffffffffff021916908373ffffffffffffffffffffffffffffffffffffffff16021790555050565b60007f80ac58cd000000000000000000000000000000000000000000000000000000007bffffffffffffffffffffffffffffffffffffffffffffffffffffffff1916827bffffffffffffffffffffffffffffffffffffffffffffffffffffffff191614806114fc57507f5b5e139f000000000000000000000000000000000000000000000000000000007bffffffffffffffffffffffffffffffffffffffffffffffffffffffff1916827bffffffffffffffffffffffffffffffffffffffffffffffffffffffff1916145b8061150c575061150b82611a66565b5b9050919050565b60008073ffffffffffffffffffffffffffffffffffffffff166002600084815260200190815260200160002060009054906101000a900473ffffffffffffffffffffffffffffffffffffffff1673ffffffffffffffffffffffffffffffffffffffff1614159050919050565b600033905090565b816004600083815260200190815260200160002060006101000a81548173ffffffffffffffffffffffffffffffffffffffff021916908373ffffffffffffffffffffffffffffffffffffffff160217905550808273ffffffffffffffffffffffffffffffffffffffff166115fa83610882565b73ffffffffffffffffffffffffffffffffffffffff167f8c5be1e5ebec7d5bd14f71427d1e84f3dd0314c0f7b2291e5b200ac8c7c3b92560405160405180910390a45050565b600061164b82611513565b61168a576040517f08c379a0000000000000000000000000000000000000000000000000000000008152600401611681906128df565b60405180910390fd5b600061169583610882565b90508073ffffffffffffffffffffffffffffffffffffffff168473ffffffffffffffffffffffffffffffffffffffff16148061170457508373ffffffffffffffffffffffffffffffffffffffff166116ec84610530565b73ffffffffffffffffffffffffffffffffffffffff16145b80611715575061171481856111f1565b5b91505092915050565b8273ffffffffffffffffffffffffffffffffffffffff1661173e82610882565b73ffffffffffffffffffffffffffffffffffffffff1614611794576040517f08c379a000000000000000000000000000000000000000000000000000000000815260040161178b906129bf565b60405180910390fd5b600073ffffffffffffffffffffffffffffffffffffffff168273ffffffffffffffffffffffffffffffffffffffff161415611804576040517f08c379a00000000000000000000000000000000000000000000000000000000081526004016117fb9061289f565b60405180910390fd5b61180f838383611ad0565b61181a600082611587565b6001600360008573ffffffffffffffffffffffffffffffffffffffff1673ffffffffffffffffffffffffffffffffffffffff168152602001908152602001600020600082825461186a9190612b7e565b925050819055506001600360008473ffffffffffffffffffffffffffffffffffffffff1673ffffffffffffffffffffffffffffffffffffffff16815260200190815260200160002060008282546118c19190612b28565b92505081905550816002600083815260200190815260200160002060006101000a81548173ffffffffffffffffffffffffffffffffffffffff021916908373ffffffffffffffffffffffffffffffffffffffff160217905550808273ffffffffffffffffffffffffffffffffffffffff168473ffffffffffffffffffffffffffffffffffffffff167fddf252ad1be2c89b69c2b068fc378daa952ba7f163c4a11628f55a4df523b3ef60405160405180910390a4505050565b61198584848461171e565b61199184848484611ad5565b6119d0576040517f08c379a00000000000000000000000000000000000000000000000000000000081526004016119c79061281f565b60405180910390fd5b50505050565b60606040518060400160405280600781526020017f697066733a2f2f00000000000000000000000000000000000000000000000000815250905090565b600080848484604051602001611a2b939291906127b0565b6040516020818303038152906040528051906020012060001c9050611a508582611c6c565b611a5b818585611e3a565b809150509392505050565b60007f01ffc9a7000000000000000000000000000000000000000000000000000000007bffffffffffffffffffffffffffffffffffffffffffffffffffffffff1916827bffffffffffffffffffffffffffffffffffffffffffffffffffffffff1916149050919050565b505050565b6000611af68473ffffffffffffffffffffffffffffffffffffffff16611eaa565b15611c5f578373ffffffffffffffffffffffffffffffffffffffff1663150b7a02611b1f61157f565b8786866040518563ffffffff1660e01b8152600401611b419493929190612764565b602060405180830381600087803b158015611b5b57600080fd5b505af1925050508015611b8c57506040513d601f19601f82011682018060405250810190611b8991906122e1565b60015b611c0f573d8060008114611bbc576040519150601f19603f3d011682016040523d82523d6000602084013e611bc1565b606091505b50600081511415611c07576040517f08c379a0000000000000000000000000000000000000000000000000000000008152600401611bfe9061281f565b60405180910390fd5b805181602001fd5b63150b7a0260e01b7bffffffffffffffffffffffffffffffffffffffffffffffffffffffff1916817bffffffffffffffffffffffffffffffffffffffffffffffffffffffff191614915050611c64565b600190505b949350505050565b600073ffffffffffffffffffffffffffffffffffffffff168273ffffffffffffffffffffffffffffffffffffffff161415611cdc576040517f08c379a0000000000000000000000000000000000000000000000000000000008152600401611cd39061295f565b60405180910390fd5b611ce581611513565b15611d25576040517f08c379a0000000000000000000000000000000000000000000000000000000008152600401611d1c9061285f565b60405180910390fd5b611d3160008383611ad0565b6001600360008473ffffffffffffffffffffffffffffffffffffffff1673ffffffffffffffffffffffffffffffffffffffff1681526020019081526020016000206000828254611d819190612b28565b92505081905550816002600083815260200190815260200160002060006101000a81548173ffffffffffffffffffffffffffffffffffffffff021916908373ffffffffffffffffffffffffffffffffffffffff160217905550808273ffffffffffffffffffffffffffffffffffffffff16600073ffffffffffffffffffffffffffffffffffffffff167fddf252ad1be2c89b69c2b068fc378daa952ba7f163c4a11628f55a4df523b3ef60405160405180910390a45050565b611e4383611513565b611e82576040517f08c379a0000000000000000000000000000000000000000000000000000000008152600401611e7990612a3f565b60405180910390fd5b8181600860008681526020019081526020016000209190611ea4929190611ebd565b50505050565b600080823b905060008111915050919050565b828054611ec990612c68565b90600052602060002090601f016020900481019282611eeb5760008555611f32565b82601f10611f0457803560ff1916838001178555611f32565b82800160010185558215611f32579182015b82811115611f31578235825591602001919060010190611f16565b5b509050611f3f9190611f43565b5090565b5b80821115611f5c576000816000905550600101611f44565b5090565b6000611f73611f6e84612a9f565b612a7a565b905082815260208101848484011115611f8b57600080fd5b611f96848285612c26565b509392505050565b600081359050611fad81613213565b92915050565b600081359050611fc28161322a565b92915050565b600081519050611fd78161322a565b92915050565b600081359050611fec81613241565b92915050565b60008151905061200181613241565b92915050565b600082601f83011261201857600080fd5b8135612028848260208601611f60565b91505092915050565b60008083601f84011261204357600080fd5b8235905067ffffffffffffffff81111561205c57600080fd5b60208301915083600182028301111561207457600080fd5b9250929050565b60008135905061208a81613258565b92915050565b6000602082840312156120a257600080fd5b60006120b084828501611f9e565b91505092915050565b600080604083850312156120cc57600080fd5b60006120da85828601611f9e565b92505060206120eb85828601611f9e565b9150509250929050565b60008060006060848603121561210a57600080fd5b600061211886828701611f9e565b935050602061212986828701611f9e565b925050604061213a8682870161207b565b9150509250925092565b6000806000806080858703121561215a57600080fd5b600061216887828801611f9e565b945050602061217987828801611f9e565b935050604061218a8782880161207b565b925050606085013567ffffffffffffffff8111156121a757600080fd5b6121b387828801612007565b91505092959194509250565b600080604083850312156121d257600080fd5b60006121e085828601611f9e565b92505060206121f185828601611fb3565b9150509250929050565b60008060006040848603121561221057600080fd5b600061221e86828701611f9e565b935050602084013567ffffffffffffffff81111561223b57600080fd5b61224786828701612031565b92509250509250925092565b6000806040838503121561226657600080fd5b600061227485828601611f9e565b92505060206122858582860161207b565b9150509250929050565b6000602082840312156122a157600080fd5b60006122af84828501611fc8565b91505092915050565b6000602082840312156122ca57600080fd5b60006122d884828501611fdd565b91505092915050565b6000602082840312156122f357600080fd5b600061230184828501611ff2565b91505092915050565b60006020828403121561231c57600080fd5b600061232a8482850161207b565b91505092915050565b61233c81612bb2565b82525050565b61234b81612bc4565b82525050565b600061235c82612ae5565b6123668185612afb565b9350612376818560208601612c35565b61237f81612d58565b840191505092915050565b60006123968385612b0c565b93506123a3838584612c26565b6123ac83612d58565b840190509392505050565b60006123c282612af0565b6123cc8185612b0c565b93506123dc818560208601612c35565b6123e581612d58565b840191505092915050565b60006123fb82612af0565b6124058185612b1d565b9350612415818560208601612c35565b80840191505092915050565b6000815461242e81612c68565b6124388186612b1d565b94506001821660008114612453576001811461246457612497565b60ff19831686528186019350612497565b61246d85612ad0565b60005b8381101561248f57815481890152600182019150602081019050612470565b838801955050505b50505092915050565b60006124ad603283612b0c565b91506124b882612d69565b604082019050919050565b60006124d0602683612b0c565b91506124db82612db8565b604082019050919050565b60006124f3601c83612b0c565b91506124fe82612e07565b602082019050919050565b6000612516601683612b0c565b915061252182612e30565b602082019050919050565b6000612539602483612b0c565b915061254482612e59565b604082019050919050565b600061255c601983612b0c565b915061256782612ea8565b602082019050919050565b600061257f602c83612b0c565b915061258a82612ed1565b604082019050919050565b60006125a2603883612b0c565b91506125ad82612f20565b604082019050919050565b60006125c5602a83612b0c565b91506125d082612f6f565b604082019050919050565b60006125e8602983612b0c565b91506125f382612fbe565b604082019050919050565b600061260b602083612b0c565b91506126168261300d565b602082019050919050565b600061262e602c83612b0c565b915061263982613036565b604082019050919050565b6000612651602083612b0c565b915061265c82613085565b602082019050919050565b6000612674602983612b0c565b915061267f826130ae565b604082019050919050565b6000612697602f83612b0c565b91506126a2826130fd565b604082019050919050565b60006126ba602183612b0c565b91506126c58261314c565b604082019050919050565b60006126dd603183612b0c565b91506126e88261319b565b604082019050919050565b6000612700601483612b0c565b915061270b826131ea565b602082019050919050565b61271f81612c1c565b82525050565b600061273182856123f0565b915061273d8284612421565b91508190509392505050565b600060208201905061275e6000830184612333565b92915050565b60006080820190506127796000830187612333565b6127866020830186612333565b6127936040830185612716565b81810360608301526127a58184612351565b905095945050505050565b60006040820190506127c56000830186612333565b81810360208301526127d881848661238a565b9050949350505050565b60006020820190506127f76000830184612342565b92915050565b6000602082019050818103600083015261281781846123b7565b905092915050565b60006020820190508181036000830152612838816124a0565b9050919050565b60006020820190508181036000830152612858816124c3565b9050919050565b60006020820190508181036000830152612878816124e6565b9050919050565b6000602082019050818103600083015261289881612509565b9050919050565b600060208201905081810360008301526128b88161252c565b9050919050565b600060208201905081810360008301526128d88161254f565b9050919050565b600060208201905081810360008301526128f881612572565b9050919050565b6000602082019050818103600083015261291881612595565b9050919050565b60006020820190508181036000830152612938816125b8565b9050919050565b60006020820190508181036000830152612958816125db565b9050919050565b60006020820190508181036000830152612978816125fe565b9050919050565b6000602082019050818103600083015261299881612621565b9050919050565b600060208201905081810360008301526129b881612644565b9050919050565b600060208201905081810360008301526129d881612667565b9050919050565b600060208201905081810360008301526129f88161268a565b9050919050565b60006020820190508181036000830152612a18816126ad565b9050919050565b60006020820190508181036000830152612a38816126d0565b9050919050565b60006020820190508181036000830152612a58816126f3565b9050919050565b6000602082019050612a746000830184612716565b92915050565b6000612a84612a95565b9050612a908282612c9a565b919050565b6000604051905090565b600067ffffffffffffffff821115612aba57612ab9612d29565b5b612ac382612d58565b9050602081019050919050565b60008190508160005260206000209050919050565b600081519050919050565b600081519050919050565b600082825260208201905092915050565b600082825260208201905092915050565b600081905092915050565b6000612b3382612c1c565b9150612b3e83612c1c565b9250827fffffffffffffffffffffffffffffffffffffffffffffffffffffffffffffffff03821115612b7357612b72612ccb565b5b828201905092915050565b6000612b8982612c1c565b9150612b9483612c1c565b925082821015612ba757612ba6612ccb565b5b828203905092915050565b6000612bbd82612bfc565b9050919050565b60008115159050919050565b60007fffffffff0000000000000000000000000000000000000000000000000000000082169050919050565b600073ffffffffffffffffffffffffffffffffffffffff82169050919050565b6000819050919050565b82818337600083830152505050565b60005b83811015612c53578082015181840152602081019050612c38565b83811115612c62576000848401525b50505050565b60006002820490506001821680612c8057607f821691505b60208210811415612c9457612c93612cfa565b5b50919050565b612ca382612d58565b810181811067ffffffffffffffff82111715612cc257612cc1612d29565b5b80604052505050565b7f4e487b7100000000000000000000000000000000000000000000000000000000600052601160045260246000fd5b7f4e487b7100000000000000000000000000000000000000000000000000000000600052602260045260246000fd5b7f4e487b7100000000000000000000000000000000000000000000000000000000600052604160045260246000fd5b6000601f19601f8301169050919050565b7f4552433732313a207472616e7366657220746f206e6f6e20455243373231526560008201527f63656976657220696d706c656d656e7465720000000000000000000000000000602082015250565b7f4f776e61626c653a206e6577206f776e657220697320746865207a65726f206160008201527f6464726573730000000000000000000000000000000000000000000000000000602082015250565b7f4552433732313a20746f6b656e20616c7265616479206d696e74656400000000600082015250565b7f4e46545f434f554e545f4d41585f455843454544454400000000000000000000600082015250565b7f4552433732313a207472616e7366657220746f20746865207a65726f2061646460008201527f7265737300000000000000000000000000000000000000000000000000000000602082015250565b7f4552433732313a20617070726f766520746f2063616c6c657200000000000000600082015250565b7f4552433732313a206f70657261746f7220717565727920666f72206e6f6e657860008201527f697374656e7420746f6b656e0000000000000000000000000000000000000000602082015250565b7f4552433732313a20617070726f76652063616c6c6572206973206e6f74206f7760008201527f6e6572206e6f7220617070726f76656420666f7220616c6c0000000000000000602082015250565b7f4552433732313a2062616c616e636520717565727920666f7220746865207a6560008201527f726f206164647265737300000000000000000000000000000000000000000000602082015250565b7f4552433732313a206f776e657220717565727920666f72206e6f6e657869737460008201527f656e7420746f6b656e0000000000000000000000000000000000000000000000602082015250565b7f4552433732313a206d696e7420746f20746865207a65726f2061646472657373600082015250565b7f4552433732313a20617070726f76656420717565727920666f72206e6f6e657860008201527f697374656e7420746f6b656e0000000000000000000000000000000000000000602082015250565b7f4f776e61626c653a2063616c6c6572206973206e6f7420746865206f776e6572600082015250565b7f4552433732313a207472616e73666572206f6620746f6b656e2074686174206960008201527f73206e6f74206f776e0000000000000000000000000000000000000000000000602082015250565b7f4552433732314d657461646174613a2055524920717565727920666f72206e6f60008201527f6e6578697374656e7420746f6b656e0000000000000000000000000000000000602082015250565b7f4552433732313a20617070726f76616c20746f2063757272656e74206f776e6560008201527f7200000000000000000000000000000000000000000000000000000000000000602082015250565b7f4552433732313a207472616e736665722063616c6c6572206973206e6f74206f60008201527f776e6572206e6f7220617070726f766564000000000000000000000000000000602082015250565b7f544f4b454e5f49445f4e4f545f45584953544544000000000000000000000000600082015250565b61321c81612bb2565b811461322757600080fd5b50565b61323381612bc4565b811461323e57600080fd5b50565b61324a81612bd0565b811461325557600080fd5b50565b61326181612c1c565b811461326c57600080fd5b5056fea26469706673582212209e8b3c2da82b1cdc21cb67b387ea8423f1ccfbec345297dbbf1387f00fef609664736f6c63430008040033",
  "immutableReferences": {},
  "source": "// SPDX-License-Identifier: MIT\n\npragma solidity 0.8.4;\n\nimport \"./lib/token/ERC721/ERC721.sol\";\nimport \"./lib/access/AccessControl.sol\";\nimport \"./ITaureumKYC.sol\";\nimport \"./lib/access/Ownable.sol\";\n\ncontract TaureumERC721 is ERC721, Ownable {\n    /**\n     * @dev The contract address for the KYC entry.\n     */\n    address internal _KYCAddress;\n\n    /**\n     * @dev Mapping from NFT ID to metadata uri.\n     */\n    mapping(uint256 => string) internal idToUri;\n\n    /**\n   * @dev Guarantee that _to is able to receive more NFTs.\n   * @param _to Owner address to validate.\n   */\n    modifier canReceiveNFT(\n        address _to\n    )\n    {\n        uint256 balance = balanceOf(_to);\n        bool isVerifiedUser = ITaureumKYC(_KYCAddress).isVerifiedUser(_to);\n\n        require(isVerifiedUser || balance < 10, \"NFT_COUNT_MAX_EXCEEDED\");\n        _;\n    }\n\n    /**\n     * @dev Create a new TaureumERC721 contract and assign the KYCAddress to _KYCAddress.\n     *\n     * TODO: change the default name and symbol.\n     */\n    constructor(address KYCAddress) ERC721(\"Taureum ERC721\", \"Taureum\") Ownable() {\n        _KYCAddress = KYCAddress;\n    }\n\n    /**\n     * @dev See {IERC165-supportsInterface}.\n     */\n    function supportsInterface(bytes4 interfaceId) public view virtual override returns (bool) {\n        return\n        interfaceId == type(IERC721).interfaceId ||\n        interfaceId == type(IERC721Metadata).interfaceId ||\n        super.supportsInterface(interfaceId);\n    }\n\n    /**\n      * @dev Mint a new NFT.\n      * @notice It throws an exception if\n      *    - `to` cannot receive NFTs.\n      * @param to The address that will own the minted NFT.\n      * @param uri The URI consists of metadata description of the minting NFT on the IPFS (without prefix).\n      */\n    function mint(\n        address to,\n        string calldata uri\n    )\n    public\n    canReceiveNFT(to)\n    returns (uint256)\n    {\n        return _mint(to, uri);\n    }\n\n    /**\n     * @dev See {IERC721Metadata-tokenURI}.\n     */\n    function tokenURI(uint256 tokenId) public view override returns (string memory) {\n        require(_exists(tokenId), \"ERC721Metadata: URI query for nonexistent token\");\n\n        string memory baseURI = _baseURI();\n        return bytes(baseURI).length > 0 ? string(abi.encodePacked(baseURI, idToUri[tokenId])) : idToUri[tokenId];\n    }\n\n    /**\n     * @dev See {IERC721-transferFrom}.\n     * @notice It throws an exception if\n     *      - the tokenId is not transferable.\n     *      - the receiver `to` cannot receive more TaureumNFTs.\n     */\n    function transferFrom(\n        address from,\n        address to,\n        uint256 tokenId\n    ) public override canReceiveNFT(to) {\n        //solhint-disable-next-line max-line-length\n        require(_isApprovedOrOwner(_msgSender(), tokenId), \"ERC721: transfer caller is not owner nor approved\");\n\n        _transfer(from, to, tokenId);\n    }\n\n    /**\n     * @dev See {IERC721-safeTransferFrom}.\n     * @notice It throws an exception if\n     *      - the tokenId is not transferable.\n     *      - the receiver `to` cannot receive more TaureumNFTs.\n     */\n    function safeTransferFrom(\n        address from,\n        address to,\n        uint256 tokenId,\n        bytes memory _data\n    ) public override canReceiveNFT(to) {\n        require(_isApprovedOrOwner(_msgSender(), tokenId), \"ERC721: transfer caller is not owner nor approved\");\n        _safeTransfer(from, to, tokenId, _data);\n    }\n\n    /**\n     * @dev Reset the `_KYCAddress` to kycAddr.\n     * @notice Only the owner of this contract is able to change the the KYC contract address.\n     */\n    function setKYCImplementation(address kycAddr) onlyOwner external {\n        _KYCAddress = kycAddr;\n    }\n\n    /**\n     * @dev Reset the `_KYCAddress` to kycAddr.\n     * @notice Only the owner of this contract is able to change the the KYC contract address.\n     */\n    function getKYCAddress() public view returns(address) {\n        return _KYCAddress;\n    }\n\n    /**\n      * @dev Mint a new NFT.\n      * @notice It throws an exception if\n      *    - `license` is not valid.\n      *    - `expiryBlock` is less than the current block number.\n      * @param to The address that will own the minted NFT.\n      * @param uri The URI consists of metadata description of the minting NFT on the IPFS (without prefix).\n      */\n    function _mint(\n        address to,\n        string calldata uri\n    )\n    internal\n    returns (uint256)\n    {\n        uint256 id = uint256(keccak256(abi.encode(to, uri)));\n\n        super._mint(to, id);\n        _setTokenUri(id, uri);\n\n        return id;\n    }\n\n    /**\n     * @dev Base URI for computing {tokenURI}. If set, the resulting URI for each\n     * token will be the concatenation of the `baseURI` and the `tokenId`.\n     */\n    function _baseURI() internal pure override returns (string memory) {\n        return \"ipfs://\";\n    }\n\n    /**\n     * @dev Set a distinct URI (RFC 3986) for a given NFT ID.\n     * @notice This is an internal function which should be called from user-implemented external\n     * function.\n     * @notice It throws an exception if the _tokenId does not exist.\n     * @param _tokenId Id for which we want URI.\n     * @param _uri String representing RFC 3986 URI.\n     */\n    function _setTokenUri(\n        uint256 _tokenId,\n        string calldata _uri\n    )\n    internal\n    {\n        require(_exists(_tokenId), \"TOKEN_ID_NOT_EXISTED\");\n        idToUri[_tokenId] = _uri;\n    }\n\n}\n",
  "sourcePath": "/home/toor/nodejs/truffle/nft_demo/taudefi/taudefi-nft/contracts/TaureumERC721.sol",
  "compiler": {
    "name": "solc",
    "version": "0.8.4+commit.c7e474f2.Emscripten.clang"
  },
  "schemaVersion": "3.4.1",
  "updatedAt": "2021-07-23T07:56:44.007Z",
  "networkType": "ethereum",
  "devdoc": {
    "kind": "dev",
    "methods": {
      "approve(address,uint256)": {
        "details": "See {IERC721-approve}."
      },
      "balanceOf(address)": {
        "details": "See {IERC721-balanceOf}."
      },
      "constructor": {
        "details": "Create a new TaureumERC721 contract and assign the KYCAddress to _KYCAddress. TODO: change the default name and symbol."
      },
      "getApproved(uint256)": {
        "details": "See {IERC721-getApproved}."
      },
      "getKYCAddress()": {
        "details": "Reset the `_KYCAddress` to kycAddr."
      },
      "isApprovedForAll(address,address)": {
        "details": "See {IERC721-isApprovedForAll}."
      },
      "mint(address,string)": {
        "details": "Mint a new NFT.",
        "params": {
          "to": "The address that will own the minted NFT.",
          "uri": "The URI consists of metadata description of the minting NFT on the IPFS (without prefix)."
        }
      },
      "name()": {
        "details": "See {IERC721Metadata-name}."
      },
      "owner()": {
        "details": "Returns the address of the current owner."
      },
      "ownerOf(uint256)": {
        "details": "See {IERC721-ownerOf}."
      },
      "renounceOwnership()": {
        "details": "Leaves the contract without owner. It will not be possible to call `onlyOwner` functions anymore. Can only be called by the current owner. NOTE: Renouncing ownership will leave the contract without an owner, thereby removing any functionality that is only available to the owner."
      },
      "safeTransferFrom(address,address,uint256)": {
        "details": "See {IERC721-safeTransferFrom}."
      },
      "safeTransferFrom(address,address,uint256,bytes)": {
        "details": "See {IERC721-safeTransferFrom}."
      },
      "setApprovalForAll(address,bool)": {
        "details": "See {IERC721-setApprovalForAll}."
      },
      "setKYCImplementation(address)": {
        "details": "Reset the `_KYCAddress` to kycAddr."
      },
      "supportsInterface(bytes4)": {
        "details": "See {IERC165-supportsInterface}."
      },
      "symbol()": {
        "details": "See {IERC721Metadata-symbol}."
      },
      "tokenURI(uint256)": {
        "details": "See {IERC721Metadata-tokenURI}."
      },
      "transferFrom(address,address,uint256)": {
        "details": "See {IERC721-transferFrom}."
      },
      "transferOwnership(address)": {
        "details": "Transfers ownership of the contract to a new account (`newOwner`). Can only be called by the current owner."
      }
    },
    "stateVariables": {
      "_KYCAddress": {
        "details": "The contract address for the KYC entry."
      },
      "idToUri": {
        "details": "Mapping from NFT ID to metadata uri."
      }
    },
    "version": 1
  },
  "userdoc": {
    "kind": "user",
    "methods": {
      "getKYCAddress()": {
        "notice": "Only the owner of this contract is able to change the the KYC contract address."
      },
      "mint(address,string)": {
        "notice": "It throws an exception if    - `to` cannot receive NFTs."
      },
      "safeTransferFrom(address,address,uint256,bytes)": {
        "notice": "It throws an exception if      - the tokenId is not transferable.      - the receiver `to` cannot receive more TaureumNFTs."
      },
      "setKYCImplementation(address)": {
        "notice": "Only the owner of this contract is able to change the the KYC contract address."
      },
      "transferFrom(address,address,uint256)": {
        "notice": "It throws an exception if      - the tokenId is not transferable.      - the receiver `to` cannot receive more TaureumNFTs."
      }
    },
    "version": 1
  }
}