{
  "contractName": "TaureumNFT",
  "abi": [
    {
      "inputs": [
        {
          "internalType": "address",
          "name": "KYCAddress",
          "type": "address"
        }
      ],
      "stateMutability": "nonpayable",
      "type": "constructor"
    },
    {
      "anonymous": false,
      "inputs": [
        {
          "indexed": true,
          "internalType": "address",
          "name": "owner",
          "type": "address"
        },
        {
          "indexed": true,
          "internalType": "address",
          "name": "approved",
          "type": "address"
        },
        {
          "indexed": true,
          "internalType": "uint256",
          "name": "tokenId",
          "type": "uint256"
        }
      ],
      "name": "Approval",
      "type": "event"
    },
    {
      "anonymous": false,
      "inputs": [
        {
          "indexed": true,
          "internalType": "address",
          "name": "owner",
          "type": "address"
        },
        {
          "indexed": true,
          "internalType": "address",
          "name": "operator",
          "type": "address"
        },
        {
          "indexed": false,
          "internalType": "bool",
          "name": "approved",
          "type": "bool"
        }
      ],
      "name": "ApprovalForAll",
      "type": "event"
    },
    {
      "anonymous": false,
      "inputs": [
        {
          "indexed": true,
          "internalType": "address",
          "name": "to",
          "type": "address"
        },
        {
          "indexed": true,
          "internalType": "uint256",
          "name": "tokenId",
          "type": "uint256"
        },
        {
          "indexed": false,
          "internalType": "string",
          "name": "uri",
          "type": "string"
        },
        {
          "indexed": false,
          "internalType": "uint256",
          "name": "expiryDate",
          "type": "uint256"
        }
      ],
      "name": "Mint",
      "type": "event"
    },
    {
      "anonymous": false,
      "inputs": [
        {
          "indexed": true,
          "internalType": "address",
          "name": "previousOwner",
          "type": "address"
        },
        {
          "indexed": true,
          "internalType": "address",
          "name": "newOwner",
          "type": "address"
        }
      ],
      "name": "OwnershipTransferred",
      "type": "event"
    },
    {
      "anonymous": false,
      "inputs": [
        {
          "indexed": true,
          "internalType": "address",
          "name": "from",
          "type": "address"
        },
        {
          "indexed": true,
          "internalType": "address",
          "name": "to",
          "type": "address"
        },
        {
          "indexed": true,
          "internalType": "uint256",
          "name": "tokenId",
          "type": "uint256"
        }
      ],
      "name": "Transfer",
      "type": "event"
    },
    {
      "inputs": [
        {
          "internalType": "address",
          "name": "to",
          "type": "address"
        },
        {
          "internalType": "uint256",
          "name": "tokenId",
          "type": "uint256"
        }
      ],
      "name": "approve",
      "outputs": [],
      "stateMutability": "nonpayable",
      "type": "function"
    },
    {
      "inputs": [
        {
          "internalType": "address",
          "name": "owner",
          "type": "address"
        }
      ],
      "name": "balanceOf",
      "outputs": [
        {
          "internalType": "uint256",
          "name": "",
          "type": "uint256"
        }
      ],
      "stateMutability": "view",
      "type": "function",
      "constant": true
    },
    {
      "inputs": [
        {
          "internalType": "uint256",
          "name": "tokenId",
          "type": "uint256"
        }
      ],
      "name": "getApproved",
      "outputs": [
        {
          "internalType": "address",
          "name": "",
          "type": "address"
        }
      ],
      "stateMutability": "view",
      "type": "function",
      "constant": true
    },
    {
      "inputs": [
        {
          "internalType": "address",
          "name": "owner",
          "type": "address"
        },
        {
          "internalType": "address",
          "name": "operator",
          "type": "address"
        }
      ],
      "name": "isApprovedForAll",
      "outputs": [
        {
          "internalType": "bool",
          "name": "",
          "type": "bool"
        }
      ],
      "stateMutability": "view",
      "type": "function",
      "constant": true
    },
    {
      "inputs": [],
      "name": "name",
      "outputs": [
        {
          "internalType": "string",
          "name": "",
          "type": "string"
        }
      ],
      "stateMutability": "view",
      "type": "function",
      "constant": true
    },
    {
      "inputs": [],
      "name": "owner",
      "outputs": [
        {
          "internalType": "address",
          "name": "",
          "type": "address"
        }
      ],
      "stateMutability": "view",
      "type": "function",
      "constant": true
    },
    {
      "inputs": [
        {
          "internalType": "uint256",
          "name": "tokenId",
          "type": "uint256"
        }
      ],
      "name": "ownerOf",
      "outputs": [
        {
          "internalType": "address",
          "name": "",
          "type": "address"
        }
      ],
      "stateMutability": "view",
      "type": "function",
      "constant": true
    },
    {
      "inputs": [],
      "name": "renounceOwnership",
      "outputs": [],
      "stateMutability": "nonpayable",
      "type": "function"
    },
    {
      "inputs": [
        {
          "internalType": "address",
          "name": "operator",
          "type": "address"
        },
        {
          "internalType": "bool",
          "name": "approved",
          "type": "bool"
        }
      ],
      "name": "setApprovalForAll",
      "outputs": [],
      "stateMutability": "nonpayable",
      "type": "function"
    },
    {
      "inputs": [],
      "name": "symbol",
      "outputs": [
        {
          "internalType": "string",
          "name": "",
          "type": "string"
        }
      ],
      "stateMutability": "view",
      "type": "function",
      "constant": true
    },
    {
      "inputs": [
        {
          "internalType": "address",
          "name": "newOwner",
          "type": "address"
        }
      ],
      "name": "transferOwnership",
      "outputs": [],
      "stateMutability": "nonpayable",
      "type": "function"
    },
    {
      "inputs": [
        {
          "internalType": "bytes4",
          "name": "interfaceId",
          "type": "bytes4"
        }
      ],
      "name": "supportsInterface",
      "outputs": [
        {
          "internalType": "bool",
          "name": "",
          "type": "bool"
        }
      ],
      "stateMutability": "view",
      "type": "function",
      "constant": true
    },
    {
      "inputs": [
        {
          "internalType": "address",
          "name": "to",
          "type": "address"
        },
        {
          "internalType": "string",
          "name": "uri",
          "type": "string"
        },
        {
          "internalType": "uint8",
          "name": "license",
          "type": "uint8"
        },
        {
          "internalType": "uint256",
          "name": "expiryDate",
          "type": "uint256"
        }
      ],
      "name": "mint",
      "outputs": [
        {
          "internalType": "uint256",
          "name": "",
          "type": "uint256"
        }
      ],
      "stateMutability": "nonpayable",
      "type": "function"
    },
    {
      "inputs": [
        {
          "internalType": "uint256",
          "name": "tokenId",
          "type": "uint256"
        }
      ],
      "name": "tokenURI",
      "outputs": [
        {
          "internalType": "string",
          "name": "",
          "type": "string"
        }
      ],
      "stateMutability": "view",
      "type": "function",
      "constant": true
    },
    {
      "inputs": [
        {
          "internalType": "uint256",
          "name": "_tokenId",
          "type": "uint256"
        }
      ],
      "name": "getTokenData",
      "outputs": [
        {
          "internalType": "bytes",
          "name": "tokenData",
          "type": "bytes"
        }
      ],
      "stateMutability": "view",
      "type": "function",
      "constant": true
    },
    {
      "inputs": [
        {
          "internalType": "address",
          "name": "from",
          "type": "address"
        },
        {
          "internalType": "address",
          "name": "to",
          "type": "address"
        },
        {
          "internalType": "uint256",
          "name": "tokenId",
          "type": "uint256"
        }
      ],
      "name": "transferFrom",
      "outputs": [],
      "stateMutability": "nonpayable",
      "type": "function"
    },
    {
      "inputs": [
        {
          "internalType": "address",
          "name": "from",
          "type": "address"
        },
        {
          "internalType": "address",
          "name": "to",
          "type": "address"
        },
        {
          "internalType": "uint256",
          "name": "tokenId",
          "type": "uint256"
        }
      ],
      "name": "safeTransferFrom",
      "outputs": [],
      "stateMutability": "nonpayable",
      "type": "function"
    },
    {
      "inputs": [
        {
          "internalType": "address",
          "name": "from",
          "type": "address"
        },
        {
          "internalType": "address",
          "name": "to",
          "type": "address"
        },
        {
          "internalType": "uint256",
          "name": "tokenId",
          "type": "uint256"
        },
        {
          "internalType": "bytes",
          "name": "_data",
          "type": "bytes"
        }
      ],
      "name": "safeTransferFrom",
      "outputs": [],
      "stateMutability": "nonpayable",
      "type": "function"
    },
    {
      "inputs": [
        {
          "internalType": "address",
          "name": "kycAddr",
          "type": "address"
        }
      ],
      "name": "setKYCImplementation",
      "outputs": [],
      "stateMutability": "nonpayable",
      "type": "function"
    },
    {
      "inputs": [],
      "name": "getKYCAddress",
      "outputs": [
        {
          "internalType": "address",
          "name": "",
          "type": "address"
        }
      ],
      "stateMutability": "view",
      "type": "function",
      "constant": true
    }
  ],
  "bytecode": "0x60806040523480156200001157600080fd5b5060405162003e8f38038062003e8f83398181016040528101906200003791906200029f565b6040518060400160405280600b81526020017f5461757265756d204e46540000000000000000000000000000000000000000008152506040518060400160405280600781526020017f5461757265756d000000000000000000000000000000000000000000000000008152508160009080519060200190620000bb929190620001d8565b508060019080519060200190620000d4929190620001d8565b5050506000620000e9620001d060201b60201c565b905080600660006101000a81548173ffffffffffffffffffffffffffffffffffffffff021916908373ffffffffffffffffffffffffffffffffffffffff1602179055508073ffffffffffffffffffffffffffffffffffffffff16600073ffffffffffffffffffffffffffffffffffffffff167f8be0079c531659141344cd1fd0a4f28419497f9722a3daafe3b4186f6b6457e060405160405180910390a35080600860006101000a81548173ffffffffffffffffffffffffffffffffffffffff021916908373ffffffffffffffffffffffffffffffffffffffff160217905550506200037e565b600033905090565b828054620001e690620002ff565b90600052602060002090601f0160209004810192826200020a576000855562000256565b82601f106200022557805160ff191683800117855562000256565b8280016001018555821562000256579182015b828111156200025557825182559160200191906001019062000238565b5b50905062000265919062000269565b5090565b5b80821115620002845760008160009055506001016200026a565b5090565b600081519050620002998162000364565b92915050565b600060208284031215620002b257600080fd5b6000620002c28482850162000288565b91505092915050565b6000620002d882620002df565b9050919050565b600073ffffffffffffffffffffffffffffffffffffffff82169050919050565b600060028204905060018216806200031857607f821691505b602082108114156200032f576200032e62000335565b5b50919050565b7f4e487b7100000000000000000000000000000000000000000000000000000000600052602260045260246000fd5b6200036f81620002cb565b81146200037b57600080fd5b50565b613b01806200038e6000396000f3fe608060405234801561001057600080fd5b506004361061012c5760003560e01c8063862b0604116100ad578063b88d4fde11610071578063b88d4fde1461032f578063c87b56dd1461034b578063e985e9c51461037b578063f2fde38b146103ab578063f67e3c4a146103c75761012c565b8063862b06041461028b5780638da5cb5b146102a757806395d89b41146102c5578063a22cb465146102e3578063b09afec1146102ff5761012c565b806342842e0e116100f457806342842e0e146101e75780635e336761146102035780636352211e1461022157806370a0823114610251578063715018a6146102815761012c565b806301ffc9a71461013157806306fdde0314610161578063081812fc1461017f578063095ea7b3146101af57806323b872dd146101cb575b600080fd5b61014b60048036038101906101469190612839565b6103f7565b6040516101589190612e62565b60405180910390f35b6101696104d9565b6040516101769190612e9f565b60405180910390f35b6101996004803603810190610194919061288b565b61056b565b6040516101a69190612dfb565b60405180910390f35b6101c960048036038101906101c491906127d4565b6105f0565b005b6101e560048036038101906101e0919061264e565b610708565b005b61020160048036038101906101fc919061264e565b6108bd565b005b61020b6108dd565b6040516102189190612dfb565b60405180910390f35b61023b6004803603810190610236919061288b565b610907565b6040516102489190612dfb565b60405180910390f35b61026b600480360381019061026691906125e9565b6109b9565b60405161027891906131a1565b60405180910390f35b610289610a71565b005b6102a560048036038101906102a091906125e9565b610bae565b005b6102af610c6e565b6040516102bc9190612dfb565b60405180910390f35b6102cd610c98565b6040516102da9190612e9f565b60405180910390f35b6102fd60048036038101906102f89190612718565b610d2a565b005b6103196004803603810190610314919061288b565b610eab565b6040516103269190612e7d565b60405180910390f35b6103496004803603810190610344919061269d565b610f94565b005b6103656004803603810190610360919061288b565b61114b565b6040516103729190612e9f565b60405180910390f35b61039560048036038101906103909190612612565b611288565b6040516103a29190612e62565b60405180910390f35b6103c560048036038101906103c091906125e9565b61131c565b005b6103e160048036038101906103dc9190612754565b6114c8565b6040516103ee91906131a1565b60405180910390f35b60007f80ac58cd000000000000000000000000000000000000000000000000000000007bffffffffffffffffffffffffffffffffffffffffffffffffffffffff1916827bffffffffffffffffffffffffffffffffffffffffffffffffffffffff191614806104c257507f5b5e139f000000000000000000000000000000000000000000000000000000007bffffffffffffffffffffffffffffffffffffffffffffffffffffffff1916827bffffffffffffffffffffffffffffffffffffffffffffffffffffffff1916145b806104d257506104d18261181d565b5b9050919050565b6060600080546104e8906133b7565b80601f0160208091040260200160405190810160405280929190818152602001828054610514906133b7565b80156105615780601f1061053657610100808354040283529160200191610561565b820191906000526020600020905b81548152906001019060200180831161054457829003601f168201915b5050505050905090565b6000610576826118ff565b6105b5576040517f08c379a00000000000000000000000000000000000000000000000000000000081526004016105ac90613061565b60405180910390fd5b6004600083815260200190815260200160002060009054906101000a900473ffffffffffffffffffffffffffffffffffffffff169050919050565b60006105fb82610907565b90508073ffffffffffffffffffffffffffffffffffffffff168373ffffffffffffffffffffffffffffffffffffffff16141561066c576040517f08c379a000000000000000000000000000000000000000000000000000000000815260040161066390613121565b60405180910390fd5b8073ffffffffffffffffffffffffffffffffffffffff1661068b61196b565b73ffffffffffffffffffffffffffffffffffffffff1614806106ba57506106b9816106b461196b565b611288565b5b6106f9576040517f08c379a00000000000000000000000000000000000000000000000000000000081526004016106f090612fa1565b60405180910390fd5b6107038383611973565b505050565b8061071281611a2c565b610751576040517f08c379a0000000000000000000000000000000000000000000000000000000008152600401610748906130a1565b60405180910390fd5b82600061075d826109b9565b90506000600860009054906101000a900473ffffffffffffffffffffffffffffffffffffffff1673ffffffffffffffffffffffffffffffffffffffff16633da1c0c3846040518263ffffffff1660e01b81526004016107bc9190612dfb565b60206040518083038186803b1580156107d457600080fd5b505afa1580156107e8573d6000803e3d6000fd5b505050506040513d601f19601f8201168201806040525081019061080c9190612810565b9050808061081a5750600a82105b610859576040517f08c379a000000000000000000000000000000000000000000000000000000000815260040161085090612f21565b60405180910390fd5b61086a61086461196b565b86611b2d565b6108a9576040517f08c379a00000000000000000000000000000000000000000000000000000000081526004016108a090613141565b60405180910390fd5b6108b4878787611c0b565b50505050505050565b6108d883838360405180602001604052806000815250610f94565b505050565b6000600860009054906101000a900473ffffffffffffffffffffffffffffffffffffffff16905090565b6000806002600084815260200190815260200160002060009054906101000a900473ffffffffffffffffffffffffffffffffffffffff169050600073ffffffffffffffffffffffffffffffffffffffff168173ffffffffffffffffffffffffffffffffffffffff1614156109b0576040517f08c379a00000000000000000000000000000000000000000000000000000000081526004016109a790612fe1565b60405180910390fd5b80915050919050565b60008073ffffffffffffffffffffffffffffffffffffffff168273ffffffffffffffffffffffffffffffffffffffff161415610a2a576040517f08c379a0000000000000000000000000000000000000000000000000000000008152600401610a2190612fc1565b60405180910390fd5b600360008373ffffffffffffffffffffffffffffffffffffffff1673ffffffffffffffffffffffffffffffffffffffff168152602001908152602001600020549050919050565b610a7961196b565b73ffffffffffffffffffffffffffffffffffffffff16610a97610c6e565b73ffffffffffffffffffffffffffffffffffffffff1614610aed576040517f08c379a0000000000000000000000000000000000000000000000000000000008152600401610ae490613081565b60405180910390fd5b600073ffffffffffffffffffffffffffffffffffffffff16600660009054906101000a900473ffffffffffffffffffffffffffffffffffffffff1673ffffffffffffffffffffffffffffffffffffffff167f8be0079c531659141344cd1fd0a4f28419497f9722a3daafe3b4186f6b6457e060405160405180910390a36000600660006101000a81548173ffffffffffffffffffffffffffffffffffffffff021916908373ffffffffffffffffffffffffffffffffffffffff160217905550565b610bb661196b565b73ffffffffffffffffffffffffffffffffffffffff16610bd4610c6e565b73ffffffffffffffffffffffffffffffffffffffff1614610c2a576040517f08c379a0000000000000000000000000000000000000000000000000000000008152600401610c2190613081565b60405180910390fd5b80600860006101000a81548173ffffffffffffffffffffffffffffffffffffffff021916908373ffffffffffffffffffffffffffffffffffffffff16021790555050565b6000600660009054906101000a900473ffffffffffffffffffffffffffffffffffffffff16905090565b606060018054610ca7906133b7565b80601f0160208091040260200160405190810160405280929190818152602001828054610cd3906133b7565b8015610d205780601f10610cf557610100808354040283529160200191610d20565b820191906000526020600020905b815481529060010190602001808311610d0357829003601f168201915b5050505050905090565b610d3261196b565b73ffffffffffffffffffffffffffffffffffffffff168273ffffffffffffffffffffffffffffffffffffffff161415610da0576040517f08c379a0000000000000000000000000000000000000000000000000000000008152600401610d9790612f61565b60405180910390fd5b8060056000610dad61196b565b73ffffffffffffffffffffffffffffffffffffffff1673ffffffffffffffffffffffffffffffffffffffff16815260200190815260200160002060008473ffffffffffffffffffffffffffffffffffffffff1673ffffffffffffffffffffffffffffffffffffffff16815260200190815260200160002060006101000a81548160ff0219169083151502179055508173ffffffffffffffffffffffffffffffffffffffff16610e5a61196b565b73ffffffffffffffffffffffffffffffffffffffff167f17307eab39ab6107e8899845ad3d59bd9653f200f220920489ca2b5937696c3183604051610e9f9190612e62565b60405180910390a35050565b6060600c60008381526020019081526020016000208054610ecb906133b7565b80601f0160208091040260200160405190810160405280929190818152602001828054610ef7906133b7565b8015610f445780601f10610f1957610100808354040283529160200191610f44565b820191906000526020600020905b815481529060010190602001808311610f2757829003601f168201915b505050505090506021815114610f8f576040517f08c379a0000000000000000000000000000000000000000000000000000000008152600401610f8690613021565b60405180910390fd5b919050565b81610f9e81611a2c565b610fdd576040517f08c379a0000000000000000000000000000000000000000000000000000000008152600401610fd4906130a1565b60405180910390fd5b836000610fe9826109b9565b90506000600860009054906101000a900473ffffffffffffffffffffffffffffffffffffffff1673ffffffffffffffffffffffffffffffffffffffff16633da1c0c3846040518263ffffffff1660e01b81526004016110489190612dfb565b60206040518083038186803b15801561106057600080fd5b505afa158015611074573d6000803e3d6000fd5b505050506040513d601f19601f820116820180604052508101906110989190612810565b905080806110a65750600a82105b6110e5576040517f08c379a00000000000000000000000000000000000000000000000000000000081526004016110dc90612f21565b60405180910390fd5b6110f66110f061196b565b87611b2d565b611135576040517f08c379a000000000000000000000000000000000000000000000000000000000815260040161112c90613141565b60405180910390fd5b61114188888888611e67565b5050505050505050565b6060611156826118ff565b611195576040517f08c379a000000000000000000000000000000000000000000000000000000000815260040161118c906130e1565b60405180910390fd5b600061119f611ec3565b9050600081511161124b576009600084815260200190815260200160002080546111c8906133b7565b80601f01602080910402602001604051908101604052809291908181526020018280546111f4906133b7565b80156112415780601f1061121657610100808354040283529160200191611241565b820191906000526020600020905b81548152906001019060200180831161122457829003601f168201915b5050505050611280565b8060096000858152602001908152602001600020604051602001611270929190612dab565b6040516020818303038152906040525b915050919050565b6000600560008473ffffffffffffffffffffffffffffffffffffffff1673ffffffffffffffffffffffffffffffffffffffff16815260200190815260200160002060008373ffffffffffffffffffffffffffffffffffffffff1673ffffffffffffffffffffffffffffffffffffffff16815260200190815260200160002060009054906101000a900460ff16905092915050565b61132461196b565b73ffffffffffffffffffffffffffffffffffffffff16611342610c6e565b73ffffffffffffffffffffffffffffffffffffffff1614611398576040517f08c379a000000000000000000000000000000000000000000000000000000000815260040161138f90613081565b60405180910390fd5b600073ffffffffffffffffffffffffffffffffffffffff168173ffffffffffffffffffffffffffffffffffffffff161415611408576040517f08c379a00000000000000000000000000000000000000000000000000000000081526004016113ff90612ee1565b60405180910390fd5b8073ffffffffffffffffffffffffffffffffffffffff16600660009054906101000a900473ffffffffffffffffffffffffffffffffffffffff1673ffffffffffffffffffffffffffffffffffffffff167f8be0079c531659141344cd1fd0a4f28419497f9722a3daafe3b4186f6b6457e060405160405180910390a380600660006101000a81548173ffffffffffffffffffffffffffffffffffffffff021916908373ffffffffffffffffffffffffffffffffffffffff16021790555050565b600084848080601f016020809104026020016040519081016040528093929190818152602001838380828437600081840152601f19601f82011690508083019250505050505050600b8160405161151f9190612d94565b908152602001604051809103902060009054906101000a900460ff161561157b576040517f08c379a000000000000000000000000000000000000000000000000000000000815260040161157290613001565b60405180910390fd5b866000611587826109b9565b90506000600860009054906101000a900473ffffffffffffffffffffffffffffffffffffffff1673ffffffffffffffffffffffffffffffffffffffff16633da1c0c3846040518263ffffffff1660e01b81526004016115e69190612dfb565b60206040518083038186803b1580156115fe57600080fd5b505afa158015611612573d6000803e3d6000fd5b505050506040513d601f19601f820116820180604052508101906116369190612810565b905080806116445750600a82105b611683576040517f08c379a000000000000000000000000000000000000000000000000000000000815260040161167a90612f21565b60405180910390fd5b60028760ff16106116c9576040517f08c379a00000000000000000000000000000000000000000000000000000000081526004016116c090613161565b60405180910390fd5b43861161170b576040517f08c379a000000000000000000000000000000000000000000000000000000000815260040161170290613101565b60405180910390fd5b6117156007611f00565b60006117216007611f16565b905061172d8b82611f24565b611738818b8b6120f2565b6001600b8b8b60405161174c929190612d7b565b908152602001604051809103902060006101000a81548160ff0219169083151502179055508a600a600083815260200190815260200160002060006101000a81548173ffffffffffffffffffffffffffffffffffffffff021916908373ffffffffffffffffffffffffffffffffffffffff16021790555087876040516020016117d6929190612dcf565b604051602081830303815290604052600c6000838152602001908152602001600020908051906020019061180b92919061237b565b50809550505050505095945050505050565b60007f80ac58cd000000000000000000000000000000000000000000000000000000007bffffffffffffffffffffffffffffffffffffffffffffffffffffffff1916827bffffffffffffffffffffffffffffffffffffffffffffffffffffffff191614806118e857507f5b5e139f000000000000000000000000000000000000000000000000000000007bffffffffffffffffffffffffffffffffffffffffffffffffffffffff1916827bffffffffffffffffffffffffffffffffffffffffffffffffffffffff1916145b806118f857506118f782612162565b5b9050919050565b60008073ffffffffffffffffffffffffffffffffffffffff166002600084815260200190815260200160002060009054906101000a900473ffffffffffffffffffffffffffffffffffffffff1673ffffffffffffffffffffffffffffffffffffffff1614159050919050565b600033905090565b816004600083815260200190815260200160002060006101000a81548173ffffffffffffffffffffffffffffffffffffffff021916908373ffffffffffffffffffffffffffffffffffffffff160217905550808273ffffffffffffffffffffffffffffffffffffffff166119e683610907565b73ffffffffffffffffffffffffffffffffffffffff167f8c5be1e5ebec7d5bd14f71427d1e84f3dd0314c0f7b2291e5b200ac8c7c3b92560405160405180910390a45050565b600080600a600084815260200190815260200160002060009054906101000a900473ffffffffffffffffffffffffffffffffffffffff1690506000611a7084610eab565b9050600081600081518110611aae577f4e487b7100000000000000000000000000000000000000000000000000000000600052603260045260246000fd5b602001015160f81c60f81b60f81c905060018160ff1614158015611afe57508273ffffffffffffffffffffffffffffffffffffffff163373ffffffffffffffffffffffffffffffffffffffff1614155b15611b0f5760009350505050611b28565b6000600183019250602083015190508043109450505050505b919050565b6000611b38826118ff565b611b77576040517f08c379a0000000000000000000000000000000000000000000000000000000008152600401611b6e90612f81565b60405180910390fd5b6000611b8283610907565b90508073ffffffffffffffffffffffffffffffffffffffff168473ffffffffffffffffffffffffffffffffffffffff161480611bf157508373ffffffffffffffffffffffffffffffffffffffff16611bd98461056b565b73ffffffffffffffffffffffffffffffffffffffff16145b80611c025750611c018185611288565b5b91505092915050565b8273ffffffffffffffffffffffffffffffffffffffff16611c2b82610907565b73ffffffffffffffffffffffffffffffffffffffff1614611c81576040517f08c379a0000000000000000000000000000000000000000000000000000000008152600401611c78906130c1565b60405180910390fd5b600073ffffffffffffffffffffffffffffffffffffffff168273ffffffffffffffffffffffffffffffffffffffff161415611cf1576040517f08c379a0000000000000000000000000000000000000000000000000000000008152600401611ce890612f41565b60405180910390fd5b611cfc8383836121cc565b611d07600082611973565b6001600360008573ffffffffffffffffffffffffffffffffffffffff1673ffffffffffffffffffffffffffffffffffffffff1681526020019081526020016000206000828254611d5791906132c0565b925050819055506001600360008473ffffffffffffffffffffffffffffffffffffffff1673ffffffffffffffffffffffffffffffffffffffff1681526020019081526020016000206000828254611dae919061326a565b92505081905550816002600083815260200190815260200160002060006101000a81548173ffffffffffffffffffffffffffffffffffffffff021916908373ffffffffffffffffffffffffffffffffffffffff160217905550808273ffffffffffffffffffffffffffffffffffffffff168473ffffffffffffffffffffffffffffffffffffffff167fddf252ad1be2c89b69c2b068fc378daa952ba7f163c4a11628f55a4df523b3ef60405160405180910390a4505050565b611e72848484611c0b565b611e7e848484846121d1565b611ebd576040517f08c379a0000000000000000000000000000000000000000000000000000000008152600401611eb490612ec1565b60405180910390fd5b50505050565b60606040518060400160405280600781526020017f697066733a2f2f00000000000000000000000000000000000000000000000000815250905090565b6001816000016000828254019250508190555050565b600081600001549050919050565b600073ffffffffffffffffffffffffffffffffffffffff168273ffffffffffffffffffffffffffffffffffffffff161415611f94576040517f08c379a0000000000000000000000000000000000000000000000000000000008152600401611f8b90613041565b60405180910390fd5b611f9d816118ff565b15611fdd576040517f08c379a0000000000000000000000000000000000000000000000000000000008152600401611fd490612f01565b60405180910390fd5b611fe9600083836121cc565b6001600360008473ffffffffffffffffffffffffffffffffffffffff1673ffffffffffffffffffffffffffffffffffffffff1681526020019081526020016000206000828254612039919061326a565b92505081905550816002600083815260200190815260200160002060006101000a81548173ffffffffffffffffffffffffffffffffffffffff021916908373ffffffffffffffffffffffffffffffffffffffff160217905550808273ffffffffffffffffffffffffffffffffffffffff16600073ffffffffffffffffffffffffffffffffffffffff167fddf252ad1be2c89b69c2b068fc378daa952ba7f163c4a11628f55a4df523b3ef60405160405180910390a45050565b6120fb836118ff565b61213a576040517f08c379a000000000000000000000000000000000000000000000000000000000815260040161213190613181565b60405180910390fd5b818160096000868152602001908152602001600020919061215c929190612401565b50505050565b60007f01ffc9a7000000000000000000000000000000000000000000000000000000007bffffffffffffffffffffffffffffffffffffffffffffffffffffffff1916827bffffffffffffffffffffffffffffffffffffffffffffffffffffffff1916149050919050565b505050565b60006121f28473ffffffffffffffffffffffffffffffffffffffff16612368565b1561235b578373ffffffffffffffffffffffffffffffffffffffff1663150b7a0261221b61196b565b8786866040518563ffffffff1660e01b815260040161223d9493929190612e16565b602060405180830381600087803b15801561225757600080fd5b505af192505050801561228857506040513d601f19601f820116820180604052508101906122859190612862565b60015b61230b573d80600081146122b8576040519150601f19603f3d011682016040523d82523d6000602084013e6122bd565b606091505b50600081511415612303576040517f08c379a00000000000000000000000000000000000000000000000000000000081526004016122fa90612ec1565b60405180910390fd5b805181602001fd5b63150b7a0260e01b7bffffffffffffffffffffffffffffffffffffffffffffffffffffffff1916817bffffffffffffffffffffffffffffffffffffffffffffffffffffffff191614915050612360565b600190505b949350505050565b600080823b905060008111915050919050565b828054612387906133b7565b90600052602060002090601f0160209004810192826123a957600085556123f0565b82601f106123c257805160ff19168380011785556123f0565b828001600101855582156123f0579182015b828111156123ef5782518255916020019190600101906123d4565b5b5090506123fd9190612487565b5090565b82805461240d906133b7565b90600052602060002090601f01602090048101928261242f5760008555612476565b82601f1061244857803560ff1916838001178555612476565b82800160010185558215612476579182015b8281111561247557823582559160200191906001019061245a565b5b5090506124839190612487565b5090565b5b808211156124a0576000816000905550600101612488565b5090565b60006124b76124b2846131e1565b6131bc565b9050828152602081018484840111156124cf57600080fd5b6124da848285613375565b509392505050565b6000813590506124f181613a58565b92915050565b60008135905061250681613a6f565b92915050565b60008151905061251b81613a6f565b92915050565b60008135905061253081613a86565b92915050565b60008151905061254581613a86565b92915050565b600082601f83011261255c57600080fd5b813561256c8482602086016124a4565b91505092915050565b60008083601f84011261258757600080fd5b8235905067ffffffffffffffff8111156125a057600080fd5b6020830191508360018202830111156125b857600080fd5b9250929050565b6000813590506125ce81613a9d565b92915050565b6000813590506125e381613ab4565b92915050565b6000602082840312156125fb57600080fd5b6000612609848285016124e2565b91505092915050565b6000806040838503121561262557600080fd5b6000612633858286016124e2565b9250506020612644858286016124e2565b9150509250929050565b60008060006060848603121561266357600080fd5b6000612671868287016124e2565b9350506020612682868287016124e2565b9250506040612693868287016125bf565b9150509250925092565b600080600080608085870312156126b357600080fd5b60006126c1878288016124e2565b94505060206126d2878288016124e2565b93505060406126e3878288016125bf565b925050606085013567ffffffffffffffff81111561270057600080fd5b61270c8782880161254b565b91505092959194509250565b6000806040838503121561272b57600080fd5b6000612739858286016124e2565b925050602061274a858286016124f7565b9150509250929050565b60008060008060006080868803121561276c57600080fd5b600061277a888289016124e2565b955050602086013567ffffffffffffffff81111561279757600080fd5b6127a388828901612575565b945094505060406127b6888289016125d4565b92505060606127c7888289016125bf565b9150509295509295909350565b600080604083850312156127e757600080fd5b60006127f5858286016124e2565b9250506020612806858286016125bf565b9150509250929050565b60006020828403121561282257600080fd5b60006128308482850161250c565b91505092915050565b60006020828403121561284b57600080fd5b600061285984828501612521565b91505092915050565b60006020828403121561287457600080fd5b600061288284828501612536565b91505092915050565b60006020828403121561289d57600080fd5b60006128ab848285016125bf565b91505092915050565b6128bd816132f4565b82525050565b6128cc81613306565b82525050565b60006128dd82613227565b6128e7818561323d565b93506128f7818560208601613384565b612900816134c3565b840191505092915050565b6000612917838561325f565b9350612924838584613375565b82840190509392505050565b600061293b82613232565b612945818561324e565b9350612955818560208601613384565b61295e816134c3565b840191505092915050565b600061297482613232565b61297e818561325f565b935061298e818560208601613384565b80840191505092915050565b600081546129a7816133b7565b6129b1818661325f565b945060018216600081146129cc57600181146129dd57612a10565b60ff19831686528186019350612a10565b6129e685613212565b60005b83811015612a08578154818901526001820191506020810190506129e9565b838801955050505b50505092915050565b6000612a2660328361324e565b9150612a31826134e1565b604082019050919050565b6000612a4960268361324e565b9150612a5482613530565b604082019050919050565b6000612a6c601c8361324e565b9150612a778261357f565b602082019050919050565b6000612a8f60168361324e565b9150612a9a826135a8565b602082019050919050565b6000612ab260248361324e565b9150612abd826135d1565b604082019050919050565b6000612ad560198361324e565b9150612ae082613620565b602082019050919050565b6000612af8602c8361324e565b9150612b0382613649565b604082019050919050565b6000612b1b60388361324e565b9150612b2682613698565b604082019050919050565b6000612b3e602a8361324e565b9150612b49826136e7565b604082019050919050565b6000612b6160298361324e565b9150612b6c82613736565b604082019050919050565b6000612b84600a8361324e565b9150612b8f82613785565b602082019050919050565b6000612ba7600f8361324e565b9150612bb2826137ae565b602082019050919050565b6000612bca60208361324e565b9150612bd5826137d7565b602082019050919050565b6000612bed602c8361324e565b9150612bf882613800565b604082019050919050565b6000612c1060208361324e565b9150612c1b8261384f565b602082019050919050565b6000612c3360168361324e565b9150612c3e82613878565b602082019050919050565b6000612c5660298361324e565b9150612c61826138a1565b604082019050919050565b6000612c79602f8361324e565b9150612c84826138f0565b604082019050919050565b6000612c9c60158361324e565b9150612ca78261393f565b602082019050919050565b6000612cbf60218361324e565b9150612cca82613968565b604082019050919050565b6000612ce260318361324e565b9150612ced826139b7565b604082019050919050565b6000612d0560168361324e565b9150612d1082613a06565b602082019050919050565b6000612d2860148361324e565b9150612d3382613a2f565b602082019050919050565b612d478161335e565b82525050565b612d5e612d598261335e565b61341a565b82525050565b612d75612d7082613368565b613424565b82525050565b6000612d8882848661290b565b91508190509392505050565b6000612da08284612969565b915081905092915050565b6000612db78285612969565b9150612dc3828461299a565b91508190509392505050565b6000612ddb8285612d64565b600182019150612deb8284612d4d565b6020820191508190509392505050565b6000602082019050612e1060008301846128b4565b92915050565b6000608082019050612e2b60008301876128b4565b612e3860208301866128b4565b612e456040830185612d3e565b8181036060830152612e5781846128d2565b905095945050505050565b6000602082019050612e7760008301846128c3565b92915050565b60006020820190508181036000830152612e9781846128d2565b905092915050565b60006020820190508181036000830152612eb98184612930565b905092915050565b60006020820190508181036000830152612eda81612a19565b9050919050565b60006020820190508181036000830152612efa81612a3c565b9050919050565b60006020820190508181036000830152612f1a81612a5f565b9050919050565b60006020820190508181036000830152612f3a81612a82565b9050919050565b60006020820190508181036000830152612f5a81612aa5565b9050919050565b60006020820190508181036000830152612f7a81612ac8565b9050919050565b60006020820190508181036000830152612f9a81612aeb565b9050919050565b60006020820190508181036000830152612fba81612b0e565b9050919050565b60006020820190508181036000830152612fda81612b31565b9050919050565b60006020820190508181036000830152612ffa81612b54565b9050919050565b6000602082019050818103600083015261301a81612b77565b9050919050565b6000602082019050818103600083015261303a81612b9a565b9050919050565b6000602082019050818103600083015261305a81612bbd565b9050919050565b6000602082019050818103600083015261307a81612be0565b9050919050565b6000602082019050818103600083015261309a81612c03565b9050919050565b600060208201905081810360008301526130ba81612c26565b9050919050565b600060208201905081810360008301526130da81612c49565b9050919050565b600060208201905081810360008301526130fa81612c6c565b9050919050565b6000602082019050818103600083015261311a81612c8f565b9050919050565b6000602082019050818103600083015261313a81612cb2565b9050919050565b6000602082019050818103600083015261315a81612cd5565b9050919050565b6000602082019050818103600083015261317a81612cf8565b9050919050565b6000602082019050818103600083015261319a81612d1b565b9050919050565b60006020820190506131b66000830184612d3e565b92915050565b60006131c66131d7565b90506131d282826133e9565b919050565b6000604051905090565b600067ffffffffffffffff8211156131fc576131fb613494565b5b613205826134c3565b9050602081019050919050565b60008190508160005260206000209050919050565b600081519050919050565b600081519050919050565b600082825260208201905092915050565b600082825260208201905092915050565b600081905092915050565b60006132758261335e565b91506132808361335e565b9250827fffffffffffffffffffffffffffffffffffffffffffffffffffffffffffffffff038211156132b5576132b4613436565b5b828201905092915050565b60006132cb8261335e565b91506132d68361335e565b9250828210156132e9576132e8613436565b5b828203905092915050565b60006132ff8261333e565b9050919050565b60008115159050919050565b60007fffffffff0000000000000000000000000000000000000000000000000000000082169050919050565b600073ffffffffffffffffffffffffffffffffffffffff82169050919050565b6000819050919050565b600060ff82169050919050565b82818337600083830152505050565b60005b838110156133a2578082015181840152602081019050613387565b838111156133b1576000848401525b50505050565b600060028204905060018216806133cf57607f821691505b602082108114156133e3576133e2613465565b5b50919050565b6133f2826134c3565b810181811067ffffffffffffffff8211171561341157613410613494565b5b80604052505050565b6000819050919050565b600061342f826134d4565b9050919050565b7f4e487b7100000000000000000000000000000000000000000000000000000000600052601160045260246000fd5b7f4e487b7100000000000000000000000000000000000000000000000000000000600052602260045260246000fd5b7f4e487b7100000000000000000000000000000000000000000000000000000000600052604160045260246000fd5b6000601f19601f8301169050919050565b60008160f81b9050919050565b7f4552433732313a207472616e7366657220746f206e6f6e20455243373231526560008201527f63656976657220696d706c656d656e7465720000000000000000000000000000602082015250565b7f4f776e61626c653a206e6577206f776e657220697320746865207a65726f206160008201527f6464726573730000000000000000000000000000000000000000000000000000602082015250565b7f4552433732313a20746f6b656e20616c7265616479206d696e74656400000000600082015250565b7f4e46545f434f554e545f4d41585f455843454544454400000000000000000000600082015250565b7f4552433732313a207472616e7366657220746f20746865207a65726f2061646460008201527f7265737300000000000000000000000000000000000000000000000000000000602082015250565b7f4552433732313a20617070726f766520746f2063616c6c657200000000000000600082015250565b7f4552433732313a206f70657261746f7220717565727920666f72206e6f6e657860008201527f697374656e7420746f6b656e0000000000000000000000000000000000000000602082015250565b7f4552433732313a20617070726f76652063616c6c6572206973206e6f74206f7760008201527f6e6572206e6f7220617070726f76656420666f7220616c6c0000000000000000602082015250565b7f4552433732313a2062616c616e636520717565727920666f7220746865207a6560008201527f726f206164647265737300000000000000000000000000000000000000000000602082015250565b7f4552433732313a206f776e657220717565727920666f72206e6f6e657869737460008201527f656e7420746f6b656e0000000000000000000000000000000000000000000000602082015250565b7f5552495f45584953545300000000000000000000000000000000000000000000600082015250565b7f544f4b454e5f4e4f545f45584953540000000000000000000000000000000000600082015250565b7f4552433732313a206d696e7420746f20746865207a65726f2061646472657373600082015250565b7f4552433732313a20617070726f76656420717565727920666f72206e6f6e657860008201527f697374656e7420746f6b656e0000000000000000000000000000000000000000602082015250565b7f4f776e61626c653a2063616c6c6572206973206e6f7420746865206f776e6572600082015250565b7f544f4b454e5f4e4f545f5452414e5346455241424c4500000000000000000000600082015250565b7f4552433732313a207472616e73666572206f6620746f6b656e2074686174206960008201527f73206e6f74206f776e0000000000000000000000000000000000000000000000602082015250565b7f4552433732314d657461646174613a2055524920717565727920666f72206e6f60008201527f6e6578697374656e7420746f6b656e0000000000000000000000000000000000602082015250565b7f4558504952595f444154455f4e4f545f56414c49440000000000000000000000600082015250565b7f4552433732313a20617070726f76616c20746f2063757272656e74206f776e6560008201527f7200000000000000000000000000000000000000000000000000000000000000602082015250565b7f4552433732313a207472616e736665722063616c6c6572206973206e6f74206f60008201527f776e6572206e6f7220617070726f766564000000000000000000000000000000602082015250565b7f4c4943454e53455f4d5553545f42455f4f5f4f525f3100000000000000000000600082015250565b7f544f4b454e5f49445f4e4f545f45584953544544000000000000000000000000600082015250565b613a61816132f4565b8114613a6c57600080fd5b50565b613a7881613306565b8114613a8357600080fd5b50565b613a8f81613312565b8114613a9a57600080fd5b50565b613aa68161335e565b8114613ab157600080fd5b50565b613abd81613368565b8114613ac857600080fd5b5056fea2646970667358221220ce5393c67bc25c5d6ec05a0888622da3d71eeea2dfb21003e36d912ab8c21cf164736f6c63430008040033",
  "immutableReferences": {},
  "source": "// SPDX-License-Identifier: UNLICENSED\n\npragma solidity 0.8.4;\n\nimport \"./lib/token/ERC721/ERC721.sol\";\nimport \"./lib/access/AccessControl.sol\";\nimport \"./ITaureumKYC.sol\";\nimport \"./lib/utils/Counters.sol\";\nimport \"./lib/access/Ownable.sol\";\n\ncontract TaureumNFT is ERC721, Ownable {\n    using Counters for Counters.Counter;\n    /**\n     * @dev A counter to track tokenId.\n     */\n    Counters.Counter private _tokenIds;\n\n    /**\n     * @dev The contract address for the KYC entry.\n     */\n    address _KYCAddress;\n\n    /**\n     * @dev Mapping from NFT ID to metadata uri.\n     */\n    mapping(uint256 => string) internal idToUri;\n\n    /**\n     * @dev Mapping from NFT ID to its first owner.\n     */\n    mapping(uint256 => address) internal idToFirstOwner;\n\n    /**\n     * @dev Mapping from NFT URI to its existence.\n     */\n    mapping(string => bool) internal uriExists;\n\n    /**\n     * @dev Mapping from NFT ID to the NFT property (encode the tokenData struct).\n     *  - 1st byte determines the license type: 0 => personal license, 1 => full license).\n     *  - Next 32 bytes determine the expiry date (expiry block number): MaxUint => no expiry date.\n     *\n     * TODO: consider adding the URI to this mapping.\n     */\n    mapping(uint256 => bytes) internal idToProperty;\n\n    /**\n   * @dev Guarantee that _to is able to receive more NFTs.\n   * @param _to Owner address to validate.\n   */\n    modifier canReceiveNFT(\n        address _to\n    )\n    {\n        uint256 balance = balanceOf(_to);\n        bool isVerifiedUser = ITaureumKYC(_KYCAddress).isVerifiedUser(_to);\n\n        require(isVerifiedUser || balance < 10, \"NFT_COUNT_MAX_EXCEEDED\");\n        _;\n    }\n\n    /**\n     * @dev Guarantee the _uri does not exist.\n     * @param _uri The IPFS URI of the NFT.\n     */\n    modifier notExists(\n        string memory _uri\n    )\n    {\n        require(!uriExists[_uri], \"URI_EXISTS\");\n        _;\n    }\n\n    /**\n     * @dev Guarantee the _tokenId is not expired and transferable.\n     * @param _tokenId The NFT token ID to validate.\n     */\n    modifier transferable(\n        uint256 _tokenId\n    ) {\n        require(_isTransferable(_tokenId), \"TOKEN_NOT_TRANSFERABLE\");\n        _;\n    }\n\n    /**\n     * @dev Emitted when `tokenId` token is minted for `to`.\n     */\n    event Mint(address indexed to, uint256 indexed tokenId, string uri, uint expiryDate);\n\n    /**\n     * @dev Create a new TaureumNFT contract and assign the KYCAddress to _KYCAddress.\n     *\n     * TODO: change the default name and symbol.\n     */\n    constructor(address KYCAddress) ERC721(\"Taureum NFT\", \"Taureum\") Ownable() {\n        _KYCAddress = KYCAddress;\n    }\n\n    /**\n     * @dev See {IERC165-supportsInterface}.\n     */\n    function supportsInterface(bytes4 interfaceId) public view virtual override returns (bool) {\n        return\n        interfaceId == type(IERC721).interfaceId ||\n        interfaceId == type(IERC721Metadata).interfaceId ||\n        super.supportsInterface(interfaceId);\n    }\n\n    /**\n      * @dev Mint a new NFT.\n      * It throws an exception if\n      *    - uri does not exist.\n      *    - to cannot receive NFTs.\n      * @param to The address that will own the minted NFT.\n      * @param uri The URI consists of metadata description of the minting NFT on the IPFS (without prefix).\n      * @param license The license of the minting NFT (0 - personally-licensed or 1 - fully-licensed).\n      * @param expiryDate The block number at which the minting NFT is expired.\n      */\n    function mint(\n        address to,\n        string calldata uri,\n        uint8 license,\n        uint expiryDate\n    )\n    public\n    notExists(uri)\n    canReceiveNFT(to)\n    returns (uint256)\n    {\n        require(license < 2, \"LICENSE_MUST_BE_O_OR_1\");\n        require(expiryDate > block.number, \"EXPIRY_DATE_NOT_VALID\");\n        _tokenIds.increment();\n\n        uint256 id = _tokenIds.current();\n        super._mint(to, id);\n        _setTokenUri(id, uri);\n        uriExists[uri] = true;\n        idToFirstOwner[id] = to;\n        idToProperty[id] = abi.encodePacked(license, expiryDate);\n\n        return id;\n    }\n\n    /**\n     * @dev See {IERC721Metadata-tokenURI}.\n     */\n    function tokenURI(uint256 tokenId) public view override returns (string memory) {\n        require(_exists(tokenId), \"ERC721Metadata: URI query for nonexistent token\");\n\n        string memory baseURI = _baseURI();\n        return bytes(baseURI).length > 0 ? string(abi.encodePacked(baseURI, idToUri[tokenId])) : idToUri[tokenId];\n    }\n\n    /**\n     * @dev Return the properties of an NFT token.\n     * @notice It throws if the tokenId does not exist.\n     * @param _tokenId The NFT tokenID to check.\n     */\n    function getTokenData(uint256 _tokenId) public view returns(bytes memory tokenData) {\n        tokenData = idToProperty[_tokenId];\n        require(tokenData.length == 33, \"TOKEN_NOT_EXIST\");\n        return tokenData;\n    }\n\n    /**\n     * @dev See {IERC721-transferFrom}.\n     * @notice It throws an exception if\n     *      - the tokenId is not transferable.\n     *      - the receiver `to` cannot receive more TaureumNFTs.\n     */\n    function transferFrom(\n        address from,\n        address to,\n        uint256 tokenId\n    ) public override transferable(tokenId) canReceiveNFT(to) {\n        //solhint-disable-next-line max-line-length\n        require(_isApprovedOrOwner(_msgSender(), tokenId), \"ERC721: transfer caller is not owner nor approved\");\n\n        _transfer(from, to, tokenId);\n    }\n\n    /**\n     * @dev See {IERC721-safeTransferFrom}.\n     * @notice It throws an exception if\n     *      - the tokenId is not transferable.\n     *      - the receiver `to` cannot receive more TaureumNFTs.\n     */\n    function safeTransferFrom(\n        address from,\n        address to,\n        uint256 tokenId,\n        bytes memory _data\n    ) public override transferable(tokenId) canReceiveNFT(to) {\n        require(_isApprovedOrOwner(_msgSender(), tokenId), \"ERC721: transfer caller is not owner nor approved\");\n        _safeTransfer(from, to, tokenId, _data);\n    }\n\n    /**\n     * @dev Reset the `_KYCAddress` to kycAddr.\n     * @notice Only the owner of this contract is able to change the the KYC contract address.\n     */\n    function setKYCImplementation(address kycAddr) onlyOwner external {\n        _KYCAddress = kycAddr;\n    }\n\n    /**\n     * @dev Reset the `_KYCAddress` to kycAddr.\n     * @notice Only the owner of this contract is able to change the the KYC contract address.\n     */\n    function getKYCAddress() public view returns(address) {\n        return _KYCAddress;\n    }\n\n    /**\n     * @dev Check if an NFT token is transferable.\n     * @param _tokenId The NFT tokenID to check.\n     */\n    function _isTransferable(uint256 _tokenId) internal view returns (bool) {\n        address firstOwner = idToFirstOwner[_tokenId];\n        bytes memory tokenData = getTokenData(_tokenId);\n\n        uint8 licenseType = uint8(tokenData[0]);\n        if (licenseType != 1 && msg.sender != firstOwner) {\n            return false;\n        }\n\n        uint expiryDate;\n        assembly {\n            tokenData := add(tokenData, 1)\n            expiryDate := mload(add(tokenData, 0x20)) // tokenData[1:33]\n        }\n        return block.number < expiryDate;\n    }\n\n    /**\n     * @dev Base URI for computing {tokenURI}. If set, the resulting URI for each\n     * token will be the concatenation of the `baseURI` and the `tokenId`.\n     */\n    function _baseURI() internal pure override returns (string memory) {\n        return \"ipfs://\";\n    }\n\n    /**\n     * @dev Set a distinct URI (RFC 3986) for a given NFT ID.\n     * @notice This is an internal function which should be called from user-implemented external\n     * function.\n     * @notice It throws an exception if the _tokenId does not exist.\n     * @param _tokenId Id for which we want URI.\n     * @param _uri String representing RFC 3986 URI.\n     */\n    function _setTokenUri(\n        uint256 _tokenId,\n        string calldata _uri\n    )\n    internal\n    {\n        require(_exists(_tokenId), \"TOKEN_ID_NOT_EXISTED\");\n        idToUri[_tokenId] = _uri;\n    }\n\n}\n",
  "sourcePath": "/home/toor/nodejs/truffle/nft_demo/taudefi/taudefi-nft/contracts/TaureumNFT.sol",
  "compiler": {
    "name": "solc",
    "version": "0.8.4+commit.c7e474f2.Emscripten.clang"
  },
  "schemaVersion": "3.4.1",
  "updatedAt": "2021-07-11T09:05:41.228Z",
  "networkType": "ethereum",
  "devdoc": {
    "events": {
      "Mint(address,uint256,string,uint256)": {
        "details": "Emitted when `tokenId` token is minted for `to`."
      }
    },
    "kind": "dev",
    "methods": {
      "approve(address,uint256)": {
        "details": "See {IERC721-approve}."
      },
      "balanceOf(address)": {
        "details": "See {IERC721-balanceOf}."
      },
      "constructor": {
        "details": "Create a new TaureumNFT contract and assign the KYCAddress to _KYCAddress. TODO: change the default name and symbol."
      },
      "getApproved(uint256)": {
        "details": "See {IERC721-getApproved}."
      },
      "getKYCAddress()": {
        "details": "Reset the `_KYCAddress` to kycAddr."
      },
      "getTokenData(uint256)": {
        "details": "Return the properties of an NFT token.",
        "params": {
          "_tokenId": "The NFT tokenID to check."
        }
      },
      "isApprovedForAll(address,address)": {
        "details": "See {IERC721-isApprovedForAll}."
      },
      "mint(address,string,uint8,uint256)": {
        "details": "Mint a new NFT. It throws an exception if    - uri does not exist.    - to cannot receive NFTs.",
        "params": {
          "expiryDate": "The block number at which the minting NFT is expired.",
          "license": "The license of the minting NFT (0 - personally-licensed or 1 - fully-licensed).",
          "to": "The address that will own the minted NFT.",
          "uri": "The URI consists of metadata description of the minting NFT on the IPFS (without prefix)."
        }
      },
      "name()": {
        "details": "See {IERC721Metadata-name}."
      },
      "owner()": {
        "details": "Returns the address of the current owner."
      },
      "ownerOf(uint256)": {
        "details": "See {IERC721-ownerOf}."
      },
      "renounceOwnership()": {
        "details": "Leaves the contract without owner. It will not be possible to call `onlyOwner` functions anymore. Can only be called by the current owner. NOTE: Renouncing ownership will leave the contract without an owner, thereby removing any functionality that is only available to the owner."
      },
      "safeTransferFrom(address,address,uint256)": {
        "details": "See {IERC721-safeTransferFrom}."
      },
      "safeTransferFrom(address,address,uint256,bytes)": {
        "details": "See {IERC721-safeTransferFrom}."
      },
      "setApprovalForAll(address,bool)": {
        "details": "See {IERC721-setApprovalForAll}."
      },
      "setKYCImplementation(address)": {
        "details": "Reset the `_KYCAddress` to kycAddr."
      },
      "supportsInterface(bytes4)": {
        "details": "See {IERC165-supportsInterface}."
      },
      "symbol()": {
        "details": "See {IERC721Metadata-symbol}."
      },
      "tokenURI(uint256)": {
        "details": "See {IERC721Metadata-tokenURI}."
      },
      "transferFrom(address,address,uint256)": {
        "details": "See {IERC721-transferFrom}."
      },
      "transferOwnership(address)": {
        "details": "Transfers ownership of the contract to a new account (`newOwner`). Can only be called by the current owner."
      }
    },
    "stateVariables": {
      "_KYCAddress": {
        "details": "The contract address for the KYC entry."
      },
      "_tokenIds": {
        "details": "A counter to track tokenId."
      },
      "idToFirstOwner": {
        "details": "Mapping from NFT ID to its first owner."
      },
      "idToProperty": {
        "details": "Mapping from NFT ID to the NFT property (encode the tokenData struct).  - 1st byte determines the license type: 0 => personal license, 1 => full license).  - Next 32 bytes determine the expiry date (expiry block number): MaxUint => no expiry date. TODO: consider adding the URI to this mapping."
      },
      "idToUri": {
        "details": "Mapping from NFT ID to metadata uri."
      },
      "uriExists": {
        "details": "Mapping from NFT URI to its existence."
      }
    },
    "version": 1
  },
  "userdoc": {
    "kind": "user",
    "methods": {
      "getKYCAddress()": {
        "notice": "Only the owner of this contract is able to change the the KYC contract address."
      },
      "getTokenData(uint256)": {
        "notice": "It throws if the tokenId does not exist."
      },
      "safeTransferFrom(address,address,uint256,bytes)": {
        "notice": "It throws an exception if      - the tokenId is not transferable.      - the receiver `to` cannot receive more TaureumNFTs."
      },
      "setKYCImplementation(address)": {
        "notice": "Only the owner of this contract is able to change the the KYC contract address."
      },
      "transferFrom(address,address,uint256)": {
        "notice": "It throws an exception if      - the tokenId is not transferable.      - the receiver `to` cannot receive more TaureumNFTs."
      }
    },
    "version": 1
  }
}