{
  "contractName": "AuthenticatedProxy",
  "abi": [
    {
      "anonymous": false,
      "inputs": [
        {
          "indexed": true,
          "internalType": "address",
          "name": "sender",
          "type": "address"
        },
        {
          "indexed": false,
          "internalType": "uint256",
          "name": "amount",
          "type": "uint256"
        }
      ],
      "name": "ReceivedEther",
      "type": "event"
    },
    {
      "anonymous": false,
      "inputs": [
        {
          "indexed": true,
          "internalType": "address",
          "name": "from",
          "type": "address"
        },
        {
          "indexed": false,
          "internalType": "uint256",
          "name": "value",
          "type": "uint256"
        },
        {
          "indexed": true,
          "internalType": "address",
          "name": "token",
          "type": "address"
        },
        {
          "indexed": false,
          "internalType": "bytes",
          "name": "extraData",
          "type": "bytes"
        }
      ],
      "name": "ReceivedTokens",
      "type": "event"
    },
    {
      "anonymous": false,
      "inputs": [
        {
          "indexed": false,
          "internalType": "bool",
          "name": "revoked",
          "type": "bool"
        }
      ],
      "name": "Revoked",
      "type": "event"
    },
    {
      "stateMutability": "payable",
      "type": "fallback"
    },
    {
      "inputs": [
        {
          "internalType": "address",
          "name": "from",
          "type": "address"
        },
        {
          "internalType": "uint256",
          "name": "value",
          "type": "uint256"
        },
        {
          "internalType": "address",
          "name": "token",
          "type": "address"
        },
        {
          "internalType": "bytes",
          "name": "extraData",
          "type": "bytes"
        }
      ],
      "name": "receiveApproval",
      "outputs": [],
      "stateMutability": "nonpayable",
      "type": "function"
    },
    {
      "inputs": [],
      "name": "registry",
      "outputs": [
        {
          "internalType": "contract ProxyRegistry",
          "name": "",
          "type": "address"
        }
      ],
      "stateMutability": "view",
      "type": "function"
    },
    {
      "inputs": [],
      "name": "revoked",
      "outputs": [
        {
          "internalType": "bool",
          "name": "",
          "type": "bool"
        }
      ],
      "stateMutability": "view",
      "type": "function"
    },
    {
      "inputs": [],
      "name": "upgradeabilityOwner",
      "outputs": [
        {
          "internalType": "address",
          "name": "",
          "type": "address"
        }
      ],
      "stateMutability": "view",
      "type": "function"
    },
    {
      "inputs": [],
      "name": "user",
      "outputs": [
        {
          "internalType": "address",
          "name": "",
          "type": "address"
        }
      ],
      "stateMutability": "view",
      "type": "function"
    },
    {
      "inputs": [
        {
          "internalType": "address",
          "name": "addrUser",
          "type": "address"
        },
        {
          "internalType": "contract ProxyRegistry",
          "name": "addrRegistry",
          "type": "address"
        }
      ],
      "name": "initialize",
      "outputs": [],
      "stateMutability": "nonpayable",
      "type": "function"
    },
    {
      "inputs": [
        {
          "internalType": "bool",
          "name": "revoke",
          "type": "bool"
        }
      ],
      "name": "setRevoke",
      "outputs": [],
      "stateMutability": "nonpayable",
      "type": "function"
    },
    {
      "inputs": [
        {
          "internalType": "address",
          "name": "dest",
          "type": "address"
        },
        {
          "internalType": "enum AuthenticatedProxy.HowToCall",
          "name": "howToCall",
          "type": "uint8"
        },
        {
          "internalType": "bytes",
          "name": "data",
          "type": "bytes"
        }
      ],
      "name": "proxy",
      "outputs": [
        {
          "internalType": "bool",
          "name": "result",
          "type": "bool"
        }
      ],
      "stateMutability": "nonpayable",
      "type": "function"
    },
    {
      "inputs": [
        {
          "internalType": "address",
          "name": "dest",
          "type": "address"
        },
        {
          "internalType": "enum AuthenticatedProxy.HowToCall",
          "name": "howToCall",
          "type": "uint8"
        },
        {
          "internalType": "bytes",
          "name": "data",
          "type": "bytes"
        }
      ],
      "name": "proxyAssert",
      "outputs": [],
      "stateMutability": "nonpayable",
      "type": "function"
    }
  ],
  "bytecode": "0x60806040526001805460ff60a01b1916905534801561001d57600080fd5b50610a628061002d6000396000f3fe6080604052600436106100865760003560e01c80634f8632ba116100595780634f8632ba1461015457806363d256ce1461018c5780636fde8202146101ad5780637b103999146101cb5780638f4ffcb1146101eb57610086565b80631b0f7ba9146100bd5780633f801f91146100f2578063485cc955146101145780634c93505f14610134575b60405134815233907fa419615bc8fda4c87663805ee2a3597a6d71c1d476911d9892f340d965bc7bf19060200160405180910390a2005b3480156100c957600080fd5b506100dd6100d836600461085e565b61020b565b60405190151581526020015b60405180910390f35b3480156100fe57600080fd5b5061011261010d36600461085e565b6104a6565b005b34801561012057600080fd5b5061011261012f366004610826565b6104fb565b34801561014057600080fd5b5061011261014f36600461092b565b6105a6565b34801561016057600080fd5b50600254610174906001600160a01b031681565b6040516001600160a01b0390911681526020016100e9565b34801561019857600080fd5b506003546100dd90600160a01b900460ff1681565b3480156101b957600080fd5b506001546001600160a01b0316610174565b3480156101d757600080fd5b50600354610174906001600160a01b031681565b3480156101f757600080fd5b506101126102063660046108c1565b610674565b6002546000906001600160a01b03163314806102b25750600354600160a01b900460ff161580156102b257506003546040516369dc9ff360e01b81523360048201526001600160a01b03909116906369dc9ff39060240160206040518083038186803b15801561027a57600080fd5b505afa15801561028e573d6000803e3d6000fd5b505050506040513d601f19601f820116820180604052508101906102b2919061094e565b6103885760405162461bcd60e51b815260206004820152608a60248201527f41757468656e746963617465642070726f78792063616e206f6e6c792062652060448201527f63616c6c65642062792069747320757365722c206f72206279206120636f6e7460648201527f7261637420617574686f72697a6564206279207468652072656769737472792060848201527f6173206c6f6e6720617320746865207573657220686173206e6f74207265766f60a4820152696b65642061636365737360b01b60c482015260e4015b60405180910390fd5b606060008460018111156103ac57634e487b7160e01b600052602160045260246000fd5b141561041757846001600160a01b0316836040516103ca919061096a565b6000604051808303816000865af19150503d8060008114610407576040519150601f19603f3d011682016040523d82523d6000602084013e61040c565b606091505b50909250905061049e565b600184600181111561043957634e487b7160e01b600052602160045260246000fd5b141561049e57846001600160a01b031683604051610457919061096a565b600060405180830381855af49150503d8060008114610492576040519150601f19603f3d011682016040523d82523d6000602084013e610497565b606091505b5090925090505b509392505050565b6104b183838361020b565b6104f65760405162461bcd60e51b8152602060048201526016602482015275141c9bde1e48185cdcd95c9d1a5bdb8819985a5b195960521b604482015260640161037f565b505050565b600154600160a01b900460ff16156105655760405162461bcd60e51b815260206004820152602760248201527f41757468656e746963617465642070726f787920616c726561647920696e69746044820152661a585b1a5e995960ca1b606482015260840161037f565b6001805460ff60a01b1916600160a01b179055600280546001600160a01b039384166001600160a01b03199182161790915560038054929093169116179055565b6002546001600160a01b0316331461061c5760405162461bcd60e51b815260206004820152603360248201527f41757468656e746963617465642070726f78792063616e206f6e6c79206265206044820152723932bb37b5b2b210313c9034ba39903ab9b2b960691b606482015260840161037f565b60038054821515600160a01b0260ff60a01b199091161790556040517f2165014523a6f4135deffed62d70149aad59b64de5aac51e3abbcbe2a83e2f7e9061066990831515815260200190565b60405180910390a150565b6040516323b872dd60e01b81526001600160a01b038581166004830152306024830152604482018590528391908216906323b872dd90606401602060405180830381600087803b1580156106c757600080fd5b505af11580156106db573d6000803e3d6000fd5b505050506040513d601f19601f820116820180604052508101906106ff919061094e565b61074b5760405162461bcd60e51b815260206004820152601b60248201527f455243323020746f6b656e207472616e73666572206661696c65640000000000604482015260640161037f565b826001600160a01b0316856001600160a01b03167fd65b48fd35864b3528d38e44760be5553248f89bf3ff6b06cca57817cc2650bf8685604051610790929190610986565b60405180910390a35050505050565b600082601f8301126107af578081fd5b813567ffffffffffffffff808211156107ca576107ca6109f0565b604051601f8301601f19908116603f011681019082821181831017156107f2576107f26109f0565b8160405283815286602085880101111561080a578485fd5b8360208701602083013792830160200193909352509392505050565b60008060408385031215610838578182fd5b823561084381610a06565b9150602083013561085381610a06565b809150509250929050565b600080600060608486031215610872578081fd5b833561087d81610a06565b9250602084013560028110610890578182fd5b9150604084013567ffffffffffffffff8111156108ab578182fd5b6108b78682870161079f565b9150509250925092565b600080600080608085870312156108d6578081fd5b84356108e181610a06565b93506020850135925060408501356108f881610a06565b9150606085013567ffffffffffffffff811115610913578182fd5b61091f8782880161079f565b91505092959194509250565b60006020828403121561093c578081fd5b813561094781610a1e565b9392505050565b60006020828403121561095f578081fd5b815161094781610a1e565b6000825161097c8184602087016109c0565b9190910192915050565b82815260406020820152600082518060408401526109ab8160608501602087016109c0565b601f01601f1916919091016060019392505050565b60005b838110156109db5781810151838201526020016109c3565b838111156109ea576000848401525b50505050565b634e487b7160e01b600052604160045260246000fd5b6001600160a01b0381168114610a1b57600080fd5b50565b8015158114610a1b57600080fdfea2646970667358221220fd67e13dbbd6fe5fc1d09f3e520404c332fbf1ff86821e3cb1886ffd2d6abd7464736f6c63430008040033",
  "immutableReferences": {},
  "source": "/* \n\n  Proxy contract to hold access to assets on behalf of a user (e.g. ERC20 approve) and execute calls under particular conditions.\n\n*/\n\npragma solidity 0.8.4;\n\nimport \"./ProxyRegistry.sol\";\nimport \"./TokenRecipient.sol\";\nimport \"./proxy/OwnedUpgradeabilityStorage.sol\";\n\n/**\n * @title AuthenticatedProxy\n * @author Wyvern Protocol Developers\n */\ncontract AuthenticatedProxy is TokenRecipient, OwnedUpgradeabilityStorage {\n\n    /* Whether initialized. */\n    bool initialized = false;\n\n    /* Address which owns this proxy. */\n    address public user;\n\n    /* Associated registry with contract authentication information. */\n    ProxyRegistry public registry;\n\n    /* Whether access has been revoked. */\n    bool public revoked;\n\n    /* Delegate call could be used to atomically transfer multiple assets owned by the proxy contract with one order. */\n    enum HowToCall { Call, DelegateCall }\n\n    /* Event fired when the proxy access is revoked or unrevoked. */\n    event Revoked(bool revoked);\n\n    /**\n     * Initialize an AuthenticatedProxy\n     *\n     * @param addrUser Address of user on whose behalf this proxy will act\n     * @param addrRegistry Address of ProxyRegistry contract which will manage this proxy\n     */\n    function initialize (address addrUser, ProxyRegistry addrRegistry)\n        public\n    {\n        require(!initialized, \"Authenticated proxy already initialized\");\n        initialized = true;\n        user = addrUser;\n        registry = addrRegistry;\n    }\n\n    /**\n     * Set the revoked flag (allows a user to revoke ProxyRegistry access)\n     *\n     * @dev Can be called by the user only\n     * @param revoke Whether or not to revoke access\n     */\n    function setRevoke(bool revoke)\n        public\n    {\n        require(msg.sender == user, \"Authenticated proxy can only be revoked by its user\");\n        revoked = revoke;\n        emit Revoked(revoke);\n    }\n\n    /**\n     * Execute a message call from the proxy contract\n     *\n     * @dev Can be called by the user, or by a contract authorized by the registry as long as the user has not revoked access\n     * @param dest Address to which the call will be sent\n     * @param howToCall Which kind of call to make\n     * @param data Calldata to send\n     * @return result Result of the call (success or failure)\n     */\n    function proxy(address dest, HowToCall howToCall, bytes memory data)\n        public\n        returns (bool result)\n    {\n        require(msg.sender == user || (!revoked && registry.contracts(msg.sender)), \"Authenticated proxy can only be called by its user, or by a contract authorized by the registry as long as the user has not revoked access\");\n        bytes memory ret;\n        if (howToCall == HowToCall.Call) {\n            (result, ret) = dest.call(data);\n        } else if (howToCall == HowToCall.DelegateCall) {\n            (result, ret) = dest.delegatecall(data);\n        }\n        return result;\n    }\n\n    /**\n     * Execute a message call and assert success\n     * \n     * @dev Same functionality as `proxy`, just asserts the return value\n     * @param dest Address to which the call will be sent\n     * @param howToCall What kind of call to make\n     * @param data Calldata to send\n     */\n    function proxyAssert(address dest, HowToCall howToCall, bytes memory data)\n        public\n    {\n        require(proxy(dest, howToCall, data), \"Proxy assertion failed\");\n    }\n\n}\n",
  "sourcePath": "/home/toor/nodejs/truffle/nft_demo/taudefi/taudefi-nft-protocol/contracts/registry/AuthenticatedProxy.sol",
  "compiler": {
    "name": "solc",
    "version": "0.8.4+commit.c7e474f2.Emscripten.clang"
  },
  "schemaVersion": "3.4.1",
  "updatedAt": "2021-07-20T04:04:07.148Z",
  "devdoc": {
    "author": "Wyvern Protocol Developers",
    "kind": "dev",
    "methods": {
      "initialize(address,address)": {
        "params": {
          "addrRegistry": "Address of ProxyRegistry contract which will manage this proxy",
          "addrUser": "Address of user on whose behalf this proxy will act"
        }
      },
      "proxy(address,uint8,bytes)": {
        "details": "Can be called by the user, or by a contract authorized by the registry as long as the user has not revoked access",
        "params": {
          "data": "Calldata to send",
          "dest": "Address to which the call will be sent",
          "howToCall": "Which kind of call to make"
        },
        "returns": {
          "result": "Result of the call (success or failure)"
        }
      },
      "proxyAssert(address,uint8,bytes)": {
        "details": "Same functionality as `proxy`, just asserts the return value",
        "params": {
          "data": "Calldata to send",
          "dest": "Address to which the call will be sent",
          "howToCall": "What kind of call to make"
        }
      },
      "receiveApproval(address,uint256,address,bytes)": {
        "details": "Receive tokens and generate a log event",
        "params": {
          "extraData": "Additional data to log",
          "from": "Address from which to transfer tokens",
          "token": "Address of token",
          "value": "Amount of tokens to transfer"
        }
      },
      "setRevoke(bool)": {
        "details": "Can be called by the user only",
        "params": {
          "revoke": "Whether or not to revoke access"
        }
      },
      "upgradeabilityOwner()": {
        "details": "Tells the address of the owner",
        "returns": {
          "_0": "the address of the owner"
        }
      }
    },
    "title": "AuthenticatedProxy",
    "version": 1
  },
  "userdoc": {
    "kind": "user",
    "methods": {
      "initialize(address,address)": {
        "notice": "Initialize an AuthenticatedProxy"
      },
      "proxy(address,uint8,bytes)": {
        "notice": "Execute a message call from the proxy contract"
      },
      "proxyAssert(address,uint8,bytes)": {
        "notice": "Execute a message call and assert success "
      },
      "setRevoke(bool)": {
        "notice": "Set the revoked flag (allows a user to revoke ProxyRegistry access)"
      }
    },
    "version": 1
  }
}