{
  "contractName": "Exchange",
  "abi": [
    {
      "anonymous": false,
      "inputs": [
        {
          "indexed": true,
          "internalType": "bytes32",
          "name": "hash",
          "type": "bytes32"
        },
        {
          "indexed": false,
          "internalType": "address",
          "name": "exchange",
          "type": "address"
        },
        {
          "indexed": true,
          "internalType": "address",
          "name": "maker",
          "type": "address"
        },
        {
          "indexed": false,
          "internalType": "address",
          "name": "taker",
          "type": "address"
        },
        {
          "indexed": false,
          "internalType": "uint256",
          "name": "makerRelayerFee",
          "type": "uint256"
        },
        {
          "indexed": false,
          "internalType": "uint256",
          "name": "takerRelayerFee",
          "type": "uint256"
        },
        {
          "indexed": false,
          "internalType": "uint256",
          "name": "makerProtocolFee",
          "type": "uint256"
        },
        {
          "indexed": false,
          "internalType": "uint256",
          "name": "takerProtocolFee",
          "type": "uint256"
        },
        {
          "indexed": true,
          "internalType": "address",
          "name": "feeRecipient",
          "type": "address"
        },
        {
          "indexed": false,
          "internalType": "enum ExchangeCore.FeeMethod",
          "name": "feeMethod",
          "type": "uint8"
        },
        {
          "indexed": false,
          "internalType": "enum SaleKindInterface.Side",
          "name": "side",
          "type": "uint8"
        },
        {
          "indexed": false,
          "internalType": "enum SaleKindInterface.SaleKind",
          "name": "saleKind",
          "type": "uint8"
        },
        {
          "indexed": false,
          "internalType": "address",
          "name": "target",
          "type": "address"
        }
      ],
      "name": "OrderApprovedPartOne",
      "type": "event"
    },
    {
      "anonymous": false,
      "inputs": [
        {
          "indexed": true,
          "internalType": "bytes32",
          "name": "hash",
          "type": "bytes32"
        },
        {
          "indexed": false,
          "internalType": "enum AuthenticatedProxy.HowToCall",
          "name": "howToCall",
          "type": "uint8"
        },
        {
          "indexed": false,
          "internalType": "bytes",
          "name": "callData",
          "type": "bytes"
        },
        {
          "indexed": false,
          "internalType": "bytes",
          "name": "replacementPattern",
          "type": "bytes"
        },
        {
          "indexed": false,
          "internalType": "address",
          "name": "staticTarget",
          "type": "address"
        },
        {
          "indexed": false,
          "internalType": "bytes",
          "name": "staticExtradata",
          "type": "bytes"
        },
        {
          "indexed": false,
          "internalType": "address",
          "name": "paymentToken",
          "type": "address"
        },
        {
          "indexed": false,
          "internalType": "uint256",
          "name": "basePrice",
          "type": "uint256"
        },
        {
          "indexed": false,
          "internalType": "uint256",
          "name": "extra",
          "type": "uint256"
        },
        {
          "indexed": false,
          "internalType": "uint256",
          "name": "listingTime",
          "type": "uint256"
        },
        {
          "indexed": false,
          "internalType": "uint256",
          "name": "expirationTime",
          "type": "uint256"
        },
        {
          "indexed": false,
          "internalType": "uint256",
          "name": "salt",
          "type": "uint256"
        },
        {
          "indexed": false,
          "internalType": "bool",
          "name": "orderbookInclusionDesired",
          "type": "bool"
        }
      ],
      "name": "OrderApprovedPartTwo",
      "type": "event"
    },
    {
      "anonymous": false,
      "inputs": [
        {
          "indexed": true,
          "internalType": "bytes32",
          "name": "hash",
          "type": "bytes32"
        }
      ],
      "name": "OrderCancelled",
      "type": "event"
    },
    {
      "anonymous": false,
      "inputs": [
        {
          "indexed": false,
          "internalType": "bytes32",
          "name": "buyHash",
          "type": "bytes32"
        },
        {
          "indexed": false,
          "internalType": "bytes32",
          "name": "sellHash",
          "type": "bytes32"
        },
        {
          "indexed": true,
          "internalType": "address",
          "name": "maker",
          "type": "address"
        },
        {
          "indexed": true,
          "internalType": "address",
          "name": "taker",
          "type": "address"
        },
        {
          "indexed": false,
          "internalType": "uint256",
          "name": "price",
          "type": "uint256"
        },
        {
          "indexed": true,
          "internalType": "bytes32",
          "name": "metadata",
          "type": "bytes32"
        }
      ],
      "name": "OrdersMatched",
      "type": "event"
    },
    {
      "anonymous": false,
      "inputs": [
        {
          "indexed": true,
          "internalType": "address",
          "name": "previousOwner",
          "type": "address"
        },
        {
          "indexed": true,
          "internalType": "address",
          "name": "newOwner",
          "type": "address"
        }
      ],
      "name": "OwnershipTransferred",
      "type": "event"
    },
    {
      "inputs": [],
      "name": "INVERSE_BASIS_POINT",
      "outputs": [
        {
          "internalType": "uint256",
          "name": "",
          "type": "uint256"
        }
      ],
      "stateMutability": "view",
      "type": "function"
    },
    {
      "inputs": [
        {
          "internalType": "bytes32",
          "name": "",
          "type": "bytes32"
        }
      ],
      "name": "approvedOrders",
      "outputs": [
        {
          "internalType": "bool",
          "name": "",
          "type": "bool"
        }
      ],
      "stateMutability": "view",
      "type": "function"
    },
    {
      "inputs": [
        {
          "internalType": "bytes32",
          "name": "",
          "type": "bytes32"
        }
      ],
      "name": "cancelledOrFinalized",
      "outputs": [
        {
          "internalType": "bool",
          "name": "",
          "type": "bool"
        }
      ],
      "stateMutability": "view",
      "type": "function"
    },
    {
      "inputs": [
        {
          "internalType": "uint256",
          "name": "newMinimumMakerProtocolFee",
          "type": "uint256"
        }
      ],
      "name": "changeMinimumMakerProtocolFee",
      "outputs": [],
      "stateMutability": "nonpayable",
      "type": "function"
    },
    {
      "inputs": [
        {
          "internalType": "uint256",
          "name": "newMinimumTakerProtocolFee",
          "type": "uint256"
        }
      ],
      "name": "changeMinimumTakerProtocolFee",
      "outputs": [],
      "stateMutability": "nonpayable",
      "type": "function"
    },
    {
      "inputs": [
        {
          "internalType": "address",
          "name": "newProtocolFeeRecipient",
          "type": "address"
        }
      ],
      "name": "changeProtocolFeeRecipient",
      "outputs": [],
      "stateMutability": "nonpayable",
      "type": "function"
    },
    {
      "inputs": [],
      "name": "exchangeToken",
      "outputs": [
        {
          "internalType": "contract ERC20",
          "name": "",
          "type": "address"
        }
      ],
      "stateMutability": "view",
      "type": "function"
    },
    {
      "inputs": [],
      "name": "minimumMakerProtocolFee",
      "outputs": [
        {
          "internalType": "uint256",
          "name": "",
          "type": "uint256"
        }
      ],
      "stateMutability": "view",
      "type": "function"
    },
    {
      "inputs": [],
      "name": "minimumTakerProtocolFee",
      "outputs": [
        {
          "internalType": "uint256",
          "name": "",
          "type": "uint256"
        }
      ],
      "stateMutability": "view",
      "type": "function"
    },
    {
      "inputs": [],
      "name": "owner",
      "outputs": [
        {
          "internalType": "address",
          "name": "",
          "type": "address"
        }
      ],
      "stateMutability": "view",
      "type": "function"
    },
    {
      "inputs": [],
      "name": "protocolFeeRecipient",
      "outputs": [
        {
          "internalType": "address",
          "name": "",
          "type": "address"
        }
      ],
      "stateMutability": "view",
      "type": "function"
    },
    {
      "inputs": [],
      "name": "registry",
      "outputs": [
        {
          "internalType": "contract ProxyRegistry",
          "name": "",
          "type": "address"
        }
      ],
      "stateMutability": "view",
      "type": "function"
    },
    {
      "inputs": [],
      "name": "renounceOwnership",
      "outputs": [],
      "stateMutability": "nonpayable",
      "type": "function"
    },
    {
      "inputs": [
        {
          "internalType": "address",
          "name": "target",
          "type": "address"
        },
        {
          "internalType": "bytes",
          "name": "callData",
          "type": "bytes"
        },
        {
          "internalType": "bytes",
          "name": "extradata",
          "type": "bytes"
        }
      ],
      "name": "staticCall",
      "outputs": [
        {
          "internalType": "bool",
          "name": "result",
          "type": "bool"
        }
      ],
      "stateMutability": "view",
      "type": "function"
    },
    {
      "inputs": [],
      "name": "tokenTransferProxy",
      "outputs": [
        {
          "internalType": "contract TokenTransferProxy",
          "name": "",
          "type": "address"
        }
      ],
      "stateMutability": "view",
      "type": "function"
    },
    {
      "inputs": [
        {
          "internalType": "address",
          "name": "newOwner",
          "type": "address"
        }
      ],
      "name": "transferOwnership",
      "outputs": [],
      "stateMutability": "nonpayable",
      "type": "function"
    },
    {
      "inputs": [
        {
          "internalType": "address[7]",
          "name": "addrs",
          "type": "address[7]"
        },
        {
          "internalType": "uint256[9]",
          "name": "uints",
          "type": "uint256[9]"
        },
        {
          "internalType": "enum ExchangeCore.FeeMethod",
          "name": "feeMethod",
          "type": "uint8"
        },
        {
          "internalType": "enum SaleKindInterface.Side",
          "name": "side",
          "type": "uint8"
        },
        {
          "internalType": "enum SaleKindInterface.SaleKind",
          "name": "saleKind",
          "type": "uint8"
        },
        {
          "internalType": "enum AuthenticatedProxy.HowToCall",
          "name": "howToCall",
          "type": "uint8"
        },
        {
          "internalType": "bytes",
          "name": "callData",
          "type": "bytes"
        },
        {
          "internalType": "bytes",
          "name": "replacementPattern",
          "type": "bytes"
        },
        {
          "internalType": "bytes",
          "name": "staticExtradata",
          "type": "bytes"
        }
      ],
      "name": "hashOrder_",
      "outputs": [
        {
          "internalType": "bytes32",
          "name": "",
          "type": "bytes32"
        }
      ],
      "stateMutability": "pure",
      "type": "function"
    },
    {
      "inputs": [
        {
          "internalType": "address[7]",
          "name": "addrs",
          "type": "address[7]"
        },
        {
          "internalType": "uint256[9]",
          "name": "uints",
          "type": "uint256[9]"
        },
        {
          "internalType": "enum ExchangeCore.FeeMethod",
          "name": "feeMethod",
          "type": "uint8"
        },
        {
          "internalType": "enum SaleKindInterface.Side",
          "name": "side",
          "type": "uint8"
        },
        {
          "internalType": "enum SaleKindInterface.SaleKind",
          "name": "saleKind",
          "type": "uint8"
        },
        {
          "internalType": "enum AuthenticatedProxy.HowToCall",
          "name": "howToCall",
          "type": "uint8"
        },
        {
          "internalType": "bytes",
          "name": "callData",
          "type": "bytes"
        },
        {
          "internalType": "bytes",
          "name": "replacementPattern",
          "type": "bytes"
        },
        {
          "internalType": "bytes",
          "name": "staticExtradata",
          "type": "bytes"
        }
      ],
      "name": "hashToSign_",
      "outputs": [
        {
          "internalType": "bytes32",
          "name": "",
          "type": "bytes32"
        }
      ],
      "stateMutability": "pure",
      "type": "function"
    },
    {
      "inputs": [
        {
          "internalType": "address[7]",
          "name": "addrs",
          "type": "address[7]"
        },
        {
          "internalType": "uint256[9]",
          "name": "uints",
          "type": "uint256[9]"
        },
        {
          "internalType": "enum ExchangeCore.FeeMethod",
          "name": "feeMethod",
          "type": "uint8"
        },
        {
          "internalType": "enum SaleKindInterface.Side",
          "name": "side",
          "type": "uint8"
        },
        {
          "internalType": "enum SaleKindInterface.SaleKind",
          "name": "saleKind",
          "type": "uint8"
        },
        {
          "internalType": "enum AuthenticatedProxy.HowToCall",
          "name": "howToCall",
          "type": "uint8"
        },
        {
          "internalType": "bytes",
          "name": "callData",
          "type": "bytes"
        },
        {
          "internalType": "bytes",
          "name": "replacementPattern",
          "type": "bytes"
        },
        {
          "internalType": "bytes",
          "name": "staticExtradata",
          "type": "bytes"
        }
      ],
      "name": "validateOrderParameters_",
      "outputs": [
        {
          "internalType": "bool",
          "name": "",
          "type": "bool"
        }
      ],
      "stateMutability": "view",
      "type": "function"
    },
    {
      "inputs": [
        {
          "internalType": "address[7]",
          "name": "addrs",
          "type": "address[7]"
        },
        {
          "internalType": "uint256[9]",
          "name": "uints",
          "type": "uint256[9]"
        },
        {
          "internalType": "enum ExchangeCore.FeeMethod",
          "name": "feeMethod",
          "type": "uint8"
        },
        {
          "internalType": "enum SaleKindInterface.Side",
          "name": "side",
          "type": "uint8"
        },
        {
          "internalType": "enum SaleKindInterface.SaleKind",
          "name": "saleKind",
          "type": "uint8"
        },
        {
          "internalType": "enum AuthenticatedProxy.HowToCall",
          "name": "howToCall",
          "type": "uint8"
        },
        {
          "internalType": "bytes",
          "name": "callData",
          "type": "bytes"
        },
        {
          "internalType": "bytes",
          "name": "replacementPattern",
          "type": "bytes"
        },
        {
          "internalType": "bytes",
          "name": "staticExtradata",
          "type": "bytes"
        },
        {
          "internalType": "uint8",
          "name": "v",
          "type": "uint8"
        },
        {
          "internalType": "bytes32",
          "name": "r",
          "type": "bytes32"
        },
        {
          "internalType": "bytes32",
          "name": "s",
          "type": "bytes32"
        }
      ],
      "name": "validateOrder_",
      "outputs": [
        {
          "internalType": "bool",
          "name": "",
          "type": "bool"
        }
      ],
      "stateMutability": "view",
      "type": "function"
    },
    {
      "inputs": [
        {
          "internalType": "address[7]",
          "name": "addrs",
          "type": "address[7]"
        },
        {
          "internalType": "uint256[9]",
          "name": "uints",
          "type": "uint256[9]"
        },
        {
          "internalType": "enum ExchangeCore.FeeMethod",
          "name": "feeMethod",
          "type": "uint8"
        },
        {
          "internalType": "enum SaleKindInterface.Side",
          "name": "side",
          "type": "uint8"
        },
        {
          "internalType": "enum SaleKindInterface.SaleKind",
          "name": "saleKind",
          "type": "uint8"
        },
        {
          "internalType": "enum AuthenticatedProxy.HowToCall",
          "name": "howToCall",
          "type": "uint8"
        },
        {
          "internalType": "bytes",
          "name": "callData",
          "type": "bytes"
        },
        {
          "internalType": "bytes",
          "name": "replacementPattern",
          "type": "bytes"
        },
        {
          "internalType": "bytes",
          "name": "staticExtradata",
          "type": "bytes"
        },
        {
          "internalType": "bool",
          "name": "orderbookInclusionDesired",
          "type": "bool"
        }
      ],
      "name": "approveOrder_",
      "outputs": [],
      "stateMutability": "nonpayable",
      "type": "function"
    },
    {
      "inputs": [
        {
          "internalType": "address[7]",
          "name": "addrs",
          "type": "address[7]"
        },
        {
          "internalType": "uint256[9]",
          "name": "uints",
          "type": "uint256[9]"
        },
        {
          "internalType": "enum ExchangeCore.FeeMethod",
          "name": "feeMethod",
          "type": "uint8"
        },
        {
          "internalType": "enum SaleKindInterface.Side",
          "name": "side",
          "type": "uint8"
        },
        {
          "internalType": "enum SaleKindInterface.SaleKind",
          "name": "saleKind",
          "type": "uint8"
        },
        {
          "internalType": "enum AuthenticatedProxy.HowToCall",
          "name": "howToCall",
          "type": "uint8"
        },
        {
          "internalType": "bytes",
          "name": "callData",
          "type": "bytes"
        },
        {
          "internalType": "bytes",
          "name": "replacementPattern",
          "type": "bytes"
        },
        {
          "internalType": "bytes",
          "name": "staticExtradata",
          "type": "bytes"
        },
        {
          "internalType": "uint8",
          "name": "v",
          "type": "uint8"
        },
        {
          "internalType": "bytes32",
          "name": "r",
          "type": "bytes32"
        },
        {
          "internalType": "bytes32",
          "name": "s",
          "type": "bytes32"
        }
      ],
      "name": "cancelOrder_",
      "outputs": [],
      "stateMutability": "nonpayable",
      "type": "function"
    },
    {
      "inputs": [
        {
          "internalType": "address[7]",
          "name": "addrs",
          "type": "address[7]"
        },
        {
          "internalType": "uint256[9]",
          "name": "uints",
          "type": "uint256[9]"
        },
        {
          "internalType": "enum ExchangeCore.FeeMethod",
          "name": "feeMethod",
          "type": "uint8"
        },
        {
          "internalType": "enum SaleKindInterface.Side",
          "name": "side",
          "type": "uint8"
        },
        {
          "internalType": "enum SaleKindInterface.SaleKind",
          "name": "saleKind",
          "type": "uint8"
        },
        {
          "internalType": "enum AuthenticatedProxy.HowToCall",
          "name": "howToCall",
          "type": "uint8"
        },
        {
          "internalType": "bytes",
          "name": "callData",
          "type": "bytes"
        },
        {
          "internalType": "bytes",
          "name": "replacementPattern",
          "type": "bytes"
        },
        {
          "internalType": "bytes",
          "name": "staticExtradata",
          "type": "bytes"
        }
      ],
      "name": "calculateCurrentPrice_",
      "outputs": [
        {
          "internalType": "uint256",
          "name": "",
          "type": "uint256"
        }
      ],
      "stateMutability": "view",
      "type": "function"
    },
    {
      "inputs": [
        {
          "internalType": "address[14]",
          "name": "addrs",
          "type": "address[14]"
        },
        {
          "internalType": "uint256[18]",
          "name": "uints",
          "type": "uint256[18]"
        },
        {
          "internalType": "uint8[8]",
          "name": "feeMethodsSidesKindsHowToCalls",
          "type": "uint8[8]"
        },
        {
          "internalType": "bytes",
          "name": "callDataBuy",
          "type": "bytes"
        },
        {
          "internalType": "bytes",
          "name": "callDataSell",
          "type": "bytes"
        },
        {
          "internalType": "bytes",
          "name": "replacementPatternBuy",
          "type": "bytes"
        },
        {
          "internalType": "bytes",
          "name": "replacementPatternSell",
          "type": "bytes"
        },
        {
          "internalType": "bytes",
          "name": "staticExtradataBuy",
          "type": "bytes"
        },
        {
          "internalType": "bytes",
          "name": "staticExtradataSell",
          "type": "bytes"
        }
      ],
      "name": "ordersCanMatch_",
      "outputs": [
        {
          "internalType": "bool",
          "name": "",
          "type": "bool"
        }
      ],
      "stateMutability": "view",
      "type": "function"
    },
    {
      "inputs": [
        {
          "internalType": "bytes",
          "name": "buyCalldata",
          "type": "bytes"
        },
        {
          "internalType": "bytes",
          "name": "buyReplacementPattern",
          "type": "bytes"
        },
        {
          "internalType": "bytes",
          "name": "sellCalldata",
          "type": "bytes"
        },
        {
          "internalType": "bytes",
          "name": "sellReplacementPattern",
          "type": "bytes"
        }
      ],
      "name": "orderCalldataCanMatch",
      "outputs": [
        {
          "internalType": "bool",
          "name": "",
          "type": "bool"
        }
      ],
      "stateMutability": "pure",
      "type": "function"
    },
    {
      "inputs": [
        {
          "internalType": "address[14]",
          "name": "addrs",
          "type": "address[14]"
        },
        {
          "internalType": "uint256[18]",
          "name": "uints",
          "type": "uint256[18]"
        },
        {
          "internalType": "uint8[8]",
          "name": "feeMethodsSidesKindsHowToCalls",
          "type": "uint8[8]"
        },
        {
          "internalType": "bytes",
          "name": "callDataBuy",
          "type": "bytes"
        },
        {
          "internalType": "bytes",
          "name": "callDataSell",
          "type": "bytes"
        },
        {
          "internalType": "bytes",
          "name": "replacementPatternBuy",
          "type": "bytes"
        },
        {
          "internalType": "bytes",
          "name": "replacementPatternSell",
          "type": "bytes"
        },
        {
          "internalType": "bytes",
          "name": "staticExtradataBuy",
          "type": "bytes"
        },
        {
          "internalType": "bytes",
          "name": "staticExtradataSell",
          "type": "bytes"
        }
      ],
      "name": "calculateMatchPrice_",
      "outputs": [
        {
          "internalType": "uint256",
          "name": "",
          "type": "uint256"
        }
      ],
      "stateMutability": "view",
      "type": "function"
    },
    {
      "inputs": [
        {
          "internalType": "address[14]",
          "name": "addrs",
          "type": "address[14]"
        },
        {
          "internalType": "uint256[18]",
          "name": "uints",
          "type": "uint256[18]"
        },
        {
          "internalType": "uint8[8]",
          "name": "feeMethodsSidesKindsHowToCalls",
          "type": "uint8[8]"
        },
        {
          "internalType": "bytes",
          "name": "callDataBuy",
          "type": "bytes"
        },
        {
          "internalType": "bytes",
          "name": "callDataSell",
          "type": "bytes"
        },
        {
          "internalType": "bytes",
          "name": "replacementPatternBuy",
          "type": "bytes"
        },
        {
          "internalType": "bytes",
          "name": "replacementPatternSell",
          "type": "bytes"
        },
        {
          "internalType": "bytes",
          "name": "staticExtradataBuy",
          "type": "bytes"
        },
        {
          "internalType": "bytes",
          "name": "staticExtradataSell",
          "type": "bytes"
        },
        {
          "internalType": "uint8[2]",
          "name": "vs",
          "type": "uint8[2]"
        },
        {
          "internalType": "bytes32[5]",
          "name": "rssMetadata",
          "type": "bytes32[5]"
        }
      ],
      "name": "atomicMatch_",
      "outputs": [],
      "stateMutability": "payable",
      "type": "function"
    }
  ],
  "bytecode": "0x60806040526000805460ff19168155600681905560075534801561002257600080fd5b5060008054610100600160a81b031916336101008102919091178255604051909182917f8be0079c531659141344cd1fd0a4f28419497f9722a3daafe3b4186f6b6457e0908290a3506160e1806200007b6000396000f3fe60806040526004361061019c5760003560e01c806379666868116100ec578063a8a41c701161008a578063cae6047f11610064578063cae6047f146104a5578063d537e131146104bb578063e57d4adb146104db578063f2fde38b1461050b57600080fd5b8063a8a41c7014610452578063ab834bab14610472578063ca595b9a1461048557600080fd5b80637d766981116100c65780637d766981146103bf5780638076f005146103df5780638da5cb5b1461040f578063a25eb5d91461043257600080fd5b806379666868146103695780637b103999146103895780637ccefc52146103a957600080fd5b8063514f03301161015957806364df049e1161013357806364df049e146102f4578063715018a61461031457806371d02b381461032957806372593b4c1461034957600080fd5b8063514f033014610294578063562b2ebc146102b457806360bef33a146102d457600080fd5b80630eefdbad146101a157806310796a47146101de57806314350c241461020e5780631a6b13e21461023057806328a8ee68146102505780633f67ee0d14610274575b600080fd5b3480156101ad57600080fd5b506003546101c1906001600160a01b031681565b6040516001600160a01b0390911681526020015b60405180910390f35b3480156101ea57600080fd5b506101fe6101f9366004615713565b61052b565b60405190151581526020016101d5565b34801561021a57600080fd5b5061022e610229366004615d28565b6105c3565b005b34801561023c57600080fd5b5061022e61024b366004615d28565b610601565b34801561025c57600080fd5b5061026660075481565b6040519081526020016101d5565b34801561028057600080fd5b5061026661028f366004615a0e565b610636565b3480156102a057600080fd5b5061022e6102af3660046156db565b61098e565b3480156102c057600080fd5b506101fe6102cf366004615d40565b6109e0565b3480156102e057600080fd5b506101fe6102ef366004615be3565b610a1a565b34801561030057600080fd5b506008546101c1906001600160a01b031681565b34801561032057600080fd5b5061022e610dc5565b34801561033557600080fd5b50610266610344366004615a0e565b610e44565b34801561035557600080fd5b506101fe610364366004615785565b61118e565b34801561037557600080fd5b5061022e610384366004615ae1565b611993565b34801561039557600080fd5b506002546101c1906001600160a01b031681565b3480156103b557600080fd5b5061026660065481565b3480156103cb57600080fd5b506102666103da366004615a0e565b611cee565b3480156103eb57600080fd5b506101fe6103fa366004615d28565b60046020526000908152604090205460ff1681565b34801561041b57600080fd5b5060005461010090046001600160a01b03166101c1565b34801561043e57600080fd5b506001546101c1906001600160a01b031681565b34801561045e57600080fd5b5061022e61046d366004615be3565b612038565b61022e6104803660046158b0565b6123ce565b34801561049157600080fd5b506101fe6104a0366004615a0e565b612c9f565b3480156104b157600080fd5b5061026661271081565b3480156104c757600080fd5b506102666104d6366004615785565b612ffc565b3480156104e757600080fd5b506101fe6104f6366004615d28565b60056020526000908152604090205460ff1681565b34801561051757600080fd5b5061022e6105263660046156db565b6137f1565b6000808251845161053c9190615fb2565b6001600160401b0381111561056157634e487b7160e01b600052604160045260246000fd5b6040519080825280601f01601f19166020018201604052801561058b576020820181803683370190505b5090506020810161059c81856138ec565b90506105a881866138ec565b506000604051835160208501895afa925050505b9392505050565b6000546001600160a01b036101009091041633146105fc5760405162461bcd60e51b81526004016105f390615f7d565b60405180910390fd5b600655565b6000546001600160a01b036101009091041633146106315760405162461bcd60e51b81526004016105f390615f7d565b600755565b6000610980604051806102e001604052808c60006007811061066857634e487b7160e01b600052603260045260246000fd5b60200201516001600160a01b031681526020018c60016007811061069c57634e487b7160e01b600052603260045260246000fd5b60200201516001600160a01b031681526020018c6002600781106106d057634e487b7160e01b600052603260045260246000fd5b60200201516001600160a01b031681526020018b60006009811061070457634e487b7160e01b600052603260045260246000fd5b602002015181526020018b60016009811061072f57634e487b7160e01b600052603260045260246000fd5b602002015181526020018b60026009811061075a57634e487b7160e01b600052603260045260246000fd5b602002015181526020018b60036009811061078557634e487b7160e01b600052603260045260246000fd5b602002015181526020018c6003600781106107b057634e487b7160e01b600052603260045260246000fd5b60200201516001600160a01b031681526020018a60018111156107e357634e487b7160e01b600052602160045260246000fd5b815260200189600181111561080857634e487b7160e01b600052602160045260246000fd5b815260200188600181111561082d57634e487b7160e01b600052602160045260246000fd5b815260808d01516001600160a01b0316602082015260400187600181111561086557634e487b7160e01b600052602160045260246000fd5b8152602081018790526040810186905260a0808e01516001600160a01b0316606083015260808201869052018c600660200201516001600160a01b031681526020018b6004600981106108c857634e487b7160e01b600052603260045260246000fd5b602002015181526020018b6005600981106108f357634e487b7160e01b600052603260045260246000fd5b602002015181526020018b60066009811061091e57634e487b7160e01b600052603260045260246000fd5b602002015181526020018b60076009811061094957634e487b7160e01b600052603260045260246000fd5b602002015181526020018b60086009811061097457634e487b7160e01b600052603260045260246000fd5b6020020151905261392f565b9a9950505050505050505050565b6000546001600160a01b036101009091041633146109be5760405162461bcd60e51b81526004016105f390615f7d565b600880546001600160a01b0319166001600160a01b0392909216919091179055565b8251600090156109f5576109f5858486613963565b815115610a0757610a07838684613963565b610a118584613bd7565b95945050505050565b600080604051806102e001604052808f600060078110610a4a57634e487b7160e01b600052603260045260246000fd5b60200201516001600160a01b031681526020018f600160078110610a7e57634e487b7160e01b600052603260045260246000fd5b60200201516001600160a01b031681526020018f600260078110610ab257634e487b7160e01b600052603260045260246000fd5b60200201516001600160a01b031681526020018e600060098110610ae657634e487b7160e01b600052603260045260246000fd5b602002015181526020018e600160098110610b1157634e487b7160e01b600052603260045260246000fd5b602002015181526020018e600260098110610b3c57634e487b7160e01b600052603260045260246000fd5b602002015181526020018e600360098110610b6757634e487b7160e01b600052603260045260246000fd5b602002015181526020018f600360078110610b9257634e487b7160e01b600052603260045260246000fd5b60200201516001600160a01b031681526020018d6001811115610bc557634e487b7160e01b600052602160045260246000fd5b81526020018c6001811115610bea57634e487b7160e01b600052602160045260246000fd5b81526020018b6001811115610c0f57634e487b7160e01b600052602160045260246000fd5b81526020018f600460200201516001600160a01b031681526020018a6001811115610c4a57634e487b7160e01b600052602160045260246000fd5b8152602081018a9052604081018990526060018f600560200201516001600160a01b031681526020018781526020018f600660078110610c9a57634e487b7160e01b600052603260045260246000fd5b60200201516001600160a01b031681526020018e600460098110610cce57634e487b7160e01b600052603260045260246000fd5b602002015181526020018e600560098110610cf957634e487b7160e01b600052603260045260246000fd5b602002015181526020018e600660098110610d2457634e487b7160e01b600052603260045260246000fd5b602002015181526020018e600760098110610d4f57634e487b7160e01b600052603260045260246000fd5b602002015181526020018e600860098110610d7a57634e487b7160e01b600052603260045260246000fd5b602002015190529050610db3610d8f82613c3b565b8260405180606001604052808960ff16815260200188815260200187815250613ca5565b9e9d5050505050505050505050505050565b6000546001600160a01b03610100909104163314610df55760405162461bcd60e51b81526004016105f390615f7d565b600080546040516101009091046001600160a01b0316907f8be0079c531659141344cd1fd0a4f28419497f9722a3daafe3b4186f6b6457e0908390a360008054610100600160a81b0319169055565b6000610980604051806102e001604052808c600060078110610e7657634e487b7160e01b600052603260045260246000fd5b60200201516001600160a01b031681526020018c600160078110610eaa57634e487b7160e01b600052603260045260246000fd5b60200201516001600160a01b031681526020018c600260078110610ede57634e487b7160e01b600052603260045260246000fd5b60200201516001600160a01b031681526020018b600060098110610f1257634e487b7160e01b600052603260045260246000fd5b602002015181526020018b600160098110610f3d57634e487b7160e01b600052603260045260246000fd5b602002015181526020018b600260098110610f6857634e487b7160e01b600052603260045260246000fd5b602002015181526020018b600360098110610f9357634e487b7160e01b600052603260045260246000fd5b602002015181526020018c600360078110610fbe57634e487b7160e01b600052603260045260246000fd5b60200201516001600160a01b031681526020018a6001811115610ff157634e487b7160e01b600052602160045260246000fd5b815260200189600181111561101657634e487b7160e01b600052602160045260246000fd5b815260200188600181111561103b57634e487b7160e01b600052602160045260246000fd5b815260808d01516001600160a01b0316602082015260400187600181111561107357634e487b7160e01b600052602160045260246000fd5b8152602081018790526040810186905260a0808e01516001600160a01b0316606083015260808201869052018c600660200201516001600160a01b031681526020018b6004600981106110d657634e487b7160e01b600052603260045260246000fd5b602002015181526020018b60056009811061110157634e487b7160e01b600052603260045260246000fd5b602002015181526020018b60066009811061112c57634e487b7160e01b600052603260045260246000fd5b602002015181526020018b60076009811061115757634e487b7160e01b600052603260045260246000fd5b602002015181526020018b60086009811061118257634e487b7160e01b600052603260045260246000fd5b60200201519052613d8b565b600080604051806102e001604052808c6000600e81106111be57634e487b7160e01b600052603260045260246000fd5b60200201516001600160a01b031681526020018c6001600e81106111f257634e487b7160e01b600052603260045260246000fd5b60200201516001600160a01b031681526020018c6002600e811061122657634e487b7160e01b600052603260045260246000fd5b60200201516001600160a01b031681526020018b60006012811061125a57634e487b7160e01b600052603260045260246000fd5b602002015181526020018b60016012811061128557634e487b7160e01b600052603260045260246000fd5b602002015181526020018b6002601281106112b057634e487b7160e01b600052603260045260246000fd5b602002015181526020018b6003601281106112db57634e487b7160e01b600052603260045260246000fd5b602002015181526020018c6003600e811061130657634e487b7160e01b600052603260045260246000fd5b60200201516001600160a01b031681526020018a60006008811061133a57634e487b7160e01b600052603260045260246000fd5b602002015160ff16600181111561136157634e487b7160e01b600052602160045260246000fd5b600181111561138057634e487b7160e01b600052602160045260246000fd5b81526020018a6001602002015160ff1660018111156113af57634e487b7160e01b600052602160045260246000fd5b60018111156113ce57634e487b7160e01b600052602160045260246000fd5b81526020018a6002602002015160ff1660018111156113fd57634e487b7160e01b600052602160045260246000fd5b600181111561141c57634e487b7160e01b600052602160045260246000fd5b815260808d01516001600160a01b031660208201526040018a6003602002015160ff16600181111561145e57634e487b7160e01b600052602160045260246000fd5b600181111561147d57634e487b7160e01b600052602160045260246000fd5b8152602081018a90526040810188905260a0808e01516001600160a01b0316606083015260808201879052018c600660200201516001600160a01b031681526020018b6004601281106114e057634e487b7160e01b600052603260045260246000fd5b602002015181526020018b60056012811061150b57634e487b7160e01b600052603260045260246000fd5b602002015181526020018b60066012811061153657634e487b7160e01b600052603260045260246000fd5b602002015181526020018b60076012811061156157634e487b7160e01b600052603260045260246000fd5b602002015181526020018b60086012811061158c57634e487b7160e01b600052603260045260246000fd5b602002015181525090506000604051806102e001604052808d6007600e81106115c557634e487b7160e01b600052603260045260246000fd5b60200201516001600160a01b031681526020018d6008600e81106115f957634e487b7160e01b600052603260045260246000fd5b60200201516001600160a01b031681526020018d6009600e811061162d57634e487b7160e01b600052603260045260246000fd5b60200201516001600160a01b031681526020018c60096012811061166157634e487b7160e01b600052603260045260246000fd5b602002015181526020018c600a6012811061168c57634e487b7160e01b600052603260045260246000fd5b602002015181526020018c600b601281106116b757634e487b7160e01b600052603260045260246000fd5b602002015181526020018c600c601281106116e257634e487b7160e01b600052603260045260246000fd5b602002015181526020018d600a600e811061170d57634e487b7160e01b600052603260045260246000fd5b60200201516001600160a01b031681526020018b60046008811061174157634e487b7160e01b600052603260045260246000fd5b602002015160ff16600181111561176857634e487b7160e01b600052602160045260246000fd5b600181111561178757634e487b7160e01b600052602160045260246000fd5b81526020018b6005602002015160ff1660018111156117b657634e487b7160e01b600052602160045260246000fd5b60018111156117d557634e487b7160e01b600052602160045260246000fd5b81526020018b6006602002015160ff16600181111561180457634e487b7160e01b600052602160045260246000fd5b600181111561182357634e487b7160e01b600052602160045260246000fd5b81526101608e01516001600160a01b031660208201526040018b6007602002015160ff16600181111561186657634e487b7160e01b600052602160045260246000fd5b600181111561188557634e487b7160e01b600052602160045260246000fd5b8152602081018a9052604081018890526101808e01516001600160a01b039081166060830152608082018790526101a08f01511660a082015260c0018c600d602002015181526020018c600e601281106118ef57634e487b7160e01b600052603260045260246000fd5b602002015181526020018c600f6012811061191a57634e487b7160e01b600052603260045260246000fd5b602002015181526020018c60106012811061194557634e487b7160e01b600052603260045260246000fd5b602002015181526020018c60116012811061197057634e487b7160e01b600052603260045260246000fd5b6020020151905290506119838282613fbc565b9c9b505050505050505050505050565b6000604051806102e001604052808c6000600781106119c257634e487b7160e01b600052603260045260246000fd5b60200201516001600160a01b031681526020018c6001600781106119f657634e487b7160e01b600052603260045260246000fd5b60200201516001600160a01b031681526020018c600260078110611a2a57634e487b7160e01b600052603260045260246000fd5b60200201516001600160a01b031681526020018b600060098110611a5e57634e487b7160e01b600052603260045260246000fd5b602002015181526020018b600160098110611a8957634e487b7160e01b600052603260045260246000fd5b602002015181526020018b600260098110611ab457634e487b7160e01b600052603260045260246000fd5b602002015181526020018b600360098110611adf57634e487b7160e01b600052603260045260246000fd5b602002015181526020018c600360078110611b0a57634e487b7160e01b600052603260045260246000fd5b60200201516001600160a01b031681526020018a6001811115611b3d57634e487b7160e01b600052602160045260246000fd5b8152602001896001811115611b6257634e487b7160e01b600052602160045260246000fd5b8152602001886001811115611b8757634e487b7160e01b600052602160045260246000fd5b815260808d01516001600160a01b03166020820152604001876001811115611bbf57634e487b7160e01b600052602160045260246000fd5b8152602081018790526040810186905260a0808e01516001600160a01b0316606083015260808201869052018c600660200201516001600160a01b031681526020018b600460098110611c2257634e487b7160e01b600052603260045260246000fd5b602002015181526020018b600560098110611c4d57634e487b7160e01b600052603260045260246000fd5b602002015181526020018b600660098110611c7857634e487b7160e01b600052603260045260246000fd5b602002015181526020018b600760098110611ca357634e487b7160e01b600052603260045260246000fd5b602002015181526020018b600860098110611cce57634e487b7160e01b600052603260045260246000fd5b602002015190529050611ce1818361420e565b5050505050505050505050565b6000610980604051806102e001604052808c600060078110611d2057634e487b7160e01b600052603260045260246000fd5b60200201516001600160a01b031681526020018c600160078110611d5457634e487b7160e01b600052603260045260246000fd5b60200201516001600160a01b031681526020018c600260078110611d8857634e487b7160e01b600052603260045260246000fd5b60200201516001600160a01b031681526020018b600060098110611dbc57634e487b7160e01b600052603260045260246000fd5b602002015181526020018b600160098110611de757634e487b7160e01b600052603260045260246000fd5b602002015181526020018b600260098110611e1257634e487b7160e01b600052603260045260246000fd5b602002015181526020018b600360098110611e3d57634e487b7160e01b600052603260045260246000fd5b602002015181526020018c600360078110611e6857634e487b7160e01b600052603260045260246000fd5b60200201516001600160a01b031681526020018a6001811115611e9b57634e487b7160e01b600052602160045260246000fd5b8152602001896001811115611ec057634e487b7160e01b600052602160045260246000fd5b8152602001886001811115611ee557634e487b7160e01b600052602160045260246000fd5b815260808d01516001600160a01b03166020820152604001876001811115611f1d57634e487b7160e01b600052602160045260246000fd5b8152602081018790526040810186905260a0808e01516001600160a01b0316606083015260808201869052018c600660200201516001600160a01b031681526020018b600460098110611f8057634e487b7160e01b600052603260045260246000fd5b602002015181526020018b600560098110611fab57634e487b7160e01b600052603260045260246000fd5b602002015181526020018b600660098110611fd657634e487b7160e01b600052603260045260246000fd5b602002015181526020018b60076009811061200157634e487b7160e01b600052603260045260246000fd5b602002015181526020018b60086009811061202c57634e487b7160e01b600052603260045260246000fd5b60200201519052613c3b565b6123c0604051806102e001604052808e60006007811061206857634e487b7160e01b600052603260045260246000fd5b60200201516001600160a01b031681526020018e60016007811061209c57634e487b7160e01b600052603260045260246000fd5b60200201516001600160a01b031681526020018e6002600781106120d057634e487b7160e01b600052603260045260246000fd5b60200201516001600160a01b031681526020018d60006009811061210457634e487b7160e01b600052603260045260246000fd5b602002015181526020018d60016009811061212f57634e487b7160e01b600052603260045260246000fd5b602002015181526020018d60026009811061215a57634e487b7160e01b600052603260045260246000fd5b602002015181526020018d60036009811061218557634e487b7160e01b600052603260045260246000fd5b602002015181526020018e6003600781106121b057634e487b7160e01b600052603260045260246000fd5b60200201516001600160a01b031681526020018c60018111156121e357634e487b7160e01b600052602160045260246000fd5b81526020018b600181111561220857634e487b7160e01b600052602160045260246000fd5b81526020018a600181111561222d57634e487b7160e01b600052602160045260246000fd5b815260808f01516001600160a01b0316602082015260400189600181111561226557634e487b7160e01b600052602160045260246000fd5b815260208101899052604081018890526060018e600560200201516001600160a01b031681526020018681526020018e6006600781106122b557634e487b7160e01b600052603260045260246000fd5b60200201516001600160a01b031681526020018d6004600981106122e957634e487b7160e01b600052603260045260246000fd5b602002015181526020018d60056009811061231457634e487b7160e01b600052603260045260246000fd5b602002015181526020018d60066009811061233f57634e487b7160e01b600052603260045260246000fd5b602002015181526020018d60076009811061236a57634e487b7160e01b600052603260045260246000fd5b602002015181526020018d60086009811061239557634e487b7160e01b600052603260045260246000fd5b602002015181525060405180606001604052808660ff168152602001858152602001848152506143a2565b505050505050505050505050565b611ce1604051806102e001604052808d6000600e81106123fe57634e487b7160e01b600052603260045260246000fd5b60200201516001600160a01b031681526020018d6001600e811061243257634e487b7160e01b600052603260045260246000fd5b60200201516001600160a01b031681526020018d6002600e811061246657634e487b7160e01b600052603260045260246000fd5b60200201516001600160a01b031681526020018c60006012811061249a57634e487b7160e01b600052603260045260246000fd5b602002015181526020018c6001601281106124c557634e487b7160e01b600052603260045260246000fd5b602002015181526020018c6002601281106124f057634e487b7160e01b600052603260045260246000fd5b602002015181526020018c60036012811061251b57634e487b7160e01b600052603260045260246000fd5b602002015181526020018d6003600e811061254657634e487b7160e01b600052603260045260246000fd5b60200201516001600160a01b031681526020018b60006008811061257a57634e487b7160e01b600052603260045260246000fd5b602002015160ff1660018111156125a157634e487b7160e01b600052602160045260246000fd5b60018111156125c057634e487b7160e01b600052602160045260246000fd5b81526020018b6001602002015160ff1660018111156125ef57634e487b7160e01b600052602160045260246000fd5b600181111561260e57634e487b7160e01b600052602160045260246000fd5b81526020018b6002602002015160ff16600181111561263d57634e487b7160e01b600052602160045260246000fd5b600181111561265c57634e487b7160e01b600052602160045260246000fd5b815260808e01516001600160a01b031660208201526040018b6003602002015160ff16600181111561269e57634e487b7160e01b600052602160045260246000fd5b60018111156126bd57634e487b7160e01b600052602160045260246000fd5b8152602081018b90526040810189905260a0808f01516001600160a01b0316606083015260808201889052018d600660200201516001600160a01b031681526020018c60046012811061272057634e487b7160e01b600052603260045260246000fd5b602002015181526020018c60056012811061274b57634e487b7160e01b600052603260045260246000fd5b602002015181526020018c60066012811061277657634e487b7160e01b600052603260045260246000fd5b602002015181526020018c6007601281106127a157634e487b7160e01b600052603260045260246000fd5b602002015181526020018c6008601281106127cc57634e487b7160e01b600052603260045260246000fd5b6020908102919091015190915260408051606081018252865160ff168152855192810192909252810184600160200201519052604080516102e08101909152808f600760200201516001600160a01b031681526020018f6008600e811061284357634e487b7160e01b600052603260045260246000fd5b60200201516001600160a01b031681526020018f6009600e811061287757634e487b7160e01b600052603260045260246000fd5b60200201516001600160a01b031681526020018e6009601281106128ab57634e487b7160e01b600052603260045260246000fd5b602002015181526020018e600a601281106128d657634e487b7160e01b600052603260045260246000fd5b602002015181526020018e600b6012811061290157634e487b7160e01b600052603260045260246000fd5b602002015181526020018e600c6012811061292c57634e487b7160e01b600052603260045260246000fd5b602002015181526020018f600a600e811061295757634e487b7160e01b600052603260045260246000fd5b60200201516001600160a01b031681526020018d60046008811061298b57634e487b7160e01b600052603260045260246000fd5b602002015160ff1660018111156129b257634e487b7160e01b600052602160045260246000fd5b60018111156129d157634e487b7160e01b600052602160045260246000fd5b81526020018d6005602002015160ff166001811115612a0057634e487b7160e01b600052602160045260246000fd5b6001811115612a1f57634e487b7160e01b600052602160045260246000fd5b81526020018d6006602002015160ff166001811115612a4e57634e487b7160e01b600052602160045260246000fd5b6001811115612a6d57634e487b7160e01b600052602160045260246000fd5b81526020018f600b60200201516001600160a01b031681526020018d600760088110612aa957634e487b7160e01b600052603260045260246000fd5b602002015160ff166001811115612ad057634e487b7160e01b600052602160045260246000fd5b6001811115612aef57634e487b7160e01b600052602160045260246000fd5b8152602081018c9052604081018a90526060018f600c60200201516001600160a01b031681526020018781526020018f600d600e8110612b3f57634e487b7160e01b600052603260045260246000fd5b60200201516001600160a01b031681526020018e600d60128110612b7357634e487b7160e01b600052603260045260246000fd5b602002015181526020018e600e60128110612b9e57634e487b7160e01b600052603260045260246000fd5b602002015181526020018e600f60128110612bc957634e487b7160e01b600052603260045260246000fd5b602002015181526020018e601060128110612bf457634e487b7160e01b600052603260045260246000fd5b602002015181526020018e601160128110612c1f57634e487b7160e01b600052603260045260246000fd5b60200201519052604080516060810190915280876001602002015160ff16815260200186600260058110612c6357634e487b7160e01b600052603260045260246000fd5b6020020151815260200186600360058110612c8e57634e487b7160e01b600052603260045260246000fd5b602002015190526080860151614417565b600080604051806102e001604052808c600060078110612ccf57634e487b7160e01b600052603260045260246000fd5b60200201516001600160a01b031681526020018c600160078110612d0357634e487b7160e01b600052603260045260246000fd5b60200201516001600160a01b031681526020018c600260078110612d3757634e487b7160e01b600052603260045260246000fd5b60200201516001600160a01b031681526020018b600060098110612d6b57634e487b7160e01b600052603260045260246000fd5b602002015181526020018b600160098110612d9657634e487b7160e01b600052603260045260246000fd5b602002015181526020018b600260098110612dc157634e487b7160e01b600052603260045260246000fd5b602002015181526020018b600360098110612dec57634e487b7160e01b600052603260045260246000fd5b602002015181526020018c600360078110612e1757634e487b7160e01b600052603260045260246000fd5b60200201516001600160a01b031681526020018a6001811115612e4a57634e487b7160e01b600052602160045260246000fd5b8152602001896001811115612e6f57634e487b7160e01b600052602160045260246000fd5b8152602001886001811115612e9457634e487b7160e01b600052602160045260246000fd5b815260808d01516001600160a01b03166020820152604001876001811115612ecc57634e487b7160e01b600052602160045260246000fd5b8152602081018790526040810186905260a0808e01516001600160a01b0316606083015260808201869052018c600660200201516001600160a01b031681526020018b600460098110612f2f57634e487b7160e01b600052603260045260246000fd5b602002015181526020018b600560098110612f5a57634e487b7160e01b600052603260045260246000fd5b602002015181526020018b600660098110612f8557634e487b7160e01b600052603260045260246000fd5b602002015181526020018b600760098110612fb057634e487b7160e01b600052603260045260246000fd5b602002015181526020018b600860098110612fdb57634e487b7160e01b600052603260045260246000fd5b602002015190529050612fed8161494c565b9b9a5050505050505050505050565b600080604051806102e001604052808c6000600e811061302c57634e487b7160e01b600052603260045260246000fd5b60200201516001600160a01b031681526020018c6001600e811061306057634e487b7160e01b600052603260045260246000fd5b60200201516001600160a01b031681526020018c6002600e811061309457634e487b7160e01b600052603260045260246000fd5b60200201516001600160a01b031681526020018b6000601281106130c857634e487b7160e01b600052603260045260246000fd5b602002015181526020018b6001601281106130f357634e487b7160e01b600052603260045260246000fd5b602002015181526020018b60026012811061311e57634e487b7160e01b600052603260045260246000fd5b602002015181526020018b60036012811061314957634e487b7160e01b600052603260045260246000fd5b602002015181526020018c6003600e811061317457634e487b7160e01b600052603260045260246000fd5b60200201516001600160a01b031681526020018a6000600881106131a857634e487b7160e01b600052603260045260246000fd5b602002015160ff1660018111156131cf57634e487b7160e01b600052602160045260246000fd5b60018111156131ee57634e487b7160e01b600052602160045260246000fd5b81526020018a6001602002015160ff16600181111561321d57634e487b7160e01b600052602160045260246000fd5b600181111561323c57634e487b7160e01b600052602160045260246000fd5b81526020018a6002602002015160ff16600181111561326b57634e487b7160e01b600052602160045260246000fd5b600181111561328a57634e487b7160e01b600052602160045260246000fd5b815260808d01516001600160a01b031660208201526040018a6003602002015160ff1660018111156132cc57634e487b7160e01b600052602160045260246000fd5b60018111156132eb57634e487b7160e01b600052602160045260246000fd5b8152602081018a90526040810188905260a0808e01516001600160a01b0316606083015260808201879052018c600660200201516001600160a01b031681526020018b60046012811061334e57634e487b7160e01b600052603260045260246000fd5b602002015181526020018b60056012811061337957634e487b7160e01b600052603260045260246000fd5b602002015181526020018b6006601281106133a457634e487b7160e01b600052603260045260246000fd5b602002015181526020018b6007601281106133cf57634e487b7160e01b600052603260045260246000fd5b602002015181526020018b6008601281106133fa57634e487b7160e01b600052603260045260246000fd5b602002015181525090506000604051806102e001604052808d6007600e811061343357634e487b7160e01b600052603260045260246000fd5b60200201516001600160a01b031681526020018d6008600e811061346757634e487b7160e01b600052603260045260246000fd5b60200201516001600160a01b031681526020018d6009600e811061349b57634e487b7160e01b600052603260045260246000fd5b60200201516001600160a01b031681526020018c6009601281106134cf57634e487b7160e01b600052603260045260246000fd5b602002015181526020018c600a601281106134fa57634e487b7160e01b600052603260045260246000fd5b602002015181526020018c600b6012811061352557634e487b7160e01b600052603260045260246000fd5b602002015181526020018c600c6012811061355057634e487b7160e01b600052603260045260246000fd5b602002015181526020018d600a600e811061357b57634e487b7160e01b600052603260045260246000fd5b60200201516001600160a01b031681526020018b6004600881106135af57634e487b7160e01b600052603260045260246000fd5b602002015160ff1660018111156135d657634e487b7160e01b600052602160045260246000fd5b60018111156135f557634e487b7160e01b600052602160045260246000fd5b81526020018b6005602002015160ff16600181111561362457634e487b7160e01b600052602160045260246000fd5b600181111561364357634e487b7160e01b600052602160045260246000fd5b81526020018b6006602002015160ff16600181111561367257634e487b7160e01b600052602160045260246000fd5b600181111561369157634e487b7160e01b600052602160045260246000fd5b81526101608e01516001600160a01b031660208201526040018b6007602002015160ff1660018111156136d457634e487b7160e01b600052602160045260246000fd5b60018111156136f357634e487b7160e01b600052602160045260246000fd5b8152602081018a9052604081018890526101808e01516001600160a01b039081166060830152608082018790526101a08f01511660a082015260c0018c600d602002015181526020018c600e6012811061375d57634e487b7160e01b600052603260045260246000fd5b602002015181526020018c600f6012811061378857634e487b7160e01b600052603260045260246000fd5b602002015181526020018c6010601281106137b357634e487b7160e01b600052603260045260246000fd5b602002015181526020018c6011601281106137de57634e487b7160e01b600052603260045260246000fd5b60200201519052905061198382826149e5565b6000546001600160a01b036101009091041633146138215760405162461bcd60e51b81526004016105f390615f7d565b6001600160a01b0381166138865760405162461bcd60e51b815260206004820152602660248201527f4f776e61626c653a206e6577206f776e657220697320746865207a65726f206160448201526564647265737360d01b60648201526084016105f3565b600080546040516001600160a01b038085169361010090930416917f8be0079c531659141344cd1fd0a4f28419497f9722a3daafe3b4186f6b6457e091a3600080546001600160a01b0390921661010002610100600160a81b0319909216919091179055565b80516000901561392857815180602001830160208401855b6001838310141561391f578151815260209182019101613904565b50505092909201915b5090919050565b600061395d826101200151836101400151846102400151856102600151866102800151876102a00151614a73565b92915050565b81518351146139b45760405162461bcd60e51b815260206004820152601d60248201527f417272617973206861766520646966666572656e74206c656e6774687300000060448201526064016105f3565b8051835114613a135760405162461bcd60e51b815260206004820152602560248201527f417272617920616e64206d61736b206861766520646966666572656e74206c656044820152646e6774687360d81b60648201526084016105f3565b600060208451613a239190615fca565b90506000613a32826020615fea565b905081613a40602083615fca565b14613a5b57634e487b7160e01b600052600160045260246000fd5b60005b82811015613a9857806001016020028085015181870151811682890151821916178289015250508080613a9090616020565b915050613a5e565b8215613ac55782905080600101602002808501518187015181168289015182191617828901525050613bcf565b50805b8551811015613bcf57848181518110613af157634e487b7160e01b600052603260045260246000fd5b602001015160f81c60f81b848281518110613b1c57634e487b7160e01b600052603260045260246000fd5b602001015160f81c60f81b16868281518110613b4857634e487b7160e01b600052603260045260246000fd5b602001015160f81c60f81b858381518110613b7357634e487b7160e01b600052603260045260246000fd5b602001015160f81c60f81b60ff60f81b181617868281518110613ba657634e487b7160e01b600052603260045260246000fd5b60200101906001600160f81b031916908160001a90535080613bc781616020565b915050613ac8565b505050505050565b815181516000916001918114808314613bf35760009250613c31565b600160208701838101602088015b600284838510011415613c2c578051835114613c205760009650600093505b60209283019201613c01565b505050505b5090949350505050565b6000613c4682613d8b565b6040805160208101829052601c60608201527f19457468657265756d205369676e6564204d6573736167653a0a33320000000060808201529081019190915260a001604051602081830303815290604052805190602001209050919050565b6000613cb08361494c565b613cbc575060006105bc565b60008481526004602052604090205460ff1615613cdb575060006105bc565b60008481526005602052604090205460ff1615613cfa575060016105bc565b6020808401518351848301516040808701518151600081529586018083528a905260ff90931690850152606084015260808301526001600160a01b03169060019060a0016020604051602081039080840390855afa158015613d60573d6000803e3d6000fd5b505050602060405103516001600160a01b03161415613d81575060016105bc565b5060009392505050565b600080613d9783614b45565b90506000816001600160401b03811115613dc157634e487b7160e01b600052604160045260246000fd5b6040519080825280601f01601f191660200182016040528015613deb576020820181803683370190505b5084519091506020820190613e01908290614b7d565b9050613e11818660200151614b7d565b9050613e21818660400151614b7d565b6060868101518252608080880151602084015260a0880151604084015260c08801519183019190915260e087015191019150613e5e908290614b7d565b9050613e8e818661010001516001811115613e8957634e487b7160e01b600052602160045260246000fd5b614b97565b9050613eb9818661012001516001811115613e8957634e487b7160e01b600052602160045260246000fd5b9050613ee4818661014001516001811115613e8957634e487b7160e01b600052602160045260246000fd5b9050613ef581866101600151614b7d565b9050613f20818661018001516001811115613e8957634e487b7160e01b600052602160045260246000fd5b9050613f3181866101a001516138ec565b9050613f4281866101c001516138ec565b9050613f5381866101e00151614b7d565b9050613f64818661020001516138ec565b9050613f7581866102200151614b7d565b610240860151815261026086015160208083019190915261028087015160408301526102a087015160608301526102c0909601516080909101525090920191909120919050565b6000808361012001516001811115613fe457634e487b7160e01b600052602160045260246000fd5b14801561401557506001826101200151600181111561401357634e487b7160e01b600052602160045260246000fd5b145b80156140685750816101000151600181111561404157634e487b7160e01b600052602160045260246000fd5b836101000151600181111561406657634e487b7160e01b600052602160045260246000fd5b145b801561408f57508161022001516001600160a01b03168361022001516001600160a01b0316145b80156140c9575060408201516001600160a01b031615806140c9575082602001516001600160a01b031682604001516001600160a01b0316145b8015614103575060408301516001600160a01b03161580614103575081602001516001600160a01b031683604001516001600160a01b0316145b801561415e575060e08201516001600160a01b0316158015614131575060e08301516001600160a01b031615155b8061415e575060e08201516001600160a01b03161580159061415e575060e08301516001600160a01b0316155b801561418557508161016001516001600160a01b03168361016001516001600160a01b0316145b80156141d8575081610180015160018111156141b157634e487b7160e01b600052602160045260246000fd5b83610180015160018111156141d657634e487b7160e01b600052602160045260246000fd5b145b80156141f357506141f3836102800151846102a00151614ba4565b80156105bc57506105bc826102800151836102a00151614ba4565b81602001516001600160a01b0316336001600160a01b03161461423057600080fd5b600061423b83613c3b565b60008181526005602052604090205490915060ff161561425a57600080fd5b60016005600083815260200190815260200160002060006101000a81548160ff0219169083151502179055508260e001516001600160a01b031683602001516001600160a01b0316827f90c7f9f5b58c15f0f635bfb99f55d3d78fdbef3559e7d8abf5c81052a527662286600001518760400151886060015189608001518a60a001518b60c001518c61010001518d61012001518e61014001518f61016001516040516143109a99989796959493929190615e32565b60405180910390a4807fe55393c778364e440d958b39ac1debd99dcfae3775a8a04d1e79124adf6a2d08846101800151856101a00151866101c00151876101e001518861020001518961022001518a61024001518b61026001518c61028001518d6102a001518e6102c001518e6040516143959c9b9a99989796959493929190615ee1565b60405180910390a2505050565b60006143ae8383614bc0565b905082602001516001600160a01b0316336001600160a01b0316146143d257600080fd5b600081815260046020526040808220805460ff191660011790555182917f5152abf959f6564662358c2e52b702259b78bac5ee7842a0f01937e670efcc7d91a2505050565b60005460ff16156144605760405162461bcd60e51b81526020600482015260136024820152721499595b9d1c985b98de4819195d1958dd1959606a1b60448201526064016105f3565b6000805460ff1916600117815560208601516001600160a01b03163314156144995761448b8661494c565b61449457600080fd5b6144a6565b6144a38686614bc0565b90505b60208401516000906001600160a01b03163314156144d5576144c78561494c565b6144d057600080fd5b6144e2565b6144df8585614bc0565b90505b6144ec8786613fbc565b6144f557600080fd5b610160850151803b908161450857600080fd5b6101c0890151511561452e5761452e896101a00151886101a001518b6101c00151613963565b6101c0870151511561455457614554876101a001518a6101a00151896101c00151613963565b614568896101a00151886101a00151613bd7565b61457157600080fd5b600254602088015160405163c455279160e01b81526001600160a01b039182166004820152600092919091169063c45527919060240160206040518083038186803b1580156145bf57600080fd5b505afa1580156145d3573d6000803e3d6000fd5b505050506040513d601f19601f820116820180604052508101906145f791906156f7565b90506001600160a01b03811661460c57600080fd5b600260009054906101000a90046001600160a01b03166001600160a01b03166397204d8e6040518163ffffffff1660e01b815260040160206040518083038186803b15801561465a57600080fd5b505afa15801561466e573d6000803e3d6000fd5b505050506040513d601f19601f8201168201806040525081019061469291906156f7565b6001600160a01b0316816001600160a01b0316635c60da1b6040518163ffffffff1660e01b815260040160206040518083038186803b1580156146d457600080fd5b505afa1580156146e8573d6000803e3d6000fd5b505050506040513d601f19601f8201168201806040525081019061470c91906156f7565b6001600160a01b03161461471f57600080fd5b60208a015181906001600160a01b0316331461474f576000868152600460205260409020805460ff191660011790555b88602001516001600160a01b0316336001600160a01b031614614786576000858152600460205260409020805460ff191660011790555b60006147928c8b614be2565b9050816001600160a01b0316631b0f7ba98b61016001518c61018001518d6101a001516040518463ffffffff1660e01b81526004016147d393929190615eb0565b602060405180830381600087803b1580156147ed57600080fd5b505af1158015614801573d6000803e3d6000fd5b505050506040513d601f19601f820116820180604052508101906148259190615d0c565b61482e57600080fd5b6101e08c01516001600160a01b0316156148655761485c8c6101e001518b6101a001518e610200015161052b565b61486557600080fd5b6101e08a01516001600160a01b03161561489c576148938a6101e001518b6101a001518c610200015161052b565b61489c57600080fd5b60e08a015188906001600160a01b03166148ba578a602001516148c0565b8c602001515b60e08c01516001600160a01b0391821691166148e0578d602001516148e6565b8b602001515b604080518b8152602081018b90529081018590526001600160a01b0391909116907fc4109843e0b7d514e4c093114b863f8e7d8d9a458c372cd51bfe526b588006c99060600160405180910390a450506000805460ff1916905550505050505050505050565b80516000906001600160a01b0316301461496857506000919050565b61497c826101400151836102a0015161521b565b61498857506000919050565b600182610100015160018111156149af57634e487b7160e01b600052602160045260246000fd5b1480156149d057506006548260a0015110806149d057506007548260c00151105b156149dd57506000919050565b506001919050565b600080614a14836101200151846101400151856102400151866102600151876102800151886102a00151614a73565b90506000614a448561012001518661014001518761024001518861026001518961028001518a6102a00151614a73565b905081811015614a5357600080fd5b60e08401516001600160a01b0316614a6b5780610a11565b509392505050565b600080866001811115614a9657634e487b7160e01b600052602160045260246000fd5b1415614aa3575083614b3b565b6001866001811115614ac557634e487b7160e01b600052602160045260246000fd5b1415614b3b576000614ad78484616009565b614ae18542616009565b614aeb9087615fea565b614af59190615fca565b90506001886001811115614b1957634e487b7160e01b600052602160045260246000fd5b1415614b3157614b298187616009565b915050614b3b565b614b298187615fb2565b9695505050505050565b600081610200015151826101c0015151836101a00151516101b0614b699190615fb2565b614b739190615fb2565b61395d9190615fb2565b60601b6bffffffffffffffffffffffff1916815260140190565b6000818353505060010190565b600042831080156105bc57508115806105bc5750504210919050565b600080614bcc84613c3b565b9050614bd9818585613ca5565b6105bc57600080fd5b6102208101516000906001600160a01b031615614c04573415614c0457600080fd5b6000614c1084846149e5565b9050600081118015614c2f57506102208301516001600160a01b031615155b15614c4d57614c4d836102200151856020015185602001518461524d565b60e0830151819081906001600160a01b031615614f9a57856080015185608001511115614c7957600080fd5b60018561010001516001811115614ca057634e487b7160e01b600052602160045260246000fd5b1415614f6c578560c001518560c001511115614cbb57600080fd5b606085015115614d62576000612710848760600151614cda9190615fea565b614ce49190615fca565b6102208701519091506001600160a01b0316614d4757614d048184616009565b60e08701516040519194506001600160a01b03169082156108fc029083906000818181858888f19350505050158015614d41573d6000803e3d6000fd5b50614d60565b614d6086610220015187602001518860e001518461524d565b505b608085015115614e09576000612710848760800151614d819190615fea565b614d8b9190615fca565b6102208701519091506001600160a01b0316614dee57614dab8183615fb2565b60e08701516040519193506001600160a01b03169082156108fc029083906000818181858888f19350505050158015614de8573d6000803e3d6000fd5b50614e07565b614e0786610220015188602001518860e001518461524d565b505b60a085015115614eb8576000612710848760a00151614e289190615fea565b614e329190615fca565b6102208701519091506001600160a01b0316614e9357614e528184616009565b6008546040519194506001600160a01b03169082156108fc029083906000818181858888f19350505050158015614e8d573d6000803e3d6000fd5b50614eb6565b6102208601516020870151600854614eb69291906001600160a01b03168461524d565b505b60c085015115614f67576000612710848760c00151614ed79190615fea565b614ee19190615fca565b6102208701519091506001600160a01b0316614f4257614f018183615fb2565b6008546040519193506001600160a01b03169082156108fc029083906000818181858888f19350505050158015614f3c573d6000803e3d6000fd5b50614f65565b6102208601516020880151600854614f659291906001600160a01b03168461524d565b505b61515f565b614f8385602001518660e0015187606001516152f8565b614f6786602001518660e0015187608001516152f8565b846080015186608001511115614faf57600080fd5b60018561010001516001811115614fd657634e487b7160e01b600052602160045260246000fd5b1415615131576102208501516001600160a01b0316614ff457600080fd5b8460c001518660c00151111561500957600080fd5b60608601511561504f5760006127108488606001516150289190615fea565b6150329190615fca565b905061504d86610220015188602001518960e001518461524d565b505b60808601511561509557600061271084886080015161506e9190615fea565b6150789190615fca565b905061509386610220015187602001518960e001518461524d565b505b60a0860151156150e4576000612710848860a001516150b49190615fea565b6150be9190615fca565b61022087015160208901516008549293506150e2926001600160a01b03168461524d565b505b60c086015115614f67576000612710848860c001516151039190615fea565b61510d9190615fca565b6102208701516020880151600854929350614f65926001600160a01b03168461524d565b61514886602001518760e0015188606001516152f8565b61515f85602001518760e0015188608001516152f8565b6102208501516001600160a01b0316613c31578034101561517f57600080fd5b84602001516001600160a01b03166108fc839081150290604051600060405180830381858888f193505050501580156151bc573d6000803e3d6000fd5b5060006151c98234616009565b905080156152105786602001516001600160a01b03166108fc829081150290604051600060405180830381858888f1935050505015801561520e573d6000803e3d6000fd5b505b505090949350505050565b60008083600181111561523e57634e487b7160e01b600052602160045260246000fd5b14806105bc5750501515919050565b80156152f257600354604051630aed65f560e11b81526001600160a01b0386811660048301528581166024830152848116604483015260648201849052909116906315dacbea90608401602060405180830381600087803b1580156152b157600080fd5b505af11580156152c5573d6000803e3d6000fd5b505050506040513d601f19601f820116820180604052508101906152e99190615d0c565b6152f257600080fd5b50505050565b600154615310906001600160a01b031684848461524d565b505050565b600082601f830112615325578081fd5b6040516101c08082018281106001600160401b038211171561534957615349616051565b604052818482810187101561535c578485fd5b8492505b600e83101561538957803561537481616088565b82526001929092019160209182019101615360565b509195945050505050565b600082601f8301126153a4578081fd5b60405160e081018181106001600160401b03821117156153c6576153c6616051565b604052808360e081018610156153da578384fd5b835b60078110156153895781356153f081616088565b835260209283019291909101906001016153dc565b600082601f830112615415578081fd5b60405160a081018181106001600160401b038211171561543757615437616051565b604052808360a0810186101561544b578384fd5b835b600581101561538957813583526020928301929091019060010161544d565b600082601f83011261547c578081fd5b6040516102408082018281106001600160401b03821117156154a0576154a0616051565b60405281848281018710156154b3578485fd5b8492505b6012831015615389578035825260019290920191602091820191016154b7565b600082601f8301126154e7578081fd5b6040516101208082018281106001600160401b038211171561550b5761550b616051565b604052818482810187101561551e578485fd5b8492505b600983101561538957803582526001929092019160209182019101615522565b600082601f830112615552578081fd5b604051604081018181106001600160401b038211171561557457615574616051565b806040525080838560408601111561558a578384fd5b835b60028110156153895761559e826156ca565b8352602092830192919091019060010161558c565b600082601f8301126155c3578081fd5b6040516101008082018281106001600160401b03821117156155e7576155e7616051565b60405281848281018710156155fa578485fd5b8492505b600883101561538957615610816156ca565b825260019290920191602091820191016155fe565b80356156308161609d565b919050565b600082601f830112615645578081fd5b81356001600160401b038082111561565f5761565f616051565b604051601f8301601f19908116603f0116810190828211818310171561568757615687616051565b8160405283815286602085880101111561569f578485fd5b8360208701602083013792830160200193909352509392505050565b80356002811061563057600080fd5b803560ff8116811461563057600080fd5b6000602082840312156156ec578081fd5b81356105bc81616088565b600060208284031215615708578081fd5b81516105bc81616088565b600080600060608486031215615727578182fd5b833561573281616088565b925060208401356001600160401b038082111561574d578384fd5b61575987838801615635565b9350604086013591508082111561576e578283fd5b5061577b86828701615635565b9150509250925092565b60008060008060008060008060006105c08a8c0312156157a3578687fd5b6157ad8b8b615315565b98506157bd8b6101c08c0161546c565b97506157cd8b6104008c016155b3565b96506105008a01356001600160401b03808211156157e9578687fd5b6157f58d838e01615635565b97506105208c013591508082111561580b578687fd5b6158178d838e01615635565b96506105408c013591508082111561582d578586fd5b6158398d838e01615635565b95506105608c013591508082111561584f578485fd5b61585b8d838e01615635565b94506105808c0135915080821115615871578384fd5b61587d8d838e01615635565b93506105a08c0135915080821115615893578283fd5b506158a08c828d01615635565b9150509295985092959850929598565b60008060008060008060008060008060006106a08c8e0312156158d1578485fd5b6158db8d8d615315565b9a506158eb8d6101c08e0161546c565b99506158fb8d6104008e016155b3565b98506001600160401b03806105008e01351115615916578586fd5b6159278e6105008f01358f01615635565b9850806105208e0135111561593a578586fd5b61594b8e6105208f01358f01615635565b9750806105408e0135111561595e578586fd5b61596f8e6105408f01358f01615635565b9650806105608e01351115615982578586fd5b6159938e6105608f01358f01615635565b9550806105808e013511156159a6578283fd5b6159b78e6105808f01358f01615635565b9450806105a08e013511156159ca578283fd5b506159dc8d6105a08e01358e01615635565b92506159ec8d6105c08e01615542565b91506159fc8d6106008e01615405565b90509295989b509295989b9093969950565b60008060008060008060008060006102e08a8c031215615a2c578283fd5b615a368b8b615394565b9850615a458b60e08c016154d7565b9750615a546102008b016156bb565b9650615a636102208b016156bb565b9550615a726102408b016156bb565b9450615a816102608b016156bb565b93506102808a01356001600160401b0380821115615a9d578485fd5b615aa98d838e01615635565b94506102a08c0135915080821115615abf578384fd5b615acb8d838e01615635565b93506102c08c0135915080821115615893578283fd5b6000806000806000806000806000806103008b8d031215615b00578384fd5b615b0a8c8c615394565b9950615b198c60e08d016154d7565b9850615b286102008c016156bb565b9750615b376102208c016156bb565b9650615b466102408c016156bb565b9550615b556102608c016156bb565b94506102808b01356001600160401b0380821115615b71578586fd5b615b7d8e838f01615635565b95506102a08d0135915080821115615b93578485fd5b615b9f8e838f01615635565b94506102c08d0135915080821115615bb5578384fd5b50615bc28d828e01615635565b925050615bd26102e08c01615625565b90509295989b9194979a5092959850565b6000806000806000806000806000806000806103408d8f031215615c05578586fd5b615c0f8e8e615394565b9b50615c1e8e60e08f016154d7565b9a50615c2d6102008e016156bb565b9950615c3c6102208e016156bb565b9850615c4b6102408e016156bb565b9750615c5a6102608e016156bb565b96506001600160401b036102808e01351115615c74578586fd5b615c858e6102808f01358f01615635565b95506001600160401b036102a08e01351115615c9f578081fd5b615cb08e6102a08f01358f01615635565b94506001600160401b036102c08e01351115615cca578081fd5b615cdb8e6102c08f01358f01615635565b9350615cea6102e08e016156ca565b92506103008d013591506103208d013590509295989b509295989b509295989b565b600060208284031215615d1d578081fd5b81516105bc8161609d565b600060208284031215615d39578081fd5b5035919050565b60008060008060808587031215615d55578182fd5b84356001600160401b0380821115615d6b578384fd5b615d7788838901615635565b95506020870135915080821115615d8c578384fd5b615d9888838901615635565b94506040870135915080821115615dad578384fd5b615db988838901615635565b93506060870135915080821115615dce578283fd5b50615ddb87828801615635565b91505092959194509250565b60008151808452815b81811015615e0c57602081850181015186830182015201615df0565b81811115615e1d5782602083870101525b50601f01601f19169290920160200192915050565b6001600160a01b038b811682528a81166020830152604082018a9052606082018990526080820188905260a08201879052610140820190615e7287616067565b8660c0840152615e8186616067565b8560e0840152615e9085616067565b84610100840152808416610120840152509b9a5050505050505050505050565b6001600160a01b0384168152615ec583616067565b826020820152606060408201526000610a116060830184615de7565b6000610180615eef8f616067565b8e8352806020840152615f048184018f615de7565b90508281036040840152615f18818e615de7565b6001600160a01b038d811660608601528482036080860152909150615f3d828d615de7565b9a1660a0840152505060c081019690965260e086019490945261010085019290925261012084015261014083015215156101609091015295945050505050565b6020808252818101527f4f776e61626c653a2063616c6c6572206973206e6f7420746865206f776e6572604082015260600190565b60008219821115615fc557615fc561603b565b500190565b600082615fe557634e487b7160e01b81526012600452602481fd5b500490565b60008160001904831182151516156160045761600461603b565b500290565b60008282101561601b5761601b61603b565b500390565b60006000198214156160345761603461603b565b5060010190565b634e487b7160e01b600052601160045260246000fd5b634e487b7160e01b600052604160045260246000fd5b6002811061608557634e487b7160e01b600052602160045260246000fd5b50565b6001600160a01b038116811461608557600080fd5b801515811461608557600080fdfea264697066735822122036d10e168e75ef5adee88677126849bcd3f4a8af958cb8ac3c558db07045021f64736f6c63430008040033",
  "immutableReferences": {},
  "source": "/*\n  \n  Exchange contract. This is an outer contract with public or convenience functions and includes no state-modifying functions.\n \n*/\n\npragma solidity 0.8.4;\n\nimport \"./ExchangeCore.sol\";\n\n/**\n * @title Exchange\n */\ncontract Exchange is ExchangeCore {\n\n//    /**\n//     * @dev Call guardedArrayReplace - library function exposed for testing.\n//     */\n//    function guardedArrayReplace(bytes memory array, bytes memory desired, bytes memory mask)\n//        public\n//        pure\n//        returns (bytes memory)\n//    {\n//        ArrayUtils.guardedArrayReplace(array, desired, mask);\n//        return array;\n//    }\n\n//    /**\n//     * Test copy byte array\n//     *\n//     * @param arrToCopy Array to copy\n//     * @return byte array\n//     */\n//    function testCopy(bytes memory arrToCopy)\n//        public\n//        pure\n//        returns (bytes memory)\n//    {\n//        bytes memory arr = new bytes(arrToCopy.length);\n//        uint index;\n//        assembly {\n//            index := add(arr, 0x20)\n//        }\n//        ArrayUtils.unsafeWriteBytes(index, arrToCopy);\n//        return arr;\n//    }\n//\n//    /**\n//     * Test write address to bytes\n//     *\n//     * @param addr Address to write\n//     * @return byte array\n//     */\n//    function testCopyAddress(address addr)\n//        public\n//        pure\n//        returns (bytes memory)\n//    {\n//        bytes memory arr = new bytes(0x14);\n//        uint index;\n//        assembly {\n//            index := add(arr, 0x20)\n//        }\n//        ArrayUtils.unsafeWriteAddress(index, addr);\n//        return arr;\n//    }\n\n//    /**\n//     * @dev Call calculateFinalPrice - library function exposed for testing.\n//     */\n//    function calculateFinalPrice(SaleKindInterface.Side side, SaleKindInterface.SaleKind saleKind, uint basePrice, uint extra, uint listingTime, uint expirationTime)\n//        public\n//        view\n//        returns (uint)\n//    {\n//        return SaleKindInterface.calculateFinalPrice(side, saleKind, basePrice, extra, listingTime, expirationTime);\n//    }\n\n    /**\n     * @dev Call hashOrder - Solidity ABI encoding limitation workaround, hopefully temporary.\n     */\n    function hashOrder_(\n        address[7] memory addrs,\n        uint[9] memory uints,\n        FeeMethod feeMethod,\n        SaleKindInterface.Side side,\n        SaleKindInterface.SaleKind saleKind,\n        AuthenticatedProxy.HowToCall howToCall,\n        bytes memory callData,\n        bytes memory replacementPattern,\n        bytes memory staticExtradata)\n        public\n        pure\n        returns (bytes32)\n    {\n        return hashOrder(\n          Order(addrs[0], addrs[1], addrs[2], uints[0], uints[1], uints[2], uints[3], addrs[3], feeMethod, side, saleKind, addrs[4], howToCall, callData, replacementPattern, addrs[5], staticExtradata, address(ERC20(addrs[6])), uints[4], uints[5], uints[6], uints[7], uints[8])\n        );\n    }\n\n    /**\n     * @dev Call hashToSign - Solidity ABI encoding limitation workaround, hopefully temporary.\n     */\n    function hashToSign_(\n        address[7] memory addrs,\n        uint[9] memory uints,\n        FeeMethod feeMethod,\n        SaleKindInterface.Side side,\n        SaleKindInterface.SaleKind saleKind,\n        AuthenticatedProxy.HowToCall howToCall,\n        bytes memory callData,\n        bytes memory replacementPattern,\n        bytes memory staticExtradata)\n        public\n        pure\n        returns (bytes32)\n    { \n        return hashToSign(\n          Order(addrs[0], addrs[1], addrs[2], uints[0], uints[1], uints[2], uints[3], addrs[3], feeMethod, side, saleKind, addrs[4], howToCall, callData, replacementPattern, addrs[5], staticExtradata, address(ERC20(addrs[6])), uints[4], uints[5], uints[6], uints[7], uints[8])\n        );\n    }\n\n    /**\n     * @dev Call validateOrderParameters - Solidity ABI encoding limitation workaround, hopefully temporary.\n     */\n    function validateOrderParameters_ (\n        address[7] memory addrs,\n        uint[9] memory uints,\n        FeeMethod feeMethod,\n        SaleKindInterface.Side side,\n        SaleKindInterface.SaleKind saleKind,\n        AuthenticatedProxy.HowToCall howToCall,\n        bytes memory callData,\n        bytes memory replacementPattern,\n        bytes memory staticExtradata)\n        view\n        public\n        returns (bool)\n    {\n        Order memory order = Order(addrs[0], addrs[1], addrs[2], uints[0], uints[1], uints[2], uints[3], addrs[3], feeMethod, side, saleKind, addrs[4], howToCall, callData, replacementPattern, addrs[5], staticExtradata, address(ERC20(addrs[6])), uints[4], uints[5], uints[6], uints[7], uints[8]);\n        return validateOrderParameters(\n          order\n        );\n    }\n\n    /**\n     * @dev Call validateOrder - Solidity ABI encoding limitation workaround, hopefully temporary.\n     */\n    function validateOrder_ (\n        address[7] memory addrs,\n        uint[9] memory uints,\n        FeeMethod feeMethod,\n        SaleKindInterface.Side side,\n        SaleKindInterface.SaleKind saleKind,\n        AuthenticatedProxy.HowToCall howToCall,\n        bytes memory callData,\n        bytes memory replacementPattern,\n        bytes memory staticExtradata,\n        uint8 v,\n        bytes32 r,\n        bytes32 s)\n        view\n        public\n        returns (bool)\n    {\n        Order memory order = Order(addrs[0], addrs[1], addrs[2], uints[0], uints[1], uints[2], uints[3], addrs[3], feeMethod, side, saleKind, addrs[4], howToCall, callData, replacementPattern, addrs[5], staticExtradata, address(ERC20(addrs[6])), uints[4], uints[5], uints[6], uints[7], uints[8]);\n        return validateOrder(\n          hashToSign(order),\n          order,\n          Sig(v, r, s)\n        );\n    }\n\n    /**\n     * @dev Call approveOrder - Solidity ABI encoding limitation workaround, hopefully temporary.\n     */\n    function approveOrder_ (\n        address[7] memory addrs,\n        uint[9] memory uints,\n        FeeMethod feeMethod,\n        SaleKindInterface.Side side,\n        SaleKindInterface.SaleKind saleKind,\n        AuthenticatedProxy.HowToCall howToCall,\n        bytes memory callData,\n        bytes memory replacementPattern,\n        bytes memory staticExtradata,\n        bool orderbookInclusionDesired)\n        public\n    {\n        Order memory order = Order(addrs[0], addrs[1], addrs[2], uints[0], uints[1], uints[2], uints[3], addrs[3], feeMethod, side, saleKind, addrs[4], howToCall, callData, replacementPattern, addrs[5], staticExtradata, address(ERC20(addrs[6])), uints[4], uints[5], uints[6], uints[7], uints[8]);\n        return approveOrder(order, orderbookInclusionDesired);\n    }\n\n    /**\n     * @dev Call cancelOrder - Solidity ABI encoding limitation workaround, hopefully temporary.\n     */\n    function cancelOrder_(\n        address[7] memory addrs,\n        uint[9] memory uints,\n        FeeMethod feeMethod,\n        SaleKindInterface.Side side,\n        SaleKindInterface.SaleKind saleKind,\n        AuthenticatedProxy.HowToCall howToCall,\n        bytes memory callData,\n        bytes memory replacementPattern,\n        bytes memory staticExtradata,\n        uint8 v,\n        bytes32 r,\n        bytes32 s)\n        public\n    {\n\n        return cancelOrder(\n          Order(addrs[0], addrs[1], addrs[2], uints[0], uints[1], uints[2], uints[3], addrs[3], feeMethod, side, saleKind, addrs[4], howToCall, callData, replacementPattern, addrs[5], staticExtradata, address(ERC20(addrs[6])), uints[4], uints[5], uints[6], uints[7], uints[8]),\n          Sig(v, r, s)\n        );\n    }\n\n    /**\n     * @dev Call calculateCurrentPrice - Solidity ABI encoding limitation workaround, hopefully temporary.\n     */\n    function calculateCurrentPrice_(\n        address[7] memory addrs,\n        uint[9] memory uints,\n        FeeMethod feeMethod,\n        SaleKindInterface.Side side,\n        SaleKindInterface.SaleKind saleKind,\n        AuthenticatedProxy.HowToCall howToCall,\n        bytes memory callData,\n        bytes memory replacementPattern,\n        bytes memory staticExtradata)\n        public\n        view\n        returns (uint)\n    {\n        return calculateCurrentPrice(\n          Order(addrs[0], addrs[1], addrs[2], uints[0], uints[1], uints[2], uints[3], addrs[3], feeMethod, side, saleKind, addrs[4], howToCall, callData, replacementPattern, addrs[5], staticExtradata, address(ERC20(addrs[6])), uints[4], uints[5], uints[6], uints[7], uints[8])\n        );\n    }\n\n    /**\n     * @dev Call ordersCanMatch - Solidity ABI encoding limitation workaround, hopefully temporary.\n     */\n    function ordersCanMatch_(\n        address[14] memory addrs,\n        uint[18] memory uints,\n        uint8[8] memory feeMethodsSidesKindsHowToCalls,\n        bytes memory callDataBuy,\n        bytes memory callDataSell,\n        bytes memory replacementPatternBuy,\n        bytes memory replacementPatternSell,\n        bytes memory staticExtradataBuy,\n        bytes memory staticExtradataSell)\n        public\n        view\n        returns (bool)\n    {\n        Order memory buy = Order(addrs[0], addrs[1], addrs[2], uints[0], uints[1], uints[2], uints[3], addrs[3], FeeMethod(feeMethodsSidesKindsHowToCalls[0]), SaleKindInterface.Side(feeMethodsSidesKindsHowToCalls[1]), SaleKindInterface.SaleKind(feeMethodsSidesKindsHowToCalls[2]), addrs[4], AuthenticatedProxy.HowToCall(feeMethodsSidesKindsHowToCalls[3]), callDataBuy, replacementPatternBuy, addrs[5], staticExtradataBuy, address(ERC20(addrs[6])), uints[4], uints[5], uints[6], uints[7], uints[8]);\n        Order memory sell = Order(addrs[7], addrs[8], addrs[9], uints[9], uints[10], uints[11], uints[12], addrs[10], FeeMethod(feeMethodsSidesKindsHowToCalls[4]), SaleKindInterface.Side(feeMethodsSidesKindsHowToCalls[5]), SaleKindInterface.SaleKind(feeMethodsSidesKindsHowToCalls[6]), addrs[11], AuthenticatedProxy.HowToCall(feeMethodsSidesKindsHowToCalls[7]), callDataSell, replacementPatternSell, addrs[12], staticExtradataSell, address(ERC20(addrs[13])), uints[13], uints[14], uints[15], uints[16], uints[17]);\n        return ordersCanMatch(\n          buy,\n          sell\n        );\n    }\n\n    /**\n     * @dev Return whether or not two orders' callData specifications can match\n     * @param buyCalldata Buy-side order callData\n     * @param buyReplacementPattern Buy-side order callData replacement mask\n     * @param sellCalldata Sell-side order callData\n     * @param sellReplacementPattern Sell-side order callData replacement mask\n     * @return Whether the orders' callData can be matched\n     */\n    function orderCalldataCanMatch(bytes memory buyCalldata, bytes memory buyReplacementPattern, bytes memory sellCalldata, bytes memory sellReplacementPattern)\n        public\n        pure\n        returns (bool)\n    {\n        if (buyReplacementPattern.length > 0) {\n          ArrayUtils.guardedArrayReplace(buyCalldata, sellCalldata, buyReplacementPattern);\n        }\n        if (sellReplacementPattern.length > 0) {\n          ArrayUtils.guardedArrayReplace(sellCalldata, buyCalldata, sellReplacementPattern);\n        }\n        return ArrayUtils.arrayEq(buyCalldata, sellCalldata);\n    }\n\n    /**\n     * @dev Call calculateMatchPrice - Solidity ABI encoding limitation workaround, hopefully temporary.\n     */\n    function calculateMatchPrice_(\n        address[14] memory addrs,\n        uint[18] memory uints,\n        uint8[8] memory feeMethodsSidesKindsHowToCalls,\n        bytes memory callDataBuy,\n        bytes memory callDataSell,\n        bytes memory replacementPatternBuy,\n        bytes memory replacementPatternSell,\n        bytes memory staticExtradataBuy,\n        bytes memory staticExtradataSell)\n        public\n        view\n        returns (uint)\n    {\n        Order memory buy = Order(addrs[0], addrs[1], addrs[2], uints[0], uints[1], uints[2], uints[3], addrs[3], FeeMethod(feeMethodsSidesKindsHowToCalls[0]), SaleKindInterface.Side(feeMethodsSidesKindsHowToCalls[1]), SaleKindInterface.SaleKind(feeMethodsSidesKindsHowToCalls[2]), addrs[4], AuthenticatedProxy.HowToCall(feeMethodsSidesKindsHowToCalls[3]), callDataBuy, replacementPatternBuy, addrs[5], staticExtradataBuy, address(ERC20(addrs[6])), uints[4], uints[5], uints[6], uints[7], uints[8]);\n        Order memory sell = Order(addrs[7], addrs[8], addrs[9], uints[9], uints[10], uints[11], uints[12], addrs[10], FeeMethod(feeMethodsSidesKindsHowToCalls[4]), SaleKindInterface.Side(feeMethodsSidesKindsHowToCalls[5]), SaleKindInterface.SaleKind(feeMethodsSidesKindsHowToCalls[6]), addrs[11], AuthenticatedProxy.HowToCall(feeMethodsSidesKindsHowToCalls[7]), callDataSell, replacementPatternSell, addrs[12], staticExtradataSell, address(ERC20(addrs[13])), uints[13], uints[14], uints[15], uints[16], uints[17]);\n        return calculateMatchPrice(\n          buy,\n          sell\n        );\n    }\n\n    /**\n     * @dev Call atomicMatch - Solidity ABI encoding limitation workaround, hopefully temporary.\n     */\n    function atomicMatch_(\n        address[14] memory addrs,\n        uint[18] memory uints,\n        uint8[8] memory feeMethodsSidesKindsHowToCalls,\n        bytes memory callDataBuy,\n        bytes memory callDataSell,\n        bytes memory replacementPatternBuy,\n        bytes memory replacementPatternSell,\n        bytes memory staticExtradataBuy,\n        bytes memory staticExtradataSell,\n        uint8[2] memory vs,\n        bytes32[5] memory rssMetadata)\n        public\n        payable\n    {\n\n        return atomicMatch(\n          Order(addrs[0], addrs[1], addrs[2], uints[0], uints[1], uints[2], uints[3], addrs[3], FeeMethod(feeMethodsSidesKindsHowToCalls[0]), SaleKindInterface.Side(feeMethodsSidesKindsHowToCalls[1]), SaleKindInterface.SaleKind(feeMethodsSidesKindsHowToCalls[2]), addrs[4], AuthenticatedProxy.HowToCall(feeMethodsSidesKindsHowToCalls[3]), callDataBuy, replacementPatternBuy, addrs[5], staticExtradataBuy, address(ERC20(addrs[6])), uints[4], uints[5], uints[6], uints[7], uints[8]),\n          Sig(vs[0], rssMetadata[0], rssMetadata[1]),\n          Order(addrs[7], addrs[8], addrs[9], uints[9], uints[10], uints[11], uints[12], addrs[10], FeeMethod(feeMethodsSidesKindsHowToCalls[4]), SaleKindInterface.Side(feeMethodsSidesKindsHowToCalls[5]), SaleKindInterface.SaleKind(feeMethodsSidesKindsHowToCalls[6]), addrs[11], AuthenticatedProxy.HowToCall(feeMethodsSidesKindsHowToCalls[7]), callDataSell, replacementPatternSell, addrs[12], staticExtradataSell, address(ERC20(addrs[13])), uints[13], uints[14], uints[15], uints[16], uints[17]),\n          Sig(vs[1], rssMetadata[2], rssMetadata[3]),\n          rssMetadata[4]\n        );\n    }\n\n}\n",
  "sourcePath": "/home/toor/nodejs/truffle/nft_demo/taudefi/taudefi-nft-protocol/contracts/exchange/Exchange.sol",
  "compiler": {
    "name": "solc",
    "version": "0.8.4+commit.c7e474f2.Emscripten.clang"
  },
  "schemaVersion": "3.4.1",
  "updatedAt": "2021-07-18T03:02:32.391Z",
  "devdoc": {
    "kind": "dev",
    "methods": {
      "approveOrder_(address[7],uint256[9],uint8,uint8,uint8,uint8,bytes,bytes,bytes,bool)": {
        "details": "Call approveOrder - Solidity ABI encoding limitation workaround, hopefully temporary."
      },
      "atomicMatch_(address[14],uint256[18],uint8[8],bytes,bytes,bytes,bytes,bytes,bytes,uint8[2],bytes32[5])": {
        "details": "Call atomicMatch - Solidity ABI encoding limitation workaround, hopefully temporary."
      },
      "calculateCurrentPrice_(address[7],uint256[9],uint8,uint8,uint8,uint8,bytes,bytes,bytes)": {
        "details": "Call calculateCurrentPrice - Solidity ABI encoding limitation workaround, hopefully temporary."
      },
      "calculateMatchPrice_(address[14],uint256[18],uint8[8],bytes,bytes,bytes,bytes,bytes,bytes)": {
        "details": "Call calculateMatchPrice - Solidity ABI encoding limitation workaround, hopefully temporary."
      },
      "cancelOrder_(address[7],uint256[9],uint8,uint8,uint8,uint8,bytes,bytes,bytes,uint8,bytes32,bytes32)": {
        "details": "Call cancelOrder - Solidity ABI encoding limitation workaround, hopefully temporary."
      },
      "changeMinimumMakerProtocolFee(uint256)": {
        "details": "Change the minimum maker fee paid to the protocol (owner only)",
        "params": {
          "newMinimumMakerProtocolFee": "New fee to set in basis points"
        }
      },
      "changeMinimumTakerProtocolFee(uint256)": {
        "details": "Change the minimum taker fee paid to the protocol (owner only)",
        "params": {
          "newMinimumTakerProtocolFee": "New fee to set in basis points"
        }
      },
      "changeProtocolFeeRecipient(address)": {
        "details": "Change the protocol fee recipient (owner only)",
        "params": {
          "newProtocolFeeRecipient": "New protocol fee recipient address"
        }
      },
      "hashOrder_(address[7],uint256[9],uint8,uint8,uint8,uint8,bytes,bytes,bytes)": {
        "details": "Call hashOrder - Solidity ABI encoding limitation workaround, hopefully temporary."
      },
      "hashToSign_(address[7],uint256[9],uint8,uint8,uint8,uint8,bytes,bytes,bytes)": {
        "details": "Call hashToSign - Solidity ABI encoding limitation workaround, hopefully temporary."
      },
      "orderCalldataCanMatch(bytes,bytes,bytes,bytes)": {
        "details": "Return whether or not two orders' callData specifications can match",
        "params": {
          "buyCalldata": "Buy-side order callData",
          "buyReplacementPattern": "Buy-side order callData replacement mask",
          "sellCalldata": "Sell-side order callData",
          "sellReplacementPattern": "Sell-side order callData replacement mask"
        },
        "returns": {
          "_0": "Whether the orders' callData can be matched"
        }
      },
      "ordersCanMatch_(address[14],uint256[18],uint8[8],bytes,bytes,bytes,bytes,bytes,bytes)": {
        "details": "Call ordersCanMatch - Solidity ABI encoding limitation workaround, hopefully temporary."
      },
      "owner()": {
        "details": "Returns the address of the current owner."
      },
      "renounceOwnership()": {
        "details": "Leaves the contract without owner. It will not be possible to call `onlyOwner` functions anymore. Can only be called by the current owner. NOTE: Renouncing ownership will leave the contract without an owner, thereby removing any functionality that is only available to the owner."
      },
      "staticCall(address,bytes,bytes)": {
        "details": "Execute a STATICCALL (introduced with Ethereum Metropolis, non-state-modifying external call)",
        "params": {
          "callData": "Calldata (appended to extradata)",
          "extradata": "Base data for STATICCALL (probably function selector and argument encoding)",
          "target": "Contract to call"
        },
        "returns": {
          "result": "of the call (success or failure)"
        }
      },
      "transferOwnership(address)": {
        "details": "Transfers ownership of the contract to a new account (`newOwner`). Can only be called by the current owner."
      },
      "validateOrderParameters_(address[7],uint256[9],uint8,uint8,uint8,uint8,bytes,bytes,bytes)": {
        "details": "Call validateOrderParameters - Solidity ABI encoding limitation workaround, hopefully temporary."
      },
      "validateOrder_(address[7],uint256[9],uint8,uint8,uint8,uint8,bytes,bytes,bytes,uint8,bytes32,bytes32)": {
        "details": "Call validateOrder - Solidity ABI encoding limitation workaround, hopefully temporary."
      }
    },
    "title": "Exchange",
    "version": 1
  },
  "userdoc": {
    "kind": "user",
    "methods": {},
    "version": 1
  }
}