{
  "contractName": "Exchange",
  "abi": [
    {
      "anonymous": false,
      "inputs": [
        {
          "indexed": true,
          "internalType": "bytes32",
          "name": "hash",
          "type": "bytes32"
        },
        {
          "indexed": false,
          "internalType": "address",
          "name": "exchange",
          "type": "address"
        },
        {
          "indexed": true,
          "internalType": "address",
          "name": "maker",
          "type": "address"
        },
        {
          "indexed": false,
          "internalType": "address",
          "name": "taker",
          "type": "address"
        },
        {
          "indexed": false,
          "internalType": "uint256",
          "name": "makerRelayerFee",
          "type": "uint256"
        },
        {
          "indexed": false,
          "internalType": "uint256",
          "name": "takerRelayerFee",
          "type": "uint256"
        },
        {
          "indexed": false,
          "internalType": "uint256",
          "name": "makerProtocolFee",
          "type": "uint256"
        },
        {
          "indexed": false,
          "internalType": "uint256",
          "name": "takerProtocolFee",
          "type": "uint256"
        },
        {
          "indexed": true,
          "internalType": "address",
          "name": "feeRecipient",
          "type": "address"
        },
        {
          "indexed": false,
          "internalType": "enum ExchangeCore.FeeMethod",
          "name": "feeMethod",
          "type": "uint8"
        },
        {
          "indexed": false,
          "internalType": "enum SaleKindInterface.Side",
          "name": "side",
          "type": "uint8"
        },
        {
          "indexed": false,
          "internalType": "enum SaleKindInterface.SaleKind",
          "name": "saleKind",
          "type": "uint8"
        },
        {
          "indexed": false,
          "internalType": "address",
          "name": "target",
          "type": "address"
        }
      ],
      "name": "OrderApprovedPartOne",
      "type": "event"
    },
    {
      "anonymous": false,
      "inputs": [
        {
          "indexed": true,
          "internalType": "bytes32",
          "name": "hash",
          "type": "bytes32"
        },
        {
          "indexed": false,
          "internalType": "enum AuthenticatedProxy.HowToCall",
          "name": "howToCall",
          "type": "uint8"
        },
        {
          "indexed": false,
          "internalType": "bytes",
          "name": "callData",
          "type": "bytes"
        },
        {
          "indexed": false,
          "internalType": "bytes",
          "name": "replacementPattern",
          "type": "bytes"
        },
        {
          "indexed": false,
          "internalType": "address",
          "name": "staticTarget",
          "type": "address"
        },
        {
          "indexed": false,
          "internalType": "bytes",
          "name": "staticExtradata",
          "type": "bytes"
        },
        {
          "indexed": false,
          "internalType": "address",
          "name": "paymentToken",
          "type": "address"
        },
        {
          "indexed": false,
          "internalType": "uint256",
          "name": "basePrice",
          "type": "uint256"
        },
        {
          "indexed": false,
          "internalType": "uint256",
          "name": "extra",
          "type": "uint256"
        },
        {
          "indexed": false,
          "internalType": "uint256",
          "name": "listingTime",
          "type": "uint256"
        },
        {
          "indexed": false,
          "internalType": "uint256",
          "name": "expirationTime",
          "type": "uint256"
        },
        {
          "indexed": false,
          "internalType": "uint256",
          "name": "salt",
          "type": "uint256"
        },
        {
          "indexed": false,
          "internalType": "bool",
          "name": "orderbookInclusionDesired",
          "type": "bool"
        }
      ],
      "name": "OrderApprovedPartTwo",
      "type": "event"
    },
    {
      "anonymous": false,
      "inputs": [
        {
          "indexed": true,
          "internalType": "bytes32",
          "name": "hash",
          "type": "bytes32"
        }
      ],
      "name": "OrderCancelled",
      "type": "event"
    },
    {
      "anonymous": false,
      "inputs": [
        {
          "indexed": false,
          "internalType": "bytes32",
          "name": "buyHash",
          "type": "bytes32"
        },
        {
          "indexed": false,
          "internalType": "bytes32",
          "name": "sellHash",
          "type": "bytes32"
        },
        {
          "indexed": true,
          "internalType": "address",
          "name": "maker",
          "type": "address"
        },
        {
          "indexed": true,
          "internalType": "address",
          "name": "taker",
          "type": "address"
        },
        {
          "indexed": false,
          "internalType": "uint256",
          "name": "price",
          "type": "uint256"
        },
        {
          "indexed": true,
          "internalType": "bytes32",
          "name": "metadata",
          "type": "bytes32"
        }
      ],
      "name": "OrdersMatched",
      "type": "event"
    },
    {
      "anonymous": false,
      "inputs": [
        {
          "indexed": true,
          "internalType": "address",
          "name": "previousOwner",
          "type": "address"
        },
        {
          "indexed": true,
          "internalType": "address",
          "name": "newOwner",
          "type": "address"
        }
      ],
      "name": "OwnershipTransferred",
      "type": "event"
    },
    {
      "anonymous": false,
      "inputs": [
        {
          "indexed": false,
          "internalType": "address",
          "name": "account",
          "type": "address"
        }
      ],
      "name": "Paused",
      "type": "event"
    },
    {
      "anonymous": false,
      "inputs": [
        {
          "indexed": false,
          "internalType": "address",
          "name": "oldTokenAddress",
          "type": "address"
        },
        {
          "indexed": false,
          "internalType": "address",
          "name": "newTokenAddress",
          "type": "address"
        }
      ],
      "name": "ProtocolTokenFeeChange",
      "type": "event"
    },
    {
      "anonymous": false,
      "inputs": [
        {
          "indexed": false,
          "internalType": "address",
          "name": "account",
          "type": "address"
        }
      ],
      "name": "Unpaused",
      "type": "event"
    },
    {
      "inputs": [],
      "name": "INVERSE_BASIS_POINT",
      "outputs": [
        {
          "internalType": "uint256",
          "name": "",
          "type": "uint256"
        }
      ],
      "stateMutability": "view",
      "type": "function"
    },
    {
      "inputs": [
        {
          "internalType": "bytes32",
          "name": "",
          "type": "bytes32"
        }
      ],
      "name": "approvedOrders",
      "outputs": [
        {
          "internalType": "bool",
          "name": "",
          "type": "bool"
        }
      ],
      "stateMutability": "view",
      "type": "function"
    },
    {
      "inputs": [
        {
          "internalType": "bytes32",
          "name": "",
          "type": "bytes32"
        }
      ],
      "name": "cancelledOrFinalized",
      "outputs": [
        {
          "internalType": "bool",
          "name": "",
          "type": "bool"
        }
      ],
      "stateMutability": "view",
      "type": "function"
    },
    {
      "inputs": [
        {
          "internalType": "uint256",
          "name": "newMinimumMakerProtocolFee",
          "type": "uint256"
        }
      ],
      "name": "changeMinimumMakerProtocolFee",
      "outputs": [],
      "stateMutability": "nonpayable",
      "type": "function"
    },
    {
      "inputs": [
        {
          "internalType": "uint256",
          "name": "newMinimumTakerProtocolFee",
          "type": "uint256"
        }
      ],
      "name": "changeMinimumTakerProtocolFee",
      "outputs": [],
      "stateMutability": "nonpayable",
      "type": "function"
    },
    {
      "inputs": [
        {
          "internalType": "address",
          "name": "newProtocolFeeRecipient",
          "type": "address"
        }
      ],
      "name": "changeProtocolFeeRecipient",
      "outputs": [],
      "stateMutability": "nonpayable",
      "type": "function"
    },
    {
      "inputs": [
        {
          "internalType": "address",
          "name": "newTokenAddress",
          "type": "address"
        }
      ],
      "name": "changeProtocolFeeTokenAddress",
      "outputs": [],
      "stateMutability": "nonpayable",
      "type": "function"
    },
    {
      "inputs": [],
      "name": "exchangeToken",
      "outputs": [
        {
          "internalType": "contract ERC20",
          "name": "",
          "type": "address"
        }
      ],
      "stateMutability": "view",
      "type": "function"
    },
    {
      "inputs": [],
      "name": "minimumMakerProtocolFee",
      "outputs": [
        {
          "internalType": "uint256",
          "name": "",
          "type": "uint256"
        }
      ],
      "stateMutability": "view",
      "type": "function"
    },
    {
      "inputs": [],
      "name": "minimumTakerProtocolFee",
      "outputs": [
        {
          "internalType": "uint256",
          "name": "",
          "type": "uint256"
        }
      ],
      "stateMutability": "view",
      "type": "function"
    },
    {
      "inputs": [],
      "name": "owner",
      "outputs": [
        {
          "internalType": "address",
          "name": "",
          "type": "address"
        }
      ],
      "stateMutability": "view",
      "type": "function"
    },
    {
      "inputs": [],
      "name": "pause",
      "outputs": [],
      "stateMutability": "nonpayable",
      "type": "function"
    },
    {
      "inputs": [],
      "name": "paused",
      "outputs": [
        {
          "internalType": "bool",
          "name": "",
          "type": "bool"
        }
      ],
      "stateMutability": "view",
      "type": "function"
    },
    {
      "inputs": [],
      "name": "protocolFeeRecipient",
      "outputs": [
        {
          "internalType": "address",
          "name": "",
          "type": "address"
        }
      ],
      "stateMutability": "view",
      "type": "function"
    },
    {
      "inputs": [],
      "name": "registry",
      "outputs": [
        {
          "internalType": "contract ProxyRegistry",
          "name": "",
          "type": "address"
        }
      ],
      "stateMutability": "view",
      "type": "function"
    },
    {
      "inputs": [],
      "name": "renounceOwnership",
      "outputs": [],
      "stateMutability": "nonpayable",
      "type": "function"
    },
    {
      "inputs": [
        {
          "internalType": "address",
          "name": "target",
          "type": "address"
        },
        {
          "internalType": "bytes",
          "name": "callData",
          "type": "bytes"
        },
        {
          "internalType": "bytes",
          "name": "extradata",
          "type": "bytes"
        }
      ],
      "name": "staticCall",
      "outputs": [
        {
          "internalType": "bool",
          "name": "result",
          "type": "bool"
        }
      ],
      "stateMutability": "view",
      "type": "function"
    },
    {
      "inputs": [],
      "name": "tokenTransferProxy",
      "outputs": [
        {
          "internalType": "contract TokenTransferProxy",
          "name": "",
          "type": "address"
        }
      ],
      "stateMutability": "view",
      "type": "function"
    },
    {
      "inputs": [
        {
          "internalType": "address",
          "name": "newOwner",
          "type": "address"
        }
      ],
      "name": "transferOwnership",
      "outputs": [],
      "stateMutability": "nonpayable",
      "type": "function"
    },
    {
      "inputs": [],
      "name": "unPause",
      "outputs": [],
      "stateMutability": "nonpayable",
      "type": "function"
    },
    {
      "inputs": [
        {
          "internalType": "address[7]",
          "name": "addrs",
          "type": "address[7]"
        },
        {
          "internalType": "uint256[9]",
          "name": "uints",
          "type": "uint256[9]"
        },
        {
          "internalType": "enum ExchangeCore.FeeMethod",
          "name": "feeMethod",
          "type": "uint8"
        },
        {
          "internalType": "enum SaleKindInterface.Side",
          "name": "side",
          "type": "uint8"
        },
        {
          "internalType": "enum SaleKindInterface.SaleKind",
          "name": "saleKind",
          "type": "uint8"
        },
        {
          "internalType": "enum AuthenticatedProxy.HowToCall",
          "name": "howToCall",
          "type": "uint8"
        },
        {
          "internalType": "bytes",
          "name": "callData",
          "type": "bytes"
        },
        {
          "internalType": "bytes",
          "name": "replacementPattern",
          "type": "bytes"
        },
        {
          "internalType": "bytes",
          "name": "staticExtradata",
          "type": "bytes"
        }
      ],
      "name": "hashOrder_",
      "outputs": [
        {
          "internalType": "bytes32",
          "name": "",
          "type": "bytes32"
        }
      ],
      "stateMutability": "pure",
      "type": "function"
    },
    {
      "inputs": [
        {
          "internalType": "address[7]",
          "name": "addrs",
          "type": "address[7]"
        },
        {
          "internalType": "uint256[9]",
          "name": "uints",
          "type": "uint256[9]"
        },
        {
          "internalType": "enum ExchangeCore.FeeMethod",
          "name": "feeMethod",
          "type": "uint8"
        },
        {
          "internalType": "enum SaleKindInterface.Side",
          "name": "side",
          "type": "uint8"
        },
        {
          "internalType": "enum SaleKindInterface.SaleKind",
          "name": "saleKind",
          "type": "uint8"
        },
        {
          "internalType": "enum AuthenticatedProxy.HowToCall",
          "name": "howToCall",
          "type": "uint8"
        },
        {
          "internalType": "bytes",
          "name": "callData",
          "type": "bytes"
        },
        {
          "internalType": "bytes",
          "name": "replacementPattern",
          "type": "bytes"
        },
        {
          "internalType": "bytes",
          "name": "staticExtradata",
          "type": "bytes"
        }
      ],
      "name": "hashToSign_",
      "outputs": [
        {
          "internalType": "bytes32",
          "name": "",
          "type": "bytes32"
        }
      ],
      "stateMutability": "pure",
      "type": "function"
    },
    {
      "inputs": [
        {
          "internalType": "address[7]",
          "name": "addrs",
          "type": "address[7]"
        },
        {
          "internalType": "uint256[9]",
          "name": "uints",
          "type": "uint256[9]"
        },
        {
          "internalType": "enum ExchangeCore.FeeMethod",
          "name": "feeMethod",
          "type": "uint8"
        },
        {
          "internalType": "enum SaleKindInterface.Side",
          "name": "side",
          "type": "uint8"
        },
        {
          "internalType": "enum SaleKindInterface.SaleKind",
          "name": "saleKind",
          "type": "uint8"
        },
        {
          "internalType": "enum AuthenticatedProxy.HowToCall",
          "name": "howToCall",
          "type": "uint8"
        },
        {
          "internalType": "bytes",
          "name": "callData",
          "type": "bytes"
        },
        {
          "internalType": "bytes",
          "name": "replacementPattern",
          "type": "bytes"
        },
        {
          "internalType": "bytes",
          "name": "staticExtradata",
          "type": "bytes"
        }
      ],
      "name": "validateOrderParameters_",
      "outputs": [
        {
          "internalType": "bool",
          "name": "",
          "type": "bool"
        }
      ],
      "stateMutability": "view",
      "type": "function"
    },
    {
      "inputs": [
        {
          "internalType": "address[7]",
          "name": "addrs",
          "type": "address[7]"
        },
        {
          "internalType": "uint256[9]",
          "name": "uints",
          "type": "uint256[9]"
        },
        {
          "internalType": "enum ExchangeCore.FeeMethod",
          "name": "feeMethod",
          "type": "uint8"
        },
        {
          "internalType": "enum SaleKindInterface.Side",
          "name": "side",
          "type": "uint8"
        },
        {
          "internalType": "enum SaleKindInterface.SaleKind",
          "name": "saleKind",
          "type": "uint8"
        },
        {
          "internalType": "enum AuthenticatedProxy.HowToCall",
          "name": "howToCall",
          "type": "uint8"
        },
        {
          "internalType": "bytes",
          "name": "callData",
          "type": "bytes"
        },
        {
          "internalType": "bytes",
          "name": "replacementPattern",
          "type": "bytes"
        },
        {
          "internalType": "bytes",
          "name": "staticExtradata",
          "type": "bytes"
        },
        {
          "internalType": "uint8",
          "name": "v",
          "type": "uint8"
        },
        {
          "internalType": "bytes32",
          "name": "r",
          "type": "bytes32"
        },
        {
          "internalType": "bytes32",
          "name": "s",
          "type": "bytes32"
        }
      ],
      "name": "validateOrder_",
      "outputs": [
        {
          "internalType": "bool",
          "name": "",
          "type": "bool"
        }
      ],
      "stateMutability": "view",
      "type": "function"
    },
    {
      "inputs": [
        {
          "internalType": "address[7]",
          "name": "addrs",
          "type": "address[7]"
        },
        {
          "internalType": "uint256[9]",
          "name": "uints",
          "type": "uint256[9]"
        },
        {
          "internalType": "enum ExchangeCore.FeeMethod",
          "name": "feeMethod",
          "type": "uint8"
        },
        {
          "internalType": "enum SaleKindInterface.Side",
          "name": "side",
          "type": "uint8"
        },
        {
          "internalType": "enum SaleKindInterface.SaleKind",
          "name": "saleKind",
          "type": "uint8"
        },
        {
          "internalType": "enum AuthenticatedProxy.HowToCall",
          "name": "howToCall",
          "type": "uint8"
        },
        {
          "internalType": "bytes",
          "name": "callData",
          "type": "bytes"
        },
        {
          "internalType": "bytes",
          "name": "replacementPattern",
          "type": "bytes"
        },
        {
          "internalType": "bytes",
          "name": "staticExtradata",
          "type": "bytes"
        },
        {
          "internalType": "bool",
          "name": "orderbookInclusionDesired",
          "type": "bool"
        }
      ],
      "name": "approveOrder_",
      "outputs": [],
      "stateMutability": "nonpayable",
      "type": "function"
    },
    {
      "inputs": [
        {
          "internalType": "address[7]",
          "name": "addrs",
          "type": "address[7]"
        },
        {
          "internalType": "uint256[9]",
          "name": "uints",
          "type": "uint256[9]"
        },
        {
          "internalType": "enum ExchangeCore.FeeMethod",
          "name": "feeMethod",
          "type": "uint8"
        },
        {
          "internalType": "enum SaleKindInterface.Side",
          "name": "side",
          "type": "uint8"
        },
        {
          "internalType": "enum SaleKindInterface.SaleKind",
          "name": "saleKind",
          "type": "uint8"
        },
        {
          "internalType": "enum AuthenticatedProxy.HowToCall",
          "name": "howToCall",
          "type": "uint8"
        },
        {
          "internalType": "bytes",
          "name": "callData",
          "type": "bytes"
        },
        {
          "internalType": "bytes",
          "name": "replacementPattern",
          "type": "bytes"
        },
        {
          "internalType": "bytes",
          "name": "staticExtradata",
          "type": "bytes"
        },
        {
          "internalType": "uint8",
          "name": "v",
          "type": "uint8"
        },
        {
          "internalType": "bytes32",
          "name": "r",
          "type": "bytes32"
        },
        {
          "internalType": "bytes32",
          "name": "s",
          "type": "bytes32"
        }
      ],
      "name": "cancelOrder_",
      "outputs": [],
      "stateMutability": "nonpayable",
      "type": "function"
    },
    {
      "inputs": [
        {
          "internalType": "address[7]",
          "name": "addrs",
          "type": "address[7]"
        },
        {
          "internalType": "uint256[9]",
          "name": "uints",
          "type": "uint256[9]"
        },
        {
          "internalType": "enum ExchangeCore.FeeMethod",
          "name": "feeMethod",
          "type": "uint8"
        },
        {
          "internalType": "enum SaleKindInterface.Side",
          "name": "side",
          "type": "uint8"
        },
        {
          "internalType": "enum SaleKindInterface.SaleKind",
          "name": "saleKind",
          "type": "uint8"
        },
        {
          "internalType": "enum AuthenticatedProxy.HowToCall",
          "name": "howToCall",
          "type": "uint8"
        },
        {
          "internalType": "bytes",
          "name": "callData",
          "type": "bytes"
        },
        {
          "internalType": "bytes",
          "name": "replacementPattern",
          "type": "bytes"
        },
        {
          "internalType": "bytes",
          "name": "staticExtradata",
          "type": "bytes"
        }
      ],
      "name": "calculateCurrentPrice_",
      "outputs": [
        {
          "internalType": "uint256",
          "name": "",
          "type": "uint256"
        }
      ],
      "stateMutability": "view",
      "type": "function"
    },
    {
      "inputs": [
        {
          "internalType": "address[14]",
          "name": "addrs",
          "type": "address[14]"
        },
        {
          "internalType": "uint256[18]",
          "name": "uints",
          "type": "uint256[18]"
        },
        {
          "internalType": "uint8[8]",
          "name": "feeMethodsSidesKindsHowToCalls",
          "type": "uint8[8]"
        },
        {
          "internalType": "bytes",
          "name": "callDataBuy",
          "type": "bytes"
        },
        {
          "internalType": "bytes",
          "name": "callDataSell",
          "type": "bytes"
        },
        {
          "internalType": "bytes",
          "name": "replacementPatternBuy",
          "type": "bytes"
        },
        {
          "internalType": "bytes",
          "name": "replacementPatternSell",
          "type": "bytes"
        },
        {
          "internalType": "bytes",
          "name": "staticExtradataBuy",
          "type": "bytes"
        },
        {
          "internalType": "bytes",
          "name": "staticExtradataSell",
          "type": "bytes"
        }
      ],
      "name": "calculateMatchPrice_",
      "outputs": [
        {
          "internalType": "uint256",
          "name": "",
          "type": "uint256"
        }
      ],
      "stateMutability": "view",
      "type": "function"
    },
    {
      "inputs": [
        {
          "internalType": "address[14]",
          "name": "addrs",
          "type": "address[14]"
        },
        {
          "internalType": "uint256[18]",
          "name": "uints",
          "type": "uint256[18]"
        },
        {
          "internalType": "uint8[8]",
          "name": "feeMethodsSidesKindsHowToCalls",
          "type": "uint8[8]"
        },
        {
          "internalType": "bytes",
          "name": "callDataBuy",
          "type": "bytes"
        },
        {
          "internalType": "bytes",
          "name": "callDataSell",
          "type": "bytes"
        },
        {
          "internalType": "bytes",
          "name": "replacementPatternBuy",
          "type": "bytes"
        },
        {
          "internalType": "bytes",
          "name": "replacementPatternSell",
          "type": "bytes"
        },
        {
          "internalType": "bytes",
          "name": "staticExtradataBuy",
          "type": "bytes"
        },
        {
          "internalType": "bytes",
          "name": "staticExtradataSell",
          "type": "bytes"
        },
        {
          "internalType": "uint8[2]",
          "name": "vs",
          "type": "uint8[2]"
        },
        {
          "internalType": "bytes32[5]",
          "name": "rssMetadata",
          "type": "bytes32[5]"
        }
      ],
      "name": "atomicMatch_",
      "outputs": [],
      "stateMutability": "payable",
      "type": "function"
    }
  ],
  "bytecode": "0x60806040526000805460ff19168155600681905560075534801561002257600080fd5b5060008054610100600160a81b031916336101008102919091178255604051909182917f8be0079c531659141344cd1fd0a4f28419497f9722a3daafe3b4186f6b6457e0908290a3506000805460ff60a81b19169055615e9180620000886000396000f3fe6080604052600436106101c25760003560e01c80637b103999116100f7578063a8a41c7011610095578063d537e13111610064578063d537e131146104f5578063e57d4adb14610515578063f2fde38b14610545578063f7b188a51461056557600080fd5b8063a8a41c701461048c578063ab834bab146104ac578063ca595b9a146104bf578063cae6047f146104df57600080fd5b80638076f005116100d15780638076f005146104045780638456cb59146104345780638da5cb5b14610449578063a25eb5d91461046c57600080fd5b80637b103999146103ae5780637ccefc52146103ce5780637d766981146103e457600080fd5b80635c975abb1161016457806364df049e1161013e57806364df049e14610339578063715018a61461035957806371d02b381461036e578063796668681461038e57600080fd5b80635c975abb146102da5780635ef527e4146102f957806360bef33a1461031957600080fd5b80631a6b13e2116101a05780631a6b13e21461025657806328a8ee68146102765780633f67ee0d1461029a578063514f0330146102ba57600080fd5b80630eefdbad146101c757806310796a471461020457806314350c2414610234575b600080fd5b3480156101d357600080fd5b506003546101e7906001600160a01b031681565b6040516001600160a01b0390911681526020015b60405180910390f35b34801561021057600080fd5b5061022461021f366004615540565b61057a565b60405190151581526020016101fb565b34801561024057600080fd5b5061025461024f366004615b55565b610612565b005b34801561026257600080fd5b50610254610271366004615b55565b61067a565b34801561028257600080fd5b5061028c60075481565b6040519081526020016101fb565b3480156102a657600080fd5b5061028c6102b536600461583b565b6106d9565b3480156102c657600080fd5b506102546102d5366004615508565b610a31565b3480156102e657600080fd5b50600054600160a81b900460ff16610224565b34801561030557600080fd5b50610254610314366004615508565b610aad565b34801561032557600080fd5b50610224610334366004615a10565b610b68565b34801561034557600080fd5b506008546101e7906001600160a01b031681565b34801561036557600080fd5b50610254610f13565b34801561037a57600080fd5b5061028c61038936600461583b565b610f92565b34801561039a57600080fd5b506102546103a936600461590e565b6112dc565b3480156103ba57600080fd5b506002546101e7906001600160a01b031681565b3480156103da57600080fd5b5061028c60065481565b3480156103f057600080fd5b5061028c6103ff36600461583b565b611661565b34801561041057600080fd5b5061022461041f366004615b55565b60046020526000908152604090205460ff1681565b34801561044057600080fd5b506102546119ab565b34801561045557600080fd5b5060005461010090046001600160a01b03166101e7565b34801561047857600080fd5b506001546101e7906001600160a01b031681565b34801561049857600080fd5b506102546104a7366004615a10565b6119e5565b6102546104ba3660046156dd565b611da5565b3480156104cb57600080fd5b506102246104da36600461583b565b6126a0565b3480156104eb57600080fd5b5061028c61271081565b34801561050157600080fd5b5061028c6105103660046155b2565b6129fd565b34801561052157600080fd5b50610224610530366004615b55565b60056020526000908152604090205460ff1681565b34801561055157600080fd5b50610254610560366004615508565b613202565b34801561057157600080fd5b506102546132fd565b6000808251845161058b9190615d62565b6001600160401b038111156105b057634e487b7160e01b600052604160045260246000fd5b6040519080825280601f01601f1916602001820160405280156105da576020820181803683370190505b509050602081016105eb8185613335565b90506105f78186613335565b506000604051835160208501895afa925050505b9392505050565b6000546001600160a01b0361010090910416331461064b5760405162461bcd60e51b815260040161064290615d2d565b60405180910390fd5b600054600160a81b900460ff16156106755760405162461bcd60e51b815260040161064290615d03565b600655565b6000546001600160a01b036101009091041633146106aa5760405162461bcd60e51b815260040161064290615d2d565b600054600160a81b900460ff16156106d45760405162461bcd60e51b815260040161064290615d03565b600755565b6000610a23604051806102e001604052808c60006007811061070b57634e487b7160e01b600052603260045260246000fd5b60200201516001600160a01b031681526020018c60016007811061073f57634e487b7160e01b600052603260045260246000fd5b60200201516001600160a01b031681526020018c60026007811061077357634e487b7160e01b600052603260045260246000fd5b60200201516001600160a01b031681526020018b6000600981106107a757634e487b7160e01b600052603260045260246000fd5b602002015181526020018b6001600981106107d257634e487b7160e01b600052603260045260246000fd5b602002015181526020018b6002600981106107fd57634e487b7160e01b600052603260045260246000fd5b602002015181526020018b60036009811061082857634e487b7160e01b600052603260045260246000fd5b602002015181526020018c60036007811061085357634e487b7160e01b600052603260045260246000fd5b60200201516001600160a01b031681526020018a600181111561088657634e487b7160e01b600052602160045260246000fd5b81526020018960018111156108ab57634e487b7160e01b600052602160045260246000fd5b81526020018860018111156108d057634e487b7160e01b600052602160045260246000fd5b815260808d01516001600160a01b0316602082015260400187600181111561090857634e487b7160e01b600052602160045260246000fd5b8152602081018790526040810186905260a0808e01516001600160a01b0316606083015260808201869052018c600660200201516001600160a01b031681526020018b60046009811061096b57634e487b7160e01b600052603260045260246000fd5b602002015181526020018b60056009811061099657634e487b7160e01b600052603260045260246000fd5b602002015181526020018b6006600981106109c157634e487b7160e01b600052603260045260246000fd5b602002015181526020018b6007600981106109ec57634e487b7160e01b600052603260045260246000fd5b602002015181526020018b600860098110610a1757634e487b7160e01b600052603260045260246000fd5b60200201519052613378565b9a9950505050505050505050565b6000546001600160a01b03610100909104163314610a615760405162461bcd60e51b815260040161064290615d2d565b600054600160a81b900460ff1615610a8b5760405162461bcd60e51b815260040161064290615d03565b600880546001600160a01b0319166001600160a01b0392909216919091179055565b6000546001600160a01b03610100909104163314610add5760405162461bcd60e51b815260040161064290615d2d565b600054600160a81b900460ff1615610b075760405162461bcd60e51b815260040161064290615d03565b600180546001600160a01b038381166001600160a01b031983168117909355604080519190921680825260208201939093527f114cfa1c61a2b039de4a4dd89821f0664d2a5dc26f70a270c615a9d14fd40632910160405180910390a15050565b600080604051806102e001604052808f600060078110610b9857634e487b7160e01b600052603260045260246000fd5b60200201516001600160a01b031681526020018f600160078110610bcc57634e487b7160e01b600052603260045260246000fd5b60200201516001600160a01b031681526020018f600260078110610c0057634e487b7160e01b600052603260045260246000fd5b60200201516001600160a01b031681526020018e600060098110610c3457634e487b7160e01b600052603260045260246000fd5b602002015181526020018e600160098110610c5f57634e487b7160e01b600052603260045260246000fd5b602002015181526020018e600260098110610c8a57634e487b7160e01b600052603260045260246000fd5b602002015181526020018e600360098110610cb557634e487b7160e01b600052603260045260246000fd5b602002015181526020018f600360078110610ce057634e487b7160e01b600052603260045260246000fd5b60200201516001600160a01b031681526020018d6001811115610d1357634e487b7160e01b600052602160045260246000fd5b81526020018c6001811115610d3857634e487b7160e01b600052602160045260246000fd5b81526020018b6001811115610d5d57634e487b7160e01b600052602160045260246000fd5b81526020018f600460200201516001600160a01b031681526020018a6001811115610d9857634e487b7160e01b600052602160045260246000fd5b8152602081018a9052604081018990526060018f600560200201516001600160a01b031681526020018781526020018f600660078110610de857634e487b7160e01b600052603260045260246000fd5b60200201516001600160a01b031681526020018e600460098110610e1c57634e487b7160e01b600052603260045260246000fd5b602002015181526020018e600560098110610e4757634e487b7160e01b600052603260045260246000fd5b602002015181526020018e600660098110610e7257634e487b7160e01b600052603260045260246000fd5b602002015181526020018e600760098110610e9d57634e487b7160e01b600052603260045260246000fd5b602002015181526020018e600860098110610ec857634e487b7160e01b600052603260045260246000fd5b602002015190529050610f01610edd826133ac565b8260405180606001604052808960ff16815260200188815260200187815250613408565b9e9d5050505050505050505050505050565b6000546001600160a01b03610100909104163314610f435760405162461bcd60e51b815260040161064290615d2d565b600080546040516101009091046001600160a01b0316907f8be0079c531659141344cd1fd0a4f28419497f9722a3daafe3b4186f6b6457e0908390a360008054610100600160a81b0319169055565b6000610a23604051806102e001604052808c600060078110610fc457634e487b7160e01b600052603260045260246000fd5b60200201516001600160a01b031681526020018c600160078110610ff857634e487b7160e01b600052603260045260246000fd5b60200201516001600160a01b031681526020018c60026007811061102c57634e487b7160e01b600052603260045260246000fd5b60200201516001600160a01b031681526020018b60006009811061106057634e487b7160e01b600052603260045260246000fd5b602002015181526020018b60016009811061108b57634e487b7160e01b600052603260045260246000fd5b602002015181526020018b6002600981106110b657634e487b7160e01b600052603260045260246000fd5b602002015181526020018b6003600981106110e157634e487b7160e01b600052603260045260246000fd5b602002015181526020018c60036007811061110c57634e487b7160e01b600052603260045260246000fd5b60200201516001600160a01b031681526020018a600181111561113f57634e487b7160e01b600052602160045260246000fd5b815260200189600181111561116457634e487b7160e01b600052602160045260246000fd5b815260200188600181111561118957634e487b7160e01b600052602160045260246000fd5b815260808d01516001600160a01b031660208201526040018760018111156111c157634e487b7160e01b600052602160045260246000fd5b8152602081018790526040810186905260a0808e01516001600160a01b0316606083015260808201869052018c600660200201516001600160a01b031681526020018b60046009811061122457634e487b7160e01b600052603260045260246000fd5b602002015181526020018b60056009811061124f57634e487b7160e01b600052603260045260246000fd5b602002015181526020018b60066009811061127a57634e487b7160e01b600052603260045260246000fd5b602002015181526020018b6007600981106112a557634e487b7160e01b600052603260045260246000fd5b602002015181526020018b6008600981106112d057634e487b7160e01b600052603260045260246000fd5b602002015190526134ee565b600054600160a81b900460ff16156113065760405162461bcd60e51b815260040161064290615d03565b6000604051806102e001604052808c60006007811061133557634e487b7160e01b600052603260045260246000fd5b60200201516001600160a01b031681526020018c60016007811061136957634e487b7160e01b600052603260045260246000fd5b60200201516001600160a01b031681526020018c60026007811061139d57634e487b7160e01b600052603260045260246000fd5b60200201516001600160a01b031681526020018b6000600981106113d157634e487b7160e01b600052603260045260246000fd5b602002015181526020018b6001600981106113fc57634e487b7160e01b600052603260045260246000fd5b602002015181526020018b60026009811061142757634e487b7160e01b600052603260045260246000fd5b602002015181526020018b60036009811061145257634e487b7160e01b600052603260045260246000fd5b602002015181526020018c60036007811061147d57634e487b7160e01b600052603260045260246000fd5b60200201516001600160a01b031681526020018a60018111156114b057634e487b7160e01b600052602160045260246000fd5b81526020018960018111156114d557634e487b7160e01b600052602160045260246000fd5b81526020018860018111156114fa57634e487b7160e01b600052602160045260246000fd5b815260808d01516001600160a01b0316602082015260400187600181111561153257634e487b7160e01b600052602160045260246000fd5b8152602081018790526040810186905260a0808e01516001600160a01b0316606083015260808201869052018c600660200201516001600160a01b031681526020018b60046009811061159557634e487b7160e01b600052603260045260246000fd5b602002015181526020018b6005600981106115c057634e487b7160e01b600052603260045260246000fd5b602002015181526020018b6006600981106115eb57634e487b7160e01b600052603260045260246000fd5b602002015181526020018b60076009811061161657634e487b7160e01b600052603260045260246000fd5b602002015181526020018b60086009811061164157634e487b7160e01b600052603260045260246000fd5b602002015190529050611654818361371f565b5050505050505050505050565b6000610a23604051806102e001604052808c60006007811061169357634e487b7160e01b600052603260045260246000fd5b60200201516001600160a01b031681526020018c6001600781106116c757634e487b7160e01b600052603260045260246000fd5b60200201516001600160a01b031681526020018c6002600781106116fb57634e487b7160e01b600052603260045260246000fd5b60200201516001600160a01b031681526020018b60006009811061172f57634e487b7160e01b600052603260045260246000fd5b602002015181526020018b60016009811061175a57634e487b7160e01b600052603260045260246000fd5b602002015181526020018b60026009811061178557634e487b7160e01b600052603260045260246000fd5b602002015181526020018b6003600981106117b057634e487b7160e01b600052603260045260246000fd5b602002015181526020018c6003600781106117db57634e487b7160e01b600052603260045260246000fd5b60200201516001600160a01b031681526020018a600181111561180e57634e487b7160e01b600052602160045260246000fd5b815260200189600181111561183357634e487b7160e01b600052602160045260246000fd5b815260200188600181111561185857634e487b7160e01b600052602160045260246000fd5b815260808d01516001600160a01b0316602082015260400187600181111561189057634e487b7160e01b600052602160045260246000fd5b8152602081018790526040810186905260a0808e01516001600160a01b0316606083015260808201869052018c600660200201516001600160a01b031681526020018b6004600981106118f357634e487b7160e01b600052603260045260246000fd5b602002015181526020018b60056009811061191e57634e487b7160e01b600052603260045260246000fd5b602002015181526020018b60066009811061194957634e487b7160e01b600052603260045260246000fd5b602002015181526020018b60076009811061197457634e487b7160e01b600052603260045260246000fd5b602002015181526020018b60086009811061199f57634e487b7160e01b600052603260045260246000fd5b602002015190526133ac565b6000546001600160a01b036101009091041633146119db5760405162461bcd60e51b815260040161064290615d2d565b6119e36138b3565b565b600054600160a81b900460ff1615611a0f5760405162461bcd60e51b815260040161064290615d03565b611d97604051806102e001604052808e600060078110611a3f57634e487b7160e01b600052603260045260246000fd5b60200201516001600160a01b031681526020018e600160078110611a7357634e487b7160e01b600052603260045260246000fd5b60200201516001600160a01b031681526020018e600260078110611aa757634e487b7160e01b600052603260045260246000fd5b60200201516001600160a01b031681526020018d600060098110611adb57634e487b7160e01b600052603260045260246000fd5b602002015181526020018d600160098110611b0657634e487b7160e01b600052603260045260246000fd5b602002015181526020018d600260098110611b3157634e487b7160e01b600052603260045260246000fd5b602002015181526020018d600360098110611b5c57634e487b7160e01b600052603260045260246000fd5b602002015181526020018e600360078110611b8757634e487b7160e01b600052603260045260246000fd5b60200201516001600160a01b031681526020018c6001811115611bba57634e487b7160e01b600052602160045260246000fd5b81526020018b6001811115611bdf57634e487b7160e01b600052602160045260246000fd5b81526020018a6001811115611c0457634e487b7160e01b600052602160045260246000fd5b815260808f01516001600160a01b03166020820152604001896001811115611c3c57634e487b7160e01b600052602160045260246000fd5b815260208101899052604081018890526060018e600560200201516001600160a01b031681526020018681526020018e600660078110611c8c57634e487b7160e01b600052603260045260246000fd5b60200201516001600160a01b031681526020018d600460098110611cc057634e487b7160e01b600052603260045260246000fd5b602002015181526020018d600560098110611ceb57634e487b7160e01b600052603260045260246000fd5b602002015181526020018d600660098110611d1657634e487b7160e01b600052603260045260246000fd5b602002015181526020018d600760098110611d4157634e487b7160e01b600052603260045260246000fd5b602002015181526020018d600860098110611d6c57634e487b7160e01b600052603260045260246000fd5b602002015181525060405180606001604052808660ff16815260200185815260200184815250613935565b505050505050505050505050565b600054600160a81b900460ff1615611dcf5760405162461bcd60e51b815260040161064290615d03565b611654604051806102e001604052808d6000600e8110611dff57634e487b7160e01b600052603260045260246000fd5b60200201516001600160a01b031681526020018d6001600e8110611e3357634e487b7160e01b600052603260045260246000fd5b60200201516001600160a01b031681526020018d6002600e8110611e6757634e487b7160e01b600052603260045260246000fd5b60200201516001600160a01b031681526020018c600060128110611e9b57634e487b7160e01b600052603260045260246000fd5b602002015181526020018c600160128110611ec657634e487b7160e01b600052603260045260246000fd5b602002015181526020018c600260128110611ef157634e487b7160e01b600052603260045260246000fd5b602002015181526020018c600360128110611f1c57634e487b7160e01b600052603260045260246000fd5b602002015181526020018d6003600e8110611f4757634e487b7160e01b600052603260045260246000fd5b60200201516001600160a01b031681526020018b600060088110611f7b57634e487b7160e01b600052603260045260246000fd5b602002015160ff166001811115611fa257634e487b7160e01b600052602160045260246000fd5b6001811115611fc157634e487b7160e01b600052602160045260246000fd5b81526020018b6001602002015160ff166001811115611ff057634e487b7160e01b600052602160045260246000fd5b600181111561200f57634e487b7160e01b600052602160045260246000fd5b81526020018b6002602002015160ff16600181111561203e57634e487b7160e01b600052602160045260246000fd5b600181111561205d57634e487b7160e01b600052602160045260246000fd5b815260808e01516001600160a01b031660208201526040018b6003602002015160ff16600181111561209f57634e487b7160e01b600052602160045260246000fd5b60018111156120be57634e487b7160e01b600052602160045260246000fd5b8152602081018b90526040810189905260a0808f01516001600160a01b0316606083015260808201889052018d600660200201516001600160a01b031681526020018c60046012811061212157634e487b7160e01b600052603260045260246000fd5b602002015181526020018c60056012811061214c57634e487b7160e01b600052603260045260246000fd5b602002015181526020018c60066012811061217757634e487b7160e01b600052603260045260246000fd5b602002015181526020018c6007601281106121a257634e487b7160e01b600052603260045260246000fd5b602002015181526020018c6008601281106121cd57634e487b7160e01b600052603260045260246000fd5b6020908102919091015190915260408051606081018252865160ff168152855192810192909252810184600160200201519052604080516102e08101909152808f600760200201516001600160a01b031681526020018f6008600e811061224457634e487b7160e01b600052603260045260246000fd5b60200201516001600160a01b031681526020018f6009600e811061227857634e487b7160e01b600052603260045260246000fd5b60200201516001600160a01b031681526020018e6009601281106122ac57634e487b7160e01b600052603260045260246000fd5b602002015181526020018e600a601281106122d757634e487b7160e01b600052603260045260246000fd5b602002015181526020018e600b6012811061230257634e487b7160e01b600052603260045260246000fd5b602002015181526020018e600c6012811061232d57634e487b7160e01b600052603260045260246000fd5b602002015181526020018f600a600e811061235857634e487b7160e01b600052603260045260246000fd5b60200201516001600160a01b031681526020018d60046008811061238c57634e487b7160e01b600052603260045260246000fd5b602002015160ff1660018111156123b357634e487b7160e01b600052602160045260246000fd5b60018111156123d257634e487b7160e01b600052602160045260246000fd5b81526020018d6005602002015160ff16600181111561240157634e487b7160e01b600052602160045260246000fd5b600181111561242057634e487b7160e01b600052602160045260246000fd5b81526020018d6006602002015160ff16600181111561244f57634e487b7160e01b600052602160045260246000fd5b600181111561246e57634e487b7160e01b600052602160045260246000fd5b81526020018f600b60200201516001600160a01b031681526020018d6007600881106124aa57634e487b7160e01b600052603260045260246000fd5b602002015160ff1660018111156124d157634e487b7160e01b600052602160045260246000fd5b60018111156124f057634e487b7160e01b600052602160045260246000fd5b8152602081018c9052604081018a90526060018f600c60200201516001600160a01b031681526020018781526020018f600d600e811061254057634e487b7160e01b600052603260045260246000fd5b60200201516001600160a01b031681526020018e600d6012811061257457634e487b7160e01b600052603260045260246000fd5b602002015181526020018e600e6012811061259f57634e487b7160e01b600052603260045260246000fd5b602002015181526020018e600f601281106125ca57634e487b7160e01b600052603260045260246000fd5b602002015181526020018e6010601281106125f557634e487b7160e01b600052603260045260246000fd5b602002015181526020018e60116012811061262057634e487b7160e01b600052603260045260246000fd5b60200201519052604080516060810190915280876001602002015160ff1681526020018660026005811061266457634e487b7160e01b600052603260045260246000fd5b602002015181526020018660036005811061268f57634e487b7160e01b600052603260045260246000fd5b6020020151905260808601516139de565b600080604051806102e001604052808c6000600781106126d057634e487b7160e01b600052603260045260246000fd5b60200201516001600160a01b031681526020018c60016007811061270457634e487b7160e01b600052603260045260246000fd5b60200201516001600160a01b031681526020018c60026007811061273857634e487b7160e01b600052603260045260246000fd5b60200201516001600160a01b031681526020018b60006009811061276c57634e487b7160e01b600052603260045260246000fd5b602002015181526020018b60016009811061279757634e487b7160e01b600052603260045260246000fd5b602002015181526020018b6002600981106127c257634e487b7160e01b600052603260045260246000fd5b602002015181526020018b6003600981106127ed57634e487b7160e01b600052603260045260246000fd5b602002015181526020018c60036007811061281857634e487b7160e01b600052603260045260246000fd5b60200201516001600160a01b031681526020018a600181111561284b57634e487b7160e01b600052602160045260246000fd5b815260200189600181111561287057634e487b7160e01b600052602160045260246000fd5b815260200188600181111561289557634e487b7160e01b600052602160045260246000fd5b815260808d01516001600160a01b031660208201526040018760018111156128cd57634e487b7160e01b600052602160045260246000fd5b8152602081018790526040810186905260a0808e01516001600160a01b0316606083015260808201869052018c600660200201516001600160a01b031681526020018b60046009811061293057634e487b7160e01b600052603260045260246000fd5b602002015181526020018b60056009811061295b57634e487b7160e01b600052603260045260246000fd5b602002015181526020018b60066009811061298657634e487b7160e01b600052603260045260246000fd5b602002015181526020018b6007600981106129b157634e487b7160e01b600052603260045260246000fd5b602002015181526020018b6008600981106129dc57634e487b7160e01b600052603260045260246000fd5b6020020151905290506129ee81614194565b9b9a5050505050505050505050565b600080604051806102e001604052808c6000600e8110612a2d57634e487b7160e01b600052603260045260246000fd5b60200201516001600160a01b031681526020018c6001600e8110612a6157634e487b7160e01b600052603260045260246000fd5b60200201516001600160a01b031681526020018c6002600e8110612a9557634e487b7160e01b600052603260045260246000fd5b60200201516001600160a01b031681526020018b600060128110612ac957634e487b7160e01b600052603260045260246000fd5b602002015181526020018b600160128110612af457634e487b7160e01b600052603260045260246000fd5b602002015181526020018b600260128110612b1f57634e487b7160e01b600052603260045260246000fd5b602002015181526020018b600360128110612b4a57634e487b7160e01b600052603260045260246000fd5b602002015181526020018c6003600e8110612b7557634e487b7160e01b600052603260045260246000fd5b60200201516001600160a01b031681526020018a600060088110612ba957634e487b7160e01b600052603260045260246000fd5b602002015160ff166001811115612bd057634e487b7160e01b600052602160045260246000fd5b6001811115612bef57634e487b7160e01b600052602160045260246000fd5b81526020018a6001602002015160ff166001811115612c1e57634e487b7160e01b600052602160045260246000fd5b6001811115612c3d57634e487b7160e01b600052602160045260246000fd5b81526020018a6002602002015160ff166001811115612c6c57634e487b7160e01b600052602160045260246000fd5b6001811115612c8b57634e487b7160e01b600052602160045260246000fd5b815260808d01516001600160a01b031660208201526040018a6003602002015160ff166001811115612ccd57634e487b7160e01b600052602160045260246000fd5b6001811115612cec57634e487b7160e01b600052602160045260246000fd5b8152602081018a90526040810188905260a0808e01516001600160a01b0316606083015260808201879052018c600660200201516001600160a01b031681526020018b600460128110612d4f57634e487b7160e01b600052603260045260246000fd5b602002015181526020018b600560128110612d7a57634e487b7160e01b600052603260045260246000fd5b602002015181526020018b600660128110612da557634e487b7160e01b600052603260045260246000fd5b602002015181526020018b600760128110612dd057634e487b7160e01b600052603260045260246000fd5b602002015181526020018b600860128110612dfb57634e487b7160e01b600052603260045260246000fd5b602002015181525090506000604051806102e001604052808d6007600e8110612e3457634e487b7160e01b600052603260045260246000fd5b60200201516001600160a01b031681526020018d6008600e8110612e6857634e487b7160e01b600052603260045260246000fd5b60200201516001600160a01b031681526020018d6009600e8110612e9c57634e487b7160e01b600052603260045260246000fd5b60200201516001600160a01b031681526020018c600960128110612ed057634e487b7160e01b600052603260045260246000fd5b602002015181526020018c600a60128110612efb57634e487b7160e01b600052603260045260246000fd5b602002015181526020018c600b60128110612f2657634e487b7160e01b600052603260045260246000fd5b602002015181526020018c600c60128110612f5157634e487b7160e01b600052603260045260246000fd5b602002015181526020018d600a600e8110612f7c57634e487b7160e01b600052603260045260246000fd5b60200201516001600160a01b031681526020018b600460088110612fb057634e487b7160e01b600052603260045260246000fd5b602002015160ff166001811115612fd757634e487b7160e01b600052602160045260246000fd5b6001811115612ff657634e487b7160e01b600052602160045260246000fd5b81526020018b6005602002015160ff16600181111561302557634e487b7160e01b600052602160045260246000fd5b600181111561304457634e487b7160e01b600052602160045260246000fd5b81526020018b6006602002015160ff16600181111561307357634e487b7160e01b600052602160045260246000fd5b600181111561309257634e487b7160e01b600052602160045260246000fd5b81526101608e01516001600160a01b031660208201526040018b6007602002015160ff1660018111156130d557634e487b7160e01b600052602160045260246000fd5b60018111156130f457634e487b7160e01b600052602160045260246000fd5b8152602081018a9052604081018890526101808e01516001600160a01b039081166060830152608082018790526101a08f01511660a082015260c0018c600d602002015181526020018c600e6012811061315e57634e487b7160e01b600052603260045260246000fd5b602002015181526020018c600f6012811061318957634e487b7160e01b600052603260045260246000fd5b602002015181526020018c6010601281106131b457634e487b7160e01b600052603260045260246000fd5b602002015181526020018c6011601281106131df57634e487b7160e01b600052603260045260246000fd5b6020020151905290506131f2828261422d565b9c9b505050505050505050505050565b6000546001600160a01b036101009091041633146132325760405162461bcd60e51b815260040161064290615d2d565b6001600160a01b0381166132975760405162461bcd60e51b815260206004820152602660248201527f4f776e61626c653a206e6577206f776e657220697320746865207a65726f206160448201526564647265737360d01b6064820152608401610642565b600080546040516001600160a01b038085169361010090930416917f8be0079c531659141344cd1fd0a4f28419497f9722a3daafe3b4186f6b6457e091a3600080546001600160a01b0390921661010002610100600160a81b0319909216919091179055565b6000546001600160a01b0361010090910416331461332d5760405162461bcd60e51b815260040161064290615d2d565b6119e36142be565b80516000901561337157815180602001830160208401855b6001838310141561336857815181526020918201910161334d565b50505092909201915b5090919050565b60006133a6826101200151836101400151846102400151856102600151866102800151876102a00151614342565b92915050565b60006133b7826134ee565b6040517f19457468657265756d205369676e6564204d6573736167653a0a3332000000006020820152603c810191909152605c01604051602081830303815290604052805190602001209050919050565b600061341383614194565b61341f5750600061060b565b60008481526004602052604090205460ff161561343e5750600061060b565b60008481526005602052604090205460ff161561345d5750600161060b565b6020808401518351848301516040808701518151600081529586018083528a905260ff90931690850152606084015260808301526001600160a01b03169060019060a0016020604051602081039080840390855afa1580156134c3573d6000803e3d6000fd5b505050602060405103516001600160a01b031614156134e45750600161060b565b5060009392505050565b6000806134fa83614414565b90506000816001600160401b0381111561352457634e487b7160e01b600052604160045260246000fd5b6040519080825280601f01601f19166020018201604052801561354e576020820181803683370190505b508451909150602082019061356490829061444c565b905061357481866020015161444c565b905061358481866040015161444c565b6060868101518252608080880151602084015260a0880151604084015260c08801519183019190915260e0870151910191506135c190829061444c565b90506135f18186610100015160018111156135ec57634e487b7160e01b600052602160045260246000fd5b614466565b905061361c8186610120015160018111156135ec57634e487b7160e01b600052602160045260246000fd5b90506136478186610140015160018111156135ec57634e487b7160e01b600052602160045260246000fd5b90506136588186610160015161444c565b90506136838186610180015160018111156135ec57634e487b7160e01b600052602160045260246000fd5b905061369481866101a00151613335565b90506136a581866101c00151613335565b90506136b681866101e0015161444c565b90506136c781866102000151613335565b90506136d88186610220015161444c565b610240860151815261026086015160208083019190915261028087015160408301526102a087015160608301526102c0909601516080909101525090920191909120919050565b81602001516001600160a01b0316336001600160a01b03161461374157600080fd5b600061374c836133ac565b60008181526005602052604090205490915060ff161561376b57600080fd5b60016005600083815260200190815260200160002060006101000a81548160ff0219169083151502179055508260e001516001600160a01b031683602001516001600160a01b0316827f90c7f9f5b58c15f0f635bfb99f55d3d78fdbef3559e7d8abf5c81052a527662286600001518760400151886060015189608001518a60a001518b60c001518c61010001518d61012001518e61014001518f61016001516040516138219a99989796959493929190615bb8565b60405180910390a4807fe55393c778364e440d958b39ac1debd99dcfae3775a8a04d1e79124adf6a2d08846101800151856101a00151866101c00151876101e001518861020001518961022001518a61024001518b61026001518c61028001518d6102a001518e6102c001518e6040516138a69c9b9a99989796959493929190615c67565b60405180910390a2505050565b600054600160a81b900460ff16156138dd5760405162461bcd60e51b815260040161064290615d03565b6000805460ff60a81b1916600160a81b1790557f62e78cea01bee320cd4e420270b5ea74000d11b0c9f74754ebdbfc544b05a2586139183390565b6040516001600160a01b03909116815260200160405180910390a1565b60006139418383614473565b905082602001516001600160a01b0316336001600160a01b0316146139995760405162461bcd60e51b815260206004820152600e60248201526d135052d157d393d517d59053125160921b6044820152606401610642565b600081815260046020526040808220805460ff191660011790555182917f5152abf959f6564662358c2e52b702259b78bac5ee7842a0f01937e670efcc7d91a2505050565b60005460ff1615613a275760405162461bcd60e51b81526020600482015260136024820152721499595b9d1c985b98de4819195d1958dd1959606a1b6044820152606401610642565b6000805460ff1916600117815560208601516001600160a01b0316331415613a9b57613a5286614194565b613a965760405162461bcd60e51b8152602060048201526015602482015274213abc9037b93232b91034b99034b73b30b634b21760591b6044820152606401610642565b613aa8565b613aa58686614473565b90505b60208401516000906001600160a01b0316331415613b1357613ac985614194565b613b0e5760405162461bcd60e51b815260206004820152601660248201527529b2b6361037b93232b91034b99034b73b30b634b21760511b6044820152606401610642565b613b20565b613b1d8585614473565b90505b613b2a87866144c9565b613b765760405162461bcd60e51b815260206004820152601860248201527f4f7264657273206973206e6f74206d6174636861626c652e00000000000000006044820152606401610642565b610160850151803b9081613bbf5760405162461bcd60e51b815260206004820152601060248201526f15185c99d95d081b9bdd08195e1a5cdd60821b6044820152606401610642565b6101c08901515115613be557613be5896101a00151886101a001518b6101c0015161471b565b6101c08701515115613c0b57613c0b876101a001518a6101a00151896101c0015161471b565b613c1f896101a00151886101a0015161498f565b613c605760405162461bcd60e51b8152602060048201526012602482015271086c2d8d85ac8c2e8c240dad2e6dac2e8c6d60731b6044820152606401610642565b600254602088015160405163c455279160e01b81526001600160a01b039182166004820152600092919091169063c45527919060240160206040518083038186803b158015613cae57600080fd5b505afa158015613cc2573d6000803e3d6000fd5b505050506040513d601f19601f82011682018060405250810190613ce69190615524565b90506001600160a01b038116613d305760405162461bcd60e51b815260206004820152600f60248201526e141c9bde1e481b9bdd08195e1a5cdd608a1b6044820152606401610642565b600260009054906101000a90046001600160a01b03166001600160a01b03166397204d8e6040518163ffffffff1660e01b815260040160206040518083038186803b158015613d7e57600080fd5b505afa158015613d92573d6000803e3d6000fd5b505050506040513d601f19601f82011682018060405250810190613db69190615524565b6001600160a01b0316816001600160a01b0316635c60da1b6040518163ffffffff1660e01b815260040160206040518083038186803b158015613df857600080fd5b505afa158015613e0c573d6000803e3d6000fd5b505050506040513d601f19601f82011682018060405250810190613e309190615524565b6001600160a01b031614613e865760405162461bcd60e51b815260206004820152601860248201527f50726f7879206973206e6f7420696d706c656d656e74656400000000000000006044820152606401610642565b60208a015181906001600160a01b03163314613eb6576000868152600460205260409020805460ff191660011790555b88602001516001600160a01b0316336001600160a01b031614613eed576000858152600460205260409020805460ff191660011790555b6000613ef98c8b6149f3565b9050816001600160a01b0316631b0f7ba98b61016001518c61018001518d6101a001516040518463ffffffff1660e01b8152600401613f3a93929190615c36565b602060405180830381600087803b158015613f5457600080fd5b505af1158015613f68573d6000803e3d6000fd5b505050506040513d601f19601f82011682018060405250810190613f8c9190615b39565b613fd85760405162461bcd60e51b815260206004820152601960248201527f43616e6e6f742063616c6c207468726f7567682070726f7879000000000000006044820152606401610642565b6101e08c01516001600160a01b03161561405e576140068c6101e001518b6101a001518e610200015161057a565b61405e5760405162461bcd60e51b815260206004820152602360248201527f43616e6e6f742065786563757465206275792d73696465207374617469632063604482015262185b1b60ea1b6064820152608401610642565b6101e08a01516001600160a01b0316156140e45761408c8a6101e001518b6101a001518c610200015161057a565b6140e45760405162461bcd60e51b8152602060048201526024808201527f43616e6e6f7420657865637574652073656c6c2d73696465207374617469632060448201526318d85b1b60e21b6064820152608401610642565b60e08a015188906001600160a01b0316614102578a60200151614108565b8c602001515b60e08c01516001600160a01b039182169116614128578d6020015161412e565b8b602001515b604080518b8152602081018b90529081018590526001600160a01b0391909116907fc4109843e0b7d514e4c093114b863f8e7d8d9a458c372cd51bfe526b588006c99060600160405180910390a450506000805460ff1916905550505050505050505050565b80516000906001600160a01b031630146141b057506000919050565b6141c4826101400151836102a0015161502c565b6141d057506000919050565b600182610100015160018111156141f757634e487b7160e01b600052602160045260246000fd5b14801561421857506006548260a00151108061421857506007548260c00151105b1561422557506000919050565b506001919050565b60008061425c836101200151846101400151856102400151866102600151876102800151886102a00151614342565b9050600061428c8561012001518661014001518761024001518861026001518961028001518a6102a00151614342565b90508181101561429b57600080fd5b60e08401516001600160a01b03166142b357806142b5565b815b95945050505050565b600054600160a81b900460ff1661430e5760405162461bcd60e51b815260206004820152601460248201527314185d5cd8589b194e881b9bdd081c185d5cd95960621b6044820152606401610642565b6000805460ff60a81b191690557f5db9ee0a495bf2e6ff9c91a7834c1ba4fdd244a5e8aa4e537bd38aeae4b073aa33613918565b60008086600181111561436557634e487b7160e01b600052602160045260246000fd5b141561437257508361440a565b600186600181111561439457634e487b7160e01b600052602160045260246000fd5b141561440a5760006143a68484615db9565b6143b08542615db9565b6143ba9087615d9a565b6143c49190615d7a565b905060018860018111156143e857634e487b7160e01b600052602160045260246000fd5b1415614400576143f88187615db9565b91505061440a565b6143f88187615d62565b9695505050505050565b600081610200015151826101c0015151836101a00151516101b06144389190615d62565b6144429190615d62565b6133a69190615d62565b60601b6bffffffffffffffffffffffff1916815260140190565b6000818353505060010190565b60008061447f846133ac565b905061448c818585613408565b61060b5760405162461bcd60e51b815260206004820152600e60248201526d121054d217d393d517d59053125160921b6044820152606401610642565b60008083610120015160018111156144f157634e487b7160e01b600052602160045260246000fd5b14801561452257506001826101200151600181111561452057634e487b7160e01b600052602160045260246000fd5b145b80156145755750816101000151600181111561454e57634e487b7160e01b600052602160045260246000fd5b836101000151600181111561457357634e487b7160e01b600052602160045260246000fd5b145b801561459c57508161022001516001600160a01b03168361022001516001600160a01b0316145b80156145d6575060408201516001600160a01b031615806145d6575082602001516001600160a01b031682604001516001600160a01b0316145b8015614610575060408301516001600160a01b03161580614610575081602001516001600160a01b031683604001516001600160a01b0316145b801561466b575060e08201516001600160a01b031615801561463e575060e08301516001600160a01b031615155b8061466b575060e08201516001600160a01b03161580159061466b575060e08301516001600160a01b0316155b801561469257508161016001516001600160a01b03168361016001516001600160a01b0316145b80156146e5575081610180015160018111156146be57634e487b7160e01b600052602160045260246000fd5b83610180015160018111156146e357634e487b7160e01b600052602160045260246000fd5b145b80156147005750614700836102800151846102a0015161505e565b801561060b575061060b826102800151836102a0015161505e565b815183511461476c5760405162461bcd60e51b815260206004820152601d60248201527f417272617973206861766520646966666572656e74206c656e677468730000006044820152606401610642565b80518351146147cb5760405162461bcd60e51b815260206004820152602560248201527f417272617920616e64206d61736b206861766520646966666572656e74206c656044820152646e6774687360d81b6064820152608401610642565b6000602084516147db9190615d7a565b905060006147ea826020615d9a565b9050816147f8602083615d7a565b1461481357634e487b7160e01b600052600160045260246000fd5b60005b828110156148505780600101602002808501518187015181168289015182191617828901525050808061484890615dd0565b915050614816565b821561487d5782905080600101602002808501518187015181168289015182191617828901525050614987565b50805b8551811015614987578481815181106148a957634e487b7160e01b600052603260045260246000fd5b602001015160f81c60f81b8482815181106148d457634e487b7160e01b600052603260045260246000fd5b602001015160f81c60f81b1686828151811061490057634e487b7160e01b600052603260045260246000fd5b602001015160f81c60f81b85838151811061492b57634e487b7160e01b600052603260045260246000fd5b602001015160f81c60f81b60ff60f81b18161786828151811061495e57634e487b7160e01b600052603260045260246000fd5b60200101906001600160f81b031916908160001a9053508061497f81615dd0565b915050614880565b505050505050565b8151815160009160019181148083146149ab57600092506149e9565b600160208701838101602088015b6002848385100114156149e45780518351146149d85760009650600093505b602092830192016149b9565b505050505b5090949350505050565b6102208101516000906001600160a01b031615614a15573415614a1557600080fd5b6000614a21848461422d565b9050600081118015614a4057506102208301516001600160a01b031615155b15614a5e57614a5e836102200151856020015185602001518461507a565b60e0830151819081906001600160a01b031615614dab57856080015185608001511115614a8a57600080fd5b60018561010001516001811115614ab157634e487b7160e01b600052602160045260246000fd5b1415614d7d578560c001518560c001511115614acc57600080fd5b606085015115614b73576000612710848760600151614aeb9190615d9a565b614af59190615d7a565b6102208701519091506001600160a01b0316614b5857614b158184615db9565b60e08701516040519194506001600160a01b03169082156108fc029083906000818181858888f19350505050158015614b52573d6000803e3d6000fd5b50614b71565b614b7186610220015187602001518860e001518461507a565b505b608085015115614c1a576000612710848760800151614b929190615d9a565b614b9c9190615d7a565b6102208701519091506001600160a01b0316614bff57614bbc8183615d62565b60e08701516040519193506001600160a01b03169082156108fc029083906000818181858888f19350505050158015614bf9573d6000803e3d6000fd5b50614c18565b614c1886610220015188602001518860e001518461507a565b505b60a085015115614cc9576000612710848760a00151614c399190615d9a565b614c439190615d7a565b6102208701519091506001600160a01b0316614ca457614c638184615db9565b6008546040519194506001600160a01b03169082156108fc029083906000818181858888f19350505050158015614c9e573d6000803e3d6000fd5b50614cc7565b6102208601516020870151600854614cc79291906001600160a01b03168461507a565b505b60c085015115614d78576000612710848760c00151614ce89190615d9a565b614cf29190615d7a565b6102208701519091506001600160a01b0316614d5357614d128183615d62565b6008546040519193506001600160a01b03169082156108fc029083906000818181858888f19350505050158015614d4d573d6000803e3d6000fd5b50614d76565b6102208601516020880151600854614d769291906001600160a01b03168461507a565b505b614f70565b614d9485602001518660e001518760600151615125565b614d7886602001518660e001518760800151615125565b846080015186608001511115614dc057600080fd5b60018561010001516001811115614de757634e487b7160e01b600052602160045260246000fd5b1415614f42576102208501516001600160a01b0316614e0557600080fd5b8460c001518660c001511115614e1a57600080fd5b606086015115614e60576000612710848860600151614e399190615d9a565b614e439190615d7a565b9050614e5e86610220015188602001518960e001518461507a565b505b608086015115614ea6576000612710848860800151614e7f9190615d9a565b614e899190615d7a565b9050614ea486610220015187602001518960e001518461507a565b505b60a086015115614ef5576000612710848860a00151614ec59190615d9a565b614ecf9190615d7a565b6102208701516020890151600854929350614ef3926001600160a01b03168461507a565b505b60c086015115614d78576000612710848860c00151614f149190615d9a565b614f1e9190615d7a565b6102208701516020880151600854929350614d76926001600160a01b03168461507a565b614f5986602001518760e001518860600151615125565b614f7085602001518760e001518860800151615125565b6102208501516001600160a01b03166149e95780341015614f9057600080fd5b84602001516001600160a01b03166108fc839081150290604051600060405180830381858888f19350505050158015614fcd573d6000803e3d6000fd5b506000614fda8234615db9565b905080156150215786602001516001600160a01b03166108fc829081150290604051600060405180830381858888f1935050505015801561501f573d6000803e3d6000fd5b505b505090949350505050565b60008083600181111561504f57634e487b7160e01b600052602160045260246000fd5b148061060b5750501515919050565b6000428310801561060b575081158061060b5750504210919050565b801561511f57600354604051630aed65f560e11b81526001600160a01b0386811660048301528581166024830152848116604483015260648201849052909116906315dacbea90608401602060405180830381600087803b1580156150de57600080fd5b505af11580156150f2573d6000803e3d6000fd5b505050506040513d601f19601f820116820180604052508101906151169190615b39565b61511f57600080fd5b50505050565b60015461513d906001600160a01b031684848461507a565b505050565b600082601f830112615152578081fd5b6040516101c08082018281106001600160401b038211171561517657615176615e01565b6040528184828101871015615189578485fd5b8492505b600e8310156151b65780356151a181615e38565b8252600192909201916020918201910161518d565b509195945050505050565b600082601f8301126151d1578081fd5b60405160e081018181106001600160401b03821117156151f3576151f3615e01565b604052808360e08101861015615207578384fd5b835b60078110156151b657813561521d81615e38565b83526020928301929190910190600101615209565b600082601f830112615242578081fd5b60405160a081018181106001600160401b038211171561526457615264615e01565b604052808360a08101861015615278578384fd5b835b60058110156151b657813583526020928301929091019060010161527a565b600082601f8301126152a9578081fd5b6040516102408082018281106001600160401b03821117156152cd576152cd615e01565b60405281848281018710156152e0578485fd5b8492505b60128310156151b6578035825260019290920191602091820191016152e4565b600082601f830112615314578081fd5b6040516101208082018281106001600160401b038211171561533857615338615e01565b604052818482810187101561534b578485fd5b8492505b60098310156151b65780358252600192909201916020918201910161534f565b600082601f83011261537f578081fd5b604051604081018181106001600160401b03821117156153a1576153a1615e01565b80604052508083856040860111156153b7578384fd5b835b60028110156151b6576153cb826154f7565b835260209283019291909101906001016153b9565b600082601f8301126153f0578081fd5b6040516101008082018281106001600160401b038211171561541457615414615e01565b6040528184828101871015615427578485fd5b8492505b60088310156151b65761543d816154f7565b8252600192909201916020918201910161542b565b803561545d81615e4d565b919050565b600082601f830112615472578081fd5b81356001600160401b038082111561548c5761548c615e01565b604051601f8301601f19908116603f011681019082821181831017156154b4576154b4615e01565b816040528381528660208588010111156154cc578485fd5b8360208701602083013792830160200193909352509392505050565b80356002811061545d57600080fd5b803560ff8116811461545d57600080fd5b600060208284031215615519578081fd5b813561060b81615e38565b600060208284031215615535578081fd5b815161060b81615e38565b600080600060608486031215615554578182fd5b833561555f81615e38565b925060208401356001600160401b038082111561557a578384fd5b61558687838801615462565b9350604086013591508082111561559b578283fd5b506155a886828701615462565b9150509250925092565b60008060008060008060008060006105c08a8c0312156155d0578687fd5b6155da8b8b615142565b98506155ea8b6101c08c01615299565b97506155fa8b6104008c016153e0565b96506105008a01356001600160401b0380821115615616578687fd5b6156228d838e01615462565b97506105208c0135915080821115615638578687fd5b6156448d838e01615462565b96506105408c013591508082111561565a578586fd5b6156668d838e01615462565b95506105608c013591508082111561567c578485fd5b6156888d838e01615462565b94506105808c013591508082111561569e578384fd5b6156aa8d838e01615462565b93506105a08c01359150808211156156c0578283fd5b506156cd8c828d01615462565b9150509295985092959850929598565b60008060008060008060008060008060006106a08c8e0312156156fe578485fd5b6157088d8d615142565b9a506157188d6101c08e01615299565b99506157288d6104008e016153e0565b98506001600160401b03806105008e01351115615743578586fd5b6157548e6105008f01358f01615462565b9850806105208e01351115615767578586fd5b6157788e6105208f01358f01615462565b9750806105408e0135111561578b578586fd5b61579c8e6105408f01358f01615462565b9650806105608e013511156157af578586fd5b6157c08e6105608f01358f01615462565b9550806105808e013511156157d3578283fd5b6157e48e6105808f01358f01615462565b9450806105a08e013511156157f7578283fd5b506158098d6105a08e01358e01615462565b92506158198d6105c08e0161536f565b91506158298d6106008e01615232565b90509295989b509295989b9093969950565b60008060008060008060008060006102e08a8c031215615859578283fd5b6158638b8b6151c1565b98506158728b60e08c01615304565b97506158816102008b016154e8565b96506158906102208b016154e8565b955061589f6102408b016154e8565b94506158ae6102608b016154e8565b93506102808a01356001600160401b03808211156158ca578485fd5b6158d68d838e01615462565b94506102a08c01359150808211156158ec578384fd5b6158f88d838e01615462565b93506102c08c01359150808211156156c0578283fd5b6000806000806000806000806000806103008b8d03121561592d578384fd5b6159378c8c6151c1565b99506159468c60e08d01615304565b98506159556102008c016154e8565b97506159646102208c016154e8565b96506159736102408c016154e8565b95506159826102608c016154e8565b94506102808b01356001600160401b038082111561599e578586fd5b6159aa8e838f01615462565b95506102a08d01359150808211156159c0578485fd5b6159cc8e838f01615462565b94506102c08d01359150808211156159e2578384fd5b506159ef8d828e01615462565b9250506159ff6102e08c01615452565b90509295989b9194979a5092959850565b6000806000806000806000806000806000806103408d8f031215615a32578586fd5b615a3c8e8e6151c1565b9b50615a4b8e60e08f01615304565b9a50615a5a6102008e016154e8565b9950615a696102208e016154e8565b9850615a786102408e016154e8565b9750615a876102608e016154e8565b96506001600160401b036102808e01351115615aa1578586fd5b615ab28e6102808f01358f01615462565b95506001600160401b036102a08e01351115615acc578081fd5b615add8e6102a08f01358f01615462565b94506001600160401b036102c08e01351115615af7578081fd5b615b088e6102c08f01358f01615462565b9350615b176102e08e016154f7565b92506103008d013591506103208d013590509295989b509295989b509295989b565b600060208284031215615b4a578081fd5b815161060b81615e4d565b600060208284031215615b66578081fd5b5035919050565b60008151808452815b81811015615b9257602081850181015186830182015201615b76565b81811115615ba35782602083870101525b50601f01601f19169290920160200192915050565b6001600160a01b038b811682528a81166020830152604082018a9052606082018990526080820188905260a08201879052610140820190615bf887615e17565b8660c0840152615c0786615e17565b8560e0840152615c1685615e17565b84610100840152808416610120840152509b9a5050505050505050505050565b6001600160a01b0384168152615c4b83615e17565b8260208201526060604082015260006142b56060830184615b6d565b6000610180615c758f615e17565b8e8352806020840152615c8a8184018f615b6d565b90508281036040840152615c9e818e615b6d565b6001600160a01b038d811660608601528482036080860152909150615cc3828d615b6d565b9a1660a0840152505060c081019690965260e086019490945261010085019290925261012084015261014083015215156101609091015295945050505050565b60208082526010908201526f14185d5cd8589b194e881c185d5cd95960821b604082015260600190565b6020808252818101527f4f776e61626c653a2063616c6c6572206973206e6f7420746865206f776e6572604082015260600190565b60008219821115615d7557615d75615deb565b500190565b600082615d9557634e487b7160e01b81526012600452602481fd5b500490565b6000816000190483118215151615615db457615db4615deb565b500290565b600082821015615dcb57615dcb615deb565b500390565b6000600019821415615de457615de4615deb565b5060010190565b634e487b7160e01b600052601160045260246000fd5b634e487b7160e01b600052604160045260246000fd5b60028110615e3557634e487b7160e01b600052602160045260246000fd5b50565b6001600160a01b0381168114615e3557600080fd5b8015158114615e3557600080fdfea2646970667358221220db7485349fdaa186662062a8d7d1c2dec13d52133aa06d5bb0f069f4320e2e9364736f6c63430008040033",
  "immutableReferences": {},
  "source": "// SPDX-License-Identifier: MIT\n\n/*\n  \n  Exchange contract. This is an outer contract with public or convenience functions and includes no state-modifying functions.\n \n*/\n\npragma solidity 0.8.4;\n\nimport \"./ExchangeCore.sol\";\n\n/**\n * @title Exchange\n */\ncontract Exchange is ExchangeCore {\n    /**\n     * @dev Call hashOrder - Solidity ABI encoding limitation workaround, hopefully temporary.\n     */\n    function hashOrder_(\n        address[7] memory addrs,\n        uint[9] memory uints,\n        FeeMethod feeMethod,\n        SaleKindInterface.Side side,\n        SaleKindInterface.SaleKind saleKind,\n        AuthenticatedProxy.HowToCall howToCall,\n        bytes memory callData,\n        bytes memory replacementPattern,\n        bytes memory staticExtradata)\n        public\n        pure\n        returns (bytes32)\n    {\n        return hashOrder(\n          Order(addrs[0], addrs[1], addrs[2], uints[0], uints[1], uints[2], uints[3], addrs[3], feeMethod, side, saleKind, addrs[4], howToCall, callData, replacementPattern, addrs[5], staticExtradata, address(ERC20(addrs[6])), uints[4], uints[5], uints[6], uints[7], uints[8])\n        );\n    }\n\n    /**\n     * @dev Call hashToSign - Solidity ABI encoding limitation workaround, hopefully temporary.\n     */\n    function hashToSign_(\n        address[7] memory addrs,\n        uint[9] memory uints,\n        FeeMethod feeMethod,\n        SaleKindInterface.Side side,\n        SaleKindInterface.SaleKind saleKind,\n        AuthenticatedProxy.HowToCall howToCall,\n        bytes memory callData,\n        bytes memory replacementPattern,\n        bytes memory staticExtradata)\n        public\n        pure\n        returns (bytes32)\n    { \n        return hashToSign(\n          Order(addrs[0], addrs[1], addrs[2], uints[0], uints[1], uints[2], uints[3], addrs[3], feeMethod, side, saleKind, addrs[4], howToCall, callData, replacementPattern, addrs[5], staticExtradata, address(ERC20(addrs[6])), uints[4], uints[5], uints[6], uints[7], uints[8])\n        );\n    }\n\n    /**\n     * @dev Call validateOrderParameters - Solidity ABI encoding limitation workaround, hopefully temporary.\n     */\n    function validateOrderParameters_ (\n        address[7] memory addrs,\n        uint[9] memory uints,\n        FeeMethod feeMethod,\n        SaleKindInterface.Side side,\n        SaleKindInterface.SaleKind saleKind,\n        AuthenticatedProxy.HowToCall howToCall,\n        bytes memory callData,\n        bytes memory replacementPattern,\n        bytes memory staticExtradata)\n        view\n        public\n        returns (bool)\n    {\n        Order memory order = Order(addrs[0], addrs[1], addrs[2], uints[0], uints[1], uints[2], uints[3], addrs[3], feeMethod, side, saleKind, addrs[4], howToCall, callData, replacementPattern, addrs[5], staticExtradata, address(ERC20(addrs[6])), uints[4], uints[5], uints[6], uints[7], uints[8]);\n        return validateOrderParameters(\n          order\n        );\n    }\n\n    /**\n     * @dev Call validateOrder - Solidity ABI encoding limitation workaround, hopefully temporary.\n     */\n    function validateOrder_ (\n        address[7] memory addrs,\n        uint[9] memory uints,\n        FeeMethod feeMethod,\n        SaleKindInterface.Side side,\n        SaleKindInterface.SaleKind saleKind,\n        AuthenticatedProxy.HowToCall howToCall,\n        bytes memory callData,\n        bytes memory replacementPattern,\n        bytes memory staticExtradata,\n        uint8 v,\n        bytes32 r,\n        bytes32 s)\n        view\n        public\n        returns (bool)\n    {\n        Order memory order = Order(addrs[0], addrs[1], addrs[2], uints[0], uints[1], uints[2], uints[3], addrs[3], feeMethod, side, saleKind, addrs[4], howToCall, callData, replacementPattern, addrs[5], staticExtradata, address(ERC20(addrs[6])), uints[4], uints[5], uints[6], uints[7], uints[8]);\n        return validateOrder(\n          hashToSign(order),\n          order,\n          Sig(v, r, s)\n        );\n    }\n\n    /**\n     * @dev Call approveOrder - Solidity ABI encoding limitation workaround, hopefully temporary.\n     */\n    function approveOrder_ (\n        address[7] memory addrs,\n        uint[9] memory uints,\n        FeeMethod feeMethod,\n        SaleKindInterface.Side side,\n        SaleKindInterface.SaleKind saleKind,\n        AuthenticatedProxy.HowToCall howToCall,\n        bytes memory callData,\n        bytes memory replacementPattern,\n        bytes memory staticExtradata,\n        bool orderbookInclusionDesired)\n        public\n        whenNotPaused\n    {\n        Order memory order = Order(addrs[0], addrs[1], addrs[2], uints[0], uints[1], uints[2], uints[3], addrs[3], feeMethod, side, saleKind, addrs[4], howToCall, callData, replacementPattern, addrs[5], staticExtradata, address(ERC20(addrs[6])), uints[4], uints[5], uints[6], uints[7], uints[8]);\n        return approveOrder(order, orderbookInclusionDesired);\n    }\n\n    /**\n     * @dev Call cancelOrder - Solidity ABI encoding limitation workaround, hopefully temporary.\n     */\n    function cancelOrder_(\n        address[7] memory addrs,\n        uint[9] memory uints,\n        FeeMethod feeMethod,\n        SaleKindInterface.Side side,\n        SaleKindInterface.SaleKind saleKind,\n        AuthenticatedProxy.HowToCall howToCall,\n        bytes memory callData,\n        bytes memory replacementPattern,\n        bytes memory staticExtradata,\n        uint8 v,\n        bytes32 r,\n        bytes32 s)\n        public\n        whenNotPaused\n    {\n\n        return cancelOrder(\n          Order(addrs[0], addrs[1], addrs[2], uints[0], uints[1], uints[2], uints[3], addrs[3], feeMethod, side, saleKind, addrs[4], howToCall, callData, replacementPattern, addrs[5], staticExtradata, address(ERC20(addrs[6])), uints[4], uints[5], uints[6], uints[7], uints[8]),\n          Sig(v, r, s)\n        );\n    }\n\n    /**\n     * @dev Call calculateCurrentPrice - Solidity ABI encoding limitation workaround, hopefully temporary.\n     */\n    function calculateCurrentPrice_(\n        address[7] memory addrs,\n        uint[9] memory uints,\n        FeeMethod feeMethod,\n        SaleKindInterface.Side side,\n        SaleKindInterface.SaleKind saleKind,\n        AuthenticatedProxy.HowToCall howToCall,\n        bytes memory callData,\n        bytes memory replacementPattern,\n        bytes memory staticExtradata)\n        public\n        view\n        returns (uint)\n    {\n        return calculateCurrentPrice(\n          Order(addrs[0], addrs[1], addrs[2], uints[0], uints[1], uints[2], uints[3], addrs[3], feeMethod, side, saleKind, addrs[4], howToCall, callData, replacementPattern, addrs[5], staticExtradata, address(ERC20(addrs[6])), uints[4], uints[5], uints[6], uints[7], uints[8])\n        );\n    }\n\n    /**\n     * @dev Call calculateMatchPrice - Solidity ABI encoding limitation workaround, hopefully temporary.\n     */\n    function calculateMatchPrice_(\n        address[14] memory addrs,\n        uint[18] memory uints,\n        uint8[8] memory feeMethodsSidesKindsHowToCalls,\n        bytes memory callDataBuy,\n        bytes memory callDataSell,\n        bytes memory replacementPatternBuy,\n        bytes memory replacementPatternSell,\n        bytes memory staticExtradataBuy,\n        bytes memory staticExtradataSell)\n        public\n        view\n        returns (uint)\n    {\n        Order memory buy = Order(addrs[0], addrs[1], addrs[2], uints[0], uints[1], uints[2], uints[3], addrs[3], FeeMethod(feeMethodsSidesKindsHowToCalls[0]), SaleKindInterface.Side(feeMethodsSidesKindsHowToCalls[1]), SaleKindInterface.SaleKind(feeMethodsSidesKindsHowToCalls[2]), addrs[4], AuthenticatedProxy.HowToCall(feeMethodsSidesKindsHowToCalls[3]), callDataBuy, replacementPatternBuy, addrs[5], staticExtradataBuy, address(ERC20(addrs[6])), uints[4], uints[5], uints[6], uints[7], uints[8]);\n        Order memory sell = Order(addrs[7], addrs[8], addrs[9], uints[9], uints[10], uints[11], uints[12], addrs[10], FeeMethod(feeMethodsSidesKindsHowToCalls[4]), SaleKindInterface.Side(feeMethodsSidesKindsHowToCalls[5]), SaleKindInterface.SaleKind(feeMethodsSidesKindsHowToCalls[6]), addrs[11], AuthenticatedProxy.HowToCall(feeMethodsSidesKindsHowToCalls[7]), callDataSell, replacementPatternSell, addrs[12], staticExtradataSell, address(ERC20(addrs[13])), uints[13], uints[14], uints[15], uints[16], uints[17]);\n        return calculateMatchPrice(\n          buy,\n          sell\n        );\n    }\n\n    /**\n     * @dev Call atomicMatch - Solidity ABI encoding limitation workaround, hopefully temporary.\n     */\n    function atomicMatch_(\n        address[14] memory addrs,\n        uint[18] memory uints,\n        uint8[8] memory feeMethodsSidesKindsHowToCalls,\n        bytes memory callDataBuy,\n        bytes memory callDataSell,\n        bytes memory replacementPatternBuy,\n        bytes memory replacementPatternSell,\n        bytes memory staticExtradataBuy,\n        bytes memory staticExtradataSell,\n        uint8[2] memory vs,\n        bytes32[5] memory rssMetadata)\n        public\n        whenNotPaused\n        payable\n    {\n\n        return atomicMatch(\n          Order(addrs[0], addrs[1], addrs[2], uints[0], uints[1], uints[2], uints[3], addrs[3], FeeMethod(feeMethodsSidesKindsHowToCalls[0]), SaleKindInterface.Side(feeMethodsSidesKindsHowToCalls[1]), SaleKindInterface.SaleKind(feeMethodsSidesKindsHowToCalls[2]), addrs[4], AuthenticatedProxy.HowToCall(feeMethodsSidesKindsHowToCalls[3]), callDataBuy, replacementPatternBuy, addrs[5], staticExtradataBuy, address(ERC20(addrs[6])), uints[4], uints[5], uints[6], uints[7], uints[8]),\n          Sig(vs[0], rssMetadata[0], rssMetadata[1]),\n          Order(addrs[7], addrs[8], addrs[9], uints[9], uints[10], uints[11], uints[12], addrs[10], FeeMethod(feeMethodsSidesKindsHowToCalls[4]), SaleKindInterface.Side(feeMethodsSidesKindsHowToCalls[5]), SaleKindInterface.SaleKind(feeMethodsSidesKindsHowToCalls[6]), addrs[11], AuthenticatedProxy.HowToCall(feeMethodsSidesKindsHowToCalls[7]), callDataSell, replacementPatternSell, addrs[12], staticExtradataSell, address(ERC20(addrs[13])), uints[13], uints[14], uints[15], uints[16], uints[17]),\n          Sig(vs[1], rssMetadata[2], rssMetadata[3]),\n          rssMetadata[4]\n        );\n    }\n\n}\n",
  "sourcePath": "/Users/baonq/Projects/l7/l7-marketplace-smartcontract/contracts/exchange/Exchange.sol",
  "compiler": {
    "name": "solc",
    "version": "0.8.4+commit.c7e474f2.Emscripten.clang"
  },
  "schemaVersion": "3.4.1",
  "updatedAt": "2021-11-16T08:37:44.276Z",
  "devdoc": {
    "kind": "dev",
    "methods": {
      "approveOrder_(address[7],uint256[9],uint8,uint8,uint8,uint8,bytes,bytes,bytes,bool)": {
        "details": "Call approveOrder - Solidity ABI encoding limitation workaround, hopefully temporary."
      },
      "atomicMatch_(address[14],uint256[18],uint8[8],bytes,bytes,bytes,bytes,bytes,bytes,uint8[2],bytes32[5])": {
        "details": "Call atomicMatch - Solidity ABI encoding limitation workaround, hopefully temporary."
      },
      "calculateCurrentPrice_(address[7],uint256[9],uint8,uint8,uint8,uint8,bytes,bytes,bytes)": {
        "details": "Call calculateCurrentPrice - Solidity ABI encoding limitation workaround, hopefully temporary."
      },
      "calculateMatchPrice_(address[14],uint256[18],uint8[8],bytes,bytes,bytes,bytes,bytes,bytes)": {
        "details": "Call calculateMatchPrice - Solidity ABI encoding limitation workaround, hopefully temporary."
      },
      "cancelOrder_(address[7],uint256[9],uint8,uint8,uint8,uint8,bytes,bytes,bytes,uint8,bytes32,bytes32)": {
        "details": "Call cancelOrder - Solidity ABI encoding limitation workaround, hopefully temporary."
      },
      "changeMinimumMakerProtocolFee(uint256)": {
        "details": "Change the minimum maker fee paid to the protocol (owner only)",
        "params": {
          "newMinimumMakerProtocolFee": "New fee to set in basis points"
        }
      },
      "changeMinimumTakerProtocolFee(uint256)": {
        "details": "Change the minimum taker fee paid to the protocol (owner only)",
        "params": {
          "newMinimumTakerProtocolFee": "New fee to set in basis points"
        }
      },
      "changeProtocolFeeRecipient(address)": {
        "details": "Change the protocol fee recipient (owner only)",
        "params": {
          "newProtocolFeeRecipient": "New protocol fee recipient address"
        }
      },
      "changeProtocolFeeTokenAddress(address)": {
        "details": "Change the protocol fee token address (owner only)",
        "params": {
          "newTokenAddress": "New protocol fee token address"
        }
      },
      "hashOrder_(address[7],uint256[9],uint8,uint8,uint8,uint8,bytes,bytes,bytes)": {
        "details": "Call hashOrder - Solidity ABI encoding limitation workaround, hopefully temporary."
      },
      "hashToSign_(address[7],uint256[9],uint8,uint8,uint8,uint8,bytes,bytes,bytes)": {
        "details": "Call hashToSign - Solidity ABI encoding limitation workaround, hopefully temporary."
      },
      "owner()": {
        "details": "Returns the address of the current owner."
      },
      "pause()": {
        "details": "Pause the contract in case of bugs/attacks."
      },
      "paused()": {
        "details": "Returns true if the contract is paused, and false otherwise."
      },
      "renounceOwnership()": {
        "details": "Leaves the contract without owner. It will not be possible to call `onlyOwner` functions anymore. Can only be called by the current owner. NOTE: Renouncing ownership will leave the contract without an owner, thereby removing any functionality that is only available to the owner."
      },
      "staticCall(address,bytes,bytes)": {
        "details": "Execute a STATICCALL (introduced with Ethereum Metropolis, non-state-modifying external call)",
        "params": {
          "callData": "Calldata (appended to extradata)",
          "extradata": "Base data for STATICCALL (probably function selector and argument encoding)",
          "target": "Contract to call"
        },
        "returns": {
          "result": "of the call (success or failure)"
        }
      },
      "transferOwnership(address)": {
        "details": "Transfers ownership of the contract to a new account (`newOwner`). Can only be called by the current owner."
      },
      "unPause()": {
        "details": "Resume the contract after being paused."
      },
      "validateOrderParameters_(address[7],uint256[9],uint8,uint8,uint8,uint8,bytes,bytes,bytes)": {
        "details": "Call validateOrderParameters - Solidity ABI encoding limitation workaround, hopefully temporary."
      },
      "validateOrder_(address[7],uint256[9],uint8,uint8,uint8,uint8,bytes,bytes,bytes,uint8,bytes32,bytes32)": {
        "details": "Call validateOrder - Solidity ABI encoding limitation workaround, hopefully temporary."
      }
    },
    "title": "Exchange",
    "version": 1
  },
  "userdoc": {
    "kind": "user",
    "methods": {
      "pause()": {
        "notice": "Only the owner can call this method."
      },
      "unPause()": {
        "notice": "Only the owner can call this method."
      }
    },
    "version": 1
  }
}