{
  "contractName": "Exchange",
  "abi": [
    {
      "anonymous": false,
      "inputs": [
        {
          "indexed": true,
          "internalType": "bytes32",
          "name": "hash",
          "type": "bytes32"
        },
        {
          "indexed": false,
          "internalType": "address",
          "name": "exchange",
          "type": "address"
        },
        {
          "indexed": true,
          "internalType": "address",
          "name": "maker",
          "type": "address"
        },
        {
          "indexed": false,
          "internalType": "address",
          "name": "taker",
          "type": "address"
        },
        {
          "indexed": false,
          "internalType": "uint256",
          "name": "makerRelayerFee",
          "type": "uint256"
        },
        {
          "indexed": false,
          "internalType": "uint256",
          "name": "takerRelayerFee",
          "type": "uint256"
        },
        {
          "indexed": false,
          "internalType": "uint256",
          "name": "makerProtocolFee",
          "type": "uint256"
        },
        {
          "indexed": false,
          "internalType": "uint256",
          "name": "takerProtocolFee",
          "type": "uint256"
        },
        {
          "indexed": true,
          "internalType": "address",
          "name": "feeRecipient",
          "type": "address"
        },
        {
          "indexed": false,
          "internalType": "enum ExchangeCore.FeeMethod",
          "name": "feeMethod",
          "type": "uint8"
        },
        {
          "indexed": false,
          "internalType": "enum SaleKindInterface.Side",
          "name": "side",
          "type": "uint8"
        },
        {
          "indexed": false,
          "internalType": "enum SaleKindInterface.SaleKind",
          "name": "saleKind",
          "type": "uint8"
        },
        {
          "indexed": false,
          "internalType": "address",
          "name": "target",
          "type": "address"
        }
      ],
      "name": "OrderApprovedPartOne",
      "type": "event"
    },
    {
      "anonymous": false,
      "inputs": [
        {
          "indexed": true,
          "internalType": "bytes32",
          "name": "hash",
          "type": "bytes32"
        },
        {
          "indexed": false,
          "internalType": "enum AuthenticatedProxy.HowToCall",
          "name": "howToCall",
          "type": "uint8"
        },
        {
          "indexed": false,
          "internalType": "bytes",
          "name": "callData",
          "type": "bytes"
        },
        {
          "indexed": false,
          "internalType": "bytes",
          "name": "replacementPattern",
          "type": "bytes"
        },
        {
          "indexed": false,
          "internalType": "address",
          "name": "staticTarget",
          "type": "address"
        },
        {
          "indexed": false,
          "internalType": "bytes",
          "name": "staticExtradata",
          "type": "bytes"
        },
        {
          "indexed": false,
          "internalType": "address",
          "name": "paymentToken",
          "type": "address"
        },
        {
          "indexed": false,
          "internalType": "uint256",
          "name": "basePrice",
          "type": "uint256"
        },
        {
          "indexed": false,
          "internalType": "uint256",
          "name": "extra",
          "type": "uint256"
        },
        {
          "indexed": false,
          "internalType": "uint256",
          "name": "listingTime",
          "type": "uint256"
        },
        {
          "indexed": false,
          "internalType": "uint256",
          "name": "expirationTime",
          "type": "uint256"
        },
        {
          "indexed": false,
          "internalType": "uint256",
          "name": "salt",
          "type": "uint256"
        },
        {
          "indexed": false,
          "internalType": "bool",
          "name": "orderbookInclusionDesired",
          "type": "bool"
        }
      ],
      "name": "OrderApprovedPartTwo",
      "type": "event"
    },
    {
      "anonymous": false,
      "inputs": [
        {
          "indexed": true,
          "internalType": "bytes32",
          "name": "hash",
          "type": "bytes32"
        }
      ],
      "name": "OrderCancelled",
      "type": "event"
    },
    {
      "anonymous": false,
      "inputs": [
        {
          "indexed": false,
          "internalType": "bytes32",
          "name": "buyHash",
          "type": "bytes32"
        },
        {
          "indexed": false,
          "internalType": "bytes32",
          "name": "sellHash",
          "type": "bytes32"
        },
        {
          "indexed": true,
          "internalType": "address",
          "name": "maker",
          "type": "address"
        },
        {
          "indexed": true,
          "internalType": "address",
          "name": "taker",
          "type": "address"
        },
        {
          "indexed": false,
          "internalType": "uint256",
          "name": "price",
          "type": "uint256"
        },
        {
          "indexed": true,
          "internalType": "bytes32",
          "name": "metadata",
          "type": "bytes32"
        }
      ],
      "name": "OrdersMatched",
      "type": "event"
    },
    {
      "anonymous": false,
      "inputs": [
        {
          "indexed": true,
          "internalType": "address",
          "name": "previousOwner",
          "type": "address"
        },
        {
          "indexed": true,
          "internalType": "address",
          "name": "newOwner",
          "type": "address"
        }
      ],
      "name": "OwnershipTransferred",
      "type": "event"
    },
    {
      "anonymous": false,
      "inputs": [
        {
          "indexed": false,
          "internalType": "address",
          "name": "oldTokenAddress",
          "type": "address"
        },
        {
          "indexed": false,
          "internalType": "address",
          "name": "newTokenAddress",
          "type": "address"
        }
      ],
      "name": "ProtocolTokenFeeChange",
      "type": "event"
    },
    {
      "inputs": [],
      "name": "INVERSE_BASIS_POINT",
      "outputs": [
        {
          "internalType": "uint256",
          "name": "",
          "type": "uint256"
        }
      ],
      "stateMutability": "view",
      "type": "function"
    },
    {
      "inputs": [
        {
          "internalType": "bytes32",
          "name": "",
          "type": "bytes32"
        }
      ],
      "name": "approvedOrders",
      "outputs": [
        {
          "internalType": "bool",
          "name": "",
          "type": "bool"
        }
      ],
      "stateMutability": "view",
      "type": "function"
    },
    {
      "inputs": [
        {
          "internalType": "bytes32",
          "name": "",
          "type": "bytes32"
        }
      ],
      "name": "cancelledOrFinalized",
      "outputs": [
        {
          "internalType": "bool",
          "name": "",
          "type": "bool"
        }
      ],
      "stateMutability": "view",
      "type": "function"
    },
    {
      "inputs": [
        {
          "internalType": "uint256",
          "name": "newMinimumMakerProtocolFee",
          "type": "uint256"
        }
      ],
      "name": "changeMinimumMakerProtocolFee",
      "outputs": [],
      "stateMutability": "nonpayable",
      "type": "function"
    },
    {
      "inputs": [
        {
          "internalType": "uint256",
          "name": "newMinimumTakerProtocolFee",
          "type": "uint256"
        }
      ],
      "name": "changeMinimumTakerProtocolFee",
      "outputs": [],
      "stateMutability": "nonpayable",
      "type": "function"
    },
    {
      "inputs": [
        {
          "internalType": "address",
          "name": "newProtocolFeeRecipient",
          "type": "address"
        }
      ],
      "name": "changeProtocolFeeRecipient",
      "outputs": [],
      "stateMutability": "nonpayable",
      "type": "function"
    },
    {
      "inputs": [
        {
          "internalType": "address",
          "name": "newTokenAddress",
          "type": "address"
        }
      ],
      "name": "changeProtocolFeeTokenAddress",
      "outputs": [],
      "stateMutability": "nonpayable",
      "type": "function"
    },
    {
      "inputs": [],
      "name": "exchangeToken",
      "outputs": [
        {
          "internalType": "contract ERC20",
          "name": "",
          "type": "address"
        }
      ],
      "stateMutability": "view",
      "type": "function"
    },
    {
      "inputs": [],
      "name": "minimumMakerProtocolFee",
      "outputs": [
        {
          "internalType": "uint256",
          "name": "",
          "type": "uint256"
        }
      ],
      "stateMutability": "view",
      "type": "function"
    },
    {
      "inputs": [],
      "name": "minimumTakerProtocolFee",
      "outputs": [
        {
          "internalType": "uint256",
          "name": "",
          "type": "uint256"
        }
      ],
      "stateMutability": "view",
      "type": "function"
    },
    {
      "inputs": [],
      "name": "owner",
      "outputs": [
        {
          "internalType": "address",
          "name": "",
          "type": "address"
        }
      ],
      "stateMutability": "view",
      "type": "function"
    },
    {
      "inputs": [],
      "name": "protocolFeeRecipient",
      "outputs": [
        {
          "internalType": "address",
          "name": "",
          "type": "address"
        }
      ],
      "stateMutability": "view",
      "type": "function"
    },
    {
      "inputs": [],
      "name": "registry",
      "outputs": [
        {
          "internalType": "contract ProxyRegistry",
          "name": "",
          "type": "address"
        }
      ],
      "stateMutability": "view",
      "type": "function"
    },
    {
      "inputs": [],
      "name": "renounceOwnership",
      "outputs": [],
      "stateMutability": "nonpayable",
      "type": "function"
    },
    {
      "inputs": [
        {
          "internalType": "address",
          "name": "target",
          "type": "address"
        },
        {
          "internalType": "bytes",
          "name": "callData",
          "type": "bytes"
        },
        {
          "internalType": "bytes",
          "name": "extradata",
          "type": "bytes"
        }
      ],
      "name": "staticCall",
      "outputs": [
        {
          "internalType": "bool",
          "name": "result",
          "type": "bool"
        }
      ],
      "stateMutability": "view",
      "type": "function"
    },
    {
      "inputs": [],
      "name": "tokenTransferProxy",
      "outputs": [
        {
          "internalType": "contract TokenTransferProxy",
          "name": "",
          "type": "address"
        }
      ],
      "stateMutability": "view",
      "type": "function"
    },
    {
      "inputs": [
        {
          "internalType": "address",
          "name": "newOwner",
          "type": "address"
        }
      ],
      "name": "transferOwnership",
      "outputs": [],
      "stateMutability": "nonpayable",
      "type": "function"
    },
    {
      "inputs": [
        {
          "internalType": "address[7]",
          "name": "addrs",
          "type": "address[7]"
        },
        {
          "internalType": "uint256[9]",
          "name": "uints",
          "type": "uint256[9]"
        },
        {
          "internalType": "enum ExchangeCore.FeeMethod",
          "name": "feeMethod",
          "type": "uint8"
        },
        {
          "internalType": "enum SaleKindInterface.Side",
          "name": "side",
          "type": "uint8"
        },
        {
          "internalType": "enum SaleKindInterface.SaleKind",
          "name": "saleKind",
          "type": "uint8"
        },
        {
          "internalType": "enum AuthenticatedProxy.HowToCall",
          "name": "howToCall",
          "type": "uint8"
        },
        {
          "internalType": "bytes",
          "name": "callData",
          "type": "bytes"
        },
        {
          "internalType": "bytes",
          "name": "replacementPattern",
          "type": "bytes"
        },
        {
          "internalType": "bytes",
          "name": "staticExtradata",
          "type": "bytes"
        }
      ],
      "name": "hashOrder_",
      "outputs": [
        {
          "internalType": "bytes32",
          "name": "",
          "type": "bytes32"
        }
      ],
      "stateMutability": "pure",
      "type": "function"
    },
    {
      "inputs": [
        {
          "internalType": "address[7]",
          "name": "addrs",
          "type": "address[7]"
        },
        {
          "internalType": "uint256[9]",
          "name": "uints",
          "type": "uint256[9]"
        },
        {
          "internalType": "enum ExchangeCore.FeeMethod",
          "name": "feeMethod",
          "type": "uint8"
        },
        {
          "internalType": "enum SaleKindInterface.Side",
          "name": "side",
          "type": "uint8"
        },
        {
          "internalType": "enum SaleKindInterface.SaleKind",
          "name": "saleKind",
          "type": "uint8"
        },
        {
          "internalType": "enum AuthenticatedProxy.HowToCall",
          "name": "howToCall",
          "type": "uint8"
        },
        {
          "internalType": "bytes",
          "name": "callData",
          "type": "bytes"
        },
        {
          "internalType": "bytes",
          "name": "replacementPattern",
          "type": "bytes"
        },
        {
          "internalType": "bytes",
          "name": "staticExtradata",
          "type": "bytes"
        }
      ],
      "name": "hashToSign_",
      "outputs": [
        {
          "internalType": "bytes32",
          "name": "",
          "type": "bytes32"
        }
      ],
      "stateMutability": "pure",
      "type": "function"
    },
    {
      "inputs": [
        {
          "internalType": "address[7]",
          "name": "addrs",
          "type": "address[7]"
        },
        {
          "internalType": "uint256[9]",
          "name": "uints",
          "type": "uint256[9]"
        },
        {
          "internalType": "enum ExchangeCore.FeeMethod",
          "name": "feeMethod",
          "type": "uint8"
        },
        {
          "internalType": "enum SaleKindInterface.Side",
          "name": "side",
          "type": "uint8"
        },
        {
          "internalType": "enum SaleKindInterface.SaleKind",
          "name": "saleKind",
          "type": "uint8"
        },
        {
          "internalType": "enum AuthenticatedProxy.HowToCall",
          "name": "howToCall",
          "type": "uint8"
        },
        {
          "internalType": "bytes",
          "name": "callData",
          "type": "bytes"
        },
        {
          "internalType": "bytes",
          "name": "replacementPattern",
          "type": "bytes"
        },
        {
          "internalType": "bytes",
          "name": "staticExtradata",
          "type": "bytes"
        }
      ],
      "name": "validateOrderParameters_",
      "outputs": [
        {
          "internalType": "bool",
          "name": "",
          "type": "bool"
        }
      ],
      "stateMutability": "view",
      "type": "function"
    },
    {
      "inputs": [
        {
          "internalType": "address[7]",
          "name": "addrs",
          "type": "address[7]"
        },
        {
          "internalType": "uint256[9]",
          "name": "uints",
          "type": "uint256[9]"
        },
        {
          "internalType": "enum ExchangeCore.FeeMethod",
          "name": "feeMethod",
          "type": "uint8"
        },
        {
          "internalType": "enum SaleKindInterface.Side",
          "name": "side",
          "type": "uint8"
        },
        {
          "internalType": "enum SaleKindInterface.SaleKind",
          "name": "saleKind",
          "type": "uint8"
        },
        {
          "internalType": "enum AuthenticatedProxy.HowToCall",
          "name": "howToCall",
          "type": "uint8"
        },
        {
          "internalType": "bytes",
          "name": "callData",
          "type": "bytes"
        },
        {
          "internalType": "bytes",
          "name": "replacementPattern",
          "type": "bytes"
        },
        {
          "internalType": "bytes",
          "name": "staticExtradata",
          "type": "bytes"
        },
        {
          "internalType": "uint8",
          "name": "v",
          "type": "uint8"
        },
        {
          "internalType": "bytes32",
          "name": "r",
          "type": "bytes32"
        },
        {
          "internalType": "bytes32",
          "name": "s",
          "type": "bytes32"
        }
      ],
      "name": "validateOrder_",
      "outputs": [
        {
          "internalType": "bool",
          "name": "",
          "type": "bool"
        }
      ],
      "stateMutability": "view",
      "type": "function"
    },
    {
      "inputs": [
        {
          "internalType": "address[7]",
          "name": "addrs",
          "type": "address[7]"
        },
        {
          "internalType": "uint256[9]",
          "name": "uints",
          "type": "uint256[9]"
        },
        {
          "internalType": "enum ExchangeCore.FeeMethod",
          "name": "feeMethod",
          "type": "uint8"
        },
        {
          "internalType": "enum SaleKindInterface.Side",
          "name": "side",
          "type": "uint8"
        },
        {
          "internalType": "enum SaleKindInterface.SaleKind",
          "name": "saleKind",
          "type": "uint8"
        },
        {
          "internalType": "enum AuthenticatedProxy.HowToCall",
          "name": "howToCall",
          "type": "uint8"
        },
        {
          "internalType": "bytes",
          "name": "callData",
          "type": "bytes"
        },
        {
          "internalType": "bytes",
          "name": "replacementPattern",
          "type": "bytes"
        },
        {
          "internalType": "bytes",
          "name": "staticExtradata",
          "type": "bytes"
        },
        {
          "internalType": "bool",
          "name": "orderbookInclusionDesired",
          "type": "bool"
        }
      ],
      "name": "approveOrder_",
      "outputs": [],
      "stateMutability": "nonpayable",
      "type": "function"
    },
    {
      "inputs": [
        {
          "internalType": "address[7]",
          "name": "addrs",
          "type": "address[7]"
        },
        {
          "internalType": "uint256[9]",
          "name": "uints",
          "type": "uint256[9]"
        },
        {
          "internalType": "enum ExchangeCore.FeeMethod",
          "name": "feeMethod",
          "type": "uint8"
        },
        {
          "internalType": "enum SaleKindInterface.Side",
          "name": "side",
          "type": "uint8"
        },
        {
          "internalType": "enum SaleKindInterface.SaleKind",
          "name": "saleKind",
          "type": "uint8"
        },
        {
          "internalType": "enum AuthenticatedProxy.HowToCall",
          "name": "howToCall",
          "type": "uint8"
        },
        {
          "internalType": "bytes",
          "name": "callData",
          "type": "bytes"
        },
        {
          "internalType": "bytes",
          "name": "replacementPattern",
          "type": "bytes"
        },
        {
          "internalType": "bytes",
          "name": "staticExtradata",
          "type": "bytes"
        },
        {
          "internalType": "uint8",
          "name": "v",
          "type": "uint8"
        },
        {
          "internalType": "bytes32",
          "name": "r",
          "type": "bytes32"
        },
        {
          "internalType": "bytes32",
          "name": "s",
          "type": "bytes32"
        }
      ],
      "name": "cancelOrder_",
      "outputs": [],
      "stateMutability": "nonpayable",
      "type": "function"
    },
    {
      "inputs": [
        {
          "internalType": "address[7]",
          "name": "addrs",
          "type": "address[7]"
        },
        {
          "internalType": "uint256[9]",
          "name": "uints",
          "type": "uint256[9]"
        },
        {
          "internalType": "enum ExchangeCore.FeeMethod",
          "name": "feeMethod",
          "type": "uint8"
        },
        {
          "internalType": "enum SaleKindInterface.Side",
          "name": "side",
          "type": "uint8"
        },
        {
          "internalType": "enum SaleKindInterface.SaleKind",
          "name": "saleKind",
          "type": "uint8"
        },
        {
          "internalType": "enum AuthenticatedProxy.HowToCall",
          "name": "howToCall",
          "type": "uint8"
        },
        {
          "internalType": "bytes",
          "name": "callData",
          "type": "bytes"
        },
        {
          "internalType": "bytes",
          "name": "replacementPattern",
          "type": "bytes"
        },
        {
          "internalType": "bytes",
          "name": "staticExtradata",
          "type": "bytes"
        }
      ],
      "name": "calculateCurrentPrice_",
      "outputs": [
        {
          "internalType": "uint256",
          "name": "",
          "type": "uint256"
        }
      ],
      "stateMutability": "view",
      "type": "function"
    },
    {
      "inputs": [
        {
          "internalType": "address[14]",
          "name": "addrs",
          "type": "address[14]"
        },
        {
          "internalType": "uint256[18]",
          "name": "uints",
          "type": "uint256[18]"
        },
        {
          "internalType": "uint8[8]",
          "name": "feeMethodsSidesKindsHowToCalls",
          "type": "uint8[8]"
        },
        {
          "internalType": "bytes",
          "name": "callDataBuy",
          "type": "bytes"
        },
        {
          "internalType": "bytes",
          "name": "callDataSell",
          "type": "bytes"
        },
        {
          "internalType": "bytes",
          "name": "replacementPatternBuy",
          "type": "bytes"
        },
        {
          "internalType": "bytes",
          "name": "replacementPatternSell",
          "type": "bytes"
        },
        {
          "internalType": "bytes",
          "name": "staticExtradataBuy",
          "type": "bytes"
        },
        {
          "internalType": "bytes",
          "name": "staticExtradataSell",
          "type": "bytes"
        }
      ],
      "name": "calculateMatchPrice_",
      "outputs": [
        {
          "internalType": "uint256",
          "name": "",
          "type": "uint256"
        }
      ],
      "stateMutability": "view",
      "type": "function"
    },
    {
      "inputs": [
        {
          "internalType": "address[14]",
          "name": "addrs",
          "type": "address[14]"
        },
        {
          "internalType": "uint256[18]",
          "name": "uints",
          "type": "uint256[18]"
        },
        {
          "internalType": "uint8[8]",
          "name": "feeMethodsSidesKindsHowToCalls",
          "type": "uint8[8]"
        },
        {
          "internalType": "bytes",
          "name": "callDataBuy",
          "type": "bytes"
        },
        {
          "internalType": "bytes",
          "name": "callDataSell",
          "type": "bytes"
        },
        {
          "internalType": "bytes",
          "name": "replacementPatternBuy",
          "type": "bytes"
        },
        {
          "internalType": "bytes",
          "name": "replacementPatternSell",
          "type": "bytes"
        },
        {
          "internalType": "bytes",
          "name": "staticExtradataBuy",
          "type": "bytes"
        },
        {
          "internalType": "bytes",
          "name": "staticExtradataSell",
          "type": "bytes"
        },
        {
          "internalType": "uint8[2]",
          "name": "vs",
          "type": "uint8[2]"
        },
        {
          "internalType": "bytes32[5]",
          "name": "rssMetadata",
          "type": "bytes32[5]"
        }
      ],
      "name": "atomicMatch_",
      "outputs": [],
      "stateMutability": "payable",
      "type": "function"
    }
  ],
  "bytecode": "0x60806040526000805460ff19168155600681905560075534801561002257600080fd5b5060008054610100600160a81b031916336101008102919091178255604051909182917f8be0079c531659141344cd1fd0a4f28419497f9722a3daafe3b4186f6b6457e0908290a350615b3f806200007b6000396000f3fe6080604052600436106101815760003560e01c80637b103999116100d1578063a8a41c701161008a578063cae6047f11610064578063cae6047f1461046a578063d537e13114610480578063e57d4adb146104a0578063f2fde38b146104d057600080fd5b8063a8a41c7014610417578063ab834bab14610437578063ca595b9a1461044a57600080fd5b80637b1039991461034e5780637ccefc521461036e5780637d766981146103845780638076f005146103a45780638da5cb5b146103d4578063a25eb5d9146103f757600080fd5b8063514f03301161013e57806364df049e1161011857806364df049e146102d9578063715018a6146102f957806371d02b381461030e578063796668681461032e57600080fd5b8063514f0330146102795780635ef527e41461029957806360bef33a146102b957600080fd5b80630eefdbad1461018657806310796a47146101c357806314350c24146101f35780631a6b13e21461021557806328a8ee68146102355780633f67ee0d14610259575b600080fd5b34801561019257600080fd5b506003546101a6906001600160a01b031681565b6040516001600160a01b0390911681526020015b60405180910390f35b3480156101cf57600080fd5b506101e36101de366004615218565b6104f0565b60405190151581526020016101ba565b3480156101ff57600080fd5b5061021361020e36600461582d565b610588565b005b34801561022157600080fd5b5061021361023036600461582d565b6105c6565b34801561024157600080fd5b5061024b60075481565b6040519081526020016101ba565b34801561026557600080fd5b5061024b610274366004615513565b6105fb565b34801561028557600080fd5b506102136102943660046151e0565b610953565b3480156102a557600080fd5b506102136102b43660046151e0565b6109a5565b3480156102c557600080fd5b506101e36102d43660046156e8565b610a36565b3480156102e557600080fd5b506008546101a6906001600160a01b031681565b34801561030557600080fd5b50610213610de1565b34801561031a57600080fd5b5061024b610329366004615513565b610e60565b34801561033a57600080fd5b506102136103493660046155e6565b6111aa565b34801561035a57600080fd5b506002546101a6906001600160a01b031681565b34801561037a57600080fd5b5061024b60065481565b34801561039057600080fd5b5061024b61039f366004615513565b611505565b3480156103b057600080fd5b506101e36103bf36600461582d565b60046020526000908152604090205460ff1681565b3480156103e057600080fd5b5060005461010090046001600160a01b03166101a6565b34801561040357600080fd5b506001546101a6906001600160a01b031681565b34801561042357600080fd5b506102136104323660046156e8565b61184f565b6102136104453660046153b5565b611be5565b34801561045657600080fd5b506101e3610465366004615513565b6124b6565b34801561047657600080fd5b5061024b61271081565b34801561048c57600080fd5b5061024b61049b36600461528a565b612813565b3480156104ac57600080fd5b506101e36104bb36600461582d565b60056020526000908152604090205460ff1681565b3480156104dc57600080fd5b506102136104eb3660046151e0565b613018565b600080825184516105019190615a10565b6001600160401b0381111561052657634e487b7160e01b600052604160045260246000fd5b6040519080825280601f01601f191660200182016040528015610550576020820181803683370190505b509050602081016105618185613113565b905061056d8186613113565b506000604051835160208501895afa925050505b9392505050565b6000546001600160a01b036101009091041633146105c15760405162461bcd60e51b81526004016105b8906159db565b60405180910390fd5b600655565b6000546001600160a01b036101009091041633146105f65760405162461bcd60e51b81526004016105b8906159db565b600755565b6000610945604051806102e001604052808c60006007811061062d57634e487b7160e01b600052603260045260246000fd5b60200201516001600160a01b031681526020018c60016007811061066157634e487b7160e01b600052603260045260246000fd5b60200201516001600160a01b031681526020018c60026007811061069557634e487b7160e01b600052603260045260246000fd5b60200201516001600160a01b031681526020018b6000600981106106c957634e487b7160e01b600052603260045260246000fd5b602002015181526020018b6001600981106106f457634e487b7160e01b600052603260045260246000fd5b602002015181526020018b60026009811061071f57634e487b7160e01b600052603260045260246000fd5b602002015181526020018b60036009811061074a57634e487b7160e01b600052603260045260246000fd5b602002015181526020018c60036007811061077557634e487b7160e01b600052603260045260246000fd5b60200201516001600160a01b031681526020018a60018111156107a857634e487b7160e01b600052602160045260246000fd5b81526020018960018111156107cd57634e487b7160e01b600052602160045260246000fd5b81526020018860018111156107f257634e487b7160e01b600052602160045260246000fd5b815260808d01516001600160a01b0316602082015260400187600181111561082a57634e487b7160e01b600052602160045260246000fd5b8152602081018790526040810186905260a0808e01516001600160a01b0316606083015260808201869052018c600660200201516001600160a01b031681526020018b60046009811061088d57634e487b7160e01b600052603260045260246000fd5b602002015181526020018b6005600981106108b857634e487b7160e01b600052603260045260246000fd5b602002015181526020018b6006600981106108e357634e487b7160e01b600052603260045260246000fd5b602002015181526020018b60076009811061090e57634e487b7160e01b600052603260045260246000fd5b602002015181526020018b60086009811061093957634e487b7160e01b600052603260045260246000fd5b60200201519052613156565b9a9950505050505050505050565b6000546001600160a01b036101009091041633146109835760405162461bcd60e51b81526004016105b8906159db565b600880546001600160a01b0319166001600160a01b0392909216919091179055565b6000546001600160a01b036101009091041633146109d55760405162461bcd60e51b81526004016105b8906159db565b600180546001600160a01b038381166001600160a01b031983168117909355604080519190921680825260208201939093527f114cfa1c61a2b039de4a4dd89821f0664d2a5dc26f70a270c615a9d14fd40632910160405180910390a15050565b600080604051806102e001604052808f600060078110610a6657634e487b7160e01b600052603260045260246000fd5b60200201516001600160a01b031681526020018f600160078110610a9a57634e487b7160e01b600052603260045260246000fd5b60200201516001600160a01b031681526020018f600260078110610ace57634e487b7160e01b600052603260045260246000fd5b60200201516001600160a01b031681526020018e600060098110610b0257634e487b7160e01b600052603260045260246000fd5b602002015181526020018e600160098110610b2d57634e487b7160e01b600052603260045260246000fd5b602002015181526020018e600260098110610b5857634e487b7160e01b600052603260045260246000fd5b602002015181526020018e600360098110610b8357634e487b7160e01b600052603260045260246000fd5b602002015181526020018f600360078110610bae57634e487b7160e01b600052603260045260246000fd5b60200201516001600160a01b031681526020018d6001811115610be157634e487b7160e01b600052602160045260246000fd5b81526020018c6001811115610c0657634e487b7160e01b600052602160045260246000fd5b81526020018b6001811115610c2b57634e487b7160e01b600052602160045260246000fd5b81526020018f600460200201516001600160a01b031681526020018a6001811115610c6657634e487b7160e01b600052602160045260246000fd5b8152602081018a9052604081018990526060018f600560200201516001600160a01b031681526020018781526020018f600660078110610cb657634e487b7160e01b600052603260045260246000fd5b60200201516001600160a01b031681526020018e600460098110610cea57634e487b7160e01b600052603260045260246000fd5b602002015181526020018e600560098110610d1557634e487b7160e01b600052603260045260246000fd5b602002015181526020018e600660098110610d4057634e487b7160e01b600052603260045260246000fd5b602002015181526020018e600760098110610d6b57634e487b7160e01b600052603260045260246000fd5b602002015181526020018e600860098110610d9657634e487b7160e01b600052603260045260246000fd5b602002015190529050610dcf610dab8261318a565b8260405180606001604052808960ff168152602001888152602001878152506131e6565b9e9d5050505050505050505050505050565b6000546001600160a01b03610100909104163314610e115760405162461bcd60e51b81526004016105b8906159db565b600080546040516101009091046001600160a01b0316907f8be0079c531659141344cd1fd0a4f28419497f9722a3daafe3b4186f6b6457e0908390a360008054610100600160a81b0319169055565b6000610945604051806102e001604052808c600060078110610e9257634e487b7160e01b600052603260045260246000fd5b60200201516001600160a01b031681526020018c600160078110610ec657634e487b7160e01b600052603260045260246000fd5b60200201516001600160a01b031681526020018c600260078110610efa57634e487b7160e01b600052603260045260246000fd5b60200201516001600160a01b031681526020018b600060098110610f2e57634e487b7160e01b600052603260045260246000fd5b602002015181526020018b600160098110610f5957634e487b7160e01b600052603260045260246000fd5b602002015181526020018b600260098110610f8457634e487b7160e01b600052603260045260246000fd5b602002015181526020018b600360098110610faf57634e487b7160e01b600052603260045260246000fd5b602002015181526020018c600360078110610fda57634e487b7160e01b600052603260045260246000fd5b60200201516001600160a01b031681526020018a600181111561100d57634e487b7160e01b600052602160045260246000fd5b815260200189600181111561103257634e487b7160e01b600052602160045260246000fd5b815260200188600181111561105757634e487b7160e01b600052602160045260246000fd5b815260808d01516001600160a01b0316602082015260400187600181111561108f57634e487b7160e01b600052602160045260246000fd5b8152602081018790526040810186905260a0808e01516001600160a01b0316606083015260808201869052018c600660200201516001600160a01b031681526020018b6004600981106110f257634e487b7160e01b600052603260045260246000fd5b602002015181526020018b60056009811061111d57634e487b7160e01b600052603260045260246000fd5b602002015181526020018b60066009811061114857634e487b7160e01b600052603260045260246000fd5b602002015181526020018b60076009811061117357634e487b7160e01b600052603260045260246000fd5b602002015181526020018b60086009811061119e57634e487b7160e01b600052603260045260246000fd5b602002015190526132cc565b6000604051806102e001604052808c6000600781106111d957634e487b7160e01b600052603260045260246000fd5b60200201516001600160a01b031681526020018c60016007811061120d57634e487b7160e01b600052603260045260246000fd5b60200201516001600160a01b031681526020018c60026007811061124157634e487b7160e01b600052603260045260246000fd5b60200201516001600160a01b031681526020018b60006009811061127557634e487b7160e01b600052603260045260246000fd5b602002015181526020018b6001600981106112a057634e487b7160e01b600052603260045260246000fd5b602002015181526020018b6002600981106112cb57634e487b7160e01b600052603260045260246000fd5b602002015181526020018b6003600981106112f657634e487b7160e01b600052603260045260246000fd5b602002015181526020018c60036007811061132157634e487b7160e01b600052603260045260246000fd5b60200201516001600160a01b031681526020018a600181111561135457634e487b7160e01b600052602160045260246000fd5b815260200189600181111561137957634e487b7160e01b600052602160045260246000fd5b815260200188600181111561139e57634e487b7160e01b600052602160045260246000fd5b815260808d01516001600160a01b031660208201526040018760018111156113d657634e487b7160e01b600052602160045260246000fd5b8152602081018790526040810186905260a0808e01516001600160a01b0316606083015260808201869052018c600660200201516001600160a01b031681526020018b60046009811061143957634e487b7160e01b600052603260045260246000fd5b602002015181526020018b60056009811061146457634e487b7160e01b600052603260045260246000fd5b602002015181526020018b60066009811061148f57634e487b7160e01b600052603260045260246000fd5b602002015181526020018b6007600981106114ba57634e487b7160e01b600052603260045260246000fd5b602002015181526020018b6008600981106114e557634e487b7160e01b600052603260045260246000fd5b6020020151905290506114f881836134fd565b5050505050505050505050565b6000610945604051806102e001604052808c60006007811061153757634e487b7160e01b600052603260045260246000fd5b60200201516001600160a01b031681526020018c60016007811061156b57634e487b7160e01b600052603260045260246000fd5b60200201516001600160a01b031681526020018c60026007811061159f57634e487b7160e01b600052603260045260246000fd5b60200201516001600160a01b031681526020018b6000600981106115d357634e487b7160e01b600052603260045260246000fd5b602002015181526020018b6001600981106115fe57634e487b7160e01b600052603260045260246000fd5b602002015181526020018b60026009811061162957634e487b7160e01b600052603260045260246000fd5b602002015181526020018b60036009811061165457634e487b7160e01b600052603260045260246000fd5b602002015181526020018c60036007811061167f57634e487b7160e01b600052603260045260246000fd5b60200201516001600160a01b031681526020018a60018111156116b257634e487b7160e01b600052602160045260246000fd5b81526020018960018111156116d757634e487b7160e01b600052602160045260246000fd5b81526020018860018111156116fc57634e487b7160e01b600052602160045260246000fd5b815260808d01516001600160a01b0316602082015260400187600181111561173457634e487b7160e01b600052602160045260246000fd5b8152602081018790526040810186905260a0808e01516001600160a01b0316606083015260808201869052018c600660200201516001600160a01b031681526020018b60046009811061179757634e487b7160e01b600052603260045260246000fd5b602002015181526020018b6005600981106117c257634e487b7160e01b600052603260045260246000fd5b602002015181526020018b6006600981106117ed57634e487b7160e01b600052603260045260246000fd5b602002015181526020018b60076009811061181857634e487b7160e01b600052603260045260246000fd5b602002015181526020018b60086009811061184357634e487b7160e01b600052603260045260246000fd5b6020020151905261318a565b611bd7604051806102e001604052808e60006007811061187f57634e487b7160e01b600052603260045260246000fd5b60200201516001600160a01b031681526020018e6001600781106118b357634e487b7160e01b600052603260045260246000fd5b60200201516001600160a01b031681526020018e6002600781106118e757634e487b7160e01b600052603260045260246000fd5b60200201516001600160a01b031681526020018d60006009811061191b57634e487b7160e01b600052603260045260246000fd5b602002015181526020018d60016009811061194657634e487b7160e01b600052603260045260246000fd5b602002015181526020018d60026009811061197157634e487b7160e01b600052603260045260246000fd5b602002015181526020018d60036009811061199c57634e487b7160e01b600052603260045260246000fd5b602002015181526020018e6003600781106119c757634e487b7160e01b600052603260045260246000fd5b60200201516001600160a01b031681526020018c60018111156119fa57634e487b7160e01b600052602160045260246000fd5b81526020018b6001811115611a1f57634e487b7160e01b600052602160045260246000fd5b81526020018a6001811115611a4457634e487b7160e01b600052602160045260246000fd5b815260808f01516001600160a01b03166020820152604001896001811115611a7c57634e487b7160e01b600052602160045260246000fd5b815260208101899052604081018890526060018e600560200201516001600160a01b031681526020018681526020018e600660078110611acc57634e487b7160e01b600052603260045260246000fd5b60200201516001600160a01b031681526020018d600460098110611b0057634e487b7160e01b600052603260045260246000fd5b602002015181526020018d600560098110611b2b57634e487b7160e01b600052603260045260246000fd5b602002015181526020018d600660098110611b5657634e487b7160e01b600052603260045260246000fd5b602002015181526020018d600760098110611b8157634e487b7160e01b600052603260045260246000fd5b602002015181526020018d600860098110611bac57634e487b7160e01b600052603260045260246000fd5b602002015181525060405180606001604052808660ff16815260200185815260200184815250613691565b505050505050505050505050565b6114f8604051806102e001604052808d6000600e8110611c1557634e487b7160e01b600052603260045260246000fd5b60200201516001600160a01b031681526020018d6001600e8110611c4957634e487b7160e01b600052603260045260246000fd5b60200201516001600160a01b031681526020018d6002600e8110611c7d57634e487b7160e01b600052603260045260246000fd5b60200201516001600160a01b031681526020018c600060128110611cb157634e487b7160e01b600052603260045260246000fd5b602002015181526020018c600160128110611cdc57634e487b7160e01b600052603260045260246000fd5b602002015181526020018c600260128110611d0757634e487b7160e01b600052603260045260246000fd5b602002015181526020018c600360128110611d3257634e487b7160e01b600052603260045260246000fd5b602002015181526020018d6003600e8110611d5d57634e487b7160e01b600052603260045260246000fd5b60200201516001600160a01b031681526020018b600060088110611d9157634e487b7160e01b600052603260045260246000fd5b602002015160ff166001811115611db857634e487b7160e01b600052602160045260246000fd5b6001811115611dd757634e487b7160e01b600052602160045260246000fd5b81526020018b6001602002015160ff166001811115611e0657634e487b7160e01b600052602160045260246000fd5b6001811115611e2557634e487b7160e01b600052602160045260246000fd5b81526020018b6002602002015160ff166001811115611e5457634e487b7160e01b600052602160045260246000fd5b6001811115611e7357634e487b7160e01b600052602160045260246000fd5b815260808e01516001600160a01b031660208201526040018b6003602002015160ff166001811115611eb557634e487b7160e01b600052602160045260246000fd5b6001811115611ed457634e487b7160e01b600052602160045260246000fd5b8152602081018b90526040810189905260a0808f01516001600160a01b0316606083015260808201889052018d600660200201516001600160a01b031681526020018c600460128110611f3757634e487b7160e01b600052603260045260246000fd5b602002015181526020018c600560128110611f6257634e487b7160e01b600052603260045260246000fd5b602002015181526020018c600660128110611f8d57634e487b7160e01b600052603260045260246000fd5b602002015181526020018c600760128110611fb857634e487b7160e01b600052603260045260246000fd5b602002015181526020018c600860128110611fe357634e487b7160e01b600052603260045260246000fd5b6020908102919091015190915260408051606081018252865160ff168152855192810192909252810184600160200201519052604080516102e08101909152808f600760200201516001600160a01b031681526020018f6008600e811061205a57634e487b7160e01b600052603260045260246000fd5b60200201516001600160a01b031681526020018f6009600e811061208e57634e487b7160e01b600052603260045260246000fd5b60200201516001600160a01b031681526020018e6009601281106120c257634e487b7160e01b600052603260045260246000fd5b602002015181526020018e600a601281106120ed57634e487b7160e01b600052603260045260246000fd5b602002015181526020018e600b6012811061211857634e487b7160e01b600052603260045260246000fd5b602002015181526020018e600c6012811061214357634e487b7160e01b600052603260045260246000fd5b602002015181526020018f600a600e811061216e57634e487b7160e01b600052603260045260246000fd5b60200201516001600160a01b031681526020018d6004600881106121a257634e487b7160e01b600052603260045260246000fd5b602002015160ff1660018111156121c957634e487b7160e01b600052602160045260246000fd5b60018111156121e857634e487b7160e01b600052602160045260246000fd5b81526020018d6005602002015160ff16600181111561221757634e487b7160e01b600052602160045260246000fd5b600181111561223657634e487b7160e01b600052602160045260246000fd5b81526020018d6006602002015160ff16600181111561226557634e487b7160e01b600052602160045260246000fd5b600181111561228457634e487b7160e01b600052602160045260246000fd5b81526020018f600b60200201516001600160a01b031681526020018d6007600881106122c057634e487b7160e01b600052603260045260246000fd5b602002015160ff1660018111156122e757634e487b7160e01b600052602160045260246000fd5b600181111561230657634e487b7160e01b600052602160045260246000fd5b8152602081018c9052604081018a90526060018f600c60200201516001600160a01b031681526020018781526020018f600d600e811061235657634e487b7160e01b600052603260045260246000fd5b60200201516001600160a01b031681526020018e600d6012811061238a57634e487b7160e01b600052603260045260246000fd5b602002015181526020018e600e601281106123b557634e487b7160e01b600052603260045260246000fd5b602002015181526020018e600f601281106123e057634e487b7160e01b600052603260045260246000fd5b602002015181526020018e60106012811061240b57634e487b7160e01b600052603260045260246000fd5b602002015181526020018e60116012811061243657634e487b7160e01b600052603260045260246000fd5b60200201519052604080516060810190915280876001602002015160ff1681526020018660026005811061247a57634e487b7160e01b600052603260045260246000fd5b60200201518152602001866003600581106124a557634e487b7160e01b600052603260045260246000fd5b60200201519052608086015161373a565b600080604051806102e001604052808c6000600781106124e657634e487b7160e01b600052603260045260246000fd5b60200201516001600160a01b031681526020018c60016007811061251a57634e487b7160e01b600052603260045260246000fd5b60200201516001600160a01b031681526020018c60026007811061254e57634e487b7160e01b600052603260045260246000fd5b60200201516001600160a01b031681526020018b60006009811061258257634e487b7160e01b600052603260045260246000fd5b602002015181526020018b6001600981106125ad57634e487b7160e01b600052603260045260246000fd5b602002015181526020018b6002600981106125d857634e487b7160e01b600052603260045260246000fd5b602002015181526020018b60036009811061260357634e487b7160e01b600052603260045260246000fd5b602002015181526020018c60036007811061262e57634e487b7160e01b600052603260045260246000fd5b60200201516001600160a01b031681526020018a600181111561266157634e487b7160e01b600052602160045260246000fd5b815260200189600181111561268657634e487b7160e01b600052602160045260246000fd5b81526020018860018111156126ab57634e487b7160e01b600052602160045260246000fd5b815260808d01516001600160a01b031660208201526040018760018111156126e357634e487b7160e01b600052602160045260246000fd5b8152602081018790526040810186905260a0808e01516001600160a01b0316606083015260808201869052018c600660200201516001600160a01b031681526020018b60046009811061274657634e487b7160e01b600052603260045260246000fd5b602002015181526020018b60056009811061277157634e487b7160e01b600052603260045260246000fd5b602002015181526020018b60066009811061279c57634e487b7160e01b600052603260045260246000fd5b602002015181526020018b6007600981106127c757634e487b7160e01b600052603260045260246000fd5b602002015181526020018b6008600981106127f257634e487b7160e01b600052603260045260246000fd5b60200201519052905061280481613ef0565b9b9a5050505050505050505050565b600080604051806102e001604052808c6000600e811061284357634e487b7160e01b600052603260045260246000fd5b60200201516001600160a01b031681526020018c6001600e811061287757634e487b7160e01b600052603260045260246000fd5b60200201516001600160a01b031681526020018c6002600e81106128ab57634e487b7160e01b600052603260045260246000fd5b60200201516001600160a01b031681526020018b6000601281106128df57634e487b7160e01b600052603260045260246000fd5b602002015181526020018b60016012811061290a57634e487b7160e01b600052603260045260246000fd5b602002015181526020018b60026012811061293557634e487b7160e01b600052603260045260246000fd5b602002015181526020018b60036012811061296057634e487b7160e01b600052603260045260246000fd5b602002015181526020018c6003600e811061298b57634e487b7160e01b600052603260045260246000fd5b60200201516001600160a01b031681526020018a6000600881106129bf57634e487b7160e01b600052603260045260246000fd5b602002015160ff1660018111156129e657634e487b7160e01b600052602160045260246000fd5b6001811115612a0557634e487b7160e01b600052602160045260246000fd5b81526020018a6001602002015160ff166001811115612a3457634e487b7160e01b600052602160045260246000fd5b6001811115612a5357634e487b7160e01b600052602160045260246000fd5b81526020018a6002602002015160ff166001811115612a8257634e487b7160e01b600052602160045260246000fd5b6001811115612aa157634e487b7160e01b600052602160045260246000fd5b815260808d01516001600160a01b031660208201526040018a6003602002015160ff166001811115612ae357634e487b7160e01b600052602160045260246000fd5b6001811115612b0257634e487b7160e01b600052602160045260246000fd5b8152602081018a90526040810188905260a0808e01516001600160a01b0316606083015260808201879052018c600660200201516001600160a01b031681526020018b600460128110612b6557634e487b7160e01b600052603260045260246000fd5b602002015181526020018b600560128110612b9057634e487b7160e01b600052603260045260246000fd5b602002015181526020018b600660128110612bbb57634e487b7160e01b600052603260045260246000fd5b602002015181526020018b600760128110612be657634e487b7160e01b600052603260045260246000fd5b602002015181526020018b600860128110612c1157634e487b7160e01b600052603260045260246000fd5b602002015181525090506000604051806102e001604052808d6007600e8110612c4a57634e487b7160e01b600052603260045260246000fd5b60200201516001600160a01b031681526020018d6008600e8110612c7e57634e487b7160e01b600052603260045260246000fd5b60200201516001600160a01b031681526020018d6009600e8110612cb257634e487b7160e01b600052603260045260246000fd5b60200201516001600160a01b031681526020018c600960128110612ce657634e487b7160e01b600052603260045260246000fd5b602002015181526020018c600a60128110612d1157634e487b7160e01b600052603260045260246000fd5b602002015181526020018c600b60128110612d3c57634e487b7160e01b600052603260045260246000fd5b602002015181526020018c600c60128110612d6757634e487b7160e01b600052603260045260246000fd5b602002015181526020018d600a600e8110612d9257634e487b7160e01b600052603260045260246000fd5b60200201516001600160a01b031681526020018b600460088110612dc657634e487b7160e01b600052603260045260246000fd5b602002015160ff166001811115612ded57634e487b7160e01b600052602160045260246000fd5b6001811115612e0c57634e487b7160e01b600052602160045260246000fd5b81526020018b6005602002015160ff166001811115612e3b57634e487b7160e01b600052602160045260246000fd5b6001811115612e5a57634e487b7160e01b600052602160045260246000fd5b81526020018b6006602002015160ff166001811115612e8957634e487b7160e01b600052602160045260246000fd5b6001811115612ea857634e487b7160e01b600052602160045260246000fd5b81526101608e01516001600160a01b031660208201526040018b6007602002015160ff166001811115612eeb57634e487b7160e01b600052602160045260246000fd5b6001811115612f0a57634e487b7160e01b600052602160045260246000fd5b8152602081018a9052604081018890526101808e01516001600160a01b039081166060830152608082018790526101a08f01511660a082015260c0018c600d602002015181526020018c600e60128110612f7457634e487b7160e01b600052603260045260246000fd5b602002015181526020018c600f60128110612f9f57634e487b7160e01b600052603260045260246000fd5b602002015181526020018c601060128110612fca57634e487b7160e01b600052603260045260246000fd5b602002015181526020018c601160128110612ff557634e487b7160e01b600052603260045260246000fd5b6020020151905290506130088282613f89565b9c9b505050505050505050505050565b6000546001600160a01b036101009091041633146130485760405162461bcd60e51b81526004016105b8906159db565b6001600160a01b0381166130ad5760405162461bcd60e51b815260206004820152602660248201527f4f776e61626c653a206e6577206f776e657220697320746865207a65726f206160448201526564647265737360d01b60648201526084016105b8565b600080546040516001600160a01b038085169361010090930416917f8be0079c531659141344cd1fd0a4f28419497f9722a3daafe3b4186f6b6457e091a3600080546001600160a01b0390921661010002610100600160a81b0319909216919091179055565b80516000901561314f57815180602001830160208401855b6001838310141561314657815181526020918201910161312b565b50505092909201915b5090919050565b6000613184826101200151836101400151846102400151856102600151866102800151876102a0015161401a565b92915050565b6000613195826132cc565b6040517f19457468657265756d205369676e6564204d6573736167653a0a3332000000006020820152603c810191909152605c01604051602081830303815290604052805190602001209050919050565b60006131f183613ef0565b6131fd57506000610581565b60008481526004602052604090205460ff161561321c57506000610581565b60008481526005602052604090205460ff161561323b57506001610581565b6020808401518351848301516040808701518151600081529586018083528a905260ff90931690850152606084015260808301526001600160a01b03169060019060a0016020604051602081039080840390855afa1580156132a1573d6000803e3d6000fd5b505050602060405103516001600160a01b031614156132c257506001610581565b5060009392505050565b6000806132d8836140ec565b90506000816001600160401b0381111561330257634e487b7160e01b600052604160045260246000fd5b6040519080825280601f01601f19166020018201604052801561332c576020820181803683370190505b5084519091506020820190613342908290614124565b9050613352818660200151614124565b9050613362818660400151614124565b6060868101518252608080880151602084015260a0880151604084015260c08801519183019190915260e08701519101915061339f908290614124565b90506133cf8186610100015160018111156133ca57634e487b7160e01b600052602160045260246000fd5b61413e565b90506133fa8186610120015160018111156133ca57634e487b7160e01b600052602160045260246000fd5b90506134258186610140015160018111156133ca57634e487b7160e01b600052602160045260246000fd5b905061343681866101600151614124565b90506134618186610180015160018111156133ca57634e487b7160e01b600052602160045260246000fd5b905061347281866101a00151613113565b905061348381866101c00151613113565b905061349481866101e00151614124565b90506134a581866102000151613113565b90506134b681866102200151614124565b610240860151815261026086015160208083019190915261028087015160408301526102a087015160608301526102c0909601516080909101525090920191909120919050565b81602001516001600160a01b0316336001600160a01b03161461351f57600080fd5b600061352a8361318a565b60008181526005602052604090205490915060ff161561354957600080fd5b60016005600083815260200190815260200160002060006101000a81548160ff0219169083151502179055508260e001516001600160a01b031683602001516001600160a01b0316827f90c7f9f5b58c15f0f635bfb99f55d3d78fdbef3559e7d8abf5c81052a527662286600001518760400151886060015189608001518a60a001518b60c001518c61010001518d61012001518e61014001518f61016001516040516135ff9a99989796959493929190615890565b60405180910390a4807fe55393c778364e440d958b39ac1debd99dcfae3775a8a04d1e79124adf6a2d08846101800151856101a00151866101c00151876101e001518861020001518961022001518a61024001518b61026001518c61028001518d6102a001518e6102c001518e6040516136849c9b9a9998979695949392919061593f565b60405180910390a2505050565b600061369d838361414b565b905082602001516001600160a01b0316336001600160a01b0316146136f55760405162461bcd60e51b815260206004820152600e60248201526d135052d157d393d517d59053125160921b60448201526064016105b8565b600081815260046020526040808220805460ff191660011790555182917f5152abf959f6564662358c2e52b702259b78bac5ee7842a0f01937e670efcc7d91a2505050565b60005460ff16156137835760405162461bcd60e51b81526020600482015260136024820152721499595b9d1c985b98de4819195d1958dd1959606a1b60448201526064016105b8565b6000805460ff1916600117815560208601516001600160a01b03163314156137f7576137ae86613ef0565b6137f25760405162461bcd60e51b8152602060048201526015602482015274213abc9037b93232b91034b99034b73b30b634b21760591b60448201526064016105b8565b613804565b613801868661414b565b90505b60208401516000906001600160a01b031633141561386f5761382585613ef0565b61386a5760405162461bcd60e51b815260206004820152601660248201527529b2b6361037b93232b91034b99034b73b30b634b21760511b60448201526064016105b8565b61387c565b613879858561414b565b90505b61388687866141a1565b6138d25760405162461bcd60e51b815260206004820152601860248201527f4f7264657273206973206e6f74206d6174636861626c652e000000000000000060448201526064016105b8565b610160850151803b908161391b5760405162461bcd60e51b815260206004820152601060248201526f15185c99d95d081b9bdd08195e1a5cdd60821b60448201526064016105b8565b6101c0890151511561394157613941896101a00151886101a001518b6101c001516143f3565b6101c0870151511561396757613967876101a001518a6101a00151896101c001516143f3565b61397b896101a00151886101a00151614667565b6139bc5760405162461bcd60e51b8152602060048201526012602482015271086c2d8d85ac8c2e8c240dad2e6dac2e8c6d60731b60448201526064016105b8565b600254602088015160405163c455279160e01b81526001600160a01b039182166004820152600092919091169063c45527919060240160206040518083038186803b158015613a0a57600080fd5b505afa158015613a1e573d6000803e3d6000fd5b505050506040513d601f19601f82011682018060405250810190613a4291906151fc565b90506001600160a01b038116613a8c5760405162461bcd60e51b815260206004820152600f60248201526e141c9bde1e481b9bdd08195e1a5cdd608a1b60448201526064016105b8565b600260009054906101000a90046001600160a01b03166001600160a01b03166397204d8e6040518163ffffffff1660e01b815260040160206040518083038186803b158015613ada57600080fd5b505afa158015613aee573d6000803e3d6000fd5b505050506040513d601f19601f82011682018060405250810190613b1291906151fc565b6001600160a01b0316816001600160a01b0316635c60da1b6040518163ffffffff1660e01b815260040160206040518083038186803b158015613b5457600080fd5b505afa158015613b68573d6000803e3d6000fd5b505050506040513d601f19601f82011682018060405250810190613b8c91906151fc565b6001600160a01b031614613be25760405162461bcd60e51b815260206004820152601860248201527f50726f7879206973206e6f7420696d706c656d656e746564000000000000000060448201526064016105b8565b60208a015181906001600160a01b03163314613c12576000868152600460205260409020805460ff191660011790555b88602001516001600160a01b0316336001600160a01b031614613c49576000858152600460205260409020805460ff191660011790555b6000613c558c8b6146cb565b9050816001600160a01b0316631b0f7ba98b61016001518c61018001518d6101a001516040518463ffffffff1660e01b8152600401613c969392919061590e565b602060405180830381600087803b158015613cb057600080fd5b505af1158015613cc4573d6000803e3d6000fd5b505050506040513d601f19601f82011682018060405250810190613ce89190615811565b613d345760405162461bcd60e51b815260206004820152601960248201527f43616e6e6f742063616c6c207468726f7567682070726f78790000000000000060448201526064016105b8565b6101e08c01516001600160a01b031615613dba57613d628c6101e001518b6101a001518e61020001516104f0565b613dba5760405162461bcd60e51b815260206004820152602360248201527f43616e6e6f742065786563757465206275792d73696465207374617469632063604482015262185b1b60ea1b60648201526084016105b8565b6101e08a01516001600160a01b031615613e4057613de88a6101e001518b6101a001518c61020001516104f0565b613e405760405162461bcd60e51b8152602060048201526024808201527f43616e6e6f7420657865637574652073656c6c2d73696465207374617469632060448201526318d85b1b60e21b60648201526084016105b8565b60e08a015188906001600160a01b0316613e5e578a60200151613e64565b8c602001515b60e08c01516001600160a01b039182169116613e84578d60200151613e8a565b8b602001515b604080518b8152602081018b90529081018590526001600160a01b0391909116907fc4109843e0b7d514e4c093114b863f8e7d8d9a458c372cd51bfe526b588006c99060600160405180910390a450506000805460ff1916905550505050505050505050565b80516000906001600160a01b03163014613f0c57506000919050565b613f20826101400151836102a00151614d04565b613f2c57506000919050565b60018261010001516001811115613f5357634e487b7160e01b600052602160045260246000fd5b148015613f7457506006548260a001511080613f7457506007548260c00151105b15613f8157506000919050565b506001919050565b600080613fb8836101200151846101400151856102400151866102600151876102800151886102a0015161401a565b90506000613fe88561012001518661014001518761024001518861026001518961028001518a6102a0015161401a565b905081811015613ff757600080fd5b60e08401516001600160a01b031661400f5780614011565b815b95945050505050565b60008086600181111561403d57634e487b7160e01b600052602160045260246000fd5b141561404a5750836140e2565b600186600181111561406c57634e487b7160e01b600052602160045260246000fd5b14156140e257600061407e8484615a67565b6140888542615a67565b6140929087615a48565b61409c9190615a28565b905060018860018111156140c057634e487b7160e01b600052602160045260246000fd5b14156140d8576140d08187615a67565b9150506140e2565b6140d08187615a10565b9695505050505050565b600081610200015151826101c0015151836101a00151516101b06141109190615a10565b61411a9190615a10565b6131849190615a10565b60601b6bffffffffffffffffffffffff1916815260140190565b6000818353505060010190565b6000806141578461318a565b90506141648185856131e6565b6105815760405162461bcd60e51b815260206004820152600e60248201526d121054d217d393d517d59053125160921b60448201526064016105b8565b60008083610120015160018111156141c957634e487b7160e01b600052602160045260246000fd5b1480156141fa5750600182610120015160018111156141f857634e487b7160e01b600052602160045260246000fd5b145b801561424d5750816101000151600181111561422657634e487b7160e01b600052602160045260246000fd5b836101000151600181111561424b57634e487b7160e01b600052602160045260246000fd5b145b801561427457508161022001516001600160a01b03168361022001516001600160a01b0316145b80156142ae575060408201516001600160a01b031615806142ae575082602001516001600160a01b031682604001516001600160a01b0316145b80156142e8575060408301516001600160a01b031615806142e8575081602001516001600160a01b031683604001516001600160a01b0316145b8015614343575060e08201516001600160a01b0316158015614316575060e08301516001600160a01b031615155b80614343575060e08201516001600160a01b031615801590614343575060e08301516001600160a01b0316155b801561436a57508161016001516001600160a01b03168361016001516001600160a01b0316145b80156143bd5750816101800151600181111561439657634e487b7160e01b600052602160045260246000fd5b83610180015160018111156143bb57634e487b7160e01b600052602160045260246000fd5b145b80156143d857506143d8836102800151846102a00151614d36565b80156105815750610581826102800151836102a00151614d36565b81518351146144445760405162461bcd60e51b815260206004820152601d60248201527f417272617973206861766520646966666572656e74206c656e6774687300000060448201526064016105b8565b80518351146144a35760405162461bcd60e51b815260206004820152602560248201527f417272617920616e64206d61736b206861766520646966666572656e74206c656044820152646e6774687360d81b60648201526084016105b8565b6000602084516144b39190615a28565b905060006144c2826020615a48565b9050816144d0602083615a28565b146144eb57634e487b7160e01b600052600160045260246000fd5b60005b828110156145285780600101602002808501518187015181168289015182191617828901525050808061452090615a7e565b9150506144ee565b8215614555578290508060010160200280850151818701518116828901518219161782890152505061465f565b50805b855181101561465f5784818151811061458157634e487b7160e01b600052603260045260246000fd5b602001015160f81c60f81b8482815181106145ac57634e487b7160e01b600052603260045260246000fd5b602001015160f81c60f81b168682815181106145d857634e487b7160e01b600052603260045260246000fd5b602001015160f81c60f81b85838151811061460357634e487b7160e01b600052603260045260246000fd5b602001015160f81c60f81b60ff60f81b18161786828151811061463657634e487b7160e01b600052603260045260246000fd5b60200101906001600160f81b031916908160001a9053508061465781615a7e565b915050614558565b505050505050565b81518151600091600191811480831461468357600092506146c1565b600160208701838101602088015b6002848385100114156146bc5780518351146146b05760009650600093505b60209283019201614691565b505050505b5090949350505050565b6102208101516000906001600160a01b0316156146ed5734156146ed57600080fd5b60006146f98484613f89565b905060008111801561471857506102208301516001600160a01b031615155b15614736576147368361022001518560200151856020015184614d52565b60e0830151819081906001600160a01b031615614a835785608001518560800151111561476257600080fd5b6001856101000151600181111561478957634e487b7160e01b600052602160045260246000fd5b1415614a55578560c001518560c0015111156147a457600080fd5b60608501511561484b5760006127108487606001516147c39190615a48565b6147cd9190615a28565b6102208701519091506001600160a01b0316614830576147ed8184615a67565b60e08701516040519194506001600160a01b03169082156108fc029083906000818181858888f1935050505015801561482a573d6000803e3d6000fd5b50614849565b61484986610220015187602001518860e0015184614d52565b505b6080850151156148f257600061271084876080015161486a9190615a48565b6148749190615a28565b6102208701519091506001600160a01b03166148d7576148948183615a10565b60e08701516040519193506001600160a01b03169082156108fc029083906000818181858888f193505050501580156148d1573d6000803e3d6000fd5b506148f0565b6148f086610220015188602001518860e0015184614d52565b505b60a0850151156149a1576000612710848760a001516149119190615a48565b61491b9190615a28565b6102208701519091506001600160a01b031661497c5761493b8184615a67565b6008546040519194506001600160a01b03169082156108fc029083906000818181858888f19350505050158015614976573d6000803e3d6000fd5b5061499f565b610220860151602087015160085461499f9291906001600160a01b031684614d52565b505b60c085015115614a50576000612710848760c001516149c09190615a48565b6149ca9190615a28565b6102208701519091506001600160a01b0316614a2b576149ea8183615a10565b6008546040519193506001600160a01b03169082156108fc029083906000818181858888f19350505050158015614a25573d6000803e3d6000fd5b50614a4e565b6102208601516020880151600854614a4e9291906001600160a01b031684614d52565b505b614c48565b614a6c85602001518660e001518760600151614dfd565b614a5086602001518660e001518760800151614dfd565b846080015186608001511115614a9857600080fd5b60018561010001516001811115614abf57634e487b7160e01b600052602160045260246000fd5b1415614c1a576102208501516001600160a01b0316614add57600080fd5b8460c001518660c001511115614af257600080fd5b606086015115614b38576000612710848860600151614b119190615a48565b614b1b9190615a28565b9050614b3686610220015188602001518960e0015184614d52565b505b608086015115614b7e576000612710848860800151614b579190615a48565b614b619190615a28565b9050614b7c86610220015187602001518960e0015184614d52565b505b60a086015115614bcd576000612710848860a00151614b9d9190615a48565b614ba79190615a28565b6102208701516020890151600854929350614bcb926001600160a01b031684614d52565b505b60c086015115614a50576000612710848860c00151614bec9190615a48565b614bf69190615a28565b6102208701516020880151600854929350614a4e926001600160a01b031684614d52565b614c3186602001518760e001518860600151614dfd565b614c4885602001518760e001518860800151614dfd565b6102208501516001600160a01b03166146c15780341015614c6857600080fd5b84602001516001600160a01b03166108fc839081150290604051600060405180830381858888f19350505050158015614ca5573d6000803e3d6000fd5b506000614cb28234615a67565b90508015614cf95786602001516001600160a01b03166108fc829081150290604051600060405180830381858888f19350505050158015614cf7573d6000803e3d6000fd5b505b505090949350505050565b600080836001811115614d2757634e487b7160e01b600052602160045260246000fd5b14806105815750501515919050565b6000428310801561058157508115806105815750504210919050565b8015614df757600354604051630aed65f560e11b81526001600160a01b0386811660048301528581166024830152848116604483015260648201849052909116906315dacbea90608401602060405180830381600087803b158015614db657600080fd5b505af1158015614dca573d6000803e3d6000fd5b505050506040513d601f19601f82011682018060405250810190614dee9190615811565b614df757600080fd5b50505050565b600154614e15906001600160a01b0316848484614d52565b505050565b600082601f830112614e2a578081fd5b6040516101c08082018281106001600160401b0382111715614e4e57614e4e615aaf565b6040528184828101871015614e61578485fd5b8492505b600e831015614e8e578035614e7981615ae6565b82526001929092019160209182019101614e65565b509195945050505050565b600082601f830112614ea9578081fd5b60405160e081018181106001600160401b0382111715614ecb57614ecb615aaf565b604052808360e08101861015614edf578384fd5b835b6007811015614e8e578135614ef581615ae6565b83526020928301929190910190600101614ee1565b600082601f830112614f1a578081fd5b60405160a081018181106001600160401b0382111715614f3c57614f3c615aaf565b604052808360a08101861015614f50578384fd5b835b6005811015614e8e578135835260209283019290910190600101614f52565b600082601f830112614f81578081fd5b6040516102408082018281106001600160401b0382111715614fa557614fa5615aaf565b6040528184828101871015614fb8578485fd5b8492505b6012831015614e8e57803582526001929092019160209182019101614fbc565b600082601f830112614fec578081fd5b6040516101208082018281106001600160401b038211171561501057615010615aaf565b6040528184828101871015615023578485fd5b8492505b6009831015614e8e57803582526001929092019160209182019101615027565b600082601f830112615057578081fd5b604051604081018181106001600160401b038211171561507957615079615aaf565b806040525080838560408601111561508f578384fd5b835b6002811015614e8e576150a3826151cf565b83526020928301929190910190600101615091565b600082601f8301126150c8578081fd5b6040516101008082018281106001600160401b03821117156150ec576150ec615aaf565b60405281848281018710156150ff578485fd5b8492505b6008831015614e8e57615115816151cf565b82526001929092019160209182019101615103565b803561513581615afb565b919050565b600082601f83011261514a578081fd5b81356001600160401b038082111561516457615164615aaf565b604051601f8301601f19908116603f0116810190828211818310171561518c5761518c615aaf565b816040528381528660208588010111156151a4578485fd5b8360208701602083013792830160200193909352509392505050565b80356002811061513557600080fd5b803560ff8116811461513557600080fd5b6000602082840312156151f1578081fd5b813561058181615ae6565b60006020828403121561520d578081fd5b815161058181615ae6565b60008060006060848603121561522c578182fd5b833561523781615ae6565b925060208401356001600160401b0380821115615252578384fd5b61525e8783880161513a565b93506040860135915080821115615273578283fd5b506152808682870161513a565b9150509250925092565b60008060008060008060008060006105c08a8c0312156152a8578687fd5b6152b28b8b614e1a565b98506152c28b6101c08c01614f71565b97506152d28b6104008c016150b8565b96506105008a01356001600160401b03808211156152ee578687fd5b6152fa8d838e0161513a565b97506105208c0135915080821115615310578687fd5b61531c8d838e0161513a565b96506105408c0135915080821115615332578586fd5b61533e8d838e0161513a565b95506105608c0135915080821115615354578485fd5b6153608d838e0161513a565b94506105808c0135915080821115615376578384fd5b6153828d838e0161513a565b93506105a08c0135915080821115615398578283fd5b506153a58c828d0161513a565b9150509295985092959850929598565b60008060008060008060008060008060006106a08c8e0312156153d6578485fd5b6153e08d8d614e1a565b9a506153f08d6101c08e01614f71565b99506154008d6104008e016150b8565b98506001600160401b03806105008e0135111561541b578586fd5b61542c8e6105008f01358f0161513a565b9850806105208e0135111561543f578586fd5b6154508e6105208f01358f0161513a565b9750806105408e01351115615463578586fd5b6154748e6105408f01358f0161513a565b9650806105608e01351115615487578586fd5b6154988e6105608f01358f0161513a565b9550806105808e013511156154ab578283fd5b6154bc8e6105808f01358f0161513a565b9450806105a08e013511156154cf578283fd5b506154e18d6105a08e01358e0161513a565b92506154f18d6105c08e01615047565b91506155018d6106008e01614f0a565b90509295989b509295989b9093969950565b60008060008060008060008060006102e08a8c031215615531578283fd5b61553b8b8b614e99565b985061554a8b60e08c01614fdc565b97506155596102008b016151c0565b96506155686102208b016151c0565b95506155776102408b016151c0565b94506155866102608b016151c0565b93506102808a01356001600160401b03808211156155a2578485fd5b6155ae8d838e0161513a565b94506102a08c01359150808211156155c4578384fd5b6155d08d838e0161513a565b93506102c08c0135915080821115615398578283fd5b6000806000806000806000806000806103008b8d031215615605578384fd5b61560f8c8c614e99565b995061561e8c60e08d01614fdc565b985061562d6102008c016151c0565b975061563c6102208c016151c0565b965061564b6102408c016151c0565b955061565a6102608c016151c0565b94506102808b01356001600160401b0380821115615676578586fd5b6156828e838f0161513a565b95506102a08d0135915080821115615698578485fd5b6156a48e838f0161513a565b94506102c08d01359150808211156156ba578384fd5b506156c78d828e0161513a565b9250506156d76102e08c0161512a565b90509295989b9194979a5092959850565b6000806000806000806000806000806000806103408d8f03121561570a578586fd5b6157148e8e614e99565b9b506157238e60e08f01614fdc565b9a506157326102008e016151c0565b99506157416102208e016151c0565b98506157506102408e016151c0565b975061575f6102608e016151c0565b96506001600160401b036102808e01351115615779578586fd5b61578a8e6102808f01358f0161513a565b95506001600160401b036102a08e013511156157a4578081fd5b6157b58e6102a08f01358f0161513a565b94506001600160401b036102c08e013511156157cf578081fd5b6157e08e6102c08f01358f0161513a565b93506157ef6102e08e016151cf565b92506103008d013591506103208d013590509295989b509295989b509295989b565b600060208284031215615822578081fd5b815161058181615afb565b60006020828403121561583e578081fd5b5035919050565b60008151808452815b8181101561586a5760208185018101518683018201520161584e565b8181111561587b5782602083870101525b50601f01601f19169290920160200192915050565b6001600160a01b038b811682528a81166020830152604082018a9052606082018990526080820188905260a082018790526101408201906158d087615ac5565b8660c08401526158df86615ac5565b8560e08401526158ee85615ac5565b84610100840152808416610120840152509b9a5050505050505050505050565b6001600160a01b038416815261592383615ac5565b8260208201526060604082015260006140116060830184615845565b600061018061594d8f615ac5565b8e83528060208401526159628184018f615845565b90508281036040840152615976818e615845565b6001600160a01b038d81166060860152848203608086015290915061599b828d615845565b9a1660a0840152505060c081019690965260e086019490945261010085019290925261012084015261014083015215156101609091015295945050505050565b6020808252818101527f4f776e61626c653a2063616c6c6572206973206e6f7420746865206f776e6572604082015260600190565b60008219821115615a2357615a23615a99565b500190565b600082615a4357634e487b7160e01b81526012600452602481fd5b500490565b6000816000190483118215151615615a6257615a62615a99565b500290565b600082821015615a7957615a79615a99565b500390565b6000600019821415615a9257615a92615a99565b5060010190565b634e487b7160e01b600052601160045260246000fd5b634e487b7160e01b600052604160045260246000fd5b60028110615ae357634e487b7160e01b600052602160045260246000fd5b50565b6001600160a01b0381168114615ae357600080fd5b8015158114615ae357600080fdfea2646970667358221220dbd81a8bf6cd1190e739ba20e3b97a2b8797ec713659d1a82c244ee67491b77564736f6c63430008040033",
  "immutableReferences": {},
  "source": "// SPDX-License-Identifier: UNLICENSED\n\n/*\n  \n  Exchange contract. This is an outer contract with public or convenience functions and includes no state-modifying functions.\n \n*/\n\npragma solidity 0.8.4;\n\nimport \"./ExchangeCore.sol\";\n\n/**\n * @title Exchange\n */\ncontract Exchange is ExchangeCore {\n    /**\n     * @dev Call hashOrder - Solidity ABI encoding limitation workaround, hopefully temporary.\n     */\n    function hashOrder_(\n        address[7] memory addrs,\n        uint[9] memory uints,\n        FeeMethod feeMethod,\n        SaleKindInterface.Side side,\n        SaleKindInterface.SaleKind saleKind,\n        AuthenticatedProxy.HowToCall howToCall,\n        bytes memory callData,\n        bytes memory replacementPattern,\n        bytes memory staticExtradata)\n        public\n        pure\n        returns (bytes32)\n    {\n        return hashOrder(\n          Order(addrs[0], addrs[1], addrs[2], uints[0], uints[1], uints[2], uints[3], addrs[3], feeMethod, side, saleKind, addrs[4], howToCall, callData, replacementPattern, addrs[5], staticExtradata, address(ERC20(addrs[6])), uints[4], uints[5], uints[6], uints[7], uints[8])\n        );\n    }\n\n    /**\n     * @dev Call hashToSign - Solidity ABI encoding limitation workaround, hopefully temporary.\n     */\n    function hashToSign_(\n        address[7] memory addrs,\n        uint[9] memory uints,\n        FeeMethod feeMethod,\n        SaleKindInterface.Side side,\n        SaleKindInterface.SaleKind saleKind,\n        AuthenticatedProxy.HowToCall howToCall,\n        bytes memory callData,\n        bytes memory replacementPattern,\n        bytes memory staticExtradata)\n        public\n        pure\n        returns (bytes32)\n    { \n        return hashToSign(\n          Order(addrs[0], addrs[1], addrs[2], uints[0], uints[1], uints[2], uints[3], addrs[3], feeMethod, side, saleKind, addrs[4], howToCall, callData, replacementPattern, addrs[5], staticExtradata, address(ERC20(addrs[6])), uints[4], uints[5], uints[6], uints[7], uints[8])\n        );\n    }\n\n    /**\n     * @dev Call validateOrderParameters - Solidity ABI encoding limitation workaround, hopefully temporary.\n     */\n    function validateOrderParameters_ (\n        address[7] memory addrs,\n        uint[9] memory uints,\n        FeeMethod feeMethod,\n        SaleKindInterface.Side side,\n        SaleKindInterface.SaleKind saleKind,\n        AuthenticatedProxy.HowToCall howToCall,\n        bytes memory callData,\n        bytes memory replacementPattern,\n        bytes memory staticExtradata)\n        view\n        public\n        returns (bool)\n    {\n        Order memory order = Order(addrs[0], addrs[1], addrs[2], uints[0], uints[1], uints[2], uints[3], addrs[3], feeMethod, side, saleKind, addrs[4], howToCall, callData, replacementPattern, addrs[5], staticExtradata, address(ERC20(addrs[6])), uints[4], uints[5], uints[6], uints[7], uints[8]);\n        return validateOrderParameters(\n          order\n        );\n    }\n\n    /**\n     * @dev Call validateOrder - Solidity ABI encoding limitation workaround, hopefully temporary.\n     */\n    function validateOrder_ (\n        address[7] memory addrs,\n        uint[9] memory uints,\n        FeeMethod feeMethod,\n        SaleKindInterface.Side side,\n        SaleKindInterface.SaleKind saleKind,\n        AuthenticatedProxy.HowToCall howToCall,\n        bytes memory callData,\n        bytes memory replacementPattern,\n        bytes memory staticExtradata,\n        uint8 v,\n        bytes32 r,\n        bytes32 s)\n        view\n        public\n        returns (bool)\n    {\n        Order memory order = Order(addrs[0], addrs[1], addrs[2], uints[0], uints[1], uints[2], uints[3], addrs[3], feeMethod, side, saleKind, addrs[4], howToCall, callData, replacementPattern, addrs[5], staticExtradata, address(ERC20(addrs[6])), uints[4], uints[5], uints[6], uints[7], uints[8]);\n        return validateOrder(\n          hashToSign(order),\n          order,\n          Sig(v, r, s)\n        );\n    }\n\n    /**\n     * @dev Call approveOrder - Solidity ABI encoding limitation workaround, hopefully temporary.\n     */\n    function approveOrder_ (\n        address[7] memory addrs,\n        uint[9] memory uints,\n        FeeMethod feeMethod,\n        SaleKindInterface.Side side,\n        SaleKindInterface.SaleKind saleKind,\n        AuthenticatedProxy.HowToCall howToCall,\n        bytes memory callData,\n        bytes memory replacementPattern,\n        bytes memory staticExtradata,\n        bool orderbookInclusionDesired)\n        public\n    {\n        Order memory order = Order(addrs[0], addrs[1], addrs[2], uints[0], uints[1], uints[2], uints[3], addrs[3], feeMethod, side, saleKind, addrs[4], howToCall, callData, replacementPattern, addrs[5], staticExtradata, address(ERC20(addrs[6])), uints[4], uints[5], uints[6], uints[7], uints[8]);\n        return approveOrder(order, orderbookInclusionDesired);\n    }\n\n    /**\n     * @dev Call cancelOrder - Solidity ABI encoding limitation workaround, hopefully temporary.\n     */\n    function cancelOrder_(\n        address[7] memory addrs,\n        uint[9] memory uints,\n        FeeMethod feeMethod,\n        SaleKindInterface.Side side,\n        SaleKindInterface.SaleKind saleKind,\n        AuthenticatedProxy.HowToCall howToCall,\n        bytes memory callData,\n        bytes memory replacementPattern,\n        bytes memory staticExtradata,\n        uint8 v,\n        bytes32 r,\n        bytes32 s)\n        public\n    {\n\n        return cancelOrder(\n          Order(addrs[0], addrs[1], addrs[2], uints[0], uints[1], uints[2], uints[3], addrs[3], feeMethod, side, saleKind, addrs[4], howToCall, callData, replacementPattern, addrs[5], staticExtradata, address(ERC20(addrs[6])), uints[4], uints[5], uints[6], uints[7], uints[8]),\n          Sig(v, r, s)\n        );\n    }\n\n    /**\n     * @dev Call calculateCurrentPrice - Solidity ABI encoding limitation workaround, hopefully temporary.\n     */\n    function calculateCurrentPrice_(\n        address[7] memory addrs,\n        uint[9] memory uints,\n        FeeMethod feeMethod,\n        SaleKindInterface.Side side,\n        SaleKindInterface.SaleKind saleKind,\n        AuthenticatedProxy.HowToCall howToCall,\n        bytes memory callData,\n        bytes memory replacementPattern,\n        bytes memory staticExtradata)\n        public\n        view\n        returns (uint)\n    {\n        return calculateCurrentPrice(\n          Order(addrs[0], addrs[1], addrs[2], uints[0], uints[1], uints[2], uints[3], addrs[3], feeMethod, side, saleKind, addrs[4], howToCall, callData, replacementPattern, addrs[5], staticExtradata, address(ERC20(addrs[6])), uints[4], uints[5], uints[6], uints[7], uints[8])\n        );\n    }\n\n    /**\n     * @dev Call calculateMatchPrice - Solidity ABI encoding limitation workaround, hopefully temporary.\n     */\n    function calculateMatchPrice_(\n        address[14] memory addrs,\n        uint[18] memory uints,\n        uint8[8] memory feeMethodsSidesKindsHowToCalls,\n        bytes memory callDataBuy,\n        bytes memory callDataSell,\n        bytes memory replacementPatternBuy,\n        bytes memory replacementPatternSell,\n        bytes memory staticExtradataBuy,\n        bytes memory staticExtradataSell)\n        public\n        view\n        returns (uint)\n    {\n        Order memory buy = Order(addrs[0], addrs[1], addrs[2], uints[0], uints[1], uints[2], uints[3], addrs[3], FeeMethod(feeMethodsSidesKindsHowToCalls[0]), SaleKindInterface.Side(feeMethodsSidesKindsHowToCalls[1]), SaleKindInterface.SaleKind(feeMethodsSidesKindsHowToCalls[2]), addrs[4], AuthenticatedProxy.HowToCall(feeMethodsSidesKindsHowToCalls[3]), callDataBuy, replacementPatternBuy, addrs[5], staticExtradataBuy, address(ERC20(addrs[6])), uints[4], uints[5], uints[6], uints[7], uints[8]);\n        Order memory sell = Order(addrs[7], addrs[8], addrs[9], uints[9], uints[10], uints[11], uints[12], addrs[10], FeeMethod(feeMethodsSidesKindsHowToCalls[4]), SaleKindInterface.Side(feeMethodsSidesKindsHowToCalls[5]), SaleKindInterface.SaleKind(feeMethodsSidesKindsHowToCalls[6]), addrs[11], AuthenticatedProxy.HowToCall(feeMethodsSidesKindsHowToCalls[7]), callDataSell, replacementPatternSell, addrs[12], staticExtradataSell, address(ERC20(addrs[13])), uints[13], uints[14], uints[15], uints[16], uints[17]);\n        return calculateMatchPrice(\n          buy,\n          sell\n        );\n    }\n\n    /**\n     * @dev Call atomicMatch - Solidity ABI encoding limitation workaround, hopefully temporary.\n     */\n    function atomicMatch_(\n        address[14] memory addrs,\n        uint[18] memory uints,\n        uint8[8] memory feeMethodsSidesKindsHowToCalls,\n        bytes memory callDataBuy,\n        bytes memory callDataSell,\n        bytes memory replacementPatternBuy,\n        bytes memory replacementPatternSell,\n        bytes memory staticExtradataBuy,\n        bytes memory staticExtradataSell,\n        uint8[2] memory vs,\n        bytes32[5] memory rssMetadata)\n        public\n        payable\n    {\n\n        return atomicMatch(\n          Order(addrs[0], addrs[1], addrs[2], uints[0], uints[1], uints[2], uints[3], addrs[3], FeeMethod(feeMethodsSidesKindsHowToCalls[0]), SaleKindInterface.Side(feeMethodsSidesKindsHowToCalls[1]), SaleKindInterface.SaleKind(feeMethodsSidesKindsHowToCalls[2]), addrs[4], AuthenticatedProxy.HowToCall(feeMethodsSidesKindsHowToCalls[3]), callDataBuy, replacementPatternBuy, addrs[5], staticExtradataBuy, address(ERC20(addrs[6])), uints[4], uints[5], uints[6], uints[7], uints[8]),\n          Sig(vs[0], rssMetadata[0], rssMetadata[1]),\n          Order(addrs[7], addrs[8], addrs[9], uints[9], uints[10], uints[11], uints[12], addrs[10], FeeMethod(feeMethodsSidesKindsHowToCalls[4]), SaleKindInterface.Side(feeMethodsSidesKindsHowToCalls[5]), SaleKindInterface.SaleKind(feeMethodsSidesKindsHowToCalls[6]), addrs[11], AuthenticatedProxy.HowToCall(feeMethodsSidesKindsHowToCalls[7]), callDataSell, replacementPatternSell, addrs[12], staticExtradataSell, address(ERC20(addrs[13])), uints[13], uints[14], uints[15], uints[16], uints[17]),\n          Sig(vs[1], rssMetadata[2], rssMetadata[3]),\n          rssMetadata[4]\n        );\n    }\n\n}\n",
  "sourcePath": "/home/toor/nodejs/truffle/nft_demo/taureum/taureum-nft-protocol-sc/contracts/exchange/Exchange.sol",
  "compiler": {
    "name": "solc",
    "version": "0.8.4+commit.c7e474f2.Emscripten.clang"
  },
  "schemaVersion": "3.4.1",
  "updatedAt": "2021-08-29T07:45:48.622Z",
  "devdoc": {
    "kind": "dev",
    "methods": {
      "approveOrder_(address[7],uint256[9],uint8,uint8,uint8,uint8,bytes,bytes,bytes,bool)": {
        "details": "Call approveOrder - Solidity ABI encoding limitation workaround, hopefully temporary."
      },
      "atomicMatch_(address[14],uint256[18],uint8[8],bytes,bytes,bytes,bytes,bytes,bytes,uint8[2],bytes32[5])": {
        "details": "Call atomicMatch - Solidity ABI encoding limitation workaround, hopefully temporary."
      },
      "calculateCurrentPrice_(address[7],uint256[9],uint8,uint8,uint8,uint8,bytes,bytes,bytes)": {
        "details": "Call calculateCurrentPrice - Solidity ABI encoding limitation workaround, hopefully temporary."
      },
      "calculateMatchPrice_(address[14],uint256[18],uint8[8],bytes,bytes,bytes,bytes,bytes,bytes)": {
        "details": "Call calculateMatchPrice - Solidity ABI encoding limitation workaround, hopefully temporary."
      },
      "cancelOrder_(address[7],uint256[9],uint8,uint8,uint8,uint8,bytes,bytes,bytes,uint8,bytes32,bytes32)": {
        "details": "Call cancelOrder - Solidity ABI encoding limitation workaround, hopefully temporary."
      },
      "changeMinimumMakerProtocolFee(uint256)": {
        "details": "Change the minimum maker fee paid to the protocol (owner only)",
        "params": {
          "newMinimumMakerProtocolFee": "New fee to set in basis points"
        }
      },
      "changeMinimumTakerProtocolFee(uint256)": {
        "details": "Change the minimum taker fee paid to the protocol (owner only)",
        "params": {
          "newMinimumTakerProtocolFee": "New fee to set in basis points"
        }
      },
      "changeProtocolFeeRecipient(address)": {
        "details": "Change the protocol fee recipient (owner only)",
        "params": {
          "newProtocolFeeRecipient": "New protocol fee recipient address"
        }
      },
      "changeProtocolFeeTokenAddress(address)": {
        "details": "Change the protocol fee token address (owner only)",
        "params": {
          "newTokenAddress": "New protocol fee token address"
        }
      },
      "hashOrder_(address[7],uint256[9],uint8,uint8,uint8,uint8,bytes,bytes,bytes)": {
        "details": "Call hashOrder - Solidity ABI encoding limitation workaround, hopefully temporary."
      },
      "hashToSign_(address[7],uint256[9],uint8,uint8,uint8,uint8,bytes,bytes,bytes)": {
        "details": "Call hashToSign - Solidity ABI encoding limitation workaround, hopefully temporary."
      },
      "owner()": {
        "details": "Returns the address of the current owner."
      },
      "renounceOwnership()": {
        "details": "Leaves the contract without owner. It will not be possible to call `onlyOwner` functions anymore. Can only be called by the current owner. NOTE: Renouncing ownership will leave the contract without an owner, thereby removing any functionality that is only available to the owner."
      },
      "staticCall(address,bytes,bytes)": {
        "details": "Execute a STATICCALL (introduced with Ethereum Metropolis, non-state-modifying external call)",
        "params": {
          "callData": "Calldata (appended to extradata)",
          "extradata": "Base data for STATICCALL (probably function selector and argument encoding)",
          "target": "Contract to call"
        },
        "returns": {
          "result": "of the call (success or failure)"
        }
      },
      "transferOwnership(address)": {
        "details": "Transfers ownership of the contract to a new account (`newOwner`). Can only be called by the current owner."
      },
      "validateOrderParameters_(address[7],uint256[9],uint8,uint8,uint8,uint8,bytes,bytes,bytes)": {
        "details": "Call validateOrderParameters - Solidity ABI encoding limitation workaround, hopefully temporary."
      },
      "validateOrder_(address[7],uint256[9],uint8,uint8,uint8,uint8,bytes,bytes,bytes,uint8,bytes32,bytes32)": {
        "details": "Call validateOrder - Solidity ABI encoding limitation workaround, hopefully temporary."
      }
    },
    "title": "Exchange",
    "version": 1
  },
  "userdoc": {
    "kind": "user",
    "methods": {},
    "version": 1
  }
}