{
  "contractName": "Exchange",
  "abi": [
    {
      "anonymous": false,
      "inputs": [
        {
          "indexed": true,
          "internalType": "bytes32",
          "name": "hash",
          "type": "bytes32"
        },
        {
          "indexed": false,
          "internalType": "address",
          "name": "exchange",
          "type": "address"
        },
        {
          "indexed": true,
          "internalType": "address",
          "name": "maker",
          "type": "address"
        },
        {
          "indexed": false,
          "internalType": "address",
          "name": "taker",
          "type": "address"
        },
        {
          "indexed": false,
          "internalType": "uint256",
          "name": "makerRelayerFee",
          "type": "uint256"
        },
        {
          "indexed": false,
          "internalType": "uint256",
          "name": "takerRelayerFee",
          "type": "uint256"
        },
        {
          "indexed": false,
          "internalType": "uint256",
          "name": "makerProtocolFee",
          "type": "uint256"
        },
        {
          "indexed": false,
          "internalType": "uint256",
          "name": "takerProtocolFee",
          "type": "uint256"
        },
        {
          "indexed": true,
          "internalType": "address",
          "name": "feeRecipient",
          "type": "address"
        },
        {
          "indexed": false,
          "internalType": "enum ExchangeCore.FeeMethod",
          "name": "feeMethod",
          "type": "uint8"
        },
        {
          "indexed": false,
          "internalType": "enum SaleKindInterface.Side",
          "name": "side",
          "type": "uint8"
        },
        {
          "indexed": false,
          "internalType": "enum SaleKindInterface.SaleKind",
          "name": "saleKind",
          "type": "uint8"
        },
        {
          "indexed": false,
          "internalType": "address",
          "name": "target",
          "type": "address"
        }
      ],
      "name": "OrderApprovedPartOne",
      "type": "event"
    },
    {
      "anonymous": false,
      "inputs": [
        {
          "indexed": true,
          "internalType": "bytes32",
          "name": "hash",
          "type": "bytes32"
        },
        {
          "indexed": false,
          "internalType": "enum AuthenticatedProxy.HowToCall",
          "name": "howToCall",
          "type": "uint8"
        },
        {
          "indexed": false,
          "internalType": "bytes",
          "name": "callData",
          "type": "bytes"
        },
        {
          "indexed": false,
          "internalType": "bytes",
          "name": "replacementPattern",
          "type": "bytes"
        },
        {
          "indexed": false,
          "internalType": "address",
          "name": "staticTarget",
          "type": "address"
        },
        {
          "indexed": false,
          "internalType": "bytes",
          "name": "staticExtradata",
          "type": "bytes"
        },
        {
          "indexed": false,
          "internalType": "address",
          "name": "paymentToken",
          "type": "address"
        },
        {
          "indexed": false,
          "internalType": "uint256",
          "name": "basePrice",
          "type": "uint256"
        },
        {
          "indexed": false,
          "internalType": "uint256",
          "name": "extra",
          "type": "uint256"
        },
        {
          "indexed": false,
          "internalType": "uint256",
          "name": "listingTime",
          "type": "uint256"
        },
        {
          "indexed": false,
          "internalType": "uint256",
          "name": "expirationTime",
          "type": "uint256"
        },
        {
          "indexed": false,
          "internalType": "uint256",
          "name": "salt",
          "type": "uint256"
        },
        {
          "indexed": false,
          "internalType": "bool",
          "name": "orderbookInclusionDesired",
          "type": "bool"
        }
      ],
      "name": "OrderApprovedPartTwo",
      "type": "event"
    },
    {
      "anonymous": false,
      "inputs": [
        {
          "indexed": true,
          "internalType": "bytes32",
          "name": "hash",
          "type": "bytes32"
        }
      ],
      "name": "OrderCancelled",
      "type": "event"
    },
    {
      "anonymous": false,
      "inputs": [
        {
          "indexed": false,
          "internalType": "bytes32",
          "name": "buyHash",
          "type": "bytes32"
        },
        {
          "indexed": false,
          "internalType": "bytes32",
          "name": "sellHash",
          "type": "bytes32"
        },
        {
          "indexed": true,
          "internalType": "address",
          "name": "maker",
          "type": "address"
        },
        {
          "indexed": true,
          "internalType": "address",
          "name": "taker",
          "type": "address"
        },
        {
          "indexed": false,
          "internalType": "uint256",
          "name": "price",
          "type": "uint256"
        },
        {
          "indexed": true,
          "internalType": "bytes32",
          "name": "metadata",
          "type": "bytes32"
        }
      ],
      "name": "OrdersMatched",
      "type": "event"
    },
    {
      "anonymous": false,
      "inputs": [
        {
          "indexed": true,
          "internalType": "address",
          "name": "previousOwner",
          "type": "address"
        },
        {
          "indexed": true,
          "internalType": "address",
          "name": "newOwner",
          "type": "address"
        }
      ],
      "name": "OwnershipTransferred",
      "type": "event"
    },
    {
      "inputs": [],
      "name": "INVERSE_BASIS_POINT",
      "outputs": [
        {
          "internalType": "uint256",
          "name": "",
          "type": "uint256"
        }
      ],
      "stateMutability": "view",
      "type": "function"
    },
    {
      "inputs": [
        {
          "internalType": "bytes32",
          "name": "",
          "type": "bytes32"
        }
      ],
      "name": "approvedOrders",
      "outputs": [
        {
          "internalType": "bool",
          "name": "",
          "type": "bool"
        }
      ],
      "stateMutability": "view",
      "type": "function"
    },
    {
      "inputs": [
        {
          "internalType": "bytes32",
          "name": "",
          "type": "bytes32"
        }
      ],
      "name": "cancelledOrFinalized",
      "outputs": [
        {
          "internalType": "bool",
          "name": "",
          "type": "bool"
        }
      ],
      "stateMutability": "view",
      "type": "function"
    },
    {
      "inputs": [
        {
          "internalType": "uint256",
          "name": "newMinimumMakerProtocolFee",
          "type": "uint256"
        }
      ],
      "name": "changeMinimumMakerProtocolFee",
      "outputs": [],
      "stateMutability": "nonpayable",
      "type": "function"
    },
    {
      "inputs": [
        {
          "internalType": "uint256",
          "name": "newMinimumTakerProtocolFee",
          "type": "uint256"
        }
      ],
      "name": "changeMinimumTakerProtocolFee",
      "outputs": [],
      "stateMutability": "nonpayable",
      "type": "function"
    },
    {
      "inputs": [
        {
          "internalType": "address",
          "name": "newProtocolFeeRecipient",
          "type": "address"
        }
      ],
      "name": "changeProtocolFeeRecipient",
      "outputs": [],
      "stateMutability": "nonpayable",
      "type": "function"
    },
    {
      "inputs": [],
      "name": "exchangeToken",
      "outputs": [
        {
          "internalType": "contract ERC20",
          "name": "",
          "type": "address"
        }
      ],
      "stateMutability": "view",
      "type": "function"
    },
    {
      "inputs": [],
      "name": "minimumMakerProtocolFee",
      "outputs": [
        {
          "internalType": "uint256",
          "name": "",
          "type": "uint256"
        }
      ],
      "stateMutability": "view",
      "type": "function"
    },
    {
      "inputs": [],
      "name": "minimumTakerProtocolFee",
      "outputs": [
        {
          "internalType": "uint256",
          "name": "",
          "type": "uint256"
        }
      ],
      "stateMutability": "view",
      "type": "function"
    },
    {
      "inputs": [],
      "name": "owner",
      "outputs": [
        {
          "internalType": "address",
          "name": "",
          "type": "address"
        }
      ],
      "stateMutability": "view",
      "type": "function"
    },
    {
      "inputs": [],
      "name": "protocolFeeRecipient",
      "outputs": [
        {
          "internalType": "address",
          "name": "",
          "type": "address"
        }
      ],
      "stateMutability": "view",
      "type": "function"
    },
    {
      "inputs": [],
      "name": "registry",
      "outputs": [
        {
          "internalType": "contract ProxyRegistry",
          "name": "",
          "type": "address"
        }
      ],
      "stateMutability": "view",
      "type": "function"
    },
    {
      "inputs": [],
      "name": "renounceOwnership",
      "outputs": [],
      "stateMutability": "nonpayable",
      "type": "function"
    },
    {
      "inputs": [
        {
          "internalType": "address",
          "name": "target",
          "type": "address"
        },
        {
          "internalType": "bytes",
          "name": "callData",
          "type": "bytes"
        },
        {
          "internalType": "bytes",
          "name": "extradata",
          "type": "bytes"
        }
      ],
      "name": "staticCall",
      "outputs": [
        {
          "internalType": "bool",
          "name": "result",
          "type": "bool"
        }
      ],
      "stateMutability": "view",
      "type": "function"
    },
    {
      "inputs": [],
      "name": "tokenTransferProxy",
      "outputs": [
        {
          "internalType": "contract TokenTransferProxy",
          "name": "",
          "type": "address"
        }
      ],
      "stateMutability": "view",
      "type": "function"
    },
    {
      "inputs": [
        {
          "internalType": "address",
          "name": "newOwner",
          "type": "address"
        }
      ],
      "name": "transferOwnership",
      "outputs": [],
      "stateMutability": "nonpayable",
      "type": "function"
    },
    {
      "inputs": [
        {
          "internalType": "address[7]",
          "name": "addrs",
          "type": "address[7]"
        },
        {
          "internalType": "uint256[9]",
          "name": "uints",
          "type": "uint256[9]"
        },
        {
          "internalType": "enum ExchangeCore.FeeMethod",
          "name": "feeMethod",
          "type": "uint8"
        },
        {
          "internalType": "enum SaleKindInterface.Side",
          "name": "side",
          "type": "uint8"
        },
        {
          "internalType": "enum SaleKindInterface.SaleKind",
          "name": "saleKind",
          "type": "uint8"
        },
        {
          "internalType": "enum AuthenticatedProxy.HowToCall",
          "name": "howToCall",
          "type": "uint8"
        },
        {
          "internalType": "bytes",
          "name": "callData",
          "type": "bytes"
        },
        {
          "internalType": "bytes",
          "name": "replacementPattern",
          "type": "bytes"
        },
        {
          "internalType": "bytes",
          "name": "staticExtradata",
          "type": "bytes"
        }
      ],
      "name": "hashOrder_",
      "outputs": [
        {
          "internalType": "bytes32",
          "name": "",
          "type": "bytes32"
        }
      ],
      "stateMutability": "pure",
      "type": "function"
    },
    {
      "inputs": [
        {
          "internalType": "address[7]",
          "name": "addrs",
          "type": "address[7]"
        },
        {
          "internalType": "uint256[9]",
          "name": "uints",
          "type": "uint256[9]"
        },
        {
          "internalType": "enum ExchangeCore.FeeMethod",
          "name": "feeMethod",
          "type": "uint8"
        },
        {
          "internalType": "enum SaleKindInterface.Side",
          "name": "side",
          "type": "uint8"
        },
        {
          "internalType": "enum SaleKindInterface.SaleKind",
          "name": "saleKind",
          "type": "uint8"
        },
        {
          "internalType": "enum AuthenticatedProxy.HowToCall",
          "name": "howToCall",
          "type": "uint8"
        },
        {
          "internalType": "bytes",
          "name": "callData",
          "type": "bytes"
        },
        {
          "internalType": "bytes",
          "name": "replacementPattern",
          "type": "bytes"
        },
        {
          "internalType": "bytes",
          "name": "staticExtradata",
          "type": "bytes"
        }
      ],
      "name": "hashToSign_",
      "outputs": [
        {
          "internalType": "bytes32",
          "name": "",
          "type": "bytes32"
        }
      ],
      "stateMutability": "pure",
      "type": "function"
    },
    {
      "inputs": [
        {
          "internalType": "address[7]",
          "name": "addrs",
          "type": "address[7]"
        },
        {
          "internalType": "uint256[9]",
          "name": "uints",
          "type": "uint256[9]"
        },
        {
          "internalType": "enum ExchangeCore.FeeMethod",
          "name": "feeMethod",
          "type": "uint8"
        },
        {
          "internalType": "enum SaleKindInterface.Side",
          "name": "side",
          "type": "uint8"
        },
        {
          "internalType": "enum SaleKindInterface.SaleKind",
          "name": "saleKind",
          "type": "uint8"
        },
        {
          "internalType": "enum AuthenticatedProxy.HowToCall",
          "name": "howToCall",
          "type": "uint8"
        },
        {
          "internalType": "bytes",
          "name": "callData",
          "type": "bytes"
        },
        {
          "internalType": "bytes",
          "name": "replacementPattern",
          "type": "bytes"
        },
        {
          "internalType": "bytes",
          "name": "staticExtradata",
          "type": "bytes"
        }
      ],
      "name": "validateOrderParameters_",
      "outputs": [
        {
          "internalType": "bool",
          "name": "",
          "type": "bool"
        }
      ],
      "stateMutability": "view",
      "type": "function"
    },
    {
      "inputs": [
        {
          "internalType": "address[7]",
          "name": "addrs",
          "type": "address[7]"
        },
        {
          "internalType": "uint256[9]",
          "name": "uints",
          "type": "uint256[9]"
        },
        {
          "internalType": "enum ExchangeCore.FeeMethod",
          "name": "feeMethod",
          "type": "uint8"
        },
        {
          "internalType": "enum SaleKindInterface.Side",
          "name": "side",
          "type": "uint8"
        },
        {
          "internalType": "enum SaleKindInterface.SaleKind",
          "name": "saleKind",
          "type": "uint8"
        },
        {
          "internalType": "enum AuthenticatedProxy.HowToCall",
          "name": "howToCall",
          "type": "uint8"
        },
        {
          "internalType": "bytes",
          "name": "callData",
          "type": "bytes"
        },
        {
          "internalType": "bytes",
          "name": "replacementPattern",
          "type": "bytes"
        },
        {
          "internalType": "bytes",
          "name": "staticExtradata",
          "type": "bytes"
        },
        {
          "internalType": "uint8",
          "name": "v",
          "type": "uint8"
        },
        {
          "internalType": "bytes32",
          "name": "r",
          "type": "bytes32"
        },
        {
          "internalType": "bytes32",
          "name": "s",
          "type": "bytes32"
        }
      ],
      "name": "validateOrder_",
      "outputs": [
        {
          "internalType": "bool",
          "name": "",
          "type": "bool"
        }
      ],
      "stateMutability": "view",
      "type": "function"
    },
    {
      "inputs": [
        {
          "internalType": "address[7]",
          "name": "addrs",
          "type": "address[7]"
        },
        {
          "internalType": "uint256[9]",
          "name": "uints",
          "type": "uint256[9]"
        },
        {
          "internalType": "enum ExchangeCore.FeeMethod",
          "name": "feeMethod",
          "type": "uint8"
        },
        {
          "internalType": "enum SaleKindInterface.Side",
          "name": "side",
          "type": "uint8"
        },
        {
          "internalType": "enum SaleKindInterface.SaleKind",
          "name": "saleKind",
          "type": "uint8"
        },
        {
          "internalType": "enum AuthenticatedProxy.HowToCall",
          "name": "howToCall",
          "type": "uint8"
        },
        {
          "internalType": "bytes",
          "name": "callData",
          "type": "bytes"
        },
        {
          "internalType": "bytes",
          "name": "replacementPattern",
          "type": "bytes"
        },
        {
          "internalType": "bytes",
          "name": "staticExtradata",
          "type": "bytes"
        },
        {
          "internalType": "bool",
          "name": "orderbookInclusionDesired",
          "type": "bool"
        }
      ],
      "name": "approveOrder_",
      "outputs": [],
      "stateMutability": "nonpayable",
      "type": "function"
    },
    {
      "inputs": [
        {
          "internalType": "address[7]",
          "name": "addrs",
          "type": "address[7]"
        },
        {
          "internalType": "uint256[9]",
          "name": "uints",
          "type": "uint256[9]"
        },
        {
          "internalType": "enum ExchangeCore.FeeMethod",
          "name": "feeMethod",
          "type": "uint8"
        },
        {
          "internalType": "enum SaleKindInterface.Side",
          "name": "side",
          "type": "uint8"
        },
        {
          "internalType": "enum SaleKindInterface.SaleKind",
          "name": "saleKind",
          "type": "uint8"
        },
        {
          "internalType": "enum AuthenticatedProxy.HowToCall",
          "name": "howToCall",
          "type": "uint8"
        },
        {
          "internalType": "bytes",
          "name": "callData",
          "type": "bytes"
        },
        {
          "internalType": "bytes",
          "name": "replacementPattern",
          "type": "bytes"
        },
        {
          "internalType": "bytes",
          "name": "staticExtradata",
          "type": "bytes"
        },
        {
          "internalType": "uint8",
          "name": "v",
          "type": "uint8"
        },
        {
          "internalType": "bytes32",
          "name": "r",
          "type": "bytes32"
        },
        {
          "internalType": "bytes32",
          "name": "s",
          "type": "bytes32"
        }
      ],
      "name": "cancelOrder_",
      "outputs": [],
      "stateMutability": "nonpayable",
      "type": "function"
    },
    {
      "inputs": [
        {
          "internalType": "address[7]",
          "name": "addrs",
          "type": "address[7]"
        },
        {
          "internalType": "uint256[9]",
          "name": "uints",
          "type": "uint256[9]"
        },
        {
          "internalType": "enum ExchangeCore.FeeMethod",
          "name": "feeMethod",
          "type": "uint8"
        },
        {
          "internalType": "enum SaleKindInterface.Side",
          "name": "side",
          "type": "uint8"
        },
        {
          "internalType": "enum SaleKindInterface.SaleKind",
          "name": "saleKind",
          "type": "uint8"
        },
        {
          "internalType": "enum AuthenticatedProxy.HowToCall",
          "name": "howToCall",
          "type": "uint8"
        },
        {
          "internalType": "bytes",
          "name": "callData",
          "type": "bytes"
        },
        {
          "internalType": "bytes",
          "name": "replacementPattern",
          "type": "bytes"
        },
        {
          "internalType": "bytes",
          "name": "staticExtradata",
          "type": "bytes"
        }
      ],
      "name": "calculateCurrentPrice_",
      "outputs": [
        {
          "internalType": "uint256",
          "name": "",
          "type": "uint256"
        }
      ],
      "stateMutability": "view",
      "type": "function"
    },
    {
      "inputs": [
        {
          "internalType": "address[14]",
          "name": "addrs",
          "type": "address[14]"
        },
        {
          "internalType": "uint256[18]",
          "name": "uints",
          "type": "uint256[18]"
        },
        {
          "internalType": "uint8[8]",
          "name": "feeMethodsSidesKindsHowToCalls",
          "type": "uint8[8]"
        },
        {
          "internalType": "bytes",
          "name": "callDataBuy",
          "type": "bytes"
        },
        {
          "internalType": "bytes",
          "name": "callDataSell",
          "type": "bytes"
        },
        {
          "internalType": "bytes",
          "name": "replacementPatternBuy",
          "type": "bytes"
        },
        {
          "internalType": "bytes",
          "name": "replacementPatternSell",
          "type": "bytes"
        },
        {
          "internalType": "bytes",
          "name": "staticExtradataBuy",
          "type": "bytes"
        },
        {
          "internalType": "bytes",
          "name": "staticExtradataSell",
          "type": "bytes"
        }
      ],
      "name": "calculateMatchPrice_",
      "outputs": [
        {
          "internalType": "uint256",
          "name": "",
          "type": "uint256"
        }
      ],
      "stateMutability": "view",
      "type": "function"
    },
    {
      "inputs": [
        {
          "internalType": "address[14]",
          "name": "addrs",
          "type": "address[14]"
        },
        {
          "internalType": "uint256[18]",
          "name": "uints",
          "type": "uint256[18]"
        },
        {
          "internalType": "uint8[8]",
          "name": "feeMethodsSidesKindsHowToCalls",
          "type": "uint8[8]"
        },
        {
          "internalType": "bytes",
          "name": "callDataBuy",
          "type": "bytes"
        },
        {
          "internalType": "bytes",
          "name": "callDataSell",
          "type": "bytes"
        },
        {
          "internalType": "bytes",
          "name": "replacementPatternBuy",
          "type": "bytes"
        },
        {
          "internalType": "bytes",
          "name": "replacementPatternSell",
          "type": "bytes"
        },
        {
          "internalType": "bytes",
          "name": "staticExtradataBuy",
          "type": "bytes"
        },
        {
          "internalType": "bytes",
          "name": "staticExtradataSell",
          "type": "bytes"
        },
        {
          "internalType": "uint8[2]",
          "name": "vs",
          "type": "uint8[2]"
        },
        {
          "internalType": "bytes32[5]",
          "name": "rssMetadata",
          "type": "bytes32[5]"
        }
      ],
      "name": "atomicMatch_",
      "outputs": [],
      "stateMutability": "payable",
      "type": "function"
    }
  ],
  "bytecode": "0x60806040526000805460ff19168155600681905560075534801561002257600080fd5b5060008054610100600160a81b031916336101008102919091178255604051909182917f8be0079c531659141344cd1fd0a4f28419497f9722a3daafe3b4186f6b6457e0908290a350615a3b806200007b6000396000f3fe6080604052600436106101665760003560e01c80637b103999116100d1578063a8a41c701161008a578063cae6047f11610064578063cae6047f1461042f578063d537e13114610445578063e57d4adb14610465578063f2fde38b1461049557600080fd5b8063a8a41c70146103dc578063ab834bab146103fc578063ca595b9a1461040f57600080fd5b80637b103999146103135780637ccefc52146103335780637d766981146103495780638076f005146103695780638da5cb5b14610399578063a25eb5d9146103bc57600080fd5b8063514f033011610123578063514f03301461025e57806360bef33a1461027e57806364df049e1461029e578063715018a6146102be57806371d02b38146102d357806379666868146102f357600080fd5b80630eefdbad1461016b57806310796a47146101a857806314350c24146101d85780631a6b13e2146101fa57806328a8ee681461021a5780633f67ee0d1461023e575b600080fd5b34801561017757600080fd5b5060035461018b906001600160a01b031681565b6040516001600160a01b0390911681526020015b60405180910390f35b3480156101b457600080fd5b506101c86101c3366004615114565b6104b5565b604051901515815260200161019f565b3480156101e457600080fd5b506101f86101f3366004615729565b61054d565b005b34801561020657600080fd5b506101f8610215366004615729565b61058b565b34801561022657600080fd5b5061023060075481565b60405190815260200161019f565b34801561024a57600080fd5b5061023061025936600461540f565b6105c0565b34801561026a57600080fd5b506101f86102793660046150dc565b610918565b34801561028a57600080fd5b506101c86102993660046155e4565b61096a565b3480156102aa57600080fd5b5060085461018b906001600160a01b031681565b3480156102ca57600080fd5b506101f8610d15565b3480156102df57600080fd5b506102306102ee36600461540f565b610d94565b3480156102ff57600080fd5b506101f861030e3660046154e2565b6110de565b34801561031f57600080fd5b5060025461018b906001600160a01b031681565b34801561033f57600080fd5b5061023060065481565b34801561035557600080fd5b5061023061036436600461540f565b611439565b34801561037557600080fd5b506101c8610384366004615729565b60046020526000908152604090205460ff1681565b3480156103a557600080fd5b5060005461010090046001600160a01b031661018b565b3480156103c857600080fd5b5060015461018b906001600160a01b031681565b3480156103e857600080fd5b506101f86103f73660046155e4565b611783565b6101f861040a3660046152b1565b611b19565b34801561041b57600080fd5b506101c861042a36600461540f565b6123ea565b34801561043b57600080fd5b5061023061271081565b34801561045157600080fd5b50610230610460366004615186565b612747565b34801561047157600080fd5b506101c8610480366004615729565b60056020526000908152604090205460ff1681565b3480156104a157600080fd5b506101f86104b03660046150dc565b612f4c565b600080825184516104c6919061590c565b6001600160401b038111156104eb57634e487b7160e01b600052604160045260246000fd5b6040519080825280601f01601f191660200182016040528015610515576020820181803683370190505b509050602081016105268185613047565b90506105328186613047565b506000604051835160208501895afa925050505b9392505050565b6000546001600160a01b036101009091041633146105865760405162461bcd60e51b815260040161057d906158d7565b60405180910390fd5b600655565b6000546001600160a01b036101009091041633146105bb5760405162461bcd60e51b815260040161057d906158d7565b600755565b600061090a604051806102e001604052808c6000600781106105f257634e487b7160e01b600052603260045260246000fd5b60200201516001600160a01b031681526020018c60016007811061062657634e487b7160e01b600052603260045260246000fd5b60200201516001600160a01b031681526020018c60026007811061065a57634e487b7160e01b600052603260045260246000fd5b60200201516001600160a01b031681526020018b60006009811061068e57634e487b7160e01b600052603260045260246000fd5b602002015181526020018b6001600981106106b957634e487b7160e01b600052603260045260246000fd5b602002015181526020018b6002600981106106e457634e487b7160e01b600052603260045260246000fd5b602002015181526020018b60036009811061070f57634e487b7160e01b600052603260045260246000fd5b602002015181526020018c60036007811061073a57634e487b7160e01b600052603260045260246000fd5b60200201516001600160a01b031681526020018a600181111561076d57634e487b7160e01b600052602160045260246000fd5b815260200189600181111561079257634e487b7160e01b600052602160045260246000fd5b81526020018860018111156107b757634e487b7160e01b600052602160045260246000fd5b815260808d01516001600160a01b031660208201526040018760018111156107ef57634e487b7160e01b600052602160045260246000fd5b8152602081018790526040810186905260a0808e01516001600160a01b0316606083015260808201869052018c600660200201516001600160a01b031681526020018b60046009811061085257634e487b7160e01b600052603260045260246000fd5b602002015181526020018b60056009811061087d57634e487b7160e01b600052603260045260246000fd5b602002015181526020018b6006600981106108a857634e487b7160e01b600052603260045260246000fd5b602002015181526020018b6007600981106108d357634e487b7160e01b600052603260045260246000fd5b602002015181526020018b6008600981106108fe57634e487b7160e01b600052603260045260246000fd5b6020020151905261308a565b9a9950505050505050505050565b6000546001600160a01b036101009091041633146109485760405162461bcd60e51b815260040161057d906158d7565b600880546001600160a01b0319166001600160a01b0392909216919091179055565b600080604051806102e001604052808f60006007811061099a57634e487b7160e01b600052603260045260246000fd5b60200201516001600160a01b031681526020018f6001600781106109ce57634e487b7160e01b600052603260045260246000fd5b60200201516001600160a01b031681526020018f600260078110610a0257634e487b7160e01b600052603260045260246000fd5b60200201516001600160a01b031681526020018e600060098110610a3657634e487b7160e01b600052603260045260246000fd5b602002015181526020018e600160098110610a6157634e487b7160e01b600052603260045260246000fd5b602002015181526020018e600260098110610a8c57634e487b7160e01b600052603260045260246000fd5b602002015181526020018e600360098110610ab757634e487b7160e01b600052603260045260246000fd5b602002015181526020018f600360078110610ae257634e487b7160e01b600052603260045260246000fd5b60200201516001600160a01b031681526020018d6001811115610b1557634e487b7160e01b600052602160045260246000fd5b81526020018c6001811115610b3a57634e487b7160e01b600052602160045260246000fd5b81526020018b6001811115610b5f57634e487b7160e01b600052602160045260246000fd5b81526020018f600460200201516001600160a01b031681526020018a6001811115610b9a57634e487b7160e01b600052602160045260246000fd5b8152602081018a9052604081018990526060018f600560200201516001600160a01b031681526020018781526020018f600660078110610bea57634e487b7160e01b600052603260045260246000fd5b60200201516001600160a01b031681526020018e600460098110610c1e57634e487b7160e01b600052603260045260246000fd5b602002015181526020018e600560098110610c4957634e487b7160e01b600052603260045260246000fd5b602002015181526020018e600660098110610c7457634e487b7160e01b600052603260045260246000fd5b602002015181526020018e600760098110610c9f57634e487b7160e01b600052603260045260246000fd5b602002015181526020018e600860098110610cca57634e487b7160e01b600052603260045260246000fd5b602002015190529050610d03610cdf826130be565b8260405180606001604052808960ff1681526020018881526020018781525061311a565b9e9d5050505050505050505050505050565b6000546001600160a01b03610100909104163314610d455760405162461bcd60e51b815260040161057d906158d7565b600080546040516101009091046001600160a01b0316907f8be0079c531659141344cd1fd0a4f28419497f9722a3daafe3b4186f6b6457e0908390a360008054610100600160a81b0319169055565b600061090a604051806102e001604052808c600060078110610dc657634e487b7160e01b600052603260045260246000fd5b60200201516001600160a01b031681526020018c600160078110610dfa57634e487b7160e01b600052603260045260246000fd5b60200201516001600160a01b031681526020018c600260078110610e2e57634e487b7160e01b600052603260045260246000fd5b60200201516001600160a01b031681526020018b600060098110610e6257634e487b7160e01b600052603260045260246000fd5b602002015181526020018b600160098110610e8d57634e487b7160e01b600052603260045260246000fd5b602002015181526020018b600260098110610eb857634e487b7160e01b600052603260045260246000fd5b602002015181526020018b600360098110610ee357634e487b7160e01b600052603260045260246000fd5b602002015181526020018c600360078110610f0e57634e487b7160e01b600052603260045260246000fd5b60200201516001600160a01b031681526020018a6001811115610f4157634e487b7160e01b600052602160045260246000fd5b8152602001896001811115610f6657634e487b7160e01b600052602160045260246000fd5b8152602001886001811115610f8b57634e487b7160e01b600052602160045260246000fd5b815260808d01516001600160a01b03166020820152604001876001811115610fc357634e487b7160e01b600052602160045260246000fd5b8152602081018790526040810186905260a0808e01516001600160a01b0316606083015260808201869052018c600660200201516001600160a01b031681526020018b60046009811061102657634e487b7160e01b600052603260045260246000fd5b602002015181526020018b60056009811061105157634e487b7160e01b600052603260045260246000fd5b602002015181526020018b60066009811061107c57634e487b7160e01b600052603260045260246000fd5b602002015181526020018b6007600981106110a757634e487b7160e01b600052603260045260246000fd5b602002015181526020018b6008600981106110d257634e487b7160e01b600052603260045260246000fd5b60200201519052613200565b6000604051806102e001604052808c60006007811061110d57634e487b7160e01b600052603260045260246000fd5b60200201516001600160a01b031681526020018c60016007811061114157634e487b7160e01b600052603260045260246000fd5b60200201516001600160a01b031681526020018c60026007811061117557634e487b7160e01b600052603260045260246000fd5b60200201516001600160a01b031681526020018b6000600981106111a957634e487b7160e01b600052603260045260246000fd5b602002015181526020018b6001600981106111d457634e487b7160e01b600052603260045260246000fd5b602002015181526020018b6002600981106111ff57634e487b7160e01b600052603260045260246000fd5b602002015181526020018b60036009811061122a57634e487b7160e01b600052603260045260246000fd5b602002015181526020018c60036007811061125557634e487b7160e01b600052603260045260246000fd5b60200201516001600160a01b031681526020018a600181111561128857634e487b7160e01b600052602160045260246000fd5b81526020018960018111156112ad57634e487b7160e01b600052602160045260246000fd5b81526020018860018111156112d257634e487b7160e01b600052602160045260246000fd5b815260808d01516001600160a01b0316602082015260400187600181111561130a57634e487b7160e01b600052602160045260246000fd5b8152602081018790526040810186905260a0808e01516001600160a01b0316606083015260808201869052018c600660200201516001600160a01b031681526020018b60046009811061136d57634e487b7160e01b600052603260045260246000fd5b602002015181526020018b60056009811061139857634e487b7160e01b600052603260045260246000fd5b602002015181526020018b6006600981106113c357634e487b7160e01b600052603260045260246000fd5b602002015181526020018b6007600981106113ee57634e487b7160e01b600052603260045260246000fd5b602002015181526020018b60086009811061141957634e487b7160e01b600052603260045260246000fd5b60200201519052905061142c8183613431565b5050505050505050505050565b600061090a604051806102e001604052808c60006007811061146b57634e487b7160e01b600052603260045260246000fd5b60200201516001600160a01b031681526020018c60016007811061149f57634e487b7160e01b600052603260045260246000fd5b60200201516001600160a01b031681526020018c6002600781106114d357634e487b7160e01b600052603260045260246000fd5b60200201516001600160a01b031681526020018b60006009811061150757634e487b7160e01b600052603260045260246000fd5b602002015181526020018b60016009811061153257634e487b7160e01b600052603260045260246000fd5b602002015181526020018b60026009811061155d57634e487b7160e01b600052603260045260246000fd5b602002015181526020018b60036009811061158857634e487b7160e01b600052603260045260246000fd5b602002015181526020018c6003600781106115b357634e487b7160e01b600052603260045260246000fd5b60200201516001600160a01b031681526020018a60018111156115e657634e487b7160e01b600052602160045260246000fd5b815260200189600181111561160b57634e487b7160e01b600052602160045260246000fd5b815260200188600181111561163057634e487b7160e01b600052602160045260246000fd5b815260808d01516001600160a01b0316602082015260400187600181111561166857634e487b7160e01b600052602160045260246000fd5b8152602081018790526040810186905260a0808e01516001600160a01b0316606083015260808201869052018c600660200201516001600160a01b031681526020018b6004600981106116cb57634e487b7160e01b600052603260045260246000fd5b602002015181526020018b6005600981106116f657634e487b7160e01b600052603260045260246000fd5b602002015181526020018b60066009811061172157634e487b7160e01b600052603260045260246000fd5b602002015181526020018b60076009811061174c57634e487b7160e01b600052603260045260246000fd5b602002015181526020018b60086009811061177757634e487b7160e01b600052603260045260246000fd5b602002015190526130be565b611b0b604051806102e001604052808e6000600781106117b357634e487b7160e01b600052603260045260246000fd5b60200201516001600160a01b031681526020018e6001600781106117e757634e487b7160e01b600052603260045260246000fd5b60200201516001600160a01b031681526020018e60026007811061181b57634e487b7160e01b600052603260045260246000fd5b60200201516001600160a01b031681526020018d60006009811061184f57634e487b7160e01b600052603260045260246000fd5b602002015181526020018d60016009811061187a57634e487b7160e01b600052603260045260246000fd5b602002015181526020018d6002600981106118a557634e487b7160e01b600052603260045260246000fd5b602002015181526020018d6003600981106118d057634e487b7160e01b600052603260045260246000fd5b602002015181526020018e6003600781106118fb57634e487b7160e01b600052603260045260246000fd5b60200201516001600160a01b031681526020018c600181111561192e57634e487b7160e01b600052602160045260246000fd5b81526020018b600181111561195357634e487b7160e01b600052602160045260246000fd5b81526020018a600181111561197857634e487b7160e01b600052602160045260246000fd5b815260808f01516001600160a01b031660208201526040018960018111156119b057634e487b7160e01b600052602160045260246000fd5b815260208101899052604081018890526060018e600560200201516001600160a01b031681526020018681526020018e600660078110611a0057634e487b7160e01b600052603260045260246000fd5b60200201516001600160a01b031681526020018d600460098110611a3457634e487b7160e01b600052603260045260246000fd5b602002015181526020018d600560098110611a5f57634e487b7160e01b600052603260045260246000fd5b602002015181526020018d600660098110611a8a57634e487b7160e01b600052603260045260246000fd5b602002015181526020018d600760098110611ab557634e487b7160e01b600052603260045260246000fd5b602002015181526020018d600860098110611ae057634e487b7160e01b600052603260045260246000fd5b602002015181525060405180606001604052808660ff168152602001858152602001848152506135c5565b505050505050505050505050565b61142c604051806102e001604052808d6000600e8110611b4957634e487b7160e01b600052603260045260246000fd5b60200201516001600160a01b031681526020018d6001600e8110611b7d57634e487b7160e01b600052603260045260246000fd5b60200201516001600160a01b031681526020018d6002600e8110611bb157634e487b7160e01b600052603260045260246000fd5b60200201516001600160a01b031681526020018c600060128110611be557634e487b7160e01b600052603260045260246000fd5b602002015181526020018c600160128110611c1057634e487b7160e01b600052603260045260246000fd5b602002015181526020018c600260128110611c3b57634e487b7160e01b600052603260045260246000fd5b602002015181526020018c600360128110611c6657634e487b7160e01b600052603260045260246000fd5b602002015181526020018d6003600e8110611c9157634e487b7160e01b600052603260045260246000fd5b60200201516001600160a01b031681526020018b600060088110611cc557634e487b7160e01b600052603260045260246000fd5b602002015160ff166001811115611cec57634e487b7160e01b600052602160045260246000fd5b6001811115611d0b57634e487b7160e01b600052602160045260246000fd5b81526020018b6001602002015160ff166001811115611d3a57634e487b7160e01b600052602160045260246000fd5b6001811115611d5957634e487b7160e01b600052602160045260246000fd5b81526020018b6002602002015160ff166001811115611d8857634e487b7160e01b600052602160045260246000fd5b6001811115611da757634e487b7160e01b600052602160045260246000fd5b815260808e01516001600160a01b031660208201526040018b6003602002015160ff166001811115611de957634e487b7160e01b600052602160045260246000fd5b6001811115611e0857634e487b7160e01b600052602160045260246000fd5b8152602081018b90526040810189905260a0808f01516001600160a01b0316606083015260808201889052018d600660200201516001600160a01b031681526020018c600460128110611e6b57634e487b7160e01b600052603260045260246000fd5b602002015181526020018c600560128110611e9657634e487b7160e01b600052603260045260246000fd5b602002015181526020018c600660128110611ec157634e487b7160e01b600052603260045260246000fd5b602002015181526020018c600760128110611eec57634e487b7160e01b600052603260045260246000fd5b602002015181526020018c600860128110611f1757634e487b7160e01b600052603260045260246000fd5b6020908102919091015190915260408051606081018252865160ff168152855192810192909252810184600160200201519052604080516102e08101909152808f600760200201516001600160a01b031681526020018f6008600e8110611f8e57634e487b7160e01b600052603260045260246000fd5b60200201516001600160a01b031681526020018f6009600e8110611fc257634e487b7160e01b600052603260045260246000fd5b60200201516001600160a01b031681526020018e600960128110611ff657634e487b7160e01b600052603260045260246000fd5b602002015181526020018e600a6012811061202157634e487b7160e01b600052603260045260246000fd5b602002015181526020018e600b6012811061204c57634e487b7160e01b600052603260045260246000fd5b602002015181526020018e600c6012811061207757634e487b7160e01b600052603260045260246000fd5b602002015181526020018f600a600e81106120a257634e487b7160e01b600052603260045260246000fd5b60200201516001600160a01b031681526020018d6004600881106120d657634e487b7160e01b600052603260045260246000fd5b602002015160ff1660018111156120fd57634e487b7160e01b600052602160045260246000fd5b600181111561211c57634e487b7160e01b600052602160045260246000fd5b81526020018d6005602002015160ff16600181111561214b57634e487b7160e01b600052602160045260246000fd5b600181111561216a57634e487b7160e01b600052602160045260246000fd5b81526020018d6006602002015160ff16600181111561219957634e487b7160e01b600052602160045260246000fd5b60018111156121b857634e487b7160e01b600052602160045260246000fd5b81526020018f600b60200201516001600160a01b031681526020018d6007600881106121f457634e487b7160e01b600052603260045260246000fd5b602002015160ff16600181111561221b57634e487b7160e01b600052602160045260246000fd5b600181111561223a57634e487b7160e01b600052602160045260246000fd5b8152602081018c9052604081018a90526060018f600c60200201516001600160a01b031681526020018781526020018f600d600e811061228a57634e487b7160e01b600052603260045260246000fd5b60200201516001600160a01b031681526020018e600d601281106122be57634e487b7160e01b600052603260045260246000fd5b602002015181526020018e600e601281106122e957634e487b7160e01b600052603260045260246000fd5b602002015181526020018e600f6012811061231457634e487b7160e01b600052603260045260246000fd5b602002015181526020018e60106012811061233f57634e487b7160e01b600052603260045260246000fd5b602002015181526020018e60116012811061236a57634e487b7160e01b600052603260045260246000fd5b60200201519052604080516060810190915280876001602002015160ff168152602001866002600581106123ae57634e487b7160e01b600052603260045260246000fd5b60200201518152602001866003600581106123d957634e487b7160e01b600052603260045260246000fd5b60200201519052608086015161366e565b600080604051806102e001604052808c60006007811061241a57634e487b7160e01b600052603260045260246000fd5b60200201516001600160a01b031681526020018c60016007811061244e57634e487b7160e01b600052603260045260246000fd5b60200201516001600160a01b031681526020018c60026007811061248257634e487b7160e01b600052603260045260246000fd5b60200201516001600160a01b031681526020018b6000600981106124b657634e487b7160e01b600052603260045260246000fd5b602002015181526020018b6001600981106124e157634e487b7160e01b600052603260045260246000fd5b602002015181526020018b60026009811061250c57634e487b7160e01b600052603260045260246000fd5b602002015181526020018b60036009811061253757634e487b7160e01b600052603260045260246000fd5b602002015181526020018c60036007811061256257634e487b7160e01b600052603260045260246000fd5b60200201516001600160a01b031681526020018a600181111561259557634e487b7160e01b600052602160045260246000fd5b81526020018960018111156125ba57634e487b7160e01b600052602160045260246000fd5b81526020018860018111156125df57634e487b7160e01b600052602160045260246000fd5b815260808d01516001600160a01b0316602082015260400187600181111561261757634e487b7160e01b600052602160045260246000fd5b8152602081018790526040810186905260a0808e01516001600160a01b0316606083015260808201869052018c600660200201516001600160a01b031681526020018b60046009811061267a57634e487b7160e01b600052603260045260246000fd5b602002015181526020018b6005600981106126a557634e487b7160e01b600052603260045260246000fd5b602002015181526020018b6006600981106126d057634e487b7160e01b600052603260045260246000fd5b602002015181526020018b6007600981106126fb57634e487b7160e01b600052603260045260246000fd5b602002015181526020018b60086009811061272657634e487b7160e01b600052603260045260246000fd5b60200201519052905061273881613dec565b9b9a5050505050505050505050565b600080604051806102e001604052808c6000600e811061277757634e487b7160e01b600052603260045260246000fd5b60200201516001600160a01b031681526020018c6001600e81106127ab57634e487b7160e01b600052603260045260246000fd5b60200201516001600160a01b031681526020018c6002600e81106127df57634e487b7160e01b600052603260045260246000fd5b60200201516001600160a01b031681526020018b60006012811061281357634e487b7160e01b600052603260045260246000fd5b602002015181526020018b60016012811061283e57634e487b7160e01b600052603260045260246000fd5b602002015181526020018b60026012811061286957634e487b7160e01b600052603260045260246000fd5b602002015181526020018b60036012811061289457634e487b7160e01b600052603260045260246000fd5b602002015181526020018c6003600e81106128bf57634e487b7160e01b600052603260045260246000fd5b60200201516001600160a01b031681526020018a6000600881106128f357634e487b7160e01b600052603260045260246000fd5b602002015160ff16600181111561291a57634e487b7160e01b600052602160045260246000fd5b600181111561293957634e487b7160e01b600052602160045260246000fd5b81526020018a6001602002015160ff16600181111561296857634e487b7160e01b600052602160045260246000fd5b600181111561298757634e487b7160e01b600052602160045260246000fd5b81526020018a6002602002015160ff1660018111156129b657634e487b7160e01b600052602160045260246000fd5b60018111156129d557634e487b7160e01b600052602160045260246000fd5b815260808d01516001600160a01b031660208201526040018a6003602002015160ff166001811115612a1757634e487b7160e01b600052602160045260246000fd5b6001811115612a3657634e487b7160e01b600052602160045260246000fd5b8152602081018a90526040810188905260a0808e01516001600160a01b0316606083015260808201879052018c600660200201516001600160a01b031681526020018b600460128110612a9957634e487b7160e01b600052603260045260246000fd5b602002015181526020018b600560128110612ac457634e487b7160e01b600052603260045260246000fd5b602002015181526020018b600660128110612aef57634e487b7160e01b600052603260045260246000fd5b602002015181526020018b600760128110612b1a57634e487b7160e01b600052603260045260246000fd5b602002015181526020018b600860128110612b4557634e487b7160e01b600052603260045260246000fd5b602002015181525090506000604051806102e001604052808d6007600e8110612b7e57634e487b7160e01b600052603260045260246000fd5b60200201516001600160a01b031681526020018d6008600e8110612bb257634e487b7160e01b600052603260045260246000fd5b60200201516001600160a01b031681526020018d6009600e8110612be657634e487b7160e01b600052603260045260246000fd5b60200201516001600160a01b031681526020018c600960128110612c1a57634e487b7160e01b600052603260045260246000fd5b602002015181526020018c600a60128110612c4557634e487b7160e01b600052603260045260246000fd5b602002015181526020018c600b60128110612c7057634e487b7160e01b600052603260045260246000fd5b602002015181526020018c600c60128110612c9b57634e487b7160e01b600052603260045260246000fd5b602002015181526020018d600a600e8110612cc657634e487b7160e01b600052603260045260246000fd5b60200201516001600160a01b031681526020018b600460088110612cfa57634e487b7160e01b600052603260045260246000fd5b602002015160ff166001811115612d2157634e487b7160e01b600052602160045260246000fd5b6001811115612d4057634e487b7160e01b600052602160045260246000fd5b81526020018b6005602002015160ff166001811115612d6f57634e487b7160e01b600052602160045260246000fd5b6001811115612d8e57634e487b7160e01b600052602160045260246000fd5b81526020018b6006602002015160ff166001811115612dbd57634e487b7160e01b600052602160045260246000fd5b6001811115612ddc57634e487b7160e01b600052602160045260246000fd5b81526101608e01516001600160a01b031660208201526040018b6007602002015160ff166001811115612e1f57634e487b7160e01b600052602160045260246000fd5b6001811115612e3e57634e487b7160e01b600052602160045260246000fd5b8152602081018a9052604081018890526101808e01516001600160a01b039081166060830152608082018790526101a08f01511660a082015260c0018c600d602002015181526020018c600e60128110612ea857634e487b7160e01b600052603260045260246000fd5b602002015181526020018c600f60128110612ed357634e487b7160e01b600052603260045260246000fd5b602002015181526020018c601060128110612efe57634e487b7160e01b600052603260045260246000fd5b602002015181526020018c601160128110612f2957634e487b7160e01b600052603260045260246000fd5b602002015190529050612f3c8282613e85565b9c9b505050505050505050505050565b6000546001600160a01b03610100909104163314612f7c5760405162461bcd60e51b815260040161057d906158d7565b6001600160a01b038116612fe15760405162461bcd60e51b815260206004820152602660248201527f4f776e61626c653a206e6577206f776e657220697320746865207a65726f206160448201526564647265737360d01b606482015260840161057d565b600080546040516001600160a01b038085169361010090930416917f8be0079c531659141344cd1fd0a4f28419497f9722a3daafe3b4186f6b6457e091a3600080546001600160a01b0390921661010002610100600160a81b0319909216919091179055565b80516000901561308357815180602001830160208401855b6001838310141561307a57815181526020918201910161305f565b50505092909201915b5090919050565b60006130b8826101200151836101400151846102400151856102600151866102800151876102a00151613f16565b92915050565b60006130c982613200565b6040517f19457468657265756d205369676e6564204d6573736167653a0a3332000000006020820152603c810191909152605c01604051602081830303815290604052805190602001209050919050565b600061312583613dec565b61313157506000610546565b60008481526004602052604090205460ff161561315057506000610546565b60008481526005602052604090205460ff161561316f57506001610546565b6020808401518351848301516040808701518151600081529586018083528a905260ff90931690850152606084015260808301526001600160a01b03169060019060a0016020604051602081039080840390855afa1580156131d5573d6000803e3d6000fd5b505050602060405103516001600160a01b031614156131f657506001610546565b5060009392505050565b60008061320c83613fe8565b90506000816001600160401b0381111561323657634e487b7160e01b600052604160045260246000fd5b6040519080825280601f01601f191660200182016040528015613260576020820181803683370190505b5084519091506020820190613276908290614020565b9050613286818660200151614020565b9050613296818660400151614020565b6060868101518252608080880151602084015260a0880151604084015260c08801519183019190915260e0870151910191506132d3908290614020565b90506133038186610100015160018111156132fe57634e487b7160e01b600052602160045260246000fd5b61403a565b905061332e8186610120015160018111156132fe57634e487b7160e01b600052602160045260246000fd5b90506133598186610140015160018111156132fe57634e487b7160e01b600052602160045260246000fd5b905061336a81866101600151614020565b90506133958186610180015160018111156132fe57634e487b7160e01b600052602160045260246000fd5b90506133a681866101a00151613047565b90506133b781866101c00151613047565b90506133c881866101e00151614020565b90506133d981866102000151613047565b90506133ea81866102200151614020565b610240860151815261026086015160208083019190915261028087015160408301526102a087015160608301526102c0909601516080909101525090920191909120919050565b81602001516001600160a01b0316336001600160a01b03161461345357600080fd5b600061345e836130be565b60008181526005602052604090205490915060ff161561347d57600080fd5b60016005600083815260200190815260200160002060006101000a81548160ff0219169083151502179055508260e001516001600160a01b031683602001516001600160a01b0316827f90c7f9f5b58c15f0f635bfb99f55d3d78fdbef3559e7d8abf5c81052a527662286600001518760400151886060015189608001518a60a001518b60c001518c61010001518d61012001518e61014001518f61016001516040516135339a9998979695949392919061578c565b60405180910390a4807fe55393c778364e440d958b39ac1debd99dcfae3775a8a04d1e79124adf6a2d08846101800151856101a00151866101c00151876101e001518861020001518961022001518a61024001518b61026001518c61028001518d6102a001518e6102c001518e6040516135b89c9b9a9998979695949392919061583b565b60405180910390a2505050565b60006135d18383614047565b905082602001516001600160a01b0316336001600160a01b0316146136295760405162461bcd60e51b815260206004820152600e60248201526d135052d157d393d517d59053125160921b604482015260640161057d565b600081815260046020526040808220805460ff191660011790555182917f5152abf959f6564662358c2e52b702259b78bac5ee7842a0f01937e670efcc7d91a2505050565b60005460ff16156136b75760405162461bcd60e51b81526020600482015260136024820152721499595b9d1c985b98de4819195d1958dd1959606a1b604482015260640161057d565b6000805460ff1916600117815560208601516001600160a01b031633141561372b576136e286613dec565b6137265760405162461bcd60e51b8152602060048201526015602482015274213abc9037b93232b91034b99034b73b30b634b21760591b604482015260640161057d565b613738565b6137358686614047565b90505b60208401516000906001600160a01b03163314156137a35761375985613dec565b61379e5760405162461bcd60e51b815260206004820152601660248201527529b2b6361037b93232b91034b99034b73b30b634b21760511b604482015260640161057d565b6137b0565b6137ad8585614047565b90505b6137ba878661409d565b6138065760405162461bcd60e51b815260206004820152601860248201527f4f7264657273206973206e6f74206d6174636861626c652e0000000000000000604482015260640161057d565b610160850151803b908161384f5760405162461bcd60e51b815260206004820152601060248201526f15185c99d95d081b9bdd08195e1a5cdd60821b604482015260640161057d565b6101c0890151511561387557613875896101a00151886101a001518b6101c001516142ef565b6101c0870151511561389b5761389b876101a001518a6101a00151896101c001516142ef565b6138af896101a00151886101a00151614563565b6138b857600080fd5b600254602088015160405163c455279160e01b81526001600160a01b039182166004820152600092919091169063c45527919060240160206040518083038186803b15801561390657600080fd5b505afa15801561391a573d6000803e3d6000fd5b505050506040513d601f19601f8201168201806040525081019061393e91906150f8565b90506001600160a01b0381166139885760405162461bcd60e51b815260206004820152600f60248201526e141c9bde1e481b9bdd08195e1a5cdd608a1b604482015260640161057d565b600260009054906101000a90046001600160a01b03166001600160a01b03166397204d8e6040518163ffffffff1660e01b815260040160206040518083038186803b1580156139d657600080fd5b505afa1580156139ea573d6000803e3d6000fd5b505050506040513d601f19601f82011682018060405250810190613a0e91906150f8565b6001600160a01b0316816001600160a01b0316635c60da1b6040518163ffffffff1660e01b815260040160206040518083038186803b158015613a5057600080fd5b505afa158015613a64573d6000803e3d6000fd5b505050506040513d601f19601f82011682018060405250810190613a8891906150f8565b6001600160a01b031614613ade5760405162461bcd60e51b815260206004820152601860248201527f50726f7879206973206e6f7420696d706c656d656e7465640000000000000000604482015260640161057d565b60208a015181906001600160a01b03163314613b0e576000868152600460205260409020805460ff191660011790555b88602001516001600160a01b0316336001600160a01b031614613b45576000858152600460205260409020805460ff191660011790555b6000613b518c8b6145c7565b9050816001600160a01b0316631b0f7ba98b61016001518c61018001518d6101a001516040518463ffffffff1660e01b8152600401613b929392919061580a565b602060405180830381600087803b158015613bac57600080fd5b505af1158015613bc0573d6000803e3d6000fd5b505050506040513d601f19601f82011682018060405250810190613be4919061570d565b613c305760405162461bcd60e51b815260206004820152601960248201527f43616e6e6f742063616c6c207468726f7567682070726f787900000000000000604482015260640161057d565b6101e08c01516001600160a01b031615613cb657613c5e8c6101e001518b6101a001518e61020001516104b5565b613cb65760405162461bcd60e51b815260206004820152602360248201527f43616e6e6f742065786563757465206275792d73696465207374617469632063604482015262185b1b60ea1b606482015260840161057d565b6101e08a01516001600160a01b031615613d3c57613ce48a6101e001518b6101a001518c61020001516104b5565b613d3c5760405162461bcd60e51b8152602060048201526024808201527f43616e6e6f7420657865637574652073656c6c2d73696465207374617469632060448201526318d85b1b60e21b606482015260840161057d565b60e08a015188906001600160a01b0316613d5a578a60200151613d60565b8c602001515b60e08c01516001600160a01b039182169116613d80578d60200151613d86565b8b602001515b604080518b8152602081018b90529081018590526001600160a01b0391909116907fc4109843e0b7d514e4c093114b863f8e7d8d9a458c372cd51bfe526b588006c99060600160405180910390a450506000805460ff1916905550505050505050505050565b80516000906001600160a01b03163014613e0857506000919050565b613e1c826101400151836102a00151614c00565b613e2857506000919050565b60018261010001516001811115613e4f57634e487b7160e01b600052602160045260246000fd5b148015613e7057506006548260a001511080613e7057506007548260c00151105b15613e7d57506000919050565b506001919050565b600080613eb4836101200151846101400151856102400151866102600151876102800151886102a00151613f16565b90506000613ee48561012001518661014001518761024001518861026001518961028001518a6102a00151613f16565b905081811015613ef357600080fd5b60e08401516001600160a01b0316613f0b5780613f0d565b815b95945050505050565b600080866001811115613f3957634e487b7160e01b600052602160045260246000fd5b1415613f46575083613fde565b6001866001811115613f6857634e487b7160e01b600052602160045260246000fd5b1415613fde576000613f7a8484615963565b613f848542615963565b613f8e9087615944565b613f989190615924565b90506001886001811115613fbc57634e487b7160e01b600052602160045260246000fd5b1415613fd457613fcc8187615963565b915050613fde565b613fcc818761590c565b9695505050505050565b600081610200015151826101c0015151836101a00151516101b061400c919061590c565b614016919061590c565b6130b8919061590c565b60601b6bffffffffffffffffffffffff1916815260140190565b6000818353505060010190565b600080614053846130be565b905061406081858561311a565b6105465760405162461bcd60e51b815260206004820152600e60248201526d121054d217d393d517d59053125160921b604482015260640161057d565b60008083610120015160018111156140c557634e487b7160e01b600052602160045260246000fd5b1480156140f65750600182610120015160018111156140f457634e487b7160e01b600052602160045260246000fd5b145b80156141495750816101000151600181111561412257634e487b7160e01b600052602160045260246000fd5b836101000151600181111561414757634e487b7160e01b600052602160045260246000fd5b145b801561417057508161022001516001600160a01b03168361022001516001600160a01b0316145b80156141aa575060408201516001600160a01b031615806141aa575082602001516001600160a01b031682604001516001600160a01b0316145b80156141e4575060408301516001600160a01b031615806141e4575081602001516001600160a01b031683604001516001600160a01b0316145b801561423f575060e08201516001600160a01b0316158015614212575060e08301516001600160a01b031615155b8061423f575060e08201516001600160a01b03161580159061423f575060e08301516001600160a01b0316155b801561426657508161016001516001600160a01b03168361016001516001600160a01b0316145b80156142b95750816101800151600181111561429257634e487b7160e01b600052602160045260246000fd5b83610180015160018111156142b757634e487b7160e01b600052602160045260246000fd5b145b80156142d457506142d4836102800151846102a00151614c32565b80156105465750610546826102800151836102a00151614c32565b81518351146143405760405162461bcd60e51b815260206004820152601d60248201527f417272617973206861766520646966666572656e74206c656e67746873000000604482015260640161057d565b805183511461439f5760405162461bcd60e51b815260206004820152602560248201527f417272617920616e64206d61736b206861766520646966666572656e74206c656044820152646e6774687360d81b606482015260840161057d565b6000602084516143af9190615924565b905060006143be826020615944565b9050816143cc602083615924565b146143e757634e487b7160e01b600052600160045260246000fd5b60005b828110156144245780600101602002808501518187015181168289015182191617828901525050808061441c9061597a565b9150506143ea565b8215614451578290508060010160200280850151818701518116828901518219161782890152505061455b565b50805b855181101561455b5784818151811061447d57634e487b7160e01b600052603260045260246000fd5b602001015160f81c60f81b8482815181106144a857634e487b7160e01b600052603260045260246000fd5b602001015160f81c60f81b168682815181106144d457634e487b7160e01b600052603260045260246000fd5b602001015160f81c60f81b8583815181106144ff57634e487b7160e01b600052603260045260246000fd5b602001015160f81c60f81b60ff60f81b18161786828151811061453257634e487b7160e01b600052603260045260246000fd5b60200101906001600160f81b031916908160001a905350806145538161597a565b915050614454565b505050505050565b81518151600091600191811480831461457f57600092506145bd565b600160208701838101602088015b6002848385100114156145b85780518351146145ac5760009650600093505b6020928301920161458d565b505050505b5090949350505050565b6102208101516000906001600160a01b0316156145e95734156145e957600080fd5b60006145f58484613e85565b905060008111801561461457506102208301516001600160a01b031615155b15614632576146328361022001518560200151856020015184614c4e565b60e0830151819081906001600160a01b03161561497f5785608001518560800151111561465e57600080fd5b6001856101000151600181111561468557634e487b7160e01b600052602160045260246000fd5b1415614951578560c001518560c0015111156146a057600080fd5b6060850151156147475760006127108487606001516146bf9190615944565b6146c99190615924565b6102208701519091506001600160a01b031661472c576146e98184615963565b60e08701516040519194506001600160a01b03169082156108fc029083906000818181858888f19350505050158015614726573d6000803e3d6000fd5b50614745565b61474586610220015187602001518860e0015184614c4e565b505b6080850151156147ee5760006127108487608001516147669190615944565b6147709190615924565b6102208701519091506001600160a01b03166147d357614790818361590c565b60e08701516040519193506001600160a01b03169082156108fc029083906000818181858888f193505050501580156147cd573d6000803e3d6000fd5b506147ec565b6147ec86610220015188602001518860e0015184614c4e565b505b60a08501511561489d576000612710848760a0015161480d9190615944565b6148179190615924565b6102208701519091506001600160a01b0316614878576148378184615963565b6008546040519194506001600160a01b03169082156108fc029083906000818181858888f19350505050158015614872573d6000803e3d6000fd5b5061489b565b610220860151602087015160085461489b9291906001600160a01b031684614c4e565b505b60c08501511561494c576000612710848760c001516148bc9190615944565b6148c69190615924565b6102208701519091506001600160a01b0316614927576148e6818361590c565b6008546040519193506001600160a01b03169082156108fc029083906000818181858888f19350505050158015614921573d6000803e3d6000fd5b5061494a565b610220860151602088015160085461494a9291906001600160a01b031684614c4e565b505b614b44565b61496885602001518660e001518760600151614cf9565b61494c86602001518660e001518760800151614cf9565b84608001518660800151111561499457600080fd5b600185610100015160018111156149bb57634e487b7160e01b600052602160045260246000fd5b1415614b16576102208501516001600160a01b03166149d957600080fd5b8460c001518660c0015111156149ee57600080fd5b606086015115614a34576000612710848860600151614a0d9190615944565b614a179190615924565b9050614a3286610220015188602001518960e0015184614c4e565b505b608086015115614a7a576000612710848860800151614a539190615944565b614a5d9190615924565b9050614a7886610220015187602001518960e0015184614c4e565b505b60a086015115614ac9576000612710848860a00151614a999190615944565b614aa39190615924565b6102208701516020890151600854929350614ac7926001600160a01b031684614c4e565b505b60c08601511561494c576000612710848860c00151614ae89190615944565b614af29190615924565b610220870151602088015160085492935061494a926001600160a01b031684614c4e565b614b2d86602001518760e001518860600151614cf9565b614b4485602001518760e001518860800151614cf9565b6102208501516001600160a01b03166145bd5780341015614b6457600080fd5b84602001516001600160a01b03166108fc839081150290604051600060405180830381858888f19350505050158015614ba1573d6000803e3d6000fd5b506000614bae8234615963565b90508015614bf55786602001516001600160a01b03166108fc829081150290604051600060405180830381858888f19350505050158015614bf3573d6000803e3d6000fd5b505b505090949350505050565b600080836001811115614c2357634e487b7160e01b600052602160045260246000fd5b14806105465750501515919050565b6000428310801561054657508115806105465750504210919050565b8015614cf357600354604051630aed65f560e11b81526001600160a01b0386811660048301528581166024830152848116604483015260648201849052909116906315dacbea90608401602060405180830381600087803b158015614cb257600080fd5b505af1158015614cc6573d6000803e3d6000fd5b505050506040513d601f19601f82011682018060405250810190614cea919061570d565b614cf357600080fd5b50505050565b600154614d11906001600160a01b0316848484614c4e565b505050565b600082601f830112614d26578081fd5b6040516101c08082018281106001600160401b0382111715614d4a57614d4a6159ab565b6040528184828101871015614d5d578485fd5b8492505b600e831015614d8a578035614d75816159e2565b82526001929092019160209182019101614d61565b509195945050505050565b600082601f830112614da5578081fd5b60405160e081018181106001600160401b0382111715614dc757614dc76159ab565b604052808360e08101861015614ddb578384fd5b835b6007811015614d8a578135614df1816159e2565b83526020928301929190910190600101614ddd565b600082601f830112614e16578081fd5b60405160a081018181106001600160401b0382111715614e3857614e386159ab565b604052808360a08101861015614e4c578384fd5b835b6005811015614d8a578135835260209283019290910190600101614e4e565b600082601f830112614e7d578081fd5b6040516102408082018281106001600160401b0382111715614ea157614ea16159ab565b6040528184828101871015614eb4578485fd5b8492505b6012831015614d8a57803582526001929092019160209182019101614eb8565b600082601f830112614ee8578081fd5b6040516101208082018281106001600160401b0382111715614f0c57614f0c6159ab565b6040528184828101871015614f1f578485fd5b8492505b6009831015614d8a57803582526001929092019160209182019101614f23565b600082601f830112614f53578081fd5b604051604081018181106001600160401b0382111715614f7557614f756159ab565b8060405250808385604086011115614f8b578384fd5b835b6002811015614d8a57614f9f826150cb565b83526020928301929190910190600101614f8d565b600082601f830112614fc4578081fd5b6040516101008082018281106001600160401b0382111715614fe857614fe86159ab565b6040528184828101871015614ffb578485fd5b8492505b6008831015614d8a57615011816150cb565b82526001929092019160209182019101614fff565b8035615031816159f7565b919050565b600082601f830112615046578081fd5b81356001600160401b0380821115615060576150606159ab565b604051601f8301601f19908116603f01168101908282118183101715615088576150886159ab565b816040528381528660208588010111156150a0578485fd5b8360208701602083013792830160200193909352509392505050565b80356002811061503157600080fd5b803560ff8116811461503157600080fd5b6000602082840312156150ed578081fd5b8135610546816159e2565b600060208284031215615109578081fd5b8151610546816159e2565b600080600060608486031215615128578182fd5b8335615133816159e2565b925060208401356001600160401b038082111561514e578384fd5b61515a87838801615036565b9350604086013591508082111561516f578283fd5b5061517c86828701615036565b9150509250925092565b60008060008060008060008060006105c08a8c0312156151a4578687fd5b6151ae8b8b614d16565b98506151be8b6101c08c01614e6d565b97506151ce8b6104008c01614fb4565b96506105008a01356001600160401b03808211156151ea578687fd5b6151f68d838e01615036565b97506105208c013591508082111561520c578687fd5b6152188d838e01615036565b96506105408c013591508082111561522e578586fd5b61523a8d838e01615036565b95506105608c0135915080821115615250578485fd5b61525c8d838e01615036565b94506105808c0135915080821115615272578384fd5b61527e8d838e01615036565b93506105a08c0135915080821115615294578283fd5b506152a18c828d01615036565b9150509295985092959850929598565b60008060008060008060008060008060006106a08c8e0312156152d2578485fd5b6152dc8d8d614d16565b9a506152ec8d6101c08e01614e6d565b99506152fc8d6104008e01614fb4565b98506001600160401b03806105008e01351115615317578586fd5b6153288e6105008f01358f01615036565b9850806105208e0135111561533b578586fd5b61534c8e6105208f01358f01615036565b9750806105408e0135111561535f578586fd5b6153708e6105408f01358f01615036565b9650806105608e01351115615383578586fd5b6153948e6105608f01358f01615036565b9550806105808e013511156153a7578283fd5b6153b88e6105808f01358f01615036565b9450806105a08e013511156153cb578283fd5b506153dd8d6105a08e01358e01615036565b92506153ed8d6105c08e01614f43565b91506153fd8d6106008e01614e06565b90509295989b509295989b9093969950565b60008060008060008060008060006102e08a8c03121561542d578283fd5b6154378b8b614d95565b98506154468b60e08c01614ed8565b97506154556102008b016150bc565b96506154646102208b016150bc565b95506154736102408b016150bc565b94506154826102608b016150bc565b93506102808a01356001600160401b038082111561549e578485fd5b6154aa8d838e01615036565b94506102a08c01359150808211156154c0578384fd5b6154cc8d838e01615036565b93506102c08c0135915080821115615294578283fd5b6000806000806000806000806000806103008b8d031215615501578384fd5b61550b8c8c614d95565b995061551a8c60e08d01614ed8565b98506155296102008c016150bc565b97506155386102208c016150bc565b96506155476102408c016150bc565b95506155566102608c016150bc565b94506102808b01356001600160401b0380821115615572578586fd5b61557e8e838f01615036565b95506102a08d0135915080821115615594578485fd5b6155a08e838f01615036565b94506102c08d01359150808211156155b6578384fd5b506155c38d828e01615036565b9250506155d36102e08c01615026565b90509295989b9194979a5092959850565b6000806000806000806000806000806000806103408d8f031215615606578586fd5b6156108e8e614d95565b9b5061561f8e60e08f01614ed8565b9a5061562e6102008e016150bc565b995061563d6102208e016150bc565b985061564c6102408e016150bc565b975061565b6102608e016150bc565b96506001600160401b036102808e01351115615675578586fd5b6156868e6102808f01358f01615036565b95506001600160401b036102a08e013511156156a0578081fd5b6156b18e6102a08f01358f01615036565b94506001600160401b036102c08e013511156156cb578081fd5b6156dc8e6102c08f01358f01615036565b93506156eb6102e08e016150cb565b92506103008d013591506103208d013590509295989b509295989b509295989b565b60006020828403121561571e578081fd5b8151610546816159f7565b60006020828403121561573a578081fd5b5035919050565b60008151808452815b818110156157665760208185018101518683018201520161574a565b818111156157775782602083870101525b50601f01601f19169290920160200192915050565b6001600160a01b038b811682528a81166020830152604082018a9052606082018990526080820188905260a082018790526101408201906157cc876159c1565b8660c08401526157db866159c1565b8560e08401526157ea856159c1565b84610100840152808416610120840152509b9a5050505050505050505050565b6001600160a01b038416815261581f836159c1565b826020820152606060408201526000613f0d6060830184615741565b60006101806158498f6159c1565b8e835280602084015261585e8184018f615741565b90508281036040840152615872818e615741565b6001600160a01b038d811660608601528482036080860152909150615897828d615741565b9a1660a0840152505060c081019690965260e086019490945261010085019290925261012084015261014083015215156101609091015295945050505050565b6020808252818101527f4f776e61626c653a2063616c6c6572206973206e6f7420746865206f776e6572604082015260600190565b6000821982111561591f5761591f615995565b500190565b60008261593f57634e487b7160e01b81526012600452602481fd5b500490565b600081600019048311821515161561595e5761595e615995565b500290565b60008282101561597557615975615995565b500390565b600060001982141561598e5761598e615995565b5060010190565b634e487b7160e01b600052601160045260246000fd5b634e487b7160e01b600052604160045260246000fd5b600281106159df57634e487b7160e01b600052602160045260246000fd5b50565b6001600160a01b03811681146159df57600080fd5b80151581146159df57600080fdfea26469706673582212203da4a6510a461b261b56e13793209c1d3634f75958f32fd6e69a787723b1631464736f6c63430008040033",
  "immutableReferences": {},
  "source": "/*\n  \n  Exchange contract. This is an outer contract with public or convenience functions and includes no state-modifying functions.\n \n*/\n\npragma solidity 0.8.4;\n\nimport \"./ExchangeCore.sol\";\n\n/**\n * @title Exchange\n */\ncontract Exchange is ExchangeCore {\n\n//    /**\n//     * @dev Call guardedArrayReplace - library function exposed for testing.\n//     */\n//    function guardedArrayReplace(bytes memory array, bytes memory desired, bytes memory mask)\n//        public\n//        pure\n//        returns (bytes memory)\n//    {\n//        ArrayUtils.guardedArrayReplace(array, desired, mask);\n//        return array;\n//    }\n//\n//    /**\n//     * Test copy byte array\n//     *\n//     * @param arrToCopy Array to copy\n//     * @return byte array\n//     */\n//    function testCopy(bytes memory arrToCopy)\n//        public\n//        pure\n//        returns (bytes memory)\n//    {\n//        bytes memory arr = new bytes(arrToCopy.length);\n//        uint index;\n//        assembly {\n//            index := add(arr, 0x20)\n//        }\n//        ArrayUtils.unsafeWriteBytes(index, arrToCopy);\n//        return arr;\n//    }\n//\n//    /**\n//     * Test write address to bytes\n//     *\n//     * @param addr Address to write\n//     * @return byte array\n//     */\n//    function testCopyAddress(address addr)\n//        public\n//        pure\n//        returns (bytes memory)\n//    {\n//        bytes memory arr = new bytes(0x14);\n//        uint index;\n//        assembly {\n//            index := add(arr, 0x20)\n//        }\n//        ArrayUtils.unsafeWriteAddress(index, addr);\n//        return arr;\n//    }\n//\n//    /**\n//     * @dev Call calculateFinalPrice - library function exposed for testing.\n//     */\n//    function calculateFinalPrice(SaleKindInterface.Side side, SaleKindInterface.SaleKind saleKind, uint basePrice, uint extra, uint listingTime, uint expirationTime)\n//        public\n//        view\n//        returns (uint)\n//    {\n//        return SaleKindInterface.calculateFinalPrice(side, saleKind, basePrice, extra, listingTime, expirationTime);\n//    }\n\n    /**\n     * @dev Call hashOrder - Solidity ABI encoding limitation workaround, hopefully temporary.\n     */\n    function hashOrder_(\n        address[7] memory addrs,\n        uint[9] memory uints,\n        FeeMethod feeMethod,\n        SaleKindInterface.Side side,\n        SaleKindInterface.SaleKind saleKind,\n        AuthenticatedProxy.HowToCall howToCall,\n        bytes memory callData,\n        bytes memory replacementPattern,\n        bytes memory staticExtradata)\n        public\n        pure\n        returns (bytes32)\n    {\n        return hashOrder(\n          Order(addrs[0], addrs[1], addrs[2], uints[0], uints[1], uints[2], uints[3], addrs[3], feeMethod, side, saleKind, addrs[4], howToCall, callData, replacementPattern, addrs[5], staticExtradata, address(ERC20(addrs[6])), uints[4], uints[5], uints[6], uints[7], uints[8])\n        );\n    }\n\n    /**\n     * @dev Call hashToSign - Solidity ABI encoding limitation workaround, hopefully temporary.\n     */\n    function hashToSign_(\n        address[7] memory addrs,\n        uint[9] memory uints,\n        FeeMethod feeMethod,\n        SaleKindInterface.Side side,\n        SaleKindInterface.SaleKind saleKind,\n        AuthenticatedProxy.HowToCall howToCall,\n        bytes memory callData,\n        bytes memory replacementPattern,\n        bytes memory staticExtradata)\n        public\n        pure\n        returns (bytes32)\n    { \n        return hashToSign(\n          Order(addrs[0], addrs[1], addrs[2], uints[0], uints[1], uints[2], uints[3], addrs[3], feeMethod, side, saleKind, addrs[4], howToCall, callData, replacementPattern, addrs[5], staticExtradata, address(ERC20(addrs[6])), uints[4], uints[5], uints[6], uints[7], uints[8])\n        );\n    }\n\n    /**\n     * @dev Call validateOrderParameters - Solidity ABI encoding limitation workaround, hopefully temporary.\n     */\n    function validateOrderParameters_ (\n        address[7] memory addrs,\n        uint[9] memory uints,\n        FeeMethod feeMethod,\n        SaleKindInterface.Side side,\n        SaleKindInterface.SaleKind saleKind,\n        AuthenticatedProxy.HowToCall howToCall,\n        bytes memory callData,\n        bytes memory replacementPattern,\n        bytes memory staticExtradata)\n        view\n        public\n        returns (bool)\n    {\n        Order memory order = Order(addrs[0], addrs[1], addrs[2], uints[0], uints[1], uints[2], uints[3], addrs[3], feeMethod, side, saleKind, addrs[4], howToCall, callData, replacementPattern, addrs[5], staticExtradata, address(ERC20(addrs[6])), uints[4], uints[5], uints[6], uints[7], uints[8]);\n        return validateOrderParameters(\n          order\n        );\n    }\n\n    /**\n     * @dev Call validateOrder - Solidity ABI encoding limitation workaround, hopefully temporary.\n     */\n    function validateOrder_ (\n        address[7] memory addrs,\n        uint[9] memory uints,\n        FeeMethod feeMethod,\n        SaleKindInterface.Side side,\n        SaleKindInterface.SaleKind saleKind,\n        AuthenticatedProxy.HowToCall howToCall,\n        bytes memory callData,\n        bytes memory replacementPattern,\n        bytes memory staticExtradata,\n        uint8 v,\n        bytes32 r,\n        bytes32 s)\n        view\n        public\n        returns (bool)\n    {\n        Order memory order = Order(addrs[0], addrs[1], addrs[2], uints[0], uints[1], uints[2], uints[3], addrs[3], feeMethod, side, saleKind, addrs[4], howToCall, callData, replacementPattern, addrs[5], staticExtradata, address(ERC20(addrs[6])), uints[4], uints[5], uints[6], uints[7], uints[8]);\n        return validateOrder(\n          hashToSign(order),\n          order,\n          Sig(v, r, s)\n        );\n    }\n\n    /**\n     * @dev Call approveOrder - Solidity ABI encoding limitation workaround, hopefully temporary.\n     */\n    function approveOrder_ (\n        address[7] memory addrs,\n        uint[9] memory uints,\n        FeeMethod feeMethod,\n        SaleKindInterface.Side side,\n        SaleKindInterface.SaleKind saleKind,\n        AuthenticatedProxy.HowToCall howToCall,\n        bytes memory callData,\n        bytes memory replacementPattern,\n        bytes memory staticExtradata,\n        bool orderbookInclusionDesired)\n        public\n    {\n        Order memory order = Order(addrs[0], addrs[1], addrs[2], uints[0], uints[1], uints[2], uints[3], addrs[3], feeMethod, side, saleKind, addrs[4], howToCall, callData, replacementPattern, addrs[5], staticExtradata, address(ERC20(addrs[6])), uints[4], uints[5], uints[6], uints[7], uints[8]);\n        return approveOrder(order, orderbookInclusionDesired);\n    }\n\n    /**\n     * @dev Call cancelOrder - Solidity ABI encoding limitation workaround, hopefully temporary.\n     */\n    function cancelOrder_(\n        address[7] memory addrs,\n        uint[9] memory uints,\n        FeeMethod feeMethod,\n        SaleKindInterface.Side side,\n        SaleKindInterface.SaleKind saleKind,\n        AuthenticatedProxy.HowToCall howToCall,\n        bytes memory callData,\n        bytes memory replacementPattern,\n        bytes memory staticExtradata,\n        uint8 v,\n        bytes32 r,\n        bytes32 s)\n        public\n    {\n\n        return cancelOrder(\n          Order(addrs[0], addrs[1], addrs[2], uints[0], uints[1], uints[2], uints[3], addrs[3], feeMethod, side, saleKind, addrs[4], howToCall, callData, replacementPattern, addrs[5], staticExtradata, address(ERC20(addrs[6])), uints[4], uints[5], uints[6], uints[7], uints[8]),\n          Sig(v, r, s)\n        );\n    }\n\n    /**\n     * @dev Call calculateCurrentPrice - Solidity ABI encoding limitation workaround, hopefully temporary.\n     */\n    function calculateCurrentPrice_(\n        address[7] memory addrs,\n        uint[9] memory uints,\n        FeeMethod feeMethod,\n        SaleKindInterface.Side side,\n        SaleKindInterface.SaleKind saleKind,\n        AuthenticatedProxy.HowToCall howToCall,\n        bytes memory callData,\n        bytes memory replacementPattern,\n        bytes memory staticExtradata)\n        public\n        view\n        returns (uint)\n    {\n        return calculateCurrentPrice(\n          Order(addrs[0], addrs[1], addrs[2], uints[0], uints[1], uints[2], uints[3], addrs[3], feeMethod, side, saleKind, addrs[4], howToCall, callData, replacementPattern, addrs[5], staticExtradata, address(ERC20(addrs[6])), uints[4], uints[5], uints[6], uints[7], uints[8])\n        );\n    }\n\n//    /**\n//     * @dev Call ordersCanMatch - Solidity ABI encoding limitation workaround, hopefully temporary.\n//     */\n//    function ordersCanMatch_(\n//        address[14] memory addrs,\n//        uint[18] memory uints,\n//        uint8[8] memory feeMethodsSidesKindsHowToCalls,\n//        bytes memory callDataBuy,\n//        bytes memory callDataSell,\n//        bytes memory replacementPatternBuy,\n//        bytes memory replacementPatternSell,\n//        bytes memory staticExtradataBuy,\n//        bytes memory staticExtradataSell)\n//        public\n//        view\n//        returns (bool)\n//    {\n//        Order memory buy = Order(addrs[0], addrs[1], addrs[2], uints[0], uints[1], uints[2], uints[3], addrs[3], FeeMethod(feeMethodsSidesKindsHowToCalls[0]), SaleKindInterface.Side(feeMethodsSidesKindsHowToCalls[1]), SaleKindInterface.SaleKind(feeMethodsSidesKindsHowToCalls[2]), addrs[4], AuthenticatedProxy.HowToCall(feeMethodsSidesKindsHowToCalls[3]), callDataBuy, replacementPatternBuy, addrs[5], staticExtradataBuy, address(ERC20(addrs[6])), uints[4], uints[5], uints[6], uints[7], uints[8]);\n//        Order memory sell = Order(addrs[7], addrs[8], addrs[9], uints[9], uints[10], uints[11], uints[12], addrs[10], FeeMethod(feeMethodsSidesKindsHowToCalls[4]), SaleKindInterface.Side(feeMethodsSidesKindsHowToCalls[5]), SaleKindInterface.SaleKind(feeMethodsSidesKindsHowToCalls[6]), addrs[11], AuthenticatedProxy.HowToCall(feeMethodsSidesKindsHowToCalls[7]), callDataSell, replacementPatternSell, addrs[12], staticExtradataSell, address(ERC20(addrs[13])), uints[13], uints[14], uints[15], uints[16], uints[17]);\n//        return ordersCanMatch(\n//          buy,\n//          sell\n//        );\n//    }\n\n//    /**\n//     * @dev Return whether or not two orders' callData specifications can match\n//     * @param buyCalldata Buy-side order callData\n//     * @param buyReplacementPattern Buy-side order callData replacement mask\n//     * @param sellCalldata Sell-side order callData\n//     * @param sellReplacementPattern Sell-side order callData replacement mask\n//     * @return Whether the orders' callData can be matched\n//     */\n//    function orderCalldataCanMatch(bytes memory buyCalldata, bytes memory buyReplacementPattern, bytes memory sellCalldata, bytes memory sellReplacementPattern)\n//        public\n//        pure\n//        returns (bool)\n//    {\n//        if (buyReplacementPattern.length > 0) {\n//          ArrayUtils.guardedArrayReplace(buyCalldata, sellCalldata, buyReplacementPattern);\n//        }\n//        if (sellReplacementPattern.length > 0) {\n//          ArrayUtils.guardedArrayReplace(sellCalldata, buyCalldata, sellReplacementPattern);\n//        }\n//        return ArrayUtils.arrayEq(buyCalldata, sellCalldata);\n//    }\n\n    /**\n     * @dev Call calculateMatchPrice - Solidity ABI encoding limitation workaround, hopefully temporary.\n     */\n    function calculateMatchPrice_(\n        address[14] memory addrs,\n        uint[18] memory uints,\n        uint8[8] memory feeMethodsSidesKindsHowToCalls,\n        bytes memory callDataBuy,\n        bytes memory callDataSell,\n        bytes memory replacementPatternBuy,\n        bytes memory replacementPatternSell,\n        bytes memory staticExtradataBuy,\n        bytes memory staticExtradataSell)\n        public\n        view\n        returns (uint)\n    {\n        Order memory buy = Order(addrs[0], addrs[1], addrs[2], uints[0], uints[1], uints[2], uints[3], addrs[3], FeeMethod(feeMethodsSidesKindsHowToCalls[0]), SaleKindInterface.Side(feeMethodsSidesKindsHowToCalls[1]), SaleKindInterface.SaleKind(feeMethodsSidesKindsHowToCalls[2]), addrs[4], AuthenticatedProxy.HowToCall(feeMethodsSidesKindsHowToCalls[3]), callDataBuy, replacementPatternBuy, addrs[5], staticExtradataBuy, address(ERC20(addrs[6])), uints[4], uints[5], uints[6], uints[7], uints[8]);\n        Order memory sell = Order(addrs[7], addrs[8], addrs[9], uints[9], uints[10], uints[11], uints[12], addrs[10], FeeMethod(feeMethodsSidesKindsHowToCalls[4]), SaleKindInterface.Side(feeMethodsSidesKindsHowToCalls[5]), SaleKindInterface.SaleKind(feeMethodsSidesKindsHowToCalls[6]), addrs[11], AuthenticatedProxy.HowToCall(feeMethodsSidesKindsHowToCalls[7]), callDataSell, replacementPatternSell, addrs[12], staticExtradataSell, address(ERC20(addrs[13])), uints[13], uints[14], uints[15], uints[16], uints[17]);\n        return calculateMatchPrice(\n          buy,\n          sell\n        );\n    }\n\n    /**\n     * @dev Call atomicMatch - Solidity ABI encoding limitation workaround, hopefully temporary.\n     */\n    function atomicMatch_(\n        address[14] memory addrs,\n        uint[18] memory uints,\n        uint8[8] memory feeMethodsSidesKindsHowToCalls,\n        bytes memory callDataBuy,\n        bytes memory callDataSell,\n        bytes memory replacementPatternBuy,\n        bytes memory replacementPatternSell,\n        bytes memory staticExtradataBuy,\n        bytes memory staticExtradataSell,\n        uint8[2] memory vs,\n        bytes32[5] memory rssMetadata)\n        public\n        payable\n    {\n\n        return atomicMatch(\n          Order(addrs[0], addrs[1], addrs[2], uints[0], uints[1], uints[2], uints[3], addrs[3], FeeMethod(feeMethodsSidesKindsHowToCalls[0]), SaleKindInterface.Side(feeMethodsSidesKindsHowToCalls[1]), SaleKindInterface.SaleKind(feeMethodsSidesKindsHowToCalls[2]), addrs[4], AuthenticatedProxy.HowToCall(feeMethodsSidesKindsHowToCalls[3]), callDataBuy, replacementPatternBuy, addrs[5], staticExtradataBuy, address(ERC20(addrs[6])), uints[4], uints[5], uints[6], uints[7], uints[8]),\n          Sig(vs[0], rssMetadata[0], rssMetadata[1]),\n          Order(addrs[7], addrs[8], addrs[9], uints[9], uints[10], uints[11], uints[12], addrs[10], FeeMethod(feeMethodsSidesKindsHowToCalls[4]), SaleKindInterface.Side(feeMethodsSidesKindsHowToCalls[5]), SaleKindInterface.SaleKind(feeMethodsSidesKindsHowToCalls[6]), addrs[11], AuthenticatedProxy.HowToCall(feeMethodsSidesKindsHowToCalls[7]), callDataSell, replacementPatternSell, addrs[12], staticExtradataSell, address(ERC20(addrs[13])), uints[13], uints[14], uints[15], uints[16], uints[17]),\n          Sig(vs[1], rssMetadata[2], rssMetadata[3]),\n          rssMetadata[4]\n        );\n    }\n\n}\n",
  "sourcePath": "/home/toor/nodejs/truffle/nft_demo/taudefi/taudefi-nft-protocol/contracts/exchange/Exchange.sol",
  "compiler": {
    "name": "solc",
    "version": "0.8.4+commit.c7e474f2.Emscripten.clang"
  },
  "schemaVersion": "3.4.1",
  "updatedAt": "2021-07-20T04:04:06.831Z",
  "devdoc": {
    "kind": "dev",
    "methods": {
      "approveOrder_(address[7],uint256[9],uint8,uint8,uint8,uint8,bytes,bytes,bytes,bool)": {
        "details": "Call approveOrder - Solidity ABI encoding limitation workaround, hopefully temporary."
      },
      "atomicMatch_(address[14],uint256[18],uint8[8],bytes,bytes,bytes,bytes,bytes,bytes,uint8[2],bytes32[5])": {
        "details": "Call atomicMatch - Solidity ABI encoding limitation workaround, hopefully temporary."
      },
      "calculateCurrentPrice_(address[7],uint256[9],uint8,uint8,uint8,uint8,bytes,bytes,bytes)": {
        "details": "Call calculateCurrentPrice - Solidity ABI encoding limitation workaround, hopefully temporary."
      },
      "calculateMatchPrice_(address[14],uint256[18],uint8[8],bytes,bytes,bytes,bytes,bytes,bytes)": {
        "details": "Call calculateMatchPrice - Solidity ABI encoding limitation workaround, hopefully temporary."
      },
      "cancelOrder_(address[7],uint256[9],uint8,uint8,uint8,uint8,bytes,bytes,bytes,uint8,bytes32,bytes32)": {
        "details": "Call cancelOrder - Solidity ABI encoding limitation workaround, hopefully temporary."
      },
      "changeMinimumMakerProtocolFee(uint256)": {
        "details": "Change the minimum maker fee paid to the protocol (owner only)",
        "params": {
          "newMinimumMakerProtocolFee": "New fee to set in basis points"
        }
      },
      "changeMinimumTakerProtocolFee(uint256)": {
        "details": "Change the minimum taker fee paid to the protocol (owner only)",
        "params": {
          "newMinimumTakerProtocolFee": "New fee to set in basis points"
        }
      },
      "changeProtocolFeeRecipient(address)": {
        "details": "Change the protocol fee recipient (owner only)",
        "params": {
          "newProtocolFeeRecipient": "New protocol fee recipient address"
        }
      },
      "hashOrder_(address[7],uint256[9],uint8,uint8,uint8,uint8,bytes,bytes,bytes)": {
        "details": "Call hashOrder - Solidity ABI encoding limitation workaround, hopefully temporary."
      },
      "hashToSign_(address[7],uint256[9],uint8,uint8,uint8,uint8,bytes,bytes,bytes)": {
        "details": "Call hashToSign - Solidity ABI encoding limitation workaround, hopefully temporary."
      },
      "owner()": {
        "details": "Returns the address of the current owner."
      },
      "renounceOwnership()": {
        "details": "Leaves the contract without owner. It will not be possible to call `onlyOwner` functions anymore. Can only be called by the current owner. NOTE: Renouncing ownership will leave the contract without an owner, thereby removing any functionality that is only available to the owner."
      },
      "staticCall(address,bytes,bytes)": {
        "details": "Execute a STATICCALL (introduced with Ethereum Metropolis, non-state-modifying external call)",
        "params": {
          "callData": "Calldata (appended to extradata)",
          "extradata": "Base data for STATICCALL (probably function selector and argument encoding)",
          "target": "Contract to call"
        },
        "returns": {
          "result": "of the call (success or failure)"
        }
      },
      "transferOwnership(address)": {
        "details": "Transfers ownership of the contract to a new account (`newOwner`). Can only be called by the current owner."
      },
      "validateOrderParameters_(address[7],uint256[9],uint8,uint8,uint8,uint8,bytes,bytes,bytes)": {
        "details": "Call validateOrderParameters - Solidity ABI encoding limitation workaround, hopefully temporary."
      },
      "validateOrder_(address[7],uint256[9],uint8,uint8,uint8,uint8,bytes,bytes,bytes,uint8,bytes32,bytes32)": {
        "details": "Call validateOrder - Solidity ABI encoding limitation workaround, hopefully temporary."
      }
    },
    "title": "Exchange",
    "version": 1
  },
  "userdoc": {
    "kind": "user",
    "methods": {},
    "version": 1
  }
}