{
  "contractName": "L7Exchange",
  "abi": [
    {
      "inputs": [
        {
          "internalType": "contract ProxyRegistry",
          "name": "registryAddress",
          "type": "address"
        },
        {
          "internalType": "contract TokenTransferProxy",
          "name": "tokenTransferProxyAddress",
          "type": "address"
        },
        {
          "internalType": "contract ERC20",
          "name": "tokenAddress",
          "type": "address"
        },
        {
          "internalType": "address",
          "name": "protocolFeeAddress",
          "type": "address"
        }
      ],
      "stateMutability": "nonpayable",
      "type": "constructor"
    },
    {
      "anonymous": false,
      "inputs": [
        {
          "indexed": true,
          "internalType": "bytes32",
          "name": "hash",
          "type": "bytes32"
        },
        {
          "indexed": false,
          "internalType": "address",
          "name": "exchange",
          "type": "address"
        },
        {
          "indexed": true,
          "internalType": "address",
          "name": "maker",
          "type": "address"
        },
        {
          "indexed": false,
          "internalType": "address",
          "name": "taker",
          "type": "address"
        },
        {
          "indexed": false,
          "internalType": "uint256",
          "name": "makerRelayerFee",
          "type": "uint256"
        },
        {
          "indexed": false,
          "internalType": "uint256",
          "name": "takerRelayerFee",
          "type": "uint256"
        },
        {
          "indexed": false,
          "internalType": "uint256",
          "name": "makerProtocolFee",
          "type": "uint256"
        },
        {
          "indexed": false,
          "internalType": "uint256",
          "name": "takerProtocolFee",
          "type": "uint256"
        },
        {
          "indexed": true,
          "internalType": "address",
          "name": "feeRecipient",
          "type": "address"
        },
        {
          "indexed": false,
          "internalType": "enum ExchangeCore.FeeMethod",
          "name": "feeMethod",
          "type": "uint8"
        },
        {
          "indexed": false,
          "internalType": "enum SaleKindInterface.Side",
          "name": "side",
          "type": "uint8"
        },
        {
          "indexed": false,
          "internalType": "enum SaleKindInterface.SaleKind",
          "name": "saleKind",
          "type": "uint8"
        },
        {
          "indexed": false,
          "internalType": "address",
          "name": "target",
          "type": "address"
        }
      ],
      "name": "OrderApprovedPartOne",
      "type": "event"
    },
    {
      "anonymous": false,
      "inputs": [
        {
          "indexed": true,
          "internalType": "bytes32",
          "name": "hash",
          "type": "bytes32"
        },
        {
          "indexed": false,
          "internalType": "enum AuthenticatedProxy.HowToCall",
          "name": "howToCall",
          "type": "uint8"
        },
        {
          "indexed": false,
          "internalType": "bytes",
          "name": "callData",
          "type": "bytes"
        },
        {
          "indexed": false,
          "internalType": "bytes",
          "name": "replacementPattern",
          "type": "bytes"
        },
        {
          "indexed": false,
          "internalType": "address",
          "name": "staticTarget",
          "type": "address"
        },
        {
          "indexed": false,
          "internalType": "bytes",
          "name": "staticExtradata",
          "type": "bytes"
        },
        {
          "indexed": false,
          "internalType": "address",
          "name": "paymentToken",
          "type": "address"
        },
        {
          "indexed": false,
          "internalType": "uint256",
          "name": "basePrice",
          "type": "uint256"
        },
        {
          "indexed": false,
          "internalType": "uint256",
          "name": "extra",
          "type": "uint256"
        },
        {
          "indexed": false,
          "internalType": "uint256",
          "name": "listingTime",
          "type": "uint256"
        },
        {
          "indexed": false,
          "internalType": "uint256",
          "name": "expirationTime",
          "type": "uint256"
        },
        {
          "indexed": false,
          "internalType": "uint256",
          "name": "salt",
          "type": "uint256"
        },
        {
          "indexed": false,
          "internalType": "bool",
          "name": "orderbookInclusionDesired",
          "type": "bool"
        }
      ],
      "name": "OrderApprovedPartTwo",
      "type": "event"
    },
    {
      "anonymous": false,
      "inputs": [
        {
          "indexed": true,
          "internalType": "bytes32",
          "name": "hash",
          "type": "bytes32"
        }
      ],
      "name": "OrderCancelled",
      "type": "event"
    },
    {
      "anonymous": false,
      "inputs": [
        {
          "indexed": false,
          "internalType": "bytes32",
          "name": "buyHash",
          "type": "bytes32"
        },
        {
          "indexed": false,
          "internalType": "bytes32",
          "name": "sellHash",
          "type": "bytes32"
        },
        {
          "indexed": true,
          "internalType": "address",
          "name": "maker",
          "type": "address"
        },
        {
          "indexed": true,
          "internalType": "address",
          "name": "taker",
          "type": "address"
        },
        {
          "indexed": false,
          "internalType": "uint256",
          "name": "price",
          "type": "uint256"
        },
        {
          "indexed": true,
          "internalType": "bytes32",
          "name": "metadata",
          "type": "bytes32"
        }
      ],
      "name": "OrdersMatched",
      "type": "event"
    },
    {
      "anonymous": false,
      "inputs": [
        {
          "indexed": true,
          "internalType": "address",
          "name": "previousOwner",
          "type": "address"
        },
        {
          "indexed": true,
          "internalType": "address",
          "name": "newOwner",
          "type": "address"
        }
      ],
      "name": "OwnershipTransferred",
      "type": "event"
    },
    {
      "anonymous": false,
      "inputs": [
        {
          "indexed": false,
          "internalType": "address",
          "name": "account",
          "type": "address"
        }
      ],
      "name": "Paused",
      "type": "event"
    },
    {
      "anonymous": false,
      "inputs": [
        {
          "indexed": false,
          "internalType": "address",
          "name": "oldTokenAddress",
          "type": "address"
        },
        {
          "indexed": false,
          "internalType": "address",
          "name": "newTokenAddress",
          "type": "address"
        }
      ],
      "name": "ProtocolTokenFeeChange",
      "type": "event"
    },
    {
      "anonymous": false,
      "inputs": [
        {
          "indexed": false,
          "internalType": "address",
          "name": "account",
          "type": "address"
        }
      ],
      "name": "Unpaused",
      "type": "event"
    },
    {
      "inputs": [],
      "name": "INVERSE_BASIS_POINT",
      "outputs": [
        {
          "internalType": "uint256",
          "name": "",
          "type": "uint256"
        }
      ],
      "stateMutability": "view",
      "type": "function",
      "constant": true
    },
    {
      "inputs": [
        {
          "internalType": "address[7]",
          "name": "addrs",
          "type": "address[7]"
        },
        {
          "internalType": "uint256[9]",
          "name": "uints",
          "type": "uint256[9]"
        },
        {
          "internalType": "enum ExchangeCore.FeeMethod",
          "name": "feeMethod",
          "type": "uint8"
        },
        {
          "internalType": "enum SaleKindInterface.Side",
          "name": "side",
          "type": "uint8"
        },
        {
          "internalType": "enum SaleKindInterface.SaleKind",
          "name": "saleKind",
          "type": "uint8"
        },
        {
          "internalType": "enum AuthenticatedProxy.HowToCall",
          "name": "howToCall",
          "type": "uint8"
        },
        {
          "internalType": "bytes",
          "name": "callData",
          "type": "bytes"
        },
        {
          "internalType": "bytes",
          "name": "replacementPattern",
          "type": "bytes"
        },
        {
          "internalType": "bytes",
          "name": "staticExtradata",
          "type": "bytes"
        },
        {
          "internalType": "bool",
          "name": "orderbookInclusionDesired",
          "type": "bool"
        }
      ],
      "name": "approveOrder_",
      "outputs": [],
      "stateMutability": "nonpayable",
      "type": "function"
    },
    {
      "inputs": [
        {
          "internalType": "bytes32",
          "name": "",
          "type": "bytes32"
        }
      ],
      "name": "approvedOrders",
      "outputs": [
        {
          "internalType": "bool",
          "name": "",
          "type": "bool"
        }
      ],
      "stateMutability": "view",
      "type": "function",
      "constant": true
    },
    {
      "inputs": [
        {
          "internalType": "address[14]",
          "name": "addrs",
          "type": "address[14]"
        },
        {
          "internalType": "uint256[18]",
          "name": "uints",
          "type": "uint256[18]"
        },
        {
          "internalType": "uint8[8]",
          "name": "feeMethodsSidesKindsHowToCalls",
          "type": "uint8[8]"
        },
        {
          "internalType": "bytes",
          "name": "callDataBuy",
          "type": "bytes"
        },
        {
          "internalType": "bytes",
          "name": "callDataSell",
          "type": "bytes"
        },
        {
          "internalType": "bytes",
          "name": "replacementPatternBuy",
          "type": "bytes"
        },
        {
          "internalType": "bytes",
          "name": "replacementPatternSell",
          "type": "bytes"
        },
        {
          "internalType": "bytes",
          "name": "staticExtradataBuy",
          "type": "bytes"
        },
        {
          "internalType": "bytes",
          "name": "staticExtradataSell",
          "type": "bytes"
        },
        {
          "internalType": "uint8[2]",
          "name": "vs",
          "type": "uint8[2]"
        },
        {
          "internalType": "bytes32[5]",
          "name": "rssMetadata",
          "type": "bytes32[5]"
        }
      ],
      "name": "atomicMatch_",
      "outputs": [],
      "stateMutability": "payable",
      "type": "function",
      "payable": true
    },
    {
      "inputs": [
        {
          "internalType": "address[7]",
          "name": "addrs",
          "type": "address[7]"
        },
        {
          "internalType": "uint256[9]",
          "name": "uints",
          "type": "uint256[9]"
        },
        {
          "internalType": "enum ExchangeCore.FeeMethod",
          "name": "feeMethod",
          "type": "uint8"
        },
        {
          "internalType": "enum SaleKindInterface.Side",
          "name": "side",
          "type": "uint8"
        },
        {
          "internalType": "enum SaleKindInterface.SaleKind",
          "name": "saleKind",
          "type": "uint8"
        },
        {
          "internalType": "enum AuthenticatedProxy.HowToCall",
          "name": "howToCall",
          "type": "uint8"
        },
        {
          "internalType": "bytes",
          "name": "callData",
          "type": "bytes"
        },
        {
          "internalType": "bytes",
          "name": "replacementPattern",
          "type": "bytes"
        },
        {
          "internalType": "bytes",
          "name": "staticExtradata",
          "type": "bytes"
        }
      ],
      "name": "calculateCurrentPrice_",
      "outputs": [
        {
          "internalType": "uint256",
          "name": "",
          "type": "uint256"
        }
      ],
      "stateMutability": "view",
      "type": "function",
      "constant": true
    },
    {
      "inputs": [
        {
          "internalType": "address[14]",
          "name": "addrs",
          "type": "address[14]"
        },
        {
          "internalType": "uint256[18]",
          "name": "uints",
          "type": "uint256[18]"
        },
        {
          "internalType": "uint8[8]",
          "name": "feeMethodsSidesKindsHowToCalls",
          "type": "uint8[8]"
        },
        {
          "internalType": "bytes",
          "name": "callDataBuy",
          "type": "bytes"
        },
        {
          "internalType": "bytes",
          "name": "callDataSell",
          "type": "bytes"
        },
        {
          "internalType": "bytes",
          "name": "replacementPatternBuy",
          "type": "bytes"
        },
        {
          "internalType": "bytes",
          "name": "replacementPatternSell",
          "type": "bytes"
        },
        {
          "internalType": "bytes",
          "name": "staticExtradataBuy",
          "type": "bytes"
        },
        {
          "internalType": "bytes",
          "name": "staticExtradataSell",
          "type": "bytes"
        }
      ],
      "name": "calculateMatchPrice_",
      "outputs": [
        {
          "internalType": "uint256",
          "name": "",
          "type": "uint256"
        }
      ],
      "stateMutability": "view",
      "type": "function",
      "constant": true
    },
    {
      "inputs": [
        {
          "internalType": "address[7]",
          "name": "addrs",
          "type": "address[7]"
        },
        {
          "internalType": "uint256[9]",
          "name": "uints",
          "type": "uint256[9]"
        },
        {
          "internalType": "enum ExchangeCore.FeeMethod",
          "name": "feeMethod",
          "type": "uint8"
        },
        {
          "internalType": "enum SaleKindInterface.Side",
          "name": "side",
          "type": "uint8"
        },
        {
          "internalType": "enum SaleKindInterface.SaleKind",
          "name": "saleKind",
          "type": "uint8"
        },
        {
          "internalType": "enum AuthenticatedProxy.HowToCall",
          "name": "howToCall",
          "type": "uint8"
        },
        {
          "internalType": "bytes",
          "name": "callData",
          "type": "bytes"
        },
        {
          "internalType": "bytes",
          "name": "replacementPattern",
          "type": "bytes"
        },
        {
          "internalType": "bytes",
          "name": "staticExtradata",
          "type": "bytes"
        },
        {
          "internalType": "uint8",
          "name": "v",
          "type": "uint8"
        },
        {
          "internalType": "bytes32",
          "name": "r",
          "type": "bytes32"
        },
        {
          "internalType": "bytes32",
          "name": "s",
          "type": "bytes32"
        }
      ],
      "name": "cancelOrder_",
      "outputs": [],
      "stateMutability": "nonpayable",
      "type": "function"
    },
    {
      "inputs": [
        {
          "internalType": "bytes32",
          "name": "",
          "type": "bytes32"
        }
      ],
      "name": "cancelledOrFinalized",
      "outputs": [
        {
          "internalType": "bool",
          "name": "",
          "type": "bool"
        }
      ],
      "stateMutability": "view",
      "type": "function",
      "constant": true
    },
    {
      "inputs": [
        {
          "internalType": "uint256",
          "name": "newMinimumMakerProtocolFee",
          "type": "uint256"
        }
      ],
      "name": "changeMinimumMakerProtocolFee",
      "outputs": [],
      "stateMutability": "nonpayable",
      "type": "function"
    },
    {
      "inputs": [
        {
          "internalType": "uint256",
          "name": "newMinimumTakerProtocolFee",
          "type": "uint256"
        }
      ],
      "name": "changeMinimumTakerProtocolFee",
      "outputs": [],
      "stateMutability": "nonpayable",
      "type": "function"
    },
    {
      "inputs": [
        {
          "internalType": "address",
          "name": "newProtocolFeeRecipient",
          "type": "address"
        }
      ],
      "name": "changeProtocolFeeRecipient",
      "outputs": [],
      "stateMutability": "nonpayable",
      "type": "function"
    },
    {
      "inputs": [
        {
          "internalType": "address",
          "name": "newTokenAddress",
          "type": "address"
        }
      ],
      "name": "changeProtocolFeeTokenAddress",
      "outputs": [],
      "stateMutability": "nonpayable",
      "type": "function"
    },
    {
      "inputs": [],
      "name": "codename",
      "outputs": [
        {
          "internalType": "string",
          "name": "",
          "type": "string"
        }
      ],
      "stateMutability": "view",
      "type": "function",
      "constant": true
    },
    {
      "inputs": [],
      "name": "exchangeToken",
      "outputs": [
        {
          "internalType": "contract ERC20",
          "name": "",
          "type": "address"
        }
      ],
      "stateMutability": "view",
      "type": "function",
      "constant": true
    },
    {
      "inputs": [
        {
          "internalType": "address[7]",
          "name": "addrs",
          "type": "address[7]"
        },
        {
          "internalType": "uint256[9]",
          "name": "uints",
          "type": "uint256[9]"
        },
        {
          "internalType": "enum ExchangeCore.FeeMethod",
          "name": "feeMethod",
          "type": "uint8"
        },
        {
          "internalType": "enum SaleKindInterface.Side",
          "name": "side",
          "type": "uint8"
        },
        {
          "internalType": "enum SaleKindInterface.SaleKind",
          "name": "saleKind",
          "type": "uint8"
        },
        {
          "internalType": "enum AuthenticatedProxy.HowToCall",
          "name": "howToCall",
          "type": "uint8"
        },
        {
          "internalType": "bytes",
          "name": "callData",
          "type": "bytes"
        },
        {
          "internalType": "bytes",
          "name": "replacementPattern",
          "type": "bytes"
        },
        {
          "internalType": "bytes",
          "name": "staticExtradata",
          "type": "bytes"
        }
      ],
      "name": "hashOrder_",
      "outputs": [
        {
          "internalType": "bytes32",
          "name": "",
          "type": "bytes32"
        }
      ],
      "stateMutability": "pure",
      "type": "function",
      "constant": true
    },
    {
      "inputs": [
        {
          "internalType": "address[7]",
          "name": "addrs",
          "type": "address[7]"
        },
        {
          "internalType": "uint256[9]",
          "name": "uints",
          "type": "uint256[9]"
        },
        {
          "internalType": "enum ExchangeCore.FeeMethod",
          "name": "feeMethod",
          "type": "uint8"
        },
        {
          "internalType": "enum SaleKindInterface.Side",
          "name": "side",
          "type": "uint8"
        },
        {
          "internalType": "enum SaleKindInterface.SaleKind",
          "name": "saleKind",
          "type": "uint8"
        },
        {
          "internalType": "enum AuthenticatedProxy.HowToCall",
          "name": "howToCall",
          "type": "uint8"
        },
        {
          "internalType": "bytes",
          "name": "callData",
          "type": "bytes"
        },
        {
          "internalType": "bytes",
          "name": "replacementPattern",
          "type": "bytes"
        },
        {
          "internalType": "bytes",
          "name": "staticExtradata",
          "type": "bytes"
        }
      ],
      "name": "hashToSign_",
      "outputs": [
        {
          "internalType": "bytes32",
          "name": "",
          "type": "bytes32"
        }
      ],
      "stateMutability": "pure",
      "type": "function",
      "constant": true
    },
    {
      "inputs": [],
      "name": "minimumMakerProtocolFee",
      "outputs": [
        {
          "internalType": "uint256",
          "name": "",
          "type": "uint256"
        }
      ],
      "stateMutability": "view",
      "type": "function",
      "constant": true
    },
    {
      "inputs": [],
      "name": "minimumTakerProtocolFee",
      "outputs": [
        {
          "internalType": "uint256",
          "name": "",
          "type": "uint256"
        }
      ],
      "stateMutability": "view",
      "type": "function",
      "constant": true
    },
    {
      "inputs": [],
      "name": "name",
      "outputs": [
        {
          "internalType": "string",
          "name": "",
          "type": "string"
        }
      ],
      "stateMutability": "view",
      "type": "function",
      "constant": true
    },
    {
      "inputs": [],
      "name": "owner",
      "outputs": [
        {
          "internalType": "address",
          "name": "",
          "type": "address"
        }
      ],
      "stateMutability": "view",
      "type": "function",
      "constant": true
    },
    {
      "inputs": [],
      "name": "pause",
      "outputs": [],
      "stateMutability": "nonpayable",
      "type": "function"
    },
    {
      "inputs": [],
      "name": "paused",
      "outputs": [
        {
          "internalType": "bool",
          "name": "",
          "type": "bool"
        }
      ],
      "stateMutability": "view",
      "type": "function",
      "constant": true
    },
    {
      "inputs": [],
      "name": "protocolFeeRecipient",
      "outputs": [
        {
          "internalType": "address",
          "name": "",
          "type": "address"
        }
      ],
      "stateMutability": "view",
      "type": "function",
      "constant": true
    },
    {
      "inputs": [],
      "name": "registry",
      "outputs": [
        {
          "internalType": "contract ProxyRegistry",
          "name": "",
          "type": "address"
        }
      ],
      "stateMutability": "view",
      "type": "function",
      "constant": true
    },
    {
      "inputs": [],
      "name": "renounceOwnership",
      "outputs": [],
      "stateMutability": "nonpayable",
      "type": "function"
    },
    {
      "inputs": [
        {
          "internalType": "address",
          "name": "target",
          "type": "address"
        },
        {
          "internalType": "bytes",
          "name": "callData",
          "type": "bytes"
        },
        {
          "internalType": "bytes",
          "name": "extradata",
          "type": "bytes"
        }
      ],
      "name": "staticCall",
      "outputs": [
        {
          "internalType": "bool",
          "name": "result",
          "type": "bool"
        }
      ],
      "stateMutability": "view",
      "type": "function",
      "constant": true
    },
    {
      "inputs": [],
      "name": "tokenTransferProxy",
      "outputs": [
        {
          "internalType": "contract TokenTransferProxy",
          "name": "",
          "type": "address"
        }
      ],
      "stateMutability": "view",
      "type": "function",
      "constant": true
    },
    {
      "inputs": [
        {
          "internalType": "address",
          "name": "newOwner",
          "type": "address"
        }
      ],
      "name": "transferOwnership",
      "outputs": [],
      "stateMutability": "nonpayable",
      "type": "function"
    },
    {
      "inputs": [],
      "name": "unPause",
      "outputs": [],
      "stateMutability": "nonpayable",
      "type": "function"
    },
    {
      "inputs": [
        {
          "internalType": "address[7]",
          "name": "addrs",
          "type": "address[7]"
        },
        {
          "internalType": "uint256[9]",
          "name": "uints",
          "type": "uint256[9]"
        },
        {
          "internalType": "enum ExchangeCore.FeeMethod",
          "name": "feeMethod",
          "type": "uint8"
        },
        {
          "internalType": "enum SaleKindInterface.Side",
          "name": "side",
          "type": "uint8"
        },
        {
          "internalType": "enum SaleKindInterface.SaleKind",
          "name": "saleKind",
          "type": "uint8"
        },
        {
          "internalType": "enum AuthenticatedProxy.HowToCall",
          "name": "howToCall",
          "type": "uint8"
        },
        {
          "internalType": "bytes",
          "name": "callData",
          "type": "bytes"
        },
        {
          "internalType": "bytes",
          "name": "replacementPattern",
          "type": "bytes"
        },
        {
          "internalType": "bytes",
          "name": "staticExtradata",
          "type": "bytes"
        }
      ],
      "name": "validateOrderParameters_",
      "outputs": [
        {
          "internalType": "bool",
          "name": "",
          "type": "bool"
        }
      ],
      "stateMutability": "view",
      "type": "function",
      "constant": true
    },
    {
      "inputs": [
        {
          "internalType": "address[7]",
          "name": "addrs",
          "type": "address[7]"
        },
        {
          "internalType": "uint256[9]",
          "name": "uints",
          "type": "uint256[9]"
        },
        {
          "internalType": "enum ExchangeCore.FeeMethod",
          "name": "feeMethod",
          "type": "uint8"
        },
        {
          "internalType": "enum SaleKindInterface.Side",
          "name": "side",
          "type": "uint8"
        },
        {
          "internalType": "enum SaleKindInterface.SaleKind",
          "name": "saleKind",
          "type": "uint8"
        },
        {
          "internalType": "enum AuthenticatedProxy.HowToCall",
          "name": "howToCall",
          "type": "uint8"
        },
        {
          "internalType": "bytes",
          "name": "callData",
          "type": "bytes"
        },
        {
          "internalType": "bytes",
          "name": "replacementPattern",
          "type": "bytes"
        },
        {
          "internalType": "bytes",
          "name": "staticExtradata",
          "type": "bytes"
        },
        {
          "internalType": "uint8",
          "name": "v",
          "type": "uint8"
        },
        {
          "internalType": "bytes32",
          "name": "r",
          "type": "bytes32"
        },
        {
          "internalType": "bytes32",
          "name": "s",
          "type": "bytes32"
        }
      ],
      "name": "validateOrder_",
      "outputs": [
        {
          "internalType": "bool",
          "name": "",
          "type": "bool"
        }
      ],
      "stateMutability": "view",
      "type": "function",
      "constant": true
    },
    {
      "inputs": [],
      "name": "version",
      "outputs": [
        {
          "internalType": "string",
          "name": "",
          "type": "string"
        }
      ],
      "stateMutability": "view",
      "type": "function",
      "constant": true
    }
  ],
  "bytecode": "0x60806040526000805460ff1916815560068190556007553480156200002357600080fd5b50604051620060ed380380620060ed8339810160408190526200004691620000ef565b60008054610100600160a81b031916336101008102919091178255604051909182917f8be0079c531659141344cd1fd0a4f28419497f9722a3daafe3b4186f6b6457e0908290a3506000805460ff60a81b19169055600280546001600160a01b039586166001600160a01b03199182161790915560038054948616948216949094179093556001805492851692841692909217909155600880549190931691161790556200016f565b6000806000806080858703121562000105578384fd5b8451620001128162000156565b6020860151909450620001258162000156565b6040860151909350620001388162000156565b60608601519092506200014b8162000156565b939692955090935050565b6001600160a01b03811681146200016c57600080fd5b50565b615f6e806200017f6000396000f3fe6080604052600436106101e35760003560e01c80637966686811610102578063a8a41c7011610095578063d537e13111610064578063d537e131146105bf578063e57d4adb146105df578063f2fde38b1461060f578063f7b188a51461062f57600080fd5b8063a8a41c7014610556578063ab834bab14610576578063ca595b9a14610589578063cae6047f146105a957600080fd5b80638076f005116100d15780638076f005146104ce5780638456cb59146104fe5780638da5cb5b14610513578063a25eb5d91461053657600080fd5b806379666868146104585780637b103999146104785780637ccefc52146104985780637d766981146104ae57600080fd5b8063514f03301161017a57806360bef33a1161014957806360bef33a146103e357806364df049e14610403578063715018a61461042357806371d02b381461043857600080fd5b8063514f03301461035557806354fd4d50146103755780635c975abb146103a45780635ef527e4146103c357600080fd5b80631a6b13e2116101b65780631a6b13e2146102bf57806328a8ee68146102df57806331e63199146103035780633f67ee0d1461033557600080fd5b806306fdde03146101e85780630eefdbad1461023557806310796a471461026d57806314350c241461029d575b600080fd5b3480156101f457600080fd5b5061021f6040518060400160405280600b81526020016a4c372045786368616e676560a81b81525081565b60405161022c9190615dcd565b60405180910390f35b34801561024157600080fd5b50600354610255906001600160a01b031681565b6040516001600160a01b03909116815260200161022c565b34801561027957600080fd5b5061028d61028836600461560a565b610644565b604051901515815260200161022c565b3480156102a957600080fd5b506102bd6102b8366004615c1f565b6106dc565b005b3480156102cb57600080fd5b506102bd6102da366004615c1f565b610744565b3480156102eb57600080fd5b506102f560075481565b60405190815260200161022c565b34801561030f57600080fd5b5061021f604051806040016040528060068152602001654c374265746160d01b81525081565b34801561034157600080fd5b506102f5610350366004615905565b6107a3565b34801561036157600080fd5b506102bd6103703660046155d2565b610afb565b34801561038157600080fd5b5061021f60405180604001604052806003815260200162302e3160e81b81525081565b3480156103b057600080fd5b50600054600160a81b900460ff1661028d565b3480156103cf57600080fd5b506102bd6103de3660046155d2565b610b77565b3480156103ef57600080fd5b5061028d6103fe366004615ada565b610c32565b34801561040f57600080fd5b50600854610255906001600160a01b031681565b34801561042f57600080fd5b506102bd610fdd565b34801561044457600080fd5b506102f5610453366004615905565b61105c565b34801561046457600080fd5b506102bd6104733660046159d8565b6113a6565b34801561048457600080fd5b50600254610255906001600160a01b031681565b3480156104a457600080fd5b506102f560065481565b3480156104ba57600080fd5b506102f56104c9366004615905565b61172b565b3480156104da57600080fd5b5061028d6104e9366004615c1f565b60046020526000908152604090205460ff1681565b34801561050a57600080fd5b506102bd611a75565b34801561051f57600080fd5b5060005461010090046001600160a01b0316610255565b34801561054257600080fd5b50600154610255906001600160a01b031681565b34801561056257600080fd5b506102bd610571366004615ada565b611aaf565b6102bd6105843660046157a7565b611e6f565b34801561059557600080fd5b5061028d6105a4366004615905565b61276a565b3480156105b557600080fd5b506102f561271081565b3480156105cb57600080fd5b506102f56105da36600461567c565b612ac7565b3480156105eb57600080fd5b5061028d6105fa366004615c1f565b60056020526000908152604090205460ff1681565b34801561061b57600080fd5b506102bd61062a3660046155d2565b6132cc565b34801561063b57600080fd5b506102bd6133c7565b600080825184516106559190615e3f565b6001600160401b0381111561067a57634e487b7160e01b600052604160045260246000fd5b6040519080825280601f01601f1916602001820160405280156106a4576020820181803683370190505b509050602081016106b581856133ff565b90506106c181866133ff565b506000604051835160208501895afa925050505b9392505050565b6000546001600160a01b036101009091041633146107155760405162461bcd60e51b815260040161070c90615e0a565b60405180910390fd5b600054600160a81b900460ff161561073f5760405162461bcd60e51b815260040161070c90615de0565b600655565b6000546001600160a01b036101009091041633146107745760405162461bcd60e51b815260040161070c90615e0a565b600054600160a81b900460ff161561079e5760405162461bcd60e51b815260040161070c90615de0565b600755565b6000610aed604051806102e001604052808c6000600781106107d557634e487b7160e01b600052603260045260246000fd5b60200201516001600160a01b031681526020018c60016007811061080957634e487b7160e01b600052603260045260246000fd5b60200201516001600160a01b031681526020018c60026007811061083d57634e487b7160e01b600052603260045260246000fd5b60200201516001600160a01b031681526020018b60006009811061087157634e487b7160e01b600052603260045260246000fd5b602002015181526020018b60016009811061089c57634e487b7160e01b600052603260045260246000fd5b602002015181526020018b6002600981106108c757634e487b7160e01b600052603260045260246000fd5b602002015181526020018b6003600981106108f257634e487b7160e01b600052603260045260246000fd5b602002015181526020018c60036007811061091d57634e487b7160e01b600052603260045260246000fd5b60200201516001600160a01b031681526020018a600181111561095057634e487b7160e01b600052602160045260246000fd5b815260200189600181111561097557634e487b7160e01b600052602160045260246000fd5b815260200188600181111561099a57634e487b7160e01b600052602160045260246000fd5b815260808d01516001600160a01b031660208201526040018760018111156109d257634e487b7160e01b600052602160045260246000fd5b8152602081018790526040810186905260a0808e01516001600160a01b0316606083015260808201869052018c600660200201516001600160a01b031681526020018b600460098110610a3557634e487b7160e01b600052603260045260246000fd5b602002015181526020018b600560098110610a6057634e487b7160e01b600052603260045260246000fd5b602002015181526020018b600660098110610a8b57634e487b7160e01b600052603260045260246000fd5b602002015181526020018b600760098110610ab657634e487b7160e01b600052603260045260246000fd5b602002015181526020018b600860098110610ae157634e487b7160e01b600052603260045260246000fd5b60200201519052613442565b9a9950505050505050505050565b6000546001600160a01b03610100909104163314610b2b5760405162461bcd60e51b815260040161070c90615e0a565b600054600160a81b900460ff1615610b555760405162461bcd60e51b815260040161070c90615de0565b600880546001600160a01b0319166001600160a01b0392909216919091179055565b6000546001600160a01b03610100909104163314610ba75760405162461bcd60e51b815260040161070c90615e0a565b600054600160a81b900460ff1615610bd15760405162461bcd60e51b815260040161070c90615de0565b600180546001600160a01b038381166001600160a01b031983168117909355604080519190921680825260208201939093527f114cfa1c61a2b039de4a4dd89821f0664d2a5dc26f70a270c615a9d14fd40632910160405180910390a15050565b600080604051806102e001604052808f600060078110610c6257634e487b7160e01b600052603260045260246000fd5b60200201516001600160a01b031681526020018f600160078110610c9657634e487b7160e01b600052603260045260246000fd5b60200201516001600160a01b031681526020018f600260078110610cca57634e487b7160e01b600052603260045260246000fd5b60200201516001600160a01b031681526020018e600060098110610cfe57634e487b7160e01b600052603260045260246000fd5b602002015181526020018e600160098110610d2957634e487b7160e01b600052603260045260246000fd5b602002015181526020018e600260098110610d5457634e487b7160e01b600052603260045260246000fd5b602002015181526020018e600360098110610d7f57634e487b7160e01b600052603260045260246000fd5b602002015181526020018f600360078110610daa57634e487b7160e01b600052603260045260246000fd5b60200201516001600160a01b031681526020018d6001811115610ddd57634e487b7160e01b600052602160045260246000fd5b81526020018c6001811115610e0257634e487b7160e01b600052602160045260246000fd5b81526020018b6001811115610e2757634e487b7160e01b600052602160045260246000fd5b81526020018f600460200201516001600160a01b031681526020018a6001811115610e6257634e487b7160e01b600052602160045260246000fd5b8152602081018a9052604081018990526060018f600560200201516001600160a01b031681526020018781526020018f600660078110610eb257634e487b7160e01b600052603260045260246000fd5b60200201516001600160a01b031681526020018e600460098110610ee657634e487b7160e01b600052603260045260246000fd5b602002015181526020018e600560098110610f1157634e487b7160e01b600052603260045260246000fd5b602002015181526020018e600660098110610f3c57634e487b7160e01b600052603260045260246000fd5b602002015181526020018e600760098110610f6757634e487b7160e01b600052603260045260246000fd5b602002015181526020018e600860098110610f9257634e487b7160e01b600052603260045260246000fd5b602002015190529050610fcb610fa782613476565b8260405180606001604052808960ff168152602001888152602001878152506134d2565b9e9d5050505050505050505050505050565b6000546001600160a01b0361010090910416331461100d5760405162461bcd60e51b815260040161070c90615e0a565b600080546040516101009091046001600160a01b0316907f8be0079c531659141344cd1fd0a4f28419497f9722a3daafe3b4186f6b6457e0908390a360008054610100600160a81b0319169055565b6000610aed604051806102e001604052808c60006007811061108e57634e487b7160e01b600052603260045260246000fd5b60200201516001600160a01b031681526020018c6001600781106110c257634e487b7160e01b600052603260045260246000fd5b60200201516001600160a01b031681526020018c6002600781106110f657634e487b7160e01b600052603260045260246000fd5b60200201516001600160a01b031681526020018b60006009811061112a57634e487b7160e01b600052603260045260246000fd5b602002015181526020018b60016009811061115557634e487b7160e01b600052603260045260246000fd5b602002015181526020018b60026009811061118057634e487b7160e01b600052603260045260246000fd5b602002015181526020018b6003600981106111ab57634e487b7160e01b600052603260045260246000fd5b602002015181526020018c6003600781106111d657634e487b7160e01b600052603260045260246000fd5b60200201516001600160a01b031681526020018a600181111561120957634e487b7160e01b600052602160045260246000fd5b815260200189600181111561122e57634e487b7160e01b600052602160045260246000fd5b815260200188600181111561125357634e487b7160e01b600052602160045260246000fd5b815260808d01516001600160a01b0316602082015260400187600181111561128b57634e487b7160e01b600052602160045260246000fd5b8152602081018790526040810186905260a0808e01516001600160a01b0316606083015260808201869052018c600660200201516001600160a01b031681526020018b6004600981106112ee57634e487b7160e01b600052603260045260246000fd5b602002015181526020018b60056009811061131957634e487b7160e01b600052603260045260246000fd5b602002015181526020018b60066009811061134457634e487b7160e01b600052603260045260246000fd5b602002015181526020018b60076009811061136f57634e487b7160e01b600052603260045260246000fd5b602002015181526020018b60086009811061139a57634e487b7160e01b600052603260045260246000fd5b602002015190526135b8565b600054600160a81b900460ff16156113d05760405162461bcd60e51b815260040161070c90615de0565b6000604051806102e001604052808c6000600781106113ff57634e487b7160e01b600052603260045260246000fd5b60200201516001600160a01b031681526020018c60016007811061143357634e487b7160e01b600052603260045260246000fd5b60200201516001600160a01b031681526020018c60026007811061146757634e487b7160e01b600052603260045260246000fd5b60200201516001600160a01b031681526020018b60006009811061149b57634e487b7160e01b600052603260045260246000fd5b602002015181526020018b6001600981106114c657634e487b7160e01b600052603260045260246000fd5b602002015181526020018b6002600981106114f157634e487b7160e01b600052603260045260246000fd5b602002015181526020018b60036009811061151c57634e487b7160e01b600052603260045260246000fd5b602002015181526020018c60036007811061154757634e487b7160e01b600052603260045260246000fd5b60200201516001600160a01b031681526020018a600181111561157a57634e487b7160e01b600052602160045260246000fd5b815260200189600181111561159f57634e487b7160e01b600052602160045260246000fd5b81526020018860018111156115c457634e487b7160e01b600052602160045260246000fd5b815260808d01516001600160a01b031660208201526040018760018111156115fc57634e487b7160e01b600052602160045260246000fd5b8152602081018790526040810186905260a0808e01516001600160a01b0316606083015260808201869052018c600660200201516001600160a01b031681526020018b60046009811061165f57634e487b7160e01b600052603260045260246000fd5b602002015181526020018b60056009811061168a57634e487b7160e01b600052603260045260246000fd5b602002015181526020018b6006600981106116b557634e487b7160e01b600052603260045260246000fd5b602002015181526020018b6007600981106116e057634e487b7160e01b600052603260045260246000fd5b602002015181526020018b60086009811061170b57634e487b7160e01b600052603260045260246000fd5b60200201519052905061171e81836137e9565b5050505050505050505050565b6000610aed604051806102e001604052808c60006007811061175d57634e487b7160e01b600052603260045260246000fd5b60200201516001600160a01b031681526020018c60016007811061179157634e487b7160e01b600052603260045260246000fd5b60200201516001600160a01b031681526020018c6002600781106117c557634e487b7160e01b600052603260045260246000fd5b60200201516001600160a01b031681526020018b6000600981106117f957634e487b7160e01b600052603260045260246000fd5b602002015181526020018b60016009811061182457634e487b7160e01b600052603260045260246000fd5b602002015181526020018b60026009811061184f57634e487b7160e01b600052603260045260246000fd5b602002015181526020018b60036009811061187a57634e487b7160e01b600052603260045260246000fd5b602002015181526020018c6003600781106118a557634e487b7160e01b600052603260045260246000fd5b60200201516001600160a01b031681526020018a60018111156118d857634e487b7160e01b600052602160045260246000fd5b81526020018960018111156118fd57634e487b7160e01b600052602160045260246000fd5b815260200188600181111561192257634e487b7160e01b600052602160045260246000fd5b815260808d01516001600160a01b0316602082015260400187600181111561195a57634e487b7160e01b600052602160045260246000fd5b8152602081018790526040810186905260a0808e01516001600160a01b0316606083015260808201869052018c600660200201516001600160a01b031681526020018b6004600981106119bd57634e487b7160e01b600052603260045260246000fd5b602002015181526020018b6005600981106119e857634e487b7160e01b600052603260045260246000fd5b602002015181526020018b600660098110611a1357634e487b7160e01b600052603260045260246000fd5b602002015181526020018b600760098110611a3e57634e487b7160e01b600052603260045260246000fd5b602002015181526020018b600860098110611a6957634e487b7160e01b600052603260045260246000fd5b60200201519052613476565b6000546001600160a01b03610100909104163314611aa55760405162461bcd60e51b815260040161070c90615e0a565b611aad61397d565b565b600054600160a81b900460ff1615611ad95760405162461bcd60e51b815260040161070c90615de0565b611e61604051806102e001604052808e600060078110611b0957634e487b7160e01b600052603260045260246000fd5b60200201516001600160a01b031681526020018e600160078110611b3d57634e487b7160e01b600052603260045260246000fd5b60200201516001600160a01b031681526020018e600260078110611b7157634e487b7160e01b600052603260045260246000fd5b60200201516001600160a01b031681526020018d600060098110611ba557634e487b7160e01b600052603260045260246000fd5b602002015181526020018d600160098110611bd057634e487b7160e01b600052603260045260246000fd5b602002015181526020018d600260098110611bfb57634e487b7160e01b600052603260045260246000fd5b602002015181526020018d600360098110611c2657634e487b7160e01b600052603260045260246000fd5b602002015181526020018e600360078110611c5157634e487b7160e01b600052603260045260246000fd5b60200201516001600160a01b031681526020018c6001811115611c8457634e487b7160e01b600052602160045260246000fd5b81526020018b6001811115611ca957634e487b7160e01b600052602160045260246000fd5b81526020018a6001811115611cce57634e487b7160e01b600052602160045260246000fd5b815260808f01516001600160a01b03166020820152604001896001811115611d0657634e487b7160e01b600052602160045260246000fd5b815260208101899052604081018890526060018e600560200201516001600160a01b031681526020018681526020018e600660078110611d5657634e487b7160e01b600052603260045260246000fd5b60200201516001600160a01b031681526020018d600460098110611d8a57634e487b7160e01b600052603260045260246000fd5b602002015181526020018d600560098110611db557634e487b7160e01b600052603260045260246000fd5b602002015181526020018d600660098110611de057634e487b7160e01b600052603260045260246000fd5b602002015181526020018d600760098110611e0b57634e487b7160e01b600052603260045260246000fd5b602002015181526020018d600860098110611e3657634e487b7160e01b600052603260045260246000fd5b602002015181525060405180606001604052808660ff168152602001858152602001848152506139ff565b505050505050505050505050565b600054600160a81b900460ff1615611e995760405162461bcd60e51b815260040161070c90615de0565b61171e604051806102e001604052808d6000600e8110611ec957634e487b7160e01b600052603260045260246000fd5b60200201516001600160a01b031681526020018d6001600e8110611efd57634e487b7160e01b600052603260045260246000fd5b60200201516001600160a01b031681526020018d6002600e8110611f3157634e487b7160e01b600052603260045260246000fd5b60200201516001600160a01b031681526020018c600060128110611f6557634e487b7160e01b600052603260045260246000fd5b602002015181526020018c600160128110611f9057634e487b7160e01b600052603260045260246000fd5b602002015181526020018c600260128110611fbb57634e487b7160e01b600052603260045260246000fd5b602002015181526020018c600360128110611fe657634e487b7160e01b600052603260045260246000fd5b602002015181526020018d6003600e811061201157634e487b7160e01b600052603260045260246000fd5b60200201516001600160a01b031681526020018b60006008811061204557634e487b7160e01b600052603260045260246000fd5b602002015160ff16600181111561206c57634e487b7160e01b600052602160045260246000fd5b600181111561208b57634e487b7160e01b600052602160045260246000fd5b81526020018b6001602002015160ff1660018111156120ba57634e487b7160e01b600052602160045260246000fd5b60018111156120d957634e487b7160e01b600052602160045260246000fd5b81526020018b6002602002015160ff16600181111561210857634e487b7160e01b600052602160045260246000fd5b600181111561212757634e487b7160e01b600052602160045260246000fd5b815260808e01516001600160a01b031660208201526040018b6003602002015160ff16600181111561216957634e487b7160e01b600052602160045260246000fd5b600181111561218857634e487b7160e01b600052602160045260246000fd5b8152602081018b90526040810189905260a0808f01516001600160a01b0316606083015260808201889052018d600660200201516001600160a01b031681526020018c6004601281106121eb57634e487b7160e01b600052603260045260246000fd5b602002015181526020018c60056012811061221657634e487b7160e01b600052603260045260246000fd5b602002015181526020018c60066012811061224157634e487b7160e01b600052603260045260246000fd5b602002015181526020018c60076012811061226c57634e487b7160e01b600052603260045260246000fd5b602002015181526020018c60086012811061229757634e487b7160e01b600052603260045260246000fd5b6020908102919091015190915260408051606081018252865160ff168152855192810192909252810184600160200201519052604080516102e08101909152808f600760200201516001600160a01b031681526020018f6008600e811061230e57634e487b7160e01b600052603260045260246000fd5b60200201516001600160a01b031681526020018f6009600e811061234257634e487b7160e01b600052603260045260246000fd5b60200201516001600160a01b031681526020018e60096012811061237657634e487b7160e01b600052603260045260246000fd5b602002015181526020018e600a601281106123a157634e487b7160e01b600052603260045260246000fd5b602002015181526020018e600b601281106123cc57634e487b7160e01b600052603260045260246000fd5b602002015181526020018e600c601281106123f757634e487b7160e01b600052603260045260246000fd5b602002015181526020018f600a600e811061242257634e487b7160e01b600052603260045260246000fd5b60200201516001600160a01b031681526020018d60046008811061245657634e487b7160e01b600052603260045260246000fd5b602002015160ff16600181111561247d57634e487b7160e01b600052602160045260246000fd5b600181111561249c57634e487b7160e01b600052602160045260246000fd5b81526020018d6005602002015160ff1660018111156124cb57634e487b7160e01b600052602160045260246000fd5b60018111156124ea57634e487b7160e01b600052602160045260246000fd5b81526020018d6006602002015160ff16600181111561251957634e487b7160e01b600052602160045260246000fd5b600181111561253857634e487b7160e01b600052602160045260246000fd5b81526020018f600b60200201516001600160a01b031681526020018d60076008811061257457634e487b7160e01b600052603260045260246000fd5b602002015160ff16600181111561259b57634e487b7160e01b600052602160045260246000fd5b60018111156125ba57634e487b7160e01b600052602160045260246000fd5b8152602081018c9052604081018a90526060018f600c60200201516001600160a01b031681526020018781526020018f600d600e811061260a57634e487b7160e01b600052603260045260246000fd5b60200201516001600160a01b031681526020018e600d6012811061263e57634e487b7160e01b600052603260045260246000fd5b602002015181526020018e600e6012811061266957634e487b7160e01b600052603260045260246000fd5b602002015181526020018e600f6012811061269457634e487b7160e01b600052603260045260246000fd5b602002015181526020018e6010601281106126bf57634e487b7160e01b600052603260045260246000fd5b602002015181526020018e6011601281106126ea57634e487b7160e01b600052603260045260246000fd5b60200201519052604080516060810190915280876001602002015160ff1681526020018660026005811061272e57634e487b7160e01b600052603260045260246000fd5b602002015181526020018660036005811061275957634e487b7160e01b600052603260045260246000fd5b602002015190526080860151613aa8565b600080604051806102e001604052808c60006007811061279a57634e487b7160e01b600052603260045260246000fd5b60200201516001600160a01b031681526020018c6001600781106127ce57634e487b7160e01b600052603260045260246000fd5b60200201516001600160a01b031681526020018c60026007811061280257634e487b7160e01b600052603260045260246000fd5b60200201516001600160a01b031681526020018b60006009811061283657634e487b7160e01b600052603260045260246000fd5b602002015181526020018b60016009811061286157634e487b7160e01b600052603260045260246000fd5b602002015181526020018b60026009811061288c57634e487b7160e01b600052603260045260246000fd5b602002015181526020018b6003600981106128b757634e487b7160e01b600052603260045260246000fd5b602002015181526020018c6003600781106128e257634e487b7160e01b600052603260045260246000fd5b60200201516001600160a01b031681526020018a600181111561291557634e487b7160e01b600052602160045260246000fd5b815260200189600181111561293a57634e487b7160e01b600052602160045260246000fd5b815260200188600181111561295f57634e487b7160e01b600052602160045260246000fd5b815260808d01516001600160a01b0316602082015260400187600181111561299757634e487b7160e01b600052602160045260246000fd5b8152602081018790526040810186905260a0808e01516001600160a01b0316606083015260808201869052018c600660200201516001600160a01b031681526020018b6004600981106129fa57634e487b7160e01b600052603260045260246000fd5b602002015181526020018b600560098110612a2557634e487b7160e01b600052603260045260246000fd5b602002015181526020018b600660098110612a5057634e487b7160e01b600052603260045260246000fd5b602002015181526020018b600760098110612a7b57634e487b7160e01b600052603260045260246000fd5b602002015181526020018b600860098110612aa657634e487b7160e01b600052603260045260246000fd5b602002015190529050612ab88161425e565b9b9a5050505050505050505050565b600080604051806102e001604052808c6000600e8110612af757634e487b7160e01b600052603260045260246000fd5b60200201516001600160a01b031681526020018c6001600e8110612b2b57634e487b7160e01b600052603260045260246000fd5b60200201516001600160a01b031681526020018c6002600e8110612b5f57634e487b7160e01b600052603260045260246000fd5b60200201516001600160a01b031681526020018b600060128110612b9357634e487b7160e01b600052603260045260246000fd5b602002015181526020018b600160128110612bbe57634e487b7160e01b600052603260045260246000fd5b602002015181526020018b600260128110612be957634e487b7160e01b600052603260045260246000fd5b602002015181526020018b600360128110612c1457634e487b7160e01b600052603260045260246000fd5b602002015181526020018c6003600e8110612c3f57634e487b7160e01b600052603260045260246000fd5b60200201516001600160a01b031681526020018a600060088110612c7357634e487b7160e01b600052603260045260246000fd5b602002015160ff166001811115612c9a57634e487b7160e01b600052602160045260246000fd5b6001811115612cb957634e487b7160e01b600052602160045260246000fd5b81526020018a6001602002015160ff166001811115612ce857634e487b7160e01b600052602160045260246000fd5b6001811115612d0757634e487b7160e01b600052602160045260246000fd5b81526020018a6002602002015160ff166001811115612d3657634e487b7160e01b600052602160045260246000fd5b6001811115612d5557634e487b7160e01b600052602160045260246000fd5b815260808d01516001600160a01b031660208201526040018a6003602002015160ff166001811115612d9757634e487b7160e01b600052602160045260246000fd5b6001811115612db657634e487b7160e01b600052602160045260246000fd5b8152602081018a90526040810188905260a0808e01516001600160a01b0316606083015260808201879052018c600660200201516001600160a01b031681526020018b600460128110612e1957634e487b7160e01b600052603260045260246000fd5b602002015181526020018b600560128110612e4457634e487b7160e01b600052603260045260246000fd5b602002015181526020018b600660128110612e6f57634e487b7160e01b600052603260045260246000fd5b602002015181526020018b600760128110612e9a57634e487b7160e01b600052603260045260246000fd5b602002015181526020018b600860128110612ec557634e487b7160e01b600052603260045260246000fd5b602002015181525090506000604051806102e001604052808d6007600e8110612efe57634e487b7160e01b600052603260045260246000fd5b60200201516001600160a01b031681526020018d6008600e8110612f3257634e487b7160e01b600052603260045260246000fd5b60200201516001600160a01b031681526020018d6009600e8110612f6657634e487b7160e01b600052603260045260246000fd5b60200201516001600160a01b031681526020018c600960128110612f9a57634e487b7160e01b600052603260045260246000fd5b602002015181526020018c600a60128110612fc557634e487b7160e01b600052603260045260246000fd5b602002015181526020018c600b60128110612ff057634e487b7160e01b600052603260045260246000fd5b602002015181526020018c600c6012811061301b57634e487b7160e01b600052603260045260246000fd5b602002015181526020018d600a600e811061304657634e487b7160e01b600052603260045260246000fd5b60200201516001600160a01b031681526020018b60046008811061307a57634e487b7160e01b600052603260045260246000fd5b602002015160ff1660018111156130a157634e487b7160e01b600052602160045260246000fd5b60018111156130c057634e487b7160e01b600052602160045260246000fd5b81526020018b6005602002015160ff1660018111156130ef57634e487b7160e01b600052602160045260246000fd5b600181111561310e57634e487b7160e01b600052602160045260246000fd5b81526020018b6006602002015160ff16600181111561313d57634e487b7160e01b600052602160045260246000fd5b600181111561315c57634e487b7160e01b600052602160045260246000fd5b81526101608e01516001600160a01b031660208201526040018b6007602002015160ff16600181111561319f57634e487b7160e01b600052602160045260246000fd5b60018111156131be57634e487b7160e01b600052602160045260246000fd5b8152602081018a9052604081018890526101808e01516001600160a01b039081166060830152608082018790526101a08f01511660a082015260c0018c600d602002015181526020018c600e6012811061322857634e487b7160e01b600052603260045260246000fd5b602002015181526020018c600f6012811061325357634e487b7160e01b600052603260045260246000fd5b602002015181526020018c60106012811061327e57634e487b7160e01b600052603260045260246000fd5b602002015181526020018c6011601281106132a957634e487b7160e01b600052603260045260246000fd5b6020020151905290506132bc82826142f7565b9c9b505050505050505050505050565b6000546001600160a01b036101009091041633146132fc5760405162461bcd60e51b815260040161070c90615e0a565b6001600160a01b0381166133615760405162461bcd60e51b815260206004820152602660248201527f4f776e61626c653a206e6577206f776e657220697320746865207a65726f206160448201526564647265737360d01b606482015260840161070c565b600080546040516001600160a01b038085169361010090930416917f8be0079c531659141344cd1fd0a4f28419497f9722a3daafe3b4186f6b6457e091a3600080546001600160a01b0390921661010002610100600160a81b0319909216919091179055565b6000546001600160a01b036101009091041633146133f75760405162461bcd60e51b815260040161070c90615e0a565b611aad614388565b80516000901561343b57815180602001830160208401855b60018383101415613432578151815260209182019101613417565b50505092909201915b5090919050565b6000613470826101200151836101400151846102400151856102600151866102800151876102a0015161440c565b92915050565b6000613481826135b8565b6040517f19457468657265756d205369676e6564204d6573736167653a0a3332000000006020820152603c810191909152605c01604051602081830303815290604052805190602001209050919050565b60006134dd8361425e565b6134e9575060006106d5565b60008481526004602052604090205460ff1615613508575060006106d5565b60008481526005602052604090205460ff1615613527575060016106d5565b6020808401518351848301516040808701518151600081529586018083528a905260ff90931690850152606084015260808301526001600160a01b03169060019060a0016020604051602081039080840390855afa15801561358d573d6000803e3d6000fd5b505050602060405103516001600160a01b031614156135ae575060016106d5565b5060009392505050565b6000806135c4836144de565b90506000816001600160401b038111156135ee57634e487b7160e01b600052604160045260246000fd5b6040519080825280601f01601f191660200182016040528015613618576020820181803683370190505b508451909150602082019061362e908290614516565b905061363e818660200151614516565b905061364e818660400151614516565b6060868101518252608080880151602084015260a0880151604084015260c08801519183019190915260e08701519101915061368b908290614516565b90506136bb8186610100015160018111156136b657634e487b7160e01b600052602160045260246000fd5b614530565b90506136e68186610120015160018111156136b657634e487b7160e01b600052602160045260246000fd5b90506137118186610140015160018111156136b657634e487b7160e01b600052602160045260246000fd5b905061372281866101600151614516565b905061374d8186610180015160018111156136b657634e487b7160e01b600052602160045260246000fd5b905061375e81866101a001516133ff565b905061376f81866101c001516133ff565b905061378081866101e00151614516565b9050613791818661020001516133ff565b90506137a281866102200151614516565b610240860151815261026086015160208083019190915261028087015160408301526102a087015160608301526102c0909601516080909101525090920191909120919050565b81602001516001600160a01b0316336001600160a01b03161461380b57600080fd5b600061381683613476565b60008181526005602052604090205490915060ff161561383557600080fd5b60016005600083815260200190815260200160002060006101000a81548160ff0219169083151502179055508260e001516001600160a01b031683602001516001600160a01b0316827f90c7f9f5b58c15f0f635bfb99f55d3d78fdbef3559e7d8abf5c81052a527662286600001518760400151886060015189608001518a60a001518b60c001518c61010001518d61012001518e61014001518f61016001516040516138eb9a99989796959493929190615c82565b60405180910390a4807fe55393c778364e440d958b39ac1debd99dcfae3775a8a04d1e79124adf6a2d08846101800151856101a00151866101c00151876101e001518861020001518961022001518a61024001518b61026001518c61028001518d6102a001518e6102c001518e6040516139709c9b9a99989796959493929190615d31565b60405180910390a2505050565b600054600160a81b900460ff16156139a75760405162461bcd60e51b815260040161070c90615de0565b6000805460ff60a81b1916600160a81b1790557f62e78cea01bee320cd4e420270b5ea74000d11b0c9f74754ebdbfc544b05a2586139e23390565b6040516001600160a01b03909116815260200160405180910390a1565b6000613a0b838361453d565b905082602001516001600160a01b0316336001600160a01b031614613a635760405162461bcd60e51b815260206004820152600e60248201526d135052d157d393d517d59053125160921b604482015260640161070c565b600081815260046020526040808220805460ff191660011790555182917f5152abf959f6564662358c2e52b702259b78bac5ee7842a0f01937e670efcc7d91a2505050565b60005460ff1615613af15760405162461bcd60e51b81526020600482015260136024820152721499595b9d1c985b98de4819195d1958dd1959606a1b604482015260640161070c565b6000805460ff1916600117815560208601516001600160a01b0316331415613b6557613b1c8661425e565b613b605760405162461bcd60e51b8152602060048201526015602482015274213abc9037b93232b91034b99034b73b30b634b21760591b604482015260640161070c565b613b72565b613b6f868661453d565b90505b60208401516000906001600160a01b0316331415613bdd57613b938561425e565b613bd85760405162461bcd60e51b815260206004820152601660248201527529b2b6361037b93232b91034b99034b73b30b634b21760511b604482015260640161070c565b613bea565b613be7858561453d565b90505b613bf48786614593565b613c405760405162461bcd60e51b815260206004820152601860248201527f4f7264657273206973206e6f74206d6174636861626c652e0000000000000000604482015260640161070c565b610160850151803b9081613c895760405162461bcd60e51b815260206004820152601060248201526f15185c99d95d081b9bdd08195e1a5cdd60821b604482015260640161070c565b6101c08901515115613caf57613caf896101a00151886101a001518b6101c001516147e5565b6101c08701515115613cd557613cd5876101a001518a6101a00151896101c001516147e5565b613ce9896101a00151886101a00151614a59565b613d2a5760405162461bcd60e51b8152602060048201526012602482015271086c2d8d85ac8c2e8c240dad2e6dac2e8c6d60731b604482015260640161070c565b600254602088015160405163c455279160e01b81526001600160a01b039182166004820152600092919091169063c45527919060240160206040518083038186803b158015613d7857600080fd5b505afa158015613d8c573d6000803e3d6000fd5b505050506040513d601f19601f82011682018060405250810190613db091906155ee565b90506001600160a01b038116613dfa5760405162461bcd60e51b815260206004820152600f60248201526e141c9bde1e481b9bdd08195e1a5cdd608a1b604482015260640161070c565b600260009054906101000a90046001600160a01b03166001600160a01b03166397204d8e6040518163ffffffff1660e01b815260040160206040518083038186803b158015613e4857600080fd5b505afa158015613e5c573d6000803e3d6000fd5b505050506040513d601f19601f82011682018060405250810190613e8091906155ee565b6001600160a01b0316816001600160a01b0316635c60da1b6040518163ffffffff1660e01b815260040160206040518083038186803b158015613ec257600080fd5b505afa158015613ed6573d6000803e3d6000fd5b505050506040513d601f19601f82011682018060405250810190613efa91906155ee565b6001600160a01b031614613f505760405162461bcd60e51b815260206004820152601860248201527f50726f7879206973206e6f7420696d706c656d656e7465640000000000000000604482015260640161070c565b60208a015181906001600160a01b03163314613f80576000868152600460205260409020805460ff191660011790555b88602001516001600160a01b0316336001600160a01b031614613fb7576000858152600460205260409020805460ff191660011790555b6000613fc38c8b614abd565b9050816001600160a01b0316631b0f7ba98b61016001518c61018001518d6101a001516040518463ffffffff1660e01b815260040161400493929190615d00565b602060405180830381600087803b15801561401e57600080fd5b505af1158015614032573d6000803e3d6000fd5b505050506040513d601f19601f820116820180604052508101906140569190615c03565b6140a25760405162461bcd60e51b815260206004820152601960248201527f43616e6e6f742063616c6c207468726f7567682070726f787900000000000000604482015260640161070c565b6101e08c01516001600160a01b031615614128576140d08c6101e001518b6101a001518e6102000151610644565b6141285760405162461bcd60e51b815260206004820152602360248201527f43616e6e6f742065786563757465206275792d73696465207374617469632063604482015262185b1b60ea1b606482015260840161070c565b6101e08a01516001600160a01b0316156141ae576141568a6101e001518b6101a001518c6102000151610644565b6141ae5760405162461bcd60e51b8152602060048201526024808201527f43616e6e6f7420657865637574652073656c6c2d73696465207374617469632060448201526318d85b1b60e21b606482015260840161070c565b60e08a015188906001600160a01b03166141cc578a602001516141d2565b8c602001515b60e08c01516001600160a01b0391821691166141f2578d602001516141f8565b8b602001515b604080518b8152602081018b90529081018590526001600160a01b0391909116907fc4109843e0b7d514e4c093114b863f8e7d8d9a458c372cd51bfe526b588006c99060600160405180910390a450506000805460ff1916905550505050505050505050565b80516000906001600160a01b0316301461427a57506000919050565b61428e826101400151836102a001516150f6565b61429a57506000919050565b600182610100015160018111156142c157634e487b7160e01b600052602160045260246000fd5b1480156142e257506006548260a0015110806142e257506007548260c00151105b156142ef57506000919050565b506001919050565b600080614326836101200151846101400151856102400151866102600151876102800151886102a0015161440c565b905060006143568561012001518661014001518761024001518861026001518961028001518a6102a0015161440c565b90508181101561436557600080fd5b60e08401516001600160a01b031661437d578061437f565b815b95945050505050565b600054600160a81b900460ff166143d85760405162461bcd60e51b815260206004820152601460248201527314185d5cd8589b194e881b9bdd081c185d5cd95960621b604482015260640161070c565b6000805460ff60a81b191690557f5db9ee0a495bf2e6ff9c91a7834c1ba4fdd244a5e8aa4e537bd38aeae4b073aa336139e2565b60008086600181111561442f57634e487b7160e01b600052602160045260246000fd5b141561443c5750836144d4565b600186600181111561445e57634e487b7160e01b600052602160045260246000fd5b14156144d45760006144708484615e96565b61447a8542615e96565b6144849087615e77565b61448e9190615e57565b905060018860018111156144b257634e487b7160e01b600052602160045260246000fd5b14156144ca576144c28187615e96565b9150506144d4565b6144c28187615e3f565b9695505050505050565b600081610200015151826101c0015151836101a00151516101b06145029190615e3f565b61450c9190615e3f565b6134709190615e3f565b60601b6bffffffffffffffffffffffff1916815260140190565b6000818353505060010190565b60008061454984613476565b90506145568185856134d2565b6106d55760405162461bcd60e51b815260206004820152600e60248201526d121054d217d393d517d59053125160921b604482015260640161070c565b60008083610120015160018111156145bb57634e487b7160e01b600052602160045260246000fd5b1480156145ec5750600182610120015160018111156145ea57634e487b7160e01b600052602160045260246000fd5b145b801561463f5750816101000151600181111561461857634e487b7160e01b600052602160045260246000fd5b836101000151600181111561463d57634e487b7160e01b600052602160045260246000fd5b145b801561466657508161022001516001600160a01b03168361022001516001600160a01b0316145b80156146a0575060408201516001600160a01b031615806146a0575082602001516001600160a01b031682604001516001600160a01b0316145b80156146da575060408301516001600160a01b031615806146da575081602001516001600160a01b031683604001516001600160a01b0316145b8015614735575060e08201516001600160a01b0316158015614708575060e08301516001600160a01b031615155b80614735575060e08201516001600160a01b031615801590614735575060e08301516001600160a01b0316155b801561475c57508161016001516001600160a01b03168361016001516001600160a01b0316145b80156147af5750816101800151600181111561478857634e487b7160e01b600052602160045260246000fd5b83610180015160018111156147ad57634e487b7160e01b600052602160045260246000fd5b145b80156147ca57506147ca836102800151846102a00151615128565b80156106d557506106d5826102800151836102a00151615128565b81518351146148365760405162461bcd60e51b815260206004820152601d60248201527f417272617973206861766520646966666572656e74206c656e67746873000000604482015260640161070c565b80518351146148955760405162461bcd60e51b815260206004820152602560248201527f417272617920616e64206d61736b206861766520646966666572656e74206c656044820152646e6774687360d81b606482015260840161070c565b6000602084516148a59190615e57565b905060006148b4826020615e77565b9050816148c2602083615e57565b146148dd57634e487b7160e01b600052600160045260246000fd5b60005b8281101561491a5780600101602002808501518187015181168289015182191617828901525050808061491290615ead565b9150506148e0565b82156149475782905080600101602002808501518187015181168289015182191617828901525050614a51565b50805b8551811015614a515784818151811061497357634e487b7160e01b600052603260045260246000fd5b602001015160f81c60f81b84828151811061499e57634e487b7160e01b600052603260045260246000fd5b602001015160f81c60f81b168682815181106149ca57634e487b7160e01b600052603260045260246000fd5b602001015160f81c60f81b8583815181106149f557634e487b7160e01b600052603260045260246000fd5b602001015160f81c60f81b60ff60f81b181617868281518110614a2857634e487b7160e01b600052603260045260246000fd5b60200101906001600160f81b031916908160001a90535080614a4981615ead565b91505061494a565b505050505050565b815181516000916001918114808314614a755760009250614ab3565b600160208701838101602088015b600284838510011415614aae578051835114614aa25760009650600093505b60209283019201614a83565b505050505b5090949350505050565b6102208101516000906001600160a01b031615614adf573415614adf57600080fd5b6000614aeb84846142f7565b9050600081118015614b0a57506102208301516001600160a01b031615155b15614b2857614b288361022001518560200151856020015184615144565b60e0830151819081906001600160a01b031615614e7557856080015185608001511115614b5457600080fd5b60018561010001516001811115614b7b57634e487b7160e01b600052602160045260246000fd5b1415614e47578560c001518560c001511115614b9657600080fd5b606085015115614c3d576000612710848760600151614bb59190615e77565b614bbf9190615e57565b6102208701519091506001600160a01b0316614c2257614bdf8184615e96565b60e08701516040519194506001600160a01b03169082156108fc029083906000818181858888f19350505050158015614c1c573d6000803e3d6000fd5b50614c3b565b614c3b86610220015187602001518860e0015184615144565b505b608085015115614ce4576000612710848760800151614c5c9190615e77565b614c669190615e57565b6102208701519091506001600160a01b0316614cc957614c868183615e3f565b60e08701516040519193506001600160a01b03169082156108fc029083906000818181858888f19350505050158015614cc3573d6000803e3d6000fd5b50614ce2565b614ce286610220015188602001518860e0015184615144565b505b60a085015115614d93576000612710848760a00151614d039190615e77565b614d0d9190615e57565b6102208701519091506001600160a01b0316614d6e57614d2d8184615e96565b6008546040519194506001600160a01b03169082156108fc029083906000818181858888f19350505050158015614d68573d6000803e3d6000fd5b50614d91565b6102208601516020870151600854614d919291906001600160a01b031684615144565b505b60c085015115614e42576000612710848760c00151614db29190615e77565b614dbc9190615e57565b6102208701519091506001600160a01b0316614e1d57614ddc8183615e3f565b6008546040519193506001600160a01b03169082156108fc029083906000818181858888f19350505050158015614e17573d6000803e3d6000fd5b50614e40565b6102208601516020880151600854614e409291906001600160a01b031684615144565b505b61503a565b614e5e85602001518660e0015187606001516151ef565b614e4286602001518660e0015187608001516151ef565b846080015186608001511115614e8a57600080fd5b60018561010001516001811115614eb157634e487b7160e01b600052602160045260246000fd5b141561500c576102208501516001600160a01b0316614ecf57600080fd5b8460c001518660c001511115614ee457600080fd5b606086015115614f2a576000612710848860600151614f039190615e77565b614f0d9190615e57565b9050614f2886610220015188602001518960e0015184615144565b505b608086015115614f70576000612710848860800151614f499190615e77565b614f539190615e57565b9050614f6e86610220015187602001518960e0015184615144565b505b60a086015115614fbf576000612710848860a00151614f8f9190615e77565b614f999190615e57565b6102208701516020890151600854929350614fbd926001600160a01b031684615144565b505b60c086015115614e42576000612710848860c00151614fde9190615e77565b614fe89190615e57565b6102208701516020880151600854929350614e40926001600160a01b031684615144565b61502386602001518760e0015188606001516151ef565b61503a85602001518760e0015188608001516151ef565b6102208501516001600160a01b0316614ab3578034101561505a57600080fd5b84602001516001600160a01b03166108fc839081150290604051600060405180830381858888f19350505050158015615097573d6000803e3d6000fd5b5060006150a48234615e96565b905080156150eb5786602001516001600160a01b03166108fc829081150290604051600060405180830381858888f193505050501580156150e9573d6000803e3d6000fd5b505b505090949350505050565b60008083600181111561511957634e487b7160e01b600052602160045260246000fd5b14806106d55750501515919050565b600042831080156106d557508115806106d55750504210919050565b80156151e957600354604051630aed65f560e11b81526001600160a01b0386811660048301528581166024830152848116604483015260648201849052909116906315dacbea90608401602060405180830381600087803b1580156151a857600080fd5b505af11580156151bc573d6000803e3d6000fd5b505050506040513d601f19601f820116820180604052508101906151e09190615c03565b6151e957600080fd5b50505050565b600154615207906001600160a01b0316848484615144565b505050565b600082601f83011261521c578081fd5b6040516101c08082018281106001600160401b038211171561524057615240615ede565b6040528184828101871015615253578485fd5b8492505b600e83101561528057803561526b81615f15565b82526001929092019160209182019101615257565b509195945050505050565b600082601f83011261529b578081fd5b60405160e081018181106001600160401b03821117156152bd576152bd615ede565b604052808360e081018610156152d1578384fd5b835b60078110156152805781356152e781615f15565b835260209283019291909101906001016152d3565b600082601f83011261530c578081fd5b60405160a081018181106001600160401b038211171561532e5761532e615ede565b604052808360a08101861015615342578384fd5b835b6005811015615280578135835260209283019290910190600101615344565b600082601f830112615373578081fd5b6040516102408082018281106001600160401b038211171561539757615397615ede565b60405281848281018710156153aa578485fd5b8492505b6012831015615280578035825260019290920191602091820191016153ae565b600082601f8301126153de578081fd5b6040516101208082018281106001600160401b038211171561540257615402615ede565b6040528184828101871015615415578485fd5b8492505b600983101561528057803582526001929092019160209182019101615419565b600082601f830112615449578081fd5b604051604081018181106001600160401b038211171561546b5761546b615ede565b8060405250808385604086011115615481578384fd5b835b600281101561528057615495826155c1565b83526020928301929190910190600101615483565b600082601f8301126154ba578081fd5b6040516101008082018281106001600160401b03821117156154de576154de615ede565b60405281848281018710156154f1578485fd5b8492505b600883101561528057615507816155c1565b825260019290920191602091820191016154f5565b803561552781615f2a565b919050565b600082601f83011261553c578081fd5b81356001600160401b038082111561555657615556615ede565b604051601f8301601f19908116603f0116810190828211818310171561557e5761557e615ede565b81604052838152866020858801011115615596578485fd5b8360208701602083013792830160200193909352509392505050565b80356002811061552757600080fd5b803560ff8116811461552757600080fd5b6000602082840312156155e3578081fd5b81356106d581615f15565b6000602082840312156155ff578081fd5b81516106d581615f15565b60008060006060848603121561561e578182fd5b833561562981615f15565b925060208401356001600160401b0380821115615644578384fd5b6156508783880161552c565b93506040860135915080821115615665578283fd5b506156728682870161552c565b9150509250925092565b60008060008060008060008060006105c08a8c03121561569a578687fd5b6156a48b8b61520c565b98506156b48b6101c08c01615363565b97506156c48b6104008c016154aa565b96506105008a01356001600160401b03808211156156e0578687fd5b6156ec8d838e0161552c565b97506105208c0135915080821115615702578687fd5b61570e8d838e0161552c565b96506105408c0135915080821115615724578586fd5b6157308d838e0161552c565b95506105608c0135915080821115615746578485fd5b6157528d838e0161552c565b94506105808c0135915080821115615768578384fd5b6157748d838e0161552c565b93506105a08c013591508082111561578a578283fd5b506157978c828d0161552c565b9150509295985092959850929598565b60008060008060008060008060008060006106a08c8e0312156157c8578485fd5b6157d28d8d61520c565b9a506157e28d6101c08e01615363565b99506157f28d6104008e016154aa565b98506001600160401b03806105008e0135111561580d578586fd5b61581e8e6105008f01358f0161552c565b9850806105208e01351115615831578586fd5b6158428e6105208f01358f0161552c565b9750806105408e01351115615855578586fd5b6158668e6105408f01358f0161552c565b9650806105608e01351115615879578586fd5b61588a8e6105608f01358f0161552c565b9550806105808e0135111561589d578283fd5b6158ae8e6105808f01358f0161552c565b9450806105a08e013511156158c1578283fd5b506158d38d6105a08e01358e0161552c565b92506158e38d6105c08e01615439565b91506158f38d6106008e016152fc565b90509295989b509295989b9093969950565b60008060008060008060008060006102e08a8c031215615923578283fd5b61592d8b8b61528b565b985061593c8b60e08c016153ce565b975061594b6102008b016155b2565b965061595a6102208b016155b2565b95506159696102408b016155b2565b94506159786102608b016155b2565b93506102808a01356001600160401b0380821115615994578485fd5b6159a08d838e0161552c565b94506102a08c01359150808211156159b6578384fd5b6159c28d838e0161552c565b93506102c08c013591508082111561578a578283fd5b6000806000806000806000806000806103008b8d0312156159f7578384fd5b615a018c8c61528b565b9950615a108c60e08d016153ce565b9850615a1f6102008c016155b2565b9750615a2e6102208c016155b2565b9650615a3d6102408c016155b2565b9550615a4c6102608c016155b2565b94506102808b01356001600160401b0380821115615a68578586fd5b615a748e838f0161552c565b95506102a08d0135915080821115615a8a578485fd5b615a968e838f0161552c565b94506102c08d0135915080821115615aac578384fd5b50615ab98d828e0161552c565b925050615ac96102e08c0161551c565b90509295989b9194979a5092959850565b6000806000806000806000806000806000806103408d8f031215615afc578586fd5b615b068e8e61528b565b9b50615b158e60e08f016153ce565b9a50615b246102008e016155b2565b9950615b336102208e016155b2565b9850615b426102408e016155b2565b9750615b516102608e016155b2565b96506001600160401b036102808e01351115615b6b578586fd5b615b7c8e6102808f01358f0161552c565b95506001600160401b036102a08e01351115615b96578081fd5b615ba78e6102a08f01358f0161552c565b94506001600160401b036102c08e01351115615bc1578081fd5b615bd28e6102c08f01358f0161552c565b9350615be16102e08e016155c1565b92506103008d013591506103208d013590509295989b509295989b509295989b565b600060208284031215615c14578081fd5b81516106d581615f2a565b600060208284031215615c30578081fd5b5035919050565b60008151808452815b81811015615c5c57602081850181015186830182015201615c40565b81811115615c6d5782602083870101525b50601f01601f19169290920160200192915050565b6001600160a01b038b811682528a81166020830152604082018a9052606082018990526080820188905260a08201879052610140820190615cc287615ef4565b8660c0840152615cd186615ef4565b8560e0840152615ce085615ef4565b84610100840152808416610120840152509b9a5050505050505050505050565b6001600160a01b0384168152615d1583615ef4565b82602082015260606040820152600061437f6060830184615c37565b6000610180615d3f8f615ef4565b8e8352806020840152615d548184018f615c37565b90508281036040840152615d68818e615c37565b6001600160a01b038d811660608601528482036080860152909150615d8d828d615c37565b9a1660a0840152505060c081019690965260e086019490945261010085019290925261012084015261014083015215156101609091015295945050505050565b6020815260006106d56020830184615c37565b60208082526010908201526f14185d5cd8589b194e881c185d5cd95960821b604082015260600190565b6020808252818101527f4f776e61626c653a2063616c6c6572206973206e6f7420746865206f776e6572604082015260600190565b60008219821115615e5257615e52615ec8565b500190565b600082615e7257634e487b7160e01b81526012600452602481fd5b500490565b6000816000190483118215151615615e9157615e91615ec8565b500290565b600082821015615ea857615ea8615ec8565b500390565b6000600019821415615ec157615ec1615ec8565b5060010190565b634e487b7160e01b600052601160045260246000fd5b634e487b7160e01b600052604160045260246000fd5b60028110615f1257634e487b7160e01b600052602160045260246000fd5b50565b6001600160a01b0381168114615f1257600080fd5b8015158114615f1257600080fdfea2646970667358221220e3f118007d738bd91e76d95e5e8edd04183b242e059287b54fa80651890107ca64736f6c63430008040033",
  "immutableReferences": {},
  "source": "// SPDX-License-Identifier: MIT\n/*\n\n  << L7 Exchange >>\n\n*/\n\npragma solidity 0.8.4;\n\nimport \"./exchange/Exchange.sol\";\n\n/**\n * @title L7Exchange\n * @author L7 Protocol Developers\n */\ncontract L7Exchange is Exchange {\n\n    string public constant name = \"L7 Exchange\";\n  \n    string public constant version = \"0.1\";\n\n    string public constant codename = \"L7Beta\";\n\n    /**\n     * @dev Initialize a WyvernExchange instance\n     * @param registryAddress Address of the registry instance which this Exchange instance will use\n     * @param tokenAddress Address of the token used for protocol fees\n     */\n    constructor (ProxyRegistry registryAddress, TokenTransferProxy tokenTransferProxyAddress, ERC20 tokenAddress, address protocolFeeAddress) Ownable() {\n        registry = registryAddress;\n        tokenTransferProxy = tokenTransferProxyAddress;\n        exchangeToken = tokenAddress;\n        protocolFeeRecipient = protocolFeeAddress;\n    }\n\n}\n",
  "sourcePath": "/Users/baonq/Projects/l7/l7-marketplace-smartcontract/contracts/L7Exchange.sol",
  "compiler": {
    "name": "solc",
    "version": "0.8.4+commit.c7e474f2.Emscripten.clang"
  },
  "schemaVersion": "3.4.1",
  "updatedAt": "2021-11-16T08:38:49.785Z",
  "networkType": "ethereum",
  "devdoc": {
    "author": "L7 Protocol Developers",
    "kind": "dev",
    "methods": {
      "approveOrder_(address[7],uint256[9],uint8,uint8,uint8,uint8,bytes,bytes,bytes,bool)": {
        "details": "Call approveOrder - Solidity ABI encoding limitation workaround, hopefully temporary."
      },
      "atomicMatch_(address[14],uint256[18],uint8[8],bytes,bytes,bytes,bytes,bytes,bytes,uint8[2],bytes32[5])": {
        "details": "Call atomicMatch - Solidity ABI encoding limitation workaround, hopefully temporary."
      },
      "calculateCurrentPrice_(address[7],uint256[9],uint8,uint8,uint8,uint8,bytes,bytes,bytes)": {
        "details": "Call calculateCurrentPrice - Solidity ABI encoding limitation workaround, hopefully temporary."
      },
      "calculateMatchPrice_(address[14],uint256[18],uint8[8],bytes,bytes,bytes,bytes,bytes,bytes)": {
        "details": "Call calculateMatchPrice - Solidity ABI encoding limitation workaround, hopefully temporary."
      },
      "cancelOrder_(address[7],uint256[9],uint8,uint8,uint8,uint8,bytes,bytes,bytes,uint8,bytes32,bytes32)": {
        "details": "Call cancelOrder - Solidity ABI encoding limitation workaround, hopefully temporary."
      },
      "changeMinimumMakerProtocolFee(uint256)": {
        "details": "Change the minimum maker fee paid to the protocol (owner only)",
        "params": {
          "newMinimumMakerProtocolFee": "New fee to set in basis points"
        }
      },
      "changeMinimumTakerProtocolFee(uint256)": {
        "details": "Change the minimum taker fee paid to the protocol (owner only)",
        "params": {
          "newMinimumTakerProtocolFee": "New fee to set in basis points"
        }
      },
      "changeProtocolFeeRecipient(address)": {
        "details": "Change the protocol fee recipient (owner only)",
        "params": {
          "newProtocolFeeRecipient": "New protocol fee recipient address"
        }
      },
      "changeProtocolFeeTokenAddress(address)": {
        "details": "Change the protocol fee token address (owner only)",
        "params": {
          "newTokenAddress": "New protocol fee token address"
        }
      },
      "constructor": {
        "details": "Initialize a WyvernExchange instance",
        "params": {
          "registryAddress": "Address of the registry instance which this Exchange instance will use",
          "tokenAddress": "Address of the token used for protocol fees"
        }
      },
      "hashOrder_(address[7],uint256[9],uint8,uint8,uint8,uint8,bytes,bytes,bytes)": {
        "details": "Call hashOrder - Solidity ABI encoding limitation workaround, hopefully temporary."
      },
      "hashToSign_(address[7],uint256[9],uint8,uint8,uint8,uint8,bytes,bytes,bytes)": {
        "details": "Call hashToSign - Solidity ABI encoding limitation workaround, hopefully temporary."
      },
      "owner()": {
        "details": "Returns the address of the current owner."
      },
      "pause()": {
        "details": "Pause the contract in case of bugs/attacks."
      },
      "paused()": {
        "details": "Returns true if the contract is paused, and false otherwise."
      },
      "renounceOwnership()": {
        "details": "Leaves the contract without owner. It will not be possible to call `onlyOwner` functions anymore. Can only be called by the current owner. NOTE: Renouncing ownership will leave the contract without an owner, thereby removing any functionality that is only available to the owner."
      },
      "staticCall(address,bytes,bytes)": {
        "details": "Execute a STATICCALL (introduced with Ethereum Metropolis, non-state-modifying external call)",
        "params": {
          "callData": "Calldata (appended to extradata)",
          "extradata": "Base data for STATICCALL (probably function selector and argument encoding)",
          "target": "Contract to call"
        },
        "returns": {
          "result": "of the call (success or failure)"
        }
      },
      "transferOwnership(address)": {
        "details": "Transfers ownership of the contract to a new account (`newOwner`). Can only be called by the current owner."
      },
      "unPause()": {
        "details": "Resume the contract after being paused."
      },
      "validateOrderParameters_(address[7],uint256[9],uint8,uint8,uint8,uint8,bytes,bytes,bytes)": {
        "details": "Call validateOrderParameters - Solidity ABI encoding limitation workaround, hopefully temporary."
      },
      "validateOrder_(address[7],uint256[9],uint8,uint8,uint8,uint8,bytes,bytes,bytes,uint8,bytes32,bytes32)": {
        "details": "Call validateOrder - Solidity ABI encoding limitation workaround, hopefully temporary."
      }
    },
    "title": "L7Exchange",
    "version": 1
  },
  "userdoc": {
    "kind": "user",
    "methods": {
      "pause()": {
        "notice": "Only the owner can call this method."
      },
      "unPause()": {
        "notice": "Only the owner can call this method."
      }
    },
    "version": 1
  }
}