{
  "contractName": "L7Static",
  "abi": [
    {
      "inputs": [
        {
          "internalType": "address",
          "name": "atomicizerAddress",
          "type": "address"
        }
      ],
      "stateMutability": "nonpayable",
      "type": "constructor"
    },
    {
      "inputs": [
        {
          "internalType": "bytes",
          "name": "extra",
          "type": "bytes"
        },
        {
          "internalType": "address[7]",
          "name": "addresses",
          "type": "address[7]"
        },
        {
          "internalType": "enum AuthenticatedProxy.HowToCall[2]",
          "name": "howToCalls",
          "type": "uint8[2]"
        },
        {
          "internalType": "uint256[6]",
          "name": "uints",
          "type": "uint256[6]"
        },
        {
          "internalType": "bytes",
          "name": "data",
          "type": "bytes"
        },
        {
          "internalType": "bytes",
          "name": "counterdata",
          "type": "bytes"
        }
      ],
      "name": "and",
      "outputs": [],
      "stateMutability": "view",
      "type": "function"
    },
    {
      "inputs": [
        {
          "internalType": "bytes",
          "name": "",
          "type": "bytes"
        },
        {
          "internalType": "address[7]",
          "name": "",
          "type": "address[7]"
        },
        {
          "internalType": "enum AuthenticatedProxy.HowToCall[2]",
          "name": "",
          "type": "uint8[2]"
        },
        {
          "internalType": "uint256[6]",
          "name": "",
          "type": "uint256[6]"
        },
        {
          "internalType": "bytes",
          "name": "",
          "type": "bytes"
        },
        {
          "internalType": "bytes",
          "name": "",
          "type": "bytes"
        }
      ],
      "name": "any",
      "outputs": [
        {
          "internalType": "uint256",
          "name": "",
          "type": "uint256"
        }
      ],
      "stateMutability": "pure",
      "type": "function"
    },
    {
      "inputs": [
        {
          "internalType": "bytes",
          "name": "",
          "type": "bytes"
        },
        {
          "internalType": "address[7]",
          "name": "",
          "type": "address[7]"
        },
        {
          "internalType": "enum AuthenticatedProxy.HowToCall[2]",
          "name": "",
          "type": "uint8[2]"
        },
        {
          "internalType": "uint256[6]",
          "name": "uints",
          "type": "uint256[6]"
        },
        {
          "internalType": "bytes",
          "name": "",
          "type": "bytes"
        },
        {
          "internalType": "bytes",
          "name": "",
          "type": "bytes"
        }
      ],
      "name": "anyAddOne",
      "outputs": [
        {
          "internalType": "uint256",
          "name": "",
          "type": "uint256"
        }
      ],
      "stateMutability": "pure",
      "type": "function"
    },
    {
      "inputs": [
        {
          "internalType": "bytes",
          "name": "",
          "type": "bytes"
        },
        {
          "internalType": "address[7]",
          "name": "",
          "type": "address[7]"
        },
        {
          "internalType": "enum AuthenticatedProxy.HowToCall[2]",
          "name": "",
          "type": "uint8[2]"
        },
        {
          "internalType": "uint256[6]",
          "name": "",
          "type": "uint256[6]"
        },
        {
          "internalType": "bytes",
          "name": "",
          "type": "bytes"
        },
        {
          "internalType": "bytes",
          "name": "",
          "type": "bytes"
        }
      ],
      "name": "anyNoFill",
      "outputs": [
        {
          "internalType": "uint256",
          "name": "",
          "type": "uint256"
        }
      ],
      "stateMutability": "pure",
      "type": "function"
    },
    {
      "inputs": [
        {
          "internalType": "bytes",
          "name": "",
          "type": "bytes"
        },
        {
          "internalType": "address[7]",
          "name": "",
          "type": "address[7]"
        },
        {
          "internalType": "enum AuthenticatedProxy.HowToCall",
          "name": "",
          "type": "uint8"
        },
        {
          "internalType": "uint256[6]",
          "name": "",
          "type": "uint256[6]"
        },
        {
          "internalType": "bytes",
          "name": "",
          "type": "bytes"
        }
      ],
      "name": "anySingle",
      "outputs": [],
      "stateMutability": "pure",
      "type": "function"
    },
    {
      "inputs": [],
      "name": "atomicizer",
      "outputs": [
        {
          "internalType": "address",
          "name": "",
          "type": "address"
        }
      ],
      "stateMutability": "view",
      "type": "function"
    },
    {
      "inputs": [
        {
          "internalType": "bytes",
          "name": "extra",
          "type": "bytes"
        },
        {
          "internalType": "address[7]",
          "name": "addresses",
          "type": "address[7]"
        },
        {
          "internalType": "enum AuthenticatedProxy.HowToCall[2]",
          "name": "howToCalls",
          "type": "uint8[2]"
        },
        {
          "internalType": "uint256[6]",
          "name": "uints",
          "type": "uint256[6]"
        },
        {
          "internalType": "bytes",
          "name": "cdata",
          "type": "bytes"
        },
        {
          "internalType": "bytes",
          "name": "",
          "type": "bytes"
        }
      ],
      "name": "dumbSequenceExact",
      "outputs": [
        {
          "internalType": "uint256",
          "name": "",
          "type": "uint256"
        }
      ],
      "stateMutability": "view",
      "type": "function"
    },
    {
      "inputs": [],
      "name": "name",
      "outputs": [
        {
          "internalType": "string",
          "name": "",
          "type": "string"
        }
      ],
      "stateMutability": "view",
      "type": "function"
    },
    {
      "inputs": [
        {
          "internalType": "bytes",
          "name": "extra",
          "type": "bytes"
        },
        {
          "internalType": "address[7]",
          "name": "addresses",
          "type": "address[7]"
        },
        {
          "internalType": "enum AuthenticatedProxy.HowToCall[2]",
          "name": "howToCalls",
          "type": "uint8[2]"
        },
        {
          "internalType": "uint256[6]",
          "name": "uints",
          "type": "uint256[6]"
        },
        {
          "internalType": "bytes",
          "name": "data",
          "type": "bytes"
        },
        {
          "internalType": "bytes",
          "name": "counterdata",
          "type": "bytes"
        }
      ],
      "name": "or",
      "outputs": [],
      "stateMutability": "view",
      "type": "function"
    },
    {
      "inputs": [
        {
          "internalType": "bytes",
          "name": "extra",
          "type": "bytes"
        },
        {
          "internalType": "address[7]",
          "name": "addresses",
          "type": "address[7]"
        },
        {
          "internalType": "enum AuthenticatedProxy.HowToCall",
          "name": "howToCall",
          "type": "uint8"
        },
        {
          "internalType": "uint256[6]",
          "name": "uints",
          "type": "uint256[6]"
        },
        {
          "internalType": "bytes",
          "name": "cdata",
          "type": "bytes"
        }
      ],
      "name": "sequenceAnyAfter",
      "outputs": [],
      "stateMutability": "view",
      "type": "function"
    },
    {
      "inputs": [
        {
          "internalType": "bytes",
          "name": "extra",
          "type": "bytes"
        },
        {
          "internalType": "address[7]",
          "name": "addresses",
          "type": "address[7]"
        },
        {
          "internalType": "enum AuthenticatedProxy.HowToCall",
          "name": "howToCall",
          "type": "uint8"
        },
        {
          "internalType": "uint256[6]",
          "name": "uints",
          "type": "uint256[6]"
        },
        {
          "internalType": "bytes",
          "name": "cdata",
          "type": "bytes"
        }
      ],
      "name": "sequenceExact",
      "outputs": [],
      "stateMutability": "view",
      "type": "function"
    },
    {
      "inputs": [
        {
          "internalType": "bytes",
          "name": "extra",
          "type": "bytes"
        },
        {
          "internalType": "address[7]",
          "name": "addresses",
          "type": "address[7]"
        },
        {
          "internalType": "enum AuthenticatedProxy.HowToCall[2]",
          "name": "howToCalls",
          "type": "uint8[2]"
        },
        {
          "internalType": "uint256[6]",
          "name": "uints",
          "type": "uint256[6]"
        },
        {
          "internalType": "bytes",
          "name": "data",
          "type": "bytes"
        },
        {
          "internalType": "bytes",
          "name": "counterdata",
          "type": "bytes"
        }
      ],
      "name": "split",
      "outputs": [
        {
          "internalType": "uint256",
          "name": "",
          "type": "uint256"
        }
      ],
      "stateMutability": "view",
      "type": "function"
    },
    {
      "inputs": [
        {
          "internalType": "bytes",
          "name": "extra",
          "type": "bytes"
        },
        {
          "internalType": "address[7]",
          "name": "addresses",
          "type": "address[7]"
        },
        {
          "internalType": "enum AuthenticatedProxy.HowToCall[2]",
          "name": "howToCalls",
          "type": "uint8[2]"
        },
        {
          "internalType": "uint256[6]",
          "name": "uints",
          "type": "uint256[6]"
        },
        {
          "internalType": "bytes",
          "name": "data",
          "type": "bytes"
        },
        {
          "internalType": "bytes",
          "name": "counterdata",
          "type": "bytes"
        }
      ],
      "name": "splitAddOne",
      "outputs": [
        {
          "internalType": "uint256",
          "name": "",
          "type": "uint256"
        }
      ],
      "stateMutability": "view",
      "type": "function"
    },
    {
      "inputs": [
        {
          "internalType": "bytes",
          "name": "extra",
          "type": "bytes"
        },
        {
          "internalType": "address[7]",
          "name": "addresses",
          "type": "address[7]"
        },
        {
          "internalType": "enum AuthenticatedProxy.HowToCall[2]",
          "name": "howToCalls",
          "type": "uint8[2]"
        },
        {
          "internalType": "uint256[6]",
          "name": "uints",
          "type": "uint256[6]"
        },
        {
          "internalType": "bytes",
          "name": "data",
          "type": "bytes"
        },
        {
          "internalType": "bytes",
          "name": "counterdata",
          "type": "bytes"
        }
      ],
      "name": "swapExact",
      "outputs": [
        {
          "internalType": "uint256",
          "name": "",
          "type": "uint256"
        }
      ],
      "stateMutability": "pure",
      "type": "function"
    },
    {
      "inputs": [
        {
          "internalType": "bytes",
          "name": "extra",
          "type": "bytes"
        },
        {
          "internalType": "address[7]",
          "name": "addresses",
          "type": "address[7]"
        },
        {
          "internalType": "enum AuthenticatedProxy.HowToCall[2]",
          "name": "howToCalls",
          "type": "uint8[2]"
        },
        {
          "internalType": "uint256[6]",
          "name": "uints",
          "type": "uint256[6]"
        },
        {
          "internalType": "bytes",
          "name": "data",
          "type": "bytes"
        },
        {
          "internalType": "bytes",
          "name": "counterdata",
          "type": "bytes"
        }
      ],
      "name": "swapForever",
      "outputs": [
        {
          "internalType": "uint256",
          "name": "",
          "type": "uint256"
        }
      ],
      "stateMutability": "pure",
      "type": "function"
    },
    {
      "inputs": [
        {
          "internalType": "bytes",
          "name": "extra",
          "type": "bytes"
        },
        {
          "internalType": "address[7]",
          "name": "addresses",
          "type": "address[7]"
        },
        {
          "internalType": "enum AuthenticatedProxy.HowToCall[2]",
          "name": "howToCalls",
          "type": "uint8[2]"
        },
        {
          "internalType": "uint256[6]",
          "name": "uints",
          "type": "uint256[6]"
        },
        {
          "internalType": "bytes",
          "name": "data",
          "type": "bytes"
        },
        {
          "internalType": "bytes",
          "name": "counterdata",
          "type": "bytes"
        }
      ],
      "name": "swapOneForOneERC1155",
      "outputs": [
        {
          "internalType": "uint256",
          "name": "",
          "type": "uint256"
        }
      ],
      "stateMutability": "pure",
      "type": "function"
    },
    {
      "inputs": [
        {
          "internalType": "bytes",
          "name": "extra",
          "type": "bytes"
        },
        {
          "internalType": "address[7]",
          "name": "addresses",
          "type": "address[7]"
        },
        {
          "internalType": "enum AuthenticatedProxy.HowToCall[2]",
          "name": "howToCalls",
          "type": "uint8[2]"
        },
        {
          "internalType": "uint256[6]",
          "name": "uints",
          "type": "uint256[6]"
        },
        {
          "internalType": "bytes",
          "name": "data",
          "type": "bytes"
        },
        {
          "internalType": "bytes",
          "name": "counterdata",
          "type": "bytes"
        }
      ],
      "name": "swapOneForOneERC1155Decoding",
      "outputs": [
        {
          "internalType": "uint256",
          "name": "",
          "type": "uint256"
        }
      ],
      "stateMutability": "pure",
      "type": "function"
    },
    {
      "inputs": [
        {
          "internalType": "bytes",
          "name": "extra",
          "type": "bytes"
        },
        {
          "internalType": "address[7]",
          "name": "addresses",
          "type": "address[7]"
        },
        {
          "internalType": "enum AuthenticatedProxy.HowToCall[2]",
          "name": "howToCalls",
          "type": "uint8[2]"
        },
        {
          "internalType": "uint256[6]",
          "name": "uints",
          "type": "uint256[6]"
        },
        {
          "internalType": "bytes",
          "name": "data",
          "type": "bytes"
        },
        {
          "internalType": "bytes",
          "name": "counterdata",
          "type": "bytes"
        }
      ],
      "name": "swapOneForOneERC721",
      "outputs": [
        {
          "internalType": "uint256",
          "name": "",
          "type": "uint256"
        }
      ],
      "stateMutability": "pure",
      "type": "function"
    },
    {
      "inputs": [
        {
          "internalType": "bytes",
          "name": "extra",
          "type": "bytes"
        },
        {
          "internalType": "address[7]",
          "name": "addresses",
          "type": "address[7]"
        },
        {
          "internalType": "enum AuthenticatedProxy.HowToCall[2]",
          "name": "howToCalls",
          "type": "uint8[2]"
        },
        {
          "internalType": "uint256[6]",
          "name": "uints",
          "type": "uint256[6]"
        },
        {
          "internalType": "bytes",
          "name": "data",
          "type": "bytes"
        },
        {
          "internalType": "bytes",
          "name": "counterdata",
          "type": "bytes"
        }
      ],
      "name": "swapOneForOneERC721Decoding",
      "outputs": [
        {
          "internalType": "uint256",
          "name": "",
          "type": "uint256"
        }
      ],
      "stateMutability": "pure",
      "type": "function"
    },
    {
      "inputs": [
        {
          "internalType": "bytes",
          "name": "extra",
          "type": "bytes"
        },
        {
          "internalType": "address[7]",
          "name": "addresses",
          "type": "address[7]"
        },
        {
          "internalType": "enum AuthenticatedProxy.HowToCall",
          "name": "howToCall",
          "type": "uint8"
        },
        {
          "internalType": "uint256[6]",
          "name": "",
          "type": "uint256[6]"
        },
        {
          "internalType": "bytes",
          "name": "data",
          "type": "bytes"
        }
      ],
      "name": "transferERC1155Exact",
      "outputs": [],
      "stateMutability": "pure",
      "type": "function"
    },
    {
      "inputs": [
        {
          "internalType": "bytes",
          "name": "extra",
          "type": "bytes"
        },
        {
          "internalType": "address[7]",
          "name": "addresses",
          "type": "address[7]"
        },
        {
          "internalType": "enum AuthenticatedProxy.HowToCall",
          "name": "howToCall",
          "type": "uint8"
        },
        {
          "internalType": "uint256[6]",
          "name": "",
          "type": "uint256[6]"
        },
        {
          "internalType": "bytes",
          "name": "data",
          "type": "bytes"
        }
      ],
      "name": "transferERC20Exact",
      "outputs": [],
      "stateMutability": "pure",
      "type": "function"
    },
    {
      "inputs": [
        {
          "internalType": "bytes",
          "name": "extra",
          "type": "bytes"
        },
        {
          "internalType": "address[7]",
          "name": "addresses",
          "type": "address[7]"
        },
        {
          "internalType": "enum AuthenticatedProxy.HowToCall",
          "name": "howToCall",
          "type": "uint8"
        },
        {
          "internalType": "uint256[6]",
          "name": "",
          "type": "uint256[6]"
        },
        {
          "internalType": "bytes",
          "name": "data",
          "type": "bytes"
        }
      ],
      "name": "transferERC721Exact",
      "outputs": [],
      "stateMutability": "pure",
      "type": "function"
    },
    {
      "inputs": [],
      "name": "test",
      "outputs": [],
      "stateMutability": "pure",
      "type": "function"
    }
  ],
  "bytecode": "0x60806040523480156200001157600080fd5b5060405162002c3238038062002c3283398101604081905262000034916200005a565b600080546001600160a01b0319166001600160a01b03929092169190911790556200008a565b6000602082840312156200006c578081fd5b81516001600160a01b038116811462000083578182fd5b9392505050565b612b98806200009a6000396000f3fe608060405234801561001057600080fd5b506004361061014d5760003560e01c8063883ee430116100c3578063dcbcb5d91161007c578063dcbcb5d9146102da578063ddf98cc2146102ed578063e1beb48414610300578063ed94fc661461031a578063f6280c861461032d578063f8a8fd6d1461021157600080fd5b8063883ee43014610279578063a09858da1461028c578063ac5cc03f1461029f578063b67bf134146102b2578063b6c8184b146101fe578063ba352743146102c757600080fd5b8063265a87e711610115578063265a87e7146101fe5780632e0b69db146102135780634563928f146102265780634e9413f9146102395780637557ef981461024c578063837b54ad1461025f57600080fd5b8063025b6d341461015257806306fdde03146101785780630d3b91d4146101ad57806320e9a818146101d857806323f62d9c146101eb575b600080fd5b610165610160366004612480565b610340565b6040519081526020015b60405180910390f35b6101a0604051806040016040528060098152602001684c372053746174696360b81b81525081565b60405161016f91906127ef565b6000546101c0906001600160a01b031681565b6040516001600160a01b03909116815260200161016f565b6101656101e6366004612480565b610362565b6101656101f9366004612480565b610519565b61021161020c366004612587565b61068b565b005b610211610221366004612587565b610743565b610165610234366004612480565b610819565b610211610247366004612480565b610b1a565b61016561025a366004612480565b610d20565b61016561026d366004612480565b60019695505050505050565b610165610287366004612480565b610e48565b61016561029a366004612480565b6110cf565b6102116102ad366004612587565b6110f0565b6102116102c0366004612587565b5050505050565b6101656102d5366004612480565b611222565b6102116102e8366004612480565b61134d565b6101656102fb366004612480565b6115bc565b61016561030e366004612480565b60009695505050505050565b610211610328366004612587565b6115d5565b61016561033b366004612480565b6116e7565b600061035587878784602002015187876110f0565b5060019695505050505050565b60008060008060008a80602001905181019061037e91906121db565b929650909450925090506103f284600060200201518460006020020151848d8d600060200201518d8d6040516024016103bb959493929190612791565b60408051601f198184030181529190526020810180516001600160e01b03166001600160e01b031990931692909217909152611915565b6103fb57600080fd5b6104ff84600160200201518460016020020151836040518060e001604052808f60036007811061043b57634e487b7160e01b600052603260045260246000fd5b602090810291909101516001600160a01b03168252018f6004602090810291909101516001600160a01b03168252018f6005602090810291909101516001600160a01b03168252018f6000602090810291909101516001600160a01b03168252018f6001602090810291909101516001600160a01b03168252018f6002602090810291909101516001600160a01b03168252018f600660200201516001600160a01b031690528d600160200201518d8c6040516024016103bb959493929190612791565b61050857600080fd5b5060019a9950505050505050505050565b82516000901561052857600080fd5b6000808880602001905181019061053f91906122a8565b815160408b01519294509092506001600160a01b0391821691161461056357600080fd5b8651600090600181111561058757634e487b7160e01b600052602160045260246000fd5b1461059157600080fd5b610600858960015b602002015160808b01518460005b60200201516040516001600160a01b03938416602482015292909116604483015260648201526084015b60408051601f198184030181529190526020810180516001600160e01b03166323b872dd60e01b17905261192b565b61060957600080fd5b602082015160a08901516001600160a01b0390811691161461062a57600080fd5b6020870151600090600181111561065157634e487b7160e01b600052602160045260246000fd5b1461065b57600080fd5b608088015160208901516106739186918460016105a7565b61067c57600080fd5b50600198975050505050505050565b600080868060200190518101906106a29190612178565b90925090506001600160a01b03821686600260200201516001600160a01b0316146106cc57600080fd5b60008560018111156106ee57634e487b7160e01b600052602160045260246000fd5b146106f857600080fd5b602086015160808701516040516001600160a01b03928316602482015291166044820152606481018290526107319084906084016105d1565b61073a57600080fd5b50505050505050565b60008060008780602001905181019061075c91906121a5565b919450925090506001600160a01b03831687600260200201516001600160a01b03161461078857600080fd5b60008660018111156107aa57634e487b7160e01b600052602160045260246000fd5b146107b457600080fd5b602087015160808801516040516108069287926107d792879087906024016126c2565b60408051601f198184030181529190526020810180516001600160e01b0316637921219560e11b17905261192b565b61080f57600080fd5b5050505050505050565b82516000901561082857600080fd5b60008060008980602001905181019061084191906122dc565b825160408d015193965091945092506001600160a01b039182169116146108835760405162461bcd60e51b815260040161087a9061292d565b60405180910390fd5b80516108e75760405162461bcd60e51b815260206004820152602d60248201527f455243313135353a206769766520616d6f756e74206d757374206265206c617260448201526c676572207468616e207a65726f60981b606482015260840161087a565b8751600090600181111561090b57634e487b7160e01b600052602160045260246000fd5b146109285760405162461bcd60e51b815260040161087a90612802565b61095b868a600160200201518b60045b602002015185518560005b60200201516040516024016107d794939291906126c2565b61096457600080fd5b602083015160a08a01516001600160a01b039081169116146109ee5760405162461bcd60e51b815260206004820152603e60248201527f455243313135353a20636f756e74657263616c6c20746172676574206d75737460448201527f20657175616c2061646472657373206f6620746f6b656e20746f206765740000606482015260840161087a565b6020810151610a555760405162461bcd60e51b815260206004820152602d60248201527f455243313135353a2074616b6520616d6f756e74206d757374206265206c617260448201526c676572207468616e207a65726f60981b606482015260840161087a565b60208801516000906001811115610a7c57634e487b7160e01b600052602160045260246000fd5b14610adc5760405162461bcd60e51b815260206004820152602a60248201527f455243313135353a20636f756e74657263616c6c206d757374206265206120646044820152691a5c9958dd0818d85b1b60b21b606482015260840161087a565b610b01858a600460200201518b60015b60200201518560016020020151856001610943565b610b0a57600080fd5b5060019998505050505050505050565b60008060008089806020019051810190610b349190612321565b93509350935093508151845114610b4a57600080fd5b6000805b8551811015610d12576000848281518110610b7957634e487b7160e01b600052603260045260246000fd5b60200260200101516001600160401b03811115610ba657634e487b7160e01b600052604160045260246000fd5b6040519080825280601f01601f191660200182016040528015610bd0576020820181803683370190505b50905060005b858381518110610bf657634e487b7160e01b600052603260045260246000fd5b6020026020010151811015610c8757848481518110610c2557634e487b7160e01b600052603260045260246000fd5b602001015160f81c60f81b828281518110610c5057634e487b7160e01b600052603260045260246000fd5b60200101906001600160f81b031916908160001a90535083610c7181612b03565b9450508080610c7f90612b03565b915050610bd6565b50610cf6878381518110610cab57634e487b7160e01b600052603260045260246000fd5b6020026020010151878481518110610cd357634e487b7160e01b600052603260045260246000fd5b6020026020010151838f8f8f8f8f6040516024016103bb969594939291906126fa565b610cff57600080fd5b5080610d0a81612b03565b915050610b4e565b505050505050505050505050565b604080516004808252602482019092526020810180516001600160e01b0316637921219560e11b1790526000918291610d589161198f565b855190915015610d6757600080fd5b60008060008a806020019051810190610d8091906122dc565b825160408e015193965091945092506001600160a01b03918216911614610db95760405162461bcd60e51b815260040161087a9061292d565b88516000906001811115610ddd57634e487b7160e01b600052602160045260246000fd5b14610dfa5760405162461bcd60e51b815260040161087a90612802565b610e0e84610e0989600461198f565b61192b565b610e1757600080fd5b610e2b878b600160200201518c6004610938565b610e3457600080fd5b6104ff868b600460200201518c6001610aec565b604080516004808252602482019092526020810180516001600160e01b03166323b872dd60e01b1790526000918291610e809161198f565b855190915015610e8f57600080fd5b60008089806020019051810190610ea691906122a8565b815160408c01519294509092506001600160a01b03918216911614610edd5760405162461bcd60e51b815260040161087a9061288e565b87516000906001811115610f0157634e487b7160e01b600052602160045260246000fd5b14610f1e5760405162461bcd60e51b815260040161087a906128eb565b610f2d83610e0988600461198f565b610f3657600080fd5b6000806000610f468960046119a4565b806020019051810190610f599190612136565b919450925090508b600160200201516001600160a01b0316836001600160a01b031614610f8557600080fd5b60808c01516001600160a01b03838116911614610fa157600080fd5b83518114610fae57600080fd5b602085015160a08d01516001600160a01b03908116911614610fe25760405162461bcd60e51b815260040161087a9061298a565b60208b0151600090600181111561100957634e487b7160e01b600052602160045260246000fd5b146110265760405162461bcd60e51b815260040161087a90612845565b61103586610e098a600461198f565b61103e57600080fd5b600080600061104e8b60046119a4565b8060200190518101906110619190612136565b919450925090508e600460200201516001600160a01b0316836001600160a01b03161461108d57600080fd5b60208f01516001600160a01b038381169116146110a957600080fd5b602087015181146110b957600080fd5b5060019f9e505050505050505050505050505050565b60008360055b60200201516110e5906001612a89565b979650505050505050565b6000806000808880602001905181019061110a91906123af565b9350935093509350825184511461112057600080fd5b6000806000806111318960046119a4565b8060200190518101906111449190612428565b600054939750919550935091506001600160a01b03168c600260200201516001600160a01b03161461117557600080fd5b60018b600181111561119757634e487b7160e01b600052602160045260246000fd5b146111a157600080fd5b83518851146111af57600080fd5b60005b8851811015611201578381815181106111db57634e487b7160e01b600052603260045260246000fd5b60200260200101516000146111ef57600080fd5b806111f981612b03565b9150506111b2565b506112138483838f8e8d8d8d8d6119ca565b50505050505050505050505050565b82516000901561123157600080fd5b6000808880602001905181019061124891906122a8565b815160408b01519294509092506001600160a01b0391821691161461127f5760405162461bcd60e51b815260040161087a9061288e565b865160009060018111156112a357634e487b7160e01b600052602160045260246000fd5b146112c05760405162461bcd60e51b815260040161087a906128eb565b6112cc85896001610599565b6112d557600080fd5b602082015160a08901516001600160a01b039081169116146113095760405162461bcd60e51b815260040161087a9061298a565b6020870151600090600181111561133057634e487b7160e01b600052602160045260246000fd5b1461065b5760405162461bcd60e51b815260040161087a90612845565b600080600080898060200190518101906113679190612321565b935093509350935081518451146113e65760405162461bcd60e51b815260206004820152603860248201527f446966666572656e74206e756d626572206f66207374617469632063616c6c2060448201527f61646472657373657320616e6420657874726164617461730000000000000000606482015260840161087a565b6000805b855181101561156b57600084828151811061141557634e487b7160e01b600052603260045260246000fd5b60200260200101516001600160401b0381111561144257634e487b7160e01b600052604160045260246000fd5b6040519080825280601f01601f19166020018201604052801561146c576020820181803683370190505b50905060005b85838151811061149257634e487b7160e01b600052603260045260246000fd5b6020026020010151811015611523578484815181106114c157634e487b7160e01b600052603260045260246000fd5b602001015160f81c60f81b8282815181106114ec57634e487b7160e01b600052603260045260246000fd5b60200101906001600160f81b031916908160001a9053508361150d81612b03565b945050808061151b90612b03565b915050611472565b50611547878381518110610cab57634e487b7160e01b600052603260045260246000fd5b1561155857505050505050506115b4565b508061156381612b03565b9150506113ea565b5060405162461bcd60e51b815260206004820152601960248201527f4e6f207374617469632063616c6c732073756363656564656400000000000000604482015260640161087a565b505050505050565b60006115cc878787878787610362565b508360056110d5565b600080600080888060200190518101906115ef91906123af565b9350935093509350825184511461160557600080fd5b6000806000806116168960046119a4565b8060200190518101906116299190612428565b600054939750919550935091506001600160a01b03168c600260200201516001600160a01b03161461165a57600080fd5b60018b600181111561167c57634e487b7160e01b600052602160045260246000fd5b1461168657600080fd5b83518851111561169557600080fd5b60005b8851811015611201578381815181106116c157634e487b7160e01b600052603260045260246000fd5b60200260200101516000146116d557600080fd5b806116df81612b03565b915050611698565b604080516004808252602482019092526020810180516001600160e01b03166323b872dd60e01b179052600091829161171f9161198f565b85519091501561172e57600080fd5b6000808980602001905181019061174591906122a8565b815160408c01519294509092506001600160a01b0391821691161461176957600080fd5b8751600090600181111561178d57634e487b7160e01b600052602160045260246000fd5b1461179757600080fd5b6117a683610e0988600461198f565b6117af57600080fd5b60008060006117bf8960046119a4565b8060200190518101906117d29190612136565b919450925090508b600160200201516001600160a01b0316836001600160a01b0316146117fe57600080fd5b60808c01516001600160a01b0383811691161461181a57600080fd5b602085015160a08d01516001600160a01b0390811691161461183b57600080fd5b60208b0151600090600181111561186257634e487b7160e01b600052602160045260246000fd5b1461186c57600080fd5b61187b86610e098a600461198f565b61188457600080fd5b60008060006118948b60046119a4565b8060200190518101906118a79190612136565b919450925090508e600460200201516001600160a01b0316836001600160a01b0316146118d357600080fd5b60208f01516001600160a01b038381169116146118ef57600080fd5b86516118fb9085612aa1565b602088015161190a9083612aa1565b10156110b957600080fd5b600080604051835160208501865afa9392505050565b8151815160009160019181148083146119475760009250611985565b600160208701838101602088015b6002848385100114156119805780518351146119745760009650600093505b60209283019201611955565b505050505b5090949350505050565b606061199d83600084611d47565b9392505050565b606060008284516119b59190612ac0565b90506119c2848483611d47565b949350505050565b60008060005b8651811015611d2c5760008682815181106119fb57634e487b7160e01b600052603260045260246000fd5b60200260200101516001600160401b03811115611a2857634e487b7160e01b600052604160045260246000fd5b6040519080825280601f01601f191660200182016040528015611a52576020820181803683370190505b50905060005b878381518110611a7857634e487b7160e01b600052603260045260246000fd5b6020026020010151811015611b0957858581518110611aa757634e487b7160e01b600052603260045260246000fd5b602001015160f81c60f81b828281518110611ad257634e487b7160e01b600052603260045260246000fd5b60200101906001600160f81b031916908160001a90535084611af381612b03565b9550508080611b0190612b03565b915050611a58565b5060008c8381518110611b2c57634e487b7160e01b600052603260045260246000fd5b60200260200101516001600160401b03811115611b5957634e487b7160e01b600052604160045260246000fd5b6040519080825280601f01601f191660200182016040528015611b83576020820181803683370190505b50905060005b8d8481518110611ba957634e487b7160e01b600052603260045260246000fd5b6020026020010151811015611c3a578c8581518110611bd857634e487b7160e01b600052603260045260246000fd5b602001015160f81c60f81b828281518110611c0357634e487b7160e01b600052603260045260246000fd5b60200101906001600160f81b031916908160001a90535084611c2481612b03565b9550508080611c3290612b03565b915050611b89565b508d8381518110611c5b57634e487b7160e01b600052603260045260246000fd5b60200260200101518b600260078110611c8457634e487b7160e01b600052603260045260246000fd5b60200201906001600160a01b031690816001600160a01b031681525050611d0e898481518110611cc457634e487b7160e01b600052603260045260246000fd5b6020026020010151888581518110611cec57634e487b7160e01b600052603260045260246000fd5b6020026020010151848e60008f876040516024016103bb959493929190612791565b611d1757600080fd5b50508080611d2490612b03565b9150506119d0565b5082518214611d3a57600080fd5b5050505050505050505050565b60608082158015611d6357604051915060208201604052611dad565b6040519150601f8416801560200281840101858101878315602002848b0101015b81831015611d9c578051835260209283019201611d84565b5050858452601f01601f1916604052505b50949350505050565b600082601f830112611dc6578081fd5b611dce6129e7565b808385604086011115611ddf578384fd5b835b6002811015611e0a578151611df581612b4a565b84526020938401939190910190600101611de1565b509095945050505050565b600082601f830112611e25578081fd5b60405160e081018181106001600160401b0382111715611e4757611e47612b34565b604052808360e08101861015611e5b578384fd5b835b6007811015611e86578135611e7181612b4a565b83526020928301929190910190600101611e5d565b509195945050505050565b600082601f830112611ea1578081fd5b81516020611eb6611eb183612a3f565b612a0f565b80838252828201915082860187848660051b8901011115611ed5578586fd5b855b85811015611efc578151611eea81612b4a565b84529284019290840190600101611ed7565b5090979650505050505050565b600082601f830112611f19578081fd5b81516020611f29611eb183612a3f565b80838252828201915082860187848660051b8901011115611f48578586fd5b855b85811015611efc57611f5b8261207b565b84529284019290840190600101611f4a565b600082601f830112611f7d578081fd5b611f856129e7565b808385604086011115611f96578384fd5b835b6002811015611e0a578151845260209384019390910190600101611f98565b600082601f830112611fc7578081fd5b60405160c081018181106001600160401b0382111715611fe957611fe9612b34565b604052808360c08101861015611ffd578384fd5b835b6006811015611e86578135835260209283019290910190600101611fff565b600082601f83011261202e578081fd5b8151602061203e611eb183612a3f565b80838252828201915082860187848660051b890101111561205d578586fd5b855b85811015611efc5781518452928401929084019060010161205f565b80516001600160e01b03198116811461209357600080fd5b919050565b600082601f8301126120a8578081fd5b81356120b6611eb182612a62565b8181528460208386010111156120ca578283fd5b816020850160208301379081016020019190915292915050565b600082601f8301126120f4578081fd5b8151612102611eb182612a62565b818152846020838601011115612116578283fd5b6119c2826020830160208701612ad7565b80356002811061209357600080fd5b60008060006060848603121561214a578283fd5b835161215581612b4a565b602085015190935061216681612b4a565b80925050604084015190509250925092565b6000806040838503121561218a578182fd5b825161219581612b4a565b6020939093015192949293505050565b6000806000606084860312156121b9578081fd5b83516121c481612b4a565b602085015160409095015190969495509392505050565b60008060008060c085870312156121f0578182fd5b6121fa8686611db6565b935085605f86011261220a578182fd5b6122126129e7565b80604087016080880189811115612227578586fd5b855b60028110156122505761223b8361207b565b85526020948501949290920191600101612229565b50519195509091506001600160401b0390508082111561226e578384fd5b61227a888389016120e4565b935060a087015191508082111561228f578283fd5b5061229c878288016120e4565b91505092959194509250565b600080608083850312156122ba578182fd5b6122c48484611db6565b91506122d38460408501611f6d565b90509250929050565b600080600060c084860312156122f0578081fd5b6122fa8585611db6565b92506123098560408601611f6d565b91506123188560808601611f6d565b90509250925092565b60008060008060808587031215612336578182fd5b84516001600160401b038082111561234c578384fd5b61235888838901611e91565b9550602087015191508082111561236d578384fd5b61237988838901611f09565b9450604087015191508082111561238e578384fd5b61239a8883890161201e565b9350606087015191508082111561228f578283fd5b600080600080608085870312156123c4578182fd5b84516001600160401b03808211156123da578384fd5b6123e688838901611e91565b955060208701519150808211156123fb578384fd5b6124078883890161201e565b9450604087015191508082111561241c578384fd5b61239a88838901611f09565b6000806000806080858703121561243d578182fd5b84516001600160401b0380821115612453578384fd5b61245f88838901611e91565b95506020870151915080821115612474578384fd5b6123798883890161201e565b6000806000806000806102408789031215612499578384fd5b86356001600160401b03808211156124af578586fd5b6124bb8a838b01612098565b9750602091506124cd8a838b01611e15565b96508961011f8a01126124de578586fd5b6124e66129e7565b806101008b016101408c018d8111156124fd57898afd5b895b60028110156125235761251183612127565b855293860193918601916001016124ff565b508299506125318e82611fb7565b98505050505061020089013591508082111561254b578384fd5b6125578a838b01612098565b935061022089013591508082111561256d578283fd5b5061257a89828a01612098565b9150509295509295509295565b6000806000806000610200868803121561259f578283fd5b85356001600160401b03808211156125b5578485fd5b6125c189838a01612098565b96506125d08960208a01611e15565b95506125df6101008901612127565b94506125ef896101208a01611fb7565b93506101e0880135915080821115612605578283fd5b5061261288828901612098565b9150509295509295909350565b8060005b600781101561264b5781516001600160a01b0316845260209384019390910190600101612623565b50505050565b8060005b600681101561264b578151845260209384019390910190600101612655565b6000815180845261268c816020860160208601612ad7565b601f01601f19169290920160200192915050565b600281106126be57634e487b7160e01b600052602160045260246000fd5b9052565b6001600160a01b0394851681529290931660208301526040820152606081019190915260a06080820181905260009082015260c00190565b600061024080835261270e8184018a612674565b9050602061271e8185018a61261f565b610100840188845b600281101561274a5761273a8383516126a0565b9183019190830190600101612726565b5050505061275c610140840187612651565b82810361020084015261276f8186612674565b90508281036102208401526127848185612674565b9998505050505050505050565b60006102008083526127a581840189612674565b90506127b4602084018861261f565b6127c26101008401876126a0565b6127d0610120840186612651565b8281036101e08401526127e38185612674565b98975050505050505050565b60208152600061199d6020830184612674565b60208082526023908201527f455243313135353a2063616c6c206d7573742062652061206469726563742063604082015262185b1b60ea1b606082015260800190565b60208082526029908201527f4552433732313a20636f756e74657263616c6c206d75737420626520612064696040820152681c9958dd0818d85b1b60ba1b606082015260800190565b60208082526037908201527f4552433732313a2063616c6c20746172676574206d75737420657175616c206160408201527f646472657373206f6620746f6b656e20746f2067697665000000000000000000606082015260800190565b60208082526022908201527f4552433732313a2063616c6c206d7573742062652061206469726563742063616040820152611b1b60f21b606082015260800190565b60208082526038908201527f455243313135353a2063616c6c20746172676574206d75737420657175616c2060408201527f61646472657373206f6620746f6b656e20746f20676976650000000000000000606082015260800190565b6020808252603d908201527f4552433732313a20636f756e74657263616c6c20746172676574206d7573742060408201527f657175616c2061646472657373206f6620746f6b656e20746f20676574000000606082015260800190565b604080519081016001600160401b0381118282101715612a0957612a09612b34565b60405290565b604051601f8201601f191681016001600160401b0381118282101715612a3757612a37612b34565b604052919050565b60006001600160401b03821115612a5857612a58612b34565b5060051b60200190565b60006001600160401b03821115612a7b57612a7b612b34565b50601f01601f191660200190565b60008219821115612a9c57612a9c612b1e565b500190565b6000816000190483118215151615612abb57612abb612b1e565b500290565b600082821015612ad257612ad2612b1e565b500390565b60005b83811015612af2578181015183820152602001612ada565b8381111561264b5750506000910152565b6000600019821415612b1757612b17612b1e565b5060010190565b634e487b7160e01b600052601160045260246000fd5b634e487b7160e01b600052604160045260246000fd5b6001600160a01b0381168114612b5f57600080fd5b5056fea26469706673582212205e4d9965e20366c8c17af516f983f2a5a40001caa2192f3674e585242c324c1664736f6c63430008040033",
  "immutableReferences": {},
  "source": "// SPDX-License-Identifier: MIT\n/*\n\n  << L7 Static >>\n\n*/\n\npragma solidity 0.8.4;\n\nimport \"./static/StaticERC20.sol\";\nimport \"./static/StaticERC721.sol\";\nimport \"./static/StaticERC1155.sol\";\nimport \"./static/StaticUtil.sol\";\n\n/**\n * @title L7Static\n */\ncontract L7Static is StaticERC20, StaticERC721, StaticERC1155, StaticUtil {\n\n    string public constant name = \"L7 Static\";\n\n    constructor (address atomicizerAddress) {\n        atomicizer = atomicizerAddress;\n    }\n\n    function test () \n        public\n        pure\n    {\n    }\n\n}\n",
  "sourcePath": "/Users/baonq/Projects/l7/l7-marketplace-smartcontract/contracts/L7Static.sol",
  "compiler": {
    "name": "solc",
    "version": "0.8.4+commit.c7e474f2.Emscripten.clang"
  },
  "schemaVersion": "3.4.1",
  "updatedAt": "2021-11-16T08:37:44.234Z",
  "devdoc": {
    "kind": "dev",
    "methods": {},
    "title": "L7Static",
    "version": 1
  },
  "userdoc": {
    "kind": "user",
    "methods": {},
    "version": 1
  }
}