{
  "contractName": "MinimalForwarder",
  "abi": [
    {
      "inputs": [],
      "stateMutability": "nonpayable",
      "type": "constructor"
    },
    {
      "inputs": [
        {
          "internalType": "address",
          "name": "from",
          "type": "address"
        }
      ],
      "name": "getNonce",
      "outputs": [
        {
          "internalType": "uint256",
          "name": "",
          "type": "uint256"
        }
      ],
      "stateMutability": "view",
      "type": "function"
    },
    {
      "inputs": [
        {
          "components": [
            {
              "internalType": "address",
              "name": "from",
              "type": "address"
            },
            {
              "internalType": "address",
              "name": "to",
              "type": "address"
            },
            {
              "internalType": "uint256",
              "name": "value",
              "type": "uint256"
            },
            {
              "internalType": "uint256",
              "name": "gas",
              "type": "uint256"
            },
            {
              "internalType": "uint256",
              "name": "nonce",
              "type": "uint256"
            },
            {
              "internalType": "bytes",
              "name": "data",
              "type": "bytes"
            }
          ],
          "internalType": "struct MinimalForwarder.ForwardRequest",
          "name": "req",
          "type": "tuple"
        },
        {
          "internalType": "bytes",
          "name": "signature",
          "type": "bytes"
        }
      ],
      "name": "verify",
      "outputs": [
        {
          "internalType": "bool",
          "name": "",
          "type": "bool"
        }
      ],
      "stateMutability": "view",
      "type": "function"
    },
    {
      "inputs": [
        {
          "components": [
            {
              "internalType": "address",
              "name": "from",
              "type": "address"
            },
            {
              "internalType": "address",
              "name": "to",
              "type": "address"
            },
            {
              "internalType": "uint256",
              "name": "value",
              "type": "uint256"
            },
            {
              "internalType": "uint256",
              "name": "gas",
              "type": "uint256"
            },
            {
              "internalType": "uint256",
              "name": "nonce",
              "type": "uint256"
            },
            {
              "internalType": "bytes",
              "name": "data",
              "type": "bytes"
            }
          ],
          "internalType": "struct MinimalForwarder.ForwardRequest",
          "name": "req",
          "type": "tuple"
        },
        {
          "internalType": "bytes",
          "name": "signature",
          "type": "bytes"
        }
      ],
      "name": "execute",
      "outputs": [
        {
          "internalType": "bool",
          "name": "",
          "type": "bool"
        },
        {
          "internalType": "bytes",
          "name": "",
          "type": "bytes"
        }
      ],
      "stateMutability": "payable",
      "type": "function"
    }
  ],
  "bytecode": "0x61012060405234801561001157600080fd5b50604080518082018252601081526f26b4b734b6b0b62337b93bb0b93232b960811b6020808301918252835180850185526005815264302e302e3160d81b908201529151902060c08181527fae209a0b48f21c054280f2455d32cf309387644879d9acbd8ffc19916381188560e08190524660a081815286517f8b73c3c69bb8fe3d512ecc4cf759cc79239f7b179b0ffacaa9a75d522b39400f818801819052818901969096526060810193909352608080840192909252308382015286518084039091018152919092019094528351939092019290922090526101005260805160a05160c05160e051610100516109e5610133600039600061055e015260006105ad015260006105880152600061050c0152600061053501526109e56000f3fe6080604052600436106100345760003560e01c80632d0335ab1461003957806347153f8214610082578063bf5d3bdb146100a3575b600080fd5b34801561004557600080fd5b5061006f61005436600461079b565b6001600160a01b031660009081526020819052604090205490565b6040519081526020015b60405180910390f35b6100956100903660046107c9565b6100d3565b6040516100799291906108b3565b3480156100af57600080fd5b506100c36100be3660046107c9565b610280565b6040519015158152602001610079565b600060606100e2858585610280565b61014e5760405162461bcd60e51b815260206004820152603260248201527f4d696e696d616c466f727761726465723a207369676e617475726520646f6573604482015271081b9bdd081b585d18da081c995c5d595cdd60721b60648201526084015b60405180910390fd5b61015d6080860135600161093b565b60008061016d602089018961079b565b6001600160a01b03166001600160a01b03168152602001908152602001600020819055506000808660200160208101906101a7919061079b565b6001600160a01b0316606088013560408901356101c760a08b018b6108ef565b6101d460208d018d61079b565b6040516020016101e693929190610871565b60408051601f198184030181529082905261020091610897565b600060405180830381858888f193505050503d806000811461023e576040519150601f19603f3d011682016040523d82523d6000602084013e610243565b606091505b509092509050610258603f606089013561095f565b5a1161027457634e487b7160e01b600052600160045260246000fd5b90969095509350505050565b60008061039384848080601f01602080910402602001604051908101604052809392919081815260200183838082843760009201919091525061038d92507fdd8f4b70b0f4393e889bd39128a30628a78b61816a9eb8199759e7a349657e4891506102f0905060208a018a61079b565b61030060408b0160208c0161079b565b60408b013560608c013560808d013561031c60a08f018f6108ef565b60405161032a929190610861565b6040805191829003822060208301989098526001600160a01b0396871690820152949093166060850152608084019190915260a083015260c082015260e081019190915261010001604051602081830303815290604052805190602001206103fe565b90610452565b905060808501356000806103aa602089018961079b565b6001600160a01b03166001600160a01b03168152602001908152602001600020541480156103f557506103e0602086018661079b565b6001600160a01b0316816001600160a01b0316145b95945050505050565b600061044c61040b610508565b8360405161190160f01b6020820152602281018390526042810182905260009060620160405160208183030381529060405280519060200120905092915050565b92915050565b60008060008084516041141561047c5750505060208201516040830151606084015160001a6104f2565b8451604014156104aa5750505060408201516020830151906001600160ff1b0381169060ff1c601b016104f2565b60405162461bcd60e51b815260206004820152601f60248201527f45434453413a20696e76616c6964207369676e6174757265206c656e677468006044820152606401610145565b6104fe868285856105fb565b9695505050505050565b60007f000000000000000000000000000000000000000000000000000000000000000046141561055757507f000000000000000000000000000000000000000000000000000000000000000090565b50604080517f00000000000000000000000000000000000000000000000000000000000000006020808301919091527f0000000000000000000000000000000000000000000000000000000000000000828401527f000000000000000000000000000000000000000000000000000000000000000060608301524660808301523060a0808401919091528351808403909101815260c0909201909252805191012090565b60007f7fffffffffffffffffffffffffffffff5d576e7357a4501ddfe92f46681b20a08211156106785760405162461bcd60e51b815260206004820152602260248201527f45434453413a20696e76616c6964207369676e6174757265202773272076616c604482015261756560f01b6064820152608401610145565b8360ff16601b148061068d57508360ff16601c145b6106e45760405162461bcd60e51b815260206004820152602260248201527f45434453413a20696e76616c6964207369676e6174757265202776272076616c604482015261756560f01b6064820152608401610145565b6040805160008082526020820180845288905260ff871692820192909252606081018590526080810184905260019060a0016020604051602081039080840390855afa158015610738573d6000803e3d6000fd5b5050604051601f1901519150506001600160a01b0381166103f55760405162461bcd60e51b815260206004820152601860248201527f45434453413a20696e76616c6964207369676e617475726500000000000000006044820152606401610145565b6000602082840312156107ac578081fd5b81356001600160a01b03811681146107c2578182fd5b9392505050565b6000806000604084860312156107dd578182fd5b833567ffffffffffffffff808211156107f4578384fd5b9085019060c08288031215610807578384fd5b9093506020850135908082111561081c578384fd5b818601915086601f83011261082f578384fd5b81358181111561083d578485fd5b87602082850101111561084e578485fd5b6020830194508093505050509250925092565b8183823760009101908152919050565b8284823760609190911b6bffffffffffffffffffffffff19169101908152601401919050565b600082516108a981846020870161097f565b9190910192915050565b821515815260406020820152600082518060408401526108da81606085016020870161097f565b601f01601f1916919091016060019392505050565b6000808335601e19843603018112610905578283fd5b83018035915067ffffffffffffffff82111561091f578283fd5b60200191503681900382131561093457600080fd5b9250929050565b6000821982111561095a57634e487b7160e01b81526011600452602481fd5b500190565b60008261097a57634e487b7160e01b81526012600452602481fd5b500490565b60005b8381101561099a578181015183820152602001610982565b838111156109a9576000848401525b5050505056fea2646970667358221220b9e5892a565f6cd43afb8b71aae25f7475ae5e8b66dc4721d7a0b30a2f6aba6e64736f6c63430008040033",
  "immutableReferences": {
    "16317": [
      {
        "length": 32,
        "start": 1333
      }
    ],
    "16319": [
      {
        "length": 32,
        "start": 1292
      }
    ],
    "16321": [
      {
        "length": 32,
        "start": 1416
      }
    ],
    "16323": [
      {
        "length": 32,
        "start": 1453
      }
    ],
    "16325": [
      {
        "length": 32,
        "start": 1374
      }
    ]
  },
  "source": "// SPDX-License-Identifier: MIT\r\n\r\npragma solidity ^0.8.0;\r\n\r\nimport \"../utils/cryptography/ECDSA.sol\";\r\nimport \"../utils/cryptography/draft-EIP712.sol\";\r\n\r\n/*\r\n * @dev Simple minimal forwarder to be used together with an ERC2771 compatible contract. See {ERC2771Context}.\r\n */\r\ncontract MinimalForwarder is EIP712 {\r\n    using ECDSA for bytes32;\r\n\r\n    struct ForwardRequest {\r\n        address from;\r\n        address to;\r\n        uint256 value;\r\n        uint256 gas;\r\n        uint256 nonce;\r\n        bytes data;\r\n    }\r\n\r\n    bytes32 private constant TYPEHASH = keccak256(\"ForwardRequest(address from,address to,uint256 value,uint256 gas,uint256 nonce,bytes data)\");\r\n\r\n    mapping(address => uint256) private _nonces;\r\n\r\n    constructor() EIP712(\"MinimalForwarder\", \"0.0.1\") {}\r\n\r\n    function getNonce(address from) public view returns (uint256) {\r\n        return _nonces[from];\r\n    }\r\n\r\n    function verify(ForwardRequest calldata req, bytes calldata signature) public view returns (bool) {\r\n        address signer = _hashTypedDataV4(keccak256(abi.encode(\r\n            TYPEHASH,\r\n            req.from,\r\n            req.to,\r\n            req.value,\r\n            req.gas,\r\n            req.nonce,\r\n            keccak256(req.data)\r\n        ))).recover(signature);\r\n        return _nonces[req.from] == req.nonce && signer == req.from;\r\n    }\r\n\r\n    function execute(ForwardRequest calldata req, bytes calldata signature) public payable returns (bool, bytes memory) {\r\n        require(verify(req, signature), \"MinimalForwarder: signature does not match request\");\r\n        _nonces[req.from] = req.nonce + 1;\r\n\r\n        // solhint-disable-next-line avoid-low-level-calls\r\n        (bool success, bytes memory returndata) = req.to.call{gas: req.gas, value: req.value}(abi.encodePacked(req.data, req.from));\r\n        // Validate that the relayer has sent enough gas for the call.\r\n        // See https://ronan.eth.link/blog/ethereum-gas-dangers/\r\n        assert(gasleft() > req.gas / 63);\r\n\r\n        return (success, returndata);\r\n    }\r\n}\r\n",
  "sourcePath": "D:\\0xTaureum\\github\\taureum-nft-protocol-sc\\contracts\\lib\\metatx\\MinimalForwarder.sol",
  "compiler": {
    "name": "solc",
    "version": "0.8.4+commit.c7e474f2.Emscripten.clang"
  },
  "schemaVersion": "3.4.3",
  "updatedAt": "2021-09-02T09:15:35.763Z",
  "devdoc": {
    "kind": "dev",
    "methods": {},
    "version": 1
  },
  "userdoc": {
    "kind": "user",
    "methods": {},
    "version": 1
  }
}