{
  "contractName": "OwnableDelegateProxy",
  "abi": [
    {
      "inputs": [
        {
          "internalType": "address",
          "name": "owner",
          "type": "address"
        },
        {
          "internalType": "address",
          "name": "initialImplementation",
          "type": "address"
        },
        {
          "internalType": "bytes",
          "name": "data",
          "type": "bytes"
        }
      ],
      "stateMutability": "nonpayable",
      "type": "constructor"
    },
    {
      "anonymous": false,
      "inputs": [
        {
          "indexed": false,
          "internalType": "address",
          "name": "previousOwner",
          "type": "address"
        },
        {
          "indexed": false,
          "internalType": "address",
          "name": "newOwner",
          "type": "address"
        }
      ],
      "name": "ProxyOwnershipTransferred",
      "type": "event"
    },
    {
      "anonymous": false,
      "inputs": [
        {
          "indexed": true,
          "internalType": "address",
          "name": "implementation",
          "type": "address"
        }
      ],
      "name": "Upgraded",
      "type": "event"
    },
    {
      "stateMutability": "payable",
      "type": "fallback"
    },
    {
      "inputs": [],
      "name": "implementation",
      "outputs": [
        {
          "internalType": "address",
          "name": "",
          "type": "address"
        }
      ],
      "stateMutability": "view",
      "type": "function"
    },
    {
      "inputs": [],
      "name": "proxyOwner",
      "outputs": [
        {
          "internalType": "address",
          "name": "",
          "type": "address"
        }
      ],
      "stateMutability": "view",
      "type": "function"
    },
    {
      "inputs": [],
      "name": "proxyType",
      "outputs": [
        {
          "internalType": "uint256",
          "name": "proxyTypeId",
          "type": "uint256"
        }
      ],
      "stateMutability": "pure",
      "type": "function"
    },
    {
      "inputs": [
        {
          "internalType": "address",
          "name": "newOwner",
          "type": "address"
        }
      ],
      "name": "transferProxyOwnership",
      "outputs": [],
      "stateMutability": "nonpayable",
      "type": "function"
    },
    {
      "inputs": [
        {
          "internalType": "address",
          "name": "impl",
          "type": "address"
        }
      ],
      "name": "upgradeTo",
      "outputs": [],
      "stateMutability": "nonpayable",
      "type": "function"
    },
    {
      "inputs": [
        {
          "internalType": "address",
          "name": "impl",
          "type": "address"
        },
        {
          "internalType": "bytes",
          "name": "data",
          "type": "bytes"
        }
      ],
      "name": "upgradeToAndCall",
      "outputs": [],
      "stateMutability": "payable",
      "type": "function"
    },
    {
      "inputs": [],
      "name": "upgradeabilityOwner",
      "outputs": [
        {
          "internalType": "address",
          "name": "",
          "type": "address"
        }
      ],
      "stateMutability": "view",
      "type": "function"
    },
    {
      "stateMutability": "payable",
      "type": "receive"
    }
  ],
  "bytecode": "0x608060405234801561001057600080fd5b506040516109d83803806109d883398101604081905261002f916101f0565b600180546001600160a01b0319166001600160a01b0385161790556100538261011f565b6000826001600160a01b03168260405161006d91906102bc565b600060405180830381855af49150503d80600081146100a8576040519150601f19603f3d011682016040523d82523d6000602084013e6100ad565b606091505b50509050806101165760405162461bcd60e51b815260206004820152602a60248201527f4f776e61626c6544656c656761746550726f7879206661696c656420696d706c60448201526932b6b2b73a30ba34b7b760b11b60648201526084015b60405180910390fd5b5050505061031e565b6000546001600160a01b038281169116141561018c5760405162461bcd60e51b815260206004820152602660248201527f50726f787920616c72656164792075736573207468697320696d706c656d656e6044820152653a30ba34b7b760d11b606482015260840161010d565b600080546001600160a01b0319166001600160a01b038316908117825560405190917fbc7cd75a20ee27fd9adebab32041f755214dbc6bffa90cc0225b39da2e5c2d3b91a250565b80516001600160a01b03811681146101eb57600080fd5b919050565b600080600060608486031215610204578283fd5b61020d846101d4565b925061021b602085016101d4565b60408501519092506001600160401b0380821115610237578283fd5b818601915086601f83011261024a578283fd5b81518181111561025c5761025c610308565b604051601f8201601f19908116603f0116810190838211818310171561028457610284610308565b8160405282815289602084870101111561029c578586fd5b6102ad8360208301602088016102d8565b80955050505050509250925092565b600082516102ce8184602087016102d8565b9190910192915050565b60005b838110156102f35781810151838201526020016102db565b83811115610302576000848401525b50505050565b634e487b7160e01b600052604160045260246000fd5b6106ab8061032d6000396000f3fe6080604052600436106100745760003560e01c80634f1ef2861161004e5780634f1ef2861461016e5780635c60da1b146101815780636fde82021461019f578063f1739cae146101bd5761007b565b8063025313a2146100fe5780633659cfe6146101305780634555d5c9146101525761007b565b3661007b57005b6000546001600160a01b0316806100d95760405162461bcd60e51b815260206004820152601d60248201527f50726f787920696d706c656d656e746174696f6e20726571756972656400000060448201526064015b60405180910390fd5b60405136600082376000803683855af43d806000843e8180156100fa578184f35b8184fd5b34801561010a57600080fd5b506101136101dd565b6040516001600160a01b0390911681526020015b60405180910390f35b34801561013c57600080fd5b5061015061014b3660046104ff565b6101f6565b005b34801561015e57600080fd5b5060405160028152602001610127565b61015061017c366004610520565b61023a565b34801561018d57600080fd5b506000546001600160a01b0316610113565b3480156101ab57600080fd5b506001546001600160a01b0316610113565b3480156101c957600080fd5b506101506101d83660046104ff565b61032b565b60006101f16001546001600160a01b031690565b905090565b6101fe6101dd565b6001600160a01b0316336001600160a01b03161461022e5760405162461bcd60e51b81526004016100d090610616565b6102378161042e565b50565b6102426101dd565b6001600160a01b0316336001600160a01b0316146102725760405162461bcd60e51b81526004016100d090610616565b61027b826101f6565b6000306001600160a01b03168260405161029591906105dd565b600060405180830381855af49150503d80600081146102d0576040519150601f19603f3d011682016040523d82523d6000602084013e6102d5565b606091505b50509050806103265760405162461bcd60e51b815260206004820152601f60248201527f43616c6c206661696c65642061667465722070726f787920757067726164650060448201526064016100d0565b505050565b6103336101dd565b6001600160a01b0316336001600160a01b0316146103635760405162461bcd60e51b81526004016100d090610616565b6001600160a01b0381166103c55760405162461bcd60e51b8152602060048201526024808201527f4e6577206f776e65722063616e6e6f7420626520746865206e756c6c206164646044820152637265737360e01b60648201526084016100d0565b7f5a3e66efaa1e445ebd894728a69d6959842ea1e97bd79b892797106e270efcd96103ee6101dd565b604080516001600160a01b03928316815291841660208301520160405180910390a1600180546001600160a01b0319166001600160a01b03831617905550565b6000546001600160a01b038281169116141561049b5760405162461bcd60e51b815260206004820152602660248201527f50726f787920616c72656164792075736573207468697320696d706c656d656e6044820152653a30ba34b7b760d11b60648201526084016100d0565b600080546001600160a01b0319166001600160a01b038316908117825560405190917fbc7cd75a20ee27fd9adebab32041f755214dbc6bffa90cc0225b39da2e5c2d3b91a250565b80356001600160a01b03811681146104fa57600080fd5b919050565b600060208284031215610510578081fd5b610519826104e3565b9392505050565b60008060408385031215610532578081fd5b61053b836104e3565b9150602083013567ffffffffffffffff80821115610557578283fd5b818501915085601f83011261056a578283fd5b81358181111561057c5761057c61065f565b604051601f8201601f19908116603f011681019083821181831017156105a4576105a461065f565b816040528281528860208487010111156105bc578586fd5b82602086016020830137856020848301015280955050505050509250929050565b60008251815b818110156105fd57602081860181015185830152016105e3565b8181111561060b5782828501525b509190910192915050565b60208082526029908201527f4f6e6c79207468652070726f7879206f776e65722063616e2063616c6c2074686040820152681a5cc81b595d1a1bd960ba1b606082015260800190565b634e487b7160e01b600052604160045260246000fdfea264697066735822122025091a66c97c75b8cd56302699283c3191ba6c86fcb6a03ee9c43e5d65cd79da64736f6c63430008040033",
  "immutableReferences": {},
  "source": "// SPDX-License-Identifier: MIT\n/*\n\n  OwnableDelegateProxy\n\n*/\n\npragma solidity 0.8.4;\n\nimport \"./proxy/OwnedUpgradeabilityProxy.sol\";\n\n/**\n * @title OwnableDelegateProxy\n * @author Wyvern Protocol Developers\n */\ncontract OwnableDelegateProxy is OwnedUpgradeabilityProxy {\n\n    constructor(address owner, address initialImplementation, bytes memory data) {\n        setUpgradeabilityOwner(owner);\n        _upgradeTo(initialImplementation);\n        (bool success,) = initialImplementation.delegatecall(data);\n        require(success, \"OwnableDelegateProxy failed implementation\");\n    }\n\n}\n",
  "sourcePath": "/Users/baonq/Projects/l7/l7-marketplace-smartcontract/contracts/registry/OwnableDelegateProxy.sol",
  "compiler": {
    "name": "solc",
    "version": "0.8.4+commit.c7e474f2.Emscripten.clang"
  },
  "schemaVersion": "3.4.1",
  "updatedAt": "2021-11-16T08:37:44.343Z",
  "devdoc": {
    "author": "Wyvern Protocol Developers",
    "kind": "dev",
    "methods": {
      "implementation()": {
        "details": "Tells the address of the current implementation",
        "returns": {
          "_0": "address of the current implementation"
        }
      },
      "proxyOwner()": {
        "details": "Tells the address of the proxy owner",
        "returns": {
          "_0": "the address of the proxy owner"
        }
      },
      "proxyType()": {
        "details": "Tells the proxy type (EIP 897)",
        "returns": {
          "proxyTypeId": "Proxy type, 2 for forwarding proxy"
        }
      },
      "transferProxyOwnership(address)": {
        "details": "Allows the current owner to transfer control of the contract to a newOwner.",
        "params": {
          "newOwner": "The address to transfer ownership to."
        }
      },
      "upgradeTo(address)": {
        "details": "Allows the upgradeability owner to upgrade the current implementation of the proxy.",
        "params": {
          "impl": "representing the address of the new implementation to be set."
        }
      },
      "upgradeToAndCall(address,bytes)": {
        "details": "Allows the upgradeability owner to upgrade the current implementation of the proxy and delegatecall the new implementation for initialization.",
        "params": {
          "data": "represents the msg.data to bet sent in the low level call. This parameter may include the function signature of the implementation to be called with the needed payload",
          "impl": "representing the address of the new implementation to be set."
        }
      },
      "upgradeabilityOwner()": {
        "details": "Tells the address of the owner",
        "returns": {
          "_0": "the address of the owner"
        }
      }
    },
    "title": "OwnableDelegateProxy",
    "version": 1
  },
  "userdoc": {
    "kind": "user",
    "methods": {},
    "version": 1
  }
}