{
  "contractName": "OwnedUpgradeabilityProxy",
  "abi": [
    {
      "anonymous": false,
      "inputs": [
        {
          "indexed": false,
          "internalType": "address",
          "name": "previousOwner",
          "type": "address"
        },
        {
          "indexed": false,
          "internalType": "address",
          "name": "newOwner",
          "type": "address"
        }
      ],
      "name": "ProxyOwnershipTransferred",
      "type": "event"
    },
    {
      "anonymous": false,
      "inputs": [
        {
          "indexed": true,
          "internalType": "address",
          "name": "implementation",
          "type": "address"
        }
      ],
      "name": "Upgraded",
      "type": "event"
    },
    {
      "stateMutability": "payable",
      "type": "fallback"
    },
    {
      "inputs": [],
      "name": "upgradeabilityOwner",
      "outputs": [
        {
          "internalType": "address",
          "name": "",
          "type": "address"
        }
      ],
      "stateMutability": "view",
      "type": "function"
    },
    {
      "stateMutability": "payable",
      "type": "receive"
    },
    {
      "inputs": [],
      "name": "implementation",
      "outputs": [
        {
          "internalType": "address",
          "name": "",
          "type": "address"
        }
      ],
      "stateMutability": "view",
      "type": "function"
    },
    {
      "inputs": [],
      "name": "proxyType",
      "outputs": [
        {
          "internalType": "uint256",
          "name": "proxyTypeId",
          "type": "uint256"
        }
      ],
      "stateMutability": "pure",
      "type": "function"
    },
    {
      "inputs": [],
      "name": "proxyOwner",
      "outputs": [
        {
          "internalType": "address",
          "name": "",
          "type": "address"
        }
      ],
      "stateMutability": "view",
      "type": "function"
    },
    {
      "inputs": [
        {
          "internalType": "address",
          "name": "newOwner",
          "type": "address"
        }
      ],
      "name": "transferProxyOwnership",
      "outputs": [],
      "stateMutability": "nonpayable",
      "type": "function"
    },
    {
      "inputs": [
        {
          "internalType": "address",
          "name": "impl",
          "type": "address"
        }
      ],
      "name": "upgradeTo",
      "outputs": [],
      "stateMutability": "nonpayable",
      "type": "function"
    },
    {
      "inputs": [
        {
          "internalType": "address",
          "name": "impl",
          "type": "address"
        },
        {
          "internalType": "bytes",
          "name": "data",
          "type": "bytes"
        }
      ],
      "name": "upgradeToAndCall",
      "outputs": [],
      "stateMutability": "payable",
      "type": "function"
    }
  ],
  "bytecode": "0x608060405234801561001057600080fd5b506106ab806100206000396000f3fe6080604052600436106100745760003560e01c80634f1ef2861161004e5780634f1ef2861461016e5780635c60da1b146101815780636fde82021461019f578063f1739cae146101bd5761007b565b8063025313a2146100fe5780633659cfe6146101305780634555d5c9146101525761007b565b3661007b57005b6000546001600160a01b0316806100d95760405162461bcd60e51b815260206004820152601d60248201527f50726f787920696d706c656d656e746174696f6e20726571756972656400000060448201526064015b60405180910390fd5b60405136600082376000803683855af43d806000843e8180156100fa578184f35b8184fd5b34801561010a57600080fd5b506101136101dd565b6040516001600160a01b0390911681526020015b60405180910390f35b34801561013c57600080fd5b5061015061014b3660046104ff565b6101f6565b005b34801561015e57600080fd5b5060405160028152602001610127565b61015061017c366004610520565b61023a565b34801561018d57600080fd5b506000546001600160a01b0316610113565b3480156101ab57600080fd5b506001546001600160a01b0316610113565b3480156101c957600080fd5b506101506101d83660046104ff565b61032b565b60006101f16001546001600160a01b031690565b905090565b6101fe6101dd565b6001600160a01b0316336001600160a01b03161461022e5760405162461bcd60e51b81526004016100d090610616565b6102378161042e565b50565b6102426101dd565b6001600160a01b0316336001600160a01b0316146102725760405162461bcd60e51b81526004016100d090610616565b61027b826101f6565b6000306001600160a01b03168260405161029591906105dd565b600060405180830381855af49150503d80600081146102d0576040519150601f19603f3d011682016040523d82523d6000602084013e6102d5565b606091505b50509050806103265760405162461bcd60e51b815260206004820152601f60248201527f43616c6c206661696c65642061667465722070726f787920757067726164650060448201526064016100d0565b505050565b6103336101dd565b6001600160a01b0316336001600160a01b0316146103635760405162461bcd60e51b81526004016100d090610616565b6001600160a01b0381166103c55760405162461bcd60e51b8152602060048201526024808201527f4e6577206f776e65722063616e6e6f7420626520746865206e756c6c206164646044820152637265737360e01b60648201526084016100d0565b7f5a3e66efaa1e445ebd894728a69d6959842ea1e97bd79b892797106e270efcd96103ee6101dd565b604080516001600160a01b03928316815291841660208301520160405180910390a1600180546001600160a01b0319166001600160a01b03831617905550565b6000546001600160a01b038281169116141561049b5760405162461bcd60e51b815260206004820152602660248201527f50726f787920616c72656164792075736573207468697320696d706c656d656e6044820152653a30ba34b7b760d11b60648201526084016100d0565b600080546001600160a01b0319166001600160a01b038316908117825560405190917fbc7cd75a20ee27fd9adebab32041f755214dbc6bffa90cc0225b39da2e5c2d3b91a250565b80356001600160a01b03811681146104fa57600080fd5b919050565b600060208284031215610510578081fd5b610519826104e3565b9392505050565b60008060408385031215610532578081fd5b61053b836104e3565b9150602083013567ffffffffffffffff80821115610557578283fd5b818501915085601f83011261056a578283fd5b81358181111561057c5761057c61065f565b604051601f8201601f19908116603f011681019083821181831017156105a4576105a461065f565b816040528281528860208487010111156105bc578586fd5b82602086016020830137856020848301015280955050505050509250929050565b60008251815b818110156105fd57602081860181015185830152016105e3565b8181111561060b5782828501525b509190910192915050565b60208082526029908201527f4f6e6c79207468652070726f7879206f776e65722063616e2063616c6c2074686040820152681a5cc81b595d1a1bd960ba1b606082015260800190565b634e487b7160e01b600052604160045260246000fdfea26469706673582212204f11c2ed66c9caae9010723bcab773073a44638ae5beeada400a46e58bfb831864736f6c63430008040033",
  "immutableReferences": {},
  "source": "// SPDX-License-Identifier: MIT\n\npragma solidity 0.8.4;\n\nimport \"./Proxy.sol\";\nimport \"./OwnedUpgradeabilityStorage.sol\";\n\n/**\n * @title OwnedUpgradeabilityProxy\n * @dev This contract combines an upgradeability proxy with basic authorization control functionalities\n */\ncontract OwnedUpgradeabilityProxy is Proxy, OwnedUpgradeabilityStorage {\n    /**\n     * @dev Event to show ownership has been transferred\n     * @param previousOwner representing the address of the previous owner\n     * @param newOwner representing the address of the new owner\n     */\n    event ProxyOwnershipTransferred(address previousOwner, address newOwner);\n\n    /**\n     * @dev This event will be emitted every time the implementation gets upgraded\n     * @param implementation representing the address of the upgraded implementation\n     */\n    event Upgraded(address indexed implementation);\n\n    /**\n     * @dev Tells the address of the current implementation\n     * @return address of the current implementation\n     */\n    function implementation() override public view returns (address) {\n        return _implementation;\n    }\n\n    /**\n     * @dev Tells the proxy type (EIP 897)\n     * @return proxyTypeId Proxy type, 2 for forwarding proxy\n     */\n    function proxyType() override public pure returns (uint256 proxyTypeId) {\n        return 2;\n    }\n\n    /**\n     * @dev Upgrades the implementation address\n     * @param impl representing the address of the new implementation to be set\n     */\n    function _upgradeTo(address impl) internal {\n        require(_implementation != impl, \"Proxy already uses this implementation\");\n        _implementation = impl;\n        emit Upgraded(impl);\n    }\n\n    /**\n     * @dev Throws if called by any account other than the owner.\n     */\n    modifier onlyProxyOwner() {\n        require(msg.sender == proxyOwner(), \"Only the proxy owner can call this method\");\n        _;\n    }\n\n    /**\n     * @dev Tells the address of the proxy owner\n     * @return the address of the proxy owner\n     */\n    function proxyOwner() public view returns (address) {\n        return upgradeabilityOwner();\n    }\n\n    /**\n     * @dev Allows the current owner to transfer control of the contract to a newOwner.\n     * @param newOwner The address to transfer ownership to.\n     */\n    function transferProxyOwnership(address newOwner) public onlyProxyOwner {\n        require(newOwner != address(0), \"New owner cannot be the null address\");\n        emit ProxyOwnershipTransferred(proxyOwner(), newOwner);\n        setUpgradeabilityOwner(newOwner);\n    }\n\n    /**\n     * @dev Allows the upgradeability owner to upgrade the current implementation of the proxy.\n     * @param impl representing the address of the new implementation to be set.\n     */\n    function upgradeTo(address impl) public onlyProxyOwner {\n        _upgradeTo(impl);\n    }\n\n    /**\n     * @dev Allows the upgradeability owner to upgrade the current implementation of the proxy\n     * and delegatecall the new implementation for initialization.\n     * @param impl representing the address of the new implementation to be set.\n     * @param data represents the msg.data to bet sent in the low level call. This parameter may include the function\n     * signature of the implementation to be called with the needed payload\n     */\n    function upgradeToAndCall(address impl, bytes memory data) payable public onlyProxyOwner {\n        upgradeTo(impl);\n        (bool success,) = address(this).delegatecall(data);\n        require(success, \"Call failed after proxy upgrade\");\n    }\n}\n",
  "sourcePath": "/home/toor/nodejs/truffle/nft_demo/taureum/taureum-nft-protocol-sc/contracts/registry/proxy/OwnedUpgradeabilityProxy.sol",
  "compiler": {
    "name": "solc",
    "version": "0.8.4+commit.c7e474f2.Emscripten.clang"
  },
  "schemaVersion": "3.4.1",
  "updatedAt": "2021-09-02T04:22:11.754Z",
  "devdoc": {
    "details": "This contract combines an upgradeability proxy with basic authorization control functionalities",
    "events": {
      "ProxyOwnershipTransferred(address,address)": {
        "details": "Event to show ownership has been transferred",
        "params": {
          "newOwner": "representing the address of the new owner",
          "previousOwner": "representing the address of the previous owner"
        }
      },
      "Upgraded(address)": {
        "details": "This event will be emitted every time the implementation gets upgraded",
        "params": {
          "implementation": "representing the address of the upgraded implementation"
        }
      }
    },
    "kind": "dev",
    "methods": {
      "implementation()": {
        "details": "Tells the address of the current implementation",
        "returns": {
          "_0": "address of the current implementation"
        }
      },
      "proxyOwner()": {
        "details": "Tells the address of the proxy owner",
        "returns": {
          "_0": "the address of the proxy owner"
        }
      },
      "proxyType()": {
        "details": "Tells the proxy type (EIP 897)",
        "returns": {
          "proxyTypeId": "Proxy type, 2 for forwarding proxy"
        }
      },
      "transferProxyOwnership(address)": {
        "details": "Allows the current owner to transfer control of the contract to a newOwner.",
        "params": {
          "newOwner": "The address to transfer ownership to."
        }
      },
      "upgradeTo(address)": {
        "details": "Allows the upgradeability owner to upgrade the current implementation of the proxy.",
        "params": {
          "impl": "representing the address of the new implementation to be set."
        }
      },
      "upgradeToAndCall(address,bytes)": {
        "details": "Allows the upgradeability owner to upgrade the current implementation of the proxy and delegatecall the new implementation for initialization.",
        "params": {
          "data": "represents the msg.data to bet sent in the low level call. This parameter may include the function signature of the implementation to be called with the needed payload",
          "impl": "representing the address of the new implementation to be set."
        }
      },
      "upgradeabilityOwner()": {
        "details": "Tells the address of the owner",
        "returns": {
          "_0": "the address of the owner"
        }
      }
    },
    "title": "OwnedUpgradeabilityProxy",
    "version": 1
  },
  "userdoc": {
    "kind": "user",
    "methods": {},
    "version": 1
  }
}