{
  "contractName": "OwnedUpgradeabilityStorage",
  "abi": [
    {
      "inputs": [],
      "name": "upgradeabilityOwner",
      "outputs": [
        {
          "internalType": "address",
          "name": "",
          "type": "address"
        }
      ],
      "stateMutability": "view",
      "type": "function"
    }
  ],
  "bytecode": "0x6080604052348015600f57600080fd5b50608280601d6000396000f3fe6080604052348015600f57600080fd5b506004361060285760003560e01c80636fde820214602d575b600080fd5b600154604080516001600160a01b039092168252519081900360200190f3fea264697066735822122044ef86276dc7a9a7b4bc6e26d4adf0b1c02680f61c2702e6324f74fd8130772564736f6c63430008040033",
  "immutableReferences": {},
  "source": "pragma solidity 0.8.4;\n\n/**\n * @title OwnedUpgradeabilityStorage\n * @dev This contract keeps track of the upgradeability owner\n */\ncontract OwnedUpgradeabilityStorage {\n\n    // Current implementation\n    address internal _implementation;\n\n    // Owner of the contract\n    address private _upgradeabilityOwner;\n\n    /**\n     * @dev Tells the address of the owner\n     * @return the address of the owner\n     */\n    function upgradeabilityOwner() public view returns (address) {\n        return _upgradeabilityOwner;\n    }\n\n    /**\n     * @dev Sets the address of the owner\n     */\n    function setUpgradeabilityOwner(address newUpgradeabilityOwner) internal {\n        _upgradeabilityOwner = newUpgradeabilityOwner;\n    }\n\n}\n",
  "sourcePath": "/home/toor/nodejs/truffle/nft_demo/taudefi/taudefi-nft-protocol/contracts/registry/proxy/OwnedUpgradeabilityStorage.sol",
  "compiler": {
    "name": "solc",
    "version": "0.8.4+commit.c7e474f2.Emscripten.clang"
  },
  "schemaVersion": "3.4.1",
  "updatedAt": "2021-07-20T04:04:07.168Z",
  "devdoc": {
    "details": "This contract keeps track of the upgradeability owner",
    "kind": "dev",
    "methods": {
      "upgradeabilityOwner()": {
        "details": "Tells the address of the owner",
        "returns": {
          "_0": "the address of the owner"
        }
      }
    },
    "title": "OwnedUpgradeabilityStorage",
    "version": 1
  },
  "userdoc": {
    "kind": "user",
    "methods": {},
    "version": 1
  }
}