{
  "contractName": "OwnedUpgradeabilityStorage",
  "abi": [
    {
      "inputs": [],
      "name": "upgradeabilityOwner",
      "outputs": [
        {
          "internalType": "address",
          "name": "",
          "type": "address"
        }
      ],
      "stateMutability": "view",
      "type": "function"
    }
  ],
  "bytecode": "0x6080604052348015600f57600080fd5b50608280601d6000396000f3fe6080604052348015600f57600080fd5b506004361060285760003560e01c80636fde820214602d575b600080fd5b600154604080516001600160a01b039092168252519081900360200190f3fea26469706673582212201c870a9672fded29e4e9fdeda4be38b7a8c60d74747777cdfe6f1351d220969a64736f6c63430008040033",
  "immutableReferences": {},
  "source": "// SPDX-License-Identifier: MIT\r\n\r\npragma solidity 0.8.4;\r\n\r\n/**\r\n * @title OwnedUpgradeabilityStorage\r\n * @dev This contract keeps track of the upgradeability owner\r\n */\r\ncontract OwnedUpgradeabilityStorage {\r\n\r\n    // Current implementation\r\n    address internal _implementation;\r\n\r\n    // Owner of the contract\r\n    address private _upgradeabilityOwner;\r\n\r\n    /**\r\n     * @dev Tells the address of the owner\r\n     * @return the address of the owner\r\n     */\r\n    function upgradeabilityOwner() public view returns (address) {\r\n        return _upgradeabilityOwner;\r\n    }\r\n\r\n    /**\r\n     * @dev Sets the address of the owner\r\n     */\r\n    function setUpgradeabilityOwner(address newUpgradeabilityOwner) internal {\r\n        _upgradeabilityOwner = newUpgradeabilityOwner;\r\n    }\r\n\r\n}\r\n",
  "sourcePath": "D:\\0xTaureum\\github\\taureum-nft-protocol-sc\\contracts\\registry\\proxy\\OwnedUpgradeabilityStorage.sol",
  "compiler": {
    "name": "solc",
    "version": "0.8.4+commit.c7e474f2.Emscripten.clang"
  },
  "schemaVersion": "3.4.3",
  "updatedAt": "2021-09-02T09:15:36.434Z",
  "devdoc": {
    "details": "This contract keeps track of the upgradeability owner",
    "kind": "dev",
    "methods": {
      "upgradeabilityOwner()": {
        "details": "Tells the address of the owner",
        "returns": {
          "_0": "the address of the owner"
        }
      }
    },
    "title": "OwnedUpgradeabilityStorage",
    "version": 1
  },
  "userdoc": {
    "kind": "user",
    "methods": {},
    "version": 1
  }
}