{
  "contractName": "ProxyRegistry",
  "abi": [
    {
      "anonymous": false,
      "inputs": [
        {
          "indexed": true,
          "internalType": "address",
          "name": "previousOwner",
          "type": "address"
        },
        {
          "indexed": true,
          "internalType": "address",
          "name": "newOwner",
          "type": "address"
        }
      ],
      "name": "OwnershipTransferred",
      "type": "event"
    },
    {
      "inputs": [],
      "name": "DELAY_PERIOD",
      "outputs": [
        {
          "internalType": "uint256",
          "name": "",
          "type": "uint256"
        }
      ],
      "stateMutability": "view",
      "type": "function"
    },
    {
      "inputs": [
        {
          "internalType": "address",
          "name": "",
          "type": "address"
        }
      ],
      "name": "contracts",
      "outputs": [
        {
          "internalType": "bool",
          "name": "",
          "type": "bool"
        }
      ],
      "stateMutability": "view",
      "type": "function"
    },
    {
      "inputs": [],
      "name": "delegateProxyImplementation",
      "outputs": [
        {
          "internalType": "address",
          "name": "",
          "type": "address"
        }
      ],
      "stateMutability": "view",
      "type": "function"
    },
    {
      "inputs": [],
      "name": "owner",
      "outputs": [
        {
          "internalType": "address",
          "name": "",
          "type": "address"
        }
      ],
      "stateMutability": "view",
      "type": "function"
    },
    {
      "inputs": [
        {
          "internalType": "address",
          "name": "",
          "type": "address"
        }
      ],
      "name": "pending",
      "outputs": [
        {
          "internalType": "uint256",
          "name": "",
          "type": "uint256"
        }
      ],
      "stateMutability": "view",
      "type": "function"
    },
    {
      "inputs": [
        {
          "internalType": "address",
          "name": "",
          "type": "address"
        }
      ],
      "name": "proxies",
      "outputs": [
        {
          "internalType": "contract OwnableDelegateProxy",
          "name": "",
          "type": "address"
        }
      ],
      "stateMutability": "view",
      "type": "function"
    },
    {
      "inputs": [],
      "name": "renounceOwnership",
      "outputs": [],
      "stateMutability": "nonpayable",
      "type": "function"
    },
    {
      "inputs": [
        {
          "internalType": "address",
          "name": "newOwner",
          "type": "address"
        }
      ],
      "name": "transferOwnership",
      "outputs": [],
      "stateMutability": "nonpayable",
      "type": "function"
    },
    {
      "inputs": [
        {
          "internalType": "address",
          "name": "addr",
          "type": "address"
        }
      ],
      "name": "startGrantAuthentication",
      "outputs": [],
      "stateMutability": "nonpayable",
      "type": "function"
    },
    {
      "inputs": [
        {
          "internalType": "address",
          "name": "addr",
          "type": "address"
        }
      ],
      "name": "endGrantAuthentication",
      "outputs": [],
      "stateMutability": "nonpayable",
      "type": "function"
    },
    {
      "inputs": [
        {
          "internalType": "address",
          "name": "addr",
          "type": "address"
        }
      ],
      "name": "revokeAuthentication",
      "outputs": [],
      "stateMutability": "nonpayable",
      "type": "function"
    },
    {
      "inputs": [],
      "name": "registerProxy",
      "outputs": [
        {
          "internalType": "contract OwnableDelegateProxy",
          "name": "proxy",
          "type": "address"
        }
      ],
      "stateMutability": "nonpayable",
      "type": "function"
    },
    {
      "inputs": [],
      "name": "registerProxyOverride",
      "outputs": [
        {
          "internalType": "contract OwnableDelegateProxy",
          "name": "proxy",
          "type": "address"
        }
      ],
      "stateMutability": "nonpayable",
      "type": "function"
    },
    {
      "inputs": [
        {
          "internalType": "address",
          "name": "user",
          "type": "address"
        }
      ],
      "name": "registerProxyFor",
      "outputs": [
        {
          "internalType": "contract OwnableDelegateProxy",
          "name": "proxy",
          "type": "address"
        }
      ],
      "stateMutability": "nonpayable",
      "type": "function"
    },
    {
      "inputs": [
        {
          "internalType": "address",
          "name": "from",
          "type": "address"
        },
        {
          "internalType": "address",
          "name": "to",
          "type": "address"
        }
      ],
      "name": "transferAccessTo",
      "outputs": [],
      "stateMutability": "nonpayable",
      "type": "function"
    }
  ],
  "bytecode": "0x60806040526212750060055534801561001757600080fd5b50600080546001600160a01b031916339081178255604051909182917f8be0079c531659141344cd1fd0a4f28419497f9722a3daafe3b4186f6b6457e0908290a35061152b806100686000396000f3fe60806040523480156200001157600080fd5b5060043610620001085760003560e01c80638da5cb5b11620000a3578063dcfa9222116200006e578063dcfa92221462000257578063ddd81f82146200026e578063e71a02e11462000278578063f2fde38b146200028257600080fd5b80638da5cb5b14620001ee57806397204d8e1462000200578063c45527911462000214578063d4e8e063146200024057600080fd5b80635eebea2011620000e45780635eebea201462000171578063631d9e3f14620001a357806369dc9ff314620001ad578063715018a614620001e457600080fd5b8062686741146200010d57806338b6e407146200014157806353376d1f146200015a575b600080fd5b620001246200011e366004620009f6565b62000299565b6040516001600160a01b0390911681526020015b60405180910390f35b6200015862000152366004620009f6565b620003c1565b005b620001586200016b366004620009f6565b62000516565b6200019462000182366004620009f6565b60036020526000908152604090205481565b60405190815260200162000138565b6200012462000564565b620001d3620001be366004620009f6565b60046020526000908152604090205460ff1681565b604051901515815260200162000138565b620001586200061b565b6000546001600160a01b031662000124565b60015462000124906001600160a01b031681565b6200012462000225366004620009f6565b6002602052600090815260409020546001600160a01b031681565b6200015862000251366004620009f6565b62000692565b620001586200026836600462000a1a565b62000785565b62000124620008ca565b6200019460055481565b6200015862000293366004620009f6565b620008dc565b6001600160a01b0381811660009081526002602052604081205490911615620003095760405162461bcd60e51b815260206004820152601860248201527f5573657220616c72656164792068617320612070726f7879000000000000000060448201526064015b60405180910390fd5b6001546040516001600160a01b0380851660248301523060448301528492169060640160408051601f198184030181529181526020820180516001600160e01b031663485cc95560e01b179052516200036290620009cb565b620003709392919062000a51565b604051809103906000f0801580156200038d573d6000803e3d6000fd5b506001600160a01b03928316600090815260026020526040902080546001600160a01b031916938216939093179092555090565b6000546001600160a01b03163314620003ee5760405162461bcd60e51b8152600401620003009062000ac3565b6001600160a01b03811660009081526004602052604090205460ff161580156200042f57506001600160a01b03811660009081526003602052604090205415155b80156200046257506005546001600160a01b0382166000908152600360205260409020544291620004609162000af8565b105b620004e55760405162461bcd60e51b815260206004820152604660248201527f436f6e7472616374206973206e6f206c6f6e6765722070656e64696e67206f7260448201527f2068617320616c7265616479206265656e20617070726f76656420627920726560648201526567697374727960d01b608482015260a40162000300565b6001600160a01b0316600090815260036020908152604080832083905560049091529020805460ff19166001179055565b6000546001600160a01b03163314620005435760405162461bcd60e51b8152600401620003009062000ac3565b6001600160a01b03166000908152600460205260409020805460ff19169055565b600154604051336024820181905230604483015260009290916001600160a01b039091169060640160408051601f198184030181529181526020820180516001600160e01b031663485cc95560e01b17905251620005c290620009cb565b620005d09392919062000a51565b604051809103906000f080158015620005ed573d6000803e3d6000fd5b5033600090815260026020526040902080546001600160a01b0319166001600160a01b038316179055919050565b6000546001600160a01b03163314620006485760405162461bcd60e51b8152600401620003009062000ac3565b600080546040516001600160a01b03909116907f8be0079c531659141344cd1fd0a4f28419497f9722a3daafe3b4186f6b6457e0908390a3600080546001600160a01b0319169055565b6000546001600160a01b03163314620006bf5760405162461bcd60e51b8152600401620003009062000ac3565b6001600160a01b03811660009081526004602052604090205460ff16158015620006ff57506001600160a01b038116600090815260036020526040902054155b620007695760405162461bcd60e51b815260206004820152603360248201527f436f6e747261637420697320616c726561647920616c6c6f77656420696e2072604482015272656769737472792c206f722070656e64696e6760681b606482015260840162000300565b6001600160a01b03166000908152600360205260409020429055565b6001600160a01b0380831660009081526002602052604090205416338114620008085760405162461bcd60e51b815260206004820152602e60248201527f50726f7879207472616e736665722063616e206f6e6c792062652063616c6c6560448201526d64206279207468652070726f787960901b606482015260840162000300565b6001600160a01b0382811660009081526002602052604090205416156200088b5760405162461bcd60e51b815260206004820152603060248201527f50726f7879207472616e7366657220686173206578697374696e672070726f7860448201526f3c9030b9903232b9ba34b730ba34b7b760811b606482015260840162000300565b6001600160a01b0392831660009081526002602052604080822080546001600160a01b0319908116909155938516825290208054919093169116179055565b6000620008d73362000299565b905090565b6000546001600160a01b03163314620009095760405162461bcd60e51b8152600401620003009062000ac3565b6001600160a01b038116620009705760405162461bcd60e51b815260206004820152602660248201527f4f776e61626c653a206e6577206f776e657220697320746865207a65726f206160448201526564647265737360d01b606482015260840162000300565b600080546040516001600160a01b03808516939216917f8be0079c531659141344cd1fd0a4f28419497f9722a3daafe3b4186f6b6457e091a3600080546001600160a01b0319166001600160a01b0392909216919091179055565b6109d88062000b1e83390190565b80356001600160a01b0381168114620009f157600080fd5b919050565b60006020828403121562000a08578081fd5b62000a1382620009d9565b9392505050565b6000806040838503121562000a2d578081fd5b62000a3883620009d9565b915062000a4860208401620009d9565b90509250929050565b600060018060a01b0380861683526020818616818501526060604085015284519150816060850152825b8281101562000a995785810182015185820160800152810162000a7b565b8281111562000aab5783608084870101525b5050601f01601f191691909101608001949350505050565b6020808252818101527f4f776e61626c653a2063616c6c6572206973206e6f7420746865206f776e6572604082015260600190565b6000821982111562000b1857634e487b7160e01b81526011600452602481fd5b50019056fe608060405234801561001057600080fd5b506040516109d83803806109d883398101604081905261002f916101f0565b600180546001600160a01b0319166001600160a01b0385161790556100538261011f565b6000826001600160a01b03168260405161006d91906102bc565b600060405180830381855af49150503d80600081146100a8576040519150601f19603f3d011682016040523d82523d6000602084013e6100ad565b606091505b50509050806101165760405162461bcd60e51b815260206004820152602a60248201527f4f776e61626c6544656c656761746550726f7879206661696c656420696d706c60448201526932b6b2b73a30ba34b7b760b11b60648201526084015b60405180910390fd5b5050505061031e565b6000546001600160a01b038281169116141561018c5760405162461bcd60e51b815260206004820152602660248201527f50726f787920616c72656164792075736573207468697320696d706c656d656e6044820152653a30ba34b7b760d11b606482015260840161010d565b600080546001600160a01b0319166001600160a01b038316908117825560405190917fbc7cd75a20ee27fd9adebab32041f755214dbc6bffa90cc0225b39da2e5c2d3b91a250565b80516001600160a01b03811681146101eb57600080fd5b919050565b600080600060608486031215610204578283fd5b61020d846101d4565b925061021b602085016101d4565b60408501519092506001600160401b0380821115610237578283fd5b818601915086601f83011261024a578283fd5b81518181111561025c5761025c610308565b604051601f8201601f19908116603f0116810190838211818310171561028457610284610308565b8160405282815289602084870101111561029c578586fd5b6102ad8360208301602088016102d8565b80955050505050509250925092565b600082516102ce8184602087016102d8565b9190910192915050565b60005b838110156102f35781810151838201526020016102db565b83811115610302576000848401525b50505050565b634e487b7160e01b600052604160045260246000fd5b6106ab8061032d6000396000f3fe6080604052600436106100745760003560e01c80634f1ef2861161004e5780634f1ef2861461016e5780635c60da1b146101815780636fde82021461019f578063f1739cae146101bd5761007b565b8063025313a2146100fe5780633659cfe6146101305780634555d5c9146101525761007b565b3661007b57005b6000546001600160a01b0316806100d95760405162461bcd60e51b815260206004820152601d60248201527f50726f787920696d706c656d656e746174696f6e20726571756972656400000060448201526064015b60405180910390fd5b60405136600082376000803683855af43d806000843e8180156100fa578184f35b8184fd5b34801561010a57600080fd5b506101136101dd565b6040516001600160a01b0390911681526020015b60405180910390f35b34801561013c57600080fd5b5061015061014b3660046104ff565b6101f6565b005b34801561015e57600080fd5b5060405160028152602001610127565b61015061017c366004610520565b61023a565b34801561018d57600080fd5b506000546001600160a01b0316610113565b3480156101ab57600080fd5b506001546001600160a01b0316610113565b3480156101c957600080fd5b506101506101d83660046104ff565b61032b565b60006101f16001546001600160a01b031690565b905090565b6101fe6101dd565b6001600160a01b0316336001600160a01b03161461022e5760405162461bcd60e51b81526004016100d090610616565b6102378161042e565b50565b6102426101dd565b6001600160a01b0316336001600160a01b0316146102725760405162461bcd60e51b81526004016100d090610616565b61027b826101f6565b6000306001600160a01b03168260405161029591906105dd565b600060405180830381855af49150503d80600081146102d0576040519150601f19603f3d011682016040523d82523d6000602084013e6102d5565b606091505b50509050806103265760405162461bcd60e51b815260206004820152601f60248201527f43616c6c206661696c65642061667465722070726f787920757067726164650060448201526064016100d0565b505050565b6103336101dd565b6001600160a01b0316336001600160a01b0316146103635760405162461bcd60e51b81526004016100d090610616565b6001600160a01b0381166103c55760405162461bcd60e51b8152602060048201526024808201527f4e6577206f776e65722063616e6e6f7420626520746865206e756c6c206164646044820152637265737360e01b60648201526084016100d0565b7f5a3e66efaa1e445ebd894728a69d6959842ea1e97bd79b892797106e270efcd96103ee6101dd565b604080516001600160a01b03928316815291841660208301520160405180910390a1600180546001600160a01b0319166001600160a01b03831617905550565b6000546001600160a01b038281169116141561049b5760405162461bcd60e51b815260206004820152602660248201527f50726f787920616c72656164792075736573207468697320696d706c656d656e6044820152653a30ba34b7b760d11b60648201526084016100d0565b600080546001600160a01b0319166001600160a01b038316908117825560405190917fbc7cd75a20ee27fd9adebab32041f755214dbc6bffa90cc0225b39da2e5c2d3b91a250565b80356001600160a01b03811681146104fa57600080fd5b919050565b600060208284031215610510578081fd5b610519826104e3565b9392505050565b60008060408385031215610532578081fd5b61053b836104e3565b9150602083013567ffffffffffffffff80821115610557578283fd5b818501915085601f83011261056a578283fd5b81358181111561057c5761057c61065f565b604051601f8201601f19908116603f011681019083821181831017156105a4576105a461065f565b816040528281528860208487010111156105bc578586fd5b82602086016020830137856020848301015280955050505050509250929050565b60008251815b818110156105fd57602081860181015185830152016105e3565b8181111561060b5782828501525b509190910192915050565b60208082526029908201527f4f6e6c79207468652070726f7879206f776e65722063616e2063616c6c2074686040820152681a5cc81b595d1a1bd960ba1b606082015260800190565b634e487b7160e01b600052604160045260246000fdfea2646970667358221220e09b4e65db56bbe1af20a24cf89c976d0f3d89724b89c304944b5a253388212964736f6c63430008040033a26469706673582212204bbb13a5f5c08bc705b24d7c8013b8ccf909476d9d59a24f00940076db63cb3464736f6c63430008040033",
  "immutableReferences": {},
  "source": "// SPDX-License-Identifier: MIT\r\n/*\r\n\r\n  Proxy registry; keeps a mapping of AuthenticatedProxy contracts and mapping of contracts authorized to access them.  \r\n  \r\n  Abstracted away from the Exchange (a) to reduce Exchange attack surface and (b) so that the Exchange contract can be upgraded without users needing to transfer assets to new proxies.\r\n\r\n*/\r\n\r\npragma solidity 0.8.4;\r\n\r\nimport \"./OwnableDelegateProxy.sol\";\r\nimport \"./ProxyRegistryInterface.sol\";\r\nimport \"../lib/access/Ownable.sol\";\r\n\r\n/**\r\n * @title ProxyRegistry\r\n * @author Wyvern Protocol Developers\r\n */\r\ncontract ProxyRegistry is Ownable, ProxyRegistryInterface {\r\n\r\n    /* DelegateProxy implementation contract. Must be initialized. */\r\n    address public override delegateProxyImplementation;\r\n\r\n    /* Authenticated proxies by user. */\r\n    mapping(address => OwnableDelegateProxy) public override proxies;\r\n\r\n    /* Contracts pending access. */\r\n    mapping(address => uint) public pending;\r\n\r\n    /* Contracts allowed to call those proxies. */\r\n    mapping(address => bool) public contracts;\r\n\r\n    /* Delay period for adding an authenticated contract.\r\n       This mitigates a particular class of potential attack on the Wyvern DAO (which owns this registry) - if at any point the value of assets held by proxy contracts exceeded the value of half the WYV supply (votes in the DAO),\r\n       a malicious but rational attacker could buy half the Wyvern and grant themselves access to all the proxy contracts. A delay period renders this attack nonthreatening - given two weeks, if that happened, users would have\r\n       plenty of time to notice and transfer their assets.\r\n    */\r\n    uint public DELAY_PERIOD = 2 weeks;\r\n\r\n    /**\r\n     * Start the process to enable access for specified contract. Subject to delay period.\r\n     *\r\n     * @dev ProxyRegistry owner only\r\n     * @param addr Address to which to grant permissions\r\n     */\r\n    function startGrantAuthentication (address addr)\r\n        public\r\n        onlyOwner\r\n    {\r\n        require(!contracts[addr] && pending[addr] == 0, \"Contract is already allowed in registry, or pending\");\r\n        pending[addr] = block.timestamp;\r\n    }\r\n\r\n    /**\r\n     * End the process to enable access for specified contract after delay period has passed.\r\n     *\r\n     * @dev ProxyRegistry owner only\r\n     * @param addr Address to which to grant permissions\r\n     */\r\n    function endGrantAuthentication (address addr)\r\n        public\r\n        onlyOwner\r\n    {\r\n        require(!contracts[addr] && pending[addr] != 0 && ((pending[addr] + DELAY_PERIOD) < block.timestamp), \"Contract is no longer pending or has already been approved by registry\");\r\n        pending[addr] = 0;\r\n        contracts[addr] = true;\r\n    }\r\n\r\n    /**\r\n     * Revoke access for specified contract. Can be done instantly.\r\n     *\r\n     * @dev ProxyRegistry owner only\r\n     * @param addr Address of which to revoke permissions\r\n     */    \r\n    function revokeAuthentication (address addr)\r\n        public\r\n        onlyOwner\r\n    {\r\n        contracts[addr] = false;\r\n    }\r\n\r\n    /**\r\n     * Register a proxy contract with this registry\r\n     *\r\n     * @dev Must be called by the user which the proxy is for, creates a new AuthenticatedProxy\r\n     * @return proxy New AuthenticatedProxy contract\r\n     */\r\n    function registerProxy()\r\n        public\r\n        returns (OwnableDelegateProxy proxy)\r\n    {\r\n        return registerProxyFor(msg.sender);\r\n    }\r\n\r\n    /**\r\n     * Register a proxy contract with this registry, overriding any existing proxy\r\n     *\r\n     * @dev Must be called by the user which the proxy is for, creates a new AuthenticatedProxy\r\n     * @return proxy New AuthenticatedProxy contract\r\n     */\r\n    function registerProxyOverride()\r\n        public\r\n        returns (OwnableDelegateProxy proxy)\r\n    {\r\n        proxy = new OwnableDelegateProxy(msg.sender, delegateProxyImplementation, abi.encodeWithSignature(\"initialize(address,address)\", msg.sender, address(this)));\r\n        proxies[msg.sender] = proxy;\r\n        return proxy;\r\n    }\r\n\r\n    /**\r\n     * Register a proxy contract with this registry\r\n     *\r\n     * @dev Can be called by any user\r\n     * @return proxy New AuthenticatedProxy contract\r\n     */\r\n    function registerProxyFor(address user)\r\n        public\r\n        returns (OwnableDelegateProxy proxy)\r\n    {\r\n        require(proxies[user] == OwnableDelegateProxy(payable(address(0))), \"User already has a proxy\");\r\n        proxy = new OwnableDelegateProxy(user, delegateProxyImplementation, abi.encodeWithSignature(\"initialize(address,address)\", user, address(this)));\r\n        proxies[user] = proxy;\r\n        return proxy;\r\n    }\r\n\r\n    /**\r\n     * Transfer access\r\n     */\r\n    function transferAccessTo(address from, address to)\r\n        public\r\n    {\r\n        OwnableDelegateProxy proxy = proxies[from];\r\n\r\n        /* CHECKS */\r\n        require(OwnableDelegateProxy(payable(msg.sender)) == proxy, \"Proxy transfer can only be called by the proxy\");\r\n        require(proxies[to] == OwnableDelegateProxy(payable(address(0))), \"Proxy transfer has existing proxy as destination\");\r\n\r\n        /* EFFECTS */\r\n        delete proxies[from];\r\n        proxies[to] = proxy;\r\n    }\r\n\r\n}\r\n",
  "sourcePath": "D:\\0xTaureum\\github\\taureum-nft-protocol-sc\\contracts\\registry\\ProxyRegistry.sol",
  "compiler": {
    "name": "solc",
    "version": "0.8.4+commit.c7e474f2.Emscripten.clang"
  },
  "schemaVersion": "3.4.3",
  "updatedAt": "2021-09-02T09:15:36.406Z",
  "devdoc": {
    "author": "Wyvern Protocol Developers",
    "kind": "dev",
    "methods": {
      "endGrantAuthentication(address)": {
        "details": "ProxyRegistry owner only",
        "params": {
          "addr": "Address to which to grant permissions"
        }
      },
      "owner()": {
        "details": "Returns the address of the current owner."
      },
      "registerProxy()": {
        "details": "Must be called by the user which the proxy is for, creates a new AuthenticatedProxy",
        "returns": {
          "proxy": "New AuthenticatedProxy contract"
        }
      },
      "registerProxyFor(address)": {
        "details": "Can be called by any user",
        "returns": {
          "proxy": "New AuthenticatedProxy contract"
        }
      },
      "registerProxyOverride()": {
        "details": "Must be called by the user which the proxy is for, creates a new AuthenticatedProxy",
        "returns": {
          "proxy": "New AuthenticatedProxy contract"
        }
      },
      "renounceOwnership()": {
        "details": "Leaves the contract without owner. It will not be possible to call `onlyOwner` functions anymore. Can only be called by the current owner. NOTE: Renouncing ownership will leave the contract without an owner, thereby removing any functionality that is only available to the owner."
      },
      "revokeAuthentication(address)": {
        "details": "ProxyRegistry owner only",
        "params": {
          "addr": "Address of which to revoke permissions"
        }
      },
      "startGrantAuthentication(address)": {
        "details": "ProxyRegistry owner only",
        "params": {
          "addr": "Address to which to grant permissions"
        }
      },
      "transferOwnership(address)": {
        "details": "Transfers ownership of the contract to a new account (`newOwner`). Can only be called by the current owner."
      }
    },
    "title": "ProxyRegistry",
    "version": 1
  },
  "userdoc": {
    "kind": "user",
    "methods": {
      "endGrantAuthentication(address)": {
        "notice": "End the process to enable access for specified contract after delay period has passed."
      },
      "registerProxy()": {
        "notice": "Register a proxy contract with this registry"
      },
      "registerProxyFor(address)": {
        "notice": "Register a proxy contract with this registry"
      },
      "registerProxyOverride()": {
        "notice": "Register a proxy contract with this registry, overriding any existing proxy"
      },
      "revokeAuthentication(address)": {
        "notice": "Revoke access for specified contract. Can be done instantly."
      },
      "startGrantAuthentication(address)": {
        "notice": "Start the process to enable access for specified contract. Subject to delay period."
      },
      "transferAccessTo(address,address)": {
        "notice": "Transfer access"
      }
    },
    "version": 1
  }
}