{
  "contractName": "StaticERC721",
  "abi": [
    {
      "inputs": [
        {
          "internalType": "bytes",
          "name": "extra",
          "type": "bytes"
        },
        {
          "internalType": "address[7]",
          "name": "addresses",
          "type": "address[7]"
        },
        {
          "internalType": "enum AuthenticatedProxy.HowToCall",
          "name": "howToCall",
          "type": "uint8"
        },
        {
          "internalType": "uint256[6]",
          "name": "",
          "type": "uint256[6]"
        },
        {
          "internalType": "bytes",
          "name": "data",
          "type": "bytes"
        }
      ],
      "name": "transferERC721Exact",
      "outputs": [],
      "stateMutability": "pure",
      "type": "function"
    },
    {
      "inputs": [
        {
          "internalType": "bytes",
          "name": "extra",
          "type": "bytes"
        },
        {
          "internalType": "address[7]",
          "name": "addresses",
          "type": "address[7]"
        },
        {
          "internalType": "enum AuthenticatedProxy.HowToCall[2]",
          "name": "howToCalls",
          "type": "uint8[2]"
        },
        {
          "internalType": "uint256[6]",
          "name": "uints",
          "type": "uint256[6]"
        },
        {
          "internalType": "bytes",
          "name": "data",
          "type": "bytes"
        },
        {
          "internalType": "bytes",
          "name": "counterdata",
          "type": "bytes"
        }
      ],
      "name": "swapOneForOneERC721",
      "outputs": [
        {
          "internalType": "uint256",
          "name": "",
          "type": "uint256"
        }
      ],
      "stateMutability": "pure",
      "type": "function"
    },
    {
      "inputs": [
        {
          "internalType": "bytes",
          "name": "extra",
          "type": "bytes"
        },
        {
          "internalType": "address[7]",
          "name": "addresses",
          "type": "address[7]"
        },
        {
          "internalType": "enum AuthenticatedProxy.HowToCall[2]",
          "name": "howToCalls",
          "type": "uint8[2]"
        },
        {
          "internalType": "uint256[6]",
          "name": "uints",
          "type": "uint256[6]"
        },
        {
          "internalType": "bytes",
          "name": "data",
          "type": "bytes"
        },
        {
          "internalType": "bytes",
          "name": "counterdata",
          "type": "bytes"
        }
      ],
      "name": "swapOneForOneERC721Decoding",
      "outputs": [
        {
          "internalType": "uint256",
          "name": "",
          "type": "uint256"
        }
      ],
      "stateMutability": "pure",
      "type": "function"
    }
  ],
  "bytecode": "0x608060405234801561001057600080fd5b50610cf2806100206000396000f3fe608060405234801561001057600080fd5b50600436106100415760003560e01c8063883ee43014610046578063b6c8184b1461006b578063ba35274314610080575b600080fd5b61005961005436600461095c565b610093565b60405190815260200160405180910390f35b61007e610079366004610a64565b610328565b005b61005961008e36600461095c565b61040b565b604080516004808252602482019092526020810180516001600160e01b03166323b872dd60e01b17905260009182916100cb9161059c565b8551909150156100da57600080fd5b600080898060200190518101906100f19190610899565b815160408c01519294509092506001600160a01b039182169116146101315760405162461bcd60e51b815260040161012890610b46565b60405180910390fd5b8751600090600181111561015557634e487b7160e01b600052602160045260246000fd5b146101725760405162461bcd60e51b815260040161012890610ba3565b6101868361018188600461059c565b6105b1565b61018f57600080fd5b600080600061019f896004610615565b8060200190518101906101b2919061082a565b919450925090508b600160200201516001600160a01b0316836001600160a01b0316146101de57600080fd5b60808c01516001600160a01b038381169116146101fa57600080fd5b8351811461020757600080fd5b602085015160a08d01516001600160a01b0390811691161461023b5760405162461bcd60e51b815260040161012890610be5565b60208b0151600090600181111561026257634e487b7160e01b600052602160045260246000fd5b1461027f5760405162461bcd60e51b815260040161012890610afd565b61028e866101818a600461059c565b61029757600080fd5b60008060006102a78b6004610615565b8060200190518101906102ba919061082a565b919450925090508e600460200201516001600160a01b0316836001600160a01b0316146102e657600080fd5b60208f01516001600160a01b0383811691161461030257600080fd5b6020870151811461031257600080fd5b5060019f9e505050505050505050505050505050565b6000808680602001905181019061033f919061086c565b90925090506001600160a01b03821686600260200201516001600160a01b03161461036957600080fd5b600085600181111561038b57634e487b7160e01b600052602160045260246000fd5b1461039557600080fd5b602086015160808701516040516001600160a01b03928316602482015291166044820152606481018290526103f99084906084015b60408051601f198184030181529190526020810180516001600160e01b03166323b872dd60e01b1790526105b1565b61040257600080fd5b50505050505050565b82516000901561041a57600080fd5b600080888060200190518101906104319190610899565b815160408b01519294509092506001600160a01b039182169116146104685760405162461bcd60e51b815260040161012890610b46565b8651600090600181111561048c57634e487b7160e01b600052602160045260246000fd5b146104a95760405162461bcd60e51b815260040161012890610ba3565b602088015160808901516104eb9187918460005b60200201516040516001600160a01b03938416602482015292909116604483015260648201526084016103ca565b6104f457600080fd5b602082015160a08901516001600160a01b039081169116146105285760405162461bcd60e51b815260040161012890610be5565b6020870151600090600181111561054f57634e487b7160e01b600052602160045260246000fd5b1461056c5760405162461bcd60e51b815260040161012890610afd565b608088015160208901516105849186918460016104bd565b61058d57600080fd5b50600198975050505050505050565b60606105aa8360008461063b565b9392505050565b8151815160009160019181148083146105cd576000925061060b565b600160208701838101602088015b6002848385100114156106065780518351146105fa5760009650600093505b602092830192016105db565b505050505b5090949350505050565b606060008284516106269190610c6b565b905061063384848361063b565b949350505050565b60608082158015610657576040519150602082016040526106a1565b6040519150601f8416801560200281840101858101878315602002848b0101015b81831015610690578051835260209283019201610678565b5050858452601f01601f1916604052505b50949350505050565b600082601f8301126106ba578081fd5b60405160e0810181811067ffffffffffffffff821117156106dd576106dd610c8e565b604052808360e081018610156106f1578384fd5b835b600781101561071c57813561070781610ca4565b835260209283019291909101906001016106f3565b509195945050505050565b600082601f830112610737578081fd5b60405160c0810181811067ffffffffffffffff8211171561075a5761075a610c8e565b604052808360c0810186101561076e578384fd5b835b600681101561071c578135835260209283019290910190600101610770565b600082601f83011261079f578081fd5b813567ffffffffffffffff808211156107ba576107ba610c8e565b604051601f8301601f19908116603f011681019082821181831017156107e2576107e2610c8e565b816040528381528660208588010111156107fa578485fd5b8360208701602083013792830160200193909352509392505050565b80356002811061082557600080fd5b919050565b60008060006060848603121561083e578283fd5b835161084981610ca4565b602085015190935061085a81610ca4565b80925050604084015190509250925092565b6000806040838503121561087e578182fd5b825161088981610ca4565b6020939093015192949293505050565b600080608083850312156108ab578182fd5b83601f8401126108b9578182fd5b6108c1610c42565b808460408601878111156108d3578586fd5b855b60028110156108fe5782516108e981610ca4565b855260209485019492909201916001016108d5565b5082955087605f880112610910578485fd5b610918610c42565b935083925090506080860187101561092e578384fd5b835b600281101561094f578151845260209384019390910190600101610930565b5093969095509350505050565b6000806000806000806102408789031215610975578182fd5b863567ffffffffffffffff8082111561098c578384fd5b6109988a838b0161078f565b9750602091506109aa8a838b016106aa565b96508961011f8a01126109bb578384fd5b6109c3610c42565b806101008b016101408c018d8111156109da578788fd5b875b6002811015610a00576109ee83610816565b855293860193918601916001016109dc565b50829950610a0e8e82610727565b985050505050610200890135915080821115610a28578384fd5b610a348a838b0161078f565b9350610220890135915080821115610a4a578283fd5b50610a5789828a0161078f565b9150509295509295509295565b60008060008060006102008688031215610a7c578283fd5b853567ffffffffffffffff80821115610a93578485fd5b610a9f89838a0161078f565b9650610aae8960208a016106aa565b9550610abd6101008901610816565b9450610acd896101208a01610727565b93506101e0880135915080821115610ae3578283fd5b50610af08882890161078f565b9150509295509295909350565b60208082526029908201527f4552433732313a20636f756e74657263616c6c206d75737420626520612064696040820152681c9958dd0818d85b1b60ba1b606082015260800190565b60208082526037908201527f4552433732313a2063616c6c20746172676574206d75737420657175616c206160408201527f646472657373206f6620746f6b656e20746f2067697665000000000000000000606082015260800190565b60208082526022908201527f4552433732313a2063616c6c206d7573742062652061206469726563742063616040820152611b1b60f21b606082015260800190565b6020808252603d908201527f4552433732313a20636f756e74657263616c6c20746172676574206d7573742060408201527f657175616c2061646472657373206f6620746f6b656e20746f20676574000000606082015260800190565b6040805190810167ffffffffffffffff81118282101715610c6557610c65610c8e565b60405290565b600082821015610c8957634e487b7160e01b81526011600452602481fd5b500390565b634e487b7160e01b600052604160045260246000fd5b6001600160a01b0381168114610cb957600080fd5b5056fea26469706673582212203075618480583768964d470f2ec9405f2b94b60cbc6407c07d330b6fb9afd7fc64736f6c63430008040033",
  "immutableReferences": {},
  "source": "// SPDX-License-Identifier: MIT\n/*\n\n    StaticERC721 - static calls for ERC721 trades\n\n*/\n\npragma solidity 0.8.4;\n\nimport \"../lib/ex/ArrayUtils.sol\";\nimport \"../registry/AuthenticatedProxy.sol\";\n\ncontract StaticERC721 {\n\n    function transferERC721Exact(bytes memory extra,\n        address[7] memory addresses, AuthenticatedProxy.HowToCall howToCall, uint[6] memory,\n        bytes memory data)\n        public\n        pure\n    {\n        // Decode extradata\n        (address token, uint tokenId) = abi.decode(extra, (address, uint));\n\n        // Call target = token to give\n        require(addresses[2] == token);\n        // Call type = call\n        require(howToCall == AuthenticatedProxy.HowToCall.Call);\n        // Assert calldata\n        require(ArrayUtils.arrayEq(data, abi.encodeWithSignature(\"transferFrom(address,address,uint256)\", addresses[1], addresses[4], tokenId)));\n    }\n\n    function swapOneForOneERC721(bytes memory extra,\n        address[7] memory addresses, AuthenticatedProxy.HowToCall[2] memory howToCalls, uint[6] memory uints,\n        bytes memory data, bytes memory counterdata)\n        public\n        pure\n        returns (uint)\n    {\n        // Zero-value\n        require(uints[0] == 0);\n\n        // Decode extradata\n        (address[2] memory tokenGiveGet, uint[2] memory nftGiveGet) = abi.decode(extra, (address[2],uint[2]));\n\n        // Call target = token to give\n        require(addresses[2] == tokenGiveGet[0], \"ERC721: call target must equal address of token to give\");\n        // Call type = call\n        require(howToCalls[0] == AuthenticatedProxy.HowToCall.Call, \"ERC721: call must be a direct call\");\n        // Assert calldata\n        require(ArrayUtils.arrayEq(data, abi.encodeWithSignature(\"transferFrom(address,address,uint256)\", addresses[1], addresses[4], nftGiveGet[0])));\n\n        // Countercall target = token to get\n        require(addresses[5] == tokenGiveGet[1], \"ERC721: countercall target must equal address of token to get\");\n        // Countercall type = call\n        require(howToCalls[1] == AuthenticatedProxy.HowToCall.Call, \"ERC721: countercall must be a direct call\");\n        // Assert countercalldata\n        require(ArrayUtils.arrayEq(counterdata, abi.encodeWithSignature(\"transferFrom(address,address,uint256)\", addresses[4], addresses[1], nftGiveGet[1])));\n\n        // Mark filled\n        return 1;\n    }\n\n    function swapOneForOneERC721Decoding(bytes memory extra,\n        address[7] memory addresses, AuthenticatedProxy.HowToCall[2] memory howToCalls, uint[6] memory uints,\n        bytes memory data, bytes memory counterdata)\n        public\n        pure\n        returns (uint)\n    {\n        // Calculate function signature\n        bytes memory sig = ArrayUtils.arrayTake(abi.encodeWithSignature(\"transferFrom(address,address,uint256)\"), 4);\n\n        // Zero-value\n        require(uints[0] == 0);\n\n        // Decode extradata\n        (address[2] memory tokenGiveGet, uint[2] memory nftGiveGet) = abi.decode(extra, (address[2],uint[2]));\n\n        // Call target = token to give\n        require(addresses[2] == tokenGiveGet[0], \"ERC721: call target must equal address of token to give\");\n        // Call type = call\n        require(howToCalls[0] == AuthenticatedProxy.HowToCall.Call, \"ERC721: call must be a direct call\");\n        // Assert signature\n        require(ArrayUtils.arrayEq(sig, ArrayUtils.arrayTake(data, 4)));\n        // Decode calldata\n        (address callFrom, address callTo, uint256 nftGive) = abi.decode(ArrayUtils.arrayDrop(data, 4), (address, address, uint256));\n        // Assert from\n        require(callFrom == addresses[1]);\n        // Assert to\n        require(callTo == addresses[4]);\n        // Assert NFT\n        require(nftGive == nftGiveGet[0]);\n\n        // Countercall target = token to get\n        require(addresses[5] == tokenGiveGet[1], \"ERC721: countercall target must equal address of token to get\");\n        // Countercall type = call\n        require(howToCalls[1] == AuthenticatedProxy.HowToCall.Call, \"ERC721: countercall must be a direct call\");\n        // Assert signature\n        require(ArrayUtils.arrayEq(sig, ArrayUtils.arrayTake(counterdata, 4)));\n        // Decode countercalldata\n        (address countercallFrom, address countercallTo, uint256 nftGet) = abi.decode(ArrayUtils.arrayDrop(counterdata, 4), (address, address, uint256));\n        // Assert from\n        require(countercallFrom == addresses[4]);\n        // Assert to\n        require(countercallTo == addresses[1]);\n        // Assert NFT\n        require(nftGet == nftGiveGet[1]);\n\n        // Mark filled\n        return 1;\n    }\n\n}\n",
  "sourcePath": "/home/toor/nodejs/truffle/nft_demo/taureum/taureum-nft-protocol-sc/contracts/static/StaticERC721.sol",
  "compiler": {
    "name": "solc",
    "version": "0.8.4+commit.c7e474f2.Emscripten.clang"
  },
  "schemaVersion": "3.4.1",
  "updatedAt": "2021-09-02T04:22:11.783Z",
  "devdoc": {
    "kind": "dev",
    "methods": {},
    "version": 1
  },
  "userdoc": {
    "kind": "user",
    "methods": {},
    "version": 1
  }
}