{
  "contractName": "StaticUtil",
  "abi": [
    {
      "inputs": [],
      "name": "atomicizer",
      "outputs": [
        {
          "internalType": "address",
          "name": "",
          "type": "address"
        }
      ],
      "stateMutability": "view",
      "type": "function"
    },
    {
      "inputs": [
        {
          "internalType": "bytes",
          "name": "",
          "type": "bytes"
        },
        {
          "internalType": "address[7]",
          "name": "",
          "type": "address[7]"
        },
        {
          "internalType": "enum AuthenticatedProxy.HowToCall[2]",
          "name": "",
          "type": "uint8[2]"
        },
        {
          "internalType": "uint256[6]",
          "name": "",
          "type": "uint256[6]"
        },
        {
          "internalType": "bytes",
          "name": "",
          "type": "bytes"
        },
        {
          "internalType": "bytes",
          "name": "",
          "type": "bytes"
        }
      ],
      "name": "any",
      "outputs": [
        {
          "internalType": "uint256",
          "name": "",
          "type": "uint256"
        }
      ],
      "stateMutability": "pure",
      "type": "function"
    },
    {
      "inputs": [
        {
          "internalType": "bytes",
          "name": "",
          "type": "bytes"
        },
        {
          "internalType": "address[7]",
          "name": "",
          "type": "address[7]"
        },
        {
          "internalType": "enum AuthenticatedProxy.HowToCall",
          "name": "",
          "type": "uint8"
        },
        {
          "internalType": "uint256[6]",
          "name": "",
          "type": "uint256[6]"
        },
        {
          "internalType": "bytes",
          "name": "",
          "type": "bytes"
        }
      ],
      "name": "anySingle",
      "outputs": [],
      "stateMutability": "pure",
      "type": "function"
    },
    {
      "inputs": [
        {
          "internalType": "bytes",
          "name": "",
          "type": "bytes"
        },
        {
          "internalType": "address[7]",
          "name": "",
          "type": "address[7]"
        },
        {
          "internalType": "enum AuthenticatedProxy.HowToCall[2]",
          "name": "",
          "type": "uint8[2]"
        },
        {
          "internalType": "uint256[6]",
          "name": "",
          "type": "uint256[6]"
        },
        {
          "internalType": "bytes",
          "name": "",
          "type": "bytes"
        },
        {
          "internalType": "bytes",
          "name": "",
          "type": "bytes"
        }
      ],
      "name": "anyNoFill",
      "outputs": [
        {
          "internalType": "uint256",
          "name": "",
          "type": "uint256"
        }
      ],
      "stateMutability": "pure",
      "type": "function"
    },
    {
      "inputs": [
        {
          "internalType": "bytes",
          "name": "",
          "type": "bytes"
        },
        {
          "internalType": "address[7]",
          "name": "",
          "type": "address[7]"
        },
        {
          "internalType": "enum AuthenticatedProxy.HowToCall[2]",
          "name": "",
          "type": "uint8[2]"
        },
        {
          "internalType": "uint256[6]",
          "name": "uints",
          "type": "uint256[6]"
        },
        {
          "internalType": "bytes",
          "name": "",
          "type": "bytes"
        },
        {
          "internalType": "bytes",
          "name": "",
          "type": "bytes"
        }
      ],
      "name": "anyAddOne",
      "outputs": [
        {
          "internalType": "uint256",
          "name": "",
          "type": "uint256"
        }
      ],
      "stateMutability": "pure",
      "type": "function"
    },
    {
      "inputs": [
        {
          "internalType": "bytes",
          "name": "extra",
          "type": "bytes"
        },
        {
          "internalType": "address[7]",
          "name": "addresses",
          "type": "address[7]"
        },
        {
          "internalType": "enum AuthenticatedProxy.HowToCall[2]",
          "name": "howToCalls",
          "type": "uint8[2]"
        },
        {
          "internalType": "uint256[6]",
          "name": "uints",
          "type": "uint256[6]"
        },
        {
          "internalType": "bytes",
          "name": "data",
          "type": "bytes"
        },
        {
          "internalType": "bytes",
          "name": "counterdata",
          "type": "bytes"
        }
      ],
      "name": "split",
      "outputs": [
        {
          "internalType": "uint256",
          "name": "",
          "type": "uint256"
        }
      ],
      "stateMutability": "view",
      "type": "function"
    },
    {
      "inputs": [
        {
          "internalType": "bytes",
          "name": "extra",
          "type": "bytes"
        },
        {
          "internalType": "address[7]",
          "name": "addresses",
          "type": "address[7]"
        },
        {
          "internalType": "enum AuthenticatedProxy.HowToCall[2]",
          "name": "howToCalls",
          "type": "uint8[2]"
        },
        {
          "internalType": "uint256[6]",
          "name": "uints",
          "type": "uint256[6]"
        },
        {
          "internalType": "bytes",
          "name": "data",
          "type": "bytes"
        },
        {
          "internalType": "bytes",
          "name": "counterdata",
          "type": "bytes"
        }
      ],
      "name": "splitAddOne",
      "outputs": [
        {
          "internalType": "uint256",
          "name": "",
          "type": "uint256"
        }
      ],
      "stateMutability": "view",
      "type": "function"
    },
    {
      "inputs": [
        {
          "internalType": "bytes",
          "name": "extra",
          "type": "bytes"
        },
        {
          "internalType": "address[7]",
          "name": "addresses",
          "type": "address[7]"
        },
        {
          "internalType": "enum AuthenticatedProxy.HowToCall[2]",
          "name": "howToCalls",
          "type": "uint8[2]"
        },
        {
          "internalType": "uint256[6]",
          "name": "uints",
          "type": "uint256[6]"
        },
        {
          "internalType": "bytes",
          "name": "data",
          "type": "bytes"
        },
        {
          "internalType": "bytes",
          "name": "counterdata",
          "type": "bytes"
        }
      ],
      "name": "and",
      "outputs": [],
      "stateMutability": "view",
      "type": "function"
    },
    {
      "inputs": [
        {
          "internalType": "bytes",
          "name": "extra",
          "type": "bytes"
        },
        {
          "internalType": "address[7]",
          "name": "addresses",
          "type": "address[7]"
        },
        {
          "internalType": "enum AuthenticatedProxy.HowToCall[2]",
          "name": "howToCalls",
          "type": "uint8[2]"
        },
        {
          "internalType": "uint256[6]",
          "name": "uints",
          "type": "uint256[6]"
        },
        {
          "internalType": "bytes",
          "name": "data",
          "type": "bytes"
        },
        {
          "internalType": "bytes",
          "name": "counterdata",
          "type": "bytes"
        }
      ],
      "name": "or",
      "outputs": [],
      "stateMutability": "view",
      "type": "function"
    },
    {
      "inputs": [
        {
          "internalType": "bytes",
          "name": "extra",
          "type": "bytes"
        },
        {
          "internalType": "address[7]",
          "name": "addresses",
          "type": "address[7]"
        },
        {
          "internalType": "enum AuthenticatedProxy.HowToCall",
          "name": "howToCall",
          "type": "uint8"
        },
        {
          "internalType": "uint256[6]",
          "name": "uints",
          "type": "uint256[6]"
        },
        {
          "internalType": "bytes",
          "name": "cdata",
          "type": "bytes"
        }
      ],
      "name": "sequenceExact",
      "outputs": [],
      "stateMutability": "view",
      "type": "function"
    },
    {
      "inputs": [
        {
          "internalType": "bytes",
          "name": "extra",
          "type": "bytes"
        },
        {
          "internalType": "address[7]",
          "name": "addresses",
          "type": "address[7]"
        },
        {
          "internalType": "enum AuthenticatedProxy.HowToCall[2]",
          "name": "howToCalls",
          "type": "uint8[2]"
        },
        {
          "internalType": "uint256[6]",
          "name": "uints",
          "type": "uint256[6]"
        },
        {
          "internalType": "bytes",
          "name": "cdata",
          "type": "bytes"
        },
        {
          "internalType": "bytes",
          "name": "",
          "type": "bytes"
        }
      ],
      "name": "dumbSequenceExact",
      "outputs": [
        {
          "internalType": "uint256",
          "name": "",
          "type": "uint256"
        }
      ],
      "stateMutability": "view",
      "type": "function"
    },
    {
      "inputs": [
        {
          "internalType": "bytes",
          "name": "extra",
          "type": "bytes"
        },
        {
          "internalType": "address[7]",
          "name": "addresses",
          "type": "address[7]"
        },
        {
          "internalType": "enum AuthenticatedProxy.HowToCall",
          "name": "howToCall",
          "type": "uint8"
        },
        {
          "internalType": "uint256[6]",
          "name": "uints",
          "type": "uint256[6]"
        },
        {
          "internalType": "bytes",
          "name": "cdata",
          "type": "bytes"
        }
      ],
      "name": "sequenceAnyAfter",
      "outputs": [],
      "stateMutability": "view",
      "type": "function"
    }
  ],
  "bytecode": "0x608060405234801561001057600080fd5b506118fe806100206000396000f3fe608060405234801561001057600080fd5b50600436106100b45760003560e01c8063ac5cc03f11610071578063ac5cc03f1461015f578063b67bf13414610172578063dcbcb5d914610187578063ddf98cc21461019a578063e1beb484146101ad578063ed94fc66146101c757600080fd5b8063025b6d34146100b95780630d3b91d4146100df57806320e9a8181461010a5780634e9413f91461011d578063837b54ad14610132578063a09858da1461014c575b600080fd5b6100cc6100c7366004611435565b6101da565b6040519081526020015b60405180910390f35b6000546100f2906001600160a01b031681565b6040516001600160a01b0390911681526020016100d6565b6100cc610118366004611435565b6101fc565b61013061012b366004611435565b6103b3565b005b6100cc610140366004611435565b60019695505050505050565b6100cc61015a366004611435565b6105b9565b61013061016d36600461153c565b6105da565b61013061018036600461153c565b5050505050565b610130610195366004611435565b61070c565b6100cc6101a8366004611435565b610980565b6100cc6101bb366004611435565b60009695505050505050565b6101306101d536600461153c565b610999565b60006101ef87878784602002015187876105da565b5060019695505050505050565b60008060008060008a8060200190518101906102189190611207565b9296509094509250905061028c84600060200201518460006020020151848d8d600060200201518d8d60405160240161025595949392919061170e565b60408051601f198184030181529190526020810180516001600160e01b03166001600160e01b031990931692909217909152610aab565b61029557600080fd5b61039984600160200201518460016020020151836040518060e001604052808f6003600781106102d557634e487b7160e01b600052603260045260246000fd5b602090810291909101516001600160a01b03168252018f6004602090810291909101516001600160a01b03168252018f6005602090810291909101516001600160a01b03168252018f6000602090810291909101516001600160a01b03168252018f6001602090810291909101516001600160a01b03168252018f6002602090810291909101516001600160a01b03168252018f600660200201516001600160a01b031690528d600160200201518d8c60405160240161025595949392919061170e565b6103a257600080fd5b5060019a9950505050505050505050565b600080600080898060200190518101906103cd91906112d6565b935093509350935081518451146103e357600080fd5b6000805b85518110156105ab57600084828151811061041257634e487b7160e01b600052603260045260246000fd5b60200260200101516001600160401b0381111561043f57634e487b7160e01b600052604160045260246000fd5b6040519080825280601f01601f191660200182016040528015610469576020820181803683370190505b50905060005b85838151811061048f57634e487b7160e01b600052603260045260246000fd5b6020026020010151811015610520578484815181106104be57634e487b7160e01b600052603260045260246000fd5b602001015160f81c60f81b8282815181106104e957634e487b7160e01b600052603260045260246000fd5b60200101906001600160f81b031916908160001a9053508361050a81611869565b945050808061051890611869565b91505061046f565b5061058f87838151811061054457634e487b7160e01b600052603260045260246000fd5b602002602001015187848151811061056c57634e487b7160e01b600052603260045260246000fd5b6020026020010151838f8f8f8f8f60405160240161025596959493929190611677565b61059857600080fd5b50806105a381611869565b9150506103e7565b505050505050505050505050565b60008360055b60200201516105cf90600161180e565b979650505050505050565b600080600080888060200190518101906105f49190611364565b9350935093509350825184511461060a57600080fd5b60008060008061061b896004610ac1565b80602001905181019061062e91906113dd565b600054939750919550935091506001600160a01b03168c600260200201516001600160a01b03161461065f57600080fd5b60018b600181111561068157634e487b7160e01b600052602160045260246000fd5b1461068b57600080fd5b835188511461069957600080fd5b60005b88518110156106eb578381815181106106c557634e487b7160e01b600052603260045260246000fd5b60200260200101516000146106d957600080fd5b806106e381611869565b91505061069c565b506106fd8483838f8e8d8d8d8d610ae7565b50505050505050505050505050565b6000806000808980602001905181019061072691906112d6565b935093509350935081518451146107aa5760405162461bcd60e51b815260206004820152603860248201527f446966666572656e74206e756d626572206f66207374617469632063616c6c2060448201527f61646472657373657320616e642065787472616461746173000000000000000060648201526084015b60405180910390fd5b6000805b855181101561092f5760008482815181106107d957634e487b7160e01b600052603260045260246000fd5b60200260200101516001600160401b0381111561080657634e487b7160e01b600052604160045260246000fd5b6040519080825280601f01601f191660200182016040528015610830576020820181803683370190505b50905060005b85838151811061085657634e487b7160e01b600052603260045260246000fd5b60200260200101518110156108e75784848151811061088557634e487b7160e01b600052603260045260246000fd5b602001015160f81c60f81b8282815181106108b057634e487b7160e01b600052603260045260246000fd5b60200101906001600160f81b031916908160001a905350836108d181611869565b94505080806108df90611869565b915050610836565b5061090b87838151811061054457634e487b7160e01b600052603260045260246000fd5b1561091c5750505050505050610978565b508061092781611869565b9150506107ae565b5060405162461bcd60e51b815260206004820152601960248201527f4e6f207374617469632063616c6c73207375636365656465640000000000000060448201526064016107a1565b505050505050565b60006109908787878787876101fc565b508360056105bf565b600080600080888060200190518101906109b39190611364565b935093509350935082518451146109c957600080fd5b6000806000806109da896004610ac1565b8060200190518101906109ed91906113dd565b600054939750919550935091506001600160a01b03168c600260200201516001600160a01b031614610a1e57600080fd5b60018b6001811115610a4057634e487b7160e01b600052602160045260246000fd5b14610a4a57600080fd5b835188511115610a5957600080fd5b60005b88518110156106eb57838181518110610a8557634e487b7160e01b600052603260045260246000fd5b6020026020010151600014610a9957600080fd5b80610aa381611869565b915050610a5c565b600080604051835160208501865afa9392505050565b60606000828451610ad29190611826565b9050610adf848483610e64565b949350505050565b60008060005b8651811015610e49576000868281518110610b1857634e487b7160e01b600052603260045260246000fd5b60200260200101516001600160401b03811115610b4557634e487b7160e01b600052604160045260246000fd5b6040519080825280601f01601f191660200182016040528015610b6f576020820181803683370190505b50905060005b878381518110610b9557634e487b7160e01b600052603260045260246000fd5b6020026020010151811015610c2657858581518110610bc457634e487b7160e01b600052603260045260246000fd5b602001015160f81c60f81b828281518110610bef57634e487b7160e01b600052603260045260246000fd5b60200101906001600160f81b031916908160001a90535084610c1081611869565b9550508080610c1e90611869565b915050610b75565b5060008c8381518110610c4957634e487b7160e01b600052603260045260246000fd5b60200260200101516001600160401b03811115610c7657634e487b7160e01b600052604160045260246000fd5b6040519080825280601f01601f191660200182016040528015610ca0576020820181803683370190505b50905060005b8d8481518110610cc657634e487b7160e01b600052603260045260246000fd5b6020026020010151811015610d57578c8581518110610cf557634e487b7160e01b600052603260045260246000fd5b602001015160f81c60f81b828281518110610d2057634e487b7160e01b600052603260045260246000fd5b60200101906001600160f81b031916908160001a90535084610d4181611869565b9550508080610d4f90611869565b915050610ca6565b508d8381518110610d7857634e487b7160e01b600052603260045260246000fd5b60200260200101518b600260078110610da157634e487b7160e01b600052603260045260246000fd5b60200201906001600160a01b031690816001600160a01b031681525050610e2b898481518110610de157634e487b7160e01b600052603260045260246000fd5b6020026020010151888581518110610e0957634e487b7160e01b600052603260045260246000fd5b6020026020010151848e60008f8760405160240161025595949392919061170e565b610e3457600080fd5b50508080610e4190611869565b915050610aed565b5082518214610e5757600080fd5b5050505050505050505050565b60608082158015610e8057604051915060208201604052610eca565b6040519150601f8416801560200281840101858101878315602002848b0101015b81831015610eb9578051835260209283019201610ea1565b5050858452601f01601f1916604052505b50949350505050565b600082601f830112610ee3578081fd5b60405160e081018181106001600160401b0382111715610f0557610f0561189a565b604052808360e08101861015610f19578384fd5b835b6007811015610f44578135610f2f816118b0565b83526020928301929190910190600101610f1b565b509195945050505050565b600082601f830112610f5f578081fd5b81516020610f74610f6f836117c4565b611794565b80838252828201915082860187848660051b8901011115610f93578586fd5b855b85811015610fba578151610fa8816118b0565b84529284019290840190600101610f95565b5090979650505050505050565b600082601f830112610fd7578081fd5b610fdf61176c565b808385604086011115610ff0578384fd5b835b6002811015611019576110048261114c565b84526020938401939190910190600101610ff2565b509095945050505050565b600082601f830112611034578081fd5b81516020611044610f6f836117c4565b80838252828201915082860187848660051b8901011115611063578586fd5b855b85811015610fba576110768261114c565b84529284019290840190600101611065565b600082601f830112611098578081fd5b60405160c081018181106001600160401b03821117156110ba576110ba61189a565b604052808360c081018610156110ce578384fd5b835b6006811015610f445781358352602092830192909101906001016110d0565b600082601f8301126110ff578081fd5b8151602061110f610f6f836117c4565b80838252828201915082860187848660051b890101111561112e578586fd5b855b85811015610fba57815184529284019290840190600101611130565b80516001600160e01b03198116811461116457600080fd5b919050565b600082601f830112611179578081fd5b8135611187610f6f826117e7565b81815284602083860101111561119b578283fd5b816020850160208301379081016020019190915292915050565b600082601f8301126111c5578081fd5b81516111d3610f6f826117e7565b8181528460208386010111156111e7578283fd5b610adf82602083016020870161183d565b80356002811061116457600080fd5b60008060008060c0858703121561121c578384fd5b85601f86011261122a578384fd5b61123261176c565b80866040880189811115611244578788fd5b875b600281101561126f57825161125a816118b0565b85526020948501949290920191600101611246565b5082975061127d8a82610fc7565b96505050505060808501516001600160401b038082111561129c578384fd5b6112a8888389016111b5565b935060a08701519150808211156112bd578283fd5b506112ca878288016111b5565b91505092959194509250565b600080600080608085870312156112eb578182fd5b84516001600160401b0380821115611301578384fd5b61130d88838901610f4f565b95506020870151915080821115611322578384fd5b61132e88838901611024565b94506040870151915080821115611343578384fd5b61134f888389016110ef565b935060608701519150808211156112bd578283fd5b60008060008060808587031215611379578182fd5b84516001600160401b038082111561138f578384fd5b61139b88838901610f4f565b955060208701519150808211156113b0578384fd5b6113bc888389016110ef565b945060408701519150808211156113d1578384fd5b61134f88838901611024565b600080600080608085870312156113f2578182fd5b84516001600160401b0380821115611408578384fd5b61141488838901610f4f565b95506020870151915080821115611429578384fd5b61132e888389016110ef565b600080600080600080610240878903121561144e578384fd5b86356001600160401b0380821115611464578586fd5b6114708a838b01611169565b9750602091506114828a838b01610ed3565b96508961011f8a0112611493578586fd5b61149b61176c565b806101008b016101408c018d8111156114b257898afd5b895b60028110156114d8576114c6836111f8565b855293860193918601916001016114b4565b508299506114e68e82611088565b985050505050610200890135915080821115611500578384fd5b61150c8a838b01611169565b9350610220890135915080821115611522578283fd5b5061152f89828a01611169565b9150509295509295509295565b60008060008060006102008688031215611554578283fd5b85356001600160401b038082111561156a578485fd5b61157689838a01611169565b96506115858960208a01610ed3565b955061159461010089016111f8565b94506115a4896101208a01611088565b93506101e08801359150808211156115ba578283fd5b506115c788828901611169565b9150509295509295909350565b8060005b60078110156116005781516001600160a01b03168452602093840193909101906001016115d8565b50505050565b8060005b600681101561160057815184526020938401939091019060010161160a565b6000815180845261164181602086016020860161183d565b601f01601f19169290920160200192915050565b6002811061167357634e487b7160e01b600052602160045260246000fd5b9052565b600061024080835261168b8184018a611629565b9050602061169b8185018a6115d4565b610100840188845b60028110156116c7576116b7838351611655565b91830191908301906001016116a3565b505050506116d9610140840187611606565b8281036102008401526116ec8186611629565b90508281036102208401526117018185611629565b9998505050505050505050565b600061020080835261172281840189611629565b905061173160208401886115d4565b61173f610100840187611655565b61174d610120840186611606565b8281036101e08401526117608185611629565b98975050505050505050565b604080519081016001600160401b038111828210171561178e5761178e61189a565b60405290565b604051601f8201601f191681016001600160401b03811182821017156117bc576117bc61189a565b604052919050565b60006001600160401b038211156117dd576117dd61189a565b5060051b60200190565b60006001600160401b038211156118005761180061189a565b50601f01601f191660200190565b6000821982111561182157611821611884565b500190565b60008282101561183857611838611884565b500390565b60005b83811015611858578181015183820152602001611840565b838111156116005750506000910152565b600060001982141561187d5761187d611884565b5060010190565b634e487b7160e01b600052601160045260246000fd5b634e487b7160e01b600052604160045260246000fd5b6001600160a01b03811681146118c557600080fd5b5056fea2646970667358221220f877fa4e80b62fbd4e9f7a07a11aced95352024cf0a6ecce0470681df462a79364736f6c63430008040033",
  "immutableReferences": {},
  "source": "// SPDX-License-Identifier: UNLICENSED\n/*\n\n    StaticUtil - static call utility contract\n\n*/\n\npragma solidity 0.8.4;\n\nimport \"../lib/ex/StaticCaller.sol\";\nimport \"../lib/ex/ArrayUtils.sol\";\nimport \"../registry/AuthenticatedProxy.sol\";\n\ncontract StaticUtil is StaticCaller {\n\n    address public atomicizer;\n\n    function any(bytes memory, address[7] memory, AuthenticatedProxy.HowToCall[2] memory, uint[6] memory, bytes memory, bytes memory)\n        public\n        pure\n        returns (uint)\n    {\n        /*\n           Accept any call.\n           Useful e.g. for matching-by-transaction, where you authorize the counter-call by sending the transaction and don't need to re-check it.\n           Return fill \"1\".\n        */\n\n        return 1;\n    }\n\n    function anySingle(bytes memory,  address[7] memory, AuthenticatedProxy.HowToCall, uint[6] memory, bytes memory)\n        public\n        pure\n    {\n        /* No checks. */\n    }\n\n    function anyNoFill(bytes memory, address[7] memory, AuthenticatedProxy.HowToCall[2] memory, uint[6] memory, bytes memory, bytes memory)\n        public\n        pure\n        returns (uint)\n    {\n        /*\n           Accept any call.\n           Useful e.g. for matching-by-transaction, where you authorize the counter-call by sending the transaction and don't need to re-check it.\n           Return fill \"0\".\n        */\n\n        return 0;\n    }\n\n    function anyAddOne(bytes memory, address[7] memory, AuthenticatedProxy.HowToCall[2] memory, uint[6] memory uints, bytes memory, bytes memory)\n        public\n        pure\n        returns (uint)\n    {\n        /*\n           Accept any call.\n           Useful e.g. for matching-by-transaction, where you authorize the counter-call by sending the transaction and don't need to re-check it.\n           Return the current fill plus 1.\n        */\n\n        return uints[5] + 1;\n    }\n\n    function split(bytes memory extra,\n                   address[7] memory addresses, AuthenticatedProxy.HowToCall[2] memory howToCalls, uint[6] memory uints,\n                   bytes memory data, bytes memory counterdata)\n        public\n        view\n        returns (uint)\n    {\n        (address[2] memory targets, bytes4[2] memory selectors, bytes memory firstExtradata, bytes memory secondExtradata) = abi.decode(extra, (address[2], bytes4[2], bytes, bytes));\n\n        /* Split into two static calls: one for the call, one for the counter-call, both with metadata. */\n\n        /* Static call to check the call. */\n        require(staticCall(targets[0], abi.encodeWithSelector(selectors[0], firstExtradata, addresses, howToCalls[0], uints, data)));\n\n        /* Static call to check the counter-call. */\n        require(staticCall(targets[1], abi.encodeWithSelector(selectors[1], secondExtradata, [addresses[3], addresses[4], addresses[5], addresses[0], addresses[1], addresses[2], addresses[6]], howToCalls[1], uints, counterdata)));\n\n        return 1;\n    }\n\n    function splitAddOne(bytes memory extra,\n                   address[7] memory addresses, AuthenticatedProxy.HowToCall[2] memory howToCalls, uint[6] memory uints,\n                   bytes memory data, bytes memory counterdata)\n        public\n        view\n        returns (uint)\n    {\n        split(extra,addresses,howToCalls,uints,data,counterdata);\n        return uints[5] + 1;\n    }\n\n    function and(bytes memory extra,\n                 address[7] memory addresses, AuthenticatedProxy.HowToCall[2] memory howToCalls, uint[6] memory uints,\n                 bytes memory data, bytes memory counterdata)\n        public\n        view\n    {\n        (address[] memory addrs, bytes4[] memory selectors, uint[] memory extradataLengths, bytes memory extradatas) = abi.decode(extra, (address[], bytes4[], uint[], bytes));\n\n        require(addrs.length == extradataLengths.length);\n        \n        uint j = 0;\n        for (uint i = 0; i < addrs.length; i++) {\n            bytes memory extradata = new bytes(extradataLengths[i]);\n            for (uint k = 0; k < extradataLengths[i]; k++) {\n                extradata[k] = extradatas[j];\n                j++;\n            }\n            require(staticCall(addrs[i], abi.encodeWithSelector(selectors[i], extradata, addresses, howToCalls, uints, data, counterdata)));\n        }\n    }\n\n    function or(bytes memory extra,\n                address[7] memory addresses, AuthenticatedProxy.HowToCall[2] memory howToCalls, uint[6] memory uints,\n                bytes memory data, bytes memory counterdata)\n        public\n        view\n    {\n        (address[] memory addrs, bytes4[] memory selectors, uint[] memory extradataLengths, bytes memory extradatas) = abi.decode(extra, (address[], bytes4[], uint[], bytes));\n\n        require(addrs.length == extradataLengths.length, \"Different number of static call addresses and extradatas\");\n        \n        uint j = 0;\n        for (uint i = 0; i < addrs.length; i++) {\n            bytes memory extradata = new bytes(extradataLengths[i]);\n            for (uint k = 0; k < extradataLengths[i]; k++) {\n                extradata[k] = extradatas[j];\n                j++;\n            }\n            if (staticCall(addrs[i], abi.encodeWithSelector(selectors[i], extradata, addresses, howToCalls, uints, data, counterdata))) {\n                return;\n            }\n        }\n\n        revert(\"No static calls succeeded\");\n    }\n\n    function sequenceExact(bytes memory extra,\n        address[7] memory addresses, AuthenticatedProxy.HowToCall howToCall, uint[6] memory uints,\n        bytes memory cdata)\n        public\n        view\n    {\n        (address[] memory addrs, uint[] memory extradataLengths, bytes4[] memory selectors, bytes memory extradatas) = abi.decode(extra, (address[], uint[], bytes4[], bytes));\n\n        /* Assert DELEGATECALL to atomicizer library with given call sequence, split up predicates accordingly.\n           e.g. transferring two CryptoKitties in sequence. */\n\n        require(addrs.length == extradataLengths.length);\n\n        (address[] memory caddrs, uint[] memory cvals, uint[] memory clengths, bytes memory calldatas) = abi.decode(ArrayUtils.arrayDrop(cdata, 4), (address[], uint[], uint[], bytes));\n\n        require(addresses[2] == atomicizer);\n        require(howToCall == AuthenticatedProxy.HowToCall.DelegateCall);\n        require(addrs.length == caddrs.length); // Exact calls only\n\n        for (uint i = 0; i < addrs.length; i++) {\n            require(cvals[i] == 0);\n        }\n\n        sequence(caddrs, clengths, calldatas, addresses, uints, addrs, extradataLengths, selectors, extradatas);\n    }\n\n    function dumbSequenceExact(bytes memory extra,\n        address[7] memory addresses, AuthenticatedProxy.HowToCall[2] memory howToCalls, uint[6] memory uints,\n        bytes memory cdata, bytes memory)\n        public\n        view\n        returns (uint)\n    {\n        sequenceExact(extra, addresses, howToCalls[0], uints, cdata);\n\n        return 1;\n    }\n\n    function sequenceAnyAfter(bytes memory extra,\n        address[7] memory addresses, AuthenticatedProxy.HowToCall howToCall, uint[6] memory uints,\n        bytes memory cdata)\n        public\n        view\n    {\n        (address[] memory addrs, uint[] memory extradataLengths, bytes4[] memory selectors, bytes memory extradatas) = abi.decode(extra, (address[], uint[], bytes4[], bytes));\n\n        /* Assert DELEGATECALL to atomicizer library with given call sequence, split up predicates accordingly.\n           e.g. transferring two CryptoKitties in sequence. */\n\n        require(addrs.length == extradataLengths.length);\n\n        (address[] memory caddrs, uint[] memory cvals, uint[] memory clengths, bytes memory calldatas) = abi.decode(ArrayUtils.arrayDrop(cdata, 4), (address[], uint[], uint[], bytes));\n\n        require(addresses[2] == atomicizer);\n        require(howToCall == AuthenticatedProxy.HowToCall.DelegateCall);\n        require(addrs.length <= caddrs.length); // Extra calls OK\n\n        for (uint i = 0; i < addrs.length; i++) {\n            require(cvals[i] == 0);\n        }\n\n        sequence(caddrs, clengths, calldatas, addresses, uints, addrs, extradataLengths, selectors, extradatas);\n    }\n\n    function sequence(\n        address[] memory caddrs, uint[] memory clengths, bytes memory calldatas,\n        address[7] memory addresses, uint[6] memory uints,\n        address[] memory addrs, uint[] memory extradataLengths, bytes4[] memory selectors, bytes memory extradatas)\n        internal\n        view\n    {\n        uint j = 0;\n        uint l = 0;\n        for (uint i = 0; i < addrs.length; i++) {\n            bytes memory extradata = new bytes(extradataLengths[i]);\n            for (uint k = 0; k < extradataLengths[i]; k++) {\n                extradata[k] = extradatas[j];\n                j++;\n            }\n            bytes memory data = new bytes(clengths[i]);\n            for (uint m = 0; m < clengths[i]; m++) {\n                data[m] = calldatas[l];\n                l++;\n            }\n            addresses[2] = caddrs[i];\n            require(staticCall(addrs[i], abi.encodeWithSelector(selectors[i], extradata, addresses, AuthenticatedProxy.HowToCall.Call, uints, data)));\n        }\n        require(j == extradatas.length);\n    }\n\n}\n",
  "sourcePath": "/home/toor/nodejs/truffle/nft_demo/taureum/taureum-nft-protocol-sc/contracts/static/StaticUtil.sol",
  "compiler": {
    "name": "solc",
    "version": "0.8.4+commit.c7e474f2.Emscripten.clang"
  },
  "schemaVersion": "3.4.1",
  "updatedAt": "2021-08-29T11:36:11.157Z",
  "devdoc": {
    "kind": "dev",
    "methods": {},
    "version": 1
  },
  "userdoc": {
    "kind": "user",
    "methods": {},
    "version": 1
  }
}