{
  "contractName": "StaticMarket",
  "abi": [
    {
      "inputs": [],
      "stateMutability": "nonpayable",
      "type": "constructor"
    },
    {
      "inputs": [],
      "name": "name",
      "outputs": [
        {
          "internalType": "string",
          "name": "",
          "type": "string"
        }
      ],
      "stateMutability": "view",
      "type": "function"
    },
    {
      "inputs": [
        {
          "internalType": "bytes",
          "name": "extra",
          "type": "bytes"
        },
        {
          "internalType": "address[7]",
          "name": "addresses",
          "type": "address[7]"
        },
        {
          "internalType": "enum AuthenticatedProxy.HowToCall[2]",
          "name": "howToCalls",
          "type": "uint8[2]"
        },
        {
          "internalType": "uint256[6]",
          "name": "uints",
          "type": "uint256[6]"
        },
        {
          "internalType": "bytes",
          "name": "data",
          "type": "bytes"
        },
        {
          "internalType": "bytes",
          "name": "counterdata",
          "type": "bytes"
        }
      ],
      "name": "anyERC1155ForERC20",
      "outputs": [
        {
          "internalType": "uint256",
          "name": "",
          "type": "uint256"
        }
      ],
      "stateMutability": "pure",
      "type": "function"
    },
    {
      "inputs": [
        {
          "internalType": "bytes",
          "name": "extra",
          "type": "bytes"
        },
        {
          "internalType": "address[7]",
          "name": "addresses",
          "type": "address[7]"
        },
        {
          "internalType": "enum AuthenticatedProxy.HowToCall[2]",
          "name": "howToCalls",
          "type": "uint8[2]"
        },
        {
          "internalType": "uint256[6]",
          "name": "uints",
          "type": "uint256[6]"
        },
        {
          "internalType": "bytes",
          "name": "data",
          "type": "bytes"
        },
        {
          "internalType": "bytes",
          "name": "counterdata",
          "type": "bytes"
        }
      ],
      "name": "anyERC20ForERC1155",
      "outputs": [
        {
          "internalType": "uint256",
          "name": "",
          "type": "uint256"
        }
      ],
      "stateMutability": "pure",
      "type": "function"
    },
    {
      "inputs": [
        {
          "internalType": "bytes",
          "name": "extra",
          "type": "bytes"
        },
        {
          "internalType": "address[7]",
          "name": "addresses",
          "type": "address[7]"
        },
        {
          "internalType": "enum AuthenticatedProxy.HowToCall[2]",
          "name": "howToCalls",
          "type": "uint8[2]"
        },
        {
          "internalType": "uint256[6]",
          "name": "uints",
          "type": "uint256[6]"
        },
        {
          "internalType": "bytes",
          "name": "data",
          "type": "bytes"
        },
        {
          "internalType": "bytes",
          "name": "counterdata",
          "type": "bytes"
        }
      ],
      "name": "anyERC20ForERC20",
      "outputs": [
        {
          "internalType": "uint256",
          "name": "",
          "type": "uint256"
        }
      ],
      "stateMutability": "pure",
      "type": "function"
    },
    {
      "inputs": [
        {
          "internalType": "bytes",
          "name": "extra",
          "type": "bytes"
        },
        {
          "internalType": "address[7]",
          "name": "addresses",
          "type": "address[7]"
        },
        {
          "internalType": "enum AuthenticatedProxy.HowToCall[2]",
          "name": "howToCalls",
          "type": "uint8[2]"
        },
        {
          "internalType": "uint256[6]",
          "name": "uints",
          "type": "uint256[6]"
        },
        {
          "internalType": "bytes",
          "name": "data",
          "type": "bytes"
        },
        {
          "internalType": "bytes",
          "name": "counterdata",
          "type": "bytes"
        }
      ],
      "name": "ERC721ForERC20",
      "outputs": [
        {
          "internalType": "uint256",
          "name": "",
          "type": "uint256"
        }
      ],
      "stateMutability": "pure",
      "type": "function"
    },
    {
      "inputs": [
        {
          "internalType": "bytes",
          "name": "extra",
          "type": "bytes"
        },
        {
          "internalType": "address[7]",
          "name": "addresses",
          "type": "address[7]"
        },
        {
          "internalType": "enum AuthenticatedProxy.HowToCall[2]",
          "name": "howToCalls",
          "type": "uint8[2]"
        },
        {
          "internalType": "uint256[6]",
          "name": "uints",
          "type": "uint256[6]"
        },
        {
          "internalType": "bytes",
          "name": "data",
          "type": "bytes"
        },
        {
          "internalType": "bytes",
          "name": "counterdata",
          "type": "bytes"
        }
      ],
      "name": "ERC20ForERC721",
      "outputs": [
        {
          "internalType": "uint256",
          "name": "",
          "type": "uint256"
        }
      ],
      "stateMutability": "pure",
      "type": "function"
    }
  ],
  "bytecode": "0x608060405234801561001057600080fd5b50611a61806100206000396000f3fe608060405234801561001057600080fd5b50600436106100625760003560e01c806306fdde031461006757806323b04789146100a95780637a7f30e0146100ca578063a6139b58146100dd578063b9845b95146100f0578063c3d3626a14610103575b600080fd5b6100936040518060400160405280600d81526020016c14dd185d1a58c813585c9ad95d609a1b81525081565b6040516100a0919061185e565b60405180910390f35b6100bc6100b736600461173d565b610116565b6040519081526020016100a0565b6100bc6100d836600461173d565b610501565b6100bc6100eb36600461173d565b6108c3565b6100bc6100fe36600461173d565b610b98565b6100bc61011136600461173d565b610fd3565b82516000901561017d5760405162461bcd60e51b815260206004820152602760248201527f616e7945524331313535466f7245524332303a205a65726f2076616c75652072604482015266195c5d5a5c995960ca1b60648201526084015b60405180910390fd5b845160009060018111156101a157634e487b7160e01b600052602160045260246000fd5b146102055760405162461bcd60e51b815260206004820152602e60248201527f616e7945524331313535466f7245524332303a2063616c6c206d75737420626560448201526d081848191a5c9958dd0818d85b1b60921b6064820152608401610174565b6000808880602001905181019061021c91906116a6565b602081015191935091506102425760405162461bcd60e51b8152600401610174906118b1565b60408101516102635760405162461bcd60e51b815260040161017490611907565b815160408901516001600160a01b039081169116146102f65760405162461bcd60e51b815260206004820152604360248201527f616e7945524331313535466f7245524332303a2063616c6c207461726765742060448201527f6d75737420657175616c2061646472657373206f6620746f6b656e20746f206760648201526269766560e81b608482015260a401610174565b602082015160a08901516001600160a01b039081169116146103925760405162461bcd60e51b815260206004820152604960248201527f616e7945524331313535466f7245524332303a20636f756e74657263616c6c2060448201527f746172676574206d75737420657175616c2061646472657373206f6620746f6b606482015268195b881d1bc819d95d60ba1b608482015260a401610174565b600060405180604001604052806103a888611287565b81526020016103b6876112b1565b9052805160a08901519192506000916103cf91906119b0565b60208901519091508111156104405760405162461bcd60e51b815260206004820152603160248201527f616e7945524331313535466f7245524332303a206e65772066696c6c206578636044820152701959591cc81b585e1a5b5d5b48199a5b1b607a1b6064820152608401610174565b8151604084015161045191906119c8565b6020808401519085015161046591906119c8565b146104b25760405162461bcd60e51b815260206004820152601f60248201527f616e7945524331313535466f7245524332303a2077726f6e6720726174696f006044820152606401610174565b6104d0878b600160200201518c60045b6020020151865186516112c1565b6104f3868b600460200201518c60015b60200201518560015b602002015161133f565b9a9950505050505050505050565b8251600090156105635760405162461bcd60e51b815260206004820152602760248201527f616e794552433230466f72455243313135353a205a65726f2076616c75652072604482015266195c5d5a5c995960ca1b6064820152608401610174565b8451600090600181111561058757634e487b7160e01b600052602160045260246000fd5b146105eb5760405162461bcd60e51b815260206004820152602e60248201527f616e794552433230466f72455243313135353a2063616c6c206d75737420626560448201526d081848191a5c9958dd0818d85b1b60921b6064820152608401610174565b6000808880602001905181019061060291906116a6565b602081015191935091506106285760405162461bcd60e51b8152600401610174906118b1565b60408101516106495760405162461bcd60e51b815260040161017490611907565b815160408901516001600160a01b039081169116146106db5760405162461bcd60e51b815260206004820152604260248201527f616e794552433230466f72455243313135353a2063616c6c207461726765742060448201527f6d75737420657175616c2061646472657373206f6620746f6b656e20746f2067606482015261195d60f21b608482015260a401610174565b602082015160a08901516001600160a01b039081169116146107785760405162461bcd60e51b815260206004820152604a60248201527f616e794552433230466f72455243313135353a20636f756e74657263616c6c2060448201527f746172676574206d75737420657175616c2061646472657373206f6620746f6b606482015269656e20746f206769766560b01b608482015260a401610174565b6000604051806040016040528061078e87611287565b815260200161079c886112b1565b9052602081015160a08901519192506000916107b891906119b0565b60208901519091508111156108295760405162461bcd60e51b815260206004820152603160248201527f616e794552433230466f72455243313135353a206e65772066696c6c206578636044820152701959591cc81b585e1a5b5d5b48199a5b1b607a1b6064820152608401610174565b6020820151604084015161083d91906119c8565b8251602085015161084e91906119c8565b1461089b5760405162461bcd60e51b815260206004820152601f60248201527f616e794552433230466f72455243313135353a2077726f6e6720726174696f006044820152606401610174565b6108af868b600460200201518c60016104c2565b6104f3878b600160200201518c60046104e0565b8251600090156109215760405162461bcd60e51b815260206004820152602360248201527f4552433230466f724552433732313a205a65726f2076616c75652072657175696044820152621c995960ea1b6064820152608401610174565b8451600090600181111561094557634e487b7160e01b600052602160045260246000fd5b146109a55760405162461bcd60e51b815260206004820152602a60248201527f4552433230466f724552433732313a2063616c6c206d757374206265206120646044820152691a5c9958dd0818d85b1b60b21b6064820152608401610174565b600080888060200190518101906109bc9190611630565b60208101519193509150610a305760405162461bcd60e51b815260206004820152603560248201527f4552433230466f724552433732313a20455243373231207072696365206d757360448201527474206265206c6172676572207468616e207a65726f60581b6064820152608401610174565b815160408901516001600160a01b03908116911614610ab75760405162461bcd60e51b815260206004820152603f60248201527f4552433230466f724552433732313a2063616c6c20746172676574206d75737460448201527f20657175616c2061646472657373206f6620746f6b656e20746f2067697665006064820152608401610174565b602082015160a08901516001600160a01b03908116911614610b4f5760405162461bcd60e51b815260206004820152604560248201527f4552433230466f724552433732313a20636f756e74657263616c6c207461726760448201527f6574206d75737420657175616c2061646472657373206f6620746f6b656e20746064820152641bc819d95d60da1b608482015260a401610174565b610b6c8489600460200201518a60015b60200201518460006104e9565b610b898589600160200201518a60045b60200201518460016104e9565b50600198975050505050505050565b825160009015610bf85760405162461bcd60e51b815260206004820152602560248201527f616e794552433230466f7245524332303a205a65726f2076616c7565207265716044820152641d5a5c995960da1b6064820152608401610174565b84516000906001811115610c1c57634e487b7160e01b600052602160045260246000fd5b14610c7e5760405162461bcd60e51b815260206004820152602c60248201527f616e794552433230466f7245524332303a2063616c6c206d757374206265206160448201526b08191a5c9958dd0818d85b1b60a21b6064820152608401610174565b60008088806020019051810190610c959190611630565b80519193509150610d055760405162461bcd60e51b815260206004820152603460248201527f616e794552433230466f7245524332303a206e756d657261746f72206d757374604482015273206265206c6172676572207468616e207a65726f60601b6064820152608401610174565b6020810151610d755760405162461bcd60e51b815260206004820152603660248201527f616e794552433230466f7245524332303a2064656e6f6d696e61746f72206d756044820152757374206265206c6172676572207468616e207a65726f60501b6064820152608401610174565b815160408901516001600160a01b03908116911614610e065760405162461bcd60e51b815260206004820152604160248201527f616e794552433230466f7245524332303a2063616c6c20746172676574206d7560448201527f737420657175616c2061646472657373206f6620746f6b656e20746f206769766064820152606560f81b608482015260a401610174565b602082015160a08901516001600160a01b03908116911614610ea05760405162461bcd60e51b815260206004820152604760248201527f616e794552433230466f7245524332303a20636f756e74657263616c6c20746160448201527f72676574206d75737420657175616c2061646472657373206f6620746f6b656e606482015266081d1bc819d95d60ca1b608482015260a401610174565b60006040518060400160405280610eb6886112b1565b8152602001610ec4876112b1565b9052805160a0890151919250600091610edd91906119b0565b6020890151909150811115610f4c5760405162461bcd60e51b815260206004820152602f60248201527f616e794552433230466f7245524332303a206e65772066696c6c20657863656560448201526e191cc81b585e1a5b5d5b48199a5b1b608a1b6064820152608401610174565b60208083015190840151610f6091906119c8565b82518451610f6e91906119c8565b14610fbb5760405162461bcd60e51b815260206004820152601d60248201527f616e794552433230466f7245524332303a2077726f6e6720726174696f0000006044820152606401610174565b60208a015160808b01516104d09189918560006104e9565b8251600090156110315760405162461bcd60e51b815260206004820152602360248201527f455243373231466f7245524332303a205a65726f2076616c75652072657175696044820152621c995960ea1b6064820152608401610174565b8451600090600181111561105557634e487b7160e01b600052602160045260246000fd5b146110b55760405162461bcd60e51b815260206004820152602a60248201527f455243373231466f7245524332303a2063616c6c206d757374206265206120646044820152691a5c9958dd0818d85b1b60b21b6064820152608401610174565b600080888060200190518101906110cc9190611630565b602081015191935091506111405760405162461bcd60e51b815260206004820152603560248201527f455243373231466f7245524332303a20455243373231207072696365206d757360448201527474206265206c6172676572207468616e207a65726f60581b6064820152608401610174565b815160408901516001600160a01b039081169116146111c75760405162461bcd60e51b815260206004820152603f60248201527f455243373231466f7245524332303a2063616c6c20746172676574206d75737460448201527f20657175616c2061646472657373206f6620746f6b656e20746f2067697665006064820152608401610174565b602082015160a08901516001600160a01b0390811691161461125f5760405162461bcd60e51b815260206004820152604560248201527f455243373231466f7245524332303a20636f756e74657263616c6c207461726760448201527f6574206d75737420657175616c2061646472657373206f6620746f6b656e20746064820152641bc819d95d60da1b608482015260a401610174565b6112738589600160200201518a6004610b5f565b610b898489600460200201518a6001610b7c565b60008061129783606460206113a7565b8060200190518101906112aa9190611846565b9392505050565b60008061129783604460206113a7565b6040516001600160a01b03808616602483015284166044820152606481018390526084810182905260a060a4820152600060c482015261132f90869060e40160408051601f198184030181529190526020810180516001600160e01b0316637921219560e11b179052611416565b61133857600080fd5b5050505050565b6040516001600160a01b038085166024830152831660448201526064810182905261139890859060840160408051601f198184030181529190526020810180516001600160e01b03166323b872dd60e01b179052611416565b6113a157600080fd5b50505050565b606080821580156113c35760405191506020820160405261140d565b6040519150601f8416801560200281840101858101878315602002848b0101015b818310156113fc5780518352602092830192016113e4565b5050858452601f01601f1916604052505b50949350505050565b8151815160009160019181148083146114325760009250611470565b600160208701838101602088015b60028483851001141561146b57805183511461145f5760009650600093505b60209283019201611440565b505050505b5090949350505050565b600082601f83011261148a578081fd5b611492611964565b8083856040860111156114a3578384fd5b835b60028110156114ce5781516114b981611a13565b845260209384019391909101906001016114a5565b509095945050505050565b600082601f8301126114e9578081fd5b6114f1611964565b808385604086011115611502578384fd5b835b600280821061151357506114ce565b8235818110611520578687fd5b8552506020938401939190910190600101611504565b600082601f830112611546578081fd5b60405160c0810181811067ffffffffffffffff82111715611569576115696119fd565b604052808360c0810186101561157d578384fd5b835b600681101561159e57813583526020928301929091019060010161157f565b509195945050505050565b600082601f8301126115b9578081fd5b813567ffffffffffffffff808211156115d4576115d46119fd565b604051601f8301601f19908116603f011681019082821181831017156115fc576115fc6119fd565b81604052838152866020858801011115611614578485fd5b8360208701602083013792830160200193909352509392505050565b60008060808385031215611642578182fd5b61164c848461147a565b915083605f84011261165c578081fd5b611664611964565b806040850186608087011115611678578384fd5b835b600281101561169957815184526020938401939091019060010161167a565b5093969095509350505050565b60008060a083850312156116b8578182fd5b6116c2848461147a565b915083605f8401126116d2578081fd5b6040516060810181811067ffffffffffffffff821117156116f5576116f56119fd565b806040525080604085018660a08701111561170e578384fd5b835b600381101561172f578151835260209283019290910190600101611710565b505050809150509250929050565b6000806000806000806102408789031215611756578182fd5b863567ffffffffffffffff8082111561176d578384fd5b6117798a838b016115a9565b97506020915089603f8a011261178d578384fd5b61179561198d565b80838b016101008c018d8111156117aa578788fd5b875b60078110156117d25782356117c081611a13565b855293860193918601916001016117ac565b50829a506117e08e826114d9565b9950505050506117f48a6101408b01611536565b945061020089013591508082111561180a578384fd5b6118168a838b016115a9565b935061022089013591508082111561182c578283fd5b5061183989828a016115a9565b9150509295509295509295565b600060208284031215611857578081fd5b5051919050565b6000602080835283518082850152825b8181101561188a5785810183015185820160400152820161186e565b8181111561189b5783604083870101525b50601f01601f1916929092016040019392505050565b60208082526036908201527f616e794552433230466f72455243313135353a206e756d657261746f72206d756040820152757374206265206c6172676572207468616e207a65726f60501b606082015260800190565b60208082526038908201527f616e794552433230466f72455243313135353a2064656e6f6d696e61746f722060408201527f6d757374206265206c6172676572207468616e207a65726f0000000000000000606082015260800190565b6040805190810167ffffffffffffffff81118282101715611987576119876119fd565b60405290565b60405160e0810167ffffffffffffffff81118282101715611987576119876119fd565b600082198211156119c3576119c36119e7565b500190565b60008160001904831182151516156119e2576119e26119e7565b500290565b634e487b7160e01b600052601160045260246000fd5b634e487b7160e01b600052604160045260246000fd5b6001600160a01b0381168114611a2857600080fd5b5056fea2646970667358221220535acbe5a2983431f13e72d7e80a3eedb280eca212db4a08f946503225f3511e64736f6c63430008040033",
  "immutableReferences": {},
  "source": "// SPDX-License-Identifier: MIT\n/*\n\n  << Static Market contract >>\n\n*/\n\npragma solidity 0.8.4;\n\nimport \"./lib/ex/ArrayUtils.sol\";\nimport \"./registry/AuthenticatedProxy.sol\";\n\n/**\n * @title StaticMarket\n * @author Wyvern Protocol Developers\n */\ncontract StaticMarket {\n\n\tstring public constant name = \"Static Market\";\n\n\tconstructor (){}\n\n\tfunction anyERC1155ForERC20(bytes memory extra,\n\t\taddress[7] memory addresses, AuthenticatedProxy.HowToCall[2] memory howToCalls, uint[6] memory uints,\n\t\tbytes memory data, bytes memory counterdata)\n\t\tpublic\n\t\tpure\n\t\treturns (uint)\n\t{\n\t\trequire(uints[0] == 0,\"anyERC1155ForERC20: Zero value required\");\n\t\trequire(howToCalls[0] == AuthenticatedProxy.HowToCall.Call, \"anyERC1155ForERC20: call must be a direct call\");\n\n\t\t(address[2] memory tokenGiveGet, uint256[3] memory tokenIdAndNumeratorDenominator) = abi.decode(extra, (address[2], uint256[3]));\n\n\t\trequire(tokenIdAndNumeratorDenominator[1] > 0,\"anyERC20ForERC1155: numerator must be larger than zero\");\n\t\trequire(tokenIdAndNumeratorDenominator[2] > 0,\"anyERC20ForERC1155: denominator must be larger than zero\");\n\t\trequire(addresses[2] == tokenGiveGet[0], \"anyERC1155ForERC20: call target must equal address of token to give\");\n\t\trequire(addresses[5] == tokenGiveGet[1], \"anyERC1155ForERC20: countercall target must equal address of token to get\");\n\n\t\tuint256[2] memory call_amounts = [\n\t\t\tgetERC1155AmountFromCalldata(data),\n\t\t\tgetERC20AmountFromCalldata(counterdata)\n\t\t];\n\t\tuint256 new_fill = uints[5] + call_amounts[0];\n\t\trequire((new_fill <= uints[1]),\"anyERC1155ForERC20: new fill exceeds maximum fill\");\n\t\trequire((tokenIdAndNumeratorDenominator[1] * call_amounts[1]) == (tokenIdAndNumeratorDenominator[2] * call_amounts[0]),\"anyERC1155ForERC20: wrong ratio\");\n\t\tcheckERC1155Side(data,addresses[1],addresses[4],tokenIdAndNumeratorDenominator[0],call_amounts[0]);\n\t\tcheckERC20Side(counterdata,addresses[4],addresses[1],call_amounts[1]);\n\t\t\n\t\treturn new_fill;\n\t}\n\n\tfunction anyERC20ForERC1155(bytes memory extra,\n\t\taddress[7] memory addresses, AuthenticatedProxy.HowToCall[2] memory howToCalls, uint[6] memory uints,\n\t\tbytes memory data, bytes memory counterdata)\n\t\tpublic\n\t\tpure\n\t\treturns (uint)\n\t{\n\t\trequire(uints[0] == 0,\"anyERC20ForERC1155: Zero value required\");\n\t\trequire(howToCalls[0] == AuthenticatedProxy.HowToCall.Call, \"anyERC20ForERC1155: call must be a direct call\");\n\n\t\t(address[2] memory tokenGiveGet, uint256[3] memory tokenIdAndNumeratorDenominator) = abi.decode(extra, (address[2], uint256[3]));\n\n\t\trequire(tokenIdAndNumeratorDenominator[1] > 0,\"anyERC20ForERC1155: numerator must be larger than zero\");\n\t\trequire(tokenIdAndNumeratorDenominator[2] > 0,\"anyERC20ForERC1155: denominator must be larger than zero\");\n\t\trequire(addresses[2] == tokenGiveGet[0], \"anyERC20ForERC1155: call target must equal address of token to get\");\n\t\trequire(addresses[5] == tokenGiveGet[1], \"anyERC20ForERC1155: countercall target must equal address of token to give\");\n\n\t\tuint256[2] memory call_amounts = [\n\t\t\tgetERC1155AmountFromCalldata(counterdata),\n\t\t\tgetERC20AmountFromCalldata(data)\n\t\t];\n\t\tuint256 new_fill = (uints[5] + call_amounts[1]);\n\t\trequire(new_fill <= uints[1],\"anyERC20ForERC1155: new fill exceeds maximum fill\");\n\t\trequire((tokenIdAndNumeratorDenominator[1] * call_amounts[0]) == (tokenIdAndNumeratorDenominator[2] * call_amounts[1]),\"anyERC20ForERC1155: wrong ratio\");\n\t\tcheckERC1155Side(counterdata,addresses[4],addresses[1],tokenIdAndNumeratorDenominator[0],call_amounts[0]);\n\t\tcheckERC20Side(data,addresses[1],addresses[4],call_amounts[1]);\n\t\t\n\t\treturn new_fill;\n\t}\n\n\tfunction anyERC20ForERC20(bytes memory extra,\n\t\taddress[7] memory addresses, AuthenticatedProxy.HowToCall[2] memory howToCalls, uint[6] memory uints,\n\t\tbytes memory data, bytes memory counterdata)\n\t\tpublic\n\t\tpure\n\t\treturns (uint)\n\t{\n\t\trequire(uints[0] == 0,\"anyERC20ForERC20: Zero value required\");\n\t\trequire(howToCalls[0] == AuthenticatedProxy.HowToCall.Call, \"anyERC20ForERC20: call must be a direct call\");\n\n\t\t(address[2] memory tokenGiveGet, uint256[2] memory numeratorDenominator) = abi.decode(extra, (address[2], uint256[2]));\n\n\t\trequire(numeratorDenominator[0] > 0,\"anyERC20ForERC20: numerator must be larger than zero\");\n\t\trequire(numeratorDenominator[1] > 0,\"anyERC20ForERC20: denominator must be larger than zero\");\n\t\trequire(addresses[2] == tokenGiveGet[0], \"anyERC20ForERC20: call target must equal address of token to give\");\n\t\trequire(addresses[5] == tokenGiveGet[1], \"anyERC20ForERC20: countercall target must equal address of token to get\");\n\t\t\n\t\tuint256[2] memory call_amounts = [\n\t\t\tgetERC20AmountFromCalldata(data),\n\t\t\tgetERC20AmountFromCalldata(counterdata)\n\t\t];\n\t\tuint256 new_fill = uints[5] + call_amounts[0];\n\t\trequire(new_fill <= uints[1],\"anyERC20ForERC20: new fill exceeds maximum fill\");\n\t\trequire((numeratorDenominator[0] * call_amounts[0]) == (numeratorDenominator[1] * call_amounts[1]),\"anyERC20ForERC20: wrong ratio\");\n\t\tcheckERC20Side(data,addresses[1],addresses[4],call_amounts[0]);\n\t\tcheckERC20Side(counterdata,addresses[4],addresses[1],call_amounts[1]);\n\t\t\n\t\treturn new_fill;\n\t}\n\n\tfunction ERC721ForERC20(bytes memory extra,\n\t\taddress[7] memory addresses, AuthenticatedProxy.HowToCall[2] memory howToCalls, uint[6] memory uints,\n\t\tbytes memory data, bytes memory counterdata)\n\t\tpublic\n\t\tpure\n\t\treturns (uint)\n\t{\n\t\trequire(uints[0] == 0,\"ERC721ForERC20: Zero value required\");\n\t\trequire(howToCalls[0] == AuthenticatedProxy.HowToCall.Call, \"ERC721ForERC20: call must be a direct call\");\n\n\t\t(address[2] memory tokenGiveGet, uint256[2] memory tokenIdAndPrice) = abi.decode(extra, (address[2], uint256[2]));\n\n\t\trequire(tokenIdAndPrice[1] > 0,\"ERC721ForERC20: ERC721 price must be larger than zero\");\n\t\trequire(addresses[2] == tokenGiveGet[0], \"ERC721ForERC20: call target must equal address of token to give\");\n\t\trequire(addresses[5] == tokenGiveGet[1], \"ERC721ForERC20: countercall target must equal address of token to get\");\n\n\t\tcheckERC721Side(data,addresses[1],addresses[4],tokenIdAndPrice[0]);\n\t\tcheckERC20Side(counterdata,addresses[4],addresses[1],tokenIdAndPrice[1]);\n\t\t\n\t\treturn 1;\n\t}\n\n\tfunction ERC20ForERC721(bytes memory extra,\n\t\taddress[7] memory addresses, AuthenticatedProxy.HowToCall[2] memory howToCalls, uint[6] memory uints,\n\t\tbytes memory data, bytes memory counterdata)\n\t\tpublic\n\t\tpure\n\t\treturns (uint)\n\t{\n\t\trequire(uints[0] == 0,\"ERC20ForERC721: Zero value required\");\n\t\trequire(howToCalls[0] == AuthenticatedProxy.HowToCall.Call, \"ERC20ForERC721: call must be a direct call\");\n\n\t\t(address[2] memory tokenGiveGet, uint256[2] memory tokenIdAndPrice) = abi.decode(extra, (address[2], uint256[2]));\n\n\t\trequire(tokenIdAndPrice[1] > 0,\"ERC20ForERC721: ERC721 price must be larger than zero\");\n\t\trequire(addresses[2] == tokenGiveGet[0], \"ERC20ForERC721: call target must equal address of token to give\");\n\t\trequire(addresses[5] == tokenGiveGet[1], \"ERC20ForERC721: countercall target must equal address of token to get\");\n\n\t\tcheckERC721Side(counterdata,addresses[4],addresses[1],tokenIdAndPrice[0]);\n\t\tcheckERC20Side(data,addresses[1],addresses[4],tokenIdAndPrice[1]);\n\t\t\n\t\treturn 1;\n\t}\n\n\tfunction getERC1155AmountFromCalldata(bytes memory data)\n\t\tinternal\n\t\tpure\n\t\treturns (uint256)\n\t{\n\t\t(uint256 amount) = abi.decode(ArrayUtils.arraySlice(data,100,32),(uint256));\n\t\treturn amount;\n\t}\n\n\tfunction getERC20AmountFromCalldata(bytes memory data)\n\t\tinternal\n\t\tpure\n\t\treturns (uint256)\n\t{\n\t\t(uint256 amount) = abi.decode(ArrayUtils.arraySlice(data,68,32),(uint256));\n\t\treturn amount;\n\t}\n\n\tfunction checkERC1155Side(bytes memory data, address from, address to, uint256 tokenId, uint256 amount)\n\t\tinternal\n\t\tpure\n\t{\n\t\trequire(ArrayUtils.arrayEq(data, abi.encodeWithSignature(\"safeTransferFrom(address,address,uint256,uint256,bytes)\", from, to, tokenId, amount, \"\")));\n\t}\n\n\tfunction checkERC721Side(bytes memory data, address from, address to, uint256 tokenId)\n\t\tinternal\n\t\tpure\n\t{\n\t\trequire(ArrayUtils.arrayEq(data, abi.encodeWithSignature(\"transferFrom(address,address,uint256)\", from, to, tokenId)));\n\t}\n\n\tfunction checkERC20Side(bytes memory data, address from, address to, uint256 amount)\n\t\tinternal\n\t\tpure\n\t{\n\t\trequire(ArrayUtils.arrayEq(data, abi.encodeWithSignature(\"transferFrom(address,address,uint256)\", from, to, amount)));\n\t}\n}\n",
  "sourcePath": "/home/toor/nodejs/truffle/nft_demo/taureum/taureum-nft-protocol-sc/contracts/StaticMarket.sol",
  "compiler": {
    "name": "solc",
    "version": "0.8.4+commit.c7e474f2.Emscripten.clang"
  },
  "schemaVersion": "3.4.1",
  "updatedAt": "2021-09-02T04:22:11.545Z",
  "devdoc": {
    "author": "Wyvern Protocol Developers",
    "kind": "dev",
    "methods": {},
    "title": "StaticMarket",
    "version": 1
  },
  "userdoc": {
    "kind": "user",
    "methods": {},
    "version": 1
  }
}