{
  "contractName": "StaticERC1155",
  "abi": [
    {
      "inputs": [
        {
          "internalType": "bytes",
          "name": "extra",
          "type": "bytes"
        },
        {
          "internalType": "address[7]",
          "name": "addresses",
          "type": "address[7]"
        },
        {
          "internalType": "enum AuthenticatedProxy.HowToCall",
          "name": "howToCall",
          "type": "uint8"
        },
        {
          "internalType": "uint256[6]",
          "name": "",
          "type": "uint256[6]"
        },
        {
          "internalType": "bytes",
          "name": "data",
          "type": "bytes"
        }
      ],
      "name": "transferERC1155Exact",
      "outputs": [],
      "stateMutability": "pure",
      "type": "function"
    },
    {
      "inputs": [
        {
          "internalType": "bytes",
          "name": "extra",
          "type": "bytes"
        },
        {
          "internalType": "address[7]",
          "name": "addresses",
          "type": "address[7]"
        },
        {
          "internalType": "enum AuthenticatedProxy.HowToCall[2]",
          "name": "howToCalls",
          "type": "uint8[2]"
        },
        {
          "internalType": "uint256[6]",
          "name": "uints",
          "type": "uint256[6]"
        },
        {
          "internalType": "bytes",
          "name": "data",
          "type": "bytes"
        },
        {
          "internalType": "bytes",
          "name": "counterdata",
          "type": "bytes"
        }
      ],
      "name": "swapOneForOneERC1155",
      "outputs": [
        {
          "internalType": "uint256",
          "name": "",
          "type": "uint256"
        }
      ],
      "stateMutability": "pure",
      "type": "function"
    },
    {
      "inputs": [
        {
          "internalType": "bytes",
          "name": "extra",
          "type": "bytes"
        },
        {
          "internalType": "address[7]",
          "name": "addresses",
          "type": "address[7]"
        },
        {
          "internalType": "enum AuthenticatedProxy.HowToCall[2]",
          "name": "howToCalls",
          "type": "uint8[2]"
        },
        {
          "internalType": "uint256[6]",
          "name": "uints",
          "type": "uint256[6]"
        },
        {
          "internalType": "bytes",
          "name": "data",
          "type": "bytes"
        },
        {
          "internalType": "bytes",
          "name": "counterdata",
          "type": "bytes"
        }
      ],
      "name": "swapOneForOneERC1155Decoding",
      "outputs": [
        {
          "internalType": "uint256",
          "name": "",
          "type": "uint256"
        }
      ],
      "stateMutability": "pure",
      "type": "function"
    }
  ],
  "bytecode": "0x608060405234801561001057600080fd5b50610c36806100206000396000f3fe608060405234801561001057600080fd5b50600436106100415760003560e01c80632e0b69db146100465780634563928f1461005b5780637557ef9814610080575b600080fd5b610059610054366004610a38565b610093565b005b61006e610069366004610930565b610169565b60405190815260200160405180910390f35b61006e61008e366004610930565b61046a565b6000806000878060200190518101906100ac9190610869565b919450925090506001600160a01b03831687600260200201516001600160a01b0316146100d857600080fd5b60008660018111156100fa57634e487b7160e01b600052602160045260246000fd5b1461010457600080fd5b602087015160808801516040516101569287926101279287908790602401610ad1565b60408051601f198184030181529190526020810180516001600160e01b0316637921219560e11b1790526105ac565b61015f57600080fd5b5050505050505050565b82516000901561017857600080fd5b600080600089806020019051810190610191919061089f565b825160408d015193965091945092506001600160a01b039182169116146101d35760405162461bcd60e51b81526004016101ca90610b4c565b60405180910390fd5b80516102375760405162461bcd60e51b815260206004820152602d60248201527f455243313135353a206769766520616d6f756e74206d757374206265206c617260448201526c676572207468616e207a65726f60981b60648201526084016101ca565b8751600090600181111561025b57634e487b7160e01b600052602160045260246000fd5b146102785760405162461bcd60e51b81526004016101ca90610b09565b6102ab868a600160200201518b60045b602002015185518560005b60200201516040516024016101279493929190610ad1565b6102b457600080fd5b602083015160a08a01516001600160a01b0390811691161461033e5760405162461bcd60e51b815260206004820152603e60248201527f455243313135353a20636f756e74657263616c6c20746172676574206d75737460448201527f20657175616c2061646472657373206f6620746f6b656e20746f20676574000060648201526084016101ca565b60208101516103a55760405162461bcd60e51b815260206004820152602d60248201527f455243313135353a2074616b6520616d6f756e74206d757374206265206c617260448201526c676572207468616e207a65726f60981b60648201526084016101ca565b602088015160009060018111156103cc57634e487b7160e01b600052602160045260246000fd5b1461042c5760405162461bcd60e51b815260206004820152602a60248201527f455243313135353a20636f756e74657263616c6c206d757374206265206120646044820152691a5c9958dd0818d85b1b60b21b60648201526084016101ca565b610451858a600460200201518b60015b60200201518560016020020151856001610293565b61045a57600080fd5b5060019998505050505050505050565b604080516004808252602482019092526020810180516001600160e01b0316637921219560e11b17905260009182916104a291610610565b8551909150156104b157600080fd5b60008060008a8060200190518101906104ca919061089f565b825160408e015193965091945092506001600160a01b039182169116146105035760405162461bcd60e51b81526004016101ca90610b4c565b8851600090600181111561052757634e487b7160e01b600052602160045260246000fd5b146105445760405162461bcd60e51b81526004016101ca90610b09565b61055884610553896004610610565b6105ac565b61056157600080fd5b610575878b600160200201518c6004610288565b61057e57600080fd5b610592868b600460200201518c600161043c565b61059b57600080fd5b5060019a9950505050505050505050565b8151815160009160019181148083146105c85760009250610606565b600160208701838101602088015b6002848385100114156106015780518351146105f55760009650600093505b602092830192016105d6565b505050505b5090949350505050565b606061061e83600084610625565b9392505050565b606080821580156106415760405191506020820160405261068b565b6040519150601f8416801560200281840101858101878315602002848b0101015b8183101561067a578051835260209283019201610662565b5050858452601f01601f1916604052505b50949350505050565b600082601f8301126106a4578081fd5b60405160e0810181811067ffffffffffffffff821117156106c7576106c7610bd2565b604052808360e081018610156106db578384fd5b835b60078110156107065781356106f181610be8565b835260209283019291909101906001016106dd565b509195945050505050565b600082601f830112610721578081fd5b610729610ba9565b80838560408601111561073a578384fd5b835b600281101561075b57815184526020938401939091019060010161073c565b509095945050505050565b600082601f830112610776578081fd5b60405160c0810181811067ffffffffffffffff8211171561079957610799610bd2565b604052808360c081018610156107ad578384fd5b835b60068110156107065781358352602092830192909101906001016107af565b600082601f8301126107de578081fd5b813567ffffffffffffffff808211156107f9576107f9610bd2565b604051601f8301601f19908116603f0116810190828211818310171561082157610821610bd2565b81604052838152866020858801011115610839578485fd5b8360208701602083013792830160200193909352509392505050565b80356002811061086457600080fd5b919050565b60008060006060848603121561087d578283fd5b835161088881610be8565b602085015160409095015190969495509392505050565b600080600060c084860312156108b3578283fd5b84601f8501126108c1578283fd5b6108c9610ba9565b808560408701888111156108db578687fd5b865b60028110156109065782516108f181610be8565b855260209485019492909201916001016108dd565b508296506109148982610711565b9550505050506109278560808601610711565b90509250925092565b6000806000806000806102408789031215610949578182fd5b863567ffffffffffffffff80821115610960578384fd5b61096c8a838b016107ce565b97506020915061097e8a838b01610694565b96508961011f8a011261098f578384fd5b610997610ba9565b806101008b016101408c018d8111156109ae578788fd5b875b60028110156109d4576109c283610855565b855293860193918601916001016109b0565b508299506109e28e82610766565b9850505050506102008901359150808211156109fc578384fd5b610a088a838b016107ce565b9350610220890135915080821115610a1e578283fd5b50610a2b89828a016107ce565b9150509295509295509295565b60008060008060006102008688031215610a50578283fd5b853567ffffffffffffffff80821115610a67578485fd5b610a7389838a016107ce565b9650610a828960208a01610694565b9550610a916101008901610855565b9450610aa1896101208a01610766565b93506101e0880135915080821115610ab7578283fd5b50610ac4888289016107ce565b9150509295509295909350565b6001600160a01b0394851681529290931660208301526040820152606081019190915260a06080820181905260009082015260c00190565b60208082526023908201527f455243313135353a2063616c6c206d7573742062652061206469726563742063604082015262185b1b60ea1b606082015260800190565b60208082526038908201527f455243313135353a2063616c6c20746172676574206d75737420657175616c2060408201527f61646472657373206f6620746f6b656e20746f20676976650000000000000000606082015260800190565b6040805190810167ffffffffffffffff81118282101715610bcc57610bcc610bd2565b60405290565b634e487b7160e01b600052604160045260246000fd5b6001600160a01b0381168114610bfd57600080fd5b5056fea2646970667358221220eebee2494b257d3171af2f45f85add8814ce1272ff4985294f2855a399d139bd64736f6c63430008040033",
  "immutableReferences": {},
  "source": "// SPDX-License-Identifier: UNLICENSED\n/*\n\nStaticERC1155 - static calls for ERC1155 trades\n\n*/\n\npragma solidity 0.8.4;\n\nimport \"../lib/ex/ArrayUtils.sol\";\nimport \"../registry/AuthenticatedProxy.sol\";\n\ncontract StaticERC1155 {\n\nfunction transferERC1155Exact(bytes memory extra,\n\taddress[7] memory addresses, AuthenticatedProxy.HowToCall howToCall, uint[6] memory,\n\tbytes memory data)\n\tpublic\n\tpure\n{\n\t// Decode extradata\n\t(address token, uint256 tokenId, uint256 amount) = abi.decode(extra, (address, uint256, uint256));\n\n\t// Call target = token to give\n\trequire(addresses[2] == token);\n\t// Call type = call\n\trequire(howToCall == AuthenticatedProxy.HowToCall.Call);\n\t// Assert calldata\n\trequire(ArrayUtils.arrayEq(data, abi.encodeWithSignature(\"safeTransferFrom(address,address,uint256,uint256,bytes)\", addresses[1], addresses[4], tokenId, amount, \"\")));\n}\n\nfunction swapOneForOneERC1155(bytes memory extra,\n\taddress[7] memory addresses, AuthenticatedProxy.HowToCall[2] memory howToCalls, uint[6] memory uints,\n\tbytes memory data, bytes memory counterdata)\n\tpublic\n\tpure\n\treturns (uint)\n{\n\t// Zero-value\n\trequire(uints[0] == 0);\n\n\t// Decode extradata\n\t(address[2] memory tokenGiveGet, uint256[2] memory nftGiveGet, uint256[2] memory nftAmounts) = abi.decode(extra, (address[2], uint256[2], uint256[2]));\n\n\t// Call target = token to give\n\trequire(addresses[2] == tokenGiveGet[0], \"ERC1155: call target must equal address of token to give\");\n\t// Assert more than zero\n\trequire(nftAmounts[0] > 0,\"ERC1155: give amount must be larger than zero\");\n\t// Call type = call\n\trequire(howToCalls[0] == AuthenticatedProxy.HowToCall.Call, \"ERC1155: call must be a direct call\");\n\t// Assert calldata\n\trequire(ArrayUtils.arrayEq(data, abi.encodeWithSignature(\"safeTransferFrom(address,address,uint256,uint256,bytes)\", addresses[1], addresses[4], nftGiveGet[0], nftAmounts[0], \"\")));\n\n\t// Countercall target = token to get\n\trequire(addresses[5] == tokenGiveGet[1], \"ERC1155: countercall target must equal address of token to get\");\n\t// Assert more than zero\n\trequire(nftAmounts[1] > 0,\"ERC1155: take amount must be larger than zero\");\n\t// Countercall type = call\n\trequire(howToCalls[1] == AuthenticatedProxy.HowToCall.Call, \"ERC1155: countercall must be a direct call\");\n\t// Assert countercalldata\n\trequire(ArrayUtils.arrayEq(counterdata, abi.encodeWithSignature(\"safeTransferFrom(address,address,uint256,uint256,bytes)\", addresses[4], addresses[1], nftGiveGet[1], nftAmounts[1], \"\")));\n\n\t// Mark filled\n\treturn 1;\n}\n\nfunction swapOneForOneERC1155Decoding(bytes memory extra,\n\taddress[7] memory addresses, AuthenticatedProxy.HowToCall[2] memory howToCalls, uint[6] memory uints,\n\tbytes memory data, bytes memory counterdata)\n\tpublic\n\tpure\n\treturns (uint)\n{\n\t// Calculate function signature\n\tbytes memory sig = ArrayUtils.arrayTake(abi.encodeWithSignature(\"safeTransferFrom(address,address,uint256,uint256,bytes)\"), 4);\n\n\t// Zero-value\n\trequire(uints[0] == 0);\n\n\t// Decode extradata\n\t(address[2] memory tokenGiveGet, uint256[2] memory nftGiveGet, uint256[2] memory nftAmounts) = abi.decode(extra, (address[2],uint256[2],uint256[2]));\n\n\t// Call target = token to give\n\trequire(addresses[2] == tokenGiveGet[0], \"ERC1155: call target must equal address of token to give\");\n\t// Call type = call\n\trequire(howToCalls[0] == AuthenticatedProxy.HowToCall.Call, \"ERC1155: call must be a direct call\");\n\t// Assert signature\n\trequire(ArrayUtils.arrayEq(sig, ArrayUtils.arrayTake(data, 4)));\n\t// Decode and assert calldata\t\n\trequire(ArrayUtils.arrayEq(data, abi.encodeWithSignature(\"safeTransferFrom(address,address,uint256,uint256,bytes)\", addresses[1], addresses[4], nftGiveGet[0], nftAmounts[0], \"\")));\n\t// Decode and assert countercalldata\n\trequire(ArrayUtils.arrayEq(counterdata, abi.encodeWithSignature(\"safeTransferFrom(address,address,uint256,uint256,bytes)\", addresses[4], addresses[1], nftGiveGet[1], nftAmounts[1], \"\")));\n\n\t// Mark filled\n\treturn 1;\n}\n\n}\n",
  "sourcePath": "/home/toor/nodejs/truffle/nft_demo/taureum/taureum-nft-protocol-sc/contracts/static/StaticERC1155.sol",
  "compiler": {
    "name": "solc",
    "version": "0.8.4+commit.c7e474f2.Emscripten.clang"
  },
  "schemaVersion": "3.4.1",
  "updatedAt": "2021-08-29T11:36:11.125Z",
  "devdoc": {
    "kind": "dev",
    "methods": {},
    "version": 1
  },
  "userdoc": {
    "kind": "user",
    "methods": {},
    "version": 1
  }
}