{
  "contractName": "StaticERC20",
  "abi": [
    {
      "inputs": [
        {
          "internalType": "bytes",
          "name": "extra",
          "type": "bytes"
        },
        {
          "internalType": "address[7]",
          "name": "addresses",
          "type": "address[7]"
        },
        {
          "internalType": "enum AuthenticatedProxy.HowToCall",
          "name": "howToCall",
          "type": "uint8"
        },
        {
          "internalType": "uint256[6]",
          "name": "",
          "type": "uint256[6]"
        },
        {
          "internalType": "bytes",
          "name": "data",
          "type": "bytes"
        }
      ],
      "name": "transferERC20Exact",
      "outputs": [],
      "stateMutability": "pure",
      "type": "function"
    },
    {
      "inputs": [
        {
          "internalType": "bytes",
          "name": "extra",
          "type": "bytes"
        },
        {
          "internalType": "address[7]",
          "name": "addresses",
          "type": "address[7]"
        },
        {
          "internalType": "enum AuthenticatedProxy.HowToCall[2]",
          "name": "howToCalls",
          "type": "uint8[2]"
        },
        {
          "internalType": "uint256[6]",
          "name": "uints",
          "type": "uint256[6]"
        },
        {
          "internalType": "bytes",
          "name": "data",
          "type": "bytes"
        },
        {
          "internalType": "bytes",
          "name": "counterdata",
          "type": "bytes"
        }
      ],
      "name": "swapExact",
      "outputs": [
        {
          "internalType": "uint256",
          "name": "",
          "type": "uint256"
        }
      ],
      "stateMutability": "pure",
      "type": "function"
    },
    {
      "inputs": [
        {
          "internalType": "bytes",
          "name": "extra",
          "type": "bytes"
        },
        {
          "internalType": "address[7]",
          "name": "addresses",
          "type": "address[7]"
        },
        {
          "internalType": "enum AuthenticatedProxy.HowToCall[2]",
          "name": "howToCalls",
          "type": "uint8[2]"
        },
        {
          "internalType": "uint256[6]",
          "name": "uints",
          "type": "uint256[6]"
        },
        {
          "internalType": "bytes",
          "name": "data",
          "type": "bytes"
        },
        {
          "internalType": "bytes",
          "name": "counterdata",
          "type": "bytes"
        }
      ],
      "name": "swapForever",
      "outputs": [
        {
          "internalType": "uint256",
          "name": "",
          "type": "uint256"
        }
      ],
      "stateMutability": "pure",
      "type": "function"
    }
  ],
  "bytecode": "0x608060405234801561001057600080fd5b50610b3e806100206000396000f3fe608060405234801561001057600080fd5b50600436106100415760003560e01c806323f62d9c14610046578063265a87e71461006b578063f6280c8614610080575b600080fd5b6100596100543660046108c4565b610093565b60405190815260200160405180910390f35b61007e6100793660046109cc565b610203565b005b61005961008e3660046108c4565b6102bb565b8251600090156100a257600080fd5b600080888060200190518101906100b99190610801565b815160408b01519294509092506001600160a01b039182169116146100dd57600080fd5b8651600090600181111561010157634e487b7160e01b600052602160045260246000fd5b1461010b57600080fd5b602088015160808901516101789187918460005b60200201516040516001600160a01b03938416602482015292909116604483015260648201526084015b60408051601f198184030181529190526020810180516001600160e01b03166323b872dd60e01b179052610504565b61018157600080fd5b602082015160a08901516001600160a01b039081169116146101a257600080fd5b602087015160009060018111156101c957634e487b7160e01b600052602160045260246000fd5b146101d357600080fd5b608088015160208901516101eb91869184600161011f565b6101f457600080fd5b50600198975050505050505050565b6000808680602001905181019061021a91906107d4565b90925090506001600160a01b03821686600260200201516001600160a01b03161461024457600080fd5b600085600181111561026657634e487b7160e01b600052602160045260246000fd5b1461027057600080fd5b602086015160808701516040516001600160a01b03928316602482015291166044820152606481018290526102a9908490608401610149565b6102b257600080fd5b50505050505050565b604080516004808252602482019092526020810180516001600160e01b03166323b872dd60e01b17905260009182916102f391610568565b85519091501561030257600080fd5b600080898060200190518101906103199190610801565b815160408c01519294509092506001600160a01b0391821691161461033d57600080fd5b8751600090600181111561036157634e487b7160e01b600052602160045260246000fd5b1461036b57600080fd5b61037f8361037a886004610568565b610504565b61038857600080fd5b600080600061039889600461057d565b8060200190518101906103ab9190610792565b919450925090508b600160200201516001600160a01b0316836001600160a01b0316146103d757600080fd5b60808c01516001600160a01b038381169116146103f357600080fd5b602085015160a08d01516001600160a01b0390811691161461041457600080fd5b60208b0151600090600181111561043b57634e487b7160e01b600052602160045260246000fd5b1461044557600080fd5b6104548661037a8a6004610568565b61045d57600080fd5b600080600061046d8b600461057d565b8060200190518101906104809190610792565b919450925090508e600460200201516001600160a01b0316836001600160a01b0316146104ac57600080fd5b60208f01516001600160a01b038381169116146104c857600080fd5b86516104d49085610a8e565b60208801516104e39083610a8e565b10156104ee57600080fd5b5060019f9e505050505050505050505050505050565b815181516000916001918114808314610520576000925061055e565b600160208701838101602088015b60028483851001141561055957805183511461054d5760009650600093505b6020928301920161052e565b505050505b5090949350505050565b6060610576836000846105a3565b9392505050565b6060600082845161058e9190610aad565b905061059b8484836105a3565b949350505050565b606080821580156105bf57604051915060208201604052610609565b6040519150601f8416801560200281840101858101878315602002848b0101015b818310156105f85780518352602092830192016105e0565b5050858452601f01601f1916604052505b50949350505050565b600082601f830112610622578081fd5b60405160e0810181811067ffffffffffffffff8211171561064557610645610ada565b604052808360e08101861015610659578384fd5b835b600781101561068457813561066f81610af0565b8352602092830192919091019060010161065b565b509195945050505050565b600082601f83011261069f578081fd5b60405160c0810181811067ffffffffffffffff821117156106c2576106c2610ada565b604052808360c081018610156106d6578384fd5b835b60068110156106845781358352602092830192909101906001016106d8565b600082601f830112610707578081fd5b813567ffffffffffffffff8082111561072257610722610ada565b604051601f8301601f19908116603f0116810190828211818310171561074a5761074a610ada565b81604052838152866020858801011115610762578485fd5b8360208701602083013792830160200193909352509392505050565b80356002811061078d57600080fd5b919050565b6000806000606084860312156107a6578283fd5b83516107b181610af0565b60208501519093506107c281610af0565b80925050604084015190509250925092565b600080604083850312156107e6578182fd5b82516107f181610af0565b6020939093015192949293505050565b60008060808385031215610813578182fd5b83601f840112610821578182fd5b610829610a65565b8084604086018781111561083b578586fd5b855b600281101561086657825161085181610af0565b8552602094850194929092019160010161083d565b5082955087605f880112610878578485fd5b610880610a65565b9350839250905060808601871015610896578384fd5b835b60028110156108b7578151845260209384019390910190600101610898565b5093969095509350505050565b60008060008060008061024087890312156108dd578182fd5b863567ffffffffffffffff808211156108f4578384fd5b6109008a838b016106f7565b9750602091506109128a838b01610612565b96508961011f8a0112610923578384fd5b61092b610a65565b806101008b016101408c018d811115610942578788fd5b875b6002811015610968576109568361077e565b85529386019391860191600101610944565b508299506109768e8261068f565b985050505050610200890135915080821115610990578384fd5b61099c8a838b016106f7565b93506102208901359150808211156109b2578283fd5b506109bf89828a016106f7565b9150509295509295509295565b600080600080600061020086880312156109e4578283fd5b853567ffffffffffffffff808211156109fb578485fd5b610a0789838a016106f7565b9650610a168960208a01610612565b9550610a25610100890161077e565b9450610a35896101208a0161068f565b93506101e0880135915080821115610a4b578283fd5b50610a58888289016106f7565b9150509295509295909350565b6040805190810167ffffffffffffffff81118282101715610a8857610a88610ada565b60405290565b6000816000190483118215151615610aa857610aa8610ac4565b500290565b600082821015610abf57610abf610ac4565b500390565b634e487b7160e01b600052601160045260246000fd5b634e487b7160e01b600052604160045260246000fd5b6001600160a01b0381168114610b0557600080fd5b5056fea26469706673582212200ac046ee9bb6b6f933533dc0e345877343da3a9804c92a547fef6d2dac3fa2bd64736f6c63430008040033",
  "immutableReferences": {},
  "source": "// SPDX-License-Identifier: MIT\n/*\n\n    StaticERC20 - static calls for ERC20 trades\n\n*/\n\npragma solidity 0.8.4;\n\nimport \"../lib/ex/ArrayUtils.sol\";\nimport \"../registry/AuthenticatedProxy.sol\";\n\ncontract StaticERC20 {\n\n    function transferERC20Exact(bytes memory extra,\n        address[7] memory addresses, AuthenticatedProxy.HowToCall howToCall, uint[6] memory,\n        bytes memory data)\n        public\n        pure\n    {\n        // Decode extradata\n        (address token, uint amount) = abi.decode(extra, (address, uint));\n\n        // Call target = token to give\n        require(addresses[2] == token);\n        // Call type = call\n        require(howToCall == AuthenticatedProxy.HowToCall.Call);\n        // Assert calldata\n        require(ArrayUtils.arrayEq(data, abi.encodeWithSignature(\"transferFrom(address,address,uint256)\", addresses[1], addresses[4], amount)));\n    }\n\n    function swapExact(bytes memory extra,\n        address[7] memory addresses, AuthenticatedProxy.HowToCall[2] memory howToCalls, uint[6] memory uints,\n        bytes memory data, bytes memory counterdata)\n        public\n        pure\n        returns (uint)\n    {\n        // Zero-value\n        require(uints[0] == 0);\n\n        // Decode extradata\n        (address[2] memory tokenGiveGet, uint[2] memory amountGiveGet) = abi.decode(extra, (address[2], uint[2]));\n\n        // Call target = token to give\n        require(addresses[2] == tokenGiveGet[0]);\n        // Call type = call\n        require(howToCalls[0] == AuthenticatedProxy.HowToCall.Call);\n        // Assert calldata\n        require(ArrayUtils.arrayEq(data, abi.encodeWithSignature(\"transferFrom(address,address,uint256)\", addresses[1], addresses[4], amountGiveGet[0])));\n\n        require(addresses[5] == tokenGiveGet[1]);\n        // Countercall type = call\n        require(howToCalls[1] == AuthenticatedProxy.HowToCall.Call);\n        // Assert countercalldata\n        require(ArrayUtils.arrayEq(counterdata, abi.encodeWithSignature(\"transferFrom(address,address,uint256)\", addresses[4], addresses[1], amountGiveGet[1])));\n\n        // Mark filled.\n        return 1;\n    }\n\n    function swapForever(bytes memory extra,\n        address[7] memory addresses, AuthenticatedProxy.HowToCall[2] memory howToCalls, uint[6] memory uints,\n        bytes memory data, bytes memory counterdata)\n        public\n        pure\n        returns (uint)\n    {\n        // Calculate function signature\n        bytes memory sig = ArrayUtils.arrayTake(abi.encodeWithSignature(\"transferFrom(address,address,uint256)\"), 4);\n\n        // Zero-value\n        require(uints[0] == 0);\n\n        // Decode extradata\n        (address[2] memory tokenGiveGet, uint[2] memory numeratorDenominator) = abi.decode(extra, (address[2], uint[2]));\n\n        // Call target = token to give\n        require(addresses[2] == tokenGiveGet[0]);\n        // Call type = call\n        require(howToCalls[0] == AuthenticatedProxy.HowToCall.Call);\n        // Check signature\n        require(ArrayUtils.arrayEq(sig, ArrayUtils.arrayTake(data, 4)));\n        // Decode calldata\n        (address callFrom, address callTo, uint256 amountGive) = abi.decode(ArrayUtils.arrayDrop(data, 4), (address, address, uint256));\n        // Assert from\n        require(callFrom == addresses[1]);\n        // Assert to\n        require(callTo == addresses[4]);\n\n        // Countercall target = token to get\n        require(addresses[5] == tokenGiveGet[1]);\n        // Countercall type = call\n        require(howToCalls[1] == AuthenticatedProxy.HowToCall.Call);\n        // Check signature\n        require(ArrayUtils.arrayEq(sig, ArrayUtils.arrayTake(counterdata, 4)));\n        // Decode countercalldata\n        (address countercallFrom, address countercallTo, uint256 amountGet) = abi.decode(ArrayUtils.arrayDrop(counterdata, 4), (address, address, uint256));\n        // Assert from\n        require(countercallFrom == addresses[4]);\n        // Assert to\n        require(countercallTo == addresses[1]);\n\n        // Assert ratio\n        // ratio = min get/give\n        require((amountGet * numeratorDenominator[1]) >= (amountGive * numeratorDenominator[0]));\n\n        // Order will be set with maximumFill = 2 (to allow signature caching)\n        return 1;\n    }\n\n\n}\n",
  "sourcePath": "/home/toor/nodejs/truffle/nft_demo/taureum/taureum-nft-protocol-sc/contracts/static/StaticERC20.sol",
  "compiler": {
    "name": "solc",
    "version": "0.8.4+commit.c7e474f2.Emscripten.clang"
  },
  "schemaVersion": "3.4.1",
  "updatedAt": "2021-09-02T04:22:11.772Z",
  "devdoc": {
    "kind": "dev",
    "methods": {},
    "version": 1
  },
  "userdoc": {
    "kind": "user",
    "methods": {},
    "version": 1
  }
}