{
  "contractName": "TaureumExchange",
  "abi": [
    {
      "inputs": [
        {
          "internalType": "contract ProxyRegistry",
          "name": "registryAddress",
          "type": "address"
        },
        {
          "internalType": "contract TokenTransferProxy",
          "name": "tokenTransferProxyAddress",
          "type": "address"
        },
        {
          "internalType": "contract ERC20",
          "name": "tokenAddress",
          "type": "address"
        },
        {
          "internalType": "address",
          "name": "protocolFeeAddress",
          "type": "address"
        }
      ],
      "stateMutability": "nonpayable",
      "type": "constructor"
    },
    {
      "anonymous": false,
      "inputs": [
        {
          "indexed": true,
          "internalType": "bytes32",
          "name": "hash",
          "type": "bytes32"
        },
        {
          "indexed": false,
          "internalType": "address",
          "name": "exchange",
          "type": "address"
        },
        {
          "indexed": true,
          "internalType": "address",
          "name": "maker",
          "type": "address"
        },
        {
          "indexed": false,
          "internalType": "address",
          "name": "taker",
          "type": "address"
        },
        {
          "indexed": false,
          "internalType": "uint256",
          "name": "makerRelayerFee",
          "type": "uint256"
        },
        {
          "indexed": false,
          "internalType": "uint256",
          "name": "takerRelayerFee",
          "type": "uint256"
        },
        {
          "indexed": false,
          "internalType": "uint256",
          "name": "makerProtocolFee",
          "type": "uint256"
        },
        {
          "indexed": false,
          "internalType": "uint256",
          "name": "takerProtocolFee",
          "type": "uint256"
        },
        {
          "indexed": true,
          "internalType": "address",
          "name": "feeRecipient",
          "type": "address"
        },
        {
          "indexed": false,
          "internalType": "enum ExchangeCore.FeeMethod",
          "name": "feeMethod",
          "type": "uint8"
        },
        {
          "indexed": false,
          "internalType": "enum SaleKindInterface.Side",
          "name": "side",
          "type": "uint8"
        },
        {
          "indexed": false,
          "internalType": "enum SaleKindInterface.SaleKind",
          "name": "saleKind",
          "type": "uint8"
        },
        {
          "indexed": false,
          "internalType": "address",
          "name": "target",
          "type": "address"
        }
      ],
      "name": "OrderApprovedPartOne",
      "type": "event"
    },
    {
      "anonymous": false,
      "inputs": [
        {
          "indexed": true,
          "internalType": "bytes32",
          "name": "hash",
          "type": "bytes32"
        },
        {
          "indexed": false,
          "internalType": "enum AuthenticatedProxy.HowToCall",
          "name": "howToCall",
          "type": "uint8"
        },
        {
          "indexed": false,
          "internalType": "bytes",
          "name": "callData",
          "type": "bytes"
        },
        {
          "indexed": false,
          "internalType": "bytes",
          "name": "replacementPattern",
          "type": "bytes"
        },
        {
          "indexed": false,
          "internalType": "address",
          "name": "staticTarget",
          "type": "address"
        },
        {
          "indexed": false,
          "internalType": "bytes",
          "name": "staticExtradata",
          "type": "bytes"
        },
        {
          "indexed": false,
          "internalType": "address",
          "name": "paymentToken",
          "type": "address"
        },
        {
          "indexed": false,
          "internalType": "uint256",
          "name": "basePrice",
          "type": "uint256"
        },
        {
          "indexed": false,
          "internalType": "uint256",
          "name": "extra",
          "type": "uint256"
        },
        {
          "indexed": false,
          "internalType": "uint256",
          "name": "listingTime",
          "type": "uint256"
        },
        {
          "indexed": false,
          "internalType": "uint256",
          "name": "expirationTime",
          "type": "uint256"
        },
        {
          "indexed": false,
          "internalType": "uint256",
          "name": "salt",
          "type": "uint256"
        },
        {
          "indexed": false,
          "internalType": "bool",
          "name": "orderbookInclusionDesired",
          "type": "bool"
        }
      ],
      "name": "OrderApprovedPartTwo",
      "type": "event"
    },
    {
      "anonymous": false,
      "inputs": [
        {
          "indexed": true,
          "internalType": "bytes32",
          "name": "hash",
          "type": "bytes32"
        }
      ],
      "name": "OrderCancelled",
      "type": "event"
    },
    {
      "anonymous": false,
      "inputs": [
        {
          "indexed": false,
          "internalType": "bytes32",
          "name": "buyHash",
          "type": "bytes32"
        },
        {
          "indexed": false,
          "internalType": "bytes32",
          "name": "sellHash",
          "type": "bytes32"
        },
        {
          "indexed": true,
          "internalType": "address",
          "name": "maker",
          "type": "address"
        },
        {
          "indexed": true,
          "internalType": "address",
          "name": "taker",
          "type": "address"
        },
        {
          "indexed": false,
          "internalType": "uint256",
          "name": "price",
          "type": "uint256"
        },
        {
          "indexed": true,
          "internalType": "bytes32",
          "name": "metadata",
          "type": "bytes32"
        }
      ],
      "name": "OrdersMatched",
      "type": "event"
    },
    {
      "anonymous": false,
      "inputs": [
        {
          "indexed": true,
          "internalType": "address",
          "name": "previousOwner",
          "type": "address"
        },
        {
          "indexed": true,
          "internalType": "address",
          "name": "newOwner",
          "type": "address"
        }
      ],
      "name": "OwnershipTransferred",
      "type": "event"
    },
    {
      "anonymous": false,
      "inputs": [
        {
          "indexed": false,
          "internalType": "address",
          "name": "oldTokenAddress",
          "type": "address"
        },
        {
          "indexed": false,
          "internalType": "address",
          "name": "newTokenAddress",
          "type": "address"
        }
      ],
      "name": "ProtocolTokenFeeChange",
      "type": "event"
    },
    {
      "inputs": [],
      "name": "INVERSE_BASIS_POINT",
      "outputs": [
        {
          "internalType": "uint256",
          "name": "",
          "type": "uint256"
        }
      ],
      "stateMutability": "view",
      "type": "function"
    },
    {
      "inputs": [
        {
          "internalType": "address[7]",
          "name": "addrs",
          "type": "address[7]"
        },
        {
          "internalType": "uint256[9]",
          "name": "uints",
          "type": "uint256[9]"
        },
        {
          "internalType": "enum ExchangeCore.FeeMethod",
          "name": "feeMethod",
          "type": "uint8"
        },
        {
          "internalType": "enum SaleKindInterface.Side",
          "name": "side",
          "type": "uint8"
        },
        {
          "internalType": "enum SaleKindInterface.SaleKind",
          "name": "saleKind",
          "type": "uint8"
        },
        {
          "internalType": "enum AuthenticatedProxy.HowToCall",
          "name": "howToCall",
          "type": "uint8"
        },
        {
          "internalType": "bytes",
          "name": "callData",
          "type": "bytes"
        },
        {
          "internalType": "bytes",
          "name": "replacementPattern",
          "type": "bytes"
        },
        {
          "internalType": "bytes",
          "name": "staticExtradata",
          "type": "bytes"
        },
        {
          "internalType": "bool",
          "name": "orderbookInclusionDesired",
          "type": "bool"
        }
      ],
      "name": "approveOrder_",
      "outputs": [],
      "stateMutability": "nonpayable",
      "type": "function"
    },
    {
      "inputs": [
        {
          "internalType": "bytes32",
          "name": "",
          "type": "bytes32"
        }
      ],
      "name": "approvedOrders",
      "outputs": [
        {
          "internalType": "bool",
          "name": "",
          "type": "bool"
        }
      ],
      "stateMutability": "view",
      "type": "function"
    },
    {
      "inputs": [
        {
          "internalType": "address[14]",
          "name": "addrs",
          "type": "address[14]"
        },
        {
          "internalType": "uint256[18]",
          "name": "uints",
          "type": "uint256[18]"
        },
        {
          "internalType": "uint8[8]",
          "name": "feeMethodsSidesKindsHowToCalls",
          "type": "uint8[8]"
        },
        {
          "internalType": "bytes",
          "name": "callDataBuy",
          "type": "bytes"
        },
        {
          "internalType": "bytes",
          "name": "callDataSell",
          "type": "bytes"
        },
        {
          "internalType": "bytes",
          "name": "replacementPatternBuy",
          "type": "bytes"
        },
        {
          "internalType": "bytes",
          "name": "replacementPatternSell",
          "type": "bytes"
        },
        {
          "internalType": "bytes",
          "name": "staticExtradataBuy",
          "type": "bytes"
        },
        {
          "internalType": "bytes",
          "name": "staticExtradataSell",
          "type": "bytes"
        },
        {
          "internalType": "uint8[2]",
          "name": "vs",
          "type": "uint8[2]"
        },
        {
          "internalType": "bytes32[5]",
          "name": "rssMetadata",
          "type": "bytes32[5]"
        }
      ],
      "name": "atomicMatch_",
      "outputs": [],
      "stateMutability": "payable",
      "type": "function"
    },
    {
      "inputs": [
        {
          "internalType": "address[7]",
          "name": "addrs",
          "type": "address[7]"
        },
        {
          "internalType": "uint256[9]",
          "name": "uints",
          "type": "uint256[9]"
        },
        {
          "internalType": "enum ExchangeCore.FeeMethod",
          "name": "feeMethod",
          "type": "uint8"
        },
        {
          "internalType": "enum SaleKindInterface.Side",
          "name": "side",
          "type": "uint8"
        },
        {
          "internalType": "enum SaleKindInterface.SaleKind",
          "name": "saleKind",
          "type": "uint8"
        },
        {
          "internalType": "enum AuthenticatedProxy.HowToCall",
          "name": "howToCall",
          "type": "uint8"
        },
        {
          "internalType": "bytes",
          "name": "callData",
          "type": "bytes"
        },
        {
          "internalType": "bytes",
          "name": "replacementPattern",
          "type": "bytes"
        },
        {
          "internalType": "bytes",
          "name": "staticExtradata",
          "type": "bytes"
        }
      ],
      "name": "calculateCurrentPrice_",
      "outputs": [
        {
          "internalType": "uint256",
          "name": "",
          "type": "uint256"
        }
      ],
      "stateMutability": "view",
      "type": "function"
    },
    {
      "inputs": [
        {
          "internalType": "address[14]",
          "name": "addrs",
          "type": "address[14]"
        },
        {
          "internalType": "uint256[18]",
          "name": "uints",
          "type": "uint256[18]"
        },
        {
          "internalType": "uint8[8]",
          "name": "feeMethodsSidesKindsHowToCalls",
          "type": "uint8[8]"
        },
        {
          "internalType": "bytes",
          "name": "callDataBuy",
          "type": "bytes"
        },
        {
          "internalType": "bytes",
          "name": "callDataSell",
          "type": "bytes"
        },
        {
          "internalType": "bytes",
          "name": "replacementPatternBuy",
          "type": "bytes"
        },
        {
          "internalType": "bytes",
          "name": "replacementPatternSell",
          "type": "bytes"
        },
        {
          "internalType": "bytes",
          "name": "staticExtradataBuy",
          "type": "bytes"
        },
        {
          "internalType": "bytes",
          "name": "staticExtradataSell",
          "type": "bytes"
        }
      ],
      "name": "calculateMatchPrice_",
      "outputs": [
        {
          "internalType": "uint256",
          "name": "",
          "type": "uint256"
        }
      ],
      "stateMutability": "view",
      "type": "function"
    },
    {
      "inputs": [
        {
          "internalType": "address[7]",
          "name": "addrs",
          "type": "address[7]"
        },
        {
          "internalType": "uint256[9]",
          "name": "uints",
          "type": "uint256[9]"
        },
        {
          "internalType": "enum ExchangeCore.FeeMethod",
          "name": "feeMethod",
          "type": "uint8"
        },
        {
          "internalType": "enum SaleKindInterface.Side",
          "name": "side",
          "type": "uint8"
        },
        {
          "internalType": "enum SaleKindInterface.SaleKind",
          "name": "saleKind",
          "type": "uint8"
        },
        {
          "internalType": "enum AuthenticatedProxy.HowToCall",
          "name": "howToCall",
          "type": "uint8"
        },
        {
          "internalType": "bytes",
          "name": "callData",
          "type": "bytes"
        },
        {
          "internalType": "bytes",
          "name": "replacementPattern",
          "type": "bytes"
        },
        {
          "internalType": "bytes",
          "name": "staticExtradata",
          "type": "bytes"
        },
        {
          "internalType": "uint8",
          "name": "v",
          "type": "uint8"
        },
        {
          "internalType": "bytes32",
          "name": "r",
          "type": "bytes32"
        },
        {
          "internalType": "bytes32",
          "name": "s",
          "type": "bytes32"
        }
      ],
      "name": "cancelOrder_",
      "outputs": [],
      "stateMutability": "nonpayable",
      "type": "function"
    },
    {
      "inputs": [
        {
          "internalType": "bytes32",
          "name": "",
          "type": "bytes32"
        }
      ],
      "name": "cancelledOrFinalized",
      "outputs": [
        {
          "internalType": "bool",
          "name": "",
          "type": "bool"
        }
      ],
      "stateMutability": "view",
      "type": "function"
    },
    {
      "inputs": [
        {
          "internalType": "uint256",
          "name": "newMinimumMakerProtocolFee",
          "type": "uint256"
        }
      ],
      "name": "changeMinimumMakerProtocolFee",
      "outputs": [],
      "stateMutability": "nonpayable",
      "type": "function"
    },
    {
      "inputs": [
        {
          "internalType": "uint256",
          "name": "newMinimumTakerProtocolFee",
          "type": "uint256"
        }
      ],
      "name": "changeMinimumTakerProtocolFee",
      "outputs": [],
      "stateMutability": "nonpayable",
      "type": "function"
    },
    {
      "inputs": [
        {
          "internalType": "address",
          "name": "newProtocolFeeRecipient",
          "type": "address"
        }
      ],
      "name": "changeProtocolFeeRecipient",
      "outputs": [],
      "stateMutability": "nonpayable",
      "type": "function"
    },
    {
      "inputs": [
        {
          "internalType": "address",
          "name": "newTokenAddress",
          "type": "address"
        }
      ],
      "name": "changeProtocolFeeTokenAddress",
      "outputs": [],
      "stateMutability": "nonpayable",
      "type": "function"
    },
    {
      "inputs": [],
      "name": "codename",
      "outputs": [
        {
          "internalType": "string",
          "name": "",
          "type": "string"
        }
      ],
      "stateMutability": "view",
      "type": "function"
    },
    {
      "inputs": [],
      "name": "exchangeToken",
      "outputs": [
        {
          "internalType": "contract ERC20",
          "name": "",
          "type": "address"
        }
      ],
      "stateMutability": "view",
      "type": "function"
    },
    {
      "inputs": [
        {
          "internalType": "address[7]",
          "name": "addrs",
          "type": "address[7]"
        },
        {
          "internalType": "uint256[9]",
          "name": "uints",
          "type": "uint256[9]"
        },
        {
          "internalType": "enum ExchangeCore.FeeMethod",
          "name": "feeMethod",
          "type": "uint8"
        },
        {
          "internalType": "enum SaleKindInterface.Side",
          "name": "side",
          "type": "uint8"
        },
        {
          "internalType": "enum SaleKindInterface.SaleKind",
          "name": "saleKind",
          "type": "uint8"
        },
        {
          "internalType": "enum AuthenticatedProxy.HowToCall",
          "name": "howToCall",
          "type": "uint8"
        },
        {
          "internalType": "bytes",
          "name": "callData",
          "type": "bytes"
        },
        {
          "internalType": "bytes",
          "name": "replacementPattern",
          "type": "bytes"
        },
        {
          "internalType": "bytes",
          "name": "staticExtradata",
          "type": "bytes"
        }
      ],
      "name": "hashOrder_",
      "outputs": [
        {
          "internalType": "bytes32",
          "name": "",
          "type": "bytes32"
        }
      ],
      "stateMutability": "pure",
      "type": "function"
    },
    {
      "inputs": [
        {
          "internalType": "address[7]",
          "name": "addrs",
          "type": "address[7]"
        },
        {
          "internalType": "uint256[9]",
          "name": "uints",
          "type": "uint256[9]"
        },
        {
          "internalType": "enum ExchangeCore.FeeMethod",
          "name": "feeMethod",
          "type": "uint8"
        },
        {
          "internalType": "enum SaleKindInterface.Side",
          "name": "side",
          "type": "uint8"
        },
        {
          "internalType": "enum SaleKindInterface.SaleKind",
          "name": "saleKind",
          "type": "uint8"
        },
        {
          "internalType": "enum AuthenticatedProxy.HowToCall",
          "name": "howToCall",
          "type": "uint8"
        },
        {
          "internalType": "bytes",
          "name": "callData",
          "type": "bytes"
        },
        {
          "internalType": "bytes",
          "name": "replacementPattern",
          "type": "bytes"
        },
        {
          "internalType": "bytes",
          "name": "staticExtradata",
          "type": "bytes"
        }
      ],
      "name": "hashToSign_",
      "outputs": [
        {
          "internalType": "bytes32",
          "name": "",
          "type": "bytes32"
        }
      ],
      "stateMutability": "pure",
      "type": "function"
    },
    {
      "inputs": [],
      "name": "minimumMakerProtocolFee",
      "outputs": [
        {
          "internalType": "uint256",
          "name": "",
          "type": "uint256"
        }
      ],
      "stateMutability": "view",
      "type": "function"
    },
    {
      "inputs": [],
      "name": "minimumTakerProtocolFee",
      "outputs": [
        {
          "internalType": "uint256",
          "name": "",
          "type": "uint256"
        }
      ],
      "stateMutability": "view",
      "type": "function"
    },
    {
      "inputs": [],
      "name": "name",
      "outputs": [
        {
          "internalType": "string",
          "name": "",
          "type": "string"
        }
      ],
      "stateMutability": "view",
      "type": "function"
    },
    {
      "inputs": [],
      "name": "owner",
      "outputs": [
        {
          "internalType": "address",
          "name": "",
          "type": "address"
        }
      ],
      "stateMutability": "view",
      "type": "function"
    },
    {
      "inputs": [],
      "name": "protocolFeeRecipient",
      "outputs": [
        {
          "internalType": "address",
          "name": "",
          "type": "address"
        }
      ],
      "stateMutability": "view",
      "type": "function"
    },
    {
      "inputs": [],
      "name": "registry",
      "outputs": [
        {
          "internalType": "contract ProxyRegistry",
          "name": "",
          "type": "address"
        }
      ],
      "stateMutability": "view",
      "type": "function"
    },
    {
      "inputs": [],
      "name": "renounceOwnership",
      "outputs": [],
      "stateMutability": "nonpayable",
      "type": "function"
    },
    {
      "inputs": [
        {
          "internalType": "address",
          "name": "target",
          "type": "address"
        },
        {
          "internalType": "bytes",
          "name": "callData",
          "type": "bytes"
        },
        {
          "internalType": "bytes",
          "name": "extradata",
          "type": "bytes"
        }
      ],
      "name": "staticCall",
      "outputs": [
        {
          "internalType": "bool",
          "name": "result",
          "type": "bool"
        }
      ],
      "stateMutability": "view",
      "type": "function"
    },
    {
      "inputs": [],
      "name": "tokenTransferProxy",
      "outputs": [
        {
          "internalType": "contract TokenTransferProxy",
          "name": "",
          "type": "address"
        }
      ],
      "stateMutability": "view",
      "type": "function"
    },
    {
      "inputs": [
        {
          "internalType": "address",
          "name": "newOwner",
          "type": "address"
        }
      ],
      "name": "transferOwnership",
      "outputs": [],
      "stateMutability": "nonpayable",
      "type": "function"
    },
    {
      "inputs": [
        {
          "internalType": "address[7]",
          "name": "addrs",
          "type": "address[7]"
        },
        {
          "internalType": "uint256[9]",
          "name": "uints",
          "type": "uint256[9]"
        },
        {
          "internalType": "enum ExchangeCore.FeeMethod",
          "name": "feeMethod",
          "type": "uint8"
        },
        {
          "internalType": "enum SaleKindInterface.Side",
          "name": "side",
          "type": "uint8"
        },
        {
          "internalType": "enum SaleKindInterface.SaleKind",
          "name": "saleKind",
          "type": "uint8"
        },
        {
          "internalType": "enum AuthenticatedProxy.HowToCall",
          "name": "howToCall",
          "type": "uint8"
        },
        {
          "internalType": "bytes",
          "name": "callData",
          "type": "bytes"
        },
        {
          "internalType": "bytes",
          "name": "replacementPattern",
          "type": "bytes"
        },
        {
          "internalType": "bytes",
          "name": "staticExtradata",
          "type": "bytes"
        }
      ],
      "name": "validateOrderParameters_",
      "outputs": [
        {
          "internalType": "bool",
          "name": "",
          "type": "bool"
        }
      ],
      "stateMutability": "view",
      "type": "function"
    },
    {
      "inputs": [
        {
          "internalType": "address[7]",
          "name": "addrs",
          "type": "address[7]"
        },
        {
          "internalType": "uint256[9]",
          "name": "uints",
          "type": "uint256[9]"
        },
        {
          "internalType": "enum ExchangeCore.FeeMethod",
          "name": "feeMethod",
          "type": "uint8"
        },
        {
          "internalType": "enum SaleKindInterface.Side",
          "name": "side",
          "type": "uint8"
        },
        {
          "internalType": "enum SaleKindInterface.SaleKind",
          "name": "saleKind",
          "type": "uint8"
        },
        {
          "internalType": "enum AuthenticatedProxy.HowToCall",
          "name": "howToCall",
          "type": "uint8"
        },
        {
          "internalType": "bytes",
          "name": "callData",
          "type": "bytes"
        },
        {
          "internalType": "bytes",
          "name": "replacementPattern",
          "type": "bytes"
        },
        {
          "internalType": "bytes",
          "name": "staticExtradata",
          "type": "bytes"
        },
        {
          "internalType": "uint8",
          "name": "v",
          "type": "uint8"
        },
        {
          "internalType": "bytes32",
          "name": "r",
          "type": "bytes32"
        },
        {
          "internalType": "bytes32",
          "name": "s",
          "type": "bytes32"
        }
      ],
      "name": "validateOrder_",
      "outputs": [
        {
          "internalType": "bool",
          "name": "",
          "type": "bool"
        }
      ],
      "stateMutability": "view",
      "type": "function"
    },
    {
      "inputs": [],
      "name": "version",
      "outputs": [
        {
          "internalType": "string",
          "name": "",
          "type": "string"
        }
      ],
      "stateMutability": "view",
      "type": "function"
    }
  ],
  "bytecode": "0x60806040526000805460ff1916815560068190556007553480156200002357600080fd5b5060405162005db838038062005db88339810160408190526200004691620000e2565b60008054610100600160a81b031916336101008102919091178255604051909182917f8be0079c531659141344cd1fd0a4f28419497f9722a3daafe3b4186f6b6457e0908290a350600280546001600160a01b039586166001600160a01b031991821617909155600380549486169482169490941790935560018054928516928416929092179091556008805491909316911617905562000162565b60008060008060808587031215620000f8578384fd5b8451620001058162000149565b6020860151909450620001188162000149565b60408601519093506200012b8162000149565b60608601519092506200013e8162000149565b939692955090935050565b6001600160a01b03811681146200015f57600080fd5b50565b615c4680620001726000396000f3fe6080604052600436106101c25760003560e01c806371d02b38116100f7578063a25eb5d911610095578063cae6047f11610064578063cae6047f1461055e578063d537e13114610574578063e57d4adb14610594578063f2fde38b146105c457600080fd5b8063a25eb5d9146104eb578063a8a41c701461050b578063ab834bab1461052b578063ca595b9a1461053e57600080fd5b80637ccefc52116100d15780637ccefc52146104625780637d766981146104785780638076f005146104985780638da5cb5b146104c857600080fd5b806371d02b381461040257806379666868146104225780637b1039991461044257600080fd5b80633f67ee0d116101645780635ef527e41161013e5780635ef527e41461038d57806360bef33a146103ad57806364df049e146103cd578063715018a6146103ed57600080fd5b80633f67ee0d1461031e578063514f03301461033e57806354fd4d501461035e57600080fd5b806314350c24116101a057806314350c24146102815780631a6b13e2146102a357806328a8ee68146102c357806331e63199146102e757600080fd5b806306fdde03146101c75780630eefdbad1461021957806310796a4714610251575b600080fd5b3480156101d357600080fd5b506102036040518060400160405280601081526020016f5461757265756d2045786368616e676560801b81525081565b6040516102109190615acf565b60405180910390f35b34801561022557600080fd5b50600354610239906001600160a01b031681565b6040516001600160a01b039091168152602001610210565b34801561025d57600080fd5b5061027161026c36600461530c565b6105e4565b6040519015158152602001610210565b34801561028d57600080fd5b506102a161029c366004615921565b61067c565b005b3480156102af57600080fd5b506102a16102be366004615921565b6106ba565b3480156102cf57600080fd5b506102d960075481565b604051908152602001610210565b3480156102f357600080fd5b506102036040518060400160405280600b81526020016a5461757265756d4265746160a81b81525081565b34801561032a57600080fd5b506102d9610339366004615607565b6106ef565b34801561034a57600080fd5b506102a16103593660046152d4565b610a47565b34801561036a57600080fd5b5061020360405180604001604052806003815260200162302e3160e81b81525081565b34801561039957600080fd5b506102a16103a83660046152d4565b610a99565b3480156103b957600080fd5b506102716103c83660046157dc565b610b2a565b3480156103d957600080fd5b50600854610239906001600160a01b031681565b3480156103f957600080fd5b506102a1610ed5565b34801561040e57600080fd5b506102d961041d366004615607565b610f54565b34801561042e57600080fd5b506102a161043d3660046156da565b61129e565b34801561044e57600080fd5b50600254610239906001600160a01b031681565b34801561046e57600080fd5b506102d960065481565b34801561048457600080fd5b506102d9610493366004615607565b6115f9565b3480156104a457600080fd5b506102716104b3366004615921565b60046020526000908152604090205460ff1681565b3480156104d457600080fd5b5060005461010090046001600160a01b0316610239565b3480156104f757600080fd5b50600154610239906001600160a01b031681565b34801561051757600080fd5b506102a16105263660046157dc565b611943565b6102a16105393660046154a9565b611cd9565b34801561054a57600080fd5b50610271610559366004615607565b6125aa565b34801561056a57600080fd5b506102d961271081565b34801561058057600080fd5b506102d961058f36600461537e565b612907565b3480156105a057600080fd5b506102716105af366004615921565b60056020526000908152604090205460ff1681565b3480156105d057600080fd5b506102a16105df3660046152d4565b61310c565b600080825184516105f59190615b17565b6001600160401b0381111561061a57634e487b7160e01b600052604160045260246000fd5b6040519080825280601f01601f191660200182016040528015610644576020820181803683370190505b509050602081016106558185613207565b90506106618186613207565b506000604051835160208501895afa925050505b9392505050565b6000546001600160a01b036101009091041633146106b55760405162461bcd60e51b81526004016106ac90615ae2565b60405180910390fd5b600655565b6000546001600160a01b036101009091041633146106ea5760405162461bcd60e51b81526004016106ac90615ae2565b600755565b6000610a39604051806102e001604052808c60006007811061072157634e487b7160e01b600052603260045260246000fd5b60200201516001600160a01b031681526020018c60016007811061075557634e487b7160e01b600052603260045260246000fd5b60200201516001600160a01b031681526020018c60026007811061078957634e487b7160e01b600052603260045260246000fd5b60200201516001600160a01b031681526020018b6000600981106107bd57634e487b7160e01b600052603260045260246000fd5b602002015181526020018b6001600981106107e857634e487b7160e01b600052603260045260246000fd5b602002015181526020018b60026009811061081357634e487b7160e01b600052603260045260246000fd5b602002015181526020018b60036009811061083e57634e487b7160e01b600052603260045260246000fd5b602002015181526020018c60036007811061086957634e487b7160e01b600052603260045260246000fd5b60200201516001600160a01b031681526020018a600181111561089c57634e487b7160e01b600052602160045260246000fd5b81526020018960018111156108c157634e487b7160e01b600052602160045260246000fd5b81526020018860018111156108e657634e487b7160e01b600052602160045260246000fd5b815260808d01516001600160a01b0316602082015260400187600181111561091e57634e487b7160e01b600052602160045260246000fd5b8152602081018790526040810186905260a0808e01516001600160a01b0316606083015260808201869052018c600660200201516001600160a01b031681526020018b60046009811061098157634e487b7160e01b600052603260045260246000fd5b602002015181526020018b6005600981106109ac57634e487b7160e01b600052603260045260246000fd5b602002015181526020018b6006600981106109d757634e487b7160e01b600052603260045260246000fd5b602002015181526020018b600760098110610a0257634e487b7160e01b600052603260045260246000fd5b602002015181526020018b600860098110610a2d57634e487b7160e01b600052603260045260246000fd5b6020020151905261324a565b9a9950505050505050505050565b6000546001600160a01b03610100909104163314610a775760405162461bcd60e51b81526004016106ac90615ae2565b600880546001600160a01b0319166001600160a01b0392909216919091179055565b6000546001600160a01b03610100909104163314610ac95760405162461bcd60e51b81526004016106ac90615ae2565b600180546001600160a01b038381166001600160a01b031983168117909355604080519190921680825260208201939093527f114cfa1c61a2b039de4a4dd89821f0664d2a5dc26f70a270c615a9d14fd40632910160405180910390a15050565b600080604051806102e001604052808f600060078110610b5a57634e487b7160e01b600052603260045260246000fd5b60200201516001600160a01b031681526020018f600160078110610b8e57634e487b7160e01b600052603260045260246000fd5b60200201516001600160a01b031681526020018f600260078110610bc257634e487b7160e01b600052603260045260246000fd5b60200201516001600160a01b031681526020018e600060098110610bf657634e487b7160e01b600052603260045260246000fd5b602002015181526020018e600160098110610c2157634e487b7160e01b600052603260045260246000fd5b602002015181526020018e600260098110610c4c57634e487b7160e01b600052603260045260246000fd5b602002015181526020018e600360098110610c7757634e487b7160e01b600052603260045260246000fd5b602002015181526020018f600360078110610ca257634e487b7160e01b600052603260045260246000fd5b60200201516001600160a01b031681526020018d6001811115610cd557634e487b7160e01b600052602160045260246000fd5b81526020018c6001811115610cfa57634e487b7160e01b600052602160045260246000fd5b81526020018b6001811115610d1f57634e487b7160e01b600052602160045260246000fd5b81526020018f600460200201516001600160a01b031681526020018a6001811115610d5a57634e487b7160e01b600052602160045260246000fd5b8152602081018a9052604081018990526060018f600560200201516001600160a01b031681526020018781526020018f600660078110610daa57634e487b7160e01b600052603260045260246000fd5b60200201516001600160a01b031681526020018e600460098110610dde57634e487b7160e01b600052603260045260246000fd5b602002015181526020018e600560098110610e0957634e487b7160e01b600052603260045260246000fd5b602002015181526020018e600660098110610e3457634e487b7160e01b600052603260045260246000fd5b602002015181526020018e600760098110610e5f57634e487b7160e01b600052603260045260246000fd5b602002015181526020018e600860098110610e8a57634e487b7160e01b600052603260045260246000fd5b602002015190529050610ec3610e9f8261327e565b8260405180606001604052808960ff168152602001888152602001878152506132da565b9e9d5050505050505050505050505050565b6000546001600160a01b03610100909104163314610f055760405162461bcd60e51b81526004016106ac90615ae2565b600080546040516101009091046001600160a01b0316907f8be0079c531659141344cd1fd0a4f28419497f9722a3daafe3b4186f6b6457e0908390a360008054610100600160a81b0319169055565b6000610a39604051806102e001604052808c600060078110610f8657634e487b7160e01b600052603260045260246000fd5b60200201516001600160a01b031681526020018c600160078110610fba57634e487b7160e01b600052603260045260246000fd5b60200201516001600160a01b031681526020018c600260078110610fee57634e487b7160e01b600052603260045260246000fd5b60200201516001600160a01b031681526020018b60006009811061102257634e487b7160e01b600052603260045260246000fd5b602002015181526020018b60016009811061104d57634e487b7160e01b600052603260045260246000fd5b602002015181526020018b60026009811061107857634e487b7160e01b600052603260045260246000fd5b602002015181526020018b6003600981106110a357634e487b7160e01b600052603260045260246000fd5b602002015181526020018c6003600781106110ce57634e487b7160e01b600052603260045260246000fd5b60200201516001600160a01b031681526020018a600181111561110157634e487b7160e01b600052602160045260246000fd5b815260200189600181111561112657634e487b7160e01b600052602160045260246000fd5b815260200188600181111561114b57634e487b7160e01b600052602160045260246000fd5b815260808d01516001600160a01b0316602082015260400187600181111561118357634e487b7160e01b600052602160045260246000fd5b8152602081018790526040810186905260a0808e01516001600160a01b0316606083015260808201869052018c600660200201516001600160a01b031681526020018b6004600981106111e657634e487b7160e01b600052603260045260246000fd5b602002015181526020018b60056009811061121157634e487b7160e01b600052603260045260246000fd5b602002015181526020018b60066009811061123c57634e487b7160e01b600052603260045260246000fd5b602002015181526020018b60076009811061126757634e487b7160e01b600052603260045260246000fd5b602002015181526020018b60086009811061129257634e487b7160e01b600052603260045260246000fd5b602002015190526133c0565b6000604051806102e001604052808c6000600781106112cd57634e487b7160e01b600052603260045260246000fd5b60200201516001600160a01b031681526020018c60016007811061130157634e487b7160e01b600052603260045260246000fd5b60200201516001600160a01b031681526020018c60026007811061133557634e487b7160e01b600052603260045260246000fd5b60200201516001600160a01b031681526020018b60006009811061136957634e487b7160e01b600052603260045260246000fd5b602002015181526020018b60016009811061139457634e487b7160e01b600052603260045260246000fd5b602002015181526020018b6002600981106113bf57634e487b7160e01b600052603260045260246000fd5b602002015181526020018b6003600981106113ea57634e487b7160e01b600052603260045260246000fd5b602002015181526020018c60036007811061141557634e487b7160e01b600052603260045260246000fd5b60200201516001600160a01b031681526020018a600181111561144857634e487b7160e01b600052602160045260246000fd5b815260200189600181111561146d57634e487b7160e01b600052602160045260246000fd5b815260200188600181111561149257634e487b7160e01b600052602160045260246000fd5b815260808d01516001600160a01b031660208201526040018760018111156114ca57634e487b7160e01b600052602160045260246000fd5b8152602081018790526040810186905260a0808e01516001600160a01b0316606083015260808201869052018c600660200201516001600160a01b031681526020018b60046009811061152d57634e487b7160e01b600052603260045260246000fd5b602002015181526020018b60056009811061155857634e487b7160e01b600052603260045260246000fd5b602002015181526020018b60066009811061158357634e487b7160e01b600052603260045260246000fd5b602002015181526020018b6007600981106115ae57634e487b7160e01b600052603260045260246000fd5b602002015181526020018b6008600981106115d957634e487b7160e01b600052603260045260246000fd5b6020020151905290506115ec81836135f1565b5050505050505050505050565b6000610a39604051806102e001604052808c60006007811061162b57634e487b7160e01b600052603260045260246000fd5b60200201516001600160a01b031681526020018c60016007811061165f57634e487b7160e01b600052603260045260246000fd5b60200201516001600160a01b031681526020018c60026007811061169357634e487b7160e01b600052603260045260246000fd5b60200201516001600160a01b031681526020018b6000600981106116c757634e487b7160e01b600052603260045260246000fd5b602002015181526020018b6001600981106116f257634e487b7160e01b600052603260045260246000fd5b602002015181526020018b60026009811061171d57634e487b7160e01b600052603260045260246000fd5b602002015181526020018b60036009811061174857634e487b7160e01b600052603260045260246000fd5b602002015181526020018c60036007811061177357634e487b7160e01b600052603260045260246000fd5b60200201516001600160a01b031681526020018a60018111156117a657634e487b7160e01b600052602160045260246000fd5b81526020018960018111156117cb57634e487b7160e01b600052602160045260246000fd5b81526020018860018111156117f057634e487b7160e01b600052602160045260246000fd5b815260808d01516001600160a01b0316602082015260400187600181111561182857634e487b7160e01b600052602160045260246000fd5b8152602081018790526040810186905260a0808e01516001600160a01b0316606083015260808201869052018c600660200201516001600160a01b031681526020018b60046009811061188b57634e487b7160e01b600052603260045260246000fd5b602002015181526020018b6005600981106118b657634e487b7160e01b600052603260045260246000fd5b602002015181526020018b6006600981106118e157634e487b7160e01b600052603260045260246000fd5b602002015181526020018b60076009811061190c57634e487b7160e01b600052603260045260246000fd5b602002015181526020018b60086009811061193757634e487b7160e01b600052603260045260246000fd5b6020020151905261327e565b611ccb604051806102e001604052808e60006007811061197357634e487b7160e01b600052603260045260246000fd5b60200201516001600160a01b031681526020018e6001600781106119a757634e487b7160e01b600052603260045260246000fd5b60200201516001600160a01b031681526020018e6002600781106119db57634e487b7160e01b600052603260045260246000fd5b60200201516001600160a01b031681526020018d600060098110611a0f57634e487b7160e01b600052603260045260246000fd5b602002015181526020018d600160098110611a3a57634e487b7160e01b600052603260045260246000fd5b602002015181526020018d600260098110611a6557634e487b7160e01b600052603260045260246000fd5b602002015181526020018d600360098110611a9057634e487b7160e01b600052603260045260246000fd5b602002015181526020018e600360078110611abb57634e487b7160e01b600052603260045260246000fd5b60200201516001600160a01b031681526020018c6001811115611aee57634e487b7160e01b600052602160045260246000fd5b81526020018b6001811115611b1357634e487b7160e01b600052602160045260246000fd5b81526020018a6001811115611b3857634e487b7160e01b600052602160045260246000fd5b815260808f01516001600160a01b03166020820152604001896001811115611b7057634e487b7160e01b600052602160045260246000fd5b815260208101899052604081018890526060018e600560200201516001600160a01b031681526020018681526020018e600660078110611bc057634e487b7160e01b600052603260045260246000fd5b60200201516001600160a01b031681526020018d600460098110611bf457634e487b7160e01b600052603260045260246000fd5b602002015181526020018d600560098110611c1f57634e487b7160e01b600052603260045260246000fd5b602002015181526020018d600660098110611c4a57634e487b7160e01b600052603260045260246000fd5b602002015181526020018d600760098110611c7557634e487b7160e01b600052603260045260246000fd5b602002015181526020018d600860098110611ca057634e487b7160e01b600052603260045260246000fd5b602002015181525060405180606001604052808660ff16815260200185815260200184815250613785565b505050505050505050505050565b6115ec604051806102e001604052808d6000600e8110611d0957634e487b7160e01b600052603260045260246000fd5b60200201516001600160a01b031681526020018d6001600e8110611d3d57634e487b7160e01b600052603260045260246000fd5b60200201516001600160a01b031681526020018d6002600e8110611d7157634e487b7160e01b600052603260045260246000fd5b60200201516001600160a01b031681526020018c600060128110611da557634e487b7160e01b600052603260045260246000fd5b602002015181526020018c600160128110611dd057634e487b7160e01b600052603260045260246000fd5b602002015181526020018c600260128110611dfb57634e487b7160e01b600052603260045260246000fd5b602002015181526020018c600360128110611e2657634e487b7160e01b600052603260045260246000fd5b602002015181526020018d6003600e8110611e5157634e487b7160e01b600052603260045260246000fd5b60200201516001600160a01b031681526020018b600060088110611e8557634e487b7160e01b600052603260045260246000fd5b602002015160ff166001811115611eac57634e487b7160e01b600052602160045260246000fd5b6001811115611ecb57634e487b7160e01b600052602160045260246000fd5b81526020018b6001602002015160ff166001811115611efa57634e487b7160e01b600052602160045260246000fd5b6001811115611f1957634e487b7160e01b600052602160045260246000fd5b81526020018b6002602002015160ff166001811115611f4857634e487b7160e01b600052602160045260246000fd5b6001811115611f6757634e487b7160e01b600052602160045260246000fd5b815260808e01516001600160a01b031660208201526040018b6003602002015160ff166001811115611fa957634e487b7160e01b600052602160045260246000fd5b6001811115611fc857634e487b7160e01b600052602160045260246000fd5b8152602081018b90526040810189905260a0808f01516001600160a01b0316606083015260808201889052018d600660200201516001600160a01b031681526020018c60046012811061202b57634e487b7160e01b600052603260045260246000fd5b602002015181526020018c60056012811061205657634e487b7160e01b600052603260045260246000fd5b602002015181526020018c60066012811061208157634e487b7160e01b600052603260045260246000fd5b602002015181526020018c6007601281106120ac57634e487b7160e01b600052603260045260246000fd5b602002015181526020018c6008601281106120d757634e487b7160e01b600052603260045260246000fd5b6020908102919091015190915260408051606081018252865160ff168152855192810192909252810184600160200201519052604080516102e08101909152808f600760200201516001600160a01b031681526020018f6008600e811061214e57634e487b7160e01b600052603260045260246000fd5b60200201516001600160a01b031681526020018f6009600e811061218257634e487b7160e01b600052603260045260246000fd5b60200201516001600160a01b031681526020018e6009601281106121b657634e487b7160e01b600052603260045260246000fd5b602002015181526020018e600a601281106121e157634e487b7160e01b600052603260045260246000fd5b602002015181526020018e600b6012811061220c57634e487b7160e01b600052603260045260246000fd5b602002015181526020018e600c6012811061223757634e487b7160e01b600052603260045260246000fd5b602002015181526020018f600a600e811061226257634e487b7160e01b600052603260045260246000fd5b60200201516001600160a01b031681526020018d60046008811061229657634e487b7160e01b600052603260045260246000fd5b602002015160ff1660018111156122bd57634e487b7160e01b600052602160045260246000fd5b60018111156122dc57634e487b7160e01b600052602160045260246000fd5b81526020018d6005602002015160ff16600181111561230b57634e487b7160e01b600052602160045260246000fd5b600181111561232a57634e487b7160e01b600052602160045260246000fd5b81526020018d6006602002015160ff16600181111561235957634e487b7160e01b600052602160045260246000fd5b600181111561237857634e487b7160e01b600052602160045260246000fd5b81526020018f600b60200201516001600160a01b031681526020018d6007600881106123b457634e487b7160e01b600052603260045260246000fd5b602002015160ff1660018111156123db57634e487b7160e01b600052602160045260246000fd5b60018111156123fa57634e487b7160e01b600052602160045260246000fd5b8152602081018c9052604081018a90526060018f600c60200201516001600160a01b031681526020018781526020018f600d600e811061244a57634e487b7160e01b600052603260045260246000fd5b60200201516001600160a01b031681526020018e600d6012811061247e57634e487b7160e01b600052603260045260246000fd5b602002015181526020018e600e601281106124a957634e487b7160e01b600052603260045260246000fd5b602002015181526020018e600f601281106124d457634e487b7160e01b600052603260045260246000fd5b602002015181526020018e6010601281106124ff57634e487b7160e01b600052603260045260246000fd5b602002015181526020018e60116012811061252a57634e487b7160e01b600052603260045260246000fd5b60200201519052604080516060810190915280876001602002015160ff1681526020018660026005811061256e57634e487b7160e01b600052603260045260246000fd5b602002015181526020018660036005811061259957634e487b7160e01b600052603260045260246000fd5b60200201519052608086015161382e565b600080604051806102e001604052808c6000600781106125da57634e487b7160e01b600052603260045260246000fd5b60200201516001600160a01b031681526020018c60016007811061260e57634e487b7160e01b600052603260045260246000fd5b60200201516001600160a01b031681526020018c60026007811061264257634e487b7160e01b600052603260045260246000fd5b60200201516001600160a01b031681526020018b60006009811061267657634e487b7160e01b600052603260045260246000fd5b602002015181526020018b6001600981106126a157634e487b7160e01b600052603260045260246000fd5b602002015181526020018b6002600981106126cc57634e487b7160e01b600052603260045260246000fd5b602002015181526020018b6003600981106126f757634e487b7160e01b600052603260045260246000fd5b602002015181526020018c60036007811061272257634e487b7160e01b600052603260045260246000fd5b60200201516001600160a01b031681526020018a600181111561275557634e487b7160e01b600052602160045260246000fd5b815260200189600181111561277a57634e487b7160e01b600052602160045260246000fd5b815260200188600181111561279f57634e487b7160e01b600052602160045260246000fd5b815260808d01516001600160a01b031660208201526040018760018111156127d757634e487b7160e01b600052602160045260246000fd5b8152602081018790526040810186905260a0808e01516001600160a01b0316606083015260808201869052018c600660200201516001600160a01b031681526020018b60046009811061283a57634e487b7160e01b600052603260045260246000fd5b602002015181526020018b60056009811061286557634e487b7160e01b600052603260045260246000fd5b602002015181526020018b60066009811061289057634e487b7160e01b600052603260045260246000fd5b602002015181526020018b6007600981106128bb57634e487b7160e01b600052603260045260246000fd5b602002015181526020018b6008600981106128e657634e487b7160e01b600052603260045260246000fd5b6020020151905290506128f881613fe4565b9b9a5050505050505050505050565b600080604051806102e001604052808c6000600e811061293757634e487b7160e01b600052603260045260246000fd5b60200201516001600160a01b031681526020018c6001600e811061296b57634e487b7160e01b600052603260045260246000fd5b60200201516001600160a01b031681526020018c6002600e811061299f57634e487b7160e01b600052603260045260246000fd5b60200201516001600160a01b031681526020018b6000601281106129d357634e487b7160e01b600052603260045260246000fd5b602002015181526020018b6001601281106129fe57634e487b7160e01b600052603260045260246000fd5b602002015181526020018b600260128110612a2957634e487b7160e01b600052603260045260246000fd5b602002015181526020018b600360128110612a5457634e487b7160e01b600052603260045260246000fd5b602002015181526020018c6003600e8110612a7f57634e487b7160e01b600052603260045260246000fd5b60200201516001600160a01b031681526020018a600060088110612ab357634e487b7160e01b600052603260045260246000fd5b602002015160ff166001811115612ada57634e487b7160e01b600052602160045260246000fd5b6001811115612af957634e487b7160e01b600052602160045260246000fd5b81526020018a6001602002015160ff166001811115612b2857634e487b7160e01b600052602160045260246000fd5b6001811115612b4757634e487b7160e01b600052602160045260246000fd5b81526020018a6002602002015160ff166001811115612b7657634e487b7160e01b600052602160045260246000fd5b6001811115612b9557634e487b7160e01b600052602160045260246000fd5b815260808d01516001600160a01b031660208201526040018a6003602002015160ff166001811115612bd757634e487b7160e01b600052602160045260246000fd5b6001811115612bf657634e487b7160e01b600052602160045260246000fd5b8152602081018a90526040810188905260a0808e01516001600160a01b0316606083015260808201879052018c600660200201516001600160a01b031681526020018b600460128110612c5957634e487b7160e01b600052603260045260246000fd5b602002015181526020018b600560128110612c8457634e487b7160e01b600052603260045260246000fd5b602002015181526020018b600660128110612caf57634e487b7160e01b600052603260045260246000fd5b602002015181526020018b600760128110612cda57634e487b7160e01b600052603260045260246000fd5b602002015181526020018b600860128110612d0557634e487b7160e01b600052603260045260246000fd5b602002015181525090506000604051806102e001604052808d6007600e8110612d3e57634e487b7160e01b600052603260045260246000fd5b60200201516001600160a01b031681526020018d6008600e8110612d7257634e487b7160e01b600052603260045260246000fd5b60200201516001600160a01b031681526020018d6009600e8110612da657634e487b7160e01b600052603260045260246000fd5b60200201516001600160a01b031681526020018c600960128110612dda57634e487b7160e01b600052603260045260246000fd5b602002015181526020018c600a60128110612e0557634e487b7160e01b600052603260045260246000fd5b602002015181526020018c600b60128110612e3057634e487b7160e01b600052603260045260246000fd5b602002015181526020018c600c60128110612e5b57634e487b7160e01b600052603260045260246000fd5b602002015181526020018d600a600e8110612e8657634e487b7160e01b600052603260045260246000fd5b60200201516001600160a01b031681526020018b600460088110612eba57634e487b7160e01b600052603260045260246000fd5b602002015160ff166001811115612ee157634e487b7160e01b600052602160045260246000fd5b6001811115612f0057634e487b7160e01b600052602160045260246000fd5b81526020018b6005602002015160ff166001811115612f2f57634e487b7160e01b600052602160045260246000fd5b6001811115612f4e57634e487b7160e01b600052602160045260246000fd5b81526020018b6006602002015160ff166001811115612f7d57634e487b7160e01b600052602160045260246000fd5b6001811115612f9c57634e487b7160e01b600052602160045260246000fd5b81526101608e01516001600160a01b031660208201526040018b6007602002015160ff166001811115612fdf57634e487b7160e01b600052602160045260246000fd5b6001811115612ffe57634e487b7160e01b600052602160045260246000fd5b8152602081018a9052604081018890526101808e01516001600160a01b039081166060830152608082018790526101a08f01511660a082015260c0018c600d602002015181526020018c600e6012811061306857634e487b7160e01b600052603260045260246000fd5b602002015181526020018c600f6012811061309357634e487b7160e01b600052603260045260246000fd5b602002015181526020018c6010601281106130be57634e487b7160e01b600052603260045260246000fd5b602002015181526020018c6011601281106130e957634e487b7160e01b600052603260045260246000fd5b6020020151905290506130fc828261407d565b9c9b505050505050505050505050565b6000546001600160a01b0361010090910416331461313c5760405162461bcd60e51b81526004016106ac90615ae2565b6001600160a01b0381166131a15760405162461bcd60e51b815260206004820152602660248201527f4f776e61626c653a206e6577206f776e657220697320746865207a65726f206160448201526564647265737360d01b60648201526084016106ac565b600080546040516001600160a01b038085169361010090930416917f8be0079c531659141344cd1fd0a4f28419497f9722a3daafe3b4186f6b6457e091a3600080546001600160a01b0390921661010002610100600160a81b0319909216919091179055565b80516000901561324357815180602001830160208401855b6001838310141561323a57815181526020918201910161321f565b50505092909201915b5090919050565b6000613278826101200151836101400151846102400151856102600151866102800151876102a0015161410e565b92915050565b6000613289826133c0565b6040517f19457468657265756d205369676e6564204d6573736167653a0a3332000000006020820152603c810191909152605c01604051602081830303815290604052805190602001209050919050565b60006132e583613fe4565b6132f157506000610675565b60008481526004602052604090205460ff161561331057506000610675565b60008481526005602052604090205460ff161561332f57506001610675565b6020808401518351848301516040808701518151600081529586018083528a905260ff90931690850152606084015260808301526001600160a01b03169060019060a0016020604051602081039080840390855afa158015613395573d6000803e3d6000fd5b505050602060405103516001600160a01b031614156133b657506001610675565b5060009392505050565b6000806133cc836141e0565b90506000816001600160401b038111156133f657634e487b7160e01b600052604160045260246000fd5b6040519080825280601f01601f191660200182016040528015613420576020820181803683370190505b5084519091506020820190613436908290614218565b9050613446818660200151614218565b9050613456818660400151614218565b6060868101518252608080880151602084015260a0880151604084015260c08801519183019190915260e087015191019150613493908290614218565b90506134c38186610100015160018111156134be57634e487b7160e01b600052602160045260246000fd5b614232565b90506134ee8186610120015160018111156134be57634e487b7160e01b600052602160045260246000fd5b90506135198186610140015160018111156134be57634e487b7160e01b600052602160045260246000fd5b905061352a81866101600151614218565b90506135558186610180015160018111156134be57634e487b7160e01b600052602160045260246000fd5b905061356681866101a00151613207565b905061357781866101c00151613207565b905061358881866101e00151614218565b905061359981866102000151613207565b90506135aa81866102200151614218565b610240860151815261026086015160208083019190915261028087015160408301526102a087015160608301526102c0909601516080909101525090920191909120919050565b81602001516001600160a01b0316336001600160a01b03161461361357600080fd5b600061361e8361327e565b60008181526005602052604090205490915060ff161561363d57600080fd5b60016005600083815260200190815260200160002060006101000a81548160ff0219169083151502179055508260e001516001600160a01b031683602001516001600160a01b0316827f90c7f9f5b58c15f0f635bfb99f55d3d78fdbef3559e7d8abf5c81052a527662286600001518760400151886060015189608001518a60a001518b60c001518c61010001518d61012001518e61014001518f61016001516040516136f39a99989796959493929190615984565b60405180910390a4807fe55393c778364e440d958b39ac1debd99dcfae3775a8a04d1e79124adf6a2d08846101800151856101a00151866101c00151876101e001518861020001518961022001518a61024001518b61026001518c61028001518d6102a001518e6102c001518e6040516137789c9b9a99989796959493929190615a33565b60405180910390a2505050565b6000613791838361423f565b905082602001516001600160a01b0316336001600160a01b0316146137e95760405162461bcd60e51b815260206004820152600e60248201526d135052d157d393d517d59053125160921b60448201526064016106ac565b600081815260046020526040808220805460ff191660011790555182917f5152abf959f6564662358c2e52b702259b78bac5ee7842a0f01937e670efcc7d91a2505050565b60005460ff16156138775760405162461bcd60e51b81526020600482015260136024820152721499595b9d1c985b98de4819195d1958dd1959606a1b60448201526064016106ac565b6000805460ff1916600117815560208601516001600160a01b03163314156138eb576138a286613fe4565b6138e65760405162461bcd60e51b8152602060048201526015602482015274213abc9037b93232b91034b99034b73b30b634b21760591b60448201526064016106ac565b6138f8565b6138f5868661423f565b90505b60208401516000906001600160a01b03163314156139635761391985613fe4565b61395e5760405162461bcd60e51b815260206004820152601660248201527529b2b6361037b93232b91034b99034b73b30b634b21760511b60448201526064016106ac565b613970565b61396d858561423f565b90505b61397a8786614295565b6139c65760405162461bcd60e51b815260206004820152601860248201527f4f7264657273206973206e6f74206d6174636861626c652e000000000000000060448201526064016106ac565b610160850151803b9081613a0f5760405162461bcd60e51b815260206004820152601060248201526f15185c99d95d081b9bdd08195e1a5cdd60821b60448201526064016106ac565b6101c08901515115613a3557613a35896101a00151886101a001518b6101c001516144e7565b6101c08701515115613a5b57613a5b876101a001518a6101a00151896101c001516144e7565b613a6f896101a00151886101a0015161475b565b613ab05760405162461bcd60e51b8152602060048201526012602482015271086c2d8d85ac8c2e8c240dad2e6dac2e8c6d60731b60448201526064016106ac565b600254602088015160405163c455279160e01b81526001600160a01b039182166004820152600092919091169063c45527919060240160206040518083038186803b158015613afe57600080fd5b505afa158015613b12573d6000803e3d6000fd5b505050506040513d601f19601f82011682018060405250810190613b3691906152f0565b90506001600160a01b038116613b805760405162461bcd60e51b815260206004820152600f60248201526e141c9bde1e481b9bdd08195e1a5cdd608a1b60448201526064016106ac565b600260009054906101000a90046001600160a01b03166001600160a01b03166397204d8e6040518163ffffffff1660e01b815260040160206040518083038186803b158015613bce57600080fd5b505afa158015613be2573d6000803e3d6000fd5b505050506040513d601f19601f82011682018060405250810190613c0691906152f0565b6001600160a01b0316816001600160a01b0316635c60da1b6040518163ffffffff1660e01b815260040160206040518083038186803b158015613c4857600080fd5b505afa158015613c5c573d6000803e3d6000fd5b505050506040513d601f19601f82011682018060405250810190613c8091906152f0565b6001600160a01b031614613cd65760405162461bcd60e51b815260206004820152601860248201527f50726f7879206973206e6f7420696d706c656d656e746564000000000000000060448201526064016106ac565b60208a015181906001600160a01b03163314613d06576000868152600460205260409020805460ff191660011790555b88602001516001600160a01b0316336001600160a01b031614613d3d576000858152600460205260409020805460ff191660011790555b6000613d498c8b6147bf565b9050816001600160a01b0316631b0f7ba98b61016001518c61018001518d6101a001516040518463ffffffff1660e01b8152600401613d8a93929190615a02565b602060405180830381600087803b158015613da457600080fd5b505af1158015613db8573d6000803e3d6000fd5b505050506040513d601f19601f82011682018060405250810190613ddc9190615905565b613e285760405162461bcd60e51b815260206004820152601960248201527f43616e6e6f742063616c6c207468726f7567682070726f78790000000000000060448201526064016106ac565b6101e08c01516001600160a01b031615613eae57613e568c6101e001518b6101a001518e61020001516105e4565b613eae5760405162461bcd60e51b815260206004820152602360248201527f43616e6e6f742065786563757465206275792d73696465207374617469632063604482015262185b1b60ea1b60648201526084016106ac565b6101e08a01516001600160a01b031615613f3457613edc8a6101e001518b6101a001518c61020001516105e4565b613f345760405162461bcd60e51b8152602060048201526024808201527f43616e6e6f7420657865637574652073656c6c2d73696465207374617469632060448201526318d85b1b60e21b60648201526084016106ac565b60e08a015188906001600160a01b0316613f52578a60200151613f58565b8c602001515b60e08c01516001600160a01b039182169116613f78578d60200151613f7e565b8b602001515b604080518b8152602081018b90529081018590526001600160a01b0391909116907fc4109843e0b7d514e4c093114b863f8e7d8d9a458c372cd51bfe526b588006c99060600160405180910390a450506000805460ff1916905550505050505050505050565b80516000906001600160a01b0316301461400057506000919050565b614014826101400151836102a00151614df8565b61402057506000919050565b6001826101000151600181111561404757634e487b7160e01b600052602160045260246000fd5b14801561406857506006548260a00151108061406857506007548260c00151105b1561407557506000919050565b506001919050565b6000806140ac836101200151846101400151856102400151866102600151876102800151886102a0015161410e565b905060006140dc8561012001518661014001518761024001518861026001518961028001518a6102a0015161410e565b9050818110156140eb57600080fd5b60e08401516001600160a01b03166141035780614105565b815b95945050505050565b60008086600181111561413157634e487b7160e01b600052602160045260246000fd5b141561413e5750836141d6565b600186600181111561416057634e487b7160e01b600052602160045260246000fd5b14156141d65760006141728484615b6e565b61417c8542615b6e565b6141869087615b4f565b6141909190615b2f565b905060018860018111156141b457634e487b7160e01b600052602160045260246000fd5b14156141cc576141c48187615b6e565b9150506141d6565b6141c48187615b17565b9695505050505050565b600081610200015151826101c0015151836101a00151516101b06142049190615b17565b61420e9190615b17565b6132789190615b17565b60601b6bffffffffffffffffffffffff1916815260140190565b6000818353505060010190565b60008061424b8461327e565b90506142588185856132da565b6106755760405162461bcd60e51b815260206004820152600e60248201526d121054d217d393d517d59053125160921b60448201526064016106ac565b60008083610120015160018111156142bd57634e487b7160e01b600052602160045260246000fd5b1480156142ee5750600182610120015160018111156142ec57634e487b7160e01b600052602160045260246000fd5b145b80156143415750816101000151600181111561431a57634e487b7160e01b600052602160045260246000fd5b836101000151600181111561433f57634e487b7160e01b600052602160045260246000fd5b145b801561436857508161022001516001600160a01b03168361022001516001600160a01b0316145b80156143a2575060408201516001600160a01b031615806143a2575082602001516001600160a01b031682604001516001600160a01b0316145b80156143dc575060408301516001600160a01b031615806143dc575081602001516001600160a01b031683604001516001600160a01b0316145b8015614437575060e08201516001600160a01b031615801561440a575060e08301516001600160a01b031615155b80614437575060e08201516001600160a01b031615801590614437575060e08301516001600160a01b0316155b801561445e57508161016001516001600160a01b03168361016001516001600160a01b0316145b80156144b15750816101800151600181111561448a57634e487b7160e01b600052602160045260246000fd5b83610180015160018111156144af57634e487b7160e01b600052602160045260246000fd5b145b80156144cc57506144cc836102800151846102a00151614e2a565b80156106755750610675826102800151836102a00151614e2a565b81518351146145385760405162461bcd60e51b815260206004820152601d60248201527f417272617973206861766520646966666572656e74206c656e6774687300000060448201526064016106ac565b80518351146145975760405162461bcd60e51b815260206004820152602560248201527f417272617920616e64206d61736b206861766520646966666572656e74206c656044820152646e6774687360d81b60648201526084016106ac565b6000602084516145a79190615b2f565b905060006145b6826020615b4f565b9050816145c4602083615b2f565b146145df57634e487b7160e01b600052600160045260246000fd5b60005b8281101561461c5780600101602002808501518187015181168289015182191617828901525050808061461490615b85565b9150506145e2565b82156146495782905080600101602002808501518187015181168289015182191617828901525050614753565b50805b85518110156147535784818151811061467557634e487b7160e01b600052603260045260246000fd5b602001015160f81c60f81b8482815181106146a057634e487b7160e01b600052603260045260246000fd5b602001015160f81c60f81b168682815181106146cc57634e487b7160e01b600052603260045260246000fd5b602001015160f81c60f81b8583815181106146f757634e487b7160e01b600052603260045260246000fd5b602001015160f81c60f81b60ff60f81b18161786828151811061472a57634e487b7160e01b600052603260045260246000fd5b60200101906001600160f81b031916908160001a9053508061474b81615b85565b91505061464c565b505050505050565b81518151600091600191811480831461477757600092506147b5565b600160208701838101602088015b6002848385100114156147b05780518351146147a45760009650600093505b60209283019201614785565b505050505b5090949350505050565b6102208101516000906001600160a01b0316156147e15734156147e157600080fd5b60006147ed848461407d565b905060008111801561480c57506102208301516001600160a01b031615155b1561482a5761482a8361022001518560200151856020015184614e46565b60e0830151819081906001600160a01b031615614b775785608001518560800151111561485657600080fd5b6001856101000151600181111561487d57634e487b7160e01b600052602160045260246000fd5b1415614b49578560c001518560c00151111561489857600080fd5b60608501511561493f5760006127108487606001516148b79190615b4f565b6148c19190615b2f565b6102208701519091506001600160a01b0316614924576148e18184615b6e565b60e08701516040519194506001600160a01b03169082156108fc029083906000818181858888f1935050505015801561491e573d6000803e3d6000fd5b5061493d565b61493d86610220015187602001518860e0015184614e46565b505b6080850151156149e657600061271084876080015161495e9190615b4f565b6149689190615b2f565b6102208701519091506001600160a01b03166149cb576149888183615b17565b60e08701516040519193506001600160a01b03169082156108fc029083906000818181858888f193505050501580156149c5573d6000803e3d6000fd5b506149e4565b6149e486610220015188602001518860e0015184614e46565b505b60a085015115614a95576000612710848760a00151614a059190615b4f565b614a0f9190615b2f565b6102208701519091506001600160a01b0316614a7057614a2f8184615b6e565b6008546040519194506001600160a01b03169082156108fc029083906000818181858888f19350505050158015614a6a573d6000803e3d6000fd5b50614a93565b6102208601516020870151600854614a939291906001600160a01b031684614e46565b505b60c085015115614b44576000612710848760c00151614ab49190615b4f565b614abe9190615b2f565b6102208701519091506001600160a01b0316614b1f57614ade8183615b17565b6008546040519193506001600160a01b03169082156108fc029083906000818181858888f19350505050158015614b19573d6000803e3d6000fd5b50614b42565b6102208601516020880151600854614b429291906001600160a01b031684614e46565b505b614d3c565b614b6085602001518660e001518760600151614ef1565b614b4486602001518660e001518760800151614ef1565b846080015186608001511115614b8c57600080fd5b60018561010001516001811115614bb357634e487b7160e01b600052602160045260246000fd5b1415614d0e576102208501516001600160a01b0316614bd157600080fd5b8460c001518660c001511115614be657600080fd5b606086015115614c2c576000612710848860600151614c059190615b4f565b614c0f9190615b2f565b9050614c2a86610220015188602001518960e0015184614e46565b505b608086015115614c72576000612710848860800151614c4b9190615b4f565b614c559190615b2f565b9050614c7086610220015187602001518960e0015184614e46565b505b60a086015115614cc1576000612710848860a00151614c919190615b4f565b614c9b9190615b2f565b6102208701516020890151600854929350614cbf926001600160a01b031684614e46565b505b60c086015115614b44576000612710848860c00151614ce09190615b4f565b614cea9190615b2f565b6102208701516020880151600854929350614b42926001600160a01b031684614e46565b614d2586602001518760e001518860600151614ef1565b614d3c85602001518760e001518860800151614ef1565b6102208501516001600160a01b03166147b55780341015614d5c57600080fd5b84602001516001600160a01b03166108fc839081150290604051600060405180830381858888f19350505050158015614d99573d6000803e3d6000fd5b506000614da68234615b6e565b90508015614ded5786602001516001600160a01b03166108fc829081150290604051600060405180830381858888f19350505050158015614deb573d6000803e3d6000fd5b505b505090949350505050565b600080836001811115614e1b57634e487b7160e01b600052602160045260246000fd5b14806106755750501515919050565b6000428310801561067557508115806106755750504210919050565b8015614eeb57600354604051630aed65f560e11b81526001600160a01b0386811660048301528581166024830152848116604483015260648201849052909116906315dacbea90608401602060405180830381600087803b158015614eaa57600080fd5b505af1158015614ebe573d6000803e3d6000fd5b505050506040513d601f19601f82011682018060405250810190614ee29190615905565b614eeb57600080fd5b50505050565b600154614f09906001600160a01b0316848484614e46565b505050565b600082601f830112614f1e578081fd5b6040516101c08082018281106001600160401b0382111715614f4257614f42615bb6565b6040528184828101871015614f55578485fd5b8492505b600e831015614f82578035614f6d81615bed565b82526001929092019160209182019101614f59565b509195945050505050565b600082601f830112614f9d578081fd5b60405160e081018181106001600160401b0382111715614fbf57614fbf615bb6565b604052808360e08101861015614fd3578384fd5b835b6007811015614f82578135614fe981615bed565b83526020928301929190910190600101614fd5565b600082601f83011261500e578081fd5b60405160a081018181106001600160401b038211171561503057615030615bb6565b604052808360a08101861015615044578384fd5b835b6005811015614f82578135835260209283019290910190600101615046565b600082601f830112615075578081fd5b6040516102408082018281106001600160401b038211171561509957615099615bb6565b60405281848281018710156150ac578485fd5b8492505b6012831015614f82578035825260019290920191602091820191016150b0565b600082601f8301126150e0578081fd5b6040516101208082018281106001600160401b038211171561510457615104615bb6565b6040528184828101871015615117578485fd5b8492505b6009831015614f825780358252600192909201916020918201910161511b565b600082601f83011261514b578081fd5b604051604081018181106001600160401b038211171561516d5761516d615bb6565b8060405250808385604086011115615183578384fd5b835b6002811015614f8257615197826152c3565b83526020928301929190910190600101615185565b600082601f8301126151bc578081fd5b6040516101008082018281106001600160401b03821117156151e0576151e0615bb6565b60405281848281018710156151f3578485fd5b8492505b6008831015614f8257615209816152c3565b825260019290920191602091820191016151f7565b803561522981615c02565b919050565b600082601f83011261523e578081fd5b81356001600160401b038082111561525857615258615bb6565b604051601f8301601f19908116603f0116810190828211818310171561528057615280615bb6565b81604052838152866020858801011115615298578485fd5b8360208701602083013792830160200193909352509392505050565b80356002811061522957600080fd5b803560ff8116811461522957600080fd5b6000602082840312156152e5578081fd5b813561067581615bed565b600060208284031215615301578081fd5b815161067581615bed565b600080600060608486031215615320578182fd5b833561532b81615bed565b925060208401356001600160401b0380821115615346578384fd5b6153528783880161522e565b93506040860135915080821115615367578283fd5b506153748682870161522e565b9150509250925092565b60008060008060008060008060006105c08a8c03121561539c578687fd5b6153a68b8b614f0e565b98506153b68b6101c08c01615065565b97506153c68b6104008c016151ac565b96506105008a01356001600160401b03808211156153e2578687fd5b6153ee8d838e0161522e565b97506105208c0135915080821115615404578687fd5b6154108d838e0161522e565b96506105408c0135915080821115615426578586fd5b6154328d838e0161522e565b95506105608c0135915080821115615448578485fd5b6154548d838e0161522e565b94506105808c013591508082111561546a578384fd5b6154768d838e0161522e565b93506105a08c013591508082111561548c578283fd5b506154998c828d0161522e565b9150509295985092959850929598565b60008060008060008060008060008060006106a08c8e0312156154ca578485fd5b6154d48d8d614f0e565b9a506154e48d6101c08e01615065565b99506154f48d6104008e016151ac565b98506001600160401b03806105008e0135111561550f578586fd5b6155208e6105008f01358f0161522e565b9850806105208e01351115615533578586fd5b6155448e6105208f01358f0161522e565b9750806105408e01351115615557578586fd5b6155688e6105408f01358f0161522e565b9650806105608e0135111561557b578586fd5b61558c8e6105608f01358f0161522e565b9550806105808e0135111561559f578283fd5b6155b08e6105808f01358f0161522e565b9450806105a08e013511156155c3578283fd5b506155d58d6105a08e01358e0161522e565b92506155e58d6105c08e0161513b565b91506155f58d6106008e01614ffe565b90509295989b509295989b9093969950565b60008060008060008060008060006102e08a8c031215615625578283fd5b61562f8b8b614f8d565b985061563e8b60e08c016150d0565b975061564d6102008b016152b4565b965061565c6102208b016152b4565b955061566b6102408b016152b4565b945061567a6102608b016152b4565b93506102808a01356001600160401b0380821115615696578485fd5b6156a28d838e0161522e565b94506102a08c01359150808211156156b8578384fd5b6156c48d838e0161522e565b93506102c08c013591508082111561548c578283fd5b6000806000806000806000806000806103008b8d0312156156f9578384fd5b6157038c8c614f8d565b99506157128c60e08d016150d0565b98506157216102008c016152b4565b97506157306102208c016152b4565b965061573f6102408c016152b4565b955061574e6102608c016152b4565b94506102808b01356001600160401b038082111561576a578586fd5b6157768e838f0161522e565b95506102a08d013591508082111561578c578485fd5b6157988e838f0161522e565b94506102c08d01359150808211156157ae578384fd5b506157bb8d828e0161522e565b9250506157cb6102e08c0161521e565b90509295989b9194979a5092959850565b6000806000806000806000806000806000806103408d8f0312156157fe578586fd5b6158088e8e614f8d565b9b506158178e60e08f016150d0565b9a506158266102008e016152b4565b99506158356102208e016152b4565b98506158446102408e016152b4565b97506158536102608e016152b4565b96506001600160401b036102808e0135111561586d578586fd5b61587e8e6102808f01358f0161522e565b95506001600160401b036102a08e01351115615898578081fd5b6158a98e6102a08f01358f0161522e565b94506001600160401b036102c08e013511156158c3578081fd5b6158d48e6102c08f01358f0161522e565b93506158e36102e08e016152c3565b92506103008d013591506103208d013590509295989b509295989b509295989b565b600060208284031215615916578081fd5b815161067581615c02565b600060208284031215615932578081fd5b5035919050565b60008151808452815b8181101561595e57602081850181015186830182015201615942565b8181111561596f5782602083870101525b50601f01601f19169290920160200192915050565b6001600160a01b038b811682528a81166020830152604082018a9052606082018990526080820188905260a082018790526101408201906159c487615bcc565b8660c08401526159d386615bcc565b8560e08401526159e285615bcc565b84610100840152808416610120840152509b9a5050505050505050505050565b6001600160a01b0384168152615a1783615bcc565b8260208201526060604082015260006141056060830184615939565b6000610180615a418f615bcc565b8e8352806020840152615a568184018f615939565b90508281036040840152615a6a818e615939565b6001600160a01b038d811660608601528482036080860152909150615a8f828d615939565b9a1660a0840152505060c081019690965260e086019490945261010085019290925261012084015261014083015215156101609091015295945050505050565b6020815260006106756020830184615939565b6020808252818101527f4f776e61626c653a2063616c6c6572206973206e6f7420746865206f776e6572604082015260600190565b60008219821115615b2a57615b2a615ba0565b500190565b600082615b4a57634e487b7160e01b81526012600452602481fd5b500490565b6000816000190483118215151615615b6957615b69615ba0565b500290565b600082821015615b8057615b80615ba0565b500390565b6000600019821415615b9957615b99615ba0565b5060010190565b634e487b7160e01b600052601160045260246000fd5b634e487b7160e01b600052604160045260246000fd5b60028110615bea57634e487b7160e01b600052602160045260246000fd5b50565b6001600160a01b0381168114615bea57600080fd5b8015158114615bea57600080fdfea264697066735822122031bf26b78dd229165e399f64f559d55a98bffe3cdd8fc82e2c8c44cc6b7f116d64736f6c63430008040033",
  "immutableReferences": {},
  "source": "// SPDX-License-Identifier: UNLICENSED\n/*\n\n  << Taureum Exchange >>\n\n*/\n\npragma solidity 0.8.4;\n\nimport \"./exchange/Exchange.sol\";\n\n/**\n * @title TaureumExchange\n * @author Taureum Protocol Developers\n */\ncontract TaureumExchange is Exchange {\n\n    string public constant name = \"Taureum Exchange\";\n  \n    string public constant version = \"0.1\";\n\n    string public constant codename = \"TaureumBeta\";\n\n    /**\n     * @dev Initialize a WyvernExchange instance\n     * @param registryAddress Address of the registry instance which this Exchange instance will use\n     * @param tokenAddress Address of the token used for protocol fees\n     */\n    constructor (ProxyRegistry registryAddress, TokenTransferProxy tokenTransferProxyAddress, ERC20 tokenAddress, address protocolFeeAddress) public Ownable() {\n        registry = registryAddress;\n        tokenTransferProxy = tokenTransferProxyAddress;\n        exchangeToken = tokenAddress;\n        protocolFeeRecipient = protocolFeeAddress;\n    }\n\n}\n",
  "sourcePath": "/home/toor/nodejs/truffle/nft_demo/taureum/taureum-nft-protocol-sc/contracts/TaureumExchange.sol",
  "compiler": {
    "name": "solc",
    "version": "0.8.4+commit.c7e474f2.Emscripten.clang"
  },
  "schemaVersion": "3.4.1",
  "updatedAt": "2021-08-29T07:45:48.591Z",
  "devdoc": {
    "author": "Taureum Protocol Developers",
    "kind": "dev",
    "methods": {
      "approveOrder_(address[7],uint256[9],uint8,uint8,uint8,uint8,bytes,bytes,bytes,bool)": {
        "details": "Call approveOrder - Solidity ABI encoding limitation workaround, hopefully temporary."
      },
      "atomicMatch_(address[14],uint256[18],uint8[8],bytes,bytes,bytes,bytes,bytes,bytes,uint8[2],bytes32[5])": {
        "details": "Call atomicMatch - Solidity ABI encoding limitation workaround, hopefully temporary."
      },
      "calculateCurrentPrice_(address[7],uint256[9],uint8,uint8,uint8,uint8,bytes,bytes,bytes)": {
        "details": "Call calculateCurrentPrice - Solidity ABI encoding limitation workaround, hopefully temporary."
      },
      "calculateMatchPrice_(address[14],uint256[18],uint8[8],bytes,bytes,bytes,bytes,bytes,bytes)": {
        "details": "Call calculateMatchPrice - Solidity ABI encoding limitation workaround, hopefully temporary."
      },
      "cancelOrder_(address[7],uint256[9],uint8,uint8,uint8,uint8,bytes,bytes,bytes,uint8,bytes32,bytes32)": {
        "details": "Call cancelOrder - Solidity ABI encoding limitation workaround, hopefully temporary."
      },
      "changeMinimumMakerProtocolFee(uint256)": {
        "details": "Change the minimum maker fee paid to the protocol (owner only)",
        "params": {
          "newMinimumMakerProtocolFee": "New fee to set in basis points"
        }
      },
      "changeMinimumTakerProtocolFee(uint256)": {
        "details": "Change the minimum taker fee paid to the protocol (owner only)",
        "params": {
          "newMinimumTakerProtocolFee": "New fee to set in basis points"
        }
      },
      "changeProtocolFeeRecipient(address)": {
        "details": "Change the protocol fee recipient (owner only)",
        "params": {
          "newProtocolFeeRecipient": "New protocol fee recipient address"
        }
      },
      "changeProtocolFeeTokenAddress(address)": {
        "details": "Change the protocol fee token address (owner only)",
        "params": {
          "newTokenAddress": "New protocol fee token address"
        }
      },
      "constructor": {
        "details": "Initialize a WyvernExchange instance",
        "params": {
          "registryAddress": "Address of the registry instance which this Exchange instance will use",
          "tokenAddress": "Address of the token used for protocol fees"
        }
      },
      "hashOrder_(address[7],uint256[9],uint8,uint8,uint8,uint8,bytes,bytes,bytes)": {
        "details": "Call hashOrder - Solidity ABI encoding limitation workaround, hopefully temporary."
      },
      "hashToSign_(address[7],uint256[9],uint8,uint8,uint8,uint8,bytes,bytes,bytes)": {
        "details": "Call hashToSign - Solidity ABI encoding limitation workaround, hopefully temporary."
      },
      "owner()": {
        "details": "Returns the address of the current owner."
      },
      "renounceOwnership()": {
        "details": "Leaves the contract without owner. It will not be possible to call `onlyOwner` functions anymore. Can only be called by the current owner. NOTE: Renouncing ownership will leave the contract without an owner, thereby removing any functionality that is only available to the owner."
      },
      "staticCall(address,bytes,bytes)": {
        "details": "Execute a STATICCALL (introduced with Ethereum Metropolis, non-state-modifying external call)",
        "params": {
          "callData": "Calldata (appended to extradata)",
          "extradata": "Base data for STATICCALL (probably function selector and argument encoding)",
          "target": "Contract to call"
        },
        "returns": {
          "result": "of the call (success or failure)"
        }
      },
      "transferOwnership(address)": {
        "details": "Transfers ownership of the contract to a new account (`newOwner`). Can only be called by the current owner."
      },
      "validateOrderParameters_(address[7],uint256[9],uint8,uint8,uint8,uint8,bytes,bytes,bytes)": {
        "details": "Call validateOrderParameters - Solidity ABI encoding limitation workaround, hopefully temporary."
      },
      "validateOrder_(address[7],uint256[9],uint8,uint8,uint8,uint8,bytes,bytes,bytes,uint8,bytes32,bytes32)": {
        "details": "Call validateOrder - Solidity ABI encoding limitation workaround, hopefully temporary."
      }
    },
    "title": "TaureumExchange",
    "version": 1
  },
  "userdoc": {
    "kind": "user",
    "methods": {},
    "version": 1
  }
}