{
  "contractName": "TaureumProxyRegistry",
  "abi": [
    {
      "inputs": [],
      "stateMutability": "nonpayable",
      "type": "constructor"
    },
    {
      "anonymous": false,
      "inputs": [
        {
          "indexed": true,
          "internalType": "address",
          "name": "previousOwner",
          "type": "address"
        },
        {
          "indexed": true,
          "internalType": "address",
          "name": "newOwner",
          "type": "address"
        }
      ],
      "name": "OwnershipTransferred",
      "type": "event"
    },
    {
      "inputs": [],
      "name": "DELAY_PERIOD",
      "outputs": [
        {
          "internalType": "uint256",
          "name": "",
          "type": "uint256"
        }
      ],
      "stateMutability": "view",
      "type": "function",
      "constant": true
    },
    {
      "inputs": [
        {
          "internalType": "address",
          "name": "",
          "type": "address"
        }
      ],
      "name": "contracts",
      "outputs": [
        {
          "internalType": "bool",
          "name": "",
          "type": "bool"
        }
      ],
      "stateMutability": "view",
      "type": "function",
      "constant": true
    },
    {
      "inputs": [],
      "name": "delegateProxyImplementation",
      "outputs": [
        {
          "internalType": "address",
          "name": "",
          "type": "address"
        }
      ],
      "stateMutability": "view",
      "type": "function",
      "constant": true
    },
    {
      "inputs": [
        {
          "internalType": "address",
          "name": "addr",
          "type": "address"
        }
      ],
      "name": "endGrantAuthentication",
      "outputs": [],
      "stateMutability": "nonpayable",
      "type": "function"
    },
    {
      "inputs": [],
      "name": "initialAddressSet",
      "outputs": [
        {
          "internalType": "bool",
          "name": "",
          "type": "bool"
        }
      ],
      "stateMutability": "view",
      "type": "function",
      "constant": true
    },
    {
      "inputs": [],
      "name": "name",
      "outputs": [
        {
          "internalType": "string",
          "name": "",
          "type": "string"
        }
      ],
      "stateMutability": "view",
      "type": "function",
      "constant": true
    },
    {
      "inputs": [],
      "name": "owner",
      "outputs": [
        {
          "internalType": "address",
          "name": "",
          "type": "address"
        }
      ],
      "stateMutability": "view",
      "type": "function",
      "constant": true
    },
    {
      "inputs": [
        {
          "internalType": "address",
          "name": "",
          "type": "address"
        }
      ],
      "name": "pending",
      "outputs": [
        {
          "internalType": "uint256",
          "name": "",
          "type": "uint256"
        }
      ],
      "stateMutability": "view",
      "type": "function",
      "constant": true
    },
    {
      "inputs": [
        {
          "internalType": "address",
          "name": "",
          "type": "address"
        }
      ],
      "name": "proxies",
      "outputs": [
        {
          "internalType": "contract OwnableDelegateProxy",
          "name": "",
          "type": "address"
        }
      ],
      "stateMutability": "view",
      "type": "function",
      "constant": true
    },
    {
      "inputs": [],
      "name": "registerProxy",
      "outputs": [
        {
          "internalType": "contract OwnableDelegateProxy",
          "name": "proxy",
          "type": "address"
        }
      ],
      "stateMutability": "nonpayable",
      "type": "function"
    },
    {
      "inputs": [
        {
          "internalType": "address",
          "name": "user",
          "type": "address"
        }
      ],
      "name": "registerProxyFor",
      "outputs": [
        {
          "internalType": "contract OwnableDelegateProxy",
          "name": "proxy",
          "type": "address"
        }
      ],
      "stateMutability": "nonpayable",
      "type": "function"
    },
    {
      "inputs": [],
      "name": "registerProxyOverride",
      "outputs": [
        {
          "internalType": "contract OwnableDelegateProxy",
          "name": "proxy",
          "type": "address"
        }
      ],
      "stateMutability": "nonpayable",
      "type": "function"
    },
    {
      "inputs": [],
      "name": "renounceOwnership",
      "outputs": [],
      "stateMutability": "nonpayable",
      "type": "function"
    },
    {
      "inputs": [
        {
          "internalType": "address",
          "name": "addr",
          "type": "address"
        }
      ],
      "name": "revokeAuthentication",
      "outputs": [],
      "stateMutability": "nonpayable",
      "type": "function"
    },
    {
      "inputs": [
        {
          "internalType": "address",
          "name": "addr",
          "type": "address"
        }
      ],
      "name": "startGrantAuthentication",
      "outputs": [],
      "stateMutability": "nonpayable",
      "type": "function"
    },
    {
      "inputs": [
        {
          "internalType": "address",
          "name": "from",
          "type": "address"
        },
        {
          "internalType": "address",
          "name": "to",
          "type": "address"
        }
      ],
      "name": "transferAccessTo",
      "outputs": [],
      "stateMutability": "nonpayable",
      "type": "function"
    },
    {
      "inputs": [
        {
          "internalType": "address",
          "name": "newOwner",
          "type": "address"
        }
      ],
      "name": "transferOwnership",
      "outputs": [],
      "stateMutability": "nonpayable",
      "type": "function"
    },
    {
      "inputs": [
        {
          "internalType": "address",
          "name": "authAddress",
          "type": "address"
        }
      ],
      "name": "grantInitialAuthentication",
      "outputs": [],
      "stateMutability": "nonpayable",
      "type": "function"
    }
  ],
  "bytecode": "0x6080604052621275006005556006805460ff1916905534801561002157600080fd5b50600080546001600160a01b031916339081178255604051909182917f8be0079c531659141344cd1fd0a4f28419497f9722a3daafe3b4186f6b6457e0908290a35060405161006f906100b1565b604051809103906000f08015801561008b573d6000803e3d6000fd5b50600180546001600160a01b0319166001600160a01b03929092169190911790556100be565b610a928061172883390190565b61165b806100cd6000396000f3fe60806040523480156200001157600080fd5b50600436106200012c5760003560e01c80638da5cb5b11620000af578063dcfa9222116200007a578063dcfa922214620002d5578063ddd81f8214620002ec578063e71a02e114620002f6578063ef7f38341462000300578063f2fde38b146200031757600080fd5b80638da5cb5b146200026c57806397204d8e146200027e578063c45527911462000292578063d4e8e06314620002be57600080fd5b806353376d1f11620000fc57806353376d1f14620001e95780635eebea201462000200578063631d9e3f146200023257806369dc9ff3146200023c578063715018a6146200026257600080fd5b8062686741146200013157806306fdde0314620001655780631a86ac4f14620001b157806338b6e40714620001d0575b600080fd5b620001486200014236600462000afe565b6200032e565b6040516001600160a01b0390911681526020015b60405180910390f35b620001a26040518060400160405280601e81526020017f50726f6a656374205461757265756d2050726f7879205265676973747279000081525081565b6040516200015c919062000bde565b600654620001bf9060ff1681565b60405190151581526020016200015c565b620001e7620001e136600462000afe565b62000456565b005b620001e7620001fa36600462000afe565b620005ab565b620002236200021136600462000afe565b60036020526000908152604090205481565b6040519081526020016200015c565b62000148620005f9565b620001bf6200024d36600462000afe565b60046020526000908152604090205460ff1681565b620001e7620006b0565b6000546001600160a01b031662000148565b60015462000148906001600160a01b031681565b62000148620002a336600462000afe565b6002602052600090815260409020546001600160a01b031681565b620001e7620002cf36600462000afe565b62000727565b620001e7620002e636600462000b22565b6200081a565b620001486200095f565b6200022360055481565b620001e76200031136600462000afe565b62000971565b620001e76200032836600462000afe565b620009e4565b6001600160a01b03818116600090815260026020526040812054909116156200039e5760405162461bcd60e51b815260206004820152601860248201527f5573657220616c72656164792068617320612070726f7879000000000000000060448201526064015b60405180910390fd5b6001546040516001600160a01b0380851660248301523060448301528492169060640160408051601f198184030181529181526020820180516001600160e01b031663485cc95560e01b17905251620003f79062000ad3565b620004059392919062000ba7565b604051809103906000f08015801562000422573d6000803e3d6000fd5b506001600160a01b03928316600090815260026020526040902080546001600160a01b031916938216939093179092555090565b6000546001600160a01b03163314620004835760405162461bcd60e51b8152600401620003959062000bf3565b6001600160a01b03811660009081526004602052604090205460ff16158015620004c457506001600160a01b03811660009081526003602052604090205415155b8015620004f757506005546001600160a01b0382166000908152600360205260409020544291620004f59162000c28565b105b6200057a5760405162461bcd60e51b815260206004820152604660248201527f436f6e7472616374206973206e6f206c6f6e6765722070656e64696e67206f7260448201527f2068617320616c7265616479206265656e20617070726f76656420627920726560648201526567697374727960d01b608482015260a40162000395565b6001600160a01b0316600090815260036020908152604080832083905560049091529020805460ff19166001179055565b6000546001600160a01b03163314620005d85760405162461bcd60e51b8152600401620003959062000bf3565b6001600160a01b03166000908152600460205260409020805460ff19169055565b600154604051336024820181905230604483015260009290916001600160a01b039091169060640160408051601f198184030181529181526020820180516001600160e01b031663485cc95560e01b17905251620006579062000ad3565b620006659392919062000ba7565b604051809103906000f08015801562000682573d6000803e3d6000fd5b5033600090815260026020526040902080546001600160a01b0319166001600160a01b038316179055919050565b6000546001600160a01b03163314620006dd5760405162461bcd60e51b8152600401620003959062000bf3565b600080546040516001600160a01b03909116907f8be0079c531659141344cd1fd0a4f28419497f9722a3daafe3b4186f6b6457e0908390a3600080546001600160a01b0319169055565b6000546001600160a01b03163314620007545760405162461bcd60e51b8152600401620003959062000bf3565b6001600160a01b03811660009081526004602052604090205460ff161580156200079457506001600160a01b038116600090815260036020526040902054155b620007fe5760405162461bcd60e51b815260206004820152603360248201527f436f6e747261637420697320616c726561647920616c6c6f77656420696e2072604482015272656769737472792c206f722070656e64696e6760681b606482015260840162000395565b6001600160a01b03166000908152600360205260409020429055565b6001600160a01b03808316600090815260026020526040902054163381146200089d5760405162461bcd60e51b815260206004820152602e60248201527f50726f7879207472616e736665722063616e206f6e6c792062652063616c6c6560448201526d64206279207468652070726f787960901b606482015260840162000395565b6001600160a01b038281166000908152600260205260409020541615620009205760405162461bcd60e51b815260206004820152603060248201527f50726f7879207472616e7366657220686173206578697374696e672070726f7860448201526f3c9030b9903232b9ba34b730ba34b7b760811b606482015260840162000395565b6001600160a01b0392831660009081526002602052604080822080546001600160a01b0319908116909155938516825290208054919093169116179055565b60006200096c336200032e565b905090565b6000546001600160a01b031633146200099e5760405162461bcd60e51b8152600401620003959062000bf3565b60065460ff1615620009af57600080fd5b6006805460ff1990811660019081179092556001600160a01b0390921660009081526004602052604090208054909216179055565b6000546001600160a01b0316331462000a115760405162461bcd60e51b8152600401620003959062000bf3565b6001600160a01b03811662000a785760405162461bcd60e51b815260206004820152602660248201527f4f776e61626c653a206e6577206f776e657220697320746865207a65726f206160448201526564647265737360d01b606482015260840162000395565b600080546040516001600160a01b03808516939216917f8be0079c531659141344cd1fd0a4f28419497f9722a3daafe3b4186f6b6457e091a3600080546001600160a01b0319166001600160a01b0392909216919091179055565b6109d88062000c4e83390190565b80356001600160a01b038116811462000af957600080fd5b919050565b60006020828403121562000b10578081fd5b62000b1b8262000ae1565b9392505050565b6000806040838503121562000b35578081fd5b62000b408362000ae1565b915062000b506020840162000ae1565b90509250929050565b60008151808452815b8181101562000b805760208185018101518683018201520162000b62565b8181111562000b925782602083870101525b50601f01601f19169290920160200192915050565b6001600160a01b0384811682528316602082015260606040820181905260009062000bd59083018462000b59565b95945050505050565b60208152600062000b1b602083018462000b59565b6020808252818101527f4f776e61626c653a2063616c6c6572206973206e6f7420746865206f776e6572604082015260600190565b6000821982111562000c4857634e487b7160e01b81526011600452602481fd5b50019056fe608060405234801561001057600080fd5b506040516109d83803806109d883398101604081905261002f916101f0565b600180546001600160a01b0319166001600160a01b0385161790556100538261011f565b6000826001600160a01b03168260405161006d91906102bc565b600060405180830381855af49150503d80600081146100a8576040519150601f19603f3d011682016040523d82523d6000602084013e6100ad565b606091505b50509050806101165760405162461bcd60e51b815260206004820152602a60248201527f4f776e61626c6544656c656761746550726f7879206661696c656420696d706c60448201526932b6b2b73a30ba34b7b760b11b60648201526084015b60405180910390fd5b5050505061031e565b6000546001600160a01b038281169116141561018c5760405162461bcd60e51b815260206004820152602660248201527f50726f787920616c72656164792075736573207468697320696d706c656d656e6044820152653a30ba34b7b760d11b606482015260840161010d565b600080546001600160a01b0319166001600160a01b038316908117825560405190917fbc7cd75a20ee27fd9adebab32041f755214dbc6bffa90cc0225b39da2e5c2d3b91a250565b80516001600160a01b03811681146101eb57600080fd5b919050565b600080600060608486031215610204578283fd5b61020d846101d4565b925061021b602085016101d4565b60408501519092506001600160401b0380821115610237578283fd5b818601915086601f83011261024a578283fd5b81518181111561025c5761025c610308565b604051601f8201601f19908116603f0116810190838211818310171561028457610284610308565b8160405282815289602084870101111561029c578586fd5b6102ad8360208301602088016102d8565b80955050505050509250925092565b600082516102ce8184602087016102d8565b9190910192915050565b60005b838110156102f35781810151838201526020016102db565b83811115610302576000848401525b50505050565b634e487b7160e01b600052604160045260246000fd5b6106ab8061032d6000396000f3fe6080604052600436106100745760003560e01c80634f1ef2861161004e5780634f1ef2861461016e5780635c60da1b146101815780636fde82021461019f578063f1739cae146101bd5761007b565b8063025313a2146100fe5780633659cfe6146101305780634555d5c9146101525761007b565b3661007b57005b6000546001600160a01b0316806100d95760405162461bcd60e51b815260206004820152601d60248201527f50726f787920696d706c656d656e746174696f6e20726571756972656400000060448201526064015b60405180910390fd5b60405136600082376000803683855af43d806000843e8180156100fa578184f35b8184fd5b34801561010a57600080fd5b506101136101dd565b6040516001600160a01b0390911681526020015b60405180910390f35b34801561013c57600080fd5b5061015061014b3660046104ff565b6101f6565b005b34801561015e57600080fd5b5060405160028152602001610127565b61015061017c366004610520565b61023a565b34801561018d57600080fd5b506000546001600160a01b0316610113565b3480156101ab57600080fd5b506001546001600160a01b0316610113565b3480156101c957600080fd5b506101506101d83660046104ff565b61032b565b60006101f16001546001600160a01b031690565b905090565b6101fe6101dd565b6001600160a01b0316336001600160a01b03161461022e5760405162461bcd60e51b81526004016100d090610616565b6102378161042e565b50565b6102426101dd565b6001600160a01b0316336001600160a01b0316146102725760405162461bcd60e51b81526004016100d090610616565b61027b826101f6565b6000306001600160a01b03168260405161029591906105dd565b600060405180830381855af49150503d80600081146102d0576040519150601f19603f3d011682016040523d82523d6000602084013e6102d5565b606091505b50509050806103265760405162461bcd60e51b815260206004820152601f60248201527f43616c6c206661696c65642061667465722070726f787920757067726164650060448201526064016100d0565b505050565b6103336101dd565b6001600160a01b0316336001600160a01b0316146103635760405162461bcd60e51b81526004016100d090610616565b6001600160a01b0381166103c55760405162461bcd60e51b8152602060048201526024808201527f4e6577206f776e65722063616e6e6f7420626520746865206e756c6c206164646044820152637265737360e01b60648201526084016100d0565b7f5a3e66efaa1e445ebd894728a69d6959842ea1e97bd79b892797106e270efcd96103ee6101dd565b604080516001600160a01b03928316815291841660208301520160405180910390a1600180546001600160a01b0319166001600160a01b03831617905550565b6000546001600160a01b038281169116141561049b5760405162461bcd60e51b815260206004820152602660248201527f50726f787920616c72656164792075736573207468697320696d706c656d656e6044820152653a30ba34b7b760d11b60648201526084016100d0565b600080546001600160a01b0319166001600160a01b038316908117825560405190917fbc7cd75a20ee27fd9adebab32041f755214dbc6bffa90cc0225b39da2e5c2d3b91a250565b80356001600160a01b03811681146104fa57600080fd5b919050565b600060208284031215610510578081fd5b610519826104e3565b9392505050565b60008060408385031215610532578081fd5b61053b836104e3565b9150602083013567ffffffffffffffff80821115610557578283fd5b818501915085601f83011261056a578283fd5b81358181111561057c5761057c61065f565b604051601f8201601f19908116603f011681019083821181831017156105a4576105a461065f565b816040528281528860208487010111156105bc578586fd5b82602086016020830137856020848301015280955050505050509250929050565b60008251815b818110156105fd57602081860181015185830152016105e3565b8181111561060b5782828501525b509190910192915050565b60208082526029908201527f4f6e6c79207468652070726f7879206f776e65722063616e2063616c6c2074686040820152681a5cc81b595d1a1bd960ba1b606082015260800190565b634e487b7160e01b600052604160045260246000fdfea2646970667358221220ba2e18777d9afb4cc881f12e36cb709d6d57a6dd996d91794e74b0fe081b7fb964736f6c63430008040033a26469706673582212207a34733b7a45d3d2b2d59c607381cc62e0bf84c10a0d9c3d5d4602a450e7305f64736f6c6343000804003360806040526001805460ff60a01b1916905534801561001d57600080fd5b50610a658061002d6000396000f3fe6080604052600436106100845760003560e01c80634f8632ba116100565780634f8632ba1461015757806363d256ce1461018f5780636fde8202146101b05780637b103999146101ce5780638f4ffcb1146101ee57005b80631b0f7ba9146100c25780633f801f91146100f7578063485cc955146101175780634c93505f1461013757005b366100c05760405134815233907fa419615bc8fda4c87663805ee2a3597a6d71c1d476911d9892f340d965bc7bf19060200160405180910390a2005b005b3480156100ce57600080fd5b506100e26100dd366004610861565b61020e565b60405190151581526020015b60405180910390f35b34801561010357600080fd5b506100c0610112366004610861565b6104a9565b34801561012357600080fd5b506100c0610132366004610829565b6104fe565b34801561014357600080fd5b506100c061015236600461092e565b6105a9565b34801561016357600080fd5b50600254610177906001600160a01b031681565b6040516001600160a01b0390911681526020016100ee565b34801561019b57600080fd5b506003546100e290600160a01b900460ff1681565b3480156101bc57600080fd5b506001546001600160a01b0316610177565b3480156101da57600080fd5b50600354610177906001600160a01b031681565b3480156101fa57600080fd5b506100c06102093660046108c4565b610677565b6002546000906001600160a01b03163314806102b55750600354600160a01b900460ff161580156102b557506003546040516369dc9ff360e01b81523360048201526001600160a01b03909116906369dc9ff39060240160206040518083038186803b15801561027d57600080fd5b505afa158015610291573d6000803e3d6000fd5b505050506040513d601f19601f820116820180604052508101906102b59190610951565b61038b5760405162461bcd60e51b815260206004820152608a60248201527f41757468656e746963617465642070726f78792063616e206f6e6c792062652060448201527f63616c6c65642062792069747320757365722c206f72206279206120636f6e7460648201527f7261637420617574686f72697a6564206279207468652072656769737472792060848201527f6173206c6f6e6720617320746865207573657220686173206e6f74207265766f60a4820152696b65642061636365737360b01b60c482015260e4015b60405180910390fd5b606060008460018111156103af57634e487b7160e01b600052602160045260246000fd5b141561041a57846001600160a01b0316836040516103cd919061096d565b6000604051808303816000865af19150503d806000811461040a576040519150601f19603f3d011682016040523d82523d6000602084013e61040f565b606091505b5090925090506104a1565b600184600181111561043c57634e487b7160e01b600052602160045260246000fd5b14156104a157846001600160a01b03168360405161045a919061096d565b600060405180830381855af49150503d8060008114610495576040519150601f19603f3d011682016040523d82523d6000602084013e61049a565b606091505b5090925090505b509392505050565b6104b483838361020e565b6104f95760405162461bcd60e51b8152602060048201526016602482015275141c9bde1e48185cdcd95c9d1a5bdb8819985a5b195960521b6044820152606401610382565b505050565b600154600160a01b900460ff16156105685760405162461bcd60e51b815260206004820152602760248201527f41757468656e746963617465642070726f787920616c726561647920696e69746044820152661a585b1a5e995960ca1b6064820152608401610382565b6001805460ff60a01b1916600160a01b179055600280546001600160a01b039384166001600160a01b03199182161790915560038054929093169116179055565b6002546001600160a01b0316331461061f5760405162461bcd60e51b815260206004820152603360248201527f41757468656e746963617465642070726f78792063616e206f6e6c79206265206044820152723932bb37b5b2b210313c9034ba39903ab9b2b960691b6064820152608401610382565b60038054821515600160a01b0260ff60a01b199091161790556040517f2165014523a6f4135deffed62d70149aad59b64de5aac51e3abbcbe2a83e2f7e9061066c90831515815260200190565b60405180910390a150565b6040516323b872dd60e01b81526001600160a01b038581166004830152306024830152604482018590528391908216906323b872dd90606401602060405180830381600087803b1580156106ca57600080fd5b505af11580156106de573d6000803e3d6000fd5b505050506040513d601f19601f820116820180604052508101906107029190610951565b61074e5760405162461bcd60e51b815260206004820152601b60248201527f455243323020746f6b656e207472616e73666572206661696c656400000000006044820152606401610382565b826001600160a01b0316856001600160a01b03167fd65b48fd35864b3528d38e44760be5553248f89bf3ff6b06cca57817cc2650bf8685604051610793929190610989565b60405180910390a35050505050565b600082601f8301126107b2578081fd5b813567ffffffffffffffff808211156107cd576107cd6109f3565b604051601f8301601f19908116603f011681019082821181831017156107f5576107f56109f3565b8160405283815286602085880101111561080d578485fd5b8360208701602083013792830160200193909352509392505050565b6000806040838503121561083b578182fd5b823561084681610a09565b9150602083013561085681610a09565b809150509250929050565b600080600060608486031215610875578081fd5b833561088081610a09565b9250602084013560028110610893578182fd5b9150604084013567ffffffffffffffff8111156108ae578182fd5b6108ba868287016107a2565b9150509250925092565b600080600080608085870312156108d9578081fd5b84356108e481610a09565b93506020850135925060408501356108fb81610a09565b9150606085013567ffffffffffffffff811115610916578182fd5b610922878288016107a2565b91505092959194509250565b60006020828403121561093f578081fd5b813561094a81610a21565b9392505050565b600060208284031215610962578081fd5b815161094a81610a21565b6000825161097f8184602087016109c3565b9190910192915050565b82815260406020820152600082518060408401526109ae8160608501602087016109c3565b601f01601f1916919091016060019392505050565b60005b838110156109de5781810151838201526020016109c6565b838111156109ed576000848401525b50505050565b634e487b7160e01b600052604160045260246000fd5b6001600160a01b0381168114610a1e57600080fd5b50565b8015158114610a1e57600080fdfea26469706673582212201d2c3c39364d57724a5a8b2914718e42a01dd1923715ba2cdc6ca06d79d8277464736f6c63430008040033",
  "immutableReferences": {},
  "source": "// SPDX-License-Identifier: UNLICENSED\n/*\n\n  << Project Taureum Proxy Registry >>\n\n*/\n\npragma solidity 0.8.4;\n\nimport \"./registry/ProxyRegistry.sol\";\nimport \"./registry/AuthenticatedProxy.sol\";\n\n/**\n * @title TaureumProxyRegistry\n * @author Project Taureum Developers\n */\ncontract TaureumProxyRegistry is ProxyRegistry {\n\n    string public constant name = \"Project Taureum Proxy Registry\";\n\n    /* Whether the initial auth address has been set. */\n    bool public initialAddressSet = false;\n\n    constructor () {\n        delegateProxyImplementation = address(new AuthenticatedProxy());\n    }\n\n    /** \n     * Grant authentication to the initial Exchange protocol contract\n     *\n     * @dev No delay, can only be called once - after that the standard registry process with a delay must be used\n     * @param authAddress Address of the contract to grant authentication\n     */\n    function grantInitialAuthentication (address authAddress)\n        onlyOwner\n        public\n    {\n        require(!initialAddressSet);\n        initialAddressSet = true;\n        contracts[authAddress] = true;\n    }\n\n}\n",
  "sourcePath": "/home/toor/nodejs/truffle/nft_demo/taureum/taureum-nft-protocol-sc/contracts/TaureumProxyRegistry.sol",
  "compiler": {
    "name": "solc",
    "version": "0.8.4+commit.c7e474f2.Emscripten.clang"
  },
  "schemaVersion": "3.4.1",
  "updatedAt": "2021-08-29T11:39:26.702Z",
  "networkType": "ethereum",
  "devdoc": {
    "author": "Project Taureum Developers",
    "kind": "dev",
    "methods": {
      "endGrantAuthentication(address)": {
        "details": "ProxyRegistry owner only",
        "params": {
          "addr": "Address to which to grant permissions"
        }
      },
      "grantInitialAuthentication(address)": {
        "details": "No delay, can only be called once - after that the standard registry process with a delay must be used",
        "params": {
          "authAddress": "Address of the contract to grant authentication"
        }
      },
      "owner()": {
        "details": "Returns the address of the current owner."
      },
      "registerProxy()": {
        "details": "Must be called by the user which the proxy is for, creates a new AuthenticatedProxy",
        "returns": {
          "proxy": "New AuthenticatedProxy contract"
        }
      },
      "registerProxyFor(address)": {
        "details": "Can be called by any user",
        "returns": {
          "proxy": "New AuthenticatedProxy contract"
        }
      },
      "registerProxyOverride()": {
        "details": "Must be called by the user which the proxy is for, creates a new AuthenticatedProxy",
        "returns": {
          "proxy": "New AuthenticatedProxy contract"
        }
      },
      "renounceOwnership()": {
        "details": "Leaves the contract without owner. It will not be possible to call `onlyOwner` functions anymore. Can only be called by the current owner. NOTE: Renouncing ownership will leave the contract without an owner, thereby removing any functionality that is only available to the owner."
      },
      "revokeAuthentication(address)": {
        "details": "ProxyRegistry owner only",
        "params": {
          "addr": "Address of which to revoke permissions"
        }
      },
      "startGrantAuthentication(address)": {
        "details": "ProxyRegistry owner only",
        "params": {
          "addr": "Address to which to grant permissions"
        }
      },
      "transferOwnership(address)": {
        "details": "Transfers ownership of the contract to a new account (`newOwner`). Can only be called by the current owner."
      }
    },
    "title": "TaureumProxyRegistry",
    "version": 1
  },
  "userdoc": {
    "kind": "user",
    "methods": {
      "endGrantAuthentication(address)": {
        "notice": "End the process to enable access for specified contract after delay period has passed."
      },
      "grantInitialAuthentication(address)": {
        "notice": "Grant authentication to the initial Exchange protocol contract"
      },
      "registerProxy()": {
        "notice": "Register a proxy contract with this registry"
      },
      "registerProxyFor(address)": {
        "notice": "Register a proxy contract with this registry"
      },
      "registerProxyOverride()": {
        "notice": "Register a proxy contract with this registry, overriding any existing proxy"
      },
      "revokeAuthentication(address)": {
        "notice": "Revoke access for specified contract. Can be done instantly."
      },
      "startGrantAuthentication(address)": {
        "notice": "Start the process to enable access for specified contract. Subject to delay period."
      },
      "transferAccessTo(address,address)": {
        "notice": "Transfer access"
      }
    },
    "version": 1
  }
}