{
  "contractName": "TaureumExchange",
  "abi": [
    {
      "inputs": [
        {
          "internalType": "contract ProxyRegistry",
          "name": "registryAddress",
          "type": "address"
        },
        {
          "internalType": "contract TokenTransferProxy",
          "name": "tokenTransferProxyAddress",
          "type": "address"
        },
        {
          "internalType": "contract ERC20",
          "name": "tokenAddress",
          "type": "address"
        },
        {
          "internalType": "address",
          "name": "protocolFeeAddress",
          "type": "address"
        }
      ],
      "stateMutability": "nonpayable",
      "type": "constructor"
    },
    {
      "anonymous": false,
      "inputs": [
        {
          "indexed": true,
          "internalType": "bytes32",
          "name": "hash",
          "type": "bytes32"
        },
        {
          "indexed": false,
          "internalType": "address",
          "name": "exchange",
          "type": "address"
        },
        {
          "indexed": true,
          "internalType": "address",
          "name": "maker",
          "type": "address"
        },
        {
          "indexed": false,
          "internalType": "address",
          "name": "taker",
          "type": "address"
        },
        {
          "indexed": false,
          "internalType": "uint256",
          "name": "makerRelayerFee",
          "type": "uint256"
        },
        {
          "indexed": false,
          "internalType": "uint256",
          "name": "takerRelayerFee",
          "type": "uint256"
        },
        {
          "indexed": false,
          "internalType": "uint256",
          "name": "makerProtocolFee",
          "type": "uint256"
        },
        {
          "indexed": false,
          "internalType": "uint256",
          "name": "takerProtocolFee",
          "type": "uint256"
        },
        {
          "indexed": true,
          "internalType": "address",
          "name": "feeRecipient",
          "type": "address"
        },
        {
          "indexed": false,
          "internalType": "enum ExchangeCore.FeeMethod",
          "name": "feeMethod",
          "type": "uint8"
        },
        {
          "indexed": false,
          "internalType": "enum SaleKindInterface.Side",
          "name": "side",
          "type": "uint8"
        },
        {
          "indexed": false,
          "internalType": "enum SaleKindInterface.SaleKind",
          "name": "saleKind",
          "type": "uint8"
        },
        {
          "indexed": false,
          "internalType": "address",
          "name": "target",
          "type": "address"
        }
      ],
      "name": "OrderApprovedPartOne",
      "type": "event"
    },
    {
      "anonymous": false,
      "inputs": [
        {
          "indexed": true,
          "internalType": "bytes32",
          "name": "hash",
          "type": "bytes32"
        },
        {
          "indexed": false,
          "internalType": "enum AuthenticatedProxy.HowToCall",
          "name": "howToCall",
          "type": "uint8"
        },
        {
          "indexed": false,
          "internalType": "bytes",
          "name": "callData",
          "type": "bytes"
        },
        {
          "indexed": false,
          "internalType": "bytes",
          "name": "replacementPattern",
          "type": "bytes"
        },
        {
          "indexed": false,
          "internalType": "address",
          "name": "staticTarget",
          "type": "address"
        },
        {
          "indexed": false,
          "internalType": "bytes",
          "name": "staticExtradata",
          "type": "bytes"
        },
        {
          "indexed": false,
          "internalType": "address",
          "name": "paymentToken",
          "type": "address"
        },
        {
          "indexed": false,
          "internalType": "uint256",
          "name": "basePrice",
          "type": "uint256"
        },
        {
          "indexed": false,
          "internalType": "uint256",
          "name": "extra",
          "type": "uint256"
        },
        {
          "indexed": false,
          "internalType": "uint256",
          "name": "listingTime",
          "type": "uint256"
        },
        {
          "indexed": false,
          "internalType": "uint256",
          "name": "expirationTime",
          "type": "uint256"
        },
        {
          "indexed": false,
          "internalType": "uint256",
          "name": "salt",
          "type": "uint256"
        },
        {
          "indexed": false,
          "internalType": "bool",
          "name": "orderbookInclusionDesired",
          "type": "bool"
        }
      ],
      "name": "OrderApprovedPartTwo",
      "type": "event"
    },
    {
      "anonymous": false,
      "inputs": [
        {
          "indexed": true,
          "internalType": "bytes32",
          "name": "hash",
          "type": "bytes32"
        }
      ],
      "name": "OrderCancelled",
      "type": "event"
    },
    {
      "anonymous": false,
      "inputs": [
        {
          "indexed": false,
          "internalType": "bytes32",
          "name": "buyHash",
          "type": "bytes32"
        },
        {
          "indexed": false,
          "internalType": "bytes32",
          "name": "sellHash",
          "type": "bytes32"
        },
        {
          "indexed": true,
          "internalType": "address",
          "name": "maker",
          "type": "address"
        },
        {
          "indexed": true,
          "internalType": "address",
          "name": "taker",
          "type": "address"
        },
        {
          "indexed": false,
          "internalType": "uint256",
          "name": "price",
          "type": "uint256"
        },
        {
          "indexed": true,
          "internalType": "bytes32",
          "name": "metadata",
          "type": "bytes32"
        }
      ],
      "name": "OrdersMatched",
      "type": "event"
    },
    {
      "anonymous": false,
      "inputs": [
        {
          "indexed": true,
          "internalType": "address",
          "name": "previousOwner",
          "type": "address"
        },
        {
          "indexed": true,
          "internalType": "address",
          "name": "newOwner",
          "type": "address"
        }
      ],
      "name": "OwnershipTransferred",
      "type": "event"
    },
    {
      "inputs": [],
      "name": "INVERSE_BASIS_POINT",
      "outputs": [
        {
          "internalType": "uint256",
          "name": "",
          "type": "uint256"
        }
      ],
      "stateMutability": "view",
      "type": "function",
      "constant": true
    },
    {
      "inputs": [
        {
          "internalType": "address[7]",
          "name": "addrs",
          "type": "address[7]"
        },
        {
          "internalType": "uint256[9]",
          "name": "uints",
          "type": "uint256[9]"
        },
        {
          "internalType": "enum ExchangeCore.FeeMethod",
          "name": "feeMethod",
          "type": "uint8"
        },
        {
          "internalType": "enum SaleKindInterface.Side",
          "name": "side",
          "type": "uint8"
        },
        {
          "internalType": "enum SaleKindInterface.SaleKind",
          "name": "saleKind",
          "type": "uint8"
        },
        {
          "internalType": "enum AuthenticatedProxy.HowToCall",
          "name": "howToCall",
          "type": "uint8"
        },
        {
          "internalType": "bytes",
          "name": "callData",
          "type": "bytes"
        },
        {
          "internalType": "bytes",
          "name": "replacementPattern",
          "type": "bytes"
        },
        {
          "internalType": "bytes",
          "name": "staticExtradata",
          "type": "bytes"
        },
        {
          "internalType": "bool",
          "name": "orderbookInclusionDesired",
          "type": "bool"
        }
      ],
      "name": "approveOrder_",
      "outputs": [],
      "stateMutability": "nonpayable",
      "type": "function"
    },
    {
      "inputs": [
        {
          "internalType": "bytes32",
          "name": "",
          "type": "bytes32"
        }
      ],
      "name": "approvedOrders",
      "outputs": [
        {
          "internalType": "bool",
          "name": "",
          "type": "bool"
        }
      ],
      "stateMutability": "view",
      "type": "function",
      "constant": true
    },
    {
      "inputs": [
        {
          "internalType": "address[14]",
          "name": "addrs",
          "type": "address[14]"
        },
        {
          "internalType": "uint256[18]",
          "name": "uints",
          "type": "uint256[18]"
        },
        {
          "internalType": "uint8[8]",
          "name": "feeMethodsSidesKindsHowToCalls",
          "type": "uint8[8]"
        },
        {
          "internalType": "bytes",
          "name": "callDataBuy",
          "type": "bytes"
        },
        {
          "internalType": "bytes",
          "name": "callDataSell",
          "type": "bytes"
        },
        {
          "internalType": "bytes",
          "name": "replacementPatternBuy",
          "type": "bytes"
        },
        {
          "internalType": "bytes",
          "name": "replacementPatternSell",
          "type": "bytes"
        },
        {
          "internalType": "bytes",
          "name": "staticExtradataBuy",
          "type": "bytes"
        },
        {
          "internalType": "bytes",
          "name": "staticExtradataSell",
          "type": "bytes"
        },
        {
          "internalType": "uint8[2]",
          "name": "vs",
          "type": "uint8[2]"
        },
        {
          "internalType": "bytes32[5]",
          "name": "rssMetadata",
          "type": "bytes32[5]"
        }
      ],
      "name": "atomicMatch_",
      "outputs": [],
      "stateMutability": "payable",
      "type": "function",
      "payable": true
    },
    {
      "inputs": [
        {
          "internalType": "address[7]",
          "name": "addrs",
          "type": "address[7]"
        },
        {
          "internalType": "uint256[9]",
          "name": "uints",
          "type": "uint256[9]"
        },
        {
          "internalType": "enum ExchangeCore.FeeMethod",
          "name": "feeMethod",
          "type": "uint8"
        },
        {
          "internalType": "enum SaleKindInterface.Side",
          "name": "side",
          "type": "uint8"
        },
        {
          "internalType": "enum SaleKindInterface.SaleKind",
          "name": "saleKind",
          "type": "uint8"
        },
        {
          "internalType": "enum AuthenticatedProxy.HowToCall",
          "name": "howToCall",
          "type": "uint8"
        },
        {
          "internalType": "bytes",
          "name": "callData",
          "type": "bytes"
        },
        {
          "internalType": "bytes",
          "name": "replacementPattern",
          "type": "bytes"
        },
        {
          "internalType": "bytes",
          "name": "staticExtradata",
          "type": "bytes"
        }
      ],
      "name": "calculateCurrentPrice_",
      "outputs": [
        {
          "internalType": "uint256",
          "name": "",
          "type": "uint256"
        }
      ],
      "stateMutability": "view",
      "type": "function",
      "constant": true
    },
    {
      "inputs": [
        {
          "internalType": "address[14]",
          "name": "addrs",
          "type": "address[14]"
        },
        {
          "internalType": "uint256[18]",
          "name": "uints",
          "type": "uint256[18]"
        },
        {
          "internalType": "uint8[8]",
          "name": "feeMethodsSidesKindsHowToCalls",
          "type": "uint8[8]"
        },
        {
          "internalType": "bytes",
          "name": "callDataBuy",
          "type": "bytes"
        },
        {
          "internalType": "bytes",
          "name": "callDataSell",
          "type": "bytes"
        },
        {
          "internalType": "bytes",
          "name": "replacementPatternBuy",
          "type": "bytes"
        },
        {
          "internalType": "bytes",
          "name": "replacementPatternSell",
          "type": "bytes"
        },
        {
          "internalType": "bytes",
          "name": "staticExtradataBuy",
          "type": "bytes"
        },
        {
          "internalType": "bytes",
          "name": "staticExtradataSell",
          "type": "bytes"
        }
      ],
      "name": "calculateMatchPrice_",
      "outputs": [
        {
          "internalType": "uint256",
          "name": "",
          "type": "uint256"
        }
      ],
      "stateMutability": "view",
      "type": "function",
      "constant": true
    },
    {
      "inputs": [
        {
          "internalType": "address[7]",
          "name": "addrs",
          "type": "address[7]"
        },
        {
          "internalType": "uint256[9]",
          "name": "uints",
          "type": "uint256[9]"
        },
        {
          "internalType": "enum ExchangeCore.FeeMethod",
          "name": "feeMethod",
          "type": "uint8"
        },
        {
          "internalType": "enum SaleKindInterface.Side",
          "name": "side",
          "type": "uint8"
        },
        {
          "internalType": "enum SaleKindInterface.SaleKind",
          "name": "saleKind",
          "type": "uint8"
        },
        {
          "internalType": "enum AuthenticatedProxy.HowToCall",
          "name": "howToCall",
          "type": "uint8"
        },
        {
          "internalType": "bytes",
          "name": "callData",
          "type": "bytes"
        },
        {
          "internalType": "bytes",
          "name": "replacementPattern",
          "type": "bytes"
        },
        {
          "internalType": "bytes",
          "name": "staticExtradata",
          "type": "bytes"
        },
        {
          "internalType": "uint8",
          "name": "v",
          "type": "uint8"
        },
        {
          "internalType": "bytes32",
          "name": "r",
          "type": "bytes32"
        },
        {
          "internalType": "bytes32",
          "name": "s",
          "type": "bytes32"
        }
      ],
      "name": "cancelOrder_",
      "outputs": [],
      "stateMutability": "nonpayable",
      "type": "function"
    },
    {
      "inputs": [
        {
          "internalType": "bytes32",
          "name": "",
          "type": "bytes32"
        }
      ],
      "name": "cancelledOrFinalized",
      "outputs": [
        {
          "internalType": "bool",
          "name": "",
          "type": "bool"
        }
      ],
      "stateMutability": "view",
      "type": "function",
      "constant": true
    },
    {
      "inputs": [
        {
          "internalType": "uint256",
          "name": "newMinimumMakerProtocolFee",
          "type": "uint256"
        }
      ],
      "name": "changeMinimumMakerProtocolFee",
      "outputs": [],
      "stateMutability": "nonpayable",
      "type": "function"
    },
    {
      "inputs": [
        {
          "internalType": "uint256",
          "name": "newMinimumTakerProtocolFee",
          "type": "uint256"
        }
      ],
      "name": "changeMinimumTakerProtocolFee",
      "outputs": [],
      "stateMutability": "nonpayable",
      "type": "function"
    },
    {
      "inputs": [
        {
          "internalType": "address",
          "name": "newProtocolFeeRecipient",
          "type": "address"
        }
      ],
      "name": "changeProtocolFeeRecipient",
      "outputs": [],
      "stateMutability": "nonpayable",
      "type": "function"
    },
    {
      "inputs": [],
      "name": "codename",
      "outputs": [
        {
          "internalType": "string",
          "name": "",
          "type": "string"
        }
      ],
      "stateMutability": "view",
      "type": "function",
      "constant": true
    },
    {
      "inputs": [],
      "name": "exchangeToken",
      "outputs": [
        {
          "internalType": "contract ERC20",
          "name": "",
          "type": "address"
        }
      ],
      "stateMutability": "view",
      "type": "function",
      "constant": true
    },
    {
      "inputs": [
        {
          "internalType": "address[7]",
          "name": "addrs",
          "type": "address[7]"
        },
        {
          "internalType": "uint256[9]",
          "name": "uints",
          "type": "uint256[9]"
        },
        {
          "internalType": "enum ExchangeCore.FeeMethod",
          "name": "feeMethod",
          "type": "uint8"
        },
        {
          "internalType": "enum SaleKindInterface.Side",
          "name": "side",
          "type": "uint8"
        },
        {
          "internalType": "enum SaleKindInterface.SaleKind",
          "name": "saleKind",
          "type": "uint8"
        },
        {
          "internalType": "enum AuthenticatedProxy.HowToCall",
          "name": "howToCall",
          "type": "uint8"
        },
        {
          "internalType": "bytes",
          "name": "callData",
          "type": "bytes"
        },
        {
          "internalType": "bytes",
          "name": "replacementPattern",
          "type": "bytes"
        },
        {
          "internalType": "bytes",
          "name": "staticExtradata",
          "type": "bytes"
        }
      ],
      "name": "hashOrder_",
      "outputs": [
        {
          "internalType": "bytes32",
          "name": "",
          "type": "bytes32"
        }
      ],
      "stateMutability": "pure",
      "type": "function",
      "constant": true
    },
    {
      "inputs": [
        {
          "internalType": "address[7]",
          "name": "addrs",
          "type": "address[7]"
        },
        {
          "internalType": "uint256[9]",
          "name": "uints",
          "type": "uint256[9]"
        },
        {
          "internalType": "enum ExchangeCore.FeeMethod",
          "name": "feeMethod",
          "type": "uint8"
        },
        {
          "internalType": "enum SaleKindInterface.Side",
          "name": "side",
          "type": "uint8"
        },
        {
          "internalType": "enum SaleKindInterface.SaleKind",
          "name": "saleKind",
          "type": "uint8"
        },
        {
          "internalType": "enum AuthenticatedProxy.HowToCall",
          "name": "howToCall",
          "type": "uint8"
        },
        {
          "internalType": "bytes",
          "name": "callData",
          "type": "bytes"
        },
        {
          "internalType": "bytes",
          "name": "replacementPattern",
          "type": "bytes"
        },
        {
          "internalType": "bytes",
          "name": "staticExtradata",
          "type": "bytes"
        }
      ],
      "name": "hashToSign_",
      "outputs": [
        {
          "internalType": "bytes32",
          "name": "",
          "type": "bytes32"
        }
      ],
      "stateMutability": "pure",
      "type": "function",
      "constant": true
    },
    {
      "inputs": [],
      "name": "minimumMakerProtocolFee",
      "outputs": [
        {
          "internalType": "uint256",
          "name": "",
          "type": "uint256"
        }
      ],
      "stateMutability": "view",
      "type": "function",
      "constant": true
    },
    {
      "inputs": [],
      "name": "minimumTakerProtocolFee",
      "outputs": [
        {
          "internalType": "uint256",
          "name": "",
          "type": "uint256"
        }
      ],
      "stateMutability": "view",
      "type": "function",
      "constant": true
    },
    {
      "inputs": [],
      "name": "name",
      "outputs": [
        {
          "internalType": "string",
          "name": "",
          "type": "string"
        }
      ],
      "stateMutability": "view",
      "type": "function",
      "constant": true
    },
    {
      "inputs": [
        {
          "internalType": "bytes",
          "name": "buyCalldata",
          "type": "bytes"
        },
        {
          "internalType": "bytes",
          "name": "buyReplacementPattern",
          "type": "bytes"
        },
        {
          "internalType": "bytes",
          "name": "sellCalldata",
          "type": "bytes"
        },
        {
          "internalType": "bytes",
          "name": "sellReplacementPattern",
          "type": "bytes"
        }
      ],
      "name": "orderCalldataCanMatch",
      "outputs": [
        {
          "internalType": "bool",
          "name": "",
          "type": "bool"
        }
      ],
      "stateMutability": "pure",
      "type": "function",
      "constant": true
    },
    {
      "inputs": [
        {
          "internalType": "address[14]",
          "name": "addrs",
          "type": "address[14]"
        },
        {
          "internalType": "uint256[18]",
          "name": "uints",
          "type": "uint256[18]"
        },
        {
          "internalType": "uint8[8]",
          "name": "feeMethodsSidesKindsHowToCalls",
          "type": "uint8[8]"
        },
        {
          "internalType": "bytes",
          "name": "callDataBuy",
          "type": "bytes"
        },
        {
          "internalType": "bytes",
          "name": "callDataSell",
          "type": "bytes"
        },
        {
          "internalType": "bytes",
          "name": "replacementPatternBuy",
          "type": "bytes"
        },
        {
          "internalType": "bytes",
          "name": "replacementPatternSell",
          "type": "bytes"
        },
        {
          "internalType": "bytes",
          "name": "staticExtradataBuy",
          "type": "bytes"
        },
        {
          "internalType": "bytes",
          "name": "staticExtradataSell",
          "type": "bytes"
        }
      ],
      "name": "ordersCanMatch_",
      "outputs": [
        {
          "internalType": "bool",
          "name": "",
          "type": "bool"
        }
      ],
      "stateMutability": "view",
      "type": "function",
      "constant": true
    },
    {
      "inputs": [],
      "name": "owner",
      "outputs": [
        {
          "internalType": "address",
          "name": "",
          "type": "address"
        }
      ],
      "stateMutability": "view",
      "type": "function",
      "constant": true
    },
    {
      "inputs": [],
      "name": "protocolFeeRecipient",
      "outputs": [
        {
          "internalType": "address",
          "name": "",
          "type": "address"
        }
      ],
      "stateMutability": "view",
      "type": "function",
      "constant": true
    },
    {
      "inputs": [],
      "name": "registry",
      "outputs": [
        {
          "internalType": "contract ProxyRegistry",
          "name": "",
          "type": "address"
        }
      ],
      "stateMutability": "view",
      "type": "function",
      "constant": true
    },
    {
      "inputs": [],
      "name": "renounceOwnership",
      "outputs": [],
      "stateMutability": "nonpayable",
      "type": "function"
    },
    {
      "inputs": [
        {
          "internalType": "address",
          "name": "target",
          "type": "address"
        },
        {
          "internalType": "bytes",
          "name": "callData",
          "type": "bytes"
        },
        {
          "internalType": "bytes",
          "name": "extradata",
          "type": "bytes"
        }
      ],
      "name": "staticCall",
      "outputs": [
        {
          "internalType": "bool",
          "name": "result",
          "type": "bool"
        }
      ],
      "stateMutability": "view",
      "type": "function",
      "constant": true
    },
    {
      "inputs": [],
      "name": "tokenTransferProxy",
      "outputs": [
        {
          "internalType": "contract TokenTransferProxy",
          "name": "",
          "type": "address"
        }
      ],
      "stateMutability": "view",
      "type": "function",
      "constant": true
    },
    {
      "inputs": [
        {
          "internalType": "address",
          "name": "newOwner",
          "type": "address"
        }
      ],
      "name": "transferOwnership",
      "outputs": [],
      "stateMutability": "nonpayable",
      "type": "function"
    },
    {
      "inputs": [
        {
          "internalType": "address[7]",
          "name": "addrs",
          "type": "address[7]"
        },
        {
          "internalType": "uint256[9]",
          "name": "uints",
          "type": "uint256[9]"
        },
        {
          "internalType": "enum ExchangeCore.FeeMethod",
          "name": "feeMethod",
          "type": "uint8"
        },
        {
          "internalType": "enum SaleKindInterface.Side",
          "name": "side",
          "type": "uint8"
        },
        {
          "internalType": "enum SaleKindInterface.SaleKind",
          "name": "saleKind",
          "type": "uint8"
        },
        {
          "internalType": "enum AuthenticatedProxy.HowToCall",
          "name": "howToCall",
          "type": "uint8"
        },
        {
          "internalType": "bytes",
          "name": "callData",
          "type": "bytes"
        },
        {
          "internalType": "bytes",
          "name": "replacementPattern",
          "type": "bytes"
        },
        {
          "internalType": "bytes",
          "name": "staticExtradata",
          "type": "bytes"
        }
      ],
      "name": "validateOrderParameters_",
      "outputs": [
        {
          "internalType": "bool",
          "name": "",
          "type": "bool"
        }
      ],
      "stateMutability": "view",
      "type": "function",
      "constant": true
    },
    {
      "inputs": [
        {
          "internalType": "address[7]",
          "name": "addrs",
          "type": "address[7]"
        },
        {
          "internalType": "uint256[9]",
          "name": "uints",
          "type": "uint256[9]"
        },
        {
          "internalType": "enum ExchangeCore.FeeMethod",
          "name": "feeMethod",
          "type": "uint8"
        },
        {
          "internalType": "enum SaleKindInterface.Side",
          "name": "side",
          "type": "uint8"
        },
        {
          "internalType": "enum SaleKindInterface.SaleKind",
          "name": "saleKind",
          "type": "uint8"
        },
        {
          "internalType": "enum AuthenticatedProxy.HowToCall",
          "name": "howToCall",
          "type": "uint8"
        },
        {
          "internalType": "bytes",
          "name": "callData",
          "type": "bytes"
        },
        {
          "internalType": "bytes",
          "name": "replacementPattern",
          "type": "bytes"
        },
        {
          "internalType": "bytes",
          "name": "staticExtradata",
          "type": "bytes"
        },
        {
          "internalType": "uint8",
          "name": "v",
          "type": "uint8"
        },
        {
          "internalType": "bytes32",
          "name": "r",
          "type": "bytes32"
        },
        {
          "internalType": "bytes32",
          "name": "s",
          "type": "bytes32"
        }
      ],
      "name": "validateOrder_",
      "outputs": [
        {
          "internalType": "bool",
          "name": "",
          "type": "bool"
        }
      ],
      "stateMutability": "view",
      "type": "function",
      "constant": true
    },
    {
      "inputs": [],
      "name": "version",
      "outputs": [
        {
          "internalType": "string",
          "name": "",
          "type": "string"
        }
      ],
      "stateMutability": "view",
      "type": "function",
      "constant": true
    }
  ],
  "bytecode": "0x60806040526000805460ff1916815560068190556007553480156200002357600080fd5b506040516200634a3803806200634a8339810160408190526200004691620000e2565b60008054610100600160a81b031916336101008102919091178255604051909182917f8be0079c531659141344cd1fd0a4f28419497f9722a3daafe3b4186f6b6457e0908290a350600280546001600160a01b039586166001600160a01b031991821617909155600380549486169482169490941790935560018054928516928416929092179091556008805491909316911617905562000162565b60008060008060808587031215620000f8578384fd5b8451620001058162000149565b6020860151909450620001188162000149565b60408601519093506200012b8162000149565b60608601519092506200013e8162000149565b939692955090935050565b6001600160a01b03811681146200015f57600080fd5b50565b6161d880620001726000396000f3fe6080604052600436106101cd5760003560e01c806372593b4c116100f7578063a25eb5d911610095578063cae6047f11610064578063cae6047f14610589578063d537e1311461059f578063e57d4adb146105bf578063f2fde38b146105ef57600080fd5b8063a25eb5d914610516578063a8a41c7014610536578063ab834bab14610556578063ca595b9a1461056957600080fd5b80637ccefc52116100d15780637ccefc521461048d5780637d766981146104a35780638076f005146104c35780638da5cb5b146104f357600080fd5b806372593b4c1461042d578063796668681461044d5780637b1039991461046d57600080fd5b80633f67ee0d1161016f57806360bef33a1161013e57806360bef33a146103b857806364df049e146103d8578063715018a6146103f857806371d02b381461040d57600080fd5b80633f67ee0d14610329578063514f03301461034957806354fd4d5014610369578063562b2ebc1461039857600080fd5b806314350c24116101ab57806314350c241461028c5780631a6b13e2146102ae57806328a8ee68146102ce57806331e63199146102f257600080fd5b806306fdde03146101d25780630eefdbad1461022457806310796a471461025c575b600080fd5b3480156101de57600080fd5b5061020e6040518060400160405280601081526020016f5461757265756d2045786368616e676560801b81525081565b60405161021b9190616061565b60405180910390f35b34801561023057600080fd5b50600354610244906001600160a01b031681565b6040516001600160a01b03909116815260200161021b565b34801561026857600080fd5b5061027c6102773660046157f7565b61060f565b604051901515815260200161021b565b34801561029857600080fd5b506102ac6102a7366004615e0c565b6106a7565b005b3480156102ba57600080fd5b506102ac6102c9366004615e0c565b6106e5565b3480156102da57600080fd5b506102e460075481565b60405190815260200161021b565b3480156102fe57600080fd5b5061020e6040518060400160405280600b81526020016a5461757265756d4265746160a81b81525081565b34801561033557600080fd5b506102e4610344366004615af2565b61071a565b34801561035557600080fd5b506102ac6103643660046157bf565b610a72565b34801561037557600080fd5b5061020e60405180604001604052806003815260200162302e3160e81b81525081565b3480156103a457600080fd5b5061027c6103b3366004615e24565b610ac4565b3480156103c457600080fd5b5061027c6103d3366004615cc7565b610afe565b3480156103e457600080fd5b50600854610244906001600160a01b031681565b34801561040457600080fd5b506102ac610ea9565b34801561041957600080fd5b506102e4610428366004615af2565b610f28565b34801561043957600080fd5b5061027c610448366004615869565b611272565b34801561045957600080fd5b506102ac610468366004615bc5565b611a77565b34801561047957600080fd5b50600254610244906001600160a01b031681565b34801561049957600080fd5b506102e460065481565b3480156104af57600080fd5b506102e46104be366004615af2565b611dd2565b3480156104cf57600080fd5b5061027c6104de366004615e0c565b60046020526000908152604090205460ff1681565b3480156104ff57600080fd5b5060005461010090046001600160a01b0316610244565b34801561052257600080fd5b50600154610244906001600160a01b031681565b34801561054257600080fd5b506102ac610551366004615cc7565b61211c565b6102ac610564366004615994565b6124b2565b34801561057557600080fd5b5061027c610584366004615af2565b612d83565b34801561059557600080fd5b506102e461271081565b3480156105ab57600080fd5b506102e46105ba366004615869565b6130e0565b3480156105cb57600080fd5b5061027c6105da366004615e0c565b60056020526000908152604090205460ff1681565b3480156105fb57600080fd5b506102ac61060a3660046157bf565b6138d5565b6000808251845161062091906160a9565b6001600160401b0381111561064557634e487b7160e01b600052604160045260246000fd5b6040519080825280601f01601f19166020018201604052801561066f576020820181803683370190505b5090506020810161068081856139d0565b905061068c81866139d0565b506000604051835160208501895afa925050505b9392505050565b6000546001600160a01b036101009091041633146106e05760405162461bcd60e51b81526004016106d790616074565b60405180910390fd5b600655565b6000546001600160a01b036101009091041633146107155760405162461bcd60e51b81526004016106d790616074565b600755565b6000610a64604051806102e001604052808c60006007811061074c57634e487b7160e01b600052603260045260246000fd5b60200201516001600160a01b031681526020018c60016007811061078057634e487b7160e01b600052603260045260246000fd5b60200201516001600160a01b031681526020018c6002600781106107b457634e487b7160e01b600052603260045260246000fd5b60200201516001600160a01b031681526020018b6000600981106107e857634e487b7160e01b600052603260045260246000fd5b602002015181526020018b60016009811061081357634e487b7160e01b600052603260045260246000fd5b602002015181526020018b60026009811061083e57634e487b7160e01b600052603260045260246000fd5b602002015181526020018b60036009811061086957634e487b7160e01b600052603260045260246000fd5b602002015181526020018c60036007811061089457634e487b7160e01b600052603260045260246000fd5b60200201516001600160a01b031681526020018a60018111156108c757634e487b7160e01b600052602160045260246000fd5b81526020018960018111156108ec57634e487b7160e01b600052602160045260246000fd5b815260200188600181111561091157634e487b7160e01b600052602160045260246000fd5b815260808d01516001600160a01b0316602082015260400187600181111561094957634e487b7160e01b600052602160045260246000fd5b8152602081018790526040810186905260a0808e01516001600160a01b0316606083015260808201869052018c600660200201516001600160a01b031681526020018b6004600981106109ac57634e487b7160e01b600052603260045260246000fd5b602002015181526020018b6005600981106109d757634e487b7160e01b600052603260045260246000fd5b602002015181526020018b600660098110610a0257634e487b7160e01b600052603260045260246000fd5b602002015181526020018b600760098110610a2d57634e487b7160e01b600052603260045260246000fd5b602002015181526020018b600860098110610a5857634e487b7160e01b600052603260045260246000fd5b60200201519052613a13565b9a9950505050505050505050565b6000546001600160a01b03610100909104163314610aa25760405162461bcd60e51b81526004016106d790616074565b600880546001600160a01b0319166001600160a01b0392909216919091179055565b825160009015610ad957610ad9858486613a47565b815115610aeb57610aeb838684613a47565b610af58584613cbb565b95945050505050565b600080604051806102e001604052808f600060078110610b2e57634e487b7160e01b600052603260045260246000fd5b60200201516001600160a01b031681526020018f600160078110610b6257634e487b7160e01b600052603260045260246000fd5b60200201516001600160a01b031681526020018f600260078110610b9657634e487b7160e01b600052603260045260246000fd5b60200201516001600160a01b031681526020018e600060098110610bca57634e487b7160e01b600052603260045260246000fd5b602002015181526020018e600160098110610bf557634e487b7160e01b600052603260045260246000fd5b602002015181526020018e600260098110610c2057634e487b7160e01b600052603260045260246000fd5b602002015181526020018e600360098110610c4b57634e487b7160e01b600052603260045260246000fd5b602002015181526020018f600360078110610c7657634e487b7160e01b600052603260045260246000fd5b60200201516001600160a01b031681526020018d6001811115610ca957634e487b7160e01b600052602160045260246000fd5b81526020018c6001811115610cce57634e487b7160e01b600052602160045260246000fd5b81526020018b6001811115610cf357634e487b7160e01b600052602160045260246000fd5b81526020018f600460200201516001600160a01b031681526020018a6001811115610d2e57634e487b7160e01b600052602160045260246000fd5b8152602081018a9052604081018990526060018f600560200201516001600160a01b031681526020018781526020018f600660078110610d7e57634e487b7160e01b600052603260045260246000fd5b60200201516001600160a01b031681526020018e600460098110610db257634e487b7160e01b600052603260045260246000fd5b602002015181526020018e600560098110610ddd57634e487b7160e01b600052603260045260246000fd5b602002015181526020018e600660098110610e0857634e487b7160e01b600052603260045260246000fd5b602002015181526020018e600760098110610e3357634e487b7160e01b600052603260045260246000fd5b602002015181526020018e600860098110610e5e57634e487b7160e01b600052603260045260246000fd5b602002015190529050610e97610e7382613d1f565b8260405180606001604052808960ff16815260200188815260200187815250613d89565b9e9d5050505050505050505050505050565b6000546001600160a01b03610100909104163314610ed95760405162461bcd60e51b81526004016106d790616074565b600080546040516101009091046001600160a01b0316907f8be0079c531659141344cd1fd0a4f28419497f9722a3daafe3b4186f6b6457e0908390a360008054610100600160a81b0319169055565b6000610a64604051806102e001604052808c600060078110610f5a57634e487b7160e01b600052603260045260246000fd5b60200201516001600160a01b031681526020018c600160078110610f8e57634e487b7160e01b600052603260045260246000fd5b60200201516001600160a01b031681526020018c600260078110610fc257634e487b7160e01b600052603260045260246000fd5b60200201516001600160a01b031681526020018b600060098110610ff657634e487b7160e01b600052603260045260246000fd5b602002015181526020018b60016009811061102157634e487b7160e01b600052603260045260246000fd5b602002015181526020018b60026009811061104c57634e487b7160e01b600052603260045260246000fd5b602002015181526020018b60036009811061107757634e487b7160e01b600052603260045260246000fd5b602002015181526020018c6003600781106110a257634e487b7160e01b600052603260045260246000fd5b60200201516001600160a01b031681526020018a60018111156110d557634e487b7160e01b600052602160045260246000fd5b81526020018960018111156110fa57634e487b7160e01b600052602160045260246000fd5b815260200188600181111561111f57634e487b7160e01b600052602160045260246000fd5b815260808d01516001600160a01b0316602082015260400187600181111561115757634e487b7160e01b600052602160045260246000fd5b8152602081018790526040810186905260a0808e01516001600160a01b0316606083015260808201869052018c600660200201516001600160a01b031681526020018b6004600981106111ba57634e487b7160e01b600052603260045260246000fd5b602002015181526020018b6005600981106111e557634e487b7160e01b600052603260045260246000fd5b602002015181526020018b60066009811061121057634e487b7160e01b600052603260045260246000fd5b602002015181526020018b60076009811061123b57634e487b7160e01b600052603260045260246000fd5b602002015181526020018b60086009811061126657634e487b7160e01b600052603260045260246000fd5b60200201519052613e6f565b600080604051806102e001604052808c6000600e81106112a257634e487b7160e01b600052603260045260246000fd5b60200201516001600160a01b031681526020018c6001600e81106112d657634e487b7160e01b600052603260045260246000fd5b60200201516001600160a01b031681526020018c6002600e811061130a57634e487b7160e01b600052603260045260246000fd5b60200201516001600160a01b031681526020018b60006012811061133e57634e487b7160e01b600052603260045260246000fd5b602002015181526020018b60016012811061136957634e487b7160e01b600052603260045260246000fd5b602002015181526020018b60026012811061139457634e487b7160e01b600052603260045260246000fd5b602002015181526020018b6003601281106113bf57634e487b7160e01b600052603260045260246000fd5b602002015181526020018c6003600e81106113ea57634e487b7160e01b600052603260045260246000fd5b60200201516001600160a01b031681526020018a60006008811061141e57634e487b7160e01b600052603260045260246000fd5b602002015160ff16600181111561144557634e487b7160e01b600052602160045260246000fd5b600181111561146457634e487b7160e01b600052602160045260246000fd5b81526020018a6001602002015160ff16600181111561149357634e487b7160e01b600052602160045260246000fd5b60018111156114b257634e487b7160e01b600052602160045260246000fd5b81526020018a6002602002015160ff1660018111156114e157634e487b7160e01b600052602160045260246000fd5b600181111561150057634e487b7160e01b600052602160045260246000fd5b815260808d01516001600160a01b031660208201526040018a6003602002015160ff16600181111561154257634e487b7160e01b600052602160045260246000fd5b600181111561156157634e487b7160e01b600052602160045260246000fd5b8152602081018a90526040810188905260a0808e01516001600160a01b0316606083015260808201879052018c600660200201516001600160a01b031681526020018b6004601281106115c457634e487b7160e01b600052603260045260246000fd5b602002015181526020018b6005601281106115ef57634e487b7160e01b600052603260045260246000fd5b602002015181526020018b60066012811061161a57634e487b7160e01b600052603260045260246000fd5b602002015181526020018b60076012811061164557634e487b7160e01b600052603260045260246000fd5b602002015181526020018b60086012811061167057634e487b7160e01b600052603260045260246000fd5b602002015181525090506000604051806102e001604052808d6007600e81106116a957634e487b7160e01b600052603260045260246000fd5b60200201516001600160a01b031681526020018d6008600e81106116dd57634e487b7160e01b600052603260045260246000fd5b60200201516001600160a01b031681526020018d6009600e811061171157634e487b7160e01b600052603260045260246000fd5b60200201516001600160a01b031681526020018c60096012811061174557634e487b7160e01b600052603260045260246000fd5b602002015181526020018c600a6012811061177057634e487b7160e01b600052603260045260246000fd5b602002015181526020018c600b6012811061179b57634e487b7160e01b600052603260045260246000fd5b602002015181526020018c600c601281106117c657634e487b7160e01b600052603260045260246000fd5b602002015181526020018d600a600e81106117f157634e487b7160e01b600052603260045260246000fd5b60200201516001600160a01b031681526020018b60046008811061182557634e487b7160e01b600052603260045260246000fd5b602002015160ff16600181111561184c57634e487b7160e01b600052602160045260246000fd5b600181111561186b57634e487b7160e01b600052602160045260246000fd5b81526020018b6005602002015160ff16600181111561189a57634e487b7160e01b600052602160045260246000fd5b60018111156118b957634e487b7160e01b600052602160045260246000fd5b81526020018b6006602002015160ff1660018111156118e857634e487b7160e01b600052602160045260246000fd5b600181111561190757634e487b7160e01b600052602160045260246000fd5b81526101608e01516001600160a01b031660208201526040018b6007602002015160ff16600181111561194a57634e487b7160e01b600052602160045260246000fd5b600181111561196957634e487b7160e01b600052602160045260246000fd5b8152602081018a9052604081018890526101808e01516001600160a01b039081166060830152608082018790526101a08f01511660a082015260c0018c600d602002015181526020018c600e601281106119d357634e487b7160e01b600052603260045260246000fd5b602002015181526020018c600f601281106119fe57634e487b7160e01b600052603260045260246000fd5b602002015181526020018c601060128110611a2957634e487b7160e01b600052603260045260246000fd5b602002015181526020018c601160128110611a5457634e487b7160e01b600052603260045260246000fd5b602002015190529050611a6782826140a0565b9c9b505050505050505050505050565b6000604051806102e001604052808c600060078110611aa657634e487b7160e01b600052603260045260246000fd5b60200201516001600160a01b031681526020018c600160078110611ada57634e487b7160e01b600052603260045260246000fd5b60200201516001600160a01b031681526020018c600260078110611b0e57634e487b7160e01b600052603260045260246000fd5b60200201516001600160a01b031681526020018b600060098110611b4257634e487b7160e01b600052603260045260246000fd5b602002015181526020018b600160098110611b6d57634e487b7160e01b600052603260045260246000fd5b602002015181526020018b600260098110611b9857634e487b7160e01b600052603260045260246000fd5b602002015181526020018b600360098110611bc357634e487b7160e01b600052603260045260246000fd5b602002015181526020018c600360078110611bee57634e487b7160e01b600052603260045260246000fd5b60200201516001600160a01b031681526020018a6001811115611c2157634e487b7160e01b600052602160045260246000fd5b8152602001896001811115611c4657634e487b7160e01b600052602160045260246000fd5b8152602001886001811115611c6b57634e487b7160e01b600052602160045260246000fd5b815260808d01516001600160a01b03166020820152604001876001811115611ca357634e487b7160e01b600052602160045260246000fd5b8152602081018790526040810186905260a0808e01516001600160a01b0316606083015260808201869052018c600660200201516001600160a01b031681526020018b600460098110611d0657634e487b7160e01b600052603260045260246000fd5b602002015181526020018b600560098110611d3157634e487b7160e01b600052603260045260246000fd5b602002015181526020018b600660098110611d5c57634e487b7160e01b600052603260045260246000fd5b602002015181526020018b600760098110611d8757634e487b7160e01b600052603260045260246000fd5b602002015181526020018b600860098110611db257634e487b7160e01b600052603260045260246000fd5b602002015190529050611dc581836142f2565b5050505050505050505050565b6000610a64604051806102e001604052808c600060078110611e0457634e487b7160e01b600052603260045260246000fd5b60200201516001600160a01b031681526020018c600160078110611e3857634e487b7160e01b600052603260045260246000fd5b60200201516001600160a01b031681526020018c600260078110611e6c57634e487b7160e01b600052603260045260246000fd5b60200201516001600160a01b031681526020018b600060098110611ea057634e487b7160e01b600052603260045260246000fd5b602002015181526020018b600160098110611ecb57634e487b7160e01b600052603260045260246000fd5b602002015181526020018b600260098110611ef657634e487b7160e01b600052603260045260246000fd5b602002015181526020018b600360098110611f2157634e487b7160e01b600052603260045260246000fd5b602002015181526020018c600360078110611f4c57634e487b7160e01b600052603260045260246000fd5b60200201516001600160a01b031681526020018a6001811115611f7f57634e487b7160e01b600052602160045260246000fd5b8152602001896001811115611fa457634e487b7160e01b600052602160045260246000fd5b8152602001886001811115611fc957634e487b7160e01b600052602160045260246000fd5b815260808d01516001600160a01b0316602082015260400187600181111561200157634e487b7160e01b600052602160045260246000fd5b8152602081018790526040810186905260a0808e01516001600160a01b0316606083015260808201869052018c600660200201516001600160a01b031681526020018b60046009811061206457634e487b7160e01b600052603260045260246000fd5b602002015181526020018b60056009811061208f57634e487b7160e01b600052603260045260246000fd5b602002015181526020018b6006600981106120ba57634e487b7160e01b600052603260045260246000fd5b602002015181526020018b6007600981106120e557634e487b7160e01b600052603260045260246000fd5b602002015181526020018b60086009811061211057634e487b7160e01b600052603260045260246000fd5b60200201519052613d1f565b6124a4604051806102e001604052808e60006007811061214c57634e487b7160e01b600052603260045260246000fd5b60200201516001600160a01b031681526020018e60016007811061218057634e487b7160e01b600052603260045260246000fd5b60200201516001600160a01b031681526020018e6002600781106121b457634e487b7160e01b600052603260045260246000fd5b60200201516001600160a01b031681526020018d6000600981106121e857634e487b7160e01b600052603260045260246000fd5b602002015181526020018d60016009811061221357634e487b7160e01b600052603260045260246000fd5b602002015181526020018d60026009811061223e57634e487b7160e01b600052603260045260246000fd5b602002015181526020018d60036009811061226957634e487b7160e01b600052603260045260246000fd5b602002015181526020018e60036007811061229457634e487b7160e01b600052603260045260246000fd5b60200201516001600160a01b031681526020018c60018111156122c757634e487b7160e01b600052602160045260246000fd5b81526020018b60018111156122ec57634e487b7160e01b600052602160045260246000fd5b81526020018a600181111561231157634e487b7160e01b600052602160045260246000fd5b815260808f01516001600160a01b0316602082015260400189600181111561234957634e487b7160e01b600052602160045260246000fd5b815260208101899052604081018890526060018e600560200201516001600160a01b031681526020018681526020018e60066007811061239957634e487b7160e01b600052603260045260246000fd5b60200201516001600160a01b031681526020018d6004600981106123cd57634e487b7160e01b600052603260045260246000fd5b602002015181526020018d6005600981106123f857634e487b7160e01b600052603260045260246000fd5b602002015181526020018d60066009811061242357634e487b7160e01b600052603260045260246000fd5b602002015181526020018d60076009811061244e57634e487b7160e01b600052603260045260246000fd5b602002015181526020018d60086009811061247957634e487b7160e01b600052603260045260246000fd5b602002015181525060405180606001604052808660ff16815260200185815260200184815250614486565b505050505050505050505050565b611dc5604051806102e001604052808d6000600e81106124e257634e487b7160e01b600052603260045260246000fd5b60200201516001600160a01b031681526020018d6001600e811061251657634e487b7160e01b600052603260045260246000fd5b60200201516001600160a01b031681526020018d6002600e811061254a57634e487b7160e01b600052603260045260246000fd5b60200201516001600160a01b031681526020018c60006012811061257e57634e487b7160e01b600052603260045260246000fd5b602002015181526020018c6001601281106125a957634e487b7160e01b600052603260045260246000fd5b602002015181526020018c6002601281106125d457634e487b7160e01b600052603260045260246000fd5b602002015181526020018c6003601281106125ff57634e487b7160e01b600052603260045260246000fd5b602002015181526020018d6003600e811061262a57634e487b7160e01b600052603260045260246000fd5b60200201516001600160a01b031681526020018b60006008811061265e57634e487b7160e01b600052603260045260246000fd5b602002015160ff16600181111561268557634e487b7160e01b600052602160045260246000fd5b60018111156126a457634e487b7160e01b600052602160045260246000fd5b81526020018b6001602002015160ff1660018111156126d357634e487b7160e01b600052602160045260246000fd5b60018111156126f257634e487b7160e01b600052602160045260246000fd5b81526020018b6002602002015160ff16600181111561272157634e487b7160e01b600052602160045260246000fd5b600181111561274057634e487b7160e01b600052602160045260246000fd5b815260808e01516001600160a01b031660208201526040018b6003602002015160ff16600181111561278257634e487b7160e01b600052602160045260246000fd5b60018111156127a157634e487b7160e01b600052602160045260246000fd5b8152602081018b90526040810189905260a0808f01516001600160a01b0316606083015260808201889052018d600660200201516001600160a01b031681526020018c60046012811061280457634e487b7160e01b600052603260045260246000fd5b602002015181526020018c60056012811061282f57634e487b7160e01b600052603260045260246000fd5b602002015181526020018c60066012811061285a57634e487b7160e01b600052603260045260246000fd5b602002015181526020018c60076012811061288557634e487b7160e01b600052603260045260246000fd5b602002015181526020018c6008601281106128b057634e487b7160e01b600052603260045260246000fd5b6020908102919091015190915260408051606081018252865160ff168152855192810192909252810184600160200201519052604080516102e08101909152808f600760200201516001600160a01b031681526020018f6008600e811061292757634e487b7160e01b600052603260045260246000fd5b60200201516001600160a01b031681526020018f6009600e811061295b57634e487b7160e01b600052603260045260246000fd5b60200201516001600160a01b031681526020018e60096012811061298f57634e487b7160e01b600052603260045260246000fd5b602002015181526020018e600a601281106129ba57634e487b7160e01b600052603260045260246000fd5b602002015181526020018e600b601281106129e557634e487b7160e01b600052603260045260246000fd5b602002015181526020018e600c60128110612a1057634e487b7160e01b600052603260045260246000fd5b602002015181526020018f600a600e8110612a3b57634e487b7160e01b600052603260045260246000fd5b60200201516001600160a01b031681526020018d600460088110612a6f57634e487b7160e01b600052603260045260246000fd5b602002015160ff166001811115612a9657634e487b7160e01b600052602160045260246000fd5b6001811115612ab557634e487b7160e01b600052602160045260246000fd5b81526020018d6005602002015160ff166001811115612ae457634e487b7160e01b600052602160045260246000fd5b6001811115612b0357634e487b7160e01b600052602160045260246000fd5b81526020018d6006602002015160ff166001811115612b3257634e487b7160e01b600052602160045260246000fd5b6001811115612b5157634e487b7160e01b600052602160045260246000fd5b81526020018f600b60200201516001600160a01b031681526020018d600760088110612b8d57634e487b7160e01b600052603260045260246000fd5b602002015160ff166001811115612bb457634e487b7160e01b600052602160045260246000fd5b6001811115612bd357634e487b7160e01b600052602160045260246000fd5b8152602081018c9052604081018a90526060018f600c60200201516001600160a01b031681526020018781526020018f600d600e8110612c2357634e487b7160e01b600052603260045260246000fd5b60200201516001600160a01b031681526020018e600d60128110612c5757634e487b7160e01b600052603260045260246000fd5b602002015181526020018e600e60128110612c8257634e487b7160e01b600052603260045260246000fd5b602002015181526020018e600f60128110612cad57634e487b7160e01b600052603260045260246000fd5b602002015181526020018e601060128110612cd857634e487b7160e01b600052603260045260246000fd5b602002015181526020018e601160128110612d0357634e487b7160e01b600052603260045260246000fd5b60200201519052604080516060810190915280876001602002015160ff16815260200186600260058110612d4757634e487b7160e01b600052603260045260246000fd5b6020020151815260200186600360058110612d7257634e487b7160e01b600052603260045260246000fd5b6020020151905260808601516144fb565b600080604051806102e001604052808c600060078110612db357634e487b7160e01b600052603260045260246000fd5b60200201516001600160a01b031681526020018c600160078110612de757634e487b7160e01b600052603260045260246000fd5b60200201516001600160a01b031681526020018c600260078110612e1b57634e487b7160e01b600052603260045260246000fd5b60200201516001600160a01b031681526020018b600060098110612e4f57634e487b7160e01b600052603260045260246000fd5b602002015181526020018b600160098110612e7a57634e487b7160e01b600052603260045260246000fd5b602002015181526020018b600260098110612ea557634e487b7160e01b600052603260045260246000fd5b602002015181526020018b600360098110612ed057634e487b7160e01b600052603260045260246000fd5b602002015181526020018c600360078110612efb57634e487b7160e01b600052603260045260246000fd5b60200201516001600160a01b031681526020018a6001811115612f2e57634e487b7160e01b600052602160045260246000fd5b8152602001896001811115612f5357634e487b7160e01b600052602160045260246000fd5b8152602001886001811115612f7857634e487b7160e01b600052602160045260246000fd5b815260808d01516001600160a01b03166020820152604001876001811115612fb057634e487b7160e01b600052602160045260246000fd5b8152602081018790526040810186905260a0808e01516001600160a01b0316606083015260808201869052018c600660200201516001600160a01b031681526020018b60046009811061301357634e487b7160e01b600052603260045260246000fd5b602002015181526020018b60056009811061303e57634e487b7160e01b600052603260045260246000fd5b602002015181526020018b60066009811061306957634e487b7160e01b600052603260045260246000fd5b602002015181526020018b60076009811061309457634e487b7160e01b600052603260045260246000fd5b602002015181526020018b6008600981106130bf57634e487b7160e01b600052603260045260246000fd5b6020020151905290506130d181614a30565b9b9a5050505050505050505050565b600080604051806102e001604052808c6000600e811061311057634e487b7160e01b600052603260045260246000fd5b60200201516001600160a01b031681526020018c6001600e811061314457634e487b7160e01b600052603260045260246000fd5b60200201516001600160a01b031681526020018c6002600e811061317857634e487b7160e01b600052603260045260246000fd5b60200201516001600160a01b031681526020018b6000601281106131ac57634e487b7160e01b600052603260045260246000fd5b602002015181526020018b6001601281106131d757634e487b7160e01b600052603260045260246000fd5b602002015181526020018b60026012811061320257634e487b7160e01b600052603260045260246000fd5b602002015181526020018b60036012811061322d57634e487b7160e01b600052603260045260246000fd5b602002015181526020018c6003600e811061325857634e487b7160e01b600052603260045260246000fd5b60200201516001600160a01b031681526020018a60006008811061328c57634e487b7160e01b600052603260045260246000fd5b602002015160ff1660018111156132b357634e487b7160e01b600052602160045260246000fd5b60018111156132d257634e487b7160e01b600052602160045260246000fd5b81526020018a6001602002015160ff16600181111561330157634e487b7160e01b600052602160045260246000fd5b600181111561332057634e487b7160e01b600052602160045260246000fd5b81526020018a6002602002015160ff16600181111561334f57634e487b7160e01b600052602160045260246000fd5b600181111561336e57634e487b7160e01b600052602160045260246000fd5b815260808d01516001600160a01b031660208201526040018a6003602002015160ff1660018111156133b057634e487b7160e01b600052602160045260246000fd5b60018111156133cf57634e487b7160e01b600052602160045260246000fd5b8152602081018a90526040810188905260a0808e01516001600160a01b0316606083015260808201879052018c600660200201516001600160a01b031681526020018b60046012811061343257634e487b7160e01b600052603260045260246000fd5b602002015181526020018b60056012811061345d57634e487b7160e01b600052603260045260246000fd5b602002015181526020018b60066012811061348857634e487b7160e01b600052603260045260246000fd5b602002015181526020018b6007601281106134b357634e487b7160e01b600052603260045260246000fd5b602002015181526020018b6008601281106134de57634e487b7160e01b600052603260045260246000fd5b602002015181525090506000604051806102e001604052808d6007600e811061351757634e487b7160e01b600052603260045260246000fd5b60200201516001600160a01b031681526020018d6008600e811061354b57634e487b7160e01b600052603260045260246000fd5b60200201516001600160a01b031681526020018d6009600e811061357f57634e487b7160e01b600052603260045260246000fd5b60200201516001600160a01b031681526020018c6009601281106135b357634e487b7160e01b600052603260045260246000fd5b602002015181526020018c600a601281106135de57634e487b7160e01b600052603260045260246000fd5b602002015181526020018c600b6012811061360957634e487b7160e01b600052603260045260246000fd5b602002015181526020018c600c6012811061363457634e487b7160e01b600052603260045260246000fd5b602002015181526020018d600a600e811061365f57634e487b7160e01b600052603260045260246000fd5b60200201516001600160a01b031681526020018b60046008811061369357634e487b7160e01b600052603260045260246000fd5b602002015160ff1660018111156136ba57634e487b7160e01b600052602160045260246000fd5b60018111156136d957634e487b7160e01b600052602160045260246000fd5b81526020018b6005602002015160ff16600181111561370857634e487b7160e01b600052602160045260246000fd5b600181111561372757634e487b7160e01b600052602160045260246000fd5b81526020018b6006602002015160ff16600181111561375657634e487b7160e01b600052602160045260246000fd5b600181111561377557634e487b7160e01b600052602160045260246000fd5b81526101608e01516001600160a01b031660208201526040018b6007602002015160ff1660018111156137b857634e487b7160e01b600052602160045260246000fd5b60018111156137d757634e487b7160e01b600052602160045260246000fd5b8152602081018a9052604081018890526101808e01516001600160a01b039081166060830152608082018790526101a08f01511660a082015260c0018c600d602002015181526020018c600e6012811061384157634e487b7160e01b600052603260045260246000fd5b602002015181526020018c600f6012811061386c57634e487b7160e01b600052603260045260246000fd5b602002015181526020018c60106012811061389757634e487b7160e01b600052603260045260246000fd5b602002015181526020018c6011601281106138c257634e487b7160e01b600052603260045260246000fd5b602002015190529050611a678282614ac9565b6000546001600160a01b036101009091041633146139055760405162461bcd60e51b81526004016106d790616074565b6001600160a01b03811661396a5760405162461bcd60e51b815260206004820152602660248201527f4f776e61626c653a206e6577206f776e657220697320746865207a65726f206160448201526564647265737360d01b60648201526084016106d7565b600080546040516001600160a01b038085169361010090930416917f8be0079c531659141344cd1fd0a4f28419497f9722a3daafe3b4186f6b6457e091a3600080546001600160a01b0390921661010002610100600160a81b0319909216919091179055565b805160009015613a0c57815180602001830160208401855b60018383101415613a035781518152602091820191016139e8565b50505092909201915b5090919050565b6000613a41826101200151836101400151846102400151856102600151866102800151876102a00151614b57565b92915050565b8151835114613a985760405162461bcd60e51b815260206004820152601d60248201527f417272617973206861766520646966666572656e74206c656e6774687300000060448201526064016106d7565b8051835114613af75760405162461bcd60e51b815260206004820152602560248201527f417272617920616e64206d61736b206861766520646966666572656e74206c656044820152646e6774687360d81b60648201526084016106d7565b600060208451613b0791906160c1565b90506000613b168260206160e1565b905081613b246020836160c1565b14613b3f57634e487b7160e01b600052600160045260246000fd5b60005b82811015613b7c57806001016020028085015181870151811682890151821916178289015250508080613b7490616117565b915050613b42565b8215613ba95782905080600101602002808501518187015181168289015182191617828901525050613cb3565b50805b8551811015613cb357848181518110613bd557634e487b7160e01b600052603260045260246000fd5b602001015160f81c60f81b848281518110613c0057634e487b7160e01b600052603260045260246000fd5b602001015160f81c60f81b16868281518110613c2c57634e487b7160e01b600052603260045260246000fd5b602001015160f81c60f81b858381518110613c5757634e487b7160e01b600052603260045260246000fd5b602001015160f81c60f81b60ff60f81b181617868281518110613c8a57634e487b7160e01b600052603260045260246000fd5b60200101906001600160f81b031916908160001a90535080613cab81616117565b915050613bac565b505050505050565b815181516000916001918114808314613cd75760009250613d15565b600160208701838101602088015b600284838510011415613d10578051835114613d045760009650600093505b60209283019201613ce5565b505050505b5090949350505050565b6000613d2a82613e6f565b6040805160208101829052601c60608201527f19457468657265756d205369676e6564204d6573736167653a0a33320000000060808201529081019190915260a001604051602081830303815290604052805190602001209050919050565b6000613d9483614a30565b613da0575060006106a0565b60008481526004602052604090205460ff1615613dbf575060006106a0565b60008481526005602052604090205460ff1615613dde575060016106a0565b6020808401518351848301516040808701518151600081529586018083528a905260ff90931690850152606084015260808301526001600160a01b03169060019060a0016020604051602081039080840390855afa158015613e44573d6000803e3d6000fd5b505050602060405103516001600160a01b03161415613e65575060016106a0565b5060009392505050565b600080613e7b83614c29565b90506000816001600160401b03811115613ea557634e487b7160e01b600052604160045260246000fd5b6040519080825280601f01601f191660200182016040528015613ecf576020820181803683370190505b5084519091506020820190613ee5908290614c61565b9050613ef5818660200151614c61565b9050613f05818660400151614c61565b6060868101518252608080880151602084015260a0880151604084015260c08801519183019190915260e087015191019150613f42908290614c61565b9050613f72818661010001516001811115613f6d57634e487b7160e01b600052602160045260246000fd5b614c7b565b9050613f9d818661012001516001811115613f6d57634e487b7160e01b600052602160045260246000fd5b9050613fc8818661014001516001811115613f6d57634e487b7160e01b600052602160045260246000fd5b9050613fd981866101600151614c61565b9050614004818661018001516001811115613f6d57634e487b7160e01b600052602160045260246000fd5b905061401581866101a001516139d0565b905061402681866101c001516139d0565b905061403781866101e00151614c61565b9050614048818661020001516139d0565b905061405981866102200151614c61565b610240860151815261026086015160208083019190915261028087015160408301526102a087015160608301526102c0909601516080909101525090920191909120919050565b60008083610120015160018111156140c857634e487b7160e01b600052602160045260246000fd5b1480156140f95750600182610120015160018111156140f757634e487b7160e01b600052602160045260246000fd5b145b801561414c5750816101000151600181111561412557634e487b7160e01b600052602160045260246000fd5b836101000151600181111561414a57634e487b7160e01b600052602160045260246000fd5b145b801561417357508161022001516001600160a01b03168361022001516001600160a01b0316145b80156141ad575060408201516001600160a01b031615806141ad575082602001516001600160a01b031682604001516001600160a01b0316145b80156141e7575060408301516001600160a01b031615806141e7575081602001516001600160a01b031683604001516001600160a01b0316145b8015614242575060e08201516001600160a01b0316158015614215575060e08301516001600160a01b031615155b80614242575060e08201516001600160a01b031615801590614242575060e08301516001600160a01b0316155b801561426957508161016001516001600160a01b03168361016001516001600160a01b0316145b80156142bc5750816101800151600181111561429557634e487b7160e01b600052602160045260246000fd5b83610180015160018111156142ba57634e487b7160e01b600052602160045260246000fd5b145b80156142d757506142d7836102800151846102a00151614c88565b80156106a057506106a0826102800151836102a00151614c88565b81602001516001600160a01b0316336001600160a01b03161461431457600080fd5b600061431f83613d1f565b60008181526005602052604090205490915060ff161561433e57600080fd5b60016005600083815260200190815260200160002060006101000a81548160ff0219169083151502179055508260e001516001600160a01b031683602001516001600160a01b0316827f90c7f9f5b58c15f0f635bfb99f55d3d78fdbef3559e7d8abf5c81052a527662286600001518760400151886060015189608001518a60a001518b60c001518c61010001518d61012001518e61014001518f61016001516040516143f49a99989796959493929190615f16565b60405180910390a4807fe55393c778364e440d958b39ac1debd99dcfae3775a8a04d1e79124adf6a2d08846101800151856101a00151866101c00151876101e001518861020001518961022001518a61024001518b61026001518c61028001518d6102a001518e6102c001518e6040516144799c9b9a99989796959493929190615fc5565b60405180910390a2505050565b60006144928383614ca4565b905082602001516001600160a01b0316336001600160a01b0316146144b657600080fd5b600081815260046020526040808220805460ff191660011790555182917f5152abf959f6564662358c2e52b702259b78bac5ee7842a0f01937e670efcc7d91a2505050565b60005460ff16156145445760405162461bcd60e51b81526020600482015260136024820152721499595b9d1c985b98de4819195d1958dd1959606a1b60448201526064016106d7565b6000805460ff1916600117815560208601516001600160a01b031633141561457d5761456f86614a30565b61457857600080fd5b61458a565b6145878686614ca4565b90505b60208401516000906001600160a01b03163314156145b9576145ab85614a30565b6145b457600080fd5b6145c6565b6145c38585614ca4565b90505b6145d087866140a0565b6145d957600080fd5b610160850151803b90816145ec57600080fd5b6101c0890151511561461257614612896101a00151886101a001518b6101c00151613a47565b6101c0870151511561463857614638876101a001518a6101a00151896101c00151613a47565b61464c896101a00151886101a00151613cbb565b61465557600080fd5b600254602088015160405163c455279160e01b81526001600160a01b039182166004820152600092919091169063c45527919060240160206040518083038186803b1580156146a357600080fd5b505afa1580156146b7573d6000803e3d6000fd5b505050506040513d601f19601f820116820180604052508101906146db91906157db565b90506001600160a01b0381166146f057600080fd5b600260009054906101000a90046001600160a01b03166001600160a01b03166397204d8e6040518163ffffffff1660e01b815260040160206040518083038186803b15801561473e57600080fd5b505afa158015614752573d6000803e3d6000fd5b505050506040513d601f19601f8201168201806040525081019061477691906157db565b6001600160a01b0316816001600160a01b0316635c60da1b6040518163ffffffff1660e01b815260040160206040518083038186803b1580156147b857600080fd5b505afa1580156147cc573d6000803e3d6000fd5b505050506040513d601f19601f820116820180604052508101906147f091906157db565b6001600160a01b03161461480357600080fd5b60208a015181906001600160a01b03163314614833576000868152600460205260409020805460ff191660011790555b88602001516001600160a01b0316336001600160a01b03161461486a576000858152600460205260409020805460ff191660011790555b60006148768c8b614cc6565b9050816001600160a01b0316631b0f7ba98b61016001518c61018001518d6101a001516040518463ffffffff1660e01b81526004016148b793929190615f94565b602060405180830381600087803b1580156148d157600080fd5b505af11580156148e5573d6000803e3d6000fd5b505050506040513d601f19601f820116820180604052508101906149099190615df0565b61491257600080fd5b6101e08c01516001600160a01b031615614949576149408c6101e001518b6101a001518e610200015161060f565b61494957600080fd5b6101e08a01516001600160a01b031615614980576149778a6101e001518b6101a001518c610200015161060f565b61498057600080fd5b60e08a015188906001600160a01b031661499e578a602001516149a4565b8c602001515b60e08c01516001600160a01b0391821691166149c4578d602001516149ca565b8b602001515b604080518b8152602081018b90529081018590526001600160a01b0391909116907fc4109843e0b7d514e4c093114b863f8e7d8d9a458c372cd51bfe526b588006c99060600160405180910390a450506000805460ff1916905550505050505050505050565b80516000906001600160a01b03163014614a4c57506000919050565b614a60826101400151836102a001516152ff565b614a6c57506000919050565b60018261010001516001811115614a9357634e487b7160e01b600052602160045260246000fd5b148015614ab457506006548260a001511080614ab457506007548260c00151105b15614ac157506000919050565b506001919050565b600080614af8836101200151846101400151856102400151866102600151876102800151886102a00151614b57565b90506000614b288561012001518661014001518761024001518861026001518961028001518a6102a00151614b57565b905081811015614b3757600080fd5b60e08401516001600160a01b0316614b4f5780610af5565b509392505050565b600080866001811115614b7a57634e487b7160e01b600052602160045260246000fd5b1415614b87575083614c1f565b6001866001811115614ba957634e487b7160e01b600052602160045260246000fd5b1415614c1f576000614bbb8484616100565b614bc58542616100565b614bcf90876160e1565b614bd991906160c1565b90506001886001811115614bfd57634e487b7160e01b600052602160045260246000fd5b1415614c1557614c0d8187616100565b915050614c1f565b614c0d81876160a9565b9695505050505050565b600081610200015151826101c0015151836101a00151516101b0614c4d91906160a9565b614c5791906160a9565b613a4191906160a9565b60601b6bffffffffffffffffffffffff1916815260140190565b6000818353505060010190565b600042831080156106a057508115806106a05750504210919050565b600080614cb084613d1f565b9050614cbd818585613d89565b6106a057600080fd5b6102208101516000906001600160a01b031615614ce8573415614ce857600080fd5b6000614cf48484614ac9565b9050600081118015614d1357506102208301516001600160a01b031615155b15614d3157614d318361022001518560200151856020015184615331565b60e0830151819081906001600160a01b03161561507e57856080015185608001511115614d5d57600080fd5b60018561010001516001811115614d8457634e487b7160e01b600052602160045260246000fd5b1415615050578560c001518560c001511115614d9f57600080fd5b606085015115614e46576000612710848760600151614dbe91906160e1565b614dc891906160c1565b6102208701519091506001600160a01b0316614e2b57614de88184616100565b60e08701516040519194506001600160a01b03169082156108fc029083906000818181858888f19350505050158015614e25573d6000803e3d6000fd5b50614e44565b614e4486610220015187602001518860e0015184615331565b505b608085015115614eed576000612710848760800151614e6591906160e1565b614e6f91906160c1565b6102208701519091506001600160a01b0316614ed257614e8f81836160a9565b60e08701516040519193506001600160a01b03169082156108fc029083906000818181858888f19350505050158015614ecc573d6000803e3d6000fd5b50614eeb565b614eeb86610220015188602001518860e0015184615331565b505b60a085015115614f9c576000612710848760a00151614f0c91906160e1565b614f1691906160c1565b6102208701519091506001600160a01b0316614f7757614f368184616100565b6008546040519194506001600160a01b03169082156108fc029083906000818181858888f19350505050158015614f71573d6000803e3d6000fd5b50614f9a565b6102208601516020870151600854614f9a9291906001600160a01b031684615331565b505b60c08501511561504b576000612710848760c00151614fbb91906160e1565b614fc591906160c1565b6102208701519091506001600160a01b031661502657614fe581836160a9565b6008546040519193506001600160a01b03169082156108fc029083906000818181858888f19350505050158015615020573d6000803e3d6000fd5b50615049565b61022086015160208801516008546150499291906001600160a01b031684615331565b505b615243565b61506785602001518660e0015187606001516153dc565b61504b86602001518660e0015187608001516153dc565b84608001518660800151111561509357600080fd5b600185610100015160018111156150ba57634e487b7160e01b600052602160045260246000fd5b1415615215576102208501516001600160a01b03166150d857600080fd5b8460c001518660c0015111156150ed57600080fd5b60608601511561513357600061271084886060015161510c91906160e1565b61511691906160c1565b905061513186610220015188602001518960e0015184615331565b505b60808601511561517957600061271084886080015161515291906160e1565b61515c91906160c1565b905061517786610220015187602001518960e0015184615331565b505b60a0860151156151c8576000612710848860a0015161519891906160e1565b6151a291906160c1565b61022087015160208901516008549293506151c6926001600160a01b031684615331565b505b60c08601511561504b576000612710848860c001516151e791906160e1565b6151f191906160c1565b6102208701516020880151600854929350615049926001600160a01b031684615331565b61522c86602001518760e0015188606001516153dc565b61524385602001518760e0015188608001516153dc565b6102208501516001600160a01b0316613d15578034101561526357600080fd5b84602001516001600160a01b03166108fc839081150290604051600060405180830381858888f193505050501580156152a0573d6000803e3d6000fd5b5060006152ad8234616100565b905080156152f45786602001516001600160a01b03166108fc829081150290604051600060405180830381858888f193505050501580156152f2573d6000803e3d6000fd5b505b505090949350505050565b60008083600181111561532257634e487b7160e01b600052602160045260246000fd5b14806106a05750501515919050565b80156153d657600354604051630aed65f560e11b81526001600160a01b0386811660048301528581166024830152848116604483015260648201849052909116906315dacbea90608401602060405180830381600087803b15801561539557600080fd5b505af11580156153a9573d6000803e3d6000fd5b505050506040513d601f19601f820116820180604052508101906153cd9190615df0565b6153d657600080fd5b50505050565b6001546153f4906001600160a01b0316848484615331565b505050565b600082601f830112615409578081fd5b6040516101c08082018281106001600160401b038211171561542d5761542d616148565b6040528184828101871015615440578485fd5b8492505b600e83101561546d5780356154588161617f565b82526001929092019160209182019101615444565b509195945050505050565b600082601f830112615488578081fd5b60405160e081018181106001600160401b03821117156154aa576154aa616148565b604052808360e081018610156154be578384fd5b835b600781101561546d5781356154d48161617f565b835260209283019291909101906001016154c0565b600082601f8301126154f9578081fd5b60405160a081018181106001600160401b038211171561551b5761551b616148565b604052808360a0810186101561552f578384fd5b835b600581101561546d578135835260209283019290910190600101615531565b600082601f830112615560578081fd5b6040516102408082018281106001600160401b038211171561558457615584616148565b6040528184828101871015615597578485fd5b8492505b601283101561546d5780358252600192909201916020918201910161559b565b600082601f8301126155cb578081fd5b6040516101208082018281106001600160401b03821117156155ef576155ef616148565b6040528184828101871015615602578485fd5b8492505b600983101561546d57803582526001929092019160209182019101615606565b600082601f830112615636578081fd5b604051604081018181106001600160401b038211171561565857615658616148565b806040525080838560408601111561566e578384fd5b835b600281101561546d57615682826157ae565b83526020928301929190910190600101615670565b600082601f8301126156a7578081fd5b6040516101008082018281106001600160401b03821117156156cb576156cb616148565b60405281848281018710156156de578485fd5b8492505b600883101561546d576156f4816157ae565b825260019290920191602091820191016156e2565b803561571481616194565b919050565b600082601f830112615729578081fd5b81356001600160401b038082111561574357615743616148565b604051601f8301601f19908116603f0116810190828211818310171561576b5761576b616148565b81604052838152866020858801011115615783578485fd5b8360208701602083013792830160200193909352509392505050565b80356002811061571457600080fd5b803560ff8116811461571457600080fd5b6000602082840312156157d0578081fd5b81356106a08161617f565b6000602082840312156157ec578081fd5b81516106a08161617f565b60008060006060848603121561580b578182fd5b83356158168161617f565b925060208401356001600160401b0380821115615831578384fd5b61583d87838801615719565b93506040860135915080821115615852578283fd5b5061585f86828701615719565b9150509250925092565b60008060008060008060008060006105c08a8c031215615887578687fd5b6158918b8b6153f9565b98506158a18b6101c08c01615550565b97506158b18b6104008c01615697565b96506105008a01356001600160401b03808211156158cd578687fd5b6158d98d838e01615719565b97506105208c01359150808211156158ef578687fd5b6158fb8d838e01615719565b96506105408c0135915080821115615911578586fd5b61591d8d838e01615719565b95506105608c0135915080821115615933578485fd5b61593f8d838e01615719565b94506105808c0135915080821115615955578384fd5b6159618d838e01615719565b93506105a08c0135915080821115615977578283fd5b506159848c828d01615719565b9150509295985092959850929598565b60008060008060008060008060008060006106a08c8e0312156159b5578485fd5b6159bf8d8d6153f9565b9a506159cf8d6101c08e01615550565b99506159df8d6104008e01615697565b98506001600160401b03806105008e013511156159fa578586fd5b615a0b8e6105008f01358f01615719565b9850806105208e01351115615a1e578586fd5b615a2f8e6105208f01358f01615719565b9750806105408e01351115615a42578586fd5b615a538e6105408f01358f01615719565b9650806105608e01351115615a66578586fd5b615a778e6105608f01358f01615719565b9550806105808e01351115615a8a578283fd5b615a9b8e6105808f01358f01615719565b9450806105a08e01351115615aae578283fd5b50615ac08d6105a08e01358e01615719565b9250615ad08d6105c08e01615626565b9150615ae08d6106008e016154e9565b90509295989b509295989b9093969950565b60008060008060008060008060006102e08a8c031215615b10578283fd5b615b1a8b8b615478565b9850615b298b60e08c016155bb565b9750615b386102008b0161579f565b9650615b476102208b0161579f565b9550615b566102408b0161579f565b9450615b656102608b0161579f565b93506102808a01356001600160401b0380821115615b81578485fd5b615b8d8d838e01615719565b94506102a08c0135915080821115615ba3578384fd5b615baf8d838e01615719565b93506102c08c0135915080821115615977578283fd5b6000806000806000806000806000806103008b8d031215615be4578384fd5b615bee8c8c615478565b9950615bfd8c60e08d016155bb565b9850615c0c6102008c0161579f565b9750615c1b6102208c0161579f565b9650615c2a6102408c0161579f565b9550615c396102608c0161579f565b94506102808b01356001600160401b0380821115615c55578586fd5b615c618e838f01615719565b95506102a08d0135915080821115615c77578485fd5b615c838e838f01615719565b94506102c08d0135915080821115615c99578384fd5b50615ca68d828e01615719565b925050615cb66102e08c01615709565b90509295989b9194979a5092959850565b6000806000806000806000806000806000806103408d8f031215615ce9578586fd5b615cf38e8e615478565b9b50615d028e60e08f016155bb565b9a50615d116102008e0161579f565b9950615d206102208e0161579f565b9850615d2f6102408e0161579f565b9750615d3e6102608e0161579f565b96506001600160401b036102808e01351115615d58578586fd5b615d698e6102808f01358f01615719565b95506001600160401b036102a08e01351115615d83578081fd5b615d948e6102a08f01358f01615719565b94506001600160401b036102c08e01351115615dae578081fd5b615dbf8e6102c08f01358f01615719565b9350615dce6102e08e016157ae565b92506103008d013591506103208d013590509295989b509295989b509295989b565b600060208284031215615e01578081fd5b81516106a081616194565b600060208284031215615e1d578081fd5b5035919050565b60008060008060808587031215615e39578182fd5b84356001600160401b0380821115615e4f578384fd5b615e5b88838901615719565b95506020870135915080821115615e70578384fd5b615e7c88838901615719565b94506040870135915080821115615e91578384fd5b615e9d88838901615719565b93506060870135915080821115615eb2578283fd5b50615ebf87828801615719565b91505092959194509250565b60008151808452815b81811015615ef057602081850181015186830182015201615ed4565b81811115615f015782602083870101525b50601f01601f19169290920160200192915050565b6001600160a01b038b811682528a81166020830152604082018a9052606082018990526080820188905260a08201879052610140820190615f568761615e565b8660c0840152615f658661615e565b8560e0840152615f748561615e565b84610100840152808416610120840152509b9a5050505050505050505050565b6001600160a01b0384168152615fa98361615e565b826020820152606060408201526000610af56060830184615ecb565b6000610180615fd38f61615e565b8e8352806020840152615fe88184018f615ecb565b90508281036040840152615ffc818e615ecb565b6001600160a01b038d811660608601528482036080860152909150616021828d615ecb565b9a1660a0840152505060c081019690965260e086019490945261010085019290925261012084015261014083015215156101609091015295945050505050565b6020815260006106a06020830184615ecb565b6020808252818101527f4f776e61626c653a2063616c6c6572206973206e6f7420746865206f776e6572604082015260600190565b600082198211156160bc576160bc616132565b500190565b6000826160dc57634e487b7160e01b81526012600452602481fd5b500490565b60008160001904831182151516156160fb576160fb616132565b500290565b60008282101561611257616112616132565b500390565b600060001982141561612b5761612b616132565b5060010190565b634e487b7160e01b600052601160045260246000fd5b634e487b7160e01b600052604160045260246000fd5b6002811061617c57634e487b7160e01b600052602160045260246000fd5b50565b6001600160a01b038116811461617c57600080fd5b801515811461617c57600080fdfea26469706673582212208cabef3f1dcf7917dfb787dc0c767d9e259235603c1c5caadfee0a558e5f0de964736f6c63430008040033",
  "immutableReferences": {},
  "source": "/*\n\n  << Taureum Exchange >>\n\n*/\n\npragma solidity 0.8.4;\n\nimport \"./exchange/Exchange.sol\";\n\n/**\n * @title TaureumExchange\n * @author Taureum Protocol Developers\n */\ncontract TaureumExchange is Exchange {\n\n    string public constant name = \"Taureum Exchange\";\n  \n    string public constant version = \"0.1\";\n\n    string public constant codename = \"TaureumBeta\";\n\n    /**\n     * @dev Initialize a WyvernExchange instance\n     * @param registryAddress Address of the registry instance which this Exchange instance will use\n     * @param tokenAddress Address of the token used for protocol fees\n     */\n    constructor (ProxyRegistry registryAddress, TokenTransferProxy tokenTransferProxyAddress, ERC20 tokenAddress, address protocolFeeAddress) public {\n        registry = registryAddress;\n        tokenTransferProxy = tokenTransferProxyAddress;\n        exchangeToken = tokenAddress;\n        protocolFeeRecipient = protocolFeeAddress;\n    }\n\n}\n",
  "sourcePath": "/home/toor/nodejs/truffle/nft_demo/taudefi/taudefi-nft-protocol/contracts/TaureumExchange.sol",
  "compiler": {
    "name": "solc",
    "version": "0.8.4+commit.c7e474f2.Emscripten.clang"
  },
  "schemaVersion": "3.4.1",
  "updatedAt": "2021-07-18T03:03:28.143Z",
  "networkType": "ethereum",
  "devdoc": {
    "author": "Taureum Protocol Developers",
    "kind": "dev",
    "methods": {
      "approveOrder_(address[7],uint256[9],uint8,uint8,uint8,uint8,bytes,bytes,bytes,bool)": {
        "details": "Call approveOrder - Solidity ABI encoding limitation workaround, hopefully temporary."
      },
      "atomicMatch_(address[14],uint256[18],uint8[8],bytes,bytes,bytes,bytes,bytes,bytes,uint8[2],bytes32[5])": {
        "details": "Call atomicMatch - Solidity ABI encoding limitation workaround, hopefully temporary."
      },
      "calculateCurrentPrice_(address[7],uint256[9],uint8,uint8,uint8,uint8,bytes,bytes,bytes)": {
        "details": "Call calculateCurrentPrice - Solidity ABI encoding limitation workaround, hopefully temporary."
      },
      "calculateMatchPrice_(address[14],uint256[18],uint8[8],bytes,bytes,bytes,bytes,bytes,bytes)": {
        "details": "Call calculateMatchPrice - Solidity ABI encoding limitation workaround, hopefully temporary."
      },
      "cancelOrder_(address[7],uint256[9],uint8,uint8,uint8,uint8,bytes,bytes,bytes,uint8,bytes32,bytes32)": {
        "details": "Call cancelOrder - Solidity ABI encoding limitation workaround, hopefully temporary."
      },
      "changeMinimumMakerProtocolFee(uint256)": {
        "details": "Change the minimum maker fee paid to the protocol (owner only)",
        "params": {
          "newMinimumMakerProtocolFee": "New fee to set in basis points"
        }
      },
      "changeMinimumTakerProtocolFee(uint256)": {
        "details": "Change the minimum taker fee paid to the protocol (owner only)",
        "params": {
          "newMinimumTakerProtocolFee": "New fee to set in basis points"
        }
      },
      "changeProtocolFeeRecipient(address)": {
        "details": "Change the protocol fee recipient (owner only)",
        "params": {
          "newProtocolFeeRecipient": "New protocol fee recipient address"
        }
      },
      "constructor": {
        "details": "Initialize a WyvernExchange instance",
        "params": {
          "registryAddress": "Address of the registry instance which this Exchange instance will use",
          "tokenAddress": "Address of the token used for protocol fees"
        }
      },
      "hashOrder_(address[7],uint256[9],uint8,uint8,uint8,uint8,bytes,bytes,bytes)": {
        "details": "Call hashOrder - Solidity ABI encoding limitation workaround, hopefully temporary."
      },
      "hashToSign_(address[7],uint256[9],uint8,uint8,uint8,uint8,bytes,bytes,bytes)": {
        "details": "Call hashToSign - Solidity ABI encoding limitation workaround, hopefully temporary."
      },
      "orderCalldataCanMatch(bytes,bytes,bytes,bytes)": {
        "details": "Return whether or not two orders' callData specifications can match",
        "params": {
          "buyCalldata": "Buy-side order callData",
          "buyReplacementPattern": "Buy-side order callData replacement mask",
          "sellCalldata": "Sell-side order callData",
          "sellReplacementPattern": "Sell-side order callData replacement mask"
        },
        "returns": {
          "_0": "Whether the orders' callData can be matched"
        }
      },
      "ordersCanMatch_(address[14],uint256[18],uint8[8],bytes,bytes,bytes,bytes,bytes,bytes)": {
        "details": "Call ordersCanMatch - Solidity ABI encoding limitation workaround, hopefully temporary."
      },
      "owner()": {
        "details": "Returns the address of the current owner."
      },
      "renounceOwnership()": {
        "details": "Leaves the contract without owner. It will not be possible to call `onlyOwner` functions anymore. Can only be called by the current owner. NOTE: Renouncing ownership will leave the contract without an owner, thereby removing any functionality that is only available to the owner."
      },
      "staticCall(address,bytes,bytes)": {
        "details": "Execute a STATICCALL (introduced with Ethereum Metropolis, non-state-modifying external call)",
        "params": {
          "callData": "Calldata (appended to extradata)",
          "extradata": "Base data for STATICCALL (probably function selector and argument encoding)",
          "target": "Contract to call"
        },
        "returns": {
          "result": "of the call (success or failure)"
        }
      },
      "transferOwnership(address)": {
        "details": "Transfers ownership of the contract to a new account (`newOwner`). Can only be called by the current owner."
      },
      "validateOrderParameters_(address[7],uint256[9],uint8,uint8,uint8,uint8,bytes,bytes,bytes)": {
        "details": "Call validateOrderParameters - Solidity ABI encoding limitation workaround, hopefully temporary."
      },
      "validateOrder_(address[7],uint256[9],uint8,uint8,uint8,uint8,bytes,bytes,bytes,uint8,bytes32,bytes32)": {
        "details": "Call validateOrder - Solidity ABI encoding limitation workaround, hopefully temporary."
      }
    },
    "title": "TaureumExchange",
    "version": 1
  },
  "userdoc": {
    "kind": "user",
    "methods": {},
    "version": 1
  }
}