{
  "contractName": "TaureumStatic",
  "abi": [
    {
      "inputs": [
        {
          "internalType": "address",
          "name": "atomicizerAddress",
          "type": "address"
        }
      ],
      "stateMutability": "nonpayable",
      "type": "constructor"
    },
    {
      "inputs": [
        {
          "internalType": "bytes",
          "name": "extra",
          "type": "bytes"
        },
        {
          "internalType": "address[7]",
          "name": "addresses",
          "type": "address[7]"
        },
        {
          "internalType": "enum AuthenticatedProxy.HowToCall[2]",
          "name": "howToCalls",
          "type": "uint8[2]"
        },
        {
          "internalType": "uint256[6]",
          "name": "uints",
          "type": "uint256[6]"
        },
        {
          "internalType": "bytes",
          "name": "data",
          "type": "bytes"
        },
        {
          "internalType": "bytes",
          "name": "counterdata",
          "type": "bytes"
        }
      ],
      "name": "and",
      "outputs": [],
      "stateMutability": "view",
      "type": "function"
    },
    {
      "inputs": [
        {
          "internalType": "bytes",
          "name": "",
          "type": "bytes"
        },
        {
          "internalType": "address[7]",
          "name": "",
          "type": "address[7]"
        },
        {
          "internalType": "enum AuthenticatedProxy.HowToCall[2]",
          "name": "",
          "type": "uint8[2]"
        },
        {
          "internalType": "uint256[6]",
          "name": "",
          "type": "uint256[6]"
        },
        {
          "internalType": "bytes",
          "name": "",
          "type": "bytes"
        },
        {
          "internalType": "bytes",
          "name": "",
          "type": "bytes"
        }
      ],
      "name": "any",
      "outputs": [
        {
          "internalType": "uint256",
          "name": "",
          "type": "uint256"
        }
      ],
      "stateMutability": "pure",
      "type": "function"
    },
    {
      "inputs": [
        {
          "internalType": "bytes",
          "name": "",
          "type": "bytes"
        },
        {
          "internalType": "address[7]",
          "name": "",
          "type": "address[7]"
        },
        {
          "internalType": "enum AuthenticatedProxy.HowToCall[2]",
          "name": "",
          "type": "uint8[2]"
        },
        {
          "internalType": "uint256[6]",
          "name": "uints",
          "type": "uint256[6]"
        },
        {
          "internalType": "bytes",
          "name": "",
          "type": "bytes"
        },
        {
          "internalType": "bytes",
          "name": "",
          "type": "bytes"
        }
      ],
      "name": "anyAddOne",
      "outputs": [
        {
          "internalType": "uint256",
          "name": "",
          "type": "uint256"
        }
      ],
      "stateMutability": "pure",
      "type": "function"
    },
    {
      "inputs": [
        {
          "internalType": "bytes",
          "name": "",
          "type": "bytes"
        },
        {
          "internalType": "address[7]",
          "name": "",
          "type": "address[7]"
        },
        {
          "internalType": "enum AuthenticatedProxy.HowToCall[2]",
          "name": "",
          "type": "uint8[2]"
        },
        {
          "internalType": "uint256[6]",
          "name": "",
          "type": "uint256[6]"
        },
        {
          "internalType": "bytes",
          "name": "",
          "type": "bytes"
        },
        {
          "internalType": "bytes",
          "name": "",
          "type": "bytes"
        }
      ],
      "name": "anyNoFill",
      "outputs": [
        {
          "internalType": "uint256",
          "name": "",
          "type": "uint256"
        }
      ],
      "stateMutability": "pure",
      "type": "function"
    },
    {
      "inputs": [
        {
          "internalType": "bytes",
          "name": "",
          "type": "bytes"
        },
        {
          "internalType": "address[7]",
          "name": "",
          "type": "address[7]"
        },
        {
          "internalType": "enum AuthenticatedProxy.HowToCall",
          "name": "",
          "type": "uint8"
        },
        {
          "internalType": "uint256[6]",
          "name": "",
          "type": "uint256[6]"
        },
        {
          "internalType": "bytes",
          "name": "",
          "type": "bytes"
        }
      ],
      "name": "anySingle",
      "outputs": [],
      "stateMutability": "pure",
      "type": "function"
    },
    {
      "inputs": [],
      "name": "atomicizer",
      "outputs": [
        {
          "internalType": "address",
          "name": "",
          "type": "address"
        }
      ],
      "stateMutability": "view",
      "type": "function"
    },
    {
      "inputs": [
        {
          "internalType": "bytes",
          "name": "extra",
          "type": "bytes"
        },
        {
          "internalType": "address[7]",
          "name": "addresses",
          "type": "address[7]"
        },
        {
          "internalType": "enum AuthenticatedProxy.HowToCall[2]",
          "name": "howToCalls",
          "type": "uint8[2]"
        },
        {
          "internalType": "uint256[6]",
          "name": "uints",
          "type": "uint256[6]"
        },
        {
          "internalType": "bytes",
          "name": "cdata",
          "type": "bytes"
        },
        {
          "internalType": "bytes",
          "name": "",
          "type": "bytes"
        }
      ],
      "name": "dumbSequenceExact",
      "outputs": [
        {
          "internalType": "uint256",
          "name": "",
          "type": "uint256"
        }
      ],
      "stateMutability": "view",
      "type": "function"
    },
    {
      "inputs": [],
      "name": "name",
      "outputs": [
        {
          "internalType": "string",
          "name": "",
          "type": "string"
        }
      ],
      "stateMutability": "view",
      "type": "function"
    },
    {
      "inputs": [
        {
          "internalType": "bytes",
          "name": "extra",
          "type": "bytes"
        },
        {
          "internalType": "address[7]",
          "name": "addresses",
          "type": "address[7]"
        },
        {
          "internalType": "enum AuthenticatedProxy.HowToCall[2]",
          "name": "howToCalls",
          "type": "uint8[2]"
        },
        {
          "internalType": "uint256[6]",
          "name": "uints",
          "type": "uint256[6]"
        },
        {
          "internalType": "bytes",
          "name": "data",
          "type": "bytes"
        },
        {
          "internalType": "bytes",
          "name": "counterdata",
          "type": "bytes"
        }
      ],
      "name": "or",
      "outputs": [],
      "stateMutability": "view",
      "type": "function"
    },
    {
      "inputs": [
        {
          "internalType": "bytes",
          "name": "extra",
          "type": "bytes"
        },
        {
          "internalType": "address[7]",
          "name": "addresses",
          "type": "address[7]"
        },
        {
          "internalType": "enum AuthenticatedProxy.HowToCall",
          "name": "howToCall",
          "type": "uint8"
        },
        {
          "internalType": "uint256[6]",
          "name": "uints",
          "type": "uint256[6]"
        },
        {
          "internalType": "bytes",
          "name": "cdata",
          "type": "bytes"
        }
      ],
      "name": "sequenceAnyAfter",
      "outputs": [],
      "stateMutability": "view",
      "type": "function"
    },
    {
      "inputs": [
        {
          "internalType": "bytes",
          "name": "extra",
          "type": "bytes"
        },
        {
          "internalType": "address[7]",
          "name": "addresses",
          "type": "address[7]"
        },
        {
          "internalType": "enum AuthenticatedProxy.HowToCall",
          "name": "howToCall",
          "type": "uint8"
        },
        {
          "internalType": "uint256[6]",
          "name": "uints",
          "type": "uint256[6]"
        },
        {
          "internalType": "bytes",
          "name": "cdata",
          "type": "bytes"
        }
      ],
      "name": "sequenceExact",
      "outputs": [],
      "stateMutability": "view",
      "type": "function"
    },
    {
      "inputs": [
        {
          "internalType": "bytes",
          "name": "extra",
          "type": "bytes"
        },
        {
          "internalType": "address[7]",
          "name": "addresses",
          "type": "address[7]"
        },
        {
          "internalType": "enum AuthenticatedProxy.HowToCall[2]",
          "name": "howToCalls",
          "type": "uint8[2]"
        },
        {
          "internalType": "uint256[6]",
          "name": "uints",
          "type": "uint256[6]"
        },
        {
          "internalType": "bytes",
          "name": "data",
          "type": "bytes"
        },
        {
          "internalType": "bytes",
          "name": "counterdata",
          "type": "bytes"
        }
      ],
      "name": "split",
      "outputs": [
        {
          "internalType": "uint256",
          "name": "",
          "type": "uint256"
        }
      ],
      "stateMutability": "view",
      "type": "function"
    },
    {
      "inputs": [
        {
          "internalType": "bytes",
          "name": "extra",
          "type": "bytes"
        },
        {
          "internalType": "address[7]",
          "name": "addresses",
          "type": "address[7]"
        },
        {
          "internalType": "enum AuthenticatedProxy.HowToCall[2]",
          "name": "howToCalls",
          "type": "uint8[2]"
        },
        {
          "internalType": "uint256[6]",
          "name": "uints",
          "type": "uint256[6]"
        },
        {
          "internalType": "bytes",
          "name": "data",
          "type": "bytes"
        },
        {
          "internalType": "bytes",
          "name": "counterdata",
          "type": "bytes"
        }
      ],
      "name": "splitAddOne",
      "outputs": [
        {
          "internalType": "uint256",
          "name": "",
          "type": "uint256"
        }
      ],
      "stateMutability": "view",
      "type": "function"
    },
    {
      "inputs": [
        {
          "internalType": "bytes",
          "name": "extra",
          "type": "bytes"
        },
        {
          "internalType": "address[7]",
          "name": "addresses",
          "type": "address[7]"
        },
        {
          "internalType": "enum AuthenticatedProxy.HowToCall[2]",
          "name": "howToCalls",
          "type": "uint8[2]"
        },
        {
          "internalType": "uint256[6]",
          "name": "uints",
          "type": "uint256[6]"
        },
        {
          "internalType": "bytes",
          "name": "data",
          "type": "bytes"
        },
        {
          "internalType": "bytes",
          "name": "counterdata",
          "type": "bytes"
        }
      ],
      "name": "swapExact",
      "outputs": [
        {
          "internalType": "uint256",
          "name": "",
          "type": "uint256"
        }
      ],
      "stateMutability": "pure",
      "type": "function"
    },
    {
      "inputs": [
        {
          "internalType": "bytes",
          "name": "extra",
          "type": "bytes"
        },
        {
          "internalType": "address[7]",
          "name": "addresses",
          "type": "address[7]"
        },
        {
          "internalType": "enum AuthenticatedProxy.HowToCall[2]",
          "name": "howToCalls",
          "type": "uint8[2]"
        },
        {
          "internalType": "uint256[6]",
          "name": "uints",
          "type": "uint256[6]"
        },
        {
          "internalType": "bytes",
          "name": "data",
          "type": "bytes"
        },
        {
          "internalType": "bytes",
          "name": "counterdata",
          "type": "bytes"
        }
      ],
      "name": "swapForever",
      "outputs": [
        {
          "internalType": "uint256",
          "name": "",
          "type": "uint256"
        }
      ],
      "stateMutability": "pure",
      "type": "function"
    },
    {
      "inputs": [
        {
          "internalType": "bytes",
          "name": "extra",
          "type": "bytes"
        },
        {
          "internalType": "address[7]",
          "name": "addresses",
          "type": "address[7]"
        },
        {
          "internalType": "enum AuthenticatedProxy.HowToCall[2]",
          "name": "howToCalls",
          "type": "uint8[2]"
        },
        {
          "internalType": "uint256[6]",
          "name": "uints",
          "type": "uint256[6]"
        },
        {
          "internalType": "bytes",
          "name": "data",
          "type": "bytes"
        },
        {
          "internalType": "bytes",
          "name": "counterdata",
          "type": "bytes"
        }
      ],
      "name": "swapOneForOneERC1155",
      "outputs": [
        {
          "internalType": "uint256",
          "name": "",
          "type": "uint256"
        }
      ],
      "stateMutability": "pure",
      "type": "function"
    },
    {
      "inputs": [
        {
          "internalType": "bytes",
          "name": "extra",
          "type": "bytes"
        },
        {
          "internalType": "address[7]",
          "name": "addresses",
          "type": "address[7]"
        },
        {
          "internalType": "enum AuthenticatedProxy.HowToCall[2]",
          "name": "howToCalls",
          "type": "uint8[2]"
        },
        {
          "internalType": "uint256[6]",
          "name": "uints",
          "type": "uint256[6]"
        },
        {
          "internalType": "bytes",
          "name": "data",
          "type": "bytes"
        },
        {
          "internalType": "bytes",
          "name": "counterdata",
          "type": "bytes"
        }
      ],
      "name": "swapOneForOneERC1155Decoding",
      "outputs": [
        {
          "internalType": "uint256",
          "name": "",
          "type": "uint256"
        }
      ],
      "stateMutability": "pure",
      "type": "function"
    },
    {
      "inputs": [
        {
          "internalType": "bytes",
          "name": "extra",
          "type": "bytes"
        },
        {
          "internalType": "address[7]",
          "name": "addresses",
          "type": "address[7]"
        },
        {
          "internalType": "enum AuthenticatedProxy.HowToCall[2]",
          "name": "howToCalls",
          "type": "uint8[2]"
        },
        {
          "internalType": "uint256[6]",
          "name": "uints",
          "type": "uint256[6]"
        },
        {
          "internalType": "bytes",
          "name": "data",
          "type": "bytes"
        },
        {
          "internalType": "bytes",
          "name": "counterdata",
          "type": "bytes"
        }
      ],
      "name": "swapOneForOneERC721",
      "outputs": [
        {
          "internalType": "uint256",
          "name": "",
          "type": "uint256"
        }
      ],
      "stateMutability": "pure",
      "type": "function"
    },
    {
      "inputs": [
        {
          "internalType": "bytes",
          "name": "extra",
          "type": "bytes"
        },
        {
          "internalType": "address[7]",
          "name": "addresses",
          "type": "address[7]"
        },
        {
          "internalType": "enum AuthenticatedProxy.HowToCall[2]",
          "name": "howToCalls",
          "type": "uint8[2]"
        },
        {
          "internalType": "uint256[6]",
          "name": "uints",
          "type": "uint256[6]"
        },
        {
          "internalType": "bytes",
          "name": "data",
          "type": "bytes"
        },
        {
          "internalType": "bytes",
          "name": "counterdata",
          "type": "bytes"
        }
      ],
      "name": "swapOneForOneERC721Decoding",
      "outputs": [
        {
          "internalType": "uint256",
          "name": "",
          "type": "uint256"
        }
      ],
      "stateMutability": "pure",
      "type": "function"
    },
    {
      "inputs": [
        {
          "internalType": "bytes",
          "name": "extra",
          "type": "bytes"
        },
        {
          "internalType": "address[7]",
          "name": "addresses",
          "type": "address[7]"
        },
        {
          "internalType": "enum AuthenticatedProxy.HowToCall",
          "name": "howToCall",
          "type": "uint8"
        },
        {
          "internalType": "uint256[6]",
          "name": "",
          "type": "uint256[6]"
        },
        {
          "internalType": "bytes",
          "name": "data",
          "type": "bytes"
        }
      ],
      "name": "transferERC1155Exact",
      "outputs": [],
      "stateMutability": "pure",
      "type": "function"
    },
    {
      "inputs": [
        {
          "internalType": "bytes",
          "name": "extra",
          "type": "bytes"
        },
        {
          "internalType": "address[7]",
          "name": "addresses",
          "type": "address[7]"
        },
        {
          "internalType": "enum AuthenticatedProxy.HowToCall",
          "name": "howToCall",
          "type": "uint8"
        },
        {
          "internalType": "uint256[6]",
          "name": "",
          "type": "uint256[6]"
        },
        {
          "internalType": "bytes",
          "name": "data",
          "type": "bytes"
        }
      ],
      "name": "transferERC20Exact",
      "outputs": [],
      "stateMutability": "pure",
      "type": "function"
    },
    {
      "inputs": [
        {
          "internalType": "bytes",
          "name": "extra",
          "type": "bytes"
        },
        {
          "internalType": "address[7]",
          "name": "addresses",
          "type": "address[7]"
        },
        {
          "internalType": "enum AuthenticatedProxy.HowToCall",
          "name": "howToCall",
          "type": "uint8"
        },
        {
          "internalType": "uint256[6]",
          "name": "",
          "type": "uint256[6]"
        },
        {
          "internalType": "bytes",
          "name": "data",
          "type": "bytes"
        }
      ],
      "name": "transferERC721Exact",
      "outputs": [],
      "stateMutability": "pure",
      "type": "function"
    },
    {
      "inputs": [],
      "name": "test",
      "outputs": [],
      "stateMutability": "pure",
      "type": "function"
    }
  ],
  "bytecode": "0x60806040523480156200001157600080fd5b5060405162002c3738038062002c3783398101604081905262000034916200005a565b600080546001600160a01b0319166001600160a01b03929092169190911790556200008a565b6000602082840312156200006c578081fd5b81516001600160a01b038116811462000083578182fd5b9392505050565b612b9d806200009a6000396000f3fe608060405234801561001057600080fd5b506004361061014d5760003560e01c8063883ee430116100c3578063dcbcb5d91161007c578063dcbcb5d9146102df578063ddf98cc2146102f2578063e1beb48414610305578063ed94fc661461031f578063f6280c8614610332578063f8a8fd6d1461021657600080fd5b8063883ee4301461027e578063a09858da14610291578063ac5cc03f146102a4578063b67bf134146102b7578063b6c8184b14610203578063ba352743146102cc57600080fd5b8063265a87e711610115578063265a87e7146102035780632e0b69db146102185780634563928f1461022b5780634e9413f91461023e5780637557ef9814610251578063837b54ad1461026457600080fd5b8063025b6d341461015257806306fdde03146101785780630d3b91d4146101b257806320e9a818146101dd57806323f62d9c146101f0575b600080fd5b610165610160366004612485565b610345565b6040519081526020015b60405180910390f35b6101a56040518060400160405280600e81526020016d5461757265756d2053746174696360901b81525081565b60405161016f91906127f4565b6000546101c5906001600160a01b031681565b6040516001600160a01b03909116815260200161016f565b6101656101eb366004612485565b610367565b6101656101fe366004612485565b61051e565b61021661021136600461258c565b610690565b005b61021661022636600461258c565b610748565b610165610239366004612485565b61081e565b61021661024c366004612485565b610b1f565b61016561025f366004612485565b610d25565b610165610272366004612485565b60019695505050505050565b61016561028c366004612485565b610e4d565b61016561029f366004612485565b6110d4565b6102166102b236600461258c565b6110f5565b6102166102c536600461258c565b5050505050565b6101656102da366004612485565b611227565b6102166102ed366004612485565b611352565b610165610300366004612485565b6115c1565b610165610313366004612485565b60009695505050505050565b61021661032d36600461258c565b6115da565b610165610340366004612485565b6116ec565b600061035a87878784602002015187876110f5565b5060019695505050505050565b60008060008060008a80602001905181019061038391906121e0565b929650909450925090506103f784600060200201518460006020020151848d8d600060200201518d8d6040516024016103c0959493929190612796565b60408051601f198184030181529190526020810180516001600160e01b03166001600160e01b03199093169290921790915261191a565b61040057600080fd5b61050484600160200201518460016020020151836040518060e001604052808f60036007811061044057634e487b7160e01b600052603260045260246000fd5b602090810291909101516001600160a01b03168252018f6004602090810291909101516001600160a01b03168252018f6005602090810291909101516001600160a01b03168252018f6000602090810291909101516001600160a01b03168252018f6001602090810291909101516001600160a01b03168252018f6002602090810291909101516001600160a01b03168252018f600660200201516001600160a01b031690528d600160200201518d8c6040516024016103c0959493929190612796565b61050d57600080fd5b5060019a9950505050505050505050565b82516000901561052d57600080fd5b6000808880602001905181019061054491906122ad565b815160408b01519294509092506001600160a01b0391821691161461056857600080fd5b8651600090600181111561058c57634e487b7160e01b600052602160045260246000fd5b1461059657600080fd5b610605858960015b602002015160808b01518460005b60200201516040516001600160a01b03938416602482015292909116604483015260648201526084015b60408051601f198184030181529190526020810180516001600160e01b03166323b872dd60e01b179052611930565b61060e57600080fd5b602082015160a08901516001600160a01b0390811691161461062f57600080fd5b6020870151600090600181111561065657634e487b7160e01b600052602160045260246000fd5b1461066057600080fd5b608088015160208901516106789186918460016105ac565b61068157600080fd5b50600198975050505050505050565b600080868060200190518101906106a7919061217d565b90925090506001600160a01b03821686600260200201516001600160a01b0316146106d157600080fd5b60008560018111156106f357634e487b7160e01b600052602160045260246000fd5b146106fd57600080fd5b602086015160808701516040516001600160a01b03928316602482015291166044820152606481018290526107369084906084016105d6565b61073f57600080fd5b50505050505050565b60008060008780602001905181019061076191906121aa565b919450925090506001600160a01b03831687600260200201516001600160a01b03161461078d57600080fd5b60008660018111156107af57634e487b7160e01b600052602160045260246000fd5b146107b957600080fd5b6020870151608088015160405161080b9287926107dc92879087906024016126c7565b60408051601f198184030181529190526020810180516001600160e01b0316637921219560e11b179052611930565b61081457600080fd5b5050505050505050565b82516000901561082d57600080fd5b60008060008980602001905181019061084691906122e1565b825160408d015193965091945092506001600160a01b039182169116146108885760405162461bcd60e51b815260040161087f90612932565b60405180910390fd5b80516108ec5760405162461bcd60e51b815260206004820152602d60248201527f455243313135353a206769766520616d6f756e74206d757374206265206c617260448201526c676572207468616e207a65726f60981b606482015260840161087f565b8751600090600181111561091057634e487b7160e01b600052602160045260246000fd5b1461092d5760405162461bcd60e51b815260040161087f90612807565b610960868a600160200201518b60045b602002015185518560005b60200201516040516024016107dc94939291906126c7565b61096957600080fd5b602083015160a08a01516001600160a01b039081169116146109f35760405162461bcd60e51b815260206004820152603e60248201527f455243313135353a20636f756e74657263616c6c20746172676574206d75737460448201527f20657175616c2061646472657373206f6620746f6b656e20746f206765740000606482015260840161087f565b6020810151610a5a5760405162461bcd60e51b815260206004820152602d60248201527f455243313135353a2074616b6520616d6f756e74206d757374206265206c617260448201526c676572207468616e207a65726f60981b606482015260840161087f565b60208801516000906001811115610a8157634e487b7160e01b600052602160045260246000fd5b14610ae15760405162461bcd60e51b815260206004820152602a60248201527f455243313135353a20636f756e74657263616c6c206d757374206265206120646044820152691a5c9958dd0818d85b1b60b21b606482015260840161087f565b610b06858a600460200201518b60015b60200201518560016020020151856001610948565b610b0f57600080fd5b5060019998505050505050505050565b60008060008089806020019051810190610b399190612326565b93509350935093508151845114610b4f57600080fd5b6000805b8551811015610d17576000848281518110610b7e57634e487b7160e01b600052603260045260246000fd5b60200260200101516001600160401b03811115610bab57634e487b7160e01b600052604160045260246000fd5b6040519080825280601f01601f191660200182016040528015610bd5576020820181803683370190505b50905060005b858381518110610bfb57634e487b7160e01b600052603260045260246000fd5b6020026020010151811015610c8c57848481518110610c2a57634e487b7160e01b600052603260045260246000fd5b602001015160f81c60f81b828281518110610c5557634e487b7160e01b600052603260045260246000fd5b60200101906001600160f81b031916908160001a90535083610c7681612b08565b9450508080610c8490612b08565b915050610bdb565b50610cfb878381518110610cb057634e487b7160e01b600052603260045260246000fd5b6020026020010151878481518110610cd857634e487b7160e01b600052603260045260246000fd5b6020026020010151838f8f8f8f8f6040516024016103c0969594939291906126ff565b610d0457600080fd5b5080610d0f81612b08565b915050610b53565b505050505050505050505050565b604080516004808252602482019092526020810180516001600160e01b0316637921219560e11b1790526000918291610d5d91611994565b855190915015610d6c57600080fd5b60008060008a806020019051810190610d8591906122e1565b825160408e015193965091945092506001600160a01b03918216911614610dbe5760405162461bcd60e51b815260040161087f90612932565b88516000906001811115610de257634e487b7160e01b600052602160045260246000fd5b14610dff5760405162461bcd60e51b815260040161087f90612807565b610e1384610e0e896004611994565b611930565b610e1c57600080fd5b610e30878b600160200201518c600461093d565b610e3957600080fd5b610504868b600460200201518c6001610af1565b604080516004808252602482019092526020810180516001600160e01b03166323b872dd60e01b1790526000918291610e8591611994565b855190915015610e9457600080fd5b60008089806020019051810190610eab91906122ad565b815160408c01519294509092506001600160a01b03918216911614610ee25760405162461bcd60e51b815260040161087f90612893565b87516000906001811115610f0657634e487b7160e01b600052602160045260246000fd5b14610f235760405162461bcd60e51b815260040161087f906128f0565b610f3283610e0e886004611994565b610f3b57600080fd5b6000806000610f4b8960046119a9565b806020019051810190610f5e919061213b565b919450925090508b600160200201516001600160a01b0316836001600160a01b031614610f8a57600080fd5b60808c01516001600160a01b03838116911614610fa657600080fd5b83518114610fb357600080fd5b602085015160a08d01516001600160a01b03908116911614610fe75760405162461bcd60e51b815260040161087f9061298f565b60208b0151600090600181111561100e57634e487b7160e01b600052602160045260246000fd5b1461102b5760405162461bcd60e51b815260040161087f9061284a565b61103a86610e0e8a6004611994565b61104357600080fd5b60008060006110538b60046119a9565b806020019051810190611066919061213b565b919450925090508e600460200201516001600160a01b0316836001600160a01b03161461109257600080fd5b60208f01516001600160a01b038381169116146110ae57600080fd5b602087015181146110be57600080fd5b5060019f9e505050505050505050505050505050565b60008360055b60200201516110ea906001612a8e565b979650505050505050565b6000806000808880602001905181019061110f91906123b4565b9350935093509350825184511461112557600080fd5b6000806000806111368960046119a9565b806020019051810190611149919061242d565b600054939750919550935091506001600160a01b03168c600260200201516001600160a01b03161461117a57600080fd5b60018b600181111561119c57634e487b7160e01b600052602160045260246000fd5b146111a657600080fd5b83518851146111b457600080fd5b60005b8851811015611206578381815181106111e057634e487b7160e01b600052603260045260246000fd5b60200260200101516000146111f457600080fd5b806111fe81612b08565b9150506111b7565b506112188483838f8e8d8d8d8d6119cf565b50505050505050505050505050565b82516000901561123657600080fd5b6000808880602001905181019061124d91906122ad565b815160408b01519294509092506001600160a01b039182169116146112845760405162461bcd60e51b815260040161087f90612893565b865160009060018111156112a857634e487b7160e01b600052602160045260246000fd5b146112c55760405162461bcd60e51b815260040161087f906128f0565b6112d18589600161059e565b6112da57600080fd5b602082015160a08901516001600160a01b0390811691161461130e5760405162461bcd60e51b815260040161087f9061298f565b6020870151600090600181111561133557634e487b7160e01b600052602160045260246000fd5b146106605760405162461bcd60e51b815260040161087f9061284a565b6000806000808980602001905181019061136c9190612326565b935093509350935081518451146113eb5760405162461bcd60e51b815260206004820152603860248201527f446966666572656e74206e756d626572206f66207374617469632063616c6c2060448201527f61646472657373657320616e6420657874726164617461730000000000000000606482015260840161087f565b6000805b855181101561157057600084828151811061141a57634e487b7160e01b600052603260045260246000fd5b60200260200101516001600160401b0381111561144757634e487b7160e01b600052604160045260246000fd5b6040519080825280601f01601f191660200182016040528015611471576020820181803683370190505b50905060005b85838151811061149757634e487b7160e01b600052603260045260246000fd5b6020026020010151811015611528578484815181106114c657634e487b7160e01b600052603260045260246000fd5b602001015160f81c60f81b8282815181106114f157634e487b7160e01b600052603260045260246000fd5b60200101906001600160f81b031916908160001a9053508361151281612b08565b945050808061152090612b08565b915050611477565b5061154c878381518110610cb057634e487b7160e01b600052603260045260246000fd5b1561155d57505050505050506115b9565b508061156881612b08565b9150506113ef565b5060405162461bcd60e51b815260206004820152601960248201527f4e6f207374617469632063616c6c732073756363656564656400000000000000604482015260640161087f565b505050505050565b60006115d1878787878787610367565b508360056110da565b600080600080888060200190518101906115f491906123b4565b9350935093509350825184511461160a57600080fd5b60008060008061161b8960046119a9565b80602001905181019061162e919061242d565b600054939750919550935091506001600160a01b03168c600260200201516001600160a01b03161461165f57600080fd5b60018b600181111561168157634e487b7160e01b600052602160045260246000fd5b1461168b57600080fd5b83518851111561169a57600080fd5b60005b8851811015611206578381815181106116c657634e487b7160e01b600052603260045260246000fd5b60200260200101516000146116da57600080fd5b806116e481612b08565b91505061169d565b604080516004808252602482019092526020810180516001600160e01b03166323b872dd60e01b179052600091829161172491611994565b85519091501561173357600080fd5b6000808980602001905181019061174a91906122ad565b815160408c01519294509092506001600160a01b0391821691161461176e57600080fd5b8751600090600181111561179257634e487b7160e01b600052602160045260246000fd5b1461179c57600080fd5b6117ab83610e0e886004611994565b6117b457600080fd5b60008060006117c48960046119a9565b8060200190518101906117d7919061213b565b919450925090508b600160200201516001600160a01b0316836001600160a01b03161461180357600080fd5b60808c01516001600160a01b0383811691161461181f57600080fd5b602085015160a08d01516001600160a01b0390811691161461184057600080fd5b60208b0151600090600181111561186757634e487b7160e01b600052602160045260246000fd5b1461187157600080fd5b61188086610e0e8a6004611994565b61188957600080fd5b60008060006118998b60046119a9565b8060200190518101906118ac919061213b565b919450925090508e600460200201516001600160a01b0316836001600160a01b0316146118d857600080fd5b60208f01516001600160a01b038381169116146118f457600080fd5b86516119009085612aa6565b602088015161190f9083612aa6565b10156110be57600080fd5b600080604051835160208501865afa9392505050565b81518151600091600191811480831461194c576000925061198a565b600160208701838101602088015b6002848385100114156119855780518351146119795760009650600093505b6020928301920161195a565b505050505b5090949350505050565b60606119a283600084611d4c565b9392505050565b606060008284516119ba9190612ac5565b90506119c7848483611d4c565b949350505050565b60008060005b8651811015611d31576000868281518110611a0057634e487b7160e01b600052603260045260246000fd5b60200260200101516001600160401b03811115611a2d57634e487b7160e01b600052604160045260246000fd5b6040519080825280601f01601f191660200182016040528015611a57576020820181803683370190505b50905060005b878381518110611a7d57634e487b7160e01b600052603260045260246000fd5b6020026020010151811015611b0e57858581518110611aac57634e487b7160e01b600052603260045260246000fd5b602001015160f81c60f81b828281518110611ad757634e487b7160e01b600052603260045260246000fd5b60200101906001600160f81b031916908160001a90535084611af881612b08565b9550508080611b0690612b08565b915050611a5d565b5060008c8381518110611b3157634e487b7160e01b600052603260045260246000fd5b60200260200101516001600160401b03811115611b5e57634e487b7160e01b600052604160045260246000fd5b6040519080825280601f01601f191660200182016040528015611b88576020820181803683370190505b50905060005b8d8481518110611bae57634e487b7160e01b600052603260045260246000fd5b6020026020010151811015611c3f578c8581518110611bdd57634e487b7160e01b600052603260045260246000fd5b602001015160f81c60f81b828281518110611c0857634e487b7160e01b600052603260045260246000fd5b60200101906001600160f81b031916908160001a90535084611c2981612b08565b9550508080611c3790612b08565b915050611b8e565b508d8381518110611c6057634e487b7160e01b600052603260045260246000fd5b60200260200101518b600260078110611c8957634e487b7160e01b600052603260045260246000fd5b60200201906001600160a01b031690816001600160a01b031681525050611d13898481518110611cc957634e487b7160e01b600052603260045260246000fd5b6020026020010151888581518110611cf157634e487b7160e01b600052603260045260246000fd5b6020026020010151848e60008f876040516024016103c0959493929190612796565b611d1c57600080fd5b50508080611d2990612b08565b9150506119d5565b5082518214611d3f57600080fd5b5050505050505050505050565b60608082158015611d6857604051915060208201604052611db2565b6040519150601f8416801560200281840101858101878315602002848b0101015b81831015611da1578051835260209283019201611d89565b5050858452601f01601f1916604052505b50949350505050565b600082601f830112611dcb578081fd5b611dd36129ec565b808385604086011115611de4578384fd5b835b6002811015611e0f578151611dfa81612b4f565b84526020938401939190910190600101611de6565b509095945050505050565b600082601f830112611e2a578081fd5b60405160e081018181106001600160401b0382111715611e4c57611e4c612b39565b604052808360e08101861015611e60578384fd5b835b6007811015611e8b578135611e7681612b4f565b83526020928301929190910190600101611e62565b509195945050505050565b600082601f830112611ea6578081fd5b81516020611ebb611eb683612a44565b612a14565b80838252828201915082860187848660051b8901011115611eda578586fd5b855b85811015611f01578151611eef81612b4f565b84529284019290840190600101611edc565b5090979650505050505050565b600082601f830112611f1e578081fd5b81516020611f2e611eb683612a44565b80838252828201915082860187848660051b8901011115611f4d578586fd5b855b85811015611f0157611f6082612080565b84529284019290840190600101611f4f565b600082601f830112611f82578081fd5b611f8a6129ec565b808385604086011115611f9b578384fd5b835b6002811015611e0f578151845260209384019390910190600101611f9d565b600082601f830112611fcc578081fd5b60405160c081018181106001600160401b0382111715611fee57611fee612b39565b604052808360c08101861015612002578384fd5b835b6006811015611e8b578135835260209283019290910190600101612004565b600082601f830112612033578081fd5b81516020612043611eb683612a44565b80838252828201915082860187848660051b8901011115612062578586fd5b855b85811015611f0157815184529284019290840190600101612064565b80516001600160e01b03198116811461209857600080fd5b919050565b600082601f8301126120ad578081fd5b81356120bb611eb682612a67565b8181528460208386010111156120cf578283fd5b816020850160208301379081016020019190915292915050565b600082601f8301126120f9578081fd5b8151612107611eb682612a67565b81815284602083860101111561211b578283fd5b6119c7826020830160208701612adc565b80356002811061209857600080fd5b60008060006060848603121561214f578283fd5b835161215a81612b4f565b602085015190935061216b81612b4f565b80925050604084015190509250925092565b6000806040838503121561218f578182fd5b825161219a81612b4f565b6020939093015192949293505050565b6000806000606084860312156121be578081fd5b83516121c981612b4f565b602085015160409095015190969495509392505050565b60008060008060c085870312156121f5578182fd5b6121ff8686611dbb565b935085605f86011261220f578182fd5b6122176129ec565b8060408701608088018981111561222c578586fd5b855b60028110156122555761224083612080565b8552602094850194929092019160010161222e565b50519195509091506001600160401b03905080821115612273578384fd5b61227f888389016120e9565b935060a0870151915080821115612294578283fd5b506122a1878288016120e9565b91505092959194509250565b600080608083850312156122bf578182fd5b6122c98484611dbb565b91506122d88460408501611f72565b90509250929050565b600080600060c084860312156122f5578081fd5b6122ff8585611dbb565b925061230e8560408601611f72565b915061231d8560808601611f72565b90509250925092565b6000806000806080858703121561233b578182fd5b84516001600160401b0380821115612351578384fd5b61235d88838901611e96565b95506020870151915080821115612372578384fd5b61237e88838901611f0e565b94506040870151915080821115612393578384fd5b61239f88838901612023565b93506060870151915080821115612294578283fd5b600080600080608085870312156123c9578182fd5b84516001600160401b03808211156123df578384fd5b6123eb88838901611e96565b95506020870151915080821115612400578384fd5b61240c88838901612023565b94506040870151915080821115612421578384fd5b61239f88838901611f0e565b60008060008060808587031215612442578182fd5b84516001600160401b0380821115612458578384fd5b61246488838901611e96565b95506020870151915080821115612479578384fd5b61237e88838901612023565b600080600080600080610240878903121561249e578384fd5b86356001600160401b03808211156124b4578586fd5b6124c08a838b0161209d565b9750602091506124d28a838b01611e1a565b96508961011f8a01126124e3578586fd5b6124eb6129ec565b806101008b016101408c018d81111561250257898afd5b895b6002811015612528576125168361212c565b85529386019391860191600101612504565b508299506125368e82611fbc565b985050505050610200890135915080821115612550578384fd5b61255c8a838b0161209d565b9350610220890135915080821115612572578283fd5b5061257f89828a0161209d565b9150509295509295509295565b600080600080600061020086880312156125a4578283fd5b85356001600160401b03808211156125ba578485fd5b6125c689838a0161209d565b96506125d58960208a01611e1a565b95506125e4610100890161212c565b94506125f4896101208a01611fbc565b93506101e088013591508082111561260a578283fd5b506126178882890161209d565b9150509295509295909350565b8060005b60078110156126505781516001600160a01b0316845260209384019390910190600101612628565b50505050565b8060005b600681101561265057815184526020938401939091019060010161265a565b60008151808452612691816020860160208601612adc565b601f01601f19169290920160200192915050565b600281106126c357634e487b7160e01b600052602160045260246000fd5b9052565b6001600160a01b0394851681529290931660208301526040820152606081019190915260a06080820181905260009082015260c00190565b60006102408083526127138184018a612679565b905060206127238185018a612624565b610100840188845b600281101561274f5761273f8383516126a5565b918301919083019060010161272b565b50505050612761610140840187612656565b8281036102008401526127748186612679565b90508281036102208401526127898185612679565b9998505050505050505050565b60006102008083526127aa81840189612679565b90506127b96020840188612624565b6127c76101008401876126a5565b6127d5610120840186612656565b8281036101e08401526127e88185612679565b98975050505050505050565b6020815260006119a26020830184612679565b60208082526023908201527f455243313135353a2063616c6c206d7573742062652061206469726563742063604082015262185b1b60ea1b606082015260800190565b60208082526029908201527f4552433732313a20636f756e74657263616c6c206d75737420626520612064696040820152681c9958dd0818d85b1b60ba1b606082015260800190565b60208082526037908201527f4552433732313a2063616c6c20746172676574206d75737420657175616c206160408201527f646472657373206f6620746f6b656e20746f2067697665000000000000000000606082015260800190565b60208082526022908201527f4552433732313a2063616c6c206d7573742062652061206469726563742063616040820152611b1b60f21b606082015260800190565b60208082526038908201527f455243313135353a2063616c6c20746172676574206d75737420657175616c2060408201527f61646472657373206f6620746f6b656e20746f20676976650000000000000000606082015260800190565b6020808252603d908201527f4552433732313a20636f756e74657263616c6c20746172676574206d7573742060408201527f657175616c2061646472657373206f6620746f6b656e20746f20676574000000606082015260800190565b604080519081016001600160401b0381118282101715612a0e57612a0e612b39565b60405290565b604051601f8201601f191681016001600160401b0381118282101715612a3c57612a3c612b39565b604052919050565b60006001600160401b03821115612a5d57612a5d612b39565b5060051b60200190565b60006001600160401b03821115612a8057612a80612b39565b50601f01601f191660200190565b60008219821115612aa157612aa1612b23565b500190565b6000816000190483118215151615612ac057612ac0612b23565b500290565b600082821015612ad757612ad7612b23565b500390565b60005b83811015612af7578181015183820152602001612adf565b838111156126505750506000910152565b6000600019821415612b1c57612b1c612b23565b5060010190565b634e487b7160e01b600052601160045260246000fd5b634e487b7160e01b600052604160045260246000fd5b6001600160a01b0381168114612b6457600080fd5b5056fea26469706673582212209c330649507eef810644643b9c06a12ecb34b613f8939d43dc1cda565ac40f3164736f6c63430008040033",
  "immutableReferences": {},
  "source": "/*\n\n  << Taureum Static >>\n\n*/\n\npragma solidity 0.8.4;\n\nimport \"./static/StaticERC20.sol\";\nimport \"./static/StaticERC721.sol\";\nimport \"./static/StaticERC1155.sol\";\nimport \"./static/StaticUtil.sol\";\n\n/**\n * @title TaureumStatic\n */\ncontract TaureumStatic is StaticERC20, StaticERC721, StaticERC1155, StaticUtil {\n\n    string public constant name = \"Taureum Static\";\n\n    constructor (address atomicizerAddress)\n        public\n    {\n        atomicizer = atomicizerAddress;\n    }\n\n    function test () \n        public\n        pure\n    {\n    }\n\n}\n",
  "sourcePath": "/home/toor/nodejs/truffle/nft_demo/taudefi/taudefi-nft-protocol/contracts/TaureumStatic.sol",
  "compiler": {
    "name": "solc",
    "version": "0.8.4+commit.c7e474f2.Emscripten.clang"
  },
  "schemaVersion": "3.4.1",
  "updatedAt": "2021-07-18T03:02:32.354Z",
  "devdoc": {
    "kind": "dev",
    "methods": {},
    "title": "TaureumStatic",
    "version": 1
  },
  "userdoc": {
    "kind": "user",
    "methods": {},
    "version": 1
  }
}