{
  "contractName": "TaureumTokenTransferProxy",
  "abi": [
    {
      "inputs": [
        {
          "internalType": "contract ProxyRegistry",
          "name": "registryAddr",
          "type": "address"
        }
      ],
      "stateMutability": "nonpayable",
      "type": "constructor"
    },
    {
      "inputs": [],
      "name": "registry",
      "outputs": [
        {
          "internalType": "contract ProxyRegistry",
          "name": "",
          "type": "address"
        }
      ],
      "stateMutability": "view",
      "type": "function",
      "constant": true
    },
    {
      "inputs": [
        {
          "internalType": "address",
          "name": "token",
          "type": "address"
        },
        {
          "internalType": "address",
          "name": "from",
          "type": "address"
        },
        {
          "internalType": "address",
          "name": "to",
          "type": "address"
        },
        {
          "internalType": "uint256",
          "name": "amount",
          "type": "uint256"
        }
      ],
      "name": "transferFrom",
      "outputs": [
        {
          "internalType": "bool",
          "name": "",
          "type": "bool"
        }
      ],
      "stateMutability": "nonpayable",
      "type": "function"
    }
  ],
  "bytecode": "0x608060405234801561001057600080fd5b506040516102fa3803806102fa83398101604081905261002f91610054565b600080546001600160a01b0319166001600160a01b0392909216919091179055610082565b600060208284031215610065578081fd5b81516001600160a01b038116811461007b578182fd5b9392505050565b610269806100916000396000f3fe608060405234801561001057600080fd5b50600436106100365760003560e01c806315dacbea1461003b5780637b10399914610063575b600080fd5b61004e6100493660046101c2565b61008e565b60405190151581526020015b60405180910390f35b600054610076906001600160a01b031681565b6040516001600160a01b03909116815260200161005a565b600080546040516369dc9ff360e01b81523360048201526001600160a01b03909116906369dc9ff39060240160206040518083038186803b1580156100d257600080fd5b505afa1580156100e6573d6000803e3d6000fd5b505050506040513d601f19601f8201168201806040525081019061010a919061020c565b61011357600080fd5b6040516323b872dd60e01b81526001600160a01b0385811660048301528481166024830152604482018490528616906323b872dd90606401602060405180830381600087803b15801561016557600080fd5b505af1158015610179573d6000803e3d6000fd5b505050506040513d601f19601f8201168201806040525081019061019d919061020c565b95945050505050565b80356001600160a01b03811681146101bd57600080fd5b919050565b600080600080608085870312156101d7578384fd5b6101e0856101a6565b93506101ee602086016101a6565b92506101fc604086016101a6565b9396929550929360600135925050565b60006020828403121561021d578081fd5b8151801515811461022c578182fd5b939250505056fea2646970667358221220e2637cd95e2a9e9487b5fa583e7ade79b97a09bae1c4d618909444b168f4c53b64736f6c63430008040033",
  "immutableReferences": {},
  "source": "// SPDX-License-Identifier: UNLICENSED\n/*\n\n  << Project Taureum Token Transfer Proxy >.\n\n*/\n\npragma solidity 0.8.4;\n\nimport \"./registry/TokenTransferProxy.sol\";\n\ncontract TaureumTokenTransferProxy is TokenTransferProxy {\n\n    constructor (ProxyRegistry registryAddr) {\n        registry = registryAddr;\n    }\n\n}\n",
  "sourcePath": "/home/toor/nodejs/truffle/nft_demo/taureum/taureum-nft-protocol-sc/contracts/TaureumTokenTransferProxy.sol",
  "compiler": {
    "name": "solc",
    "version": "0.8.4+commit.c7e474f2.Emscripten.clang"
  },
  "schemaVersion": "3.4.1",
  "updatedAt": "2021-08-29T11:39:05.299Z",
  "networkType": "ethereum",
  "devdoc": {
    "kind": "dev",
    "methods": {
      "transferFrom(address,address,address,uint256)": {
        "details": "Authenticated contract only",
        "params": {
          "amount": "Transfer amount",
          "from": "From address",
          "to": "To address",
          "token": "ERC20 token address"
        }
      }
    },
    "version": 1
  },
  "userdoc": {
    "kind": "user",
    "methods": {
      "transferFrom(address,address,address,uint256)": {
        "notice": "Call ERC20 `transferFrom`"
      }
    },
    "version": 1
  }
}