{
  "contractName": "TaureumExchange",
  "abi": [
    {
      "inputs": [
        {
          "internalType": "contract ProxyRegistry",
          "name": "registryAddress",
          "type": "address"
        },
        {
          "internalType": "contract TokenTransferProxy",
          "name": "tokenTransferProxyAddress",
          "type": "address"
        },
        {
          "internalType": "contract ERC20",
          "name": "tokenAddress",
          "type": "address"
        },
        {
          "internalType": "address",
          "name": "protocolFeeAddress",
          "type": "address"
        }
      ],
      "stateMutability": "nonpayable",
      "type": "constructor"
    },
    {
      "anonymous": false,
      "inputs": [
        {
          "indexed": true,
          "internalType": "bytes32",
          "name": "hash",
          "type": "bytes32"
        },
        {
          "indexed": false,
          "internalType": "address",
          "name": "exchange",
          "type": "address"
        },
        {
          "indexed": true,
          "internalType": "address",
          "name": "maker",
          "type": "address"
        },
        {
          "indexed": false,
          "internalType": "address",
          "name": "taker",
          "type": "address"
        },
        {
          "indexed": false,
          "internalType": "uint256",
          "name": "makerRelayerFee",
          "type": "uint256"
        },
        {
          "indexed": false,
          "internalType": "uint256",
          "name": "takerRelayerFee",
          "type": "uint256"
        },
        {
          "indexed": false,
          "internalType": "uint256",
          "name": "makerProtocolFee",
          "type": "uint256"
        },
        {
          "indexed": false,
          "internalType": "uint256",
          "name": "takerProtocolFee",
          "type": "uint256"
        },
        {
          "indexed": true,
          "internalType": "address",
          "name": "feeRecipient",
          "type": "address"
        },
        {
          "indexed": false,
          "internalType": "enum ExchangeCore.FeeMethod",
          "name": "feeMethod",
          "type": "uint8"
        },
        {
          "indexed": false,
          "internalType": "enum SaleKindInterface.Side",
          "name": "side",
          "type": "uint8"
        },
        {
          "indexed": false,
          "internalType": "enum SaleKindInterface.SaleKind",
          "name": "saleKind",
          "type": "uint8"
        },
        {
          "indexed": false,
          "internalType": "address",
          "name": "target",
          "type": "address"
        }
      ],
      "name": "OrderApprovedPartOne",
      "type": "event"
    },
    {
      "anonymous": false,
      "inputs": [
        {
          "indexed": true,
          "internalType": "bytes32",
          "name": "hash",
          "type": "bytes32"
        },
        {
          "indexed": false,
          "internalType": "enum AuthenticatedProxy.HowToCall",
          "name": "howToCall",
          "type": "uint8"
        },
        {
          "indexed": false,
          "internalType": "bytes",
          "name": "callData",
          "type": "bytes"
        },
        {
          "indexed": false,
          "internalType": "bytes",
          "name": "replacementPattern",
          "type": "bytes"
        },
        {
          "indexed": false,
          "internalType": "address",
          "name": "staticTarget",
          "type": "address"
        },
        {
          "indexed": false,
          "internalType": "bytes",
          "name": "staticExtradata",
          "type": "bytes"
        },
        {
          "indexed": false,
          "internalType": "address",
          "name": "paymentToken",
          "type": "address"
        },
        {
          "indexed": false,
          "internalType": "uint256",
          "name": "basePrice",
          "type": "uint256"
        },
        {
          "indexed": false,
          "internalType": "uint256",
          "name": "extra",
          "type": "uint256"
        },
        {
          "indexed": false,
          "internalType": "uint256",
          "name": "listingTime",
          "type": "uint256"
        },
        {
          "indexed": false,
          "internalType": "uint256",
          "name": "expirationTime",
          "type": "uint256"
        },
        {
          "indexed": false,
          "internalType": "uint256",
          "name": "salt",
          "type": "uint256"
        },
        {
          "indexed": false,
          "internalType": "bool",
          "name": "orderbookInclusionDesired",
          "type": "bool"
        }
      ],
      "name": "OrderApprovedPartTwo",
      "type": "event"
    },
    {
      "anonymous": false,
      "inputs": [
        {
          "indexed": true,
          "internalType": "bytes32",
          "name": "hash",
          "type": "bytes32"
        }
      ],
      "name": "OrderCancelled",
      "type": "event"
    },
    {
      "anonymous": false,
      "inputs": [
        {
          "indexed": false,
          "internalType": "bytes32",
          "name": "buyHash",
          "type": "bytes32"
        },
        {
          "indexed": false,
          "internalType": "bytes32",
          "name": "sellHash",
          "type": "bytes32"
        },
        {
          "indexed": true,
          "internalType": "address",
          "name": "maker",
          "type": "address"
        },
        {
          "indexed": true,
          "internalType": "address",
          "name": "taker",
          "type": "address"
        },
        {
          "indexed": false,
          "internalType": "uint256",
          "name": "price",
          "type": "uint256"
        },
        {
          "indexed": true,
          "internalType": "bytes32",
          "name": "metadata",
          "type": "bytes32"
        }
      ],
      "name": "OrdersMatched",
      "type": "event"
    },
    {
      "anonymous": false,
      "inputs": [
        {
          "indexed": true,
          "internalType": "address",
          "name": "previousOwner",
          "type": "address"
        },
        {
          "indexed": true,
          "internalType": "address",
          "name": "newOwner",
          "type": "address"
        }
      ],
      "name": "OwnershipTransferred",
      "type": "event"
    },
    {
      "anonymous": false,
      "inputs": [
        {
          "indexed": false,
          "internalType": "address",
          "name": "account",
          "type": "address"
        }
      ],
      "name": "Paused",
      "type": "event"
    },
    {
      "anonymous": false,
      "inputs": [
        {
          "indexed": false,
          "internalType": "address",
          "name": "oldTokenAddress",
          "type": "address"
        },
        {
          "indexed": false,
          "internalType": "address",
          "name": "newTokenAddress",
          "type": "address"
        }
      ],
      "name": "ProtocolTokenFeeChange",
      "type": "event"
    },
    {
      "anonymous": false,
      "inputs": [
        {
          "indexed": false,
          "internalType": "address",
          "name": "account",
          "type": "address"
        }
      ],
      "name": "Unpaused",
      "type": "event"
    },
    {
      "inputs": [],
      "name": "INVERSE_BASIS_POINT",
      "outputs": [
        {
          "internalType": "uint256",
          "name": "",
          "type": "uint256"
        }
      ],
      "stateMutability": "view",
      "type": "function"
    },
    {
      "inputs": [
        {
          "internalType": "address[7]",
          "name": "addrs",
          "type": "address[7]"
        },
        {
          "internalType": "uint256[9]",
          "name": "uints",
          "type": "uint256[9]"
        },
        {
          "internalType": "enum ExchangeCore.FeeMethod",
          "name": "feeMethod",
          "type": "uint8"
        },
        {
          "internalType": "enum SaleKindInterface.Side",
          "name": "side",
          "type": "uint8"
        },
        {
          "internalType": "enum SaleKindInterface.SaleKind",
          "name": "saleKind",
          "type": "uint8"
        },
        {
          "internalType": "enum AuthenticatedProxy.HowToCall",
          "name": "howToCall",
          "type": "uint8"
        },
        {
          "internalType": "bytes",
          "name": "callData",
          "type": "bytes"
        },
        {
          "internalType": "bytes",
          "name": "replacementPattern",
          "type": "bytes"
        },
        {
          "internalType": "bytes",
          "name": "staticExtradata",
          "type": "bytes"
        },
        {
          "internalType": "bool",
          "name": "orderbookInclusionDesired",
          "type": "bool"
        }
      ],
      "name": "approveOrder_",
      "outputs": [],
      "stateMutability": "nonpayable",
      "type": "function"
    },
    {
      "inputs": [
        {
          "internalType": "bytes32",
          "name": "",
          "type": "bytes32"
        }
      ],
      "name": "approvedOrders",
      "outputs": [
        {
          "internalType": "bool",
          "name": "",
          "type": "bool"
        }
      ],
      "stateMutability": "view",
      "type": "function"
    },
    {
      "inputs": [
        {
          "internalType": "address[14]",
          "name": "addrs",
          "type": "address[14]"
        },
        {
          "internalType": "uint256[18]",
          "name": "uints",
          "type": "uint256[18]"
        },
        {
          "internalType": "uint8[8]",
          "name": "feeMethodsSidesKindsHowToCalls",
          "type": "uint8[8]"
        },
        {
          "internalType": "bytes",
          "name": "callDataBuy",
          "type": "bytes"
        },
        {
          "internalType": "bytes",
          "name": "callDataSell",
          "type": "bytes"
        },
        {
          "internalType": "bytes",
          "name": "replacementPatternBuy",
          "type": "bytes"
        },
        {
          "internalType": "bytes",
          "name": "replacementPatternSell",
          "type": "bytes"
        },
        {
          "internalType": "bytes",
          "name": "staticExtradataBuy",
          "type": "bytes"
        },
        {
          "internalType": "bytes",
          "name": "staticExtradataSell",
          "type": "bytes"
        },
        {
          "internalType": "uint8[2]",
          "name": "vs",
          "type": "uint8[2]"
        },
        {
          "internalType": "bytes32[5]",
          "name": "rssMetadata",
          "type": "bytes32[5]"
        }
      ],
      "name": "atomicMatch_",
      "outputs": [],
      "stateMutability": "payable",
      "type": "function"
    },
    {
      "inputs": [
        {
          "internalType": "address[7]",
          "name": "addrs",
          "type": "address[7]"
        },
        {
          "internalType": "uint256[9]",
          "name": "uints",
          "type": "uint256[9]"
        },
        {
          "internalType": "enum ExchangeCore.FeeMethod",
          "name": "feeMethod",
          "type": "uint8"
        },
        {
          "internalType": "enum SaleKindInterface.Side",
          "name": "side",
          "type": "uint8"
        },
        {
          "internalType": "enum SaleKindInterface.SaleKind",
          "name": "saleKind",
          "type": "uint8"
        },
        {
          "internalType": "enum AuthenticatedProxy.HowToCall",
          "name": "howToCall",
          "type": "uint8"
        },
        {
          "internalType": "bytes",
          "name": "callData",
          "type": "bytes"
        },
        {
          "internalType": "bytes",
          "name": "replacementPattern",
          "type": "bytes"
        },
        {
          "internalType": "bytes",
          "name": "staticExtradata",
          "type": "bytes"
        }
      ],
      "name": "calculateCurrentPrice_",
      "outputs": [
        {
          "internalType": "uint256",
          "name": "",
          "type": "uint256"
        }
      ],
      "stateMutability": "view",
      "type": "function"
    },
    {
      "inputs": [
        {
          "internalType": "address[14]",
          "name": "addrs",
          "type": "address[14]"
        },
        {
          "internalType": "uint256[18]",
          "name": "uints",
          "type": "uint256[18]"
        },
        {
          "internalType": "uint8[8]",
          "name": "feeMethodsSidesKindsHowToCalls",
          "type": "uint8[8]"
        },
        {
          "internalType": "bytes",
          "name": "callDataBuy",
          "type": "bytes"
        },
        {
          "internalType": "bytes",
          "name": "callDataSell",
          "type": "bytes"
        },
        {
          "internalType": "bytes",
          "name": "replacementPatternBuy",
          "type": "bytes"
        },
        {
          "internalType": "bytes",
          "name": "replacementPatternSell",
          "type": "bytes"
        },
        {
          "internalType": "bytes",
          "name": "staticExtradataBuy",
          "type": "bytes"
        },
        {
          "internalType": "bytes",
          "name": "staticExtradataSell",
          "type": "bytes"
        }
      ],
      "name": "calculateMatchPrice_",
      "outputs": [
        {
          "internalType": "uint256",
          "name": "",
          "type": "uint256"
        }
      ],
      "stateMutability": "view",
      "type": "function"
    },
    {
      "inputs": [
        {
          "internalType": "address[7]",
          "name": "addrs",
          "type": "address[7]"
        },
        {
          "internalType": "uint256[9]",
          "name": "uints",
          "type": "uint256[9]"
        },
        {
          "internalType": "enum ExchangeCore.FeeMethod",
          "name": "feeMethod",
          "type": "uint8"
        },
        {
          "internalType": "enum SaleKindInterface.Side",
          "name": "side",
          "type": "uint8"
        },
        {
          "internalType": "enum SaleKindInterface.SaleKind",
          "name": "saleKind",
          "type": "uint8"
        },
        {
          "internalType": "enum AuthenticatedProxy.HowToCall",
          "name": "howToCall",
          "type": "uint8"
        },
        {
          "internalType": "bytes",
          "name": "callData",
          "type": "bytes"
        },
        {
          "internalType": "bytes",
          "name": "replacementPattern",
          "type": "bytes"
        },
        {
          "internalType": "bytes",
          "name": "staticExtradata",
          "type": "bytes"
        },
        {
          "internalType": "uint8",
          "name": "v",
          "type": "uint8"
        },
        {
          "internalType": "bytes32",
          "name": "r",
          "type": "bytes32"
        },
        {
          "internalType": "bytes32",
          "name": "s",
          "type": "bytes32"
        }
      ],
      "name": "cancelOrder_",
      "outputs": [],
      "stateMutability": "nonpayable",
      "type": "function"
    },
    {
      "inputs": [
        {
          "internalType": "bytes32",
          "name": "",
          "type": "bytes32"
        }
      ],
      "name": "cancelledOrFinalized",
      "outputs": [
        {
          "internalType": "bool",
          "name": "",
          "type": "bool"
        }
      ],
      "stateMutability": "view",
      "type": "function"
    },
    {
      "inputs": [
        {
          "internalType": "uint256",
          "name": "newMinimumMakerProtocolFee",
          "type": "uint256"
        }
      ],
      "name": "changeMinimumMakerProtocolFee",
      "outputs": [],
      "stateMutability": "nonpayable",
      "type": "function"
    },
    {
      "inputs": [
        {
          "internalType": "uint256",
          "name": "newMinimumTakerProtocolFee",
          "type": "uint256"
        }
      ],
      "name": "changeMinimumTakerProtocolFee",
      "outputs": [],
      "stateMutability": "nonpayable",
      "type": "function"
    },
    {
      "inputs": [
        {
          "internalType": "address",
          "name": "newProtocolFeeRecipient",
          "type": "address"
        }
      ],
      "name": "changeProtocolFeeRecipient",
      "outputs": [],
      "stateMutability": "nonpayable",
      "type": "function"
    },
    {
      "inputs": [
        {
          "internalType": "address",
          "name": "newTokenAddress",
          "type": "address"
        }
      ],
      "name": "changeProtocolFeeTokenAddress",
      "outputs": [],
      "stateMutability": "nonpayable",
      "type": "function"
    },
    {
      "inputs": [],
      "name": "codename",
      "outputs": [
        {
          "internalType": "string",
          "name": "",
          "type": "string"
        }
      ],
      "stateMutability": "view",
      "type": "function"
    },
    {
      "inputs": [],
      "name": "exchangeToken",
      "outputs": [
        {
          "internalType": "contract ERC20",
          "name": "",
          "type": "address"
        }
      ],
      "stateMutability": "view",
      "type": "function"
    },
    {
      "inputs": [
        {
          "internalType": "address[7]",
          "name": "addrs",
          "type": "address[7]"
        },
        {
          "internalType": "uint256[9]",
          "name": "uints",
          "type": "uint256[9]"
        },
        {
          "internalType": "enum ExchangeCore.FeeMethod",
          "name": "feeMethod",
          "type": "uint8"
        },
        {
          "internalType": "enum SaleKindInterface.Side",
          "name": "side",
          "type": "uint8"
        },
        {
          "internalType": "enum SaleKindInterface.SaleKind",
          "name": "saleKind",
          "type": "uint8"
        },
        {
          "internalType": "enum AuthenticatedProxy.HowToCall",
          "name": "howToCall",
          "type": "uint8"
        },
        {
          "internalType": "bytes",
          "name": "callData",
          "type": "bytes"
        },
        {
          "internalType": "bytes",
          "name": "replacementPattern",
          "type": "bytes"
        },
        {
          "internalType": "bytes",
          "name": "staticExtradata",
          "type": "bytes"
        }
      ],
      "name": "hashOrder_",
      "outputs": [
        {
          "internalType": "bytes32",
          "name": "",
          "type": "bytes32"
        }
      ],
      "stateMutability": "pure",
      "type": "function"
    },
    {
      "inputs": [
        {
          "internalType": "address[7]",
          "name": "addrs",
          "type": "address[7]"
        },
        {
          "internalType": "uint256[9]",
          "name": "uints",
          "type": "uint256[9]"
        },
        {
          "internalType": "enum ExchangeCore.FeeMethod",
          "name": "feeMethod",
          "type": "uint8"
        },
        {
          "internalType": "enum SaleKindInterface.Side",
          "name": "side",
          "type": "uint8"
        },
        {
          "internalType": "enum SaleKindInterface.SaleKind",
          "name": "saleKind",
          "type": "uint8"
        },
        {
          "internalType": "enum AuthenticatedProxy.HowToCall",
          "name": "howToCall",
          "type": "uint8"
        },
        {
          "internalType": "bytes",
          "name": "callData",
          "type": "bytes"
        },
        {
          "internalType": "bytes",
          "name": "replacementPattern",
          "type": "bytes"
        },
        {
          "internalType": "bytes",
          "name": "staticExtradata",
          "type": "bytes"
        }
      ],
      "name": "hashToSign_",
      "outputs": [
        {
          "internalType": "bytes32",
          "name": "",
          "type": "bytes32"
        }
      ],
      "stateMutability": "pure",
      "type": "function"
    },
    {
      "inputs": [],
      "name": "minimumMakerProtocolFee",
      "outputs": [
        {
          "internalType": "uint256",
          "name": "",
          "type": "uint256"
        }
      ],
      "stateMutability": "view",
      "type": "function"
    },
    {
      "inputs": [],
      "name": "minimumTakerProtocolFee",
      "outputs": [
        {
          "internalType": "uint256",
          "name": "",
          "type": "uint256"
        }
      ],
      "stateMutability": "view",
      "type": "function"
    },
    {
      "inputs": [],
      "name": "name",
      "outputs": [
        {
          "internalType": "string",
          "name": "",
          "type": "string"
        }
      ],
      "stateMutability": "view",
      "type": "function"
    },
    {
      "inputs": [],
      "name": "owner",
      "outputs": [
        {
          "internalType": "address",
          "name": "",
          "type": "address"
        }
      ],
      "stateMutability": "view",
      "type": "function"
    },
    {
      "inputs": [],
      "name": "pause",
      "outputs": [],
      "stateMutability": "nonpayable",
      "type": "function"
    },
    {
      "inputs": [],
      "name": "paused",
      "outputs": [
        {
          "internalType": "bool",
          "name": "",
          "type": "bool"
        }
      ],
      "stateMutability": "view",
      "type": "function"
    },
    {
      "inputs": [],
      "name": "protocolFeeRecipient",
      "outputs": [
        {
          "internalType": "address",
          "name": "",
          "type": "address"
        }
      ],
      "stateMutability": "view",
      "type": "function"
    },
    {
      "inputs": [],
      "name": "registry",
      "outputs": [
        {
          "internalType": "contract ProxyRegistry",
          "name": "",
          "type": "address"
        }
      ],
      "stateMutability": "view",
      "type": "function"
    },
    {
      "inputs": [],
      "name": "renounceOwnership",
      "outputs": [],
      "stateMutability": "nonpayable",
      "type": "function"
    },
    {
      "inputs": [
        {
          "internalType": "address",
          "name": "target",
          "type": "address"
        },
        {
          "internalType": "bytes",
          "name": "callData",
          "type": "bytes"
        },
        {
          "internalType": "bytes",
          "name": "extradata",
          "type": "bytes"
        }
      ],
      "name": "staticCall",
      "outputs": [
        {
          "internalType": "bool",
          "name": "result",
          "type": "bool"
        }
      ],
      "stateMutability": "view",
      "type": "function"
    },
    {
      "inputs": [],
      "name": "tokenTransferProxy",
      "outputs": [
        {
          "internalType": "contract TokenTransferProxy",
          "name": "",
          "type": "address"
        }
      ],
      "stateMutability": "view",
      "type": "function"
    },
    {
      "inputs": [
        {
          "internalType": "address",
          "name": "newOwner",
          "type": "address"
        }
      ],
      "name": "transferOwnership",
      "outputs": [],
      "stateMutability": "nonpayable",
      "type": "function"
    },
    {
      "inputs": [],
      "name": "unPause",
      "outputs": [],
      "stateMutability": "nonpayable",
      "type": "function"
    },
    {
      "inputs": [
        {
          "internalType": "address[7]",
          "name": "addrs",
          "type": "address[7]"
        },
        {
          "internalType": "uint256[9]",
          "name": "uints",
          "type": "uint256[9]"
        },
        {
          "internalType": "enum ExchangeCore.FeeMethod",
          "name": "feeMethod",
          "type": "uint8"
        },
        {
          "internalType": "enum SaleKindInterface.Side",
          "name": "side",
          "type": "uint8"
        },
        {
          "internalType": "enum SaleKindInterface.SaleKind",
          "name": "saleKind",
          "type": "uint8"
        },
        {
          "internalType": "enum AuthenticatedProxy.HowToCall",
          "name": "howToCall",
          "type": "uint8"
        },
        {
          "internalType": "bytes",
          "name": "callData",
          "type": "bytes"
        },
        {
          "internalType": "bytes",
          "name": "replacementPattern",
          "type": "bytes"
        },
        {
          "internalType": "bytes",
          "name": "staticExtradata",
          "type": "bytes"
        }
      ],
      "name": "validateOrderParameters_",
      "outputs": [
        {
          "internalType": "bool",
          "name": "",
          "type": "bool"
        }
      ],
      "stateMutability": "view",
      "type": "function"
    },
    {
      "inputs": [
        {
          "internalType": "address[7]",
          "name": "addrs",
          "type": "address[7]"
        },
        {
          "internalType": "uint256[9]",
          "name": "uints",
          "type": "uint256[9]"
        },
        {
          "internalType": "enum ExchangeCore.FeeMethod",
          "name": "feeMethod",
          "type": "uint8"
        },
        {
          "internalType": "enum SaleKindInterface.Side",
          "name": "side",
          "type": "uint8"
        },
        {
          "internalType": "enum SaleKindInterface.SaleKind",
          "name": "saleKind",
          "type": "uint8"
        },
        {
          "internalType": "enum AuthenticatedProxy.HowToCall",
          "name": "howToCall",
          "type": "uint8"
        },
        {
          "internalType": "bytes",
          "name": "callData",
          "type": "bytes"
        },
        {
          "internalType": "bytes",
          "name": "replacementPattern",
          "type": "bytes"
        },
        {
          "internalType": "bytes",
          "name": "staticExtradata",
          "type": "bytes"
        },
        {
          "internalType": "uint8",
          "name": "v",
          "type": "uint8"
        },
        {
          "internalType": "bytes32",
          "name": "r",
          "type": "bytes32"
        },
        {
          "internalType": "bytes32",
          "name": "s",
          "type": "bytes32"
        }
      ],
      "name": "validateOrder_",
      "outputs": [
        {
          "internalType": "bool",
          "name": "",
          "type": "bool"
        }
      ],
      "stateMutability": "view",
      "type": "function"
    },
    {
      "inputs": [],
      "name": "version",
      "outputs": [
        {
          "internalType": "string",
          "name": "",
          "type": "string"
        }
      ],
      "stateMutability": "view",
      "type": "function"
    }
  ],
  "bytecode": "0x60806040526000805460ff1916815560068190556007553480156200002357600080fd5b50604051620060f7380380620060f78339810160408190526200004691620000ef565b60008054610100600160a81b031916336101008102919091178255604051909182917f8be0079c531659141344cd1fd0a4f28419497f9722a3daafe3b4186f6b6457e0908290a3506000805460ff60a81b19169055600280546001600160a01b039586166001600160a01b03199182161790915560038054948616948216949094179093556001805492851692841692909217909155600880549190931691161790556200016f565b6000806000806080858703121562000105578384fd5b8451620001128162000156565b6020860151909450620001258162000156565b6040860151909350620001388162000156565b60608601519092506200014b8162000156565b939692955090935050565b6001600160a01b03811681146200016c57600080fd5b50565b615f78806200017f6000396000f3fe6080604052600436106101e35760003560e01c80637966686811610102578063a8a41c7011610095578063d537e13111610064578063d537e131146105c9578063e57d4adb146105e9578063f2fde38b14610619578063f7b188a51461063957600080fd5b8063a8a41c7014610560578063ab834bab14610580578063ca595b9a14610593578063cae6047f146105b357600080fd5b80638076f005116100d15780638076f005146104d85780638456cb59146105085780638da5cb5b1461051d578063a25eb5d91461054057600080fd5b806379666868146104625780637b103999146104825780637ccefc52146104a25780637d766981146104b857600080fd5b8063514f03301161017a57806360bef33a1161014957806360bef33a146103ed57806364df049e1461040d578063715018a61461042d57806371d02b381461044257600080fd5b8063514f03301461035f57806354fd4d501461037f5780635c975abb146103ae5780635ef527e4146103cd57600080fd5b80631a6b13e2116101b65780631a6b13e2146102c457806328a8ee68146102e457806331e63199146103085780633f67ee0d1461033f57600080fd5b806306fdde03146101e85780630eefdbad1461023a57806310796a471461027257806314350c24146102a2575b600080fd5b3480156101f457600080fd5b506102246040518060400160405280601081526020016f5461757265756d2045786368616e676560801b81525081565b6040516102319190615dd7565b60405180910390f35b34801561024657600080fd5b5060035461025a906001600160a01b031681565b6040516001600160a01b039091168152602001610231565b34801561027e57600080fd5b5061029261028d366004615614565b61064e565b6040519015158152602001610231565b3480156102ae57600080fd5b506102c26102bd366004615c29565b6106e6565b005b3480156102d057600080fd5b506102c26102df366004615c29565b61074e565b3480156102f057600080fd5b506102fa60075481565b604051908152602001610231565b34801561031457600080fd5b506102246040518060400160405280600b81526020016a5461757265756d4265746160a81b81525081565b34801561034b57600080fd5b506102fa61035a36600461590f565b6107ad565b34801561036b57600080fd5b506102c261037a3660046155dc565b610b05565b34801561038b57600080fd5b5061022460405180604001604052806003815260200162302e3160e81b81525081565b3480156103ba57600080fd5b50600054600160a81b900460ff16610292565b3480156103d957600080fd5b506102c26103e83660046155dc565b610b81565b3480156103f957600080fd5b50610292610408366004615ae4565b610c3c565b34801561041957600080fd5b5060085461025a906001600160a01b031681565b34801561043957600080fd5b506102c2610fe7565b34801561044e57600080fd5b506102fa61045d36600461590f565b611066565b34801561046e57600080fd5b506102c261047d3660046159e2565b6113b0565b34801561048e57600080fd5b5060025461025a906001600160a01b031681565b3480156104ae57600080fd5b506102fa60065481565b3480156104c457600080fd5b506102fa6104d336600461590f565b611735565b3480156104e457600080fd5b506102926104f3366004615c29565b60046020526000908152604090205460ff1681565b34801561051457600080fd5b506102c2611a7f565b34801561052957600080fd5b5060005461010090046001600160a01b031661025a565b34801561054c57600080fd5b5060015461025a906001600160a01b031681565b34801561056c57600080fd5b506102c261057b366004615ae4565b611ab9565b6102c261058e3660046157b1565b611e79565b34801561059f57600080fd5b506102926105ae36600461590f565b612774565b3480156105bf57600080fd5b506102fa61271081565b3480156105d557600080fd5b506102fa6105e4366004615686565b612ad1565b3480156105f557600080fd5b50610292610604366004615c29565b60056020526000908152604090205460ff1681565b34801561062557600080fd5b506102c26106343660046155dc565b6132d6565b34801561064557600080fd5b506102c26133d1565b6000808251845161065f9190615e49565b6001600160401b0381111561068457634e487b7160e01b600052604160045260246000fd5b6040519080825280601f01601f1916602001820160405280156106ae576020820181803683370190505b509050602081016106bf8185613409565b90506106cb8186613409565b506000604051835160208501895afa925050505b9392505050565b6000546001600160a01b0361010090910416331461071f5760405162461bcd60e51b815260040161071690615e14565b60405180910390fd5b600054600160a81b900460ff16156107495760405162461bcd60e51b815260040161071690615dea565b600655565b6000546001600160a01b0361010090910416331461077e5760405162461bcd60e51b815260040161071690615e14565b600054600160a81b900460ff16156107a85760405162461bcd60e51b815260040161071690615dea565b600755565b6000610af7604051806102e001604052808c6000600781106107df57634e487b7160e01b600052603260045260246000fd5b60200201516001600160a01b031681526020018c60016007811061081357634e487b7160e01b600052603260045260246000fd5b60200201516001600160a01b031681526020018c60026007811061084757634e487b7160e01b600052603260045260246000fd5b60200201516001600160a01b031681526020018b60006009811061087b57634e487b7160e01b600052603260045260246000fd5b602002015181526020018b6001600981106108a657634e487b7160e01b600052603260045260246000fd5b602002015181526020018b6002600981106108d157634e487b7160e01b600052603260045260246000fd5b602002015181526020018b6003600981106108fc57634e487b7160e01b600052603260045260246000fd5b602002015181526020018c60036007811061092757634e487b7160e01b600052603260045260246000fd5b60200201516001600160a01b031681526020018a600181111561095a57634e487b7160e01b600052602160045260246000fd5b815260200189600181111561097f57634e487b7160e01b600052602160045260246000fd5b81526020018860018111156109a457634e487b7160e01b600052602160045260246000fd5b815260808d01516001600160a01b031660208201526040018760018111156109dc57634e487b7160e01b600052602160045260246000fd5b8152602081018790526040810186905260a0808e01516001600160a01b0316606083015260808201869052018c600660200201516001600160a01b031681526020018b600460098110610a3f57634e487b7160e01b600052603260045260246000fd5b602002015181526020018b600560098110610a6a57634e487b7160e01b600052603260045260246000fd5b602002015181526020018b600660098110610a9557634e487b7160e01b600052603260045260246000fd5b602002015181526020018b600760098110610ac057634e487b7160e01b600052603260045260246000fd5b602002015181526020018b600860098110610aeb57634e487b7160e01b600052603260045260246000fd5b6020020151905261344c565b9a9950505050505050505050565b6000546001600160a01b03610100909104163314610b355760405162461bcd60e51b815260040161071690615e14565b600054600160a81b900460ff1615610b5f5760405162461bcd60e51b815260040161071690615dea565b600880546001600160a01b0319166001600160a01b0392909216919091179055565b6000546001600160a01b03610100909104163314610bb15760405162461bcd60e51b815260040161071690615e14565b600054600160a81b900460ff1615610bdb5760405162461bcd60e51b815260040161071690615dea565b600180546001600160a01b038381166001600160a01b031983168117909355604080519190921680825260208201939093527f114cfa1c61a2b039de4a4dd89821f0664d2a5dc26f70a270c615a9d14fd40632910160405180910390a15050565b600080604051806102e001604052808f600060078110610c6c57634e487b7160e01b600052603260045260246000fd5b60200201516001600160a01b031681526020018f600160078110610ca057634e487b7160e01b600052603260045260246000fd5b60200201516001600160a01b031681526020018f600260078110610cd457634e487b7160e01b600052603260045260246000fd5b60200201516001600160a01b031681526020018e600060098110610d0857634e487b7160e01b600052603260045260246000fd5b602002015181526020018e600160098110610d3357634e487b7160e01b600052603260045260246000fd5b602002015181526020018e600260098110610d5e57634e487b7160e01b600052603260045260246000fd5b602002015181526020018e600360098110610d8957634e487b7160e01b600052603260045260246000fd5b602002015181526020018f600360078110610db457634e487b7160e01b600052603260045260246000fd5b60200201516001600160a01b031681526020018d6001811115610de757634e487b7160e01b600052602160045260246000fd5b81526020018c6001811115610e0c57634e487b7160e01b600052602160045260246000fd5b81526020018b6001811115610e3157634e487b7160e01b600052602160045260246000fd5b81526020018f600460200201516001600160a01b031681526020018a6001811115610e6c57634e487b7160e01b600052602160045260246000fd5b8152602081018a9052604081018990526060018f600560200201516001600160a01b031681526020018781526020018f600660078110610ebc57634e487b7160e01b600052603260045260246000fd5b60200201516001600160a01b031681526020018e600460098110610ef057634e487b7160e01b600052603260045260246000fd5b602002015181526020018e600560098110610f1b57634e487b7160e01b600052603260045260246000fd5b602002015181526020018e600660098110610f4657634e487b7160e01b600052603260045260246000fd5b602002015181526020018e600760098110610f7157634e487b7160e01b600052603260045260246000fd5b602002015181526020018e600860098110610f9c57634e487b7160e01b600052603260045260246000fd5b602002015190529050610fd5610fb182613480565b8260405180606001604052808960ff168152602001888152602001878152506134dc565b9e9d5050505050505050505050505050565b6000546001600160a01b036101009091041633146110175760405162461bcd60e51b815260040161071690615e14565b600080546040516101009091046001600160a01b0316907f8be0079c531659141344cd1fd0a4f28419497f9722a3daafe3b4186f6b6457e0908390a360008054610100600160a81b0319169055565b6000610af7604051806102e001604052808c60006007811061109857634e487b7160e01b600052603260045260246000fd5b60200201516001600160a01b031681526020018c6001600781106110cc57634e487b7160e01b600052603260045260246000fd5b60200201516001600160a01b031681526020018c60026007811061110057634e487b7160e01b600052603260045260246000fd5b60200201516001600160a01b031681526020018b60006009811061113457634e487b7160e01b600052603260045260246000fd5b602002015181526020018b60016009811061115f57634e487b7160e01b600052603260045260246000fd5b602002015181526020018b60026009811061118a57634e487b7160e01b600052603260045260246000fd5b602002015181526020018b6003600981106111b557634e487b7160e01b600052603260045260246000fd5b602002015181526020018c6003600781106111e057634e487b7160e01b600052603260045260246000fd5b60200201516001600160a01b031681526020018a600181111561121357634e487b7160e01b600052602160045260246000fd5b815260200189600181111561123857634e487b7160e01b600052602160045260246000fd5b815260200188600181111561125d57634e487b7160e01b600052602160045260246000fd5b815260808d01516001600160a01b0316602082015260400187600181111561129557634e487b7160e01b600052602160045260246000fd5b8152602081018790526040810186905260a0808e01516001600160a01b0316606083015260808201869052018c600660200201516001600160a01b031681526020018b6004600981106112f857634e487b7160e01b600052603260045260246000fd5b602002015181526020018b60056009811061132357634e487b7160e01b600052603260045260246000fd5b602002015181526020018b60066009811061134e57634e487b7160e01b600052603260045260246000fd5b602002015181526020018b60076009811061137957634e487b7160e01b600052603260045260246000fd5b602002015181526020018b6008600981106113a457634e487b7160e01b600052603260045260246000fd5b602002015190526135c2565b600054600160a81b900460ff16156113da5760405162461bcd60e51b815260040161071690615dea565b6000604051806102e001604052808c60006007811061140957634e487b7160e01b600052603260045260246000fd5b60200201516001600160a01b031681526020018c60016007811061143d57634e487b7160e01b600052603260045260246000fd5b60200201516001600160a01b031681526020018c60026007811061147157634e487b7160e01b600052603260045260246000fd5b60200201516001600160a01b031681526020018b6000600981106114a557634e487b7160e01b600052603260045260246000fd5b602002015181526020018b6001600981106114d057634e487b7160e01b600052603260045260246000fd5b602002015181526020018b6002600981106114fb57634e487b7160e01b600052603260045260246000fd5b602002015181526020018b60036009811061152657634e487b7160e01b600052603260045260246000fd5b602002015181526020018c60036007811061155157634e487b7160e01b600052603260045260246000fd5b60200201516001600160a01b031681526020018a600181111561158457634e487b7160e01b600052602160045260246000fd5b81526020018960018111156115a957634e487b7160e01b600052602160045260246000fd5b81526020018860018111156115ce57634e487b7160e01b600052602160045260246000fd5b815260808d01516001600160a01b0316602082015260400187600181111561160657634e487b7160e01b600052602160045260246000fd5b8152602081018790526040810186905260a0808e01516001600160a01b0316606083015260808201869052018c600660200201516001600160a01b031681526020018b60046009811061166957634e487b7160e01b600052603260045260246000fd5b602002015181526020018b60056009811061169457634e487b7160e01b600052603260045260246000fd5b602002015181526020018b6006600981106116bf57634e487b7160e01b600052603260045260246000fd5b602002015181526020018b6007600981106116ea57634e487b7160e01b600052603260045260246000fd5b602002015181526020018b60086009811061171557634e487b7160e01b600052603260045260246000fd5b60200201519052905061172881836137f3565b5050505050505050505050565b6000610af7604051806102e001604052808c60006007811061176757634e487b7160e01b600052603260045260246000fd5b60200201516001600160a01b031681526020018c60016007811061179b57634e487b7160e01b600052603260045260246000fd5b60200201516001600160a01b031681526020018c6002600781106117cf57634e487b7160e01b600052603260045260246000fd5b60200201516001600160a01b031681526020018b60006009811061180357634e487b7160e01b600052603260045260246000fd5b602002015181526020018b60016009811061182e57634e487b7160e01b600052603260045260246000fd5b602002015181526020018b60026009811061185957634e487b7160e01b600052603260045260246000fd5b602002015181526020018b60036009811061188457634e487b7160e01b600052603260045260246000fd5b602002015181526020018c6003600781106118af57634e487b7160e01b600052603260045260246000fd5b60200201516001600160a01b031681526020018a60018111156118e257634e487b7160e01b600052602160045260246000fd5b815260200189600181111561190757634e487b7160e01b600052602160045260246000fd5b815260200188600181111561192c57634e487b7160e01b600052602160045260246000fd5b815260808d01516001600160a01b0316602082015260400187600181111561196457634e487b7160e01b600052602160045260246000fd5b8152602081018790526040810186905260a0808e01516001600160a01b0316606083015260808201869052018c600660200201516001600160a01b031681526020018b6004600981106119c757634e487b7160e01b600052603260045260246000fd5b602002015181526020018b6005600981106119f257634e487b7160e01b600052603260045260246000fd5b602002015181526020018b600660098110611a1d57634e487b7160e01b600052603260045260246000fd5b602002015181526020018b600760098110611a4857634e487b7160e01b600052603260045260246000fd5b602002015181526020018b600860098110611a7357634e487b7160e01b600052603260045260246000fd5b60200201519052613480565b6000546001600160a01b03610100909104163314611aaf5760405162461bcd60e51b815260040161071690615e14565b611ab7613987565b565b600054600160a81b900460ff1615611ae35760405162461bcd60e51b815260040161071690615dea565b611e6b604051806102e001604052808e600060078110611b1357634e487b7160e01b600052603260045260246000fd5b60200201516001600160a01b031681526020018e600160078110611b4757634e487b7160e01b600052603260045260246000fd5b60200201516001600160a01b031681526020018e600260078110611b7b57634e487b7160e01b600052603260045260246000fd5b60200201516001600160a01b031681526020018d600060098110611baf57634e487b7160e01b600052603260045260246000fd5b602002015181526020018d600160098110611bda57634e487b7160e01b600052603260045260246000fd5b602002015181526020018d600260098110611c0557634e487b7160e01b600052603260045260246000fd5b602002015181526020018d600360098110611c3057634e487b7160e01b600052603260045260246000fd5b602002015181526020018e600360078110611c5b57634e487b7160e01b600052603260045260246000fd5b60200201516001600160a01b031681526020018c6001811115611c8e57634e487b7160e01b600052602160045260246000fd5b81526020018b6001811115611cb357634e487b7160e01b600052602160045260246000fd5b81526020018a6001811115611cd857634e487b7160e01b600052602160045260246000fd5b815260808f01516001600160a01b03166020820152604001896001811115611d1057634e487b7160e01b600052602160045260246000fd5b815260208101899052604081018890526060018e600560200201516001600160a01b031681526020018681526020018e600660078110611d6057634e487b7160e01b600052603260045260246000fd5b60200201516001600160a01b031681526020018d600460098110611d9457634e487b7160e01b600052603260045260246000fd5b602002015181526020018d600560098110611dbf57634e487b7160e01b600052603260045260246000fd5b602002015181526020018d600660098110611dea57634e487b7160e01b600052603260045260246000fd5b602002015181526020018d600760098110611e1557634e487b7160e01b600052603260045260246000fd5b602002015181526020018d600860098110611e4057634e487b7160e01b600052603260045260246000fd5b602002015181525060405180606001604052808660ff16815260200185815260200184815250613a09565b505050505050505050505050565b600054600160a81b900460ff1615611ea35760405162461bcd60e51b815260040161071690615dea565b611728604051806102e001604052808d6000600e8110611ed357634e487b7160e01b600052603260045260246000fd5b60200201516001600160a01b031681526020018d6001600e8110611f0757634e487b7160e01b600052603260045260246000fd5b60200201516001600160a01b031681526020018d6002600e8110611f3b57634e487b7160e01b600052603260045260246000fd5b60200201516001600160a01b031681526020018c600060128110611f6f57634e487b7160e01b600052603260045260246000fd5b602002015181526020018c600160128110611f9a57634e487b7160e01b600052603260045260246000fd5b602002015181526020018c600260128110611fc557634e487b7160e01b600052603260045260246000fd5b602002015181526020018c600360128110611ff057634e487b7160e01b600052603260045260246000fd5b602002015181526020018d6003600e811061201b57634e487b7160e01b600052603260045260246000fd5b60200201516001600160a01b031681526020018b60006008811061204f57634e487b7160e01b600052603260045260246000fd5b602002015160ff16600181111561207657634e487b7160e01b600052602160045260246000fd5b600181111561209557634e487b7160e01b600052602160045260246000fd5b81526020018b6001602002015160ff1660018111156120c457634e487b7160e01b600052602160045260246000fd5b60018111156120e357634e487b7160e01b600052602160045260246000fd5b81526020018b6002602002015160ff16600181111561211257634e487b7160e01b600052602160045260246000fd5b600181111561213157634e487b7160e01b600052602160045260246000fd5b815260808e01516001600160a01b031660208201526040018b6003602002015160ff16600181111561217357634e487b7160e01b600052602160045260246000fd5b600181111561219257634e487b7160e01b600052602160045260246000fd5b8152602081018b90526040810189905260a0808f01516001600160a01b0316606083015260808201889052018d600660200201516001600160a01b031681526020018c6004601281106121f557634e487b7160e01b600052603260045260246000fd5b602002015181526020018c60056012811061222057634e487b7160e01b600052603260045260246000fd5b602002015181526020018c60066012811061224b57634e487b7160e01b600052603260045260246000fd5b602002015181526020018c60076012811061227657634e487b7160e01b600052603260045260246000fd5b602002015181526020018c6008601281106122a157634e487b7160e01b600052603260045260246000fd5b6020908102919091015190915260408051606081018252865160ff168152855192810192909252810184600160200201519052604080516102e08101909152808f600760200201516001600160a01b031681526020018f6008600e811061231857634e487b7160e01b600052603260045260246000fd5b60200201516001600160a01b031681526020018f6009600e811061234c57634e487b7160e01b600052603260045260246000fd5b60200201516001600160a01b031681526020018e60096012811061238057634e487b7160e01b600052603260045260246000fd5b602002015181526020018e600a601281106123ab57634e487b7160e01b600052603260045260246000fd5b602002015181526020018e600b601281106123d657634e487b7160e01b600052603260045260246000fd5b602002015181526020018e600c6012811061240157634e487b7160e01b600052603260045260246000fd5b602002015181526020018f600a600e811061242c57634e487b7160e01b600052603260045260246000fd5b60200201516001600160a01b031681526020018d60046008811061246057634e487b7160e01b600052603260045260246000fd5b602002015160ff16600181111561248757634e487b7160e01b600052602160045260246000fd5b60018111156124a657634e487b7160e01b600052602160045260246000fd5b81526020018d6005602002015160ff1660018111156124d557634e487b7160e01b600052602160045260246000fd5b60018111156124f457634e487b7160e01b600052602160045260246000fd5b81526020018d6006602002015160ff16600181111561252357634e487b7160e01b600052602160045260246000fd5b600181111561254257634e487b7160e01b600052602160045260246000fd5b81526020018f600b60200201516001600160a01b031681526020018d60076008811061257e57634e487b7160e01b600052603260045260246000fd5b602002015160ff1660018111156125a557634e487b7160e01b600052602160045260246000fd5b60018111156125c457634e487b7160e01b600052602160045260246000fd5b8152602081018c9052604081018a90526060018f600c60200201516001600160a01b031681526020018781526020018f600d600e811061261457634e487b7160e01b600052603260045260246000fd5b60200201516001600160a01b031681526020018e600d6012811061264857634e487b7160e01b600052603260045260246000fd5b602002015181526020018e600e6012811061267357634e487b7160e01b600052603260045260246000fd5b602002015181526020018e600f6012811061269e57634e487b7160e01b600052603260045260246000fd5b602002015181526020018e6010601281106126c957634e487b7160e01b600052603260045260246000fd5b602002015181526020018e6011601281106126f457634e487b7160e01b600052603260045260246000fd5b60200201519052604080516060810190915280876001602002015160ff1681526020018660026005811061273857634e487b7160e01b600052603260045260246000fd5b602002015181526020018660036005811061276357634e487b7160e01b600052603260045260246000fd5b602002015190526080860151613ab2565b600080604051806102e001604052808c6000600781106127a457634e487b7160e01b600052603260045260246000fd5b60200201516001600160a01b031681526020018c6001600781106127d857634e487b7160e01b600052603260045260246000fd5b60200201516001600160a01b031681526020018c60026007811061280c57634e487b7160e01b600052603260045260246000fd5b60200201516001600160a01b031681526020018b60006009811061284057634e487b7160e01b600052603260045260246000fd5b602002015181526020018b60016009811061286b57634e487b7160e01b600052603260045260246000fd5b602002015181526020018b60026009811061289657634e487b7160e01b600052603260045260246000fd5b602002015181526020018b6003600981106128c157634e487b7160e01b600052603260045260246000fd5b602002015181526020018c6003600781106128ec57634e487b7160e01b600052603260045260246000fd5b60200201516001600160a01b031681526020018a600181111561291f57634e487b7160e01b600052602160045260246000fd5b815260200189600181111561294457634e487b7160e01b600052602160045260246000fd5b815260200188600181111561296957634e487b7160e01b600052602160045260246000fd5b815260808d01516001600160a01b031660208201526040018760018111156129a157634e487b7160e01b600052602160045260246000fd5b8152602081018790526040810186905260a0808e01516001600160a01b0316606083015260808201869052018c600660200201516001600160a01b031681526020018b600460098110612a0457634e487b7160e01b600052603260045260246000fd5b602002015181526020018b600560098110612a2f57634e487b7160e01b600052603260045260246000fd5b602002015181526020018b600660098110612a5a57634e487b7160e01b600052603260045260246000fd5b602002015181526020018b600760098110612a8557634e487b7160e01b600052603260045260246000fd5b602002015181526020018b600860098110612ab057634e487b7160e01b600052603260045260246000fd5b602002015190529050612ac281614268565b9b9a5050505050505050505050565b600080604051806102e001604052808c6000600e8110612b0157634e487b7160e01b600052603260045260246000fd5b60200201516001600160a01b031681526020018c6001600e8110612b3557634e487b7160e01b600052603260045260246000fd5b60200201516001600160a01b031681526020018c6002600e8110612b6957634e487b7160e01b600052603260045260246000fd5b60200201516001600160a01b031681526020018b600060128110612b9d57634e487b7160e01b600052603260045260246000fd5b602002015181526020018b600160128110612bc857634e487b7160e01b600052603260045260246000fd5b602002015181526020018b600260128110612bf357634e487b7160e01b600052603260045260246000fd5b602002015181526020018b600360128110612c1e57634e487b7160e01b600052603260045260246000fd5b602002015181526020018c6003600e8110612c4957634e487b7160e01b600052603260045260246000fd5b60200201516001600160a01b031681526020018a600060088110612c7d57634e487b7160e01b600052603260045260246000fd5b602002015160ff166001811115612ca457634e487b7160e01b600052602160045260246000fd5b6001811115612cc357634e487b7160e01b600052602160045260246000fd5b81526020018a6001602002015160ff166001811115612cf257634e487b7160e01b600052602160045260246000fd5b6001811115612d1157634e487b7160e01b600052602160045260246000fd5b81526020018a6002602002015160ff166001811115612d4057634e487b7160e01b600052602160045260246000fd5b6001811115612d5f57634e487b7160e01b600052602160045260246000fd5b815260808d01516001600160a01b031660208201526040018a6003602002015160ff166001811115612da157634e487b7160e01b600052602160045260246000fd5b6001811115612dc057634e487b7160e01b600052602160045260246000fd5b8152602081018a90526040810188905260a0808e01516001600160a01b0316606083015260808201879052018c600660200201516001600160a01b031681526020018b600460128110612e2357634e487b7160e01b600052603260045260246000fd5b602002015181526020018b600560128110612e4e57634e487b7160e01b600052603260045260246000fd5b602002015181526020018b600660128110612e7957634e487b7160e01b600052603260045260246000fd5b602002015181526020018b600760128110612ea457634e487b7160e01b600052603260045260246000fd5b602002015181526020018b600860128110612ecf57634e487b7160e01b600052603260045260246000fd5b602002015181525090506000604051806102e001604052808d6007600e8110612f0857634e487b7160e01b600052603260045260246000fd5b60200201516001600160a01b031681526020018d6008600e8110612f3c57634e487b7160e01b600052603260045260246000fd5b60200201516001600160a01b031681526020018d6009600e8110612f7057634e487b7160e01b600052603260045260246000fd5b60200201516001600160a01b031681526020018c600960128110612fa457634e487b7160e01b600052603260045260246000fd5b602002015181526020018c600a60128110612fcf57634e487b7160e01b600052603260045260246000fd5b602002015181526020018c600b60128110612ffa57634e487b7160e01b600052603260045260246000fd5b602002015181526020018c600c6012811061302557634e487b7160e01b600052603260045260246000fd5b602002015181526020018d600a600e811061305057634e487b7160e01b600052603260045260246000fd5b60200201516001600160a01b031681526020018b60046008811061308457634e487b7160e01b600052603260045260246000fd5b602002015160ff1660018111156130ab57634e487b7160e01b600052602160045260246000fd5b60018111156130ca57634e487b7160e01b600052602160045260246000fd5b81526020018b6005602002015160ff1660018111156130f957634e487b7160e01b600052602160045260246000fd5b600181111561311857634e487b7160e01b600052602160045260246000fd5b81526020018b6006602002015160ff16600181111561314757634e487b7160e01b600052602160045260246000fd5b600181111561316657634e487b7160e01b600052602160045260246000fd5b81526101608e01516001600160a01b031660208201526040018b6007602002015160ff1660018111156131a957634e487b7160e01b600052602160045260246000fd5b60018111156131c857634e487b7160e01b600052602160045260246000fd5b8152602081018a9052604081018890526101808e01516001600160a01b039081166060830152608082018790526101a08f01511660a082015260c0018c600d602002015181526020018c600e6012811061323257634e487b7160e01b600052603260045260246000fd5b602002015181526020018c600f6012811061325d57634e487b7160e01b600052603260045260246000fd5b602002015181526020018c60106012811061328857634e487b7160e01b600052603260045260246000fd5b602002015181526020018c6011601281106132b357634e487b7160e01b600052603260045260246000fd5b6020020151905290506132c68282614301565b9c9b505050505050505050505050565b6000546001600160a01b036101009091041633146133065760405162461bcd60e51b815260040161071690615e14565b6001600160a01b03811661336b5760405162461bcd60e51b815260206004820152602660248201527f4f776e61626c653a206e6577206f776e657220697320746865207a65726f206160448201526564647265737360d01b6064820152608401610716565b600080546040516001600160a01b038085169361010090930416917f8be0079c531659141344cd1fd0a4f28419497f9722a3daafe3b4186f6b6457e091a3600080546001600160a01b0390921661010002610100600160a81b0319909216919091179055565b6000546001600160a01b036101009091041633146134015760405162461bcd60e51b815260040161071690615e14565b611ab7614392565b80516000901561344557815180602001830160208401855b6001838310141561343c578151815260209182019101613421565b50505092909201915b5090919050565b600061347a826101200151836101400151846102400151856102600151866102800151876102a00151614416565b92915050565b600061348b826135c2565b6040517f19457468657265756d205369676e6564204d6573736167653a0a3332000000006020820152603c810191909152605c01604051602081830303815290604052805190602001209050919050565b60006134e783614268565b6134f3575060006106df565b60008481526004602052604090205460ff1615613512575060006106df565b60008481526005602052604090205460ff1615613531575060016106df565b6020808401518351848301516040808701518151600081529586018083528a905260ff90931690850152606084015260808301526001600160a01b03169060019060a0016020604051602081039080840390855afa158015613597573d6000803e3d6000fd5b505050602060405103516001600160a01b031614156135b8575060016106df565b5060009392505050565b6000806135ce836144e8565b90506000816001600160401b038111156135f857634e487b7160e01b600052604160045260246000fd5b6040519080825280601f01601f191660200182016040528015613622576020820181803683370190505b5084519091506020820190613638908290614520565b9050613648818660200151614520565b9050613658818660400151614520565b6060868101518252608080880151602084015260a0880151604084015260c08801519183019190915260e087015191019150613695908290614520565b90506136c58186610100015160018111156136c057634e487b7160e01b600052602160045260246000fd5b61453a565b90506136f08186610120015160018111156136c057634e487b7160e01b600052602160045260246000fd5b905061371b8186610140015160018111156136c057634e487b7160e01b600052602160045260246000fd5b905061372c81866101600151614520565b90506137578186610180015160018111156136c057634e487b7160e01b600052602160045260246000fd5b905061376881866101a00151613409565b905061377981866101c00151613409565b905061378a81866101e00151614520565b905061379b81866102000151613409565b90506137ac81866102200151614520565b610240860151815261026086015160208083019190915261028087015160408301526102a087015160608301526102c0909601516080909101525090920191909120919050565b81602001516001600160a01b0316336001600160a01b03161461381557600080fd5b600061382083613480565b60008181526005602052604090205490915060ff161561383f57600080fd5b60016005600083815260200190815260200160002060006101000a81548160ff0219169083151502179055508260e001516001600160a01b031683602001516001600160a01b0316827f90c7f9f5b58c15f0f635bfb99f55d3d78fdbef3559e7d8abf5c81052a527662286600001518760400151886060015189608001518a60a001518b60c001518c61010001518d61012001518e61014001518f61016001516040516138f59a99989796959493929190615c8c565b60405180910390a4807fe55393c778364e440d958b39ac1debd99dcfae3775a8a04d1e79124adf6a2d08846101800151856101a00151866101c00151876101e001518861020001518961022001518a61024001518b61026001518c61028001518d6102a001518e6102c001518e60405161397a9c9b9a99989796959493929190615d3b565b60405180910390a2505050565b600054600160a81b900460ff16156139b15760405162461bcd60e51b815260040161071690615dea565b6000805460ff60a81b1916600160a81b1790557f62e78cea01bee320cd4e420270b5ea74000d11b0c9f74754ebdbfc544b05a2586139ec3390565b6040516001600160a01b03909116815260200160405180910390a1565b6000613a158383614547565b905082602001516001600160a01b0316336001600160a01b031614613a6d5760405162461bcd60e51b815260206004820152600e60248201526d135052d157d393d517d59053125160921b6044820152606401610716565b600081815260046020526040808220805460ff191660011790555182917f5152abf959f6564662358c2e52b702259b78bac5ee7842a0f01937e670efcc7d91a2505050565b60005460ff1615613afb5760405162461bcd60e51b81526020600482015260136024820152721499595b9d1c985b98de4819195d1958dd1959606a1b6044820152606401610716565b6000805460ff1916600117815560208601516001600160a01b0316331415613b6f57613b2686614268565b613b6a5760405162461bcd60e51b8152602060048201526015602482015274213abc9037b93232b91034b99034b73b30b634b21760591b6044820152606401610716565b613b7c565b613b798686614547565b90505b60208401516000906001600160a01b0316331415613be757613b9d85614268565b613be25760405162461bcd60e51b815260206004820152601660248201527529b2b6361037b93232b91034b99034b73b30b634b21760511b6044820152606401610716565b613bf4565b613bf18585614547565b90505b613bfe878661459d565b613c4a5760405162461bcd60e51b815260206004820152601860248201527f4f7264657273206973206e6f74206d6174636861626c652e00000000000000006044820152606401610716565b610160850151803b9081613c935760405162461bcd60e51b815260206004820152601060248201526f15185c99d95d081b9bdd08195e1a5cdd60821b6044820152606401610716565b6101c08901515115613cb957613cb9896101a00151886101a001518b6101c001516147ef565b6101c08701515115613cdf57613cdf876101a001518a6101a00151896101c001516147ef565b613cf3896101a00151886101a00151614a63565b613d345760405162461bcd60e51b8152602060048201526012602482015271086c2d8d85ac8c2e8c240dad2e6dac2e8c6d60731b6044820152606401610716565b600254602088015160405163c455279160e01b81526001600160a01b039182166004820152600092919091169063c45527919060240160206040518083038186803b158015613d8257600080fd5b505afa158015613d96573d6000803e3d6000fd5b505050506040513d601f19601f82011682018060405250810190613dba91906155f8565b90506001600160a01b038116613e045760405162461bcd60e51b815260206004820152600f60248201526e141c9bde1e481b9bdd08195e1a5cdd608a1b6044820152606401610716565b600260009054906101000a90046001600160a01b03166001600160a01b03166397204d8e6040518163ffffffff1660e01b815260040160206040518083038186803b158015613e5257600080fd5b505afa158015613e66573d6000803e3d6000fd5b505050506040513d601f19601f82011682018060405250810190613e8a91906155f8565b6001600160a01b0316816001600160a01b0316635c60da1b6040518163ffffffff1660e01b815260040160206040518083038186803b158015613ecc57600080fd5b505afa158015613ee0573d6000803e3d6000fd5b505050506040513d601f19601f82011682018060405250810190613f0491906155f8565b6001600160a01b031614613f5a5760405162461bcd60e51b815260206004820152601860248201527f50726f7879206973206e6f7420696d706c656d656e74656400000000000000006044820152606401610716565b60208a015181906001600160a01b03163314613f8a576000868152600460205260409020805460ff191660011790555b88602001516001600160a01b0316336001600160a01b031614613fc1576000858152600460205260409020805460ff191660011790555b6000613fcd8c8b614ac7565b9050816001600160a01b0316631b0f7ba98b61016001518c61018001518d6101a001516040518463ffffffff1660e01b815260040161400e93929190615d0a565b602060405180830381600087803b15801561402857600080fd5b505af115801561403c573d6000803e3d6000fd5b505050506040513d601f19601f820116820180604052508101906140609190615c0d565b6140ac5760405162461bcd60e51b815260206004820152601960248201527f43616e6e6f742063616c6c207468726f7567682070726f7879000000000000006044820152606401610716565b6101e08c01516001600160a01b031615614132576140da8c6101e001518b6101a001518e610200015161064e565b6141325760405162461bcd60e51b815260206004820152602360248201527f43616e6e6f742065786563757465206275792d73696465207374617469632063604482015262185b1b60ea1b6064820152608401610716565b6101e08a01516001600160a01b0316156141b8576141608a6101e001518b6101a001518c610200015161064e565b6141b85760405162461bcd60e51b8152602060048201526024808201527f43616e6e6f7420657865637574652073656c6c2d73696465207374617469632060448201526318d85b1b60e21b6064820152608401610716565b60e08a015188906001600160a01b03166141d6578a602001516141dc565b8c602001515b60e08c01516001600160a01b0391821691166141fc578d60200151614202565b8b602001515b604080518b8152602081018b90529081018590526001600160a01b0391909116907fc4109843e0b7d514e4c093114b863f8e7d8d9a458c372cd51bfe526b588006c99060600160405180910390a450506000805460ff1916905550505050505050505050565b80516000906001600160a01b0316301461428457506000919050565b614298826101400151836102a00151615100565b6142a457506000919050565b600182610100015160018111156142cb57634e487b7160e01b600052602160045260246000fd5b1480156142ec57506006548260a0015110806142ec57506007548260c00151105b156142f957506000919050565b506001919050565b600080614330836101200151846101400151856102400151866102600151876102800151886102a00151614416565b905060006143608561012001518661014001518761024001518861026001518961028001518a6102a00151614416565b90508181101561436f57600080fd5b60e08401516001600160a01b03166143875780614389565b815b95945050505050565b600054600160a81b900460ff166143e25760405162461bcd60e51b815260206004820152601460248201527314185d5cd8589b194e881b9bdd081c185d5cd95960621b6044820152606401610716565b6000805460ff60a81b191690557f5db9ee0a495bf2e6ff9c91a7834c1ba4fdd244a5e8aa4e537bd38aeae4b073aa336139ec565b60008086600181111561443957634e487b7160e01b600052602160045260246000fd5b14156144465750836144de565b600186600181111561446857634e487b7160e01b600052602160045260246000fd5b14156144de57600061447a8484615ea0565b6144848542615ea0565b61448e9087615e81565b6144989190615e61565b905060018860018111156144bc57634e487b7160e01b600052602160045260246000fd5b14156144d4576144cc8187615ea0565b9150506144de565b6144cc8187615e49565b9695505050505050565b600081610200015151826101c0015151836101a00151516101b061450c9190615e49565b6145169190615e49565b61347a9190615e49565b60601b6bffffffffffffffffffffffff1916815260140190565b6000818353505060010190565b60008061455384613480565b90506145608185856134dc565b6106df5760405162461bcd60e51b815260206004820152600e60248201526d121054d217d393d517d59053125160921b6044820152606401610716565b60008083610120015160018111156145c557634e487b7160e01b600052602160045260246000fd5b1480156145f65750600182610120015160018111156145f457634e487b7160e01b600052602160045260246000fd5b145b80156146495750816101000151600181111561462257634e487b7160e01b600052602160045260246000fd5b836101000151600181111561464757634e487b7160e01b600052602160045260246000fd5b145b801561467057508161022001516001600160a01b03168361022001516001600160a01b0316145b80156146aa575060408201516001600160a01b031615806146aa575082602001516001600160a01b031682604001516001600160a01b0316145b80156146e4575060408301516001600160a01b031615806146e4575081602001516001600160a01b031683604001516001600160a01b0316145b801561473f575060e08201516001600160a01b0316158015614712575060e08301516001600160a01b031615155b8061473f575060e08201516001600160a01b03161580159061473f575060e08301516001600160a01b0316155b801561476657508161016001516001600160a01b03168361016001516001600160a01b0316145b80156147b95750816101800151600181111561479257634e487b7160e01b600052602160045260246000fd5b83610180015160018111156147b757634e487b7160e01b600052602160045260246000fd5b145b80156147d457506147d4836102800151846102a00151615132565b80156106df57506106df826102800151836102a00151615132565b81518351146148405760405162461bcd60e51b815260206004820152601d60248201527f417272617973206861766520646966666572656e74206c656e677468730000006044820152606401610716565b805183511461489f5760405162461bcd60e51b815260206004820152602560248201527f417272617920616e64206d61736b206861766520646966666572656e74206c656044820152646e6774687360d81b6064820152608401610716565b6000602084516148af9190615e61565b905060006148be826020615e81565b9050816148cc602083615e61565b146148e757634e487b7160e01b600052600160045260246000fd5b60005b828110156149245780600101602002808501518187015181168289015182191617828901525050808061491c90615eb7565b9150506148ea565b82156149515782905080600101602002808501518187015181168289015182191617828901525050614a5b565b50805b8551811015614a5b5784818151811061497d57634e487b7160e01b600052603260045260246000fd5b602001015160f81c60f81b8482815181106149a857634e487b7160e01b600052603260045260246000fd5b602001015160f81c60f81b168682815181106149d457634e487b7160e01b600052603260045260246000fd5b602001015160f81c60f81b8583815181106149ff57634e487b7160e01b600052603260045260246000fd5b602001015160f81c60f81b60ff60f81b181617868281518110614a3257634e487b7160e01b600052603260045260246000fd5b60200101906001600160f81b031916908160001a90535080614a5381615eb7565b915050614954565b505050505050565b815181516000916001918114808314614a7f5760009250614abd565b600160208701838101602088015b600284838510011415614ab8578051835114614aac5760009650600093505b60209283019201614a8d565b505050505b5090949350505050565b6102208101516000906001600160a01b031615614ae9573415614ae957600080fd5b6000614af58484614301565b9050600081118015614b1457506102208301516001600160a01b031615155b15614b3257614b32836102200151856020015185602001518461514e565b60e0830151819081906001600160a01b031615614e7f57856080015185608001511115614b5e57600080fd5b60018561010001516001811115614b8557634e487b7160e01b600052602160045260246000fd5b1415614e51578560c001518560c001511115614ba057600080fd5b606085015115614c47576000612710848760600151614bbf9190615e81565b614bc99190615e61565b6102208701519091506001600160a01b0316614c2c57614be98184615ea0565b60e08701516040519194506001600160a01b03169082156108fc029083906000818181858888f19350505050158015614c26573d6000803e3d6000fd5b50614c45565b614c4586610220015187602001518860e001518461514e565b505b608085015115614cee576000612710848760800151614c669190615e81565b614c709190615e61565b6102208701519091506001600160a01b0316614cd357614c908183615e49565b60e08701516040519193506001600160a01b03169082156108fc029083906000818181858888f19350505050158015614ccd573d6000803e3d6000fd5b50614cec565b614cec86610220015188602001518860e001518461514e565b505b60a085015115614d9d576000612710848760a00151614d0d9190615e81565b614d179190615e61565b6102208701519091506001600160a01b0316614d7857614d378184615ea0565b6008546040519194506001600160a01b03169082156108fc029083906000818181858888f19350505050158015614d72573d6000803e3d6000fd5b50614d9b565b6102208601516020870151600854614d9b9291906001600160a01b03168461514e565b505b60c085015115614e4c576000612710848760c00151614dbc9190615e81565b614dc69190615e61565b6102208701519091506001600160a01b0316614e2757614de68183615e49565b6008546040519193506001600160a01b03169082156108fc029083906000818181858888f19350505050158015614e21573d6000803e3d6000fd5b50614e4a565b6102208601516020880151600854614e4a9291906001600160a01b03168461514e565b505b615044565b614e6885602001518660e0015187606001516151f9565b614e4c86602001518660e0015187608001516151f9565b846080015186608001511115614e9457600080fd5b60018561010001516001811115614ebb57634e487b7160e01b600052602160045260246000fd5b1415615016576102208501516001600160a01b0316614ed957600080fd5b8460c001518660c001511115614eee57600080fd5b606086015115614f34576000612710848860600151614f0d9190615e81565b614f179190615e61565b9050614f3286610220015188602001518960e001518461514e565b505b608086015115614f7a576000612710848860800151614f539190615e81565b614f5d9190615e61565b9050614f7886610220015187602001518960e001518461514e565b505b60a086015115614fc9576000612710848860a00151614f999190615e81565b614fa39190615e61565b6102208701516020890151600854929350614fc7926001600160a01b03168461514e565b505b60c086015115614e4c576000612710848860c00151614fe89190615e81565b614ff29190615e61565b6102208701516020880151600854929350614e4a926001600160a01b03168461514e565b61502d86602001518760e0015188606001516151f9565b61504485602001518760e0015188608001516151f9565b6102208501516001600160a01b0316614abd578034101561506457600080fd5b84602001516001600160a01b03166108fc839081150290604051600060405180830381858888f193505050501580156150a1573d6000803e3d6000fd5b5060006150ae8234615ea0565b905080156150f55786602001516001600160a01b03166108fc829081150290604051600060405180830381858888f193505050501580156150f3573d6000803e3d6000fd5b505b505090949350505050565b60008083600181111561512357634e487b7160e01b600052602160045260246000fd5b14806106df5750501515919050565b600042831080156106df57508115806106df5750504210919050565b80156151f357600354604051630aed65f560e11b81526001600160a01b0386811660048301528581166024830152848116604483015260648201849052909116906315dacbea90608401602060405180830381600087803b1580156151b257600080fd5b505af11580156151c6573d6000803e3d6000fd5b505050506040513d601f19601f820116820180604052508101906151ea9190615c0d565b6151f357600080fd5b50505050565b600154615211906001600160a01b031684848461514e565b505050565b600082601f830112615226578081fd5b6040516101c08082018281106001600160401b038211171561524a5761524a615ee8565b604052818482810187101561525d578485fd5b8492505b600e83101561528a57803561527581615f1f565b82526001929092019160209182019101615261565b509195945050505050565b600082601f8301126152a5578081fd5b60405160e081018181106001600160401b03821117156152c7576152c7615ee8565b604052808360e081018610156152db578384fd5b835b600781101561528a5781356152f181615f1f565b835260209283019291909101906001016152dd565b600082601f830112615316578081fd5b60405160a081018181106001600160401b038211171561533857615338615ee8565b604052808360a0810186101561534c578384fd5b835b600581101561528a57813583526020928301929091019060010161534e565b600082601f83011261537d578081fd5b6040516102408082018281106001600160401b03821117156153a1576153a1615ee8565b60405281848281018710156153b4578485fd5b8492505b601283101561528a578035825260019290920191602091820191016153b8565b600082601f8301126153e8578081fd5b6040516101208082018281106001600160401b038211171561540c5761540c615ee8565b604052818482810187101561541f578485fd5b8492505b600983101561528a57803582526001929092019160209182019101615423565b600082601f830112615453578081fd5b604051604081018181106001600160401b038211171561547557615475615ee8565b806040525080838560408601111561548b578384fd5b835b600281101561528a5761549f826155cb565b8352602092830192919091019060010161548d565b600082601f8301126154c4578081fd5b6040516101008082018281106001600160401b03821117156154e8576154e8615ee8565b60405281848281018710156154fb578485fd5b8492505b600883101561528a57615511816155cb565b825260019290920191602091820191016154ff565b803561553181615f34565b919050565b600082601f830112615546578081fd5b81356001600160401b038082111561556057615560615ee8565b604051601f8301601f19908116603f0116810190828211818310171561558857615588615ee8565b816040528381528660208588010111156155a0578485fd5b8360208701602083013792830160200193909352509392505050565b80356002811061553157600080fd5b803560ff8116811461553157600080fd5b6000602082840312156155ed578081fd5b81356106df81615f1f565b600060208284031215615609578081fd5b81516106df81615f1f565b600080600060608486031215615628578182fd5b833561563381615f1f565b925060208401356001600160401b038082111561564e578384fd5b61565a87838801615536565b9350604086013591508082111561566f578283fd5b5061567c86828701615536565b9150509250925092565b60008060008060008060008060006105c08a8c0312156156a4578687fd5b6156ae8b8b615216565b98506156be8b6101c08c0161536d565b97506156ce8b6104008c016154b4565b96506105008a01356001600160401b03808211156156ea578687fd5b6156f68d838e01615536565b97506105208c013591508082111561570c578687fd5b6157188d838e01615536565b96506105408c013591508082111561572e578586fd5b61573a8d838e01615536565b95506105608c0135915080821115615750578485fd5b61575c8d838e01615536565b94506105808c0135915080821115615772578384fd5b61577e8d838e01615536565b93506105a08c0135915080821115615794578283fd5b506157a18c828d01615536565b9150509295985092959850929598565b60008060008060008060008060008060006106a08c8e0312156157d2578485fd5b6157dc8d8d615216565b9a506157ec8d6101c08e0161536d565b99506157fc8d6104008e016154b4565b98506001600160401b03806105008e01351115615817578586fd5b6158288e6105008f01358f01615536565b9850806105208e0135111561583b578586fd5b61584c8e6105208f01358f01615536565b9750806105408e0135111561585f578586fd5b6158708e6105408f01358f01615536565b9650806105608e01351115615883578586fd5b6158948e6105608f01358f01615536565b9550806105808e013511156158a7578283fd5b6158b88e6105808f01358f01615536565b9450806105a08e013511156158cb578283fd5b506158dd8d6105a08e01358e01615536565b92506158ed8d6105c08e01615443565b91506158fd8d6106008e01615306565b90509295989b509295989b9093969950565b60008060008060008060008060006102e08a8c03121561592d578283fd5b6159378b8b615295565b98506159468b60e08c016153d8565b97506159556102008b016155bc565b96506159646102208b016155bc565b95506159736102408b016155bc565b94506159826102608b016155bc565b93506102808a01356001600160401b038082111561599e578485fd5b6159aa8d838e01615536565b94506102a08c01359150808211156159c0578384fd5b6159cc8d838e01615536565b93506102c08c0135915080821115615794578283fd5b6000806000806000806000806000806103008b8d031215615a01578384fd5b615a0b8c8c615295565b9950615a1a8c60e08d016153d8565b9850615a296102008c016155bc565b9750615a386102208c016155bc565b9650615a476102408c016155bc565b9550615a566102608c016155bc565b94506102808b01356001600160401b0380821115615a72578586fd5b615a7e8e838f01615536565b95506102a08d0135915080821115615a94578485fd5b615aa08e838f01615536565b94506102c08d0135915080821115615ab6578384fd5b50615ac38d828e01615536565b925050615ad36102e08c01615526565b90509295989b9194979a5092959850565b6000806000806000806000806000806000806103408d8f031215615b06578586fd5b615b108e8e615295565b9b50615b1f8e60e08f016153d8565b9a50615b2e6102008e016155bc565b9950615b3d6102208e016155bc565b9850615b4c6102408e016155bc565b9750615b5b6102608e016155bc565b96506001600160401b036102808e01351115615b75578586fd5b615b868e6102808f01358f01615536565b95506001600160401b036102a08e01351115615ba0578081fd5b615bb18e6102a08f01358f01615536565b94506001600160401b036102c08e01351115615bcb578081fd5b615bdc8e6102c08f01358f01615536565b9350615beb6102e08e016155cb565b92506103008d013591506103208d013590509295989b509295989b509295989b565b600060208284031215615c1e578081fd5b81516106df81615f34565b600060208284031215615c3a578081fd5b5035919050565b60008151808452815b81811015615c6657602081850181015186830182015201615c4a565b81811115615c775782602083870101525b50601f01601f19169290920160200192915050565b6001600160a01b038b811682528a81166020830152604082018a9052606082018990526080820188905260a08201879052610140820190615ccc87615efe565b8660c0840152615cdb86615efe565b8560e0840152615cea85615efe565b84610100840152808416610120840152509b9a5050505050505050505050565b6001600160a01b0384168152615d1f83615efe565b8260208201526060604082015260006143896060830184615c41565b6000610180615d498f615efe565b8e8352806020840152615d5e8184018f615c41565b90508281036040840152615d72818e615c41565b6001600160a01b038d811660608601528482036080860152909150615d97828d615c41565b9a1660a0840152505060c081019690965260e086019490945261010085019290925261012084015261014083015215156101609091015295945050505050565b6020815260006106df6020830184615c41565b60208082526010908201526f14185d5cd8589b194e881c185d5cd95960821b604082015260600190565b6020808252818101527f4f776e61626c653a2063616c6c6572206973206e6f7420746865206f776e6572604082015260600190565b60008219821115615e5c57615e5c615ed2565b500190565b600082615e7c57634e487b7160e01b81526012600452602481fd5b500490565b6000816000190483118215151615615e9b57615e9b615ed2565b500290565b600082821015615eb257615eb2615ed2565b500390565b6000600019821415615ecb57615ecb615ed2565b5060010190565b634e487b7160e01b600052601160045260246000fd5b634e487b7160e01b600052604160045260246000fd5b60028110615f1c57634e487b7160e01b600052602160045260246000fd5b50565b6001600160a01b0381168114615f1c57600080fd5b8015158114615f1c57600080fdfea26469706673582212203fb5ab636cc0b875465fbf102ad4595d5daf46edfbd392e536202c9a153751c364736f6c63430008040033",
  "immutableReferences": {},
  "source": "// SPDX-License-Identifier: MIT\n/*\n\n  << Taureum Exchange >>\n\n*/\n\npragma solidity 0.8.4;\n\nimport \"./exchange/Exchange.sol\";\n\n/**\n * @title TaureumExchange\n * @author Taureum Protocol Developers\n */\ncontract TaureumExchange is Exchange {\n\n    string public constant name = \"Taureum Exchange\";\n  \n    string public constant version = \"0.1\";\n\n    string public constant codename = \"TaureumBeta\";\n\n    /**\n     * @dev Initialize a WyvernExchange instance\n     * @param registryAddress Address of the registry instance which this Exchange instance will use\n     * @param tokenAddress Address of the token used for protocol fees\n     */\n    constructor (ProxyRegistry registryAddress, TokenTransferProxy tokenTransferProxyAddress, ERC20 tokenAddress, address protocolFeeAddress) Ownable() {\n        registry = registryAddress;\n        tokenTransferProxy = tokenTransferProxyAddress;\n        exchangeToken = tokenAddress;\n        protocolFeeRecipient = protocolFeeAddress;\n    }\n\n}\n",
  "sourcePath": "/home/toor/nodejs/truffle/nft_demo/taureum/taureum-nft-protocol-sc/contracts/TaureumExchange.sol",
  "compiler": {
    "name": "solc",
    "version": "0.8.4+commit.c7e474f2.Emscripten.clang"
  },
  "schemaVersion": "3.4.1",
  "updatedAt": "2021-09-02T04:22:11.576Z",
  "devdoc": {
    "author": "Taureum Protocol Developers",
    "kind": "dev",
    "methods": {
      "approveOrder_(address[7],uint256[9],uint8,uint8,uint8,uint8,bytes,bytes,bytes,bool)": {
        "details": "Call approveOrder - Solidity ABI encoding limitation workaround, hopefully temporary."
      },
      "atomicMatch_(address[14],uint256[18],uint8[8],bytes,bytes,bytes,bytes,bytes,bytes,uint8[2],bytes32[5])": {
        "details": "Call atomicMatch - Solidity ABI encoding limitation workaround, hopefully temporary."
      },
      "calculateCurrentPrice_(address[7],uint256[9],uint8,uint8,uint8,uint8,bytes,bytes,bytes)": {
        "details": "Call calculateCurrentPrice - Solidity ABI encoding limitation workaround, hopefully temporary."
      },
      "calculateMatchPrice_(address[14],uint256[18],uint8[8],bytes,bytes,bytes,bytes,bytes,bytes)": {
        "details": "Call calculateMatchPrice - Solidity ABI encoding limitation workaround, hopefully temporary."
      },
      "cancelOrder_(address[7],uint256[9],uint8,uint8,uint8,uint8,bytes,bytes,bytes,uint8,bytes32,bytes32)": {
        "details": "Call cancelOrder - Solidity ABI encoding limitation workaround, hopefully temporary."
      },
      "changeMinimumMakerProtocolFee(uint256)": {
        "details": "Change the minimum maker fee paid to the protocol (owner only)",
        "params": {
          "newMinimumMakerProtocolFee": "New fee to set in basis points"
        }
      },
      "changeMinimumTakerProtocolFee(uint256)": {
        "details": "Change the minimum taker fee paid to the protocol (owner only)",
        "params": {
          "newMinimumTakerProtocolFee": "New fee to set in basis points"
        }
      },
      "changeProtocolFeeRecipient(address)": {
        "details": "Change the protocol fee recipient (owner only)",
        "params": {
          "newProtocolFeeRecipient": "New protocol fee recipient address"
        }
      },
      "changeProtocolFeeTokenAddress(address)": {
        "details": "Change the protocol fee token address (owner only)",
        "params": {
          "newTokenAddress": "New protocol fee token address"
        }
      },
      "constructor": {
        "details": "Initialize a WyvernExchange instance",
        "params": {
          "registryAddress": "Address of the registry instance which this Exchange instance will use",
          "tokenAddress": "Address of the token used for protocol fees"
        }
      },
      "hashOrder_(address[7],uint256[9],uint8,uint8,uint8,uint8,bytes,bytes,bytes)": {
        "details": "Call hashOrder - Solidity ABI encoding limitation workaround, hopefully temporary."
      },
      "hashToSign_(address[7],uint256[9],uint8,uint8,uint8,uint8,bytes,bytes,bytes)": {
        "details": "Call hashToSign - Solidity ABI encoding limitation workaround, hopefully temporary."
      },
      "owner()": {
        "details": "Returns the address of the current owner."
      },
      "pause()": {
        "details": "Pause the contract in case of bugs/attacks."
      },
      "paused()": {
        "details": "Returns true if the contract is paused, and false otherwise."
      },
      "renounceOwnership()": {
        "details": "Leaves the contract without owner. It will not be possible to call `onlyOwner` functions anymore. Can only be called by the current owner. NOTE: Renouncing ownership will leave the contract without an owner, thereby removing any functionality that is only available to the owner."
      },
      "staticCall(address,bytes,bytes)": {
        "details": "Execute a STATICCALL (introduced with Ethereum Metropolis, non-state-modifying external call)",
        "params": {
          "callData": "Calldata (appended to extradata)",
          "extradata": "Base data for STATICCALL (probably function selector and argument encoding)",
          "target": "Contract to call"
        },
        "returns": {
          "result": "of the call (success or failure)"
        }
      },
      "transferOwnership(address)": {
        "details": "Transfers ownership of the contract to a new account (`newOwner`). Can only be called by the current owner."
      },
      "unPause()": {
        "details": "Resume the contract after being paused."
      },
      "validateOrderParameters_(address[7],uint256[9],uint8,uint8,uint8,uint8,bytes,bytes,bytes)": {
        "details": "Call validateOrderParameters - Solidity ABI encoding limitation workaround, hopefully temporary."
      },
      "validateOrder_(address[7],uint256[9],uint8,uint8,uint8,uint8,bytes,bytes,bytes,uint8,bytes32,bytes32)": {
        "details": "Call validateOrder - Solidity ABI encoding limitation workaround, hopefully temporary."
      }
    },
    "title": "TaureumExchange",
    "version": 1
  },
  "userdoc": {
    "kind": "user",
    "methods": {
      "pause()": {
        "notice": "Only the owner can call this method."
      },
      "unPause()": {
        "notice": "Only the owner can call this method."
      }
    },
    "version": 1
  }
}