{
  "contractName": "TestERC1155",
  "abi": [
    {
      "inputs": [],
      "stateMutability": "nonpayable",
      "type": "constructor"
    },
    {
      "anonymous": false,
      "inputs": [
        {
          "indexed": true,
          "internalType": "address",
          "name": "account",
          "type": "address"
        },
        {
          "indexed": true,
          "internalType": "address",
          "name": "operator",
          "type": "address"
        },
        {
          "indexed": false,
          "internalType": "bool",
          "name": "approved",
          "type": "bool"
        }
      ],
      "name": "ApprovalForAll",
      "type": "event"
    },
    {
      "anonymous": false,
      "inputs": [
        {
          "indexed": true,
          "internalType": "address",
          "name": "operator",
          "type": "address"
        },
        {
          "indexed": true,
          "internalType": "address",
          "name": "from",
          "type": "address"
        },
        {
          "indexed": true,
          "internalType": "address",
          "name": "to",
          "type": "address"
        },
        {
          "indexed": false,
          "internalType": "uint256[]",
          "name": "ids",
          "type": "uint256[]"
        },
        {
          "indexed": false,
          "internalType": "uint256[]",
          "name": "values",
          "type": "uint256[]"
        }
      ],
      "name": "TransferBatch",
      "type": "event"
    },
    {
      "anonymous": false,
      "inputs": [
        {
          "indexed": true,
          "internalType": "address",
          "name": "operator",
          "type": "address"
        },
        {
          "indexed": true,
          "internalType": "address",
          "name": "from",
          "type": "address"
        },
        {
          "indexed": true,
          "internalType": "address",
          "name": "to",
          "type": "address"
        },
        {
          "indexed": false,
          "internalType": "uint256",
          "name": "id",
          "type": "uint256"
        },
        {
          "indexed": false,
          "internalType": "uint256",
          "name": "value",
          "type": "uint256"
        }
      ],
      "name": "TransferSingle",
      "type": "event"
    },
    {
      "anonymous": false,
      "inputs": [
        {
          "indexed": false,
          "internalType": "string",
          "name": "value",
          "type": "string"
        },
        {
          "indexed": true,
          "internalType": "uint256",
          "name": "id",
          "type": "uint256"
        }
      ],
      "name": "URI",
      "type": "event"
    },
    {
      "inputs": [
        {
          "internalType": "address",
          "name": "account",
          "type": "address"
        },
        {
          "internalType": "uint256",
          "name": "id",
          "type": "uint256"
        }
      ],
      "name": "balanceOf",
      "outputs": [
        {
          "internalType": "uint256",
          "name": "",
          "type": "uint256"
        }
      ],
      "stateMutability": "view",
      "type": "function"
    },
    {
      "inputs": [
        {
          "internalType": "address[]",
          "name": "accounts",
          "type": "address[]"
        },
        {
          "internalType": "uint256[]",
          "name": "ids",
          "type": "uint256[]"
        }
      ],
      "name": "balanceOfBatch",
      "outputs": [
        {
          "internalType": "uint256[]",
          "name": "",
          "type": "uint256[]"
        }
      ],
      "stateMutability": "view",
      "type": "function"
    },
    {
      "inputs": [
        {
          "internalType": "address",
          "name": "account",
          "type": "address"
        },
        {
          "internalType": "address",
          "name": "operator",
          "type": "address"
        }
      ],
      "name": "isApprovedForAll",
      "outputs": [
        {
          "internalType": "bool",
          "name": "",
          "type": "bool"
        }
      ],
      "stateMutability": "view",
      "type": "function"
    },
    {
      "inputs": [
        {
          "internalType": "address",
          "name": "from",
          "type": "address"
        },
        {
          "internalType": "address",
          "name": "to",
          "type": "address"
        },
        {
          "internalType": "uint256[]",
          "name": "ids",
          "type": "uint256[]"
        },
        {
          "internalType": "uint256[]",
          "name": "amounts",
          "type": "uint256[]"
        },
        {
          "internalType": "bytes",
          "name": "data",
          "type": "bytes"
        }
      ],
      "name": "safeBatchTransferFrom",
      "outputs": [],
      "stateMutability": "nonpayable",
      "type": "function"
    },
    {
      "inputs": [
        {
          "internalType": "address",
          "name": "from",
          "type": "address"
        },
        {
          "internalType": "address",
          "name": "to",
          "type": "address"
        },
        {
          "internalType": "uint256",
          "name": "id",
          "type": "uint256"
        },
        {
          "internalType": "uint256",
          "name": "amount",
          "type": "uint256"
        },
        {
          "internalType": "bytes",
          "name": "data",
          "type": "bytes"
        }
      ],
      "name": "safeTransferFrom",
      "outputs": [],
      "stateMutability": "nonpayable",
      "type": "function"
    },
    {
      "inputs": [
        {
          "internalType": "address",
          "name": "operator",
          "type": "address"
        },
        {
          "internalType": "bool",
          "name": "approved",
          "type": "bool"
        }
      ],
      "name": "setApprovalForAll",
      "outputs": [],
      "stateMutability": "nonpayable",
      "type": "function"
    },
    {
      "inputs": [
        {
          "internalType": "bytes4",
          "name": "interfaceId",
          "type": "bytes4"
        }
      ],
      "name": "supportsInterface",
      "outputs": [
        {
          "internalType": "bool",
          "name": "",
          "type": "bool"
        }
      ],
      "stateMutability": "view",
      "type": "function"
    },
    {
      "inputs": [
        {
          "internalType": "uint256",
          "name": "",
          "type": "uint256"
        }
      ],
      "name": "uri",
      "outputs": [
        {
          "internalType": "string",
          "name": "",
          "type": "string"
        }
      ],
      "stateMutability": "view",
      "type": "function"
    },
    {
      "inputs": [
        {
          "internalType": "address",
          "name": "to",
          "type": "address"
        },
        {
          "internalType": "uint256",
          "name": "tokenId",
          "type": "uint256"
        },
        {
          "internalType": "uint256",
          "name": "amount",
          "type": "uint256"
        }
      ],
      "name": "mint",
      "outputs": [
        {
          "internalType": "bool",
          "name": "",
          "type": "bool"
        }
      ],
      "stateMutability": "nonpayable",
      "type": "function"
    },
    {
      "inputs": [
        {
          "internalType": "address",
          "name": "to",
          "type": "address"
        },
        {
          "internalType": "uint256",
          "name": "tokenId",
          "type": "uint256"
        }
      ],
      "name": "mint",
      "outputs": [
        {
          "internalType": "bool",
          "name": "",
          "type": "bool"
        }
      ],
      "stateMutability": "nonpayable",
      "type": "function"
    }
  ],
  "bytecode": "0x60806040523480156200001157600080fd5b5060408051808201909152601581527f687474703a2f2f746573742f7b69647d2e6a736f6e00000000000000000000006020820152620000518162000058565b5062000154565b80516200006d90600290602084019062000071565b5050565b8280546200007f9062000117565b90600052602060002090601f016020900481019282620000a35760008555620000ee565b82601f10620000be57805160ff1916838001178555620000ee565b82800160010185558215620000ee579182015b82811115620000ee578251825591602001919060010190620000d1565b50620000fc92915062000100565b5090565b5b80821115620000fc576000815560010162000101565b600181811c908216806200012c57607f821691505b602082108114156200014e57634e487b7160e01b600052602260045260246000fd5b50919050565b61160980620001646000396000f3fe608060405234801561001057600080fd5b506004361061009d5760003560e01c806340c10f191161006657806340c10f19146101335780634e1273f414610146578063a22cb46514610166578063e985e9c514610179578063f242432a146101b557600080fd5b8062fdd58e146100a257806301ffc9a7146100c85780630e89341c146100eb578063156e29f61461010b5780632eb2c2d61461011e575b600080fd5b6100b56100b0366004611046565b6101c8565b6040519081526020015b60405180910390f35b6100db6100d636600461116c565b61025f565b60405190151581526020016100bf565b6100fe6100f93660046111ab565b6102b1565b6040516100bf919061132c565b6100db61011936600461106f565b610345565b61013161012c366004610f03565b61036c565b005b6100db610141366004611046565b610633565b6101596101543660046110a1565b61065a565b6040516100bf91906112eb565b61013161017436600461100c565b6107bc565b6100db610187366004610ed1565b6001600160a01b03918216600090815260016020908152604080832093909416825291909152205460ff1690565b6101316101c3366004610fa9565b610893565b60006001600160a01b0383166102395760405162461bcd60e51b815260206004820152602b60248201527f455243313135353a2062616c616e636520717565727920666f7220746865207a60448201526a65726f206164647265737360a81b60648201526084015b60405180910390fd5b506000908152602081815260408083206001600160a01b03949094168352929052205490565b60006001600160e01b03198216636cdb3d1360e11b148061029057506001600160e01b031982166303a24d0760e21b145b806102ab57506301ffc9a760e01b6001600160e01b03198316145b92915050565b6060600280546102c090611469565b80601f01602080910402602001604051908101604052809291908181526020018280546102ec90611469565b80156103395780601f1061030e57610100808354040283529160200191610339565b820191906000526020600020905b81548152906001019060200180831161031c57829003601f168201915b50505050509050919050565b600061036284848460405180602001604052806000815250610a43565b5060019392505050565b81518351146103ce5760405162461bcd60e51b815260206004820152602860248201527f455243313135353a2069647320616e6420616d6f756e7473206c656e677468206044820152670dad2e6dac2e8c6d60c31b6064820152608401610230565b6001600160a01b0384166103f45760405162461bcd60e51b815260040161023090611387565b6001600160a01b03851633148061041057506104108533610187565b6104775760405162461bcd60e51b815260206004820152603260248201527f455243313135353a207472616e736665722063616c6c6572206973206e6f74206044820152711bdddb995c881b9bdc88185c1c1c9bdd995960721b6064820152608401610230565b3360005b84518110156105c55760008582815181106104a657634e487b7160e01b600052603260045260246000fd5b6020026020010151905060008583815181106104d257634e487b7160e01b600052603260045260246000fd5b602090810291909101810151600084815280835260408082206001600160a01b038e1683529093529190912054909150818110156105225760405162461bcd60e51b8152600401610230906113cc565b61052c8282611452565b60008085815260200190815260200160002060008c6001600160a01b03166001600160a01b03168152602001908152602001600020819055508160008085815260200190815260200160002060008b6001600160a01b03166001600160a01b0316815260200190815260200160002060008282546105aa919061143a565b92505081905550505050806105be906114d1565b905061047b565b50846001600160a01b0316866001600160a01b0316826001600160a01b03167f4a39dc06d4c0dbc64b70af90fd698a233a518aa5d07e595d983b8c0526c8f7fb87876040516106159291906112fe565b60405180910390a461062b818787878787610b44565b505050505050565b60006106518383600160405180602001604052806000815250610a43565b50600192915050565b606081518351146106bf5760405162461bcd60e51b815260206004820152602960248201527f455243313135353a206163636f756e747320616e6420696473206c656e677468604482015268040dad2e6dac2e8c6d60bb1b6064820152608401610230565b6000835167ffffffffffffffff8111156106e957634e487b7160e01b600052604160045260246000fd5b604051908082528060200260200182016040528015610712578160200160208202803683370190505b50905060005b84518110156107b45761077985828151811061074457634e487b7160e01b600052603260045260246000fd5b602002602001015185838151811061076c57634e487b7160e01b600052603260045260246000fd5b60200260200101516101c8565b82828151811061079957634e487b7160e01b600052603260045260246000fd5b60209081029190910101526107ad816114d1565b9050610718565b509392505050565b336001600160a01b03831614156108275760405162461bcd60e51b815260206004820152602960248201527f455243313135353a2073657474696e6720617070726f76616c20737461747573604482015268103337b91039b2b63360b91b6064820152608401610230565b3360008181526001602090815260408083206001600160a01b03871680855290835292819020805460ff191686151590811790915590519081529192917f17307eab39ab6107e8899845ad3d59bd9653f200f220920489ca2b5937696c31910160405180910390a35050565b6001600160a01b0384166108b95760405162461bcd60e51b815260040161023090611387565b6001600160a01b0385163314806108d557506108d58533610187565b6109335760405162461bcd60e51b815260206004820152602960248201527f455243313135353a2063616c6c6572206973206e6f74206f776e6572206e6f7260448201526808185c1c1c9bdd995960ba1b6064820152608401610230565b3361095381878761094388610caf565b61094c88610caf565b5050505050565b6000848152602081815260408083206001600160a01b038a168452909152902054838110156109945760405162461bcd60e51b8152600401610230906113cc565b61099e8482611452565b6000868152602081815260408083206001600160a01b038c811685529252808320939093558816815290812080548692906109da90849061143a565b909155505060408051868152602081018690526001600160a01b03808916928a821692918616917fc3d58168c5ae7397731d063d5bbf3d657854427343f4c083240f7aacaa2d0f62910160405180910390a4610a3a828888888888610d08565b50505050505050565b6001600160a01b038416610aa35760405162461bcd60e51b815260206004820152602160248201527f455243313135353a206d696e7420746f20746865207a65726f206164647265736044820152607360f81b6064820152608401610230565b33610ab48160008761094388610caf565b6000848152602081815260408083206001600160a01b038916845290915281208054859290610ae490849061143a565b909155505060408051858152602081018590526001600160a01b0380881692600092918516917fc3d58168c5ae7397731d063d5bbf3d657854427343f4c083240f7aacaa2d0f62910160405180910390a461094c81600087878787610d08565b6001600160a01b0384163b1561062b5760405163bc197c8160e01b81526001600160a01b0385169063bc197c8190610b889089908990889088908890600401611248565b602060405180830381600087803b158015610ba257600080fd5b505af1925050508015610bd2575060408051601f3d908101601f19168201909252610bcf9181019061118f565b60015b610c7f57610bde611518565b806308c379a01415610c185750610bf3611530565b80610bfe5750610c1a565b8060405162461bcd60e51b8152600401610230919061132c565b505b60405162461bcd60e51b815260206004820152603460248201527f455243313135353a207472616e7366657220746f206e6f6e20455243313135356044820152732932b1b2b4bb32b91034b6b83632b6b2b73a32b960611b6064820152608401610230565b6001600160e01b0319811663bc197c8160e01b14610a3a5760405162461bcd60e51b81526004016102309061133f565b60408051600180825281830190925260609160009190602080830190803683370190505090508281600081518110610cf757634e487b7160e01b600052603260045260246000fd5b602090810291909101015292915050565b6001600160a01b0384163b1561062b5760405163f23a6e6160e01b81526001600160a01b0385169063f23a6e6190610d4c90899089908890889088906004016112a6565b602060405180830381600087803b158015610d6657600080fd5b505af1925050508015610d96575060408051601f3d908101601f19168201909252610d939181019061118f565b60015b610da257610bde611518565b6001600160e01b0319811663f23a6e6160e01b14610a3a5760405162461bcd60e51b81526004016102309061133f565b80356001600160a01b0381168114610de957600080fd5b919050565b600082601f830112610dfe578081fd5b81356020610e0b82611416565b604051610e1882826114a4565b8381528281019150858301600585901b87018401881015610e37578586fd5b855b85811015610e5557813584529284019290840190600101610e39565b5090979650505050505050565b600082601f830112610e72578081fd5b813567ffffffffffffffff811115610e8c57610e8c611502565b604051610ea3601f8301601f1916602001826114a4565b818152846020838601011115610eb7578283fd5b816020850160208301379081016020019190915292915050565b60008060408385031215610ee3578182fd5b610eec83610dd2565b9150610efa60208401610dd2565b90509250929050565b600080600080600060a08688031215610f1a578081fd5b610f2386610dd2565b9450610f3160208701610dd2565b9350604086013567ffffffffffffffff80821115610f4d578283fd5b610f5989838a01610dee565b94506060880135915080821115610f6e578283fd5b610f7a89838a01610dee565b93506080880135915080821115610f8f578283fd5b50610f9c88828901610e62565b9150509295509295909350565b600080600080600060a08688031215610fc0578081fd5b610fc986610dd2565b9450610fd760208701610dd2565b93506040860135925060608601359150608086013567ffffffffffffffff811115611000578182fd5b610f9c88828901610e62565b6000806040838503121561101e578182fd5b61102783610dd2565b91506020830135801515811461103b578182fd5b809150509250929050565b60008060408385031215611058578182fd5b61106183610dd2565b946020939093013593505050565b600080600060608486031215611083578283fd5b61108c84610dd2565b95602085013595506040909401359392505050565b600080604083850312156110b3578182fd5b823567ffffffffffffffff808211156110ca578384fd5b818501915085601f8301126110dd578384fd5b813560206110ea82611416565b6040516110f782826114a4565b8381528281019150858301600585901b870184018b1015611116578889fd5b8896505b8487101561113f5761112b81610dd2565b83526001969096019591830191830161111a565b5096505086013592505080821115611155578283fd5b5061116285828601610dee565b9150509250929050565b60006020828403121561117d578081fd5b8135611188816115ba565b9392505050565b6000602082840312156111a0578081fd5b8151611188816115ba565b6000602082840312156111bc578081fd5b5035919050565b6000815180845260208085019450808401835b838110156111f2578151875295820195908201906001016111d6565b509495945050505050565b60008151808452815b8181101561122257602081850181015186830182015201611206565b818111156112335782602083870101525b50601f01601f19169290920160200192915050565b6001600160a01b0386811682528516602082015260a060408201819052600090611274908301866111c3565b828103606084015261128681866111c3565b9050828103608084015261129a81856111fd565b98975050505050505050565b6001600160a01b03868116825285166020820152604081018490526060810183905260a0608082018190526000906112e0908301846111fd565b979650505050505050565b60208152600061118860208301846111c3565b60408152600061131160408301856111c3565b828103602084015261132381856111c3565b95945050505050565b60208152600061118860208301846111fd565b60208082526028908201527f455243313135353a204552433131353552656365697665722072656a656374656040820152676420746f6b656e7360c01b606082015260800190565b60208082526025908201527f455243313135353a207472616e7366657220746f20746865207a65726f206164604082015264647265737360d81b606082015260800190565b6020808252602a908201527f455243313135353a20696e73756666696369656e742062616c616e636520666f60408201526939103a3930b739b332b960b11b606082015260800190565b600067ffffffffffffffff82111561143057611430611502565b5060051b60200190565b6000821982111561144d5761144d6114ec565b500190565b600082821015611464576114646114ec565b500390565b600181811c9082168061147d57607f821691505b6020821081141561149e57634e487b7160e01b600052602260045260246000fd5b50919050565b601f8201601f1916810167ffffffffffffffff811182821017156114ca576114ca611502565b6040525050565b60006000198214156114e5576114e56114ec565b5060010190565b634e487b7160e01b600052601160045260246000fd5b634e487b7160e01b600052604160045260246000fd5b600060033d111561152d57600481823e5160e01c5b90565b600060443d101561153e5790565b6040516003193d81016004833e81513d67ffffffffffffffff816024840111818411171561156e57505050505090565b82850191508151818111156115865750505050505090565b843d87010160208285010111156115a05750505050505090565b6115af602082860101876114a4565b509095945050505050565b6001600160e01b0319811681146115d057600080fd5b5056fea26469706673582212207a6893f5f6ed4cbd304900b2ffda72525bce0442c9ded4c7cbafbb262bbe1b0364736f6c63430008040033",
  "immutableReferences": {},
  "source": "/*\n\n  << TestERC1155 >>\n\n*/\n\npragma solidity 0.8.4;\n\nimport \"../lib/token/ERC1155/ERC1155.sol\";\n\n\ncontract TestERC1155 is ERC1155(\"http://test/{id}.json\") {\n\n\t/**\n\t */\n\tconstructor () public {\n\t}\n\n\tfunction mint(address to, uint256 tokenId) public returns (bool) {\n\t\t_mint(to, tokenId, 1, \"\");\n\t\treturn true;\n\t}\n\n\tfunction mint(address to, uint256 tokenId, uint256 amount) public returns (bool) {\n\t\t_mint(to, tokenId, amount, \"\");\n\t\treturn true;\n\t}\n}\n",
  "sourcePath": "/home/toor/nodejs/truffle/nft_demo/taudefi/taudefi-nft-protocol/contracts/test/TestERC1155.sol",
  "compiler": {
    "name": "solc",
    "version": "0.8.4+commit.c7e474f2.Emscripten.clang"
  },
  "schemaVersion": "3.4.1",
  "updatedAt": "2021-07-20T04:04:07.214Z",
  "devdoc": {
    "kind": "dev",
    "methods": {
      "balanceOf(address,uint256)": {
        "details": "See {IERC1155-balanceOf}. Requirements: - `account` cannot be the zero address."
      },
      "balanceOfBatch(address[],uint256[])": {
        "details": "See {IERC1155-balanceOfBatch}. Requirements: - `accounts` and `ids` must have the same length."
      },
      "isApprovedForAll(address,address)": {
        "details": "See {IERC1155-isApprovedForAll}."
      },
      "safeBatchTransferFrom(address,address,uint256[],uint256[],bytes)": {
        "details": "See {IERC1155-safeBatchTransferFrom}."
      },
      "safeTransferFrom(address,address,uint256,uint256,bytes)": {
        "details": "See {IERC1155-safeTransferFrom}."
      },
      "setApprovalForAll(address,bool)": {
        "details": "See {IERC1155-setApprovalForAll}."
      },
      "supportsInterface(bytes4)": {
        "details": "See {IERC165-supportsInterface}."
      },
      "uri(uint256)": {
        "details": "See {IERC1155MetadataURI-uri}. This implementation returns the same URI for *all* token types. It relies on the token type ID substitution mechanism https://eips.ethereum.org/EIPS/eip-1155#metadata[defined in the EIP]. Clients calling this function must replace the `\\{id\\}` substring with the actual token type ID."
      }
    },
    "version": 1
  },
  "userdoc": {
    "kind": "user",
    "methods": {},
    "version": 1
  }
}