{
  "contractName": "TestStatic",
  "abi": [
    {
      "inputs": [],
      "stateMutability": "nonpayable",
      "type": "constructor"
    },
    {
      "inputs": [],
      "name": "alwaysSucceed",
      "outputs": [],
      "stateMutability": "pure",
      "type": "function",
      "constant": true
    },
    {
      "inputs": [],
      "name": "alwaysFail",
      "outputs": [],
      "stateMutability": "pure",
      "type": "function",
      "constant": true
    },
    {
      "inputs": [
        {
          "internalType": "bytes",
          "name": "callData",
          "type": "bytes"
        }
      ],
      "name": "requireMinimumLength",
      "outputs": [],
      "stateMutability": "pure",
      "type": "function",
      "constant": true
    }
  ],
  "bytecode": "0x608060405234801561001057600080fd5b50610165806100206000396000f3fe608060405234801561001057600080fd5b50600436106100415760003560e01c80631a35285114610046578063872793791461004e5780639e0199d814610050575b600080fd5b61004e600080fd5b005b61004e61005e36600461006f565b600281511161006c57600080fd5b50565b600060208284031215610080578081fd5b813567ffffffffffffffff80821115610097578283fd5b818401915084601f8301126100aa578283fd5b8135818111156100bc576100bc610119565b604051601f8201601f19908116603f011681019083821181831017156100e4576100e4610119565b816040528281528760208487010111156100fc578586fd5b826020860160208301379182016020019490945295945050505050565b634e487b7160e01b600052604160045260246000fdfea26469706673582212201d517b4aec1357b088ef22a306e720794c4da35428a35d6daf87e3b7105344e064736f6c63430008040033",
  "immutableReferences": {},
  "source": "// SPDX-License-Identifier: MIT\n/*\n\n  << Test Static Calls >>\n\n*/\n\npragma solidity 0.8.4;\n\n/**\n  * @title TestStatic\n  * @author Project Wyvern Developers\n  */\ncontract TestStatic {\n\n    /**\n      * @dev Initialize contract\n      */\n    constructor () public {\n    }\n\n    function alwaysSucceed()\n        public\n        pure\n    {\n        require(true);\n    }\n\n    function alwaysFail()\n        public\n        pure\n    {\n        require(false);\n    }\n\n    function requireMinimumLength(bytes memory callData)\n        public\n        pure\n    {\n        require(callData.length > 2);\n    }\n\n}\n",
  "sourcePath": "/Users/baonq/Projects/l7/l7-marketplace-smartcontract/contracts/test/TestStatic.sol",
  "compiler": {
    "name": "solc",
    "version": "0.8.4+commit.c7e474f2.Emscripten.clang"
  },
  "schemaVersion": "3.4.1",
  "updatedAt": "2021-11-16T04:12:54.135Z",
  "networkType": "ethereum",
  "devdoc": {
    "author": "Project Wyvern Developers",
    "kind": "dev",
    "methods": {
      "constructor": {
        "details": "Initialize contract"
      }
    },
    "title": "TestStatic",
    "version": 1
  },
  "userdoc": {
    "kind": "user",
    "methods": {},
    "version": 1
  }
}