{
  "contractName": "TestERC1271",
  "abi": [
    {
      "inputs": [
        {
          "internalType": "address",
          "name": "ownerAddr",
          "type": "address"
        }
      ],
      "name": "setOwner",
      "outputs": [],
      "stateMutability": "nonpayable",
      "type": "function"
    },
    {
      "inputs": [
        {
          "internalType": "bytes",
          "name": "_data",
          "type": "bytes"
        },
        {
          "internalType": "bytes",
          "name": "_signature",
          "type": "bytes"
        }
      ],
      "name": "isValidSignature",
      "outputs": [
        {
          "internalType": "bytes4",
          "name": "magicValue",
          "type": "bytes4"
        }
      ],
      "stateMutability": "view",
      "type": "function"
    }
  ],
  "bytecode": "0x608060405234801561001057600080fd5b50610329806100206000396000f3fe608060405234801561001057600080fd5b50600436106100365760003560e01c806313af40351461003b57806320c13b0b1461006d575b600080fd5b61006b6100493660046101fb565b600080546001600160a01b0319166001600160a01b0392909216919091179055565b005b61008061007b366004610241565b61009d565b6040516001600160e01b0319909116815260200160405180910390f35b600080838060200190518101906100b49190610229565b90506000806000858060200190518101906100cf91906102a2565b60408051600081526020810180835289905260ff8516918101919091526060810183905260808101829052929550909350915060019060a0016020604051602081039080840390855afa15801561012a573d6000803e3d6000fd5b5050604051601f1901516000546001600160a01b0390811691161415905061016057506320c13b0b60e01b935061016e92505050565b506000935061016e92505050565b92915050565b600082601f830112610184578081fd5b813567ffffffffffffffff8082111561019f5761019f6102dd565b604051601f8301601f19908116603f011681019082821181831017156101c7576101c76102dd565b816040528381528660208588010111156101df578485fd5b8360208701602083013792830160200193909352509392505050565b60006020828403121561020c578081fd5b81356001600160a01b0381168114610222578182fd5b9392505050565b60006020828403121561023a578081fd5b5051919050565b60008060408385031215610253578081fd5b823567ffffffffffffffff8082111561026a578283fd5b61027686838701610174565b9350602085013591508082111561028b578283fd5b5061029885828601610174565b9150509250929050565b6000806000606084860312156102b6578081fd5b835160ff811681146102c6578182fd5b602085015160409095015190969495509392505050565b634e487b7160e01b600052604160045260246000fdfea2646970667358221220c60ae9b66d5df45bc077f80156a05d0a85d6cded192c9727836a98df6626d8f264736f6c63430008040033",
  "immutableReferences": {},
  "source": "// SPDX-License-Identifier: MIT\n/*\n\n  << TestERC1271 >>\n\n*/\n\npragma solidity 0.8.4;\n\nimport \"../lib/ex/EIP1271.sol\";\n\ncontract TestERC1271 is ERC1271 {\n\n    bytes4 constant internal SIGINVALID = 0x00000000;\n\n    address internal owner;\n\n    /**\n     * Set a new owner (for testing)\n     *\n     * @param ownerAddr Address of owner\n     */\n    function setOwner (address ownerAddr)\n        public\n    {\n        owner = ownerAddr;\n    }\n\n    /**\n     * Check if a signature is valid\n     *\n     * @param _data Data signed over\n     * @param _signature Encoded signature\n     * @return magicValue Magic value if valid, zero-value otherwise\n     */\n    function isValidSignature(\n        bytes memory _data,\n        bytes memory _signature)\n        override\n        public\n        view\n        returns (bytes4 magicValue)\n    {\n        bytes32 hash = abi.decode(_data, (bytes32));\n        (uint8 v, bytes32 r, bytes32 s) = abi.decode(_signature, (uint8, bytes32, bytes32));\n        if (owner == ecrecover(hash, v, r, s)) {\n            return MAGICVALUE;\n        } else {\n            return SIGINVALID;\n        }\n    }\n\n}\n",
  "sourcePath": "/Users/baonq/Projects/l7/l7-marketplace-smartcontract/contracts/test/TestERC1271.sol",
  "compiler": {
    "name": "solc",
    "version": "0.8.4+commit.c7e474f2.Emscripten.clang"
  },
  "schemaVersion": "3.4.1",
  "updatedAt": "2021-11-16T04:09:36.908Z",
  "devdoc": {
    "kind": "dev",
    "methods": {
      "isValidSignature(bytes,bytes)": {
        "params": {
          "_data": "Data signed over",
          "_signature": "Encoded signature"
        },
        "returns": {
          "magicValue": "Magic value if valid, zero-value otherwise"
        }
      },
      "setOwner(address)": {
        "params": {
          "ownerAddr": "Address of owner"
        }
      }
    },
    "version": 1
  },
  "userdoc": {
    "kind": "user",
    "methods": {
      "isValidSignature(bytes,bytes)": {
        "notice": "Check if a signature is valid"
      },
      "setOwner(address)": {
        "notice": "Set a new owner (for testing)"
      }
    },
    "version": 1
  }
}