{
  "contractName": "TestAuthenticatedProxy",
  "abi": [
    {
      "anonymous": false,
      "inputs": [
        {
          "indexed": true,
          "internalType": "address",
          "name": "sender",
          "type": "address"
        },
        {
          "indexed": false,
          "internalType": "uint256",
          "name": "amount",
          "type": "uint256"
        }
      ],
      "name": "ReceivedEther",
      "type": "event"
    },
    {
      "anonymous": false,
      "inputs": [
        {
          "indexed": true,
          "internalType": "address",
          "name": "from",
          "type": "address"
        },
        {
          "indexed": false,
          "internalType": "uint256",
          "name": "value",
          "type": "uint256"
        },
        {
          "indexed": true,
          "internalType": "address",
          "name": "token",
          "type": "address"
        },
        {
          "indexed": false,
          "internalType": "bytes",
          "name": "extraData",
          "type": "bytes"
        }
      ],
      "name": "ReceivedTokens",
      "type": "event"
    },
    {
      "anonymous": false,
      "inputs": [
        {
          "indexed": false,
          "internalType": "bool",
          "name": "revoked",
          "type": "bool"
        }
      ],
      "name": "Revoked",
      "type": "event"
    },
    {
      "stateMutability": "payable",
      "type": "fallback"
    },
    {
      "inputs": [
        {
          "internalType": "address",
          "name": "addrUser",
          "type": "address"
        },
        {
          "internalType": "contract ProxyRegistry",
          "name": "addrRegistry",
          "type": "address"
        }
      ],
      "name": "initialize",
      "outputs": [],
      "stateMutability": "nonpayable",
      "type": "function"
    },
    {
      "inputs": [
        {
          "internalType": "address",
          "name": "dest",
          "type": "address"
        },
        {
          "internalType": "enum AuthenticatedProxy.HowToCall",
          "name": "howToCall",
          "type": "uint8"
        },
        {
          "internalType": "bytes",
          "name": "data",
          "type": "bytes"
        }
      ],
      "name": "proxy",
      "outputs": [
        {
          "internalType": "bool",
          "name": "result",
          "type": "bool"
        }
      ],
      "stateMutability": "nonpayable",
      "type": "function"
    },
    {
      "inputs": [
        {
          "internalType": "address",
          "name": "dest",
          "type": "address"
        },
        {
          "internalType": "enum AuthenticatedProxy.HowToCall",
          "name": "howToCall",
          "type": "uint8"
        },
        {
          "internalType": "bytes",
          "name": "data",
          "type": "bytes"
        }
      ],
      "name": "proxyAssert",
      "outputs": [],
      "stateMutability": "nonpayable",
      "type": "function"
    },
    {
      "inputs": [
        {
          "internalType": "address",
          "name": "from",
          "type": "address"
        },
        {
          "internalType": "uint256",
          "name": "value",
          "type": "uint256"
        },
        {
          "internalType": "address",
          "name": "token",
          "type": "address"
        },
        {
          "internalType": "bytes",
          "name": "extraData",
          "type": "bytes"
        }
      ],
      "name": "receiveApproval",
      "outputs": [],
      "stateMutability": "nonpayable",
      "type": "function"
    },
    {
      "inputs": [],
      "name": "registry",
      "outputs": [
        {
          "internalType": "contract ProxyRegistry",
          "name": "",
          "type": "address"
        }
      ],
      "stateMutability": "view",
      "type": "function"
    },
    {
      "inputs": [],
      "name": "revoked",
      "outputs": [
        {
          "internalType": "bool",
          "name": "",
          "type": "bool"
        }
      ],
      "stateMutability": "view",
      "type": "function"
    },
    {
      "inputs": [
        {
          "internalType": "bool",
          "name": "revoke",
          "type": "bool"
        }
      ],
      "name": "setRevoke",
      "outputs": [],
      "stateMutability": "nonpayable",
      "type": "function"
    },
    {
      "inputs": [],
      "name": "upgradeabilityOwner",
      "outputs": [
        {
          "internalType": "address",
          "name": "",
          "type": "address"
        }
      ],
      "stateMutability": "view",
      "type": "function"
    },
    {
      "inputs": [],
      "name": "user",
      "outputs": [
        {
          "internalType": "address",
          "name": "",
          "type": "address"
        }
      ],
      "stateMutability": "view",
      "type": "function"
    },
    {
      "inputs": [
        {
          "internalType": "address",
          "name": "newUser",
          "type": "address"
        }
      ],
      "name": "setUser",
      "outputs": [],
      "stateMutability": "nonpayable",
      "type": "function"
    }
  ],
  "bytecode": "0x60806040526001805460ff60a01b1916905534801561001d57600080fd5b50610b358061002d6000396000f3fe6080604052600436106100915760003560e01c806363d256ce1161005957806363d256ce146101975780636fde8202146101b85780637b103999146101d6578063858ced35146101f65780638f4ffcb11461021657610091565b80631b0f7ba9146100c85780633f801f91146100fd578063485cc9551461011f5780634c93505f1461013f5780634f8632ba1461015f575b60405134815233907fa419615bc8fda4c87663805ee2a3597a6d71c1d476911d9892f340d965bc7bf19060200160405180910390a2005b3480156100d457600080fd5b506100e86100e3366004610938565b610236565b60405190151581526020015b60405180910390f35b34801561010957600080fd5b5061011d610118366004610938565b6104d1565b005b34801561012b57600080fd5b5061011d61013a366004610900565b610526565b34801561014b57600080fd5b5061011d61015a366004610a05565b6105d1565b34801561016b57600080fd5b5060025461017f906001600160a01b031681565b6040516001600160a01b0390911681526020016100f4565b3480156101a357600080fd5b506003546100e890600160a01b900460ff1681565b3480156101c457600080fd5b506001546001600160a01b031661017f565b3480156101e257600080fd5b5060035461017f906001600160a01b031681565b34801561020257600080fd5b5061011d6102113660046108dd565b61069f565b34801561022257600080fd5b5061011d61023136600461099b565b61072b565b6002546000906001600160a01b03163314806102dd5750600354600160a01b900460ff161580156102dd57506003546040516369dc9ff360e01b81523360048201526001600160a01b03909116906369dc9ff39060240160206040518083038186803b1580156102a557600080fd5b505afa1580156102b9573d6000803e3d6000fd5b505050506040513d601f19601f820116820180604052508101906102dd9190610a21565b6103b35760405162461bcd60e51b815260206004820152608a60248201527f41757468656e746963617465642070726f78792063616e206f6e6c792062652060448201527f63616c6c65642062792069747320757365722c206f72206279206120636f6e7460648201527f7261637420617574686f72697a6564206279207468652072656769737472792060848201527f6173206c6f6e6720617320746865207573657220686173206e6f74207265766f60a4820152696b65642061636365737360b01b60c482015260e4015b60405180910390fd5b606060008460018111156103d757634e487b7160e01b600052602160045260246000fd5b141561044257846001600160a01b0316836040516103f59190610a3d565b6000604051808303816000865af19150503d8060008114610432576040519150601f19603f3d011682016040523d82523d6000602084013e610437565b606091505b5090925090506104c9565b600184600181111561046457634e487b7160e01b600052602160045260246000fd5b14156104c957846001600160a01b0316836040516104829190610a3d565b600060405180830381855af49150503d80600081146104bd576040519150601f19603f3d011682016040523d82523d6000602084013e6104c2565b606091505b5090925090505b509392505050565b6104dc838383610236565b6105215760405162461bcd60e51b8152602060048201526016602482015275141c9bde1e48185cdcd95c9d1a5bdb8819985a5b195960521b60448201526064016103aa565b505050565b600154600160a01b900460ff16156105905760405162461bcd60e51b815260206004820152602760248201527f41757468656e746963617465642070726f787920616c726561647920696e69746044820152661a585b1a5e995960ca1b60648201526084016103aa565b6001805460ff60a01b1916600160a01b179055600280546001600160a01b039384166001600160a01b03199182161790915560038054929093169116179055565b6002546001600160a01b031633146106475760405162461bcd60e51b815260206004820152603360248201527f41757468656e746963617465642070726f78792063616e206f6e6c79206265206044820152723932bb37b5b2b210313c9034ba39903ab9b2b960691b60648201526084016103aa565b60038054821515600160a01b0260ff60a01b199091161790556040517f2165014523a6f4135deffed62d70149aad59b64de5aac51e3abbcbe2a83e2f7e9061069490831515815260200190565b60405180910390a150565b600354600254604051636e7d491160e11b81526001600160a01b039182166004820152838216602482015291169063dcfa922290604401600060405180830381600087803b1580156106f057600080fd5b505af1158015610704573d6000803e3d6000fd5b5050600280546001600160a01b0319166001600160a01b0394909416939093179092555050565b6040516323b872dd60e01b81526001600160a01b038581166004830152306024830152604482018590528391908216906323b872dd90606401602060405180830381600087803b15801561077e57600080fd5b505af1158015610792573d6000803e3d6000fd5b505050506040513d601f19601f820116820180604052508101906107b69190610a21565b6108025760405162461bcd60e51b815260206004820152601b60248201527f455243323020746f6b656e207472616e73666572206661696c6564000000000060448201526064016103aa565b826001600160a01b0316856001600160a01b03167fd65b48fd35864b3528d38e44760be5553248f89bf3ff6b06cca57817cc2650bf8685604051610847929190610a59565b60405180910390a35050505050565b600082601f830112610866578081fd5b813567ffffffffffffffff8082111561088157610881610ac3565b604051601f8301601f19908116603f011681019082821181831017156108a9576108a9610ac3565b816040528381528660208588010111156108c1578485fd5b8360208701602083013792830160200193909352509392505050565b6000602082840312156108ee578081fd5b81356108f981610ad9565b9392505050565b60008060408385031215610912578081fd5b823561091d81610ad9565b9150602083013561092d81610ad9565b809150509250929050565b60008060006060848603121561094c578081fd5b833561095781610ad9565b925060208401356002811061096a578182fd5b9150604084013567ffffffffffffffff811115610985578182fd5b61099186828701610856565b9150509250925092565b600080600080608085870312156109b0578081fd5b84356109bb81610ad9565b93506020850135925060408501356109d281610ad9565b9150606085013567ffffffffffffffff8111156109ed578182fd5b6109f987828801610856565b91505092959194509250565b600060208284031215610a16578081fd5b81356108f981610af1565b600060208284031215610a32578081fd5b81516108f981610af1565b60008251610a4f818460208701610a93565b9190910192915050565b8281526040602082015260008251806040840152610a7e816060850160208701610a93565b601f01601f1916919091016060019392505050565b60005b83811015610aae578181015183820152602001610a96565b83811115610abd576000848401525b50505050565b634e487b7160e01b600052604160045260246000fd5b6001600160a01b0381168114610aee57600080fd5b50565b8015158114610aee57600080fdfea2646970667358221220cbc8d8a6ade73e05bfe3e32eadee4be723516b043d7f4e0aeb966725a9acfe9264736f6c63430008040033",
  "immutableReferences": {},
  "source": "/**\n\n  << TestAuthenticatedProxy >>\n\n  Just for DelegateCall testing.\n\n**/\n\npragma solidity 0.8.4;\n\nimport \"../registry/AuthenticatedProxy.sol\";\n\ncontract TestAuthenticatedProxy is AuthenticatedProxy {\n\n    function setUser(address newUser)\n        public\n    {\n        registry.transferAccessTo(user, newUser);\n        user = newUser;\n    }\n\n}\n",
  "sourcePath": "/home/toor/nodejs/truffle/nft_demo/taudefi/taudefi-nft-protocol/contracts/test/TestAuthenticatedProxy.sol",
  "compiler": {
    "name": "solc",
    "version": "0.8.4+commit.c7e474f2.Emscripten.clang"
  },
  "schemaVersion": "3.4.1",
  "updatedAt": "2021-07-18T03:02:32.544Z",
  "devdoc": {
    "kind": "dev",
    "methods": {
      "initialize(address,address)": {
        "params": {
          "addrRegistry": "Address of ProxyRegistry contract which will manage this proxy",
          "addrUser": "Address of user on whose behalf this proxy will act"
        }
      },
      "proxy(address,uint8,bytes)": {
        "details": "Can be called by the user, or by a contract authorized by the registry as long as the user has not revoked access",
        "params": {
          "data": "Calldata to send",
          "dest": "Address to which the call will be sent",
          "howToCall": "Which kind of call to make"
        },
        "returns": {
          "result": "Result of the call (success or failure)"
        }
      },
      "proxyAssert(address,uint8,bytes)": {
        "details": "Same functionality as `proxy`, just asserts the return value",
        "params": {
          "data": "Calldata to send",
          "dest": "Address to which the call will be sent",
          "howToCall": "What kind of call to make"
        }
      },
      "receiveApproval(address,uint256,address,bytes)": {
        "details": "Receive tokens and generate a log event",
        "params": {
          "extraData": "Additional data to log",
          "from": "Address from which to transfer tokens",
          "token": "Address of token",
          "value": "Amount of tokens to transfer"
        }
      },
      "setRevoke(bool)": {
        "details": "Can be called by the user only",
        "params": {
          "revoke": "Whether or not to revoke access"
        }
      },
      "upgradeabilityOwner()": {
        "details": "Tells the address of the owner",
        "returns": {
          "_0": "the address of the owner"
        }
      }
    },
    "version": 1
  },
  "userdoc": {
    "kind": "user",
    "methods": {
      "initialize(address,address)": {
        "notice": "Initialize an AuthenticatedProxy"
      },
      "proxy(address,uint8,bytes)": {
        "notice": "Execute a message call from the proxy contract"
      },
      "proxyAssert(address,uint8,bytes)": {
        "notice": "Execute a message call and assert success "
      },
      "setRevoke(bool)": {
        "notice": "Set the revoked flag (allows a user to revoke ProxyRegistry access)"
      }
    },
    "version": 1
  }
}