{
  "contractName": "TestAuthenticatedProxy",
  "abi": [
    {
      "anonymous": false,
      "inputs": [
        {
          "indexed": true,
          "internalType": "address",
          "name": "sender",
          "type": "address"
        },
        {
          "indexed": false,
          "internalType": "uint256",
          "name": "amount",
          "type": "uint256"
        }
      ],
      "name": "ReceivedEther",
      "type": "event"
    },
    {
      "anonymous": false,
      "inputs": [
        {
          "indexed": true,
          "internalType": "address",
          "name": "from",
          "type": "address"
        },
        {
          "indexed": false,
          "internalType": "uint256",
          "name": "value",
          "type": "uint256"
        },
        {
          "indexed": true,
          "internalType": "address",
          "name": "token",
          "type": "address"
        },
        {
          "indexed": false,
          "internalType": "bytes",
          "name": "extraData",
          "type": "bytes"
        }
      ],
      "name": "ReceivedTokens",
      "type": "event"
    },
    {
      "anonymous": false,
      "inputs": [
        {
          "indexed": false,
          "internalType": "bool",
          "name": "revoked",
          "type": "bool"
        }
      ],
      "name": "Revoked",
      "type": "event"
    },
    {
      "stateMutability": "payable",
      "type": "fallback"
    },
    {
      "inputs": [
        {
          "internalType": "address",
          "name": "addrUser",
          "type": "address"
        },
        {
          "internalType": "contract ProxyRegistry",
          "name": "addrRegistry",
          "type": "address"
        }
      ],
      "name": "initialize",
      "outputs": [],
      "stateMutability": "nonpayable",
      "type": "function"
    },
    {
      "inputs": [
        {
          "internalType": "address",
          "name": "dest",
          "type": "address"
        },
        {
          "internalType": "enum AuthenticatedProxy.HowToCall",
          "name": "howToCall",
          "type": "uint8"
        },
        {
          "internalType": "bytes",
          "name": "data",
          "type": "bytes"
        }
      ],
      "name": "proxy",
      "outputs": [
        {
          "internalType": "bool",
          "name": "result",
          "type": "bool"
        }
      ],
      "stateMutability": "nonpayable",
      "type": "function"
    },
    {
      "inputs": [
        {
          "internalType": "address",
          "name": "dest",
          "type": "address"
        },
        {
          "internalType": "enum AuthenticatedProxy.HowToCall",
          "name": "howToCall",
          "type": "uint8"
        },
        {
          "internalType": "bytes",
          "name": "data",
          "type": "bytes"
        }
      ],
      "name": "proxyAssert",
      "outputs": [],
      "stateMutability": "nonpayable",
      "type": "function"
    },
    {
      "inputs": [
        {
          "internalType": "address",
          "name": "from",
          "type": "address"
        },
        {
          "internalType": "uint256",
          "name": "value",
          "type": "uint256"
        },
        {
          "internalType": "address",
          "name": "token",
          "type": "address"
        },
        {
          "internalType": "bytes",
          "name": "extraData",
          "type": "bytes"
        }
      ],
      "name": "receiveApproval",
      "outputs": [],
      "stateMutability": "nonpayable",
      "type": "function"
    },
    {
      "inputs": [],
      "name": "registry",
      "outputs": [
        {
          "internalType": "contract ProxyRegistry",
          "name": "",
          "type": "address"
        }
      ],
      "stateMutability": "view",
      "type": "function"
    },
    {
      "inputs": [],
      "name": "revoked",
      "outputs": [
        {
          "internalType": "bool",
          "name": "",
          "type": "bool"
        }
      ],
      "stateMutability": "view",
      "type": "function"
    },
    {
      "inputs": [
        {
          "internalType": "bool",
          "name": "revoke",
          "type": "bool"
        }
      ],
      "name": "setRevoke",
      "outputs": [],
      "stateMutability": "nonpayable",
      "type": "function"
    },
    {
      "inputs": [],
      "name": "upgradeabilityOwner",
      "outputs": [
        {
          "internalType": "address",
          "name": "",
          "type": "address"
        }
      ],
      "stateMutability": "view",
      "type": "function"
    },
    {
      "inputs": [],
      "name": "user",
      "outputs": [
        {
          "internalType": "address",
          "name": "",
          "type": "address"
        }
      ],
      "stateMutability": "view",
      "type": "function"
    },
    {
      "stateMutability": "payable",
      "type": "receive"
    },
    {
      "inputs": [
        {
          "internalType": "address",
          "name": "newUser",
          "type": "address"
        }
      ],
      "name": "setUser",
      "outputs": [],
      "stateMutability": "nonpayable",
      "type": "function"
    }
  ],
  "bytecode": "0x60806040526001805460ff60a01b1916905534801561001d57600080fd5b50610b388061002d6000396000f3fe60806040526004361061008f5760003560e01c806363d256ce1161005657806363d256ce1461019a5780636fde8202146101bb5780637b103999146101d9578063858ced35146101f95780638f4ffcb11461021957005b80631b0f7ba9146100cd5780633f801f9114610102578063485cc955146101225780634c93505f146101425780634f8632ba1461016257005b366100cb5760405134815233907fa419615bc8fda4c87663805ee2a3597a6d71c1d476911d9892f340d965bc7bf19060200160405180910390a2005b005b3480156100d957600080fd5b506100ed6100e836600461093b565b610239565b60405190151581526020015b60405180910390f35b34801561010e57600080fd5b506100cb61011d36600461093b565b6104d4565b34801561012e57600080fd5b506100cb61013d366004610903565b610529565b34801561014e57600080fd5b506100cb61015d366004610a08565b6105d4565b34801561016e57600080fd5b50600254610182906001600160a01b031681565b6040516001600160a01b0390911681526020016100f9565b3480156101a657600080fd5b506003546100ed90600160a01b900460ff1681565b3480156101c757600080fd5b506001546001600160a01b0316610182565b3480156101e557600080fd5b50600354610182906001600160a01b031681565b34801561020557600080fd5b506100cb6102143660046108e0565b6106a2565b34801561022557600080fd5b506100cb61023436600461099e565b61072e565b6002546000906001600160a01b03163314806102e05750600354600160a01b900460ff161580156102e057506003546040516369dc9ff360e01b81523360048201526001600160a01b03909116906369dc9ff39060240160206040518083038186803b1580156102a857600080fd5b505afa1580156102bc573d6000803e3d6000fd5b505050506040513d601f19601f820116820180604052508101906102e09190610a24565b6103b65760405162461bcd60e51b815260206004820152608a60248201527f41757468656e746963617465642070726f78792063616e206f6e6c792062652060448201527f63616c6c65642062792069747320757365722c206f72206279206120636f6e7460648201527f7261637420617574686f72697a6564206279207468652072656769737472792060848201527f6173206c6f6e6720617320746865207573657220686173206e6f74207265766f60a4820152696b65642061636365737360b01b60c482015260e4015b60405180910390fd5b606060008460018111156103da57634e487b7160e01b600052602160045260246000fd5b141561044557846001600160a01b0316836040516103f89190610a40565b6000604051808303816000865af19150503d8060008114610435576040519150601f19603f3d011682016040523d82523d6000602084013e61043a565b606091505b5090925090506104cc565b600184600181111561046757634e487b7160e01b600052602160045260246000fd5b14156104cc57846001600160a01b0316836040516104859190610a40565b600060405180830381855af49150503d80600081146104c0576040519150601f19603f3d011682016040523d82523d6000602084013e6104c5565b606091505b5090925090505b509392505050565b6104df838383610239565b6105245760405162461bcd60e51b8152602060048201526016602482015275141c9bde1e48185cdcd95c9d1a5bdb8819985a5b195960521b60448201526064016103ad565b505050565b600154600160a01b900460ff16156105935760405162461bcd60e51b815260206004820152602760248201527f41757468656e746963617465642070726f787920616c726561647920696e69746044820152661a585b1a5e995960ca1b60648201526084016103ad565b6001805460ff60a01b1916600160a01b179055600280546001600160a01b039384166001600160a01b03199182161790915560038054929093169116179055565b6002546001600160a01b0316331461064a5760405162461bcd60e51b815260206004820152603360248201527f41757468656e746963617465642070726f78792063616e206f6e6c79206265206044820152723932bb37b5b2b210313c9034ba39903ab9b2b960691b60648201526084016103ad565b60038054821515600160a01b0260ff60a01b199091161790556040517f2165014523a6f4135deffed62d70149aad59b64de5aac51e3abbcbe2a83e2f7e9061069790831515815260200190565b60405180910390a150565b600354600254604051636e7d491160e11b81526001600160a01b039182166004820152838216602482015291169063dcfa922290604401600060405180830381600087803b1580156106f357600080fd5b505af1158015610707573d6000803e3d6000fd5b5050600280546001600160a01b0319166001600160a01b0394909416939093179092555050565b6040516323b872dd60e01b81526001600160a01b038581166004830152306024830152604482018590528391908216906323b872dd90606401602060405180830381600087803b15801561078157600080fd5b505af1158015610795573d6000803e3d6000fd5b505050506040513d601f19601f820116820180604052508101906107b99190610a24565b6108055760405162461bcd60e51b815260206004820152601b60248201527f455243323020746f6b656e207472616e73666572206661696c6564000000000060448201526064016103ad565b826001600160a01b0316856001600160a01b03167fd65b48fd35864b3528d38e44760be5553248f89bf3ff6b06cca57817cc2650bf868560405161084a929190610a5c565b60405180910390a35050505050565b600082601f830112610869578081fd5b813567ffffffffffffffff8082111561088457610884610ac6565b604051601f8301601f19908116603f011681019082821181831017156108ac576108ac610ac6565b816040528381528660208588010111156108c4578485fd5b8360208701602083013792830160200193909352509392505050565b6000602082840312156108f1578081fd5b81356108fc81610adc565b9392505050565b60008060408385031215610915578081fd5b823561092081610adc565b9150602083013561093081610adc565b809150509250929050565b60008060006060848603121561094f578081fd5b833561095a81610adc565b925060208401356002811061096d578182fd5b9150604084013567ffffffffffffffff811115610988578182fd5b61099486828701610859565b9150509250925092565b600080600080608085870312156109b3578081fd5b84356109be81610adc565b93506020850135925060408501356109d581610adc565b9150606085013567ffffffffffffffff8111156109f0578182fd5b6109fc87828801610859565b91505092959194509250565b600060208284031215610a19578081fd5b81356108fc81610af4565b600060208284031215610a35578081fd5b81516108fc81610af4565b60008251610a52818460208701610a96565b9190910192915050565b8281526040602082015260008251806040840152610a81816060850160208701610a96565b601f01601f1916919091016060019392505050565b60005b83811015610ab1578181015183820152602001610a99565b83811115610ac0576000848401525b50505050565b634e487b7160e01b600052604160045260246000fd5b6001600160a01b0381168114610af157600080fd5b50565b8015158114610af157600080fdfea2646970667358221220ebfe14dbd0c09156a2e826f2be16a12f824173f4a0e1890cad8d029d5f6ccb2d64736f6c63430008040033",
  "immutableReferences": {},
  "source": "// SPDX-License-Identifier: MIT\n/**\n\n  << TestAuthenticatedProxy >>\n\n  Just for DelegateCall testing.\n\n**/\n\npragma solidity 0.8.4;\n\nimport \"../registry/AuthenticatedProxy.sol\";\n\ncontract TestAuthenticatedProxy is AuthenticatedProxy {\n\n    function setUser(address newUser)\n        public\n    {\n        registry.transferAccessTo(user, newUser);\n        user = newUser;\n    }\n\n}\n",
  "sourcePath": "/home/toor/nodejs/truffle/nft_demo/taureum/taureum-nft-protocol-sc/contracts/test/TestAuthenticatedProxy.sol",
  "compiler": {
    "name": "solc",
    "version": "0.8.4+commit.c7e474f2.Emscripten.clang"
  },
  "schemaVersion": "3.4.1",
  "updatedAt": "2021-09-02T04:22:11.816Z",
  "devdoc": {
    "kind": "dev",
    "methods": {
      "initialize(address,address)": {
        "params": {
          "addrRegistry": "Address of ProxyRegistry contract which will manage this proxy",
          "addrUser": "Address of user on whose behalf this proxy will act"
        }
      },
      "proxy(address,uint8,bytes)": {
        "details": "Can be called by the user, or by a contract authorized by the registry as long as the user has not revoked access",
        "params": {
          "data": "Calldata to send",
          "dest": "Address to which the call will be sent",
          "howToCall": "Which kind of call to make"
        },
        "returns": {
          "result": "Result of the call (success or failure)"
        }
      },
      "proxyAssert(address,uint8,bytes)": {
        "details": "Same functionality as `proxy`, just asserts the return value",
        "params": {
          "data": "Calldata to send",
          "dest": "Address to which the call will be sent",
          "howToCall": "What kind of call to make"
        }
      },
      "receiveApproval(address,uint256,address,bytes)": {
        "details": "Receive tokens and generate a log event",
        "params": {
          "extraData": "Additional data to log",
          "from": "Address from which to transfer tokens",
          "token": "Address of token",
          "value": "Amount of tokens to transfer"
        }
      },
      "setRevoke(bool)": {
        "details": "Can be called by the user only",
        "params": {
          "revoke": "Whether or not to revoke access"
        }
      },
      "upgradeabilityOwner()": {
        "details": "Tells the address of the owner",
        "returns": {
          "_0": "the address of the owner"
        }
      }
    },
    "version": 1
  },
  "userdoc": {
    "kind": "user",
    "methods": {
      "initialize(address,address)": {
        "notice": "Initialize an AuthenticatedProxy"
      },
      "proxy(address,uint8,bytes)": {
        "notice": "Execute a message call from the proxy contract"
      },
      "proxyAssert(address,uint8,bytes)": {
        "notice": "Execute a message call and assert success "
      },
      "setRevoke(bool)": {
        "notice": "Set the revoked flag (allows a user to revoke ProxyRegistry access)"
      }
    },
    "version": 1
  }
}