{
  "contractName": "TokenTransferProxy",
  "abi": [
    {
      "inputs": [],
      "name": "registry",
      "outputs": [
        {
          "internalType": "contract ProxyRegistry",
          "name": "",
          "type": "address"
        }
      ],
      "stateMutability": "view",
      "type": "function"
    },
    {
      "inputs": [
        {
          "internalType": "address",
          "name": "token",
          "type": "address"
        },
        {
          "internalType": "address",
          "name": "from",
          "type": "address"
        },
        {
          "internalType": "address",
          "name": "to",
          "type": "address"
        },
        {
          "internalType": "uint256",
          "name": "amount",
          "type": "uint256"
        }
      ],
      "name": "transferFrom",
      "outputs": [
        {
          "internalType": "bool",
          "name": "",
          "type": "bool"
        }
      ],
      "stateMutability": "nonpayable",
      "type": "function"
    }
  ],
  "bytecode": "0x608060405234801561001057600080fd5b50610269806100206000396000f3fe608060405234801561001057600080fd5b50600436106100365760003560e01c806315dacbea1461003b5780637b10399914610063575b600080fd5b61004e6100493660046101c2565b61008e565b60405190151581526020015b60405180910390f35b600054610076906001600160a01b031681565b6040516001600160a01b03909116815260200161005a565b600080546040516369dc9ff360e01b81523360048201526001600160a01b03909116906369dc9ff39060240160206040518083038186803b1580156100d257600080fd5b505afa1580156100e6573d6000803e3d6000fd5b505050506040513d601f19601f8201168201806040525081019061010a919061020c565b61011357600080fd5b6040516323b872dd60e01b81526001600160a01b0385811660048301528481166024830152604482018490528616906323b872dd90606401602060405180830381600087803b15801561016557600080fd5b505af1158015610179573d6000803e3d6000fd5b505050506040513d601f19601f8201168201806040525081019061019d919061020c565b95945050505050565b80356001600160a01b03811681146101bd57600080fd5b919050565b600080600080608085870312156101d7578384fd5b6101e0856101a6565b93506101ee602086016101a6565b92506101fc604086016101a6565b9396929550929360600135925050565b60006020828403121561021d578081fd5b8151801515811461022c578182fd5b939250505056fea26469706673582212205659da1fb48d80ffdf98bab423f035d738f09a357135b41a064529dc1a56ffd464736f6c63430008040033",
  "immutableReferences": {},
  "source": "// SPDX-License-Identifier: UNLICENSED\n\n/*\n\n  Token transfer proxy. Uses the authentication table of a ProxyRegistry contract to grant ERC20 `transferFrom` access.\n  This means that users only need to authorize the proxy contract once for all future protocol versions.\n\n*/\n\npragma solidity 0.8.4;\n\nimport \"./ProxyRegistry.sol\";\nimport \"../lib/token/ERC20/ERC20.sol\";\n\ncontract TokenTransferProxy {\n\n    /* Authentication registry. */\n    ProxyRegistry public registry;\n\n    /**\n     * Call ERC20 `transferFrom`\n     *\n     * @dev Authenticated contract only\n     * @param token ERC20 token address\n     * @param from From address\n     * @param to To address\n     * @param amount Transfer amount\n     */\n    function transferFrom(address token, address from, address to, uint amount)\n        public\n        returns (bool)\n    {\n        require(registry.contracts(msg.sender));\n        return ERC20(token).transferFrom(from, to, amount);\n    }\n\n}\n",
  "sourcePath": "/home/toor/nodejs/truffle/nft_demo/taureum/taureum-nft-protocol-sc/contracts/registry/TokenTransferProxy.sol",
  "compiler": {
    "name": "solc",
    "version": "0.8.4+commit.c7e474f2.Emscripten.clang"
  },
  "schemaVersion": "3.4.1",
  "updatedAt": "2021-08-29T11:36:11.116Z",
  "devdoc": {
    "kind": "dev",
    "methods": {
      "transferFrom(address,address,address,uint256)": {
        "details": "Authenticated contract only",
        "params": {
          "amount": "Transfer amount",
          "from": "From address",
          "to": "To address",
          "token": "ERC20 token address"
        }
      }
    },
    "version": 1
  },
  "userdoc": {
    "kind": "user",
    "methods": {
      "transferFrom(address,address,address,uint256)": {
        "notice": "Call ERC20 `transferFrom`"
      }
    },
    "version": 1
  }
}