{
  "contractName": "TokenRecipient",
  "abi": [
    {
      "anonymous": false,
      "inputs": [
        {
          "indexed": true,
          "internalType": "address",
          "name": "sender",
          "type": "address"
        },
        {
          "indexed": false,
          "internalType": "uint256",
          "name": "amount",
          "type": "uint256"
        }
      ],
      "name": "ReceivedEther",
      "type": "event"
    },
    {
      "anonymous": false,
      "inputs": [
        {
          "indexed": true,
          "internalType": "address",
          "name": "from",
          "type": "address"
        },
        {
          "indexed": false,
          "internalType": "uint256",
          "name": "value",
          "type": "uint256"
        },
        {
          "indexed": true,
          "internalType": "address",
          "name": "token",
          "type": "address"
        },
        {
          "indexed": false,
          "internalType": "bytes",
          "name": "extraData",
          "type": "bytes"
        }
      ],
      "name": "ReceivedTokens",
      "type": "event"
    },
    {
      "stateMutability": "payable",
      "type": "fallback"
    },
    {
      "stateMutability": "payable",
      "type": "receive"
    },
    {
      "inputs": [
        {
          "internalType": "address",
          "name": "from",
          "type": "address"
        },
        {
          "internalType": "uint256",
          "name": "value",
          "type": "uint256"
        },
        {
          "internalType": "address",
          "name": "token",
          "type": "address"
        },
        {
          "internalType": "bytes",
          "name": "extraData",
          "type": "bytes"
        }
      ],
      "name": "receiveApproval",
      "outputs": [],
      "stateMutability": "nonpayable",
      "type": "function"
    }
  ],
  "bytecode": "0x608060405234801561001057600080fd5b50610366806100206000396000f3fe60806040526004361061001f5760003560e01c80638f4ffcb11461005d57005b3661005b5760405134815233907fa419615bc8fda4c87663805ee2a3597a6d71c1d476911d9892f340d965bc7bf19060200160405180910390a2005b005b34801561006957600080fd5b5061005b6100783660046101c3565b6040516323b872dd60e01b81526001600160a01b038581166004830152306024830152604482018590528391908216906323b872dd90606401602060405180830381600087803b1580156100cb57600080fd5b505af11580156100df573d6000803e3d6000fd5b505050506040513d601f19601f820116820180604052508101906101039190610298565b6101535760405162461bcd60e51b815260206004820152601b60248201527f455243323020746f6b656e207472616e73666572206661696c65640000000000604482015260640160405180910390fd5b826001600160a01b0316856001600160a01b03167fd65b48fd35864b3528d38e44760be5553248f89bf3ff6b06cca57817cc2650bf86856040516101989291906102bf565b60405180910390a35050505050565b80356001600160a01b03811681146101be57600080fd5b919050565b600080600080608085870312156101d8578384fd5b6101e1856101a7565b9350602085013592506101f6604086016101a7565b9150606085013567ffffffffffffffff80821115610212578283fd5b818701915087601f830112610225578283fd5b8135818111156102375761023761031a565b604051601f8201601f19908116603f0116810190838211818310171561025f5761025f61031a565b816040528281528a6020848701011115610277578586fd5b82602086016020830137918201602001949094529598949750929550505050565b6000602082840312156102a9578081fd5b815180151581146102b8578182fd5b9392505050565b828152600060206040818401528351806040850152825b818110156102f2578581018301518582016060015282016102d6565b818111156103035783606083870101525b50601f01601f191692909201606001949350505050565b634e487b7160e01b600052604160045260246000fdfea2646970667358221220398d1112e4c7769f4d1979a2b5d267cb47fadba5837c75daec19f9072d90279364736f6c63430008040033",
  "immutableReferences": {},
  "source": "// SPDX-License-Identifier: MIT\r\n\r\n/*\r\n\r\n  Token recipient. Modified very slightly from the example on http://ethereum.org/dao (just to index log parameters).\r\n\r\n*/\r\n\r\npragma solidity 0.8.4;\r\n\r\nimport \"../lib/token/ERC20/ERC20.sol\";\r\n\r\n/**\r\n * @title TokenRecipient\r\n * @author Wyvern Protocol Developers\r\n */\r\ncontract TokenRecipient {\r\n    event ReceivedEther(address indexed sender, uint amount);\r\n    event ReceivedTokens(address indexed from, uint256 value, address indexed token, bytes extraData);\r\n\r\n    /**\r\n     * @dev Receive tokens and generate a log event\r\n     * @param from Address from which to transfer tokens\r\n     * @param value Amount of tokens to transfer\r\n     * @param token Address of token\r\n     * @param extraData Additional data to log\r\n     */\r\n    function receiveApproval(address from, uint256 value, address token, bytes memory extraData) public {\r\n        ERC20 t = ERC20(token);\r\n        require(t.transferFrom(from, address(this), value), \"ERC20 token transfer failed\");\r\n        emit ReceivedTokens(from, value, token, extraData);\r\n    }\r\n    \r\n    fallback () payable external {\r\n    }\r\n\r\n    /**\r\n     * @dev Receive Ether and generate a log event\r\n     */\r\n    receive() external payable {\r\n        emit ReceivedEther(msg.sender, msg.value);\r\n    }\r\n}\r\n",
  "sourcePath": "D:\\0xTaureum\\github\\taureum-nft-protocol-sc\\contracts\\registry\\TokenRecipient.sol",
  "compiler": {
    "name": "solc",
    "version": "0.8.4+commit.c7e474f2.Emscripten.clang"
  },
  "schemaVersion": "3.4.3",
  "updatedAt": "2021-09-02T09:15:36.418Z",
  "devdoc": {
    "author": "Wyvern Protocol Developers",
    "kind": "dev",
    "methods": {
      "receiveApproval(address,uint256,address,bytes)": {
        "details": "Receive tokens and generate a log event",
        "params": {
          "extraData": "Additional data to log",
          "from": "Address from which to transfer tokens",
          "token": "Address of token",
          "value": "Amount of tokens to transfer"
        }
      }
    },
    "title": "TokenRecipient",
    "version": 1
  },
  "userdoc": {
    "kind": "user",
    "methods": {},
    "version": 1
  }
}