{
  "contractName": "TransparentUpgradeableProxy",
  "abi": [
    {
      "inputs": [
        {
          "internalType": "address",
          "name": "_logic",
          "type": "address"
        },
        {
          "internalType": "address",
          "name": "admin_",
          "type": "address"
        },
        {
          "internalType": "bytes",
          "name": "_data",
          "type": "bytes"
        }
      ],
      "stateMutability": "payable",
      "type": "constructor"
    },
    {
      "anonymous": false,
      "inputs": [
        {
          "indexed": false,
          "internalType": "address",
          "name": "previousAdmin",
          "type": "address"
        },
        {
          "indexed": false,
          "internalType": "address",
          "name": "newAdmin",
          "type": "address"
        }
      ],
      "name": "AdminChanged",
      "type": "event"
    },
    {
      "anonymous": false,
      "inputs": [
        {
          "indexed": true,
          "internalType": "address",
          "name": "beacon",
          "type": "address"
        }
      ],
      "name": "BeaconUpgraded",
      "type": "event"
    },
    {
      "anonymous": false,
      "inputs": [
        {
          "indexed": true,
          "internalType": "address",
          "name": "implementation",
          "type": "address"
        }
      ],
      "name": "Upgraded",
      "type": "event"
    },
    {
      "stateMutability": "payable",
      "type": "fallback"
    },
    {
      "stateMutability": "payable",
      "type": "receive"
    },
    {
      "inputs": [],
      "name": "admin",
      "outputs": [
        {
          "internalType": "address",
          "name": "admin_",
          "type": "address"
        }
      ],
      "stateMutability": "nonpayable",
      "type": "function"
    },
    {
      "inputs": [],
      "name": "implementation",
      "outputs": [
        {
          "internalType": "address",
          "name": "implementation_",
          "type": "address"
        }
      ],
      "stateMutability": "nonpayable",
      "type": "function"
    },
    {
      "inputs": [
        {
          "internalType": "address",
          "name": "newAdmin",
          "type": "address"
        }
      ],
      "name": "changeAdmin",
      "outputs": [],
      "stateMutability": "nonpayable",
      "type": "function"
    },
    {
      "inputs": [
        {
          "internalType": "address",
          "name": "newImplementation",
          "type": "address"
        }
      ],
      "name": "upgradeTo",
      "outputs": [],
      "stateMutability": "nonpayable",
      "type": "function"
    },
    {
      "inputs": [
        {
          "internalType": "address",
          "name": "newImplementation",
          "type": "address"
        },
        {
          "internalType": "bytes",
          "name": "data",
          "type": "bytes"
        }
      ],
      "name": "upgradeToAndCall",
      "outputs": [],
      "stateMutability": "payable",
      "type": "function"
    }
  ],
  "bytecode": "0x608060405260405162000f1538038062000f158339810160408190526200002691620004cc565b82816200005560017f360894a13ba1a3210667c828492db98dca3e2076cc3735a920a3ca505d382bbd620005fb565b60008051602062000ece833981519152146200008157634e487b7160e01b600052600160045260246000fd5b6200008f82826000620000ff565b50620000bf905060017fb53127684a568b3173ae13b9f8a6016e243e63b6e8ee1178d6a717850b5d6104620005fb565b60008051602062000eae83398151915214620000eb57634e487b7160e01b600052600160045260246000fd5b620000f68262000170565b50505062000664565b6200010a83620001cb565b6040516001600160a01b038416907fbc7cd75a20ee27fd9adebab32041f755214dbc6bffa90cc0225b39da2e5c2d3b90600090a26000825111806200014c5750805b156200016b576200016983836200029360201b620002601760201c565b505b505050565b7f7e644d79422f17c01e4894b5f4f588d331ebfa28653d42ae832dc59e38c9798f6200019b620002c2565b604080516001600160a01b03928316815291841660208301520160405180910390a1620001c881620002fb565b50565b620001e1816200038b60201b6200028c1760201c565b620002495760405162461bcd60e51b815260206004820152602d60248201527f455243313936373a206e657720696d706c656d656e746174696f6e206973206e60448201526c1bdd08184818dbdb9d1c9858dd609a1b60648201526084015b60405180910390fd5b806200027260008051602062000ece83398151915260001b6200039160201b620002081760201c565b80546001600160a01b0319166001600160a01b039290921691909117905550565b6060620002bb838360405180606001604052806027815260200162000eee6027913962000394565b9392505050565b6000620002ec60008051602062000eae83398151915260001b6200039160201b620002081760201c565b546001600160a01b0316919050565b6001600160a01b038116620003625760405162461bcd60e51b815260206004820152602660248201527f455243313936373a206e65772061646d696e20697320746865207a65726f206160448201526564647265737360d01b606482015260840162000240565b806200027260008051602062000eae83398151915260001b6200039160201b620002081760201c565b3b151590565b90565b6060833b620003f55760405162461bcd60e51b815260206004820152602660248201527f416464726573733a2064656c65676174652063616c6c20746f206e6f6e2d636f6044820152651b9d1c9858dd60d21b606482015260840162000240565b600080856001600160a01b031685604051620004129190620005a8565b600060405180830381855af49150503d80600081146200044f576040519150601f19603f3d011682016040523d82523d6000602084013e62000454565b606091505b5090925090506200046782828662000471565b9695505050505050565b6060831562000482575081620002bb565b825115620004935782518084602001fd5b8160405162461bcd60e51b8152600401620002409190620005c6565b80516001600160a01b0381168114620004c757600080fd5b919050565b600080600060608486031215620004e1578283fd5b620004ec84620004af565b9250620004fc60208501620004af565b60408501519092506001600160401b038082111562000519578283fd5b818601915086601f8301126200052d578283fd5b8151818111156200054257620005426200064e565b604051601f8201601f19908116603f011681019083821181831017156200056d576200056d6200064e565b8160405282815289602084870101111562000586578586fd5b620005998360208301602088016200061f565b80955050505050509250925092565b60008251620005bc8184602087016200061f565b9190910192915050565b6020815260008251806020840152620005e78160408501602087016200061f565b601f01601f19169190910160400192915050565b6000828210156200061a57634e487b7160e01b81526011600452602481fd5b500390565b60005b838110156200063c57818101518382015260200162000622565b83811115620001695750506000910152565b634e487b7160e01b600052604160045260246000fd5b61083a80620006746000396000f3fe60806040526004361061004e5760003560e01c80633659cfe6146100655780634f1ef286146100855780635c60da1b146100985780638f283970146100c9578063f851a440146100e95761005d565b3661005d5761005b6100fe565b005b61005b6100fe565b34801561007157600080fd5b5061005b6100803660046106ca565b610118565b61005b6100933660046106e4565b61015f565b3480156100a457600080fd5b506100ad6101d0565b6040516001600160a01b03909116815260200160405180910390f35b3480156100d557600080fd5b5061005b6100e43660046106ca565b61020b565b3480156100f557600080fd5b506100ad610235565b610106610292565b610116610111610331565b61033b565b565b61012061035f565b6001600160a01b0316336001600160a01b031614156101575761015481604051806020016040528060008152506000610392565b50565b6101546100fe565b61016761035f565b6001600160a01b0316336001600160a01b031614156101c8576101c38383838080601f01602080910402602001604051908101604052809392919081815260200183838082843760009201919091525060019250610392915050565b505050565b6101c36100fe565b60006101da61035f565b6001600160a01b0316336001600160a01b03161415610200576101fb610331565b905090565b6102086100fe565b90565b61021361035f565b6001600160a01b0316336001600160a01b0316141561015757610154816103f1565b600061023f61035f565b6001600160a01b0316336001600160a01b03161415610200576101fb61035f565b606061028583836040518060600160405280602781526020016107de60279139610445565b9392505050565b3b151590565b61029a61035f565b6001600160a01b0316336001600160a01b031614156101165760405162461bcd60e51b815260206004820152604260248201527f5472616e73706172656e745570677261646561626c6550726f78793a2061646d60448201527f696e2063616e6e6f742066616c6c6261636b20746f2070726f78792074617267606482015261195d60f21b608482015260a4015b60405180910390fd5b60006101fb610519565b3660008037600080366000845af43d6000803e80801561035a573d6000f35b3d6000fd5b60007fb53127684a568b3173ae13b9f8a6016e243e63b6e8ee1178d6a717850b5d61035b546001600160a01b0316919050565b61039b83610541565b6040516001600160a01b038416907fbc7cd75a20ee27fd9adebab32041f755214dbc6bffa90cc0225b39da2e5c2d3b90600090a26000825111806103dc5750805b156101c3576103eb8383610260565b50505050565b7f7e644d79422f17c01e4894b5f4f588d331ebfa28653d42ae832dc59e38c9798f61041a61035f565b604080516001600160a01b03928316815291841660208301520160405180910390a1610154816105e9565b6060833b6104a45760405162461bcd60e51b815260206004820152602660248201527f416464726573733a2064656c65676174652063616c6c20746f206e6f6e2d636f6044820152651b9d1c9858dd60d21b6064820152608401610328565b600080856001600160a01b0316856040516104bf9190610762565b600060405180830381855af49150503d80600081146104fa576040519150601f19603f3d011682016040523d82523d6000602084013e6104ff565b606091505b509150915061050f828286610675565b9695505050505050565b60007f360894a13ba1a3210667c828492db98dca3e2076cc3735a920a3ca505d382bbc610383565b803b6105a55760405162461bcd60e51b815260206004820152602d60248201527f455243313936373a206e657720696d706c656d656e746174696f6e206973206e60448201526c1bdd08184818dbdb9d1c9858dd609a1b6064820152608401610328565b807f360894a13ba1a3210667c828492db98dca3e2076cc3735a920a3ca505d382bbc5b80546001600160a01b0319166001600160a01b039290921691909117905550565b6001600160a01b03811661064e5760405162461bcd60e51b815260206004820152602660248201527f455243313936373a206e65772061646d696e20697320746865207a65726f206160448201526564647265737360d01b6064820152608401610328565b807fb53127684a568b3173ae13b9f8a6016e243e63b6e8ee1178d6a717850b5d61036105c8565b60608315610684575081610285565b8251156106945782518084602001fd5b8160405162461bcd60e51b8152600401610328919061077e565b80356001600160a01b03811681146106c557600080fd5b919050565b6000602082840312156106db578081fd5b610285826106ae565b6000806000604084860312156106f8578182fd5b610701846106ae565b9250602084013567ffffffffffffffff8082111561071d578384fd5b818601915086601f830112610730578384fd5b81358181111561073e578485fd5b87602082850101111561074f578485fd5b6020830194508093505050509250925092565b600082516107748184602087016107b1565b9190910192915050565b602081526000825180602084015261079d8160408501602087016107b1565b601f01601f19169190910160400192915050565b60005b838110156107cc5781810151838201526020016107b4565b838111156103eb575050600091015256fe416464726573733a206c6f772d6c6576656c2064656c65676174652063616c6c206661696c6564a2646970667358221220b689b51b4ffe43c5b5ba54292dfa881092de98b07349d53ac94244746de2d4c564736f6c63430008040033b53127684a568b3173ae13b9f8a6016e243e63b6e8ee1178d6a717850b5d6103360894a13ba1a3210667c828492db98dca3e2076cc3735a920a3ca505d382bbc416464726573733a206c6f772d6c6576656c2064656c65676174652063616c6c206661696c6564",
  "immutableReferences": {},
  "source": "// SPDX-License-Identifier: MIT\n\npragma solidity ^0.8.0;\n\nimport \"../ERC1967/ERC1967Proxy.sol\";\n\n/**\n * @dev This contract implements a proxy that is upgradeable by an admin.\n *\n * To avoid https://medium.com/nomic-labs-blog/malicious-backdoors-in-ethereum-proxies-62629adf3357[proxy selector\n * clashing], which can potentially be used in an attack, this contract uses the\n * https://blog.openzeppelin.com/the-transparent-proxy-pattern/[transparent proxy pattern]. This pattern implies two\n * things that go hand in hand:\n *\n * 1. If any account other than the admin calls the proxy, the call will be forwarded to the implementation, even if\n * that call matches one of the admin functions exposed by the proxy itself.\n * 2. If the admin calls the proxy, it can access the admin functions, but its calls will never be forwarded to the\n * implementation. If the admin tries to call a function on the implementation it will fail with an error that says\n * \"admin cannot fallback to proxy target\".\n *\n * These properties mean that the admin account can only be used for admin actions like upgrading the proxy or changing\n * the admin, so it's best if it's a dedicated account that is not used for anything else. This will avoid headaches due\n * to sudden errors when trying to call a function from the proxy implementation.\n *\n * Our recommendation is for the dedicated account to be an instance of the {ProxyAdmin} contract. If set up this way,\n * you should think of the `ProxyAdmin` instance as the real administrative interface of your proxy.\n */\ncontract TransparentUpgradeableProxy is ERC1967Proxy {\n    /**\n     * @dev Initializes an upgradeable proxy managed by `_admin`, backed by the implementation at `_logic`, and\n     * optionally initialized with `_data` as explained in {ERC1967Proxy-constructor}.\n     */\n    constructor(address _logic, address admin_, bytes memory _data) payable ERC1967Proxy(_logic, _data) {\n        assert(_ADMIN_SLOT == bytes32(uint256(keccak256(\"eip1967.proxy.admin\")) - 1));\n        _changeAdmin(admin_);\n    }\n\n    /**\n     * @dev Modifier used internally that will delegate the call to the implementation unless the sender is the admin.\n     */\n    modifier ifAdmin() {\n        if (msg.sender == _getAdmin()) {\n            _;\n        } else {\n            _fallback();\n        }\n    }\n\n    /**\n     * @dev Returns the current admin.\n     *\n     * NOTE: Only the admin can call this function. See {ProxyAdmin-getProxyAdmin}.\n     *\n     * TIP: To get this value clients can read directly from the storage slot shown below (specified by EIP1967) using the\n     * https://eth.wiki/json-rpc/API#eth_getstorageat[`eth_getStorageAt`] RPC call.\n     * `0xb53127684a568b3173ae13b9f8a6016e243e63b6e8ee1178d6a717850b5d6103`\n     */\n    function admin() external ifAdmin returns (address admin_) {\n        admin_ = _getAdmin();\n    }\n\n    /**\n     * @dev Returns the current implementation.\n     *\n     * NOTE: Only the admin can call this function. See {ProxyAdmin-getProxyImplementation}.\n     *\n     * TIP: To get this value clients can read directly from the storage slot shown below (specified by EIP1967) using the\n     * https://eth.wiki/json-rpc/API#eth_getstorageat[`eth_getStorageAt`] RPC call.\n     * `0x360894a13ba1a3210667c828492db98dca3e2076cc3735a920a3ca505d382bbc`\n     */\n    function implementation() external ifAdmin returns (address implementation_) {\n        implementation_ = _implementation();\n    }\n\n    /**\n     * @dev Changes the admin of the proxy.\n     *\n     * Emits an {AdminChanged} event.\n     *\n     * NOTE: Only the admin can call this function. See {ProxyAdmin-changeProxyAdmin}.\n     */\n    function changeAdmin(address newAdmin) external virtual ifAdmin {\n        _changeAdmin(newAdmin);\n    }\n\n    /**\n     * @dev Upgrade the implementation of the proxy.\n     *\n     * NOTE: Only the admin can call this function. See {ProxyAdmin-upgrade}.\n     */\n    function upgradeTo(address newImplementation) external ifAdmin {\n        _upgradeToAndCall(newImplementation, bytes(\"\"), false);\n    }\n\n    /**\n     * @dev Upgrade the implementation of the proxy, and then call a function from the new implementation as specified\n     * by `data`, which should be an encoded function call. This is useful to initialize new storage variables in the\n     * proxied contract.\n     *\n     * NOTE: Only the admin can call this function. See {ProxyAdmin-upgradeAndCall}.\n     */\n    function upgradeToAndCall(address newImplementation, bytes calldata data) external payable ifAdmin {\n        _upgradeToAndCall(newImplementation, data, true);\n    }\n\n    /**\n     * @dev Returns the current admin.\n     */\n    function _admin() internal view virtual returns (address) {\n        return _getAdmin();\n    }\n\n    /**\n     * @dev Makes sure the admin cannot access the fallback function. See {Proxy-_beforeFallback}.\n     */\n    function _beforeFallback() internal virtual override {\n        require(msg.sender != _getAdmin(), \"TransparentUpgradeableProxy: admin cannot fallback to proxy target\");\n        super._beforeFallback();\n    }\n}\n",
  "sourcePath": "/home/toor/nodejs/truffle/nft_demo/taureum/taureum-nft-protocol-sc/contracts/lib/proxy/transparent/TransparentUpgradeableProxy.sol",
  "compiler": {
    "name": "solc",
    "version": "0.8.4+commit.c7e474f2.Emscripten.clang"
  },
  "schemaVersion": "3.4.1",
  "updatedAt": "2021-08-29T11:26:32.511Z",
  "devdoc": {
    "details": "This contract implements a proxy that is upgradeable by an admin. To avoid https://medium.com/nomic-labs-blog/malicious-backdoors-in-ethereum-proxies-62629adf3357[proxy selector clashing], which can potentially be used in an attack, this contract uses the https://blog.openzeppelin.com/the-transparent-proxy-pattern/[transparent proxy pattern]. This pattern implies two things that go hand in hand: 1. If any account other than the admin calls the proxy, the call will be forwarded to the implementation, even if that call matches one of the admin functions exposed by the proxy itself. 2. If the admin calls the proxy, it can access the admin functions, but its calls will never be forwarded to the implementation. If the admin tries to call a function on the implementation it will fail with an error that says \"admin cannot fallback to proxy target\". These properties mean that the admin account can only be used for admin actions like upgrading the proxy or changing the admin, so it's best if it's a dedicated account that is not used for anything else. This will avoid headaches due to sudden errors when trying to call a function from the proxy implementation. Our recommendation is for the dedicated account to be an instance of the {ProxyAdmin} contract. If set up this way, you should think of the `ProxyAdmin` instance as the real administrative interface of your proxy.",
    "kind": "dev",
    "methods": {
      "admin()": {
        "details": "Returns the current admin. NOTE: Only the admin can call this function. See {ProxyAdmin-getProxyAdmin}. TIP: To get this value clients can read directly from the storage slot shown below (specified by EIP1967) using the https://eth.wiki/json-rpc/API#eth_getstorageat[`eth_getStorageAt`] RPC call. `0xb53127684a568b3173ae13b9f8a6016e243e63b6e8ee1178d6a717850b5d6103`"
      },
      "changeAdmin(address)": {
        "details": "Changes the admin of the proxy. Emits an {AdminChanged} event. NOTE: Only the admin can call this function. See {ProxyAdmin-changeProxyAdmin}."
      },
      "constructor": {
        "details": "Initializes an upgradeable proxy managed by `_admin`, backed by the implementation at `_logic`, and optionally initialized with `_data` as explained in {ERC1967Proxy-constructor}."
      },
      "implementation()": {
        "details": "Returns the current implementation. NOTE: Only the admin can call this function. See {ProxyAdmin-getProxyImplementation}. TIP: To get this value clients can read directly from the storage slot shown below (specified by EIP1967) using the https://eth.wiki/json-rpc/API#eth_getstorageat[`eth_getStorageAt`] RPC call. `0x360894a13ba1a3210667c828492db98dca3e2076cc3735a920a3ca505d382bbc`"
      },
      "upgradeTo(address)": {
        "details": "Upgrade the implementation of the proxy. NOTE: Only the admin can call this function. See {ProxyAdmin-upgrade}."
      },
      "upgradeToAndCall(address,bytes)": {
        "details": "Upgrade the implementation of the proxy, and then call a function from the new implementation as specified by `data`, which should be an encoded function call. This is useful to initialize new storage variables in the proxied contract. NOTE: Only the admin can call this function. See {ProxyAdmin-upgradeAndCall}."
      }
    },
    "version": 1
  },
  "userdoc": {
    "kind": "user",
    "methods": {},
    "version": 1
  }
}